{"contracts/PokeballGame.sol":{"PokeballGame":{"abi":[{"inputs":[],"stateMutability":"nonpayable","type":"constructor"},{"inputs":[{"internalType":"address","name":"target","type":"address"}],"name":"AddressEmptyCode","type":"error"},{"inputs":[{"internalType":"address","name":"implementation","type":"address"}],"name":"ERC1967InvalidImplementation","type":"error"},{"inputs":[],"name":"ERC1967NonPayable","type":"error"},{"inputs":[],"name":"EnforcedPause","type":"error"},{"inputs":[],"name":"ExpectedPause","type":"error"},{"inputs":[],"name":"FailedCall","type":"error"},{"inputs":[{"internalType":"address","name":"token","type":"address"},{"internalType":"uint256","name":"required","type":"uint256"},{"internalType":"uint256","name":"available","type":"uint256"}],"name":"InsufficientAllowance","type":"error"},{"inputs":[{"internalType":"address","name":"token","type":"address"},{"internalType":"uint256","name":"required","type":"uint256"},{"internalType":"uint256","name":"available","type":"uint256"}],"name":"InsufficientBalance","type":"error"},{"inputs":[{"internalType":"enum PokeballGame.BallType","name":"ballType","type":"uint8"},{"internalType":"uint256","name":"required","type":"uint256"},{"internalType":"uint256","name":"available","type":"uint256"}],"name":"InsufficientBalls","type":"error"},{"inputs":[{"internalType":"uint8","name":"provided","type":"uint8"}],"name":"InvalidBallType","type":"error"},{"inputs":[],"name":"InvalidInitialization","type":"error"},{"inputs":[{"internalType":"uint8","name":"slot","type":"uint8"}],"name":"InvalidPokemonSlot","type":"error"},{"inputs":[],"name":"InvalidPrice","type":"error"},{"inputs":[],"name":"NoFeesToWithdraw","type":"error"},{"inputs":[],"name":"NotInitializing","type":"error"},{"inputs":[{"internalType":"address","name":"owner","type":"address"}],"name":"OwnableInvalidOwner","type":"error"},{"inputs":[{"internalType":"address","name":"account","type":"address"}],"name":"OwnableUnauthorizedAccount","type":"error"},{"inputs":[{"internalType":"uint256","name":"pokemonId","type":"uint256"}],"name":"PokemonNotActive","type":"error"},{"inputs":[],"name":"ReentrancyGuardReentrantCall","type":"error"},{"inputs":[{"internalType":"address","name":"token","type":"address"}],"name":"SafeERC20FailedOperation","type":"error"},{"inputs":[{"internalType":"uint8","name":"slot","type":"uint8"}],"name":"SlotOccupied","type":"error"},{"inputs":[{"internalType":"uint256","name":"requestId","type":"uint256"}],"name":"ThrowAlreadyResolved","type":"error"},{"inputs":[{"internalType":"uint256","name":"requestId","type":"uint256"}],"name":"ThrowNotFound","type":"error"},{"inputs":[],"name":"TransferFailed","type":"error"},{"inputs":[],"name":"UUPSUnauthorizedCallContext","type":"error"},{"inputs":[{"internalType":"bytes32","name":"slot","type":"bytes32"}],"name":"UUPSUnsupportedProxiableUUID","type":"error"},{"inputs":[{"internalType":"address","name":"caller","type":"address"}],"name":"UnauthorizedCallback","type":"error"},{"inputs":[],"name":"ZeroAddress","type":"error"},{"inputs":[],"name":"ZeroQuantity","type":"error"},{"anonymous":false,"inputs":[{"indexed":false,"internalType":"uint256","name":"oldPrice","type":"uint256"},{"indexed":false,"internalType":"uint256","name":"newPrice","type":"uint256"}],"name":"APEPriceUpdated","type":"event"},{"anonymous":false,"inputs":[{"indexed":true,"internalType":"address","name":"buyer","type":"address"},{"indexed":false,"internalType":"uint8","name":"ballType","type":"uint8"},{"indexed":false,"internalType":"uint256","name":"quantity","type":"uint256"},{"indexed":false,"internalType":"bool","name":"usedAPE","type":"bool"}],"name":"BallPurchased","type":"event"},{"anonymous":false,"inputs":[{"indexed":true,"internalType":"address","name":"catcher","type":"address"},{"indexed":false,"internalType":"uint256","name":"pokemonId","type":"uint256"},{"indexed":false,"internalType":"uint256","name":"nftTokenId","type":"uint256"}],"name":"CaughtPokemon","type":"event"},{"anonymous":false,"inputs":[{"indexed":true,"internalType":"address","name":"thrower","type":"address"},{"indexed":false,"internalType":"uint256","name":"pokemonId","type":"uint256"},{"indexed":false,"internalType":"uint8","name":"attemptsRemaining","type":"uint8"}],"name":"FailedCatch","type":"event"},{"anonymous":false,"inputs":[{"indexed":false,"internalType":"address","name":"recipient","type":"address"},{"indexed":false,"internalType":"uint256","name":"amount","type":"uint256"}],"name":"FeesWithdrawn","type":"event"},{"anonymous":false,"inputs":[{"indexed":false,"internalType":"uint64","name":"version","type":"uint64"}],"name":"Initialized","type":"event"},{"anonymous":false,"inputs":[{"indexed":false,"internalType":"uint256","name":"requestId","type":"uint256"},{"indexed":false,"internalType":"address","name":"recipient","type":"address"},{"indexed":false,"internalType":"uint256","name":"amount","type":"uint256"}],"name":"NFTPurchaseTriggered","type":"event"},{"anonymous":false,"inputs":[{"indexed":true,"internalType":"address","name":"previousOwner","type":"address"},{"indexed":true,"internalType":"address","name":"newOwner","type":"address"}],"name":"OwnershipTransferred","type":"event"},{"anonymous":false,"inputs":[{"indexed":false,"internalType":"address","name":"account","type":"address"}],"name":"Paused","type":"event"},{"anonymous":false,"inputs":[{"indexed":false,"internalType":"uint256","name":"pokemonId","type":"uint256"},{"indexed":false,"internalType":"uint256","name":"newX","type":"uint256"},{"indexed":false,"internalType":"uint256","name":"newY","type":"uint256"}],"name":"PokemonRelocated","type":"event"},{"anonymous":false,"inputs":[{"indexed":false,"internalType":"uint256","name":"pokemonId","type":"uint256"},{"indexed":false,"internalType":"uint256","name":"positionX","type":"uint256"},{"indexed":false,"internalType":"uint256","name":"positionY","type":"uint256"},{"indexed":false,"internalType":"uint8","name":"slotIndex","type":"uint8"}],"name":"PokemonSpawned","type":"event"},{"anonymous":false,"inputs":[{"indexed":false,"internalType":"uint256","name":"amount","type":"uint256"},{"indexed":false,"internalType":"uint256","name":"newTotal","type":"uint256"}],"name":"RevenueAdded","type":"event"},{"anonymous":false,"inputs":[{"indexed":true,"internalType":"address","name":"thrower","type":"address"},{"indexed":false,"internalType":"uint256","name":"pokemonId","type":"uint256"},{"indexed":false,"internalType":"uint8","name":"ballTier","type":"uint8"},{"indexed":false,"internalType":"uint256","name":"requestId","type":"uint256"}],"name":"ThrowAttempted","type":"event"},{"anonymous":false,"inputs":[{"indexed":false,"internalType":"address","name":"account","type":"address"}],"name":"Unpaused","type":"event"},{"anonymous":false,"inputs":[{"indexed":true,"internalType":"address","name":"implementation","type":"address"}],"name":"Upgraded","type":"event"},{"anonymous":false,"inputs":[{"indexed":false,"internalType":"string","name":"walletType","type":"string"},{"indexed":false,"internalType":"address","name":"oldAddress","type":"address"},{"indexed":false,"internalType":"address","name":"newAddress","type":"address"}],"name":"WalletUpdated","type":"event"},{"inputs":[],"name":"APE_DECIMALS","outputs":[{"internalType":"uint8","name":"","type":"uint8"}],"stateMutability":"view","type":"function"},{"inputs":[],"name":"BPS_DENOMINATOR","outputs":[{"internalType":"uint256","name":"","type":"uint256"}],"stateMutability":"view","type":"function"},{"inputs":[],"name":"GREATBALL_CATCH_RATE","outputs":[{"internalType":"uint8","name":"","type":"uint8"}],"stateMutability":"view","type":"function"},{"inputs":[],"name":"GREATBALL_PRICE","outputs":[{"internalType":"uint256","name":"","type":"uint256"}],"stateMutability":"view","type":"function"},{"inputs":[],"name":"MASTERBALL_CATCH_RATE","outputs":[{"internalType":"uint8","name":"","type":"uint8"}],"stateMutability":"view","type":"function"},{"inputs":[],"name":"MASTERBALL_PRICE","outputs":[{"internalType":"uint256","name":"","type":"uint256"}],"stateMutability":"view","type":"function"},{"inputs":[],"name":"MAX_ACTIVE_POKEMON","outputs":[{"internalType":"uint8","name":"","type":"uint8"}],"stateMutability":"view","type":"function"},{"inputs":[],"name":"MAX_COORDINATE","outputs":[{"internalType":"uint256","name":"","type":"uint256"}],"stateMutability":"view","type":"function"},{"inputs":[],"name":"MAX_THROW_ATTEMPTS","outputs":[{"internalType":"uint8","name":"","type":"uint8"}],"stateMutability":"view","type":"function"},{"inputs":[],"name":"NFT_PURCHASE_THRESHOLD","outputs":[{"internalType":"uint256","name":"","type":"uint256"}],"stateMutability":"view","type":"function"},{"inputs":[],"name":"PLATFORM_FEE_BPS","outputs":[{"internalType":"uint256","name":"","type":"uint256"}],"stateMutability":"view","type":"function"},{"inputs":[],"name":"POKEBALL_CATCH_RATE","outputs":[{"internalType":"uint8","name":"","type":"uint8"}],"stateMutability":"view","type":"function"},{"inputs":[],"name":"POKEBALL_PRICE","outputs":[{"internalType":"uint256","name":"","type":"uint256"}],"stateMutability":"view","type":"function"},{"inputs":[],"name":"REVENUE_POOL_BPS","outputs":[{"internalType":"uint256","name":"","type":"uint256"}],"stateMutability":"view","type":"function"},{"inputs":[],"name":"ULTRABALL_CATCH_RATE","outputs":[{"internalType":"uint8","name":"","type":"uint8"}],"stateMutability":"view","type":"function"},{"inputs":[],"name":"ULTRABALL_PRICE","outputs":[{"internalType":"uint256","name":"","type":"uint256"}],"stateMutability":"view","type":"function"},{"inputs":[],"name":"UPGRADE_INTERFACE_VERSION","outputs":[{"internalType":"string","name":"","type":"string"}],"stateMutability":"view","type":"function"},{"inputs":[],"name":"USDC_DECIMALS","outputs":[{"internalType":"uint8","name":"","type":"uint8"}],"stateMutability":"view","type":"function"},{"inputs":[{"internalType":"uint256","name":"","type":"uint256"}],"name":"activePokemons","outputs":[{"internalType":"uint256","name":"id","type":"uint256"},{"internalType":"uint256","name":"positionX","type":"uint256"},{"internalType":"uint256","name":"positionY","type":"uint256"},{"internalType":"uint8","name":"throwAttempts","type":"uint8"},{"internalType":"bool","name":"isActive","type":"bool"},{"internalType":"uint256","name":"spawnTime","type":"uint256"}],"stateMutability":"view","type":"function"},{"inputs":[],"name":"ape","outputs":[{"internalType":"contract IERC20","name":"","type":"address"}],"stateMutability":"view","type":"function"},{"inputs":[],"name":"apePriceUSD","outputs":[{"internalType":"uint256","name":"","type":"uint256"}],"stateMutability":"view","type":"function"},{"inputs":[{"internalType":"uint256","name":"usdcAmount","type":"uint256"}],"name":"calculateAPEAmount","outputs":[{"internalType":"uint256","name":"apeAmount","type":"uint256"}],"stateMutability":"view","type":"function"},{"inputs":[{"internalType":"uint8","name":"slot","type":"uint8"}],"name":"despawnPokemon","outputs":[],"stateMutability":"nonpayable","type":"function"},{"inputs":[{"internalType":"uint8","name":"slot","type":"uint8"},{"internalType":"uint256","name":"posX","type":"uint256"},{"internalType":"uint256","name":"posY","type":"uint256"}],"name":"forceSpawnPokemon","outputs":[],"stateMutability":"nonpayable","type":"function"},{"inputs":[],"name":"getAllActivePokemons","outputs":[{"components":[{"internalType":"uint256","name":"id","type":"uint256"},{"internalType":"uint256","name":"positionX","type":"uint256"},{"internalType":"uint256","name":"positionY","type":"uint256"},{"internalType":"uint8","name":"throwAttempts","type":"uint8"},{"internalType":"bool","name":"isActive","type":"bool"},{"internalType":"uint256","name":"spawnTime","type":"uint256"}],"internalType":"struct PokeballGame.Pokemon[3]","name":"pokemons","type":"tuple[3]"}],"stateMutability":"view","type":"function"},{"inputs":[{"internalType":"address","name":"player","type":"address"}],"name":"getAllPlayerBalls","outputs":[{"internalType":"uint256","name":"pokeBalls","type":"uint256"},{"internalType":"uint256","name":"greatBalls","type":"uint256"},{"internalType":"uint256","name":"ultraBalls","type":"uint256"},{"internalType":"uint256","name":"masterBalls","type":"uint256"}],"stateMutability":"view","type":"function"},{"inputs":[{"internalType":"enum PokeballGame.BallType","name":"ballType","type":"uint8"}],"name":"getBallPrice","outputs":[{"internalType":"uint256","name":"price","type":"uint256"}],"stateMutability":"pure","type":"function"},{"inputs":[{"internalType":"enum PokeballGame.BallType","name":"ballType","type":"uint8"}],"name":"getCatchRate","outputs":[{"internalType":"uint8","name":"rate","type":"uint8"}],"stateMutability":"pure","type":"function"},{"inputs":[],"name":"getNFTInventoryCount","outputs":[{"internalType":"uint256","name":"count","type":"uint256"}],"stateMutability":"view","type":"function"},{"inputs":[{"internalType":"uint256","name":"requestId","type":"uint256"}],"name":"getPendingThrow","outputs":[{"components":[{"internalType":"address","name":"thrower","type":"address"},{"internalType":"uint256","name":"pokemonId","type":"uint256"},{"internalType":"enum PokeballGame.BallType","name":"ballType","type":"uint8"},{"internalType":"uint256","name":"timestamp","type":"uint256"},{"internalType":"bool","name":"resolved","type":"bool"}],"internalType":"struct PokeballGame.PendingThrow","name":"","type":"tuple"}],"stateMutability":"view","type":"function"},{"inputs":[{"internalType":"address","name":"player","type":"address"},{"internalType":"uint8","name":"ballType","type":"uint8"}],"name":"getPlayerBallBalance","outputs":[{"internalType":"uint256","name":"quantity","type":"uint256"}],"stateMutability":"view","type":"function"},{"inputs":[{"internalType":"uint8","name":"slot","type":"uint8"}],"name":"getPokemon","outputs":[{"components":[{"internalType":"uint256","name":"id","type":"uint256"},{"internalType":"uint256","name":"positionX","type":"uint256"},{"internalType":"uint256","name":"positionY","type":"uint256"},{"internalType":"uint8","name":"throwAttempts","type":"uint8"},{"internalType":"bool","name":"isActive","type":"bool"},{"internalType":"uint256","name":"spawnTime","type":"uint256"}],"internalType":"struct PokeballGame.Pokemon","name":"pokemon","type":"tuple"}],"stateMutability":"view","type":"function"},{"inputs":[],"name":"getRevenuePoolStatus","outputs":[{"internalType":"uint256","name":"poolBalance","type":"uint256"},{"internalType":"uint256","name":"threshold","type":"uint256"},{"internalType":"bool","name":"canPurchase","type":"bool"}],"stateMutability":"view","type":"function"},{"inputs":[{"internalType":"address","name":"_owner","type":"address"},{"internalType":"address","name":"_treasury","type":"address"},{"internalType":"address","name":"_nftRevenue","type":"address"},{"internalType":"address","name":"_usdce","type":"address"},{"internalType":"address","name":"_ape","type":"address"},{"internalType":"address","name":"_vrng","type":"address"},{"internalType":"address","name":"_slabMachine","type":"address"},{"internalType":"address","name":"_slabNFT","type":"address"},{"internalType":"uint256","name":"_initialAPEPrice","type":"uint256"}],"name":"initialize","outputs":[],"stateMutability":"nonpayable","type":"function"},{"inputs":[],"name":"nextPokemonId","outputs":[{"internalType":"uint256","name":"","type":"uint256"}],"stateMutability":"view","type":"function"},{"inputs":[{"internalType":"uint256","name":"","type":"uint256"}],"name":"nftInventory","outputs":[{"internalType":"uint256","name":"","type":"uint256"}],"stateMutability":"view","type":"function"},{"inputs":[],"name":"nftRevenueWallet","outputs":[{"internalType":"address","name":"","type":"address"}],"stateMutability":"view","type":"function"},{"inputs":[{"internalType":"address","name":"","type":"address"},{"internalType":"address","name":"","type":"address"},{"internalType":"uint256","name":"tokenId","type":"uint256"},{"internalType":"bytes","name":"","type":"bytes"}],"name":"onERC721Received","outputs":[{"internalType":"bytes4","name":"","type":"bytes4"}],"stateMutability":"nonpayable","type":"function"},{"inputs":[],"name":"owner","outputs":[{"internalType":"address","name":"","type":"address"}],"stateMutability":"view","type":"function"},{"inputs":[],"name":"pause","outputs":[],"stateMutability":"nonpayable","type":"function"},{"inputs":[],"name":"paused","outputs":[{"internalType":"bool","name":"","type":"bool"}],"stateMutability":"view","type":"function"},{"inputs":[{"internalType":"uint256","name":"","type":"uint256"}],"name":"pendingNFTRecipients","outputs":[{"internalType":"address","name":"","type":"address"}],"stateMutability":"view","type":"function"},{"inputs":[{"internalType":"uint256","name":"","type":"uint256"}],"name":"pendingThrows","outputs":[{"internalType":"address","name":"thrower","type":"address"},{"internalType":"uint256","name":"pokemonId","type":"uint256"},{"internalType":"enum PokeballGame.BallType","name":"ballType","type":"uint8"},{"internalType":"uint256","name":"timestamp","type":"uint256"},{"internalType":"bool","name":"resolved","type":"bool"}],"stateMutability":"view","type":"function"},{"inputs":[{"internalType":"address","name":"","type":"address"},{"internalType":"enum PokeballGame.BallType","name":"","type":"uint8"}],"name":"playerBalls","outputs":[{"internalType":"uint256","name":"","type":"uint256"}],"stateMutability":"view","type":"function"},{"inputs":[],"name":"proxiableUUID","outputs":[{"internalType":"bytes32","name":"","type":"bytes32"}],"stateMutability":"view","type":"function"},{"inputs":[{"internalType":"uint8","name":"ballType","type":"uint8"},{"internalType":"uint256","name":"quantity","type":"uint256"},{"internalType":"bool","name":"useAPE","type":"bool"}],"name":"purchaseBalls","outputs":[],"stateMutability":"nonpayable","type":"function"},{"inputs":[{"internalType":"uint256","name":"requestId","type":"uint256"},{"internalType":"uint256","name":"randomNumber","type":"uint256"}],"name":"randomNumberCallback","outputs":[],"stateMutability":"nonpayable","type":"function"},{"inputs":[],"name":"renounceOwnership","outputs":[],"stateMutability":"nonpayable","type":"function"},{"inputs":[{"internalType":"uint256","name":"","type":"uint256"}],"name":"requestIdToTraceId","outputs":[{"internalType":"uint256","name":"","type":"uint256"}],"stateMutability":"view","type":"function"},{"inputs":[{"internalType":"uint256","name":"newPrice","type":"uint256"}],"name":"setAPEPrice","outputs":[],"stateMutability":"nonpayable","type":"function"},{"inputs":[{"internalType":"address","name":"newNFTRevenue","type":"address"}],"name":"setNFTRevenueWallet","outputs":[],"stateMutability":"nonpayable","type":"function"},{"inputs":[{"internalType":"address","name":"newTreasury","type":"address"}],"name":"setTreasuryWallet","outputs":[],"stateMutability":"nonpayable","type":"function"},{"inputs":[],"name":"slabMachine","outputs":[{"internalType":"contract ISlabMachine","name":"","type":"address"}],"stateMutability":"view","type":"function"},{"inputs":[],"name":"slabNFT","outputs":[{"internalType":"contract IERC721","name":"","type":"address"}],"stateMutability":"view","type":"function"},{"inputs":[{"internalType":"uint8","name":"slot","type":"uint8"}],"name":"spawnPokemon","outputs":[],"stateMutability":"nonpayable","type":"function"},{"inputs":[{"internalType":"uint8","name":"pokemonSlot","type":"uint8"},{"internalType":"uint8","name":"ballType","type":"uint8"}],"name":"throwBall","outputs":[{"internalType":"uint256","name":"requestId","type":"uint256"}],"stateMutability":"nonpayable","type":"function"},{"inputs":[],"name":"totalNFTsPurchased","outputs":[{"internalType":"uint256","name":"","type":"uint256"}],"stateMutability":"view","type":"function"},{"inputs":[],"name":"totalPlatformFees","outputs":[{"internalType":"uint256","name":"","type":"uint256"}],"stateMutability":"view","type":"function"},{"inputs":[],"name":"totalRevenuePool","outputs":[{"internalType":"uint256","name":"","type":"uint256"}],"stateMutability":"view","type":"function"},{"inputs":[{"internalType":"address","name":"newOwner","type":"address"}],"name":"transferOwnership","outputs":[],"stateMutability":"nonpayable","type":"function"},{"inputs":[],"name":"treasuryWallet","outputs":[{"internalType":"address","name":"","type":"address"}],"stateMutability":"view","type":"function"},{"inputs":[],"name":"unpause","outputs":[],"stateMutability":"nonpayable","type":"function"},{"inputs":[{"internalType":"address","name":"newImplementation","type":"address"},{"internalType":"bytes","name":"data","type":"bytes"}],"name":"upgradeToAndCall","outputs":[],"stateMutability":"payable","type":"function"},{"inputs":[],"name":"usdce","outputs":[{"internalType":"contract IERC20","name":"","type":"address"}],"stateMutability":"view","type":"function"},{"inputs":[],"name":"vrng","outputs":[{"internalType":"contract IPOPVRNG","name":"","type":"address"}],"stateMutability":"view","type":"function"},{"inputs":[],"name":"withdrawFees","outputs":[],"stateMutability":"nonpayable","type":"function"}],"evm":{"bytecode":{"linkReferences":{},"object":"60a080604052346100ea57306080527ff0c57e16840df040f15088dc2f81fe391c3923bec73e23a9662efc9c229c6a005460ff8160401c166100d9576002600160401b03196001600160401b03821601610073575b6040516130f490816100f08239608051818181611778015261184c0152f35b6001600160401b0319166001600160401b039081177ff0c57e16840df040f15088dc2f81fe391c3923bec73e23a9662efc9c229c6a005581527fc7f505b2f371ae2175ee4913f4499e1f2633a7b5936321eed1cdaeb6115181d290602090a13880610054565b63f92ee8a960e01b60005260046000fd5b600080fdfe6080604052600436101561001257600080fd5b60003560e01c8063064c973c146125685780630771197f146124fa578063116484221461221c578063150b7a0214612158578063230c77ff1461213957806323b5cb5d1461206357806323eec5711461202f57806325c61fcd146120065780632795a90e14611f9b5780632e9ed2e414611f7c578063344dd6e414611c8f57806338efa83114611c735780633bd8171514611c565780633f4ba83a14611bd35780634129849f14611bb55780634626402b14611b8c578063476343ee14611aaf5780634c4e2a4614611a105780634f1ef286146117cf57806352d1902d14611765578063539aa77f146117485780635bf7117a1461171f5780635c975abb146116ef578063607c45d114611684578063621384141461165b57806364c618cc14611632578063715018a6146115c85780637881a070146115ac57806379babd2c146115835780637a0b07cf1461146c5780637ed2f783146112665780637edc648c1461123a57806382b65bef146112025780638456cb591461118e5780638da5cb5b146111585780638f561acc1461111257806394ea04d1146109df578063970cff93146109905780639b7d1a2a146109005780639f48ed23146108e45780639fb769dd146108c6578063a2afc37314610858578063a4cedc391461083a578063a8602fea1461078c578063ad3cb1cc14610710578063b036d591146106f4578063bf370a61146106c4578063c1419def146106a8578063c5b7dffd14610677578063cc7a69de1461065a578063d25741831461063d578063d33953ba14610614578063d3631fa5146105f6578063d9deb60b146105d8578063df33c1fd146105bc578063e155d79e1461059e578063e1a4521814610581578063eb76c37e14610490578063efdf99491461054e578063f2fde38b14610523578063f4f00092146104b4578063f8ce2c7d14610495578063fc774c5c14610490578063fcc536ba14610388578063fd626a181461036a5763fe5c7ba8146102f257600080fd5b346103655760203660031901126103655761030b6125c2565b610313612e5e565b60ff811660038110156103515750600381101561033b57600502600e01805461ff0019169055005b634e487b7160e01b600052603260045260246000fd5b63cba5131560e01b60005260045260246000fd5b600080fd5b34610365576000366003190112610365576020604051620f42408152f35b346103655760003660031901126103655760606040516103a88282612617565b60005b82811061047b5760405180840167ffffffffffffffff81118282101761046557604052600b6000825b6003821061044757604051846000825b600382106103f25761024084f35b602060c08261043b600194875160a0809180518452602081015160208501526040810151604085015260ff60608201511660608501526080810151151560808501520151910152565b019301910190916103e4565b6005602060019261045786612c6c565b8152019301910190916103d4565b634e487b7160e01b600052604160045260246000fd5b602090610486612c3b565b81840152016103ab565b612688565b3461036557600036600319011261036557602060405163017d78408152f35b3461036557602036600319011261036557600435600052601b60205260a06040600020600180831b038154169060018101549061051560ff60028301541660ff600460038501549401541693604051958652602086015260408501906125d2565b606083015215156080820152f35b346103655760203660031901126103655761054c61053f612586565b610547612e5e565b612d82565b005b3461036557602036600319011261036557600435600481101561036557610576602091612d22565b60ff60405191168152f35b346103655760003660031901126103655760206040516127108152f35b34610365576000366003190112610365576020600954604051908152f35b3461036557600036600319011261036557602060405160148152f35b34610365576000366003190112610365576020601a54604051908152f35b34610365576000366003190112610365576020600854604051908152f35b34610365576000366003190112610365576000546040516001600160a01b039091168152602090f35b346103655760003660031901126103655760206040516103e78152f35b346103655760003660031901126103655760208054604051908152f35b3461036557600036600319011261036557606060075463030a32c06040519180835281602084015210156040820152f35b3461036557600036600319011261036557602060405160068152f35b34610365576020366003190112610365576004356004811015610365576106ec602091612cb8565b604051908152f35b3461036557600036600319011261036557602060405160638152f35b346103655760003660031901126103655760408051906107308183612617565b60058252640352e302e360dc1b6020830152805180926020825280519081602084015260005b8281106107755750506000828201840152601f01601f19168101030190f35b602082820181015187830187015286945001610756565b34610365576020366003190112610365576107a5612586565b6107ad612e5e565b6001600160a01b031680156108295760a07fd8e98bff5ae8522235ef48daecff7488b367200bea03a4e8cb4bc98108c6a4929160055490806001600160601b03841b83161760055560405191606083526008606084015267747265617375727960c01b6080840152600180851b031660208301526040820152a1005b63d92e233d60e01b60005260046000fd5b34610365576000366003190112610365576020604051629896808152f35b346103655760203660031901126103655760806001600160a01b0361087b612586565b166000908152600a6020908152604080832083805282528083205460018452818420546002855282852054600386529483902054835192835293820152908101929092526060820152f35b34610365576000366003190112610365576020600754604051908152f35b3461036557600036600319011261036557602060405160328152f35b34610365576020366003190112610365576109196125c2565b610921612c3b565b5060ff811660038110156103515750600381101561033b5761094a600560c09202600b01612c6c565b61098e604051809260a0809180518452602081015160208501526040810151604085015260ff60608201511660608501526080810151151560808501520151910152565bf35b34610365576040366003190112610365576109a9612586565b602435906004821015610365576020916109d69160018060a01b0316600052600a83526040600020612670565b54604051908152f35b34610365576060366003190112610365576109f86125c2565b60243590604435918215159182840361036557610a13612df8565b610a1b612e34565b81156111015760ff1692600384116110ec5760048410156110d657610a3f84612cb8565b9082820291808304841490151715610ec85715610f7a57610a5f816126a4565b600154604051636eb1769f60e11b81523360048201523060248201526001600160a01b0390911690602081604481855afa908115610dcf57600091610f48575b50828110610f2c57506040516370a0823160e01b8152336004820152602081602481855afa908115610dcf57600091610efa575b50828110610ede575090610aea9130903390612f79565b61012c810281810461012c1482151715610ec8577f5d22f5d15d95ed39d12130528f910a501ad34deb0428d9227c9d316d9bcb99e991610b3d610b346127106040940480936126eb565b91600854612713565b600855610b4c81600754612713565b8060075582519182526020820152a15b33600052600a602052610b73836040600020612670565b610b7e828254612713565b9055604051928352602083015260408201527f279d78d3bc9e8f1f0c6275b03db1ea13aed8715f3f9ad832f728113b3568cc4160603392a260075463030a32c0811015610bda575b600160008051602061307f83398151915255005b600354604051632dabc24f60e01b8152916001600160a01b039091169060a083600481855afa8015610dcf576000938491610e7d575b5080610e73575b610c23575b5050610bc6565b82610c2d916126eb565b600755600054604051636eb1769f60e11b81523060048201526001600160a01b03838116602483015290911690602081604481855afa8015610dcf578490600090610e3d575b610c7d9250612713565b60405163095ea7b360e01b60208083019182526001600160a01b038616602484015260448084019490945292825290929190600090610cbd606486612617565b84519082855af16000513d82610e21575b505015610ddb575b5050600354600654604051634bda0d0960e11b8152600481018590526001600160a01b039182166024820152925060209183916044918391600091165af1908115610dcf57600091610d7d575b506060907fd2f4076f36ae69d66b6687398c519b4a2fd0910af9109a8edeba1a7c7d22146392610d54600954612704565b600955600654604080519384526001600160a01b039091166020840152820152a1808080610c1c565b90506020813d602011610dc7575b81610d9860209383612617565b8101031261036557517fd2f4076f36ae69d66b6687398c519b4a2fd0910af9109a8edeba1a7c7d221463610d23565b3d9150610d8b565b6040513d6000823e3d90fd5b610e14610e19936040519063095ea7b360e01b602083015260248201526000604482015260448152610e0e606482612617565b82612f1e565b612f1e565b818080610cd6565b909150610e355750803b15155b8580610cce565b600114610e2e565b50506020813d602011610e6b575b81610e5860209383612617565b810103126103655783610c7d9151610c73565b3d9150610e4b565b5082811015610c17565b905060a0813d60a011610ec0575b81610e9860a09383612617565b81010312610ebc5760808151910151938415158503610eb957509284610c10565b80fd5b8380fd5b3d9150610e8b565b634e487b7160e01b600052601160045260246000fd5b925063db42144d60e01b60005260045260245260445260646000fd5b906020823d602011610f24575b81610f1460209383612617565b81010312610eb957505187610ad3565b3d9150610f07565b9250630c95cf2760e11b60005260045260245260445260646000fd5b906020823d602011610f72575b81610f6260209383612617565b81010312610eb957505187610a9f565b3d9150610f55565b600054604051636eb1769f60e11b81523360048201523060248201526001600160a01b0390911690602081604481855afa908115610dcf576000916110a4575b50828110610f2c57506040516370a0823160e01b8152336004820152602081602481855afa908115610dcf57600091611072575b50828110610ede5750816110059130903390612f79565b61012c810281810461012c1482151715610ec8577f5d22f5d15d95ed39d12130528f910a501ad34deb0428d9227c9d316d9bcb99e99161104f610b346127106040940480936126eb565b60085561105e81600754612713565b8060075582519182526020820152a1610b5c565b906020823d60201161109c575b8161108c60209383612617565b81010312610eb957505186610fee565b3d915061107f565b906020823d6020116110ce575b816110be60209383612617565b81010312610eb957505186610fba565b3d91506110b1565b634e487b7160e01b600052602160045260246000fd5b8363fab9b83760e01b60005260045260246000fd5b63f4f5b73360e01b60005260046000fd5b34610365576040366003190112610365576002546001600160a01b031633036111435761054c602435600435612720565b635a1c6a5960e01b6000523360045260246000fd5b346103655760003660031901126103655760008051602061301f833981519152546040516001600160a01b039091168152602090f35b34610365576000366003190112610365576111a7612e5e565b6111af612e34565b600160ff1960008051602061305f83398151915254161760008051602061305f833981519152557f62e78cea01bee320cd4e420270b5ea74000d11b0c9f74754ebdbfc544b05a2586020604051338152a1005b3461036557602036600319011261036557600435601e548110156103655761122b602091612655565b90549060031b1c604051908152f35b3461036557602036600319011261036557600435600052601c6020526020604060002054604051908152f35b346103655760203660031901126103655761127f6125c2565b611287612e5e565b60ff811690600382101561145757600381101561033b57600502600e015460081c60ff1661144357601a54906112bc82612704565b601a556000601d546112cd81612704565b601d5560405160208101916001600160601b03193060601b16835285603483015260ff60f81b6054830152426055830152607582015260758152611312609582612617565b51902091602060018060a01b03600254166024604051809581936371c8a23960e11b83528860048401525af1918215610dcf5760009261140f575b5060048110156110d657604051611363816125df565b3081526020810194855261137b6040820192836126f8565b4260608201908152600060808301818152858252601b6020526040909120925183546001600160a01b0319166001600160a01b039190911617835595516001830155915194600282019060048710156110d6576114009360049260009860ff8019835416911617905551600384015551151591019060ff801983541691151516179055565b8252601c602052604082205580f35b90916020823d60201161143b575b8161142a60209383612617565b81010312610eb9575051908461134d565b3d915061141d565b632f8ecec960e21b60005260045260246000fd5b5063cba5131560e01b60005260045260246000fd5b34610365576060366003190112610365576114856125c2565b61148d612e5e565b60ff811690600382101561145757600381101561033b57600502600e81019160ff835460081c1661144357601a54916114c583612704565b601a556024356103e890066044356103e8900691604051956114e6876125fb565b8587526020808801849052604080890186905260006060808b0182905260016080808d01919091524260a0909c018c9052600b87018b9055600c8701889055600d8701899055855461ffff191661010017909555600f9095019990995580519788529087019390935291850192909252908301919091527f156f6fef57e34329718d6efbd41f31a81afd51d967d24f97b94eb576dca20cfe91a180f35b34610365576000366003190112610365576001546040516001600160a01b039091168152602090f35b3461036557600036600319011261036557602060405160028152f35b34610365576000366003190112610365576115e1612e5e565b60008051602061301f83398151915280546001600160a01b031981169091556000906001600160a01b03167f8be0079c531659141344cd1fd0a4f28419497f9722a3daafe3b4186f6b6457e08280a3005b34610365576000366003190112610365576006546040516001600160a01b039091168152602090f35b34610365576000366003190112610365576002546040516001600160a01b039091168152602090f35b34610365576020366003190112610365576004356116a0612e5e565b80156116df5760407fc401b47db6ec4c8671a2f54cf3a5f3f7069c3b71b6c6ad9ed90f2c8cc9920b6a91602054908060205582519182526020820152a1005b62bfc92160e01b60005260046000fd5b3461036557600036600319011261036557602060ff60008051602061305f83398151915254166040519015158152f35b34610365576000366003190112610365576003546040516001600160a01b039091168152602090f35b3461036557600036600319011261036557602060405161012c8152f35b34610365576000366003190112610365577f00000000000000000000000000000000000000000000000000000000000000006001600160a01b031630036117be57602060405160008051602061303f8339815191528152f35b63703e46dd60e11b60005260046000fd5b6040366003190112610365576117e3612586565b6024359067ffffffffffffffff821161036557366023830112156103655781600401359061181082612639565b9161181e6040519384612617565b8083526020830193366024838301011161036557816000926024602093018737840101526001600160a01b037f0000000000000000000000000000000000000000000000000000000000000000163081149081156119ed575b506117be57611884612e5e565b6040516352d1902d60e01b81526001600160a01b0382169390602081600481885afa600091816119b9575b506118c95784634c9c8ce360e01b60005260045260246000fd5b8060008051602061303f8339815191528692036119a55750823b156119915760008051602061303f83398151915280546001600160a01b031916821790557fbc7cd75a20ee27fd9adebab32041f755214dbc6bffa90cc0225b39da2e5c2d3b600080a2825115611976576000809161054c945190845af43d1561196e573d9161195183612639565b9261195f6040519485612617565b83523d6000602085013e612fbd565b606091612fbd565b5050503461198057005b63b398979f60e01b60005260046000fd5b634c9c8ce360e01b60005260045260246000fd5b632a87526960e21b60005260045260246000fd5b9091506020813d6020116119e5575b816119d560209383612617565b81010312610365575190866118af565b3d91506119c8565b60008051602061303f833981519152546001600160a01b03161415905084611877565b3461036557602036600319011261036557611a29612586565b611a31612e5e565b6001600160a01b031680156108295760a07fd8e98bff5ae8522235ef48daecff7488b367200bea03a4e8cb4bc98108c6a4929160065490806001600160601b03841b8316176006556040519160608352600a6060840152696e6674526576656e756560b01b6080840152600180851b031660208301526040820152a1005b3461036557600036600319011261036557611ac8612e5e565b611ad0612df8565b6008548015611b7b57600060088190555460055460405163a9059cbb60e01b60208201526001600160a01b039182166024820152604481018490527fc0819c13be868895eb93e40eaceb96de976442fa1d404e5c55f14bb65a8c489a9392611b4a9216610e1482606481015b03601f198101845283612617565b600554604080516001600160a01b0390921682526020820192909252a1600160008051602061307f83398151915255005b630d00db4d60e31b60005260046000fd5b34610365576000366003190112610365576005546040516001600160a01b039091168152602090f35b34610365576000366003190112610365576020601e54604051908152f35b3461036557600036600319011261036557611bec612e5e565b60008051602061305f8339815191525460ff811615611c455760ff191660008051602061305f833981519152557f5db9ee0a495bf2e6ff9c91a7834c1ba4fdd244a5e8aa4e537bd38aeae4b073aa6020604051338152a1005b638dfc202b60e01b60005260046000fd5b346103655760003660031901126103655760206040516125e48152f35b3461036557600036600319011261036557602060405160128152f35b346103655761012036600319011261036557611ca9612586565b611cb161259c565b906044356001600160a01b03811690819003610365576064356001600160a01b0381169290839003610365576084356001600160a01b038116908190036103655760a4356001600160a01b038116908190036103655760c4356001600160a01b03811691908290036103655760e4356001600160a01b038116939084900361036557610104359660008051602061309f833981519152549860ff8a60401c16159967ffffffffffffffff811680159081611f74575b6001149081611f6a575b159081611f61575b50611f505767ffffffffffffffff19811660011760008051602061309f833981519152558a611f23575b506001600160a01b03871615610829576001600160a01b03169586156108295787156108295781156108295782156108295783156108295784156108295785156108295788156116df57611e0090611df8612ef0565b610547612ef0565b611e08612ef0565b611e10612ef0565b611e18612ef0565b600160008051602061307f83398151915255611e32612ef0565b6001600160601b0360a01b60005416176000556001600160601b0360a01b60015416176001556001600160601b0360a01b60025416176002556001600160601b0360a01b60035416176003556001600160601b0360a01b60045416176004556001600160601b0360a01b60055416176005556001600160601b0360a01b60065416176006556020556001601a556001601d55611eca57005b68ff00000000000000001960008051602061309f833981519152541660008051602061309f833981519152557fc7f505b2f371ae2175ee4913f4499e1f2633a7b5936321eed1cdaeb6115181d2602060405160018152a1005b68ffffffffffffffffff1916680100000000000000011760008051602061309f833981519152558a611da2565b63f92ee8a960e01b60005260046000fd5b9050158c611d78565b303b159150611d70565b8c9150611d66565b346103655760003660031901126103655760206040516302f969e08152f35b3461036557602036600319011261036557600435600381101561036557600560c0910280600b01549060ff600c82015491600d810154600f600e8301549201549360405195865260208601526040850152818116606085015260081c161515608083015260a0820152f35b34610365576000366003190112610365576004546040516001600160a01b039091168152602090f35b3461036557602036600319011261036557600435600052601f602052602060018060a01b0360406000205416604051908152f35b346103655760203660031901126103655760006080604051612084816125df565b8281528260208201528260408201528260608201520152600435600052601b60205260a06040600020604051906120ba826125df565b600180841b0381541682526001810154906020830191825261212960ff6002830154166120eb6040860191826126f8565b60ff6004600385015494606088019586520154169360808601941515855260405195600180891b0390511686525160208601525160408501906125d2565b5160608301525115156080820152f35b3461036557600036600319011261036557602060405163030a32c08152f35b3461036557608036600319011261036557612171612586565b5061217a61259c565b5060643567ffffffffffffffff8111610365573660238201121561036557806004013567ffffffffffffffff81116103655736910160240111610365576004546001600160a01b031633146121dc575b604051630a85bd0160e11b8152602090f35b601e5468010000000000000000811015610465578060016122009201601e55612655565b81549060031b90604435821b91600019901b19161790556121ca565b34610365576040366003190112610365576122356125c2565b61223d6125b2565b612245612df8565b61224d612e34565b60ff82166003811015610351575060ff811691600383116124e557600381101561033b576005029160ff600e84600b0194015460081c16156124cf5760048110156110d65733600052600a6020526122a9816040600020612670565b54156124b15733600052600a6020526122c6816040600020612670565b9182546000198101908111610ec85760009355835490601d546122e881612704565b601d556040519160208301936001600160601b03193360601b168552603484015260ff60f81b9060f81b166054830152426055830152607582015260758152612332609582612617565b51902092602060018060a01b03600254166024604051809681936371c8a23960e11b83528960048401525af1928315610dcf5760009361247d575b5080549360405161237d816125df565b33815260208101958652604081019061239685836126f8565b4260608201908152600060808301818152888252601b6020526040909120925183546001600160a01b0319166001600160a01b0391909116178355975160018301559151919660028201929060048210156110d65760209861241d9460049360ff8019835416911617905551600384015551151591019060ff801983541691151516179055565b83600052601c85526040600020555490604051918252838201528160408201527f5e0c015d137a94a9e864e17092fb126241c929614b46c3bc32163b46de9bf05b60603392a2600160008051602061307f83398151915255604051908152f35b90926020823d6020116124a9575b8161249860209383612617565b81010312610eb9575051918461236d565b3d915061248b565b639f27773f60e01b6000526004526001602452600060445260646000fd5b82546332c3e47160e21b60005260045260246000fd5b8263fab9b83760e01b60005260045260246000fd5b3461036557604036600319011261036557612513612586565b60ff61251d6125b2565b169060038211612553576001600160a01b03166000908152600a6020526040902060048210156110d6576020916109d691612670565b5063fab9b83760e01b60005260045260246000fd5b346103655760203660031901126103655760206106ec6004356126a4565b600435906001600160a01b038216820361036557565b602435906001600160a01b038216820361036557565b6024359060ff8216820361036557565b6004359060ff8216820361036557565b9060048210156110d65752565b60a0810190811067ffffffffffffffff82111761046557604052565b60c0810190811067ffffffffffffffff82111761046557604052565b90601f8019910116810190811067ffffffffffffffff82111761046557604052565b67ffffffffffffffff811161046557601f01601f191660200190565b601e5481101561033b57601e60005260206000200190600090565b9060048110156110d657600052602052604060002090565b3461036557600036600319011261036557602060405160038152f35b68056bc75e2d6310000081029080820468056bc75e2d631000001490151715610ec8576020549081156126d5570490565b634e487b7160e01b600052601260045260246000fd5b91908203918211610ec857565b60048210156110d65752565b6000198114610ec85760010190565b91908201809211610ec857565b600090808252601b602052604082209260018060a01b03845416918215612c2957600485019081549060ff8216612c17575060019060ff19161790556127696001850154612e94565b9490158015612bf9575b612b63576003851015612be557600585029283600b019260ff61279b81600286015416612d22565b16606482061015612ae8575050600e9060018060a01b039054169154920161ff0019815416905582601e5480159081156129dc575b505060407fe1ef7825c332c25296359d37af815442cbd1fd6d620d8271b4180bd68f834bb0918151908582526020820152a26103e881018091116129c8578190601d5461281c81612704565b601d5560405160208101916001600160601b03193060601b168352836034830152607f60f91b6054830152426055830152607582015260758152612861609582612617565b51902093602060018060a01b03600254166024604051809681936371c8a23960e11b83528a60048401525af19283156129bd578493612988575b5060ff1690600482101561297457604051916128b6836125df565b308352602083019182526128ce6040840191826126f8565b426060840190815260808401868152858752601b60205260408720945185546001600160a01b0319166001600160a01b039190911617855592516001850155905160028401906004811015612960579286959492600492612955956040995060ff8019835416911617905551600384015551151591019060ff801983541691151516179055565b8152601c6020522055565b634e487b7160e01b87526021600452602487fd5b634e487b7160e01b84526021600452602484fd5b9092506020813d6020116129b5575b816129a460209383612617565b8101031261036557519160ff61289b565b3d9150612997565b6040513d86823e3d90fd5b634e487b7160e01b82526011600452602482fd5b9091506000198101908111612ad4576129f481612655565b90549060031b1c91612ac057612a0981612655565b815460001960039290921b9190911b19169055601e556004546001600160a01b0316803b15612abc57604051632142170760e11b81523060048201526001600160a01b0384166024820152604481018390529085908290606490829084905af18015612ab157612a7a575b806127d0565b84612aa97fe1ef7825c332c25296359d37af815442cbd1fd6d620d8271b4180bd68f834bb09396604093612617565b949150612a74565b6040513d87823e3d90fd5b8480fd5b634e487b7160e01b85526031600452602485fd5b634e487b7160e01b85526011600452602485fd5b9291509450600e839493019460ff86541660ff8114612ad457600160ff91011660ff1987541617865560ff865416908160030360ff8111612bd157907fde2c7625951ef209e3b14dc5de7c713aaf12a680817df0ba922f064834ed47e460406003949360ff8754918351928352166020820152a21015612b6a575b5050505050565b7f991f141b1f67192a98969cd4005f41d17ef23a517c6975606af1c6f48a0ae37d946060946103e8600d94818160081c06965060101c06938186600c87940155015560ff198154169055549160405192835260208301526040820152a13880808080612b63565b634e487b7160e01b86526011600452602486fd5b634e487b7160e01b84526032600452602484fd5b506003851015612be55760ff600e60058702015460081c1615612773565b633f8cbced60e21b8652600452602485fd5b63098354e960e41b8452600452602483fd5b60405190612c48826125fb565b600060a0838281528260208201528260408201528260608201528260808201520152565b90604051612c79816125fb565b60a06004829480548452600181015460208501526002810154604085015260ff6003820154818116606087015260081c16151560808501520154910152565b60048110156110d6578015612d1a57600060018214612d11575060028114612d0857600060038214612cfe5760ff92505063fab9b83760e01b6000521660045260246000fd5b50506302f969e090565b5063017d784090565b50506298968090565b50620f424090565b60048110156110d6578015612d7c57600060018214612d75575060028114612d6f57600060038214612d685760ff92505063fab9b83760e01b6000521660045260246000fd5b5050606390565b50603290565b5050601490565b50600290565b6001600160a01b03168015612de25760008051602061301f83398151915280546001600160a01b0319811683179091556001600160a01b03167f8be0079c531659141344cd1fd0a4f28419497f9722a3daafe3b4186f6b6457e0600080a3565b631e4fbdf760e01b600052600060045260246000fd5b600260008051602061307f8339815191525414612e2357600260008051602061307f83398151915255565b633ee5aeb560e01b60005260046000fd5b60ff60008051602061305f8339815191525416612e4d57565b63d93c066560e01b60005260046000fd5b60008051602061301f833981519152546001600160a01b03163303612e7f57565b63118cdaa760e01b6000523360045260246000fd5b9060005b600360ff821610612eac5750600091508190565b600381101561033b57600581028381600b0154149081612ede575b50612ed75760010160ff16612e98565b6001925090565b60ff9150600e015460081c1638612ec7565b60ff60008051602061309f8339815191525460401c1615612f0d57565b631afcd79f60e31b60005260046000fd5b906000602091828151910182855af115610dcf576000513d612f7057506001600160a01b0381163b155b612f4f5750565b635274afe760e01b60009081526001600160a01b0391909116600452602490fd5b60011415612f48565b6040516323b872dd60e01b60208201526001600160a01b0392831660248201529290911660448301526064820192909252612fbb91610e148260848101611b3c565b565b90612fe35750805115612fd257602081519101fd5b63d6bda27560e01b60005260046000fd5b81511580613015575b612ff4575090565b639996b31560e01b60009081526001600160a01b0391909116600452602490fd5b50803b15612fec56fe9016d09d72d40fdae2fd8ceac6b6234c7706214fd39c1cd1e609a0528c199300360894a13ba1a3210667c828492db98dca3e2076cc3735a920a3ca505d382bbccd5ed15c6e187e77e9aee88184c21f4f2182ab5827cb3b7e07fbedcd63f033009b779b17422d0df92223018b32b4d1fa46e071723d6817e2486d003becc55f00f0c57e16840df040f15088dc2f81fe391c3923bec73e23a9662efc9c229c6a00a26469706673582212208c61a6de82ab929b77842c3a40363901916dabdb072e210ae45133b400c02d9264736f6c634300081a0033","opcodes":"PUSH1 0xA0 DUP1 PUSH1 0x40 MSTORE CALLVALUE PUSH2 0xEA JUMPI ADDRESS PUSH1 0x80 MSTORE PUSH32 0xF0C57E16840DF040F15088DC2F81FE391C3923BEC73E23A9662EFC9C229C6A00 SLOAD PUSH1 0xFF DUP2 PUSH1 0x40 SHR AND PUSH2 0xD9 JUMPI PUSH1 0x2 PUSH1 0x1 PUSH1 0x40 SHL SUB NOT PUSH1 0x1 PUSH1 0x1 PUSH1 0x40 SHL SUB DUP3 AND ADD PUSH2 0x73 JUMPI JUMPDEST PUSH1 0x40 MLOAD PUSH2 0x30F4 SWAP1 DUP2 PUSH2 0xF0 DUP3 CODECOPY PUSH1 0x80 MLOAD DUP2 DUP2 DUP2 PUSH2 0x1778 ADD MSTORE PUSH2 0x184C ADD MSTORE RETURN JUMPDEST PUSH1 0x1 PUSH1 0x1 PUSH1 0x40 SHL SUB NOT AND PUSH1 0x1 PUSH1 0x1 PUSH1 0x40 SHL SUB SWAP1 DUP2 OR PUSH32 0xF0C57E16840DF040F15088DC2F81FE391C3923BEC73E23A9662EFC9C229C6A00 SSTORE DUP2 MSTORE PUSH32 0xC7F505B2F371AE2175EE4913F4499E1F2633A7B5936321EED1CDAEB6115181D2 SWAP1 PUSH1 0x20 SWAP1 LOG1 CODESIZE DUP1 PUSH2 0x54 JUMP JUMPDEST PUSH4 0xF92EE8A9 PUSH1 0xE0 SHL PUSH1 0x0 MSTORE PUSH1 0x4 PUSH1 0x0 REVERT JUMPDEST PUSH1 0x0 DUP1 REVERT INVALID PUSH1 0x80 PUSH1 0x40 MSTORE PUSH1 0x4 CALLDATASIZE LT ISZERO PUSH2 0x12 JUMPI PUSH1 0x0 DUP1 REVERT JUMPDEST PUSH1 0x0 CALLDATALOAD PUSH1 0xE0 SHR DUP1 PUSH4 0x64C973C EQ PUSH2 0x2568 JUMPI DUP1 PUSH4 0x771197F EQ PUSH2 0x24FA JUMPI DUP1 PUSH4 0x11648422 EQ PUSH2 0x221C JUMPI DUP1 PUSH4 0x150B7A02 EQ PUSH2 0x2158 JUMPI DUP1 PUSH4 0x230C77FF EQ PUSH2 0x2139 JUMPI DUP1 PUSH4 0x23B5CB5D EQ PUSH2 0x2063 JUMPI DUP1 PUSH4 0x23EEC571 EQ PUSH2 0x202F JUMPI DUP1 PUSH4 0x25C61FCD EQ PUSH2 0x2006 JUMPI DUP1 PUSH4 0x2795A90E EQ PUSH2 0x1F9B JUMPI DUP1 PUSH4 0x2E9ED2E4 EQ PUSH2 0x1F7C JUMPI DUP1 PUSH4 0x344DD6E4 EQ PUSH2 0x1C8F JUMPI DUP1 PUSH4 0x38EFA831 EQ PUSH2 0x1C73 JUMPI DUP1 PUSH4 0x3BD81715 EQ PUSH2 0x1C56 JUMPI DUP1 PUSH4 0x3F4BA83A EQ PUSH2 0x1BD3 JUMPI DUP1 PUSH4 0x4129849F EQ PUSH2 0x1BB5 JUMPI DUP1 PUSH4 0x4626402B EQ PUSH2 0x1B8C JUMPI DUP1 PUSH4 0x476343EE EQ PUSH2 0x1AAF JUMPI DUP1 PUSH4 0x4C4E2A46 EQ PUSH2 0x1A10 JUMPI DUP1 PUSH4 0x4F1EF286 EQ PUSH2 0x17CF JUMPI DUP1 PUSH4 0x52D1902D EQ PUSH2 0x1765 JUMPI DUP1 PUSH4 0x539AA77F EQ PUSH2 0x1748 JUMPI DUP1 PUSH4 0x5BF7117A EQ PUSH2 0x171F JUMPI DUP1 PUSH4 0x5C975ABB EQ PUSH2 0x16EF JUMPI DUP1 PUSH4 0x607C45D1 EQ PUSH2 0x1684 JUMPI DUP1 PUSH4 0x62138414 EQ PUSH2 0x165B JUMPI DUP1 PUSH4 0x64C618CC EQ PUSH2 0x1632 JUMPI DUP1 PUSH4 0x715018A6 EQ PUSH2 0x15C8 JUMPI DUP1 PUSH4 0x7881A070 EQ PUSH2 0x15AC JUMPI DUP1 PUSH4 0x79BABD2C EQ PUSH2 0x1583 JUMPI DUP1 PUSH4 0x7A0B07CF EQ PUSH2 0x146C JUMPI DUP1 PUSH4 0x7ED2F783 EQ PUSH2 0x1266 JUMPI DUP1 PUSH4 0x7EDC648C EQ PUSH2 0x123A JUMPI DUP1 PUSH4 0x82B65BEF EQ PUSH2 0x1202 JUMPI DUP1 PUSH4 0x8456CB59 EQ PUSH2 0x118E JUMPI DUP1 PUSH4 0x8DA5CB5B EQ PUSH2 0x1158 JUMPI DUP1 PUSH4 0x8F561ACC EQ PUSH2 0x1112 JUMPI DUP1 PUSH4 0x94EA04D1 EQ PUSH2 0x9DF JUMPI DUP1 PUSH4 0x970CFF93 EQ PUSH2 0x990 JUMPI DUP1 PUSH4 0x9B7D1A2A EQ PUSH2 0x900 JUMPI DUP1 PUSH4 0x9F48ED23 EQ PUSH2 0x8E4 JUMPI DUP1 PUSH4 0x9FB769DD EQ PUSH2 0x8C6 JUMPI DUP1 PUSH4 0xA2AFC373 EQ PUSH2 0x858 JUMPI DUP1 PUSH4 0xA4CEDC39 EQ PUSH2 0x83A JUMPI DUP1 PUSH4 0xA8602FEA EQ PUSH2 0x78C JUMPI DUP1 PUSH4 0xAD3CB1CC EQ PUSH2 0x710 JUMPI DUP1 PUSH4 0xB036D591 EQ PUSH2 0x6F4 JUMPI DUP1 PUSH4 0xBF370A61 EQ PUSH2 0x6C4 JUMPI DUP1 PUSH4 0xC1419DEF EQ PUSH2 0x6A8 JUMPI DUP1 PUSH4 0xC5B7DFFD EQ PUSH2 0x677 JUMPI DUP1 PUSH4 0xCC7A69DE EQ PUSH2 0x65A JUMPI DUP1 PUSH4 0xD2574183 EQ PUSH2 0x63D JUMPI DUP1 PUSH4 0xD33953BA EQ PUSH2 0x614 JUMPI DUP1 PUSH4 0xD3631FA5 EQ PUSH2 0x5F6 JUMPI DUP1 PUSH4 0xD9DEB60B EQ PUSH2 0x5D8 JUMPI DUP1 PUSH4 0xDF33C1FD EQ PUSH2 0x5BC JUMPI DUP1 PUSH4 0xE155D79E EQ PUSH2 0x59E JUMPI DUP1 PUSH4 0xE1A45218 EQ PUSH2 0x581 JUMPI DUP1 PUSH4 0xEB76C37E EQ PUSH2 0x490 JUMPI DUP1 PUSH4 0xEFDF9949 EQ PUSH2 0x54E JUMPI DUP1 PUSH4 0xF2FDE38B EQ PUSH2 0x523 JUMPI DUP1 PUSH4 0xF4F00092 EQ PUSH2 0x4B4 JUMPI DUP1 PUSH4 0xF8CE2C7D EQ PUSH2 0x495 JUMPI DUP1 PUSH4 0xFC774C5C EQ PUSH2 0x490 JUMPI DUP1 PUSH4 0xFCC536BA EQ PUSH2 0x388 JUMPI DUP1 PUSH4 0xFD626A18 EQ PUSH2 0x36A JUMPI PUSH4 0xFE5C7BA8 EQ PUSH2 0x2F2 JUMPI PUSH1 0x0 DUP1 REVERT JUMPDEST CALLVALUE PUSH2 0x365 JUMPI PUSH1 0x20 CALLDATASIZE PUSH1 0x3 NOT ADD SLT PUSH2 0x365 JUMPI PUSH2 0x30B PUSH2 0x25C2 JUMP JUMPDEST PUSH2 0x313 PUSH2 0x2E5E JUMP JUMPDEST PUSH1 0xFF DUP2 AND PUSH1 0x3 DUP2 LT ISZERO PUSH2 0x351 JUMPI POP PUSH1 0x3 DUP2 LT ISZERO PUSH2 0x33B JUMPI PUSH1 0x5 MUL PUSH1 0xE ADD DUP1 SLOAD PUSH2 0xFF00 NOT AND SWAP1 SSTORE STOP JUMPDEST PUSH4 0x4E487B71 PUSH1 0xE0 SHL PUSH1 0x0 MSTORE PUSH1 0x32 PUSH1 0x4 MSTORE PUSH1 0x24 PUSH1 0x0 REVERT JUMPDEST PUSH4 0xCBA51315 PUSH1 0xE0 SHL PUSH1 0x0 MSTORE PUSH1 0x4 MSTORE PUSH1 0x24 PUSH1 0x0 REVERT JUMPDEST PUSH1 0x0 DUP1 REVERT JUMPDEST CALLVALUE PUSH2 0x365 JUMPI PUSH1 0x0 CALLDATASIZE PUSH1 0x3 NOT ADD SLT PUSH2 0x365 JUMPI PUSH1 0x20 PUSH1 0x40 MLOAD PUSH3 0xF4240 DUP2 MSTORE RETURN JUMPDEST CALLVALUE PUSH2 0x365 JUMPI PUSH1 0x0 CALLDATASIZE PUSH1 0x3 NOT ADD SLT PUSH2 0x365 JUMPI PUSH1 0x60 PUSH1 0x40 MLOAD PUSH2 0x3A8 DUP3 DUP3 PUSH2 0x2617 JUMP JUMPDEST PUSH1 0x0 JUMPDEST DUP3 DUP2 LT PUSH2 0x47B JUMPI PUSH1 0x40 MLOAD DUP1 DUP5 ADD PUSH8 0xFFFFFFFFFFFFFFFF DUP2 GT DUP3 DUP3 LT OR PUSH2 0x465 JUMPI PUSH1 0x40 MSTORE PUSH1 0xB PUSH1 0x0 DUP3 JUMPDEST PUSH1 0x3 DUP3 LT PUSH2 0x447 JUMPI PUSH1 0x40 MLOAD DUP5 PUSH1 0x0 DUP3 JUMPDEST PUSH1 0x3 DUP3 LT PUSH2 0x3F2 JUMPI PUSH2 0x240 DUP5 RETURN JUMPDEST PUSH1 0x20 PUSH1 0xC0 DUP3 PUSH2 0x43B PUSH1 0x1 SWAP5 DUP8 MLOAD PUSH1 0xA0 DUP1 SWAP2 DUP1 MLOAD DUP5 MSTORE PUSH1 0x20 DUP2 ADD MLOAD PUSH1 0x20 DUP6 ADD MSTORE PUSH1 0x40 DUP2 ADD MLOAD PUSH1 0x40 DUP6 ADD MSTORE PUSH1 0xFF PUSH1 0x60 DUP3 ADD MLOAD AND PUSH1 0x60 DUP6 ADD MSTORE PUSH1 0x80 DUP2 ADD MLOAD ISZERO ISZERO PUSH1 0x80 DUP6 ADD MSTORE ADD MLOAD SWAP2 ADD MSTORE JUMP JUMPDEST ADD SWAP4 ADD SWAP2 ADD SWAP1 SWAP2 PUSH2 0x3E4 JUMP JUMPDEST PUSH1 0x5 PUSH1 0x20 PUSH1 0x1 SWAP3 PUSH2 0x457 DUP7 PUSH2 0x2C6C JUMP JUMPDEST DUP2 MSTORE ADD SWAP4 ADD SWAP2 ADD SWAP1 SWAP2 PUSH2 0x3D4 JUMP JUMPDEST PUSH4 0x4E487B71 PUSH1 0xE0 SHL PUSH1 0x0 MSTORE PUSH1 0x41 PUSH1 0x4 MSTORE PUSH1 0x24 PUSH1 0x0 REVERT JUMPDEST PUSH1 0x20 SWAP1 PUSH2 0x486 PUSH2 0x2C3B JUMP JUMPDEST DUP2 DUP5 ADD MSTORE ADD PUSH2 0x3AB JUMP JUMPDEST PUSH2 0x2688 JUMP JUMPDEST CALLVALUE PUSH2 0x365 JUMPI PUSH1 0x0 CALLDATASIZE PUSH1 0x3 NOT ADD SLT PUSH2 0x365 JUMPI PUSH1 0x20 PUSH1 0x40 MLOAD PUSH4 0x17D7840 DUP2 MSTORE RETURN JUMPDEST CALLVALUE PUSH2 0x365 JUMPI PUSH1 0x20 CALLDATASIZE PUSH1 0x3 NOT ADD SLT PUSH2 0x365 JUMPI PUSH1 0x4 CALLDATALOAD PUSH1 0x0 MSTORE PUSH1 0x1B PUSH1 0x20 MSTORE PUSH1 0xA0 PUSH1 0x40 PUSH1 0x0 KECCAK256 PUSH1 0x1 DUP1 DUP4 SHL SUB DUP2 SLOAD AND SWAP1 PUSH1 0x1 DUP2 ADD SLOAD SWAP1 PUSH2 0x515 PUSH1 0xFF PUSH1 0x2 DUP4 ADD SLOAD AND PUSH1 0xFF PUSH1 0x4 PUSH1 0x3 DUP6 ADD SLOAD SWAP5 ADD SLOAD AND SWAP4 PUSH1 0x40 MLOAD SWAP6 DUP7 MSTORE PUSH1 0x20 DUP7 ADD MSTORE PUSH1 0x40 DUP6 ADD SWAP1 PUSH2 0x25D2 JUMP JUMPDEST PUSH1 0x60 DUP4 ADD MSTORE ISZERO ISZERO PUSH1 0x80 DUP3 ADD MSTORE RETURN JUMPDEST CALLVALUE PUSH2 0x365 JUMPI PUSH1 0x20 CALLDATASIZE PUSH1 0x3 NOT ADD SLT PUSH2 0x365 JUMPI PUSH2 0x54C PUSH2 0x53F PUSH2 0x2586 JUMP JUMPDEST PUSH2 0x547 PUSH2 0x2E5E JUMP JUMPDEST PUSH2 0x2D82 JUMP JUMPDEST STOP JUMPDEST CALLVALUE PUSH2 0x365 JUMPI PUSH1 0x20 CALLDATASIZE PUSH1 0x3 NOT ADD SLT PUSH2 0x365 JUMPI PUSH1 0x4 CALLDATALOAD PUSH1 0x4 DUP2 LT ISZERO PUSH2 0x365 JUMPI PUSH2 0x576 PUSH1 0x20 SWAP2 PUSH2 0x2D22 JUMP JUMPDEST PUSH1 0xFF PUSH1 0x40 MLOAD SWAP2 AND DUP2 MSTORE RETURN JUMPDEST CALLVALUE PUSH2 0x365 JUMPI PUSH1 0x0 CALLDATASIZE PUSH1 0x3 NOT ADD SLT PUSH2 0x365 JUMPI PUSH1 0x20 PUSH1 0x40 MLOAD PUSH2 0x2710 DUP2 MSTORE RETURN JUMPDEST CALLVALUE PUSH2 0x365 JUMPI PUSH1 0x0 CALLDATASIZE PUSH1 0x3 NOT ADD SLT PUSH2 0x365 JUMPI PUSH1 0x20 PUSH1 0x9 SLOAD PUSH1 0x40 MLOAD SWAP1 DUP2 MSTORE RETURN JUMPDEST CALLVALUE PUSH2 0x365 JUMPI PUSH1 0x0 CALLDATASIZE PUSH1 0x3 NOT ADD SLT PUSH2 0x365 JUMPI PUSH1 0x20 PUSH1 0x40 MLOAD PUSH1 0x14 DUP2 MSTORE RETURN JUMPDEST CALLVALUE PUSH2 0x365 JUMPI PUSH1 0x0 CALLDATASIZE PUSH1 0x3 NOT ADD SLT PUSH2 0x365 JUMPI PUSH1 0x20 PUSH1 0x1A SLOAD PUSH1 0x40 MLOAD SWAP1 DUP2 MSTORE RETURN JUMPDEST CALLVALUE PUSH2 0x365 JUMPI PUSH1 0x0 CALLDATASIZE PUSH1 0x3 NOT ADD SLT PUSH2 0x365 JUMPI PUSH1 0x20 PUSH1 0x8 SLOAD PUSH1 0x40 MLOAD SWAP1 DUP2 MSTORE RETURN JUMPDEST CALLVALUE PUSH2 0x365 JUMPI PUSH1 0x0 CALLDATASIZE PUSH1 0x3 NOT ADD SLT PUSH2 0x365 JUMPI PUSH1 0x0 SLOAD PUSH1 0x40 MLOAD PUSH1 0x1 PUSH1 0x1 PUSH1 0xA0 SHL SUB SWAP1 SWAP2 AND DUP2 MSTORE PUSH1 0x20 SWAP1 RETURN JUMPDEST CALLVALUE PUSH2 0x365 JUMPI PUSH1 0x0 CALLDATASIZE PUSH1 0x3 NOT ADD SLT PUSH2 0x365 JUMPI PUSH1 0x20 PUSH1 0x40 MLOAD PUSH2 0x3E7 DUP2 MSTORE RETURN JUMPDEST CALLVALUE PUSH2 0x365 JUMPI PUSH1 0x0 CALLDATASIZE PUSH1 0x3 NOT ADD SLT PUSH2 0x365 JUMPI PUSH1 0x20 DUP1 SLOAD PUSH1 0x40 MLOAD SWAP1 DUP2 MSTORE RETURN JUMPDEST CALLVALUE PUSH2 0x365 JUMPI PUSH1 0x0 CALLDATASIZE PUSH1 0x3 NOT ADD SLT PUSH2 0x365 JUMPI PUSH1 0x60 PUSH1 0x7 SLOAD PUSH4 0x30A32C0 PUSH1 0x40 MLOAD SWAP2 DUP1 DUP4 MSTORE DUP2 PUSH1 0x20 DUP5 ADD MSTORE LT ISZERO PUSH1 0x40 DUP3 ADD MSTORE RETURN JUMPDEST CALLVALUE PUSH2 0x365 JUMPI PUSH1 0x0 CALLDATASIZE PUSH1 0x3 NOT ADD SLT PUSH2 0x365 JUMPI PUSH1 0x20 PUSH1 0x40 MLOAD PUSH1 0x6 DUP2 MSTORE RETURN JUMPDEST CALLVALUE PUSH2 0x365 JUMPI PUSH1 0x20 CALLDATASIZE PUSH1 0x3 NOT ADD SLT PUSH2 0x365 JUMPI PUSH1 0x4 CALLDATALOAD PUSH1 0x4 DUP2 LT ISZERO PUSH2 0x365 JUMPI PUSH2 0x6EC PUSH1 0x20 SWAP2 PUSH2 0x2CB8 JUMP JUMPDEST PUSH1 0x40 MLOAD SWAP1 DUP2 MSTORE RETURN JUMPDEST CALLVALUE PUSH2 0x365 JUMPI PUSH1 0x0 CALLDATASIZE PUSH1 0x3 NOT ADD SLT PUSH2 0x365 JUMPI PUSH1 0x20 PUSH1 0x40 MLOAD PUSH1 0x63 DUP2 MSTORE RETURN JUMPDEST CALLVALUE PUSH2 0x365 JUMPI PUSH1 0x0 CALLDATASIZE PUSH1 0x3 NOT ADD SLT PUSH2 0x365 JUMPI PUSH1 0x40 DUP1 MLOAD SWAP1 PUSH2 0x730 DUP2 DUP4 PUSH2 0x2617 JUMP JUMPDEST PUSH1 0x5 DUP3 MSTORE PUSH5 0x352E302E3 PUSH1 0xDC SHL PUSH1 0x20 DUP4 ADD MSTORE DUP1 MLOAD DUP1 SWAP3 PUSH1 0x20 DUP3 MSTORE DUP1 MLOAD SWAP1 DUP2 PUSH1 0x20 DUP5 ADD MSTORE PUSH1 0x0 JUMPDEST DUP3 DUP2 LT PUSH2 0x775 JUMPI POP POP PUSH1 0x0 DUP3 DUP3 ADD DUP5 ADD MSTORE PUSH1 0x1F ADD PUSH1 0x1F NOT AND DUP2 ADD SUB ADD SWAP1 RETURN JUMPDEST PUSH1 0x20 DUP3 DUP3 ADD DUP2 ADD MLOAD DUP8 DUP4 ADD DUP8 ADD MSTORE DUP7 SWAP5 POP ADD PUSH2 0x756 JUMP JUMPDEST CALLVALUE PUSH2 0x365 JUMPI PUSH1 0x20 CALLDATASIZE PUSH1 0x3 NOT ADD SLT PUSH2 0x365 JUMPI PUSH2 0x7A5 PUSH2 0x2586 JUMP JUMPDEST PUSH2 0x7AD PUSH2 0x2E5E JUMP JUMPDEST PUSH1 0x1 PUSH1 0x1 PUSH1 0xA0 SHL SUB AND DUP1 ISZERO PUSH2 0x829 JUMPI PUSH1 0xA0 PUSH32 0xD8E98BFF5AE8522235EF48DAECFF7488B367200BEA03A4E8CB4BC98108C6A492 SWAP2 PUSH1 0x5 SLOAD SWAP1 DUP1 PUSH1 0x1 PUSH1 0x1 PUSH1 0x60 SHL SUB DUP5 SHL DUP4 AND OR PUSH1 0x5 SSTORE PUSH1 0x40 MLOAD SWAP2 PUSH1 0x60 DUP4 MSTORE PUSH1 0x8 PUSH1 0x60 DUP5 ADD MSTORE PUSH8 0x7472656173757279 PUSH1 0xC0 SHL PUSH1 0x80 DUP5 ADD MSTORE PUSH1 0x1 DUP1 DUP6 SHL SUB AND PUSH1 0x20 DUP4 ADD MSTORE PUSH1 0x40 DUP3 ADD MSTORE LOG1 STOP JUMPDEST PUSH4 0xD92E233D PUSH1 0xE0 SHL PUSH1 0x0 MSTORE PUSH1 0x4 PUSH1 0x0 REVERT JUMPDEST CALLVALUE PUSH2 0x365 JUMPI PUSH1 0x0 CALLDATASIZE PUSH1 0x3 NOT ADD SLT PUSH2 0x365 JUMPI PUSH1 0x20 PUSH1 0x40 MLOAD PUSH3 0x989680 DUP2 MSTORE RETURN JUMPDEST CALLVALUE PUSH2 0x365 JUMPI PUSH1 0x20 CALLDATASIZE PUSH1 0x3 NOT ADD SLT PUSH2 0x365 JUMPI PUSH1 0x80 PUSH1 0x1 PUSH1 0x1 PUSH1 0xA0 SHL SUB PUSH2 0x87B PUSH2 0x2586 JUMP JUMPDEST AND PUSH1 0x0 SWAP1 DUP2 MSTORE PUSH1 0xA PUSH1 0x20 SWAP1 DUP2 MSTORE PUSH1 0x40 DUP1 DUP4 KECCAK256 DUP4 DUP1 MSTORE DUP3 MSTORE DUP1 DUP4 KECCAK256 SLOAD PUSH1 0x1 DUP5 MSTORE DUP2 DUP5 KECCAK256 SLOAD PUSH1 0x2 DUP6 MSTORE DUP3 DUP6 KECCAK256 SLOAD PUSH1 0x3 DUP7 MSTORE SWAP5 DUP4 SWAP1 KECCAK256 SLOAD DUP4 MLOAD SWAP3 DUP4 MSTORE SWAP4 DUP3 ADD MSTORE SWAP1 DUP2 ADD SWAP3 SWAP1 SWAP3 MSTORE PUSH1 0x60 DUP3 ADD MSTORE RETURN JUMPDEST CALLVALUE PUSH2 0x365 JUMPI PUSH1 0x0 CALLDATASIZE PUSH1 0x3 NOT ADD SLT PUSH2 0x365 JUMPI PUSH1 0x20 PUSH1 0x7 SLOAD PUSH1 0x40 MLOAD SWAP1 DUP2 MSTORE RETURN JUMPDEST CALLVALUE PUSH2 0x365 JUMPI PUSH1 0x0 CALLDATASIZE PUSH1 0x3 NOT ADD SLT PUSH2 0x365 JUMPI PUSH1 0x20 PUSH1 0x40 MLOAD PUSH1 0x32 DUP2 MSTORE RETURN JUMPDEST CALLVALUE PUSH2 0x365 JUMPI PUSH1 0x20 CALLDATASIZE PUSH1 0x3 NOT ADD SLT PUSH2 0x365 JUMPI PUSH2 0x919 PUSH2 0x25C2 JUMP JUMPDEST PUSH2 0x921 PUSH2 0x2C3B JUMP JUMPDEST POP PUSH1 0xFF DUP2 AND PUSH1 0x3 DUP2 LT ISZERO PUSH2 0x351 JUMPI POP PUSH1 0x3 DUP2 LT ISZERO PUSH2 0x33B JUMPI PUSH2 0x94A PUSH1 0x5 PUSH1 0xC0 SWAP3 MUL PUSH1 0xB ADD PUSH2 0x2C6C JUMP JUMPDEST PUSH2 0x98E PUSH1 0x40 MLOAD DUP1 SWAP3 PUSH1 0xA0 DUP1 SWAP2 DUP1 MLOAD DUP5 MSTORE PUSH1 0x20 DUP2 ADD MLOAD PUSH1 0x20 DUP6 ADD MSTORE PUSH1 0x40 DUP2 ADD MLOAD PUSH1 0x40 DUP6 ADD MSTORE PUSH1 0xFF PUSH1 0x60 DUP3 ADD MLOAD AND PUSH1 0x60 DUP6 ADD MSTORE PUSH1 0x80 DUP2 ADD MLOAD ISZERO ISZERO PUSH1 0x80 DUP6 ADD MSTORE ADD MLOAD SWAP2 ADD MSTORE JUMP JUMPDEST RETURN JUMPDEST CALLVALUE PUSH2 0x365 JUMPI PUSH1 0x40 CALLDATASIZE PUSH1 0x3 NOT ADD SLT PUSH2 0x365 JUMPI PUSH2 0x9A9 PUSH2 0x2586 JUMP JUMPDEST PUSH1 0x24 CALLDATALOAD SWAP1 PUSH1 0x4 DUP3 LT ISZERO PUSH2 0x365 JUMPI PUSH1 0x20 SWAP2 PUSH2 0x9D6 SWAP2 PUSH1 0x1 DUP1 PUSH1 0xA0 SHL SUB AND PUSH1 0x0 MSTORE PUSH1 0xA DUP4 MSTORE PUSH1 0x40 PUSH1 0x0 KECCAK256 PUSH2 0x2670 JUMP JUMPDEST SLOAD PUSH1 0x40 MLOAD SWAP1 DUP2 MSTORE RETURN JUMPDEST CALLVALUE PUSH2 0x365 JUMPI PUSH1 0x60 CALLDATASIZE PUSH1 0x3 NOT ADD SLT PUSH2 0x365 JUMPI PUSH2 0x9F8 PUSH2 0x25C2 JUMP JUMPDEST PUSH1 0x24 CALLDATALOAD SWAP1 PUSH1 0x44 CALLDATALOAD SWAP2 DUP3 ISZERO ISZERO SWAP2 DUP3 DUP5 SUB PUSH2 0x365 JUMPI PUSH2 0xA13 PUSH2 0x2DF8 JUMP JUMPDEST PUSH2 0xA1B PUSH2 0x2E34 JUMP JUMPDEST DUP2 ISZERO PUSH2 0x1101 JUMPI PUSH1 0xFF AND SWAP3 PUSH1 0x3 DUP5 GT PUSH2 0x10EC JUMPI PUSH1 0x4 DUP5 LT ISZERO PUSH2 0x10D6 JUMPI PUSH2 0xA3F DUP5 PUSH2 0x2CB8 JUMP JUMPDEST SWAP1 DUP3 DUP3 MUL SWAP2 DUP1 DUP4 DIV DUP5 EQ SWAP1 ISZERO OR ISZERO PUSH2 0xEC8 JUMPI ISZERO PUSH2 0xF7A JUMPI PUSH2 0xA5F DUP2 PUSH2 0x26A4 JUMP JUMPDEST PUSH1 0x1 SLOAD PUSH1 0x40 MLOAD PUSH4 0x6EB1769F PUSH1 0xE1 SHL DUP2 MSTORE CALLER PUSH1 0x4 DUP3 ADD MSTORE ADDRESS PUSH1 0x24 DUP3 ADD MSTORE PUSH1 0x1 PUSH1 0x1 PUSH1 0xA0 SHL SUB SWAP1 SWAP2 AND SWAP1 PUSH1 0x20 DUP2 PUSH1 0x44 DUP2 DUP6 GAS STATICCALL SWAP1 DUP2 ISZERO PUSH2 0xDCF JUMPI PUSH1 0x0 SWAP2 PUSH2 0xF48 JUMPI JUMPDEST POP DUP3 DUP2 LT PUSH2 0xF2C JUMPI POP PUSH1 0x40 MLOAD PUSH4 0x70A08231 PUSH1 0xE0 SHL DUP2 MSTORE CALLER PUSH1 0x4 DUP3 ADD MSTORE PUSH1 0x20 DUP2 PUSH1 0x24 DUP2 DUP6 GAS STATICCALL SWAP1 DUP2 ISZERO PUSH2 0xDCF JUMPI PUSH1 0x0 SWAP2 PUSH2 0xEFA JUMPI JUMPDEST POP DUP3 DUP2 LT PUSH2 0xEDE JUMPI POP SWAP1 PUSH2 0xAEA SWAP2 ADDRESS SWAP1 CALLER SWAP1 PUSH2 0x2F79 JUMP JUMPDEST PUSH2 0x12C DUP2 MUL DUP2 DUP2 DIV PUSH2 0x12C EQ DUP3 ISZERO OR ISZERO PUSH2 0xEC8 JUMPI PUSH32 0x5D22F5D15D95ED39D12130528F910A501AD34DEB0428D9227C9D316D9BCB99E9 SWAP2 PUSH2 0xB3D PUSH2 0xB34 PUSH2 0x2710 PUSH1 0x40 SWAP5 DIV DUP1 SWAP4 PUSH2 0x26EB JUMP JUMPDEST SWAP2 PUSH1 0x8 SLOAD PUSH2 0x2713 JUMP JUMPDEST PUSH1 0x8 SSTORE PUSH2 0xB4C DUP2 PUSH1 0x7 SLOAD PUSH2 0x2713 JUMP JUMPDEST DUP1 PUSH1 0x7 SSTORE DUP3 MLOAD SWAP2 DUP3 MSTORE PUSH1 0x20 DUP3 ADD MSTORE LOG1 JUMPDEST CALLER PUSH1 0x0 MSTORE PUSH1 0xA PUSH1 0x20 MSTORE PUSH2 0xB73 DUP4 PUSH1 0x40 PUSH1 0x0 KECCAK256 PUSH2 0x2670 JUMP JUMPDEST PUSH2 0xB7E DUP3 DUP3 SLOAD PUSH2 0x2713 JUMP JUMPDEST SWAP1 SSTORE PUSH1 0x40 MLOAD SWAP3 DUP4 MSTORE PUSH1 0x20 DUP4 ADD MSTORE PUSH1 0x40 DUP3 ADD MSTORE PUSH32 0x279D78D3BC9E8F1F0C6275B03DB1EA13AED8715F3F9AD832F728113B3568CC41 PUSH1 0x60 CALLER SWAP3 LOG2 PUSH1 0x7 SLOAD PUSH4 0x30A32C0 DUP2 LT ISZERO PUSH2 0xBDA JUMPI JUMPDEST PUSH1 0x1 PUSH1 0x0 DUP1 MLOAD PUSH1 0x20 PUSH2 0x307F DUP4 CODECOPY DUP2 MLOAD SWAP2 MSTORE SSTORE STOP JUMPDEST PUSH1 0x3 SLOAD PUSH1 0x40 MLOAD PUSH4 0x2DABC24F PUSH1 0xE0 SHL DUP2 MSTORE SWAP2 PUSH1 0x1 PUSH1 0x1 PUSH1 0xA0 SHL SUB SWAP1 SWAP2 AND SWAP1 PUSH1 0xA0 DUP4 PUSH1 0x4 DUP2 DUP6 GAS STATICCALL DUP1 ISZERO PUSH2 0xDCF JUMPI PUSH1 0x0 SWAP4 DUP5 SWAP2 PUSH2 0xE7D JUMPI JUMPDEST POP DUP1 PUSH2 0xE73 JUMPI JUMPDEST PUSH2 0xC23 JUMPI JUMPDEST POP POP PUSH2 0xBC6 JUMP JUMPDEST DUP3 PUSH2 0xC2D SWAP2 PUSH2 0x26EB JUMP JUMPDEST PUSH1 0x7 SSTORE PUSH1 0x0 SLOAD PUSH1 0x40 MLOAD PUSH4 0x6EB1769F PUSH1 0xE1 SHL DUP2 MSTORE ADDRESS PUSH1 0x4 DUP3 ADD MSTORE PUSH1 0x1 PUSH1 0x1 PUSH1 0xA0 SHL SUB DUP4 DUP2 AND PUSH1 0x24 DUP4 ADD MSTORE SWAP1 SWAP2 AND SWAP1 PUSH1 0x20 DUP2 PUSH1 0x44 DUP2 DUP6 GAS STATICCALL DUP1 ISZERO PUSH2 0xDCF JUMPI DUP5 SWAP1 PUSH1 0x0 SWAP1 PUSH2 0xE3D JUMPI JUMPDEST PUSH2 0xC7D SWAP3 POP PUSH2 0x2713 JUMP JUMPDEST PUSH1 0x40 MLOAD PUSH4 0x95EA7B3 PUSH1 0xE0 SHL PUSH1 0x20 DUP1 DUP4 ADD SWAP2 DUP3 MSTORE PUSH1 0x1 PUSH1 0x1 PUSH1 0xA0 SHL SUB DUP7 AND PUSH1 0x24 DUP5 ADD MSTORE PUSH1 0x44 DUP1 DUP5 ADD SWAP5 SWAP1 SWAP5 MSTORE SWAP3 DUP3 MSTORE SWAP1 SWAP3 SWAP2 SWAP1 PUSH1 0x0 SWAP1 PUSH2 0xCBD PUSH1 0x64 DUP7 PUSH2 0x2617 JUMP JUMPDEST DUP5 MLOAD SWAP1 DUP3 DUP6 GAS CALL PUSH1 0x0 MLOAD RETURNDATASIZE DUP3 PUSH2 0xE21 JUMPI JUMPDEST POP POP ISZERO PUSH2 0xDDB JUMPI JUMPDEST POP POP PUSH1 0x3 SLOAD PUSH1 0x6 SLOAD PUSH1 0x40 MLOAD PUSH4 0x4BDA0D09 PUSH1 0xE1 SHL DUP2 MSTORE PUSH1 0x4 DUP2 ADD DUP6 SWAP1 MSTORE PUSH1 0x1 PUSH1 0x1 PUSH1 0xA0 SHL SUB SWAP2 DUP3 AND PUSH1 0x24 DUP3 ADD MSTORE SWAP3 POP PUSH1 0x20 SWAP2 DUP4 SWAP2 PUSH1 0x44 SWAP2 DUP4 SWAP2 PUSH1 0x0 SWAP2 AND GAS CALL SWAP1 DUP2 ISZERO PUSH2 0xDCF JUMPI PUSH1 0x0 SWAP2 PUSH2 0xD7D JUMPI JUMPDEST POP PUSH1 0x60 SWAP1 PUSH32 0xD2F4076F36AE69D66B6687398C519B4A2FD0910AF9109A8EDEBA1A7C7D221463 SWAP3 PUSH2 0xD54 PUSH1 0x9 SLOAD PUSH2 0x2704 JUMP JUMPDEST PUSH1 0x9 SSTORE PUSH1 0x6 SLOAD PUSH1 0x40 DUP1 MLOAD SWAP4 DUP5 MSTORE PUSH1 0x1 PUSH1 0x1 PUSH1 0xA0 SHL SUB SWAP1 SWAP2 AND PUSH1 0x20 DUP5 ADD MSTORE DUP3 ADD MSTORE LOG1 DUP1 DUP1 DUP1 PUSH2 0xC1C JUMP JUMPDEST SWAP1 POP PUSH1 0x20 DUP2 RETURNDATASIZE PUSH1 0x20 GT PUSH2 0xDC7 JUMPI JUMPDEST DUP2 PUSH2 0xD98 PUSH1 0x20 SWAP4 DUP4 PUSH2 0x2617 JUMP JUMPDEST DUP2 ADD SUB SLT PUSH2 0x365 JUMPI MLOAD PUSH32 0xD2F4076F36AE69D66B6687398C519B4A2FD0910AF9109A8EDEBA1A7C7D221463 PUSH2 0xD23 JUMP JUMPDEST RETURNDATASIZE SWAP2 POP PUSH2 0xD8B JUMP JUMPDEST PUSH1 0x40 MLOAD RETURNDATASIZE PUSH1 0x0 DUP3 RETURNDATACOPY RETURNDATASIZE SWAP1 REVERT JUMPDEST PUSH2 0xE14 PUSH2 0xE19 SWAP4 PUSH1 0x40 MLOAD SWAP1 PUSH4 0x95EA7B3 PUSH1 0xE0 SHL PUSH1 0x20 DUP4 ADD MSTORE PUSH1 0x24 DUP3 ADD MSTORE PUSH1 0x0 PUSH1 0x44 DUP3 ADD MSTORE PUSH1 0x44 DUP2 MSTORE PUSH2 0xE0E PUSH1 0x64 DUP3 PUSH2 0x2617 JUMP JUMPDEST DUP3 PUSH2 0x2F1E JUMP JUMPDEST PUSH2 0x2F1E JUMP JUMPDEST DUP2 DUP1 DUP1 PUSH2 0xCD6 JUMP JUMPDEST SWAP1 SWAP2 POP PUSH2 0xE35 JUMPI POP DUP1 EXTCODESIZE ISZERO ISZERO JUMPDEST DUP6 DUP1 PUSH2 0xCCE JUMP JUMPDEST PUSH1 0x1 EQ PUSH2 0xE2E JUMP JUMPDEST POP POP PUSH1 0x20 DUP2 RETURNDATASIZE PUSH1 0x20 GT PUSH2 0xE6B JUMPI JUMPDEST DUP2 PUSH2 0xE58 PUSH1 0x20 SWAP4 DUP4 PUSH2 0x2617 JUMP JUMPDEST DUP2 ADD SUB SLT PUSH2 0x365 JUMPI DUP4 PUSH2 0xC7D SWAP2 MLOAD PUSH2 0xC73 JUMP JUMPDEST RETURNDATASIZE SWAP2 POP PUSH2 0xE4B JUMP JUMPDEST POP DUP3 DUP2 LT ISZERO PUSH2 0xC17 JUMP JUMPDEST SWAP1 POP PUSH1 0xA0 DUP2 RETURNDATASIZE PUSH1 0xA0 GT PUSH2 0xEC0 JUMPI JUMPDEST DUP2 PUSH2 0xE98 PUSH1 0xA0 SWAP4 DUP4 PUSH2 0x2617 JUMP JUMPDEST DUP2 ADD SUB SLT PUSH2 0xEBC JUMPI PUSH1 0x80 DUP2 MLOAD SWAP2 ADD MLOAD SWAP4 DUP5 ISZERO ISZERO DUP6 SUB PUSH2 0xEB9 JUMPI POP SWAP3 DUP5 PUSH2 0xC10 JUMP JUMPDEST DUP1 REVERT JUMPDEST DUP4 DUP1 REVERT JUMPDEST RETURNDATASIZE SWAP2 POP PUSH2 0xE8B JUMP JUMPDEST PUSH4 0x4E487B71 PUSH1 0xE0 SHL PUSH1 0x0 MSTORE PUSH1 0x11 PUSH1 0x4 MSTORE PUSH1 0x24 PUSH1 0x0 REVERT JUMPDEST SWAP3 POP PUSH4 0xDB42144D PUSH1 0xE0 SHL PUSH1 0x0 MSTORE PUSH1 0x4 MSTORE PUSH1 0x24 MSTORE PUSH1 0x44 MSTORE PUSH1 0x64 PUSH1 0x0 REVERT JUMPDEST SWAP1 PUSH1 0x20 DUP3 RETURNDATASIZE PUSH1 0x20 GT PUSH2 0xF24 JUMPI JUMPDEST DUP2 PUSH2 0xF14 PUSH1 0x20 SWAP4 DUP4 PUSH2 0x2617 JUMP JUMPDEST DUP2 ADD SUB SLT PUSH2 0xEB9 JUMPI POP MLOAD DUP8 PUSH2 0xAD3 JUMP JUMPDEST RETURNDATASIZE SWAP2 POP PUSH2 0xF07 JUMP JUMPDEST SWAP3 POP PUSH4 0xC95CF27 PUSH1 0xE1 SHL PUSH1 0x0 MSTORE PUSH1 0x4 MSTORE PUSH1 0x24 MSTORE PUSH1 0x44 MSTORE PUSH1 0x64 PUSH1 0x0 REVERT JUMPDEST SWAP1 PUSH1 0x20 DUP3 RETURNDATASIZE PUSH1 0x20 GT PUSH2 0xF72 JUMPI JUMPDEST DUP2 PUSH2 0xF62 PUSH1 0x20 SWAP4 DUP4 PUSH2 0x2617 JUMP JUMPDEST DUP2 ADD SUB SLT PUSH2 0xEB9 JUMPI POP MLOAD DUP8 PUSH2 0xA9F JUMP JUMPDEST RETURNDATASIZE SWAP2 POP PUSH2 0xF55 JUMP JUMPDEST PUSH1 0x0 SLOAD PUSH1 0x40 MLOAD PUSH4 0x6EB1769F PUSH1 0xE1 SHL DUP2 MSTORE CALLER PUSH1 0x4 DUP3 ADD MSTORE ADDRESS PUSH1 0x24 DUP3 ADD MSTORE PUSH1 0x1 PUSH1 0x1 PUSH1 0xA0 SHL SUB SWAP1 SWAP2 AND SWAP1 PUSH1 0x20 DUP2 PUSH1 0x44 DUP2 DUP6 GAS STATICCALL SWAP1 DUP2 ISZERO PUSH2 0xDCF JUMPI PUSH1 0x0 SWAP2 PUSH2 0x10A4 JUMPI JUMPDEST POP DUP3 DUP2 LT PUSH2 0xF2C JUMPI POP PUSH1 0x40 MLOAD PUSH4 0x70A08231 PUSH1 0xE0 SHL DUP2 MSTORE CALLER PUSH1 0x4 DUP3 ADD MSTORE PUSH1 0x20 DUP2 PUSH1 0x24 DUP2 DUP6 GAS STATICCALL SWAP1 DUP2 ISZERO PUSH2 0xDCF JUMPI PUSH1 0x0 SWAP2 PUSH2 0x1072 JUMPI JUMPDEST POP DUP3 DUP2 LT PUSH2 0xEDE JUMPI POP DUP2 PUSH2 0x1005 SWAP2 ADDRESS SWAP1 CALLER SWAP1 PUSH2 0x2F79 JUMP JUMPDEST PUSH2 0x12C DUP2 MUL DUP2 DUP2 DIV PUSH2 0x12C EQ DUP3 ISZERO OR ISZERO PUSH2 0xEC8 JUMPI PUSH32 0x5D22F5D15D95ED39D12130528F910A501AD34DEB0428D9227C9D316D9BCB99E9 SWAP2 PUSH2 0x104F PUSH2 0xB34 PUSH2 0x2710 PUSH1 0x40 SWAP5 DIV DUP1 SWAP4 PUSH2 0x26EB JUMP JUMPDEST PUSH1 0x8 SSTORE PUSH2 0x105E DUP2 PUSH1 0x7 SLOAD PUSH2 0x2713 JUMP JUMPDEST DUP1 PUSH1 0x7 SSTORE DUP3 MLOAD SWAP2 DUP3 MSTORE PUSH1 0x20 DUP3 ADD MSTORE LOG1 PUSH2 0xB5C JUMP JUMPDEST SWAP1 PUSH1 0x20 DUP3 RETURNDATASIZE PUSH1 0x20 GT PUSH2 0x109C JUMPI JUMPDEST DUP2 PUSH2 0x108C PUSH1 0x20 SWAP4 DUP4 PUSH2 0x2617 JUMP JUMPDEST DUP2 ADD SUB SLT PUSH2 0xEB9 JUMPI POP MLOAD DUP7 PUSH2 0xFEE JUMP JUMPDEST RETURNDATASIZE SWAP2 POP PUSH2 0x107F JUMP JUMPDEST SWAP1 PUSH1 0x20 DUP3 RETURNDATASIZE PUSH1 0x20 GT PUSH2 0x10CE JUMPI JUMPDEST DUP2 PUSH2 0x10BE PUSH1 0x20 SWAP4 DUP4 PUSH2 0x2617 JUMP JUMPDEST DUP2 ADD SUB SLT PUSH2 0xEB9 JUMPI POP MLOAD DUP7 PUSH2 0xFBA JUMP JUMPDEST RETURNDATASIZE SWAP2 POP PUSH2 0x10B1 JUMP JUMPDEST PUSH4 0x4E487B71 PUSH1 0xE0 SHL PUSH1 0x0 MSTORE PUSH1 0x21 PUSH1 0x4 MSTORE PUSH1 0x24 PUSH1 0x0 REVERT JUMPDEST DUP4 PUSH4 0xFAB9B837 PUSH1 0xE0 SHL PUSH1 0x0 MSTORE PUSH1 0x4 MSTORE PUSH1 0x24 PUSH1 0x0 REVERT JUMPDEST PUSH4 0xF4F5B733 PUSH1 0xE0 SHL PUSH1 0x0 MSTORE PUSH1 0x4 PUSH1 0x0 REVERT JUMPDEST CALLVALUE PUSH2 0x365 JUMPI PUSH1 0x40 CALLDATASIZE PUSH1 0x3 NOT ADD SLT PUSH2 0x365 JUMPI PUSH1 0x2 SLOAD PUSH1 0x1 PUSH1 0x1 PUSH1 0xA0 SHL SUB AND CALLER SUB PUSH2 0x1143 JUMPI PUSH2 0x54C PUSH1 0x24 CALLDATALOAD PUSH1 0x4 CALLDATALOAD PUSH2 0x2720 JUMP JUMPDEST PUSH4 0x5A1C6A59 PUSH1 0xE0 SHL PUSH1 0x0 MSTORE CALLER PUSH1 0x4 MSTORE PUSH1 0x24 PUSH1 0x0 REVERT JUMPDEST CALLVALUE PUSH2 0x365 JUMPI PUSH1 0x0 CALLDATASIZE PUSH1 0x3 NOT ADD SLT PUSH2 0x365 JUMPI PUSH1 0x0 DUP1 MLOAD PUSH1 0x20 PUSH2 0x301F DUP4 CODECOPY DUP2 MLOAD SWAP2 MSTORE SLOAD PUSH1 0x40 MLOAD PUSH1 0x1 PUSH1 0x1 PUSH1 0xA0 SHL SUB SWAP1 SWAP2 AND DUP2 MSTORE PUSH1 0x20 SWAP1 RETURN JUMPDEST CALLVALUE PUSH2 0x365 JUMPI PUSH1 0x0 CALLDATASIZE PUSH1 0x3 NOT ADD SLT PUSH2 0x365 JUMPI PUSH2 0x11A7 PUSH2 0x2E5E JUMP JUMPDEST PUSH2 0x11AF PUSH2 0x2E34 JUMP JUMPDEST PUSH1 0x1 PUSH1 0xFF NOT PUSH1 0x0 DUP1 MLOAD PUSH1 0x20 PUSH2 0x305F DUP4 CODECOPY DUP2 MLOAD SWAP2 MSTORE SLOAD AND OR PUSH1 0x0 DUP1 MLOAD PUSH1 0x20 PUSH2 0x305F DUP4 CODECOPY DUP2 MLOAD SWAP2 MSTORE SSTORE PUSH32 0x62E78CEA01BEE320CD4E420270B5EA74000D11B0C9F74754EBDBFC544B05A258 PUSH1 0x20 PUSH1 0x40 MLOAD CALLER DUP2 MSTORE LOG1 STOP JUMPDEST CALLVALUE PUSH2 0x365 JUMPI PUSH1 0x20 CALLDATASIZE PUSH1 0x3 NOT ADD SLT PUSH2 0x365 JUMPI PUSH1 0x4 CALLDATALOAD PUSH1 0x1E SLOAD DUP2 LT ISZERO PUSH2 0x365 JUMPI PUSH2 0x122B PUSH1 0x20 SWAP2 PUSH2 0x2655 JUMP JUMPDEST SWAP1 SLOAD SWAP1 PUSH1 0x3 SHL SHR PUSH1 0x40 MLOAD SWAP1 DUP2 MSTORE RETURN JUMPDEST CALLVALUE PUSH2 0x365 JUMPI PUSH1 0x20 CALLDATASIZE PUSH1 0x3 NOT ADD SLT PUSH2 0x365 JUMPI PUSH1 0x4 CALLDATALOAD PUSH1 0x0 MSTORE PUSH1 0x1C PUSH1 0x20 MSTORE PUSH1 0x20 PUSH1 0x40 PUSH1 0x0 KECCAK256 SLOAD PUSH1 0x40 MLOAD SWAP1 DUP2 MSTORE RETURN JUMPDEST CALLVALUE PUSH2 0x365 JUMPI PUSH1 0x20 CALLDATASIZE PUSH1 0x3 NOT ADD SLT PUSH2 0x365 JUMPI PUSH2 0x127F PUSH2 0x25C2 JUMP JUMPDEST PUSH2 0x1287 PUSH2 0x2E5E JUMP JUMPDEST PUSH1 0xFF DUP2 AND SWAP1 PUSH1 0x3 DUP3 LT ISZERO PUSH2 0x1457 JUMPI PUSH1 0x3 DUP2 LT ISZERO PUSH2 0x33B JUMPI PUSH1 0x5 MUL PUSH1 0xE ADD SLOAD PUSH1 0x8 SHR PUSH1 0xFF AND PUSH2 0x1443 JUMPI PUSH1 0x1A SLOAD SWAP1 PUSH2 0x12BC DUP3 PUSH2 0x2704 JUMP JUMPDEST PUSH1 0x1A SSTORE PUSH1 0x0 PUSH1 0x1D SLOAD PUSH2 0x12CD DUP2 PUSH2 0x2704 JUMP JUMPDEST PUSH1 0x1D SSTORE PUSH1 0x40 MLOAD PUSH1 0x20 DUP2 ADD SWAP2 PUSH1 0x1 PUSH1 0x1 PUSH1 0x60 SHL SUB NOT ADDRESS PUSH1 0x60 SHL AND DUP4 MSTORE DUP6 PUSH1 0x34 DUP4 ADD MSTORE PUSH1 0xFF PUSH1 0xF8 SHL PUSH1 0x54 DUP4 ADD MSTORE TIMESTAMP PUSH1 0x55 DUP4 ADD MSTORE PUSH1 0x75 DUP3 ADD MSTORE PUSH1 0x75 DUP2 MSTORE PUSH2 0x1312 PUSH1 0x95 DUP3 PUSH2 0x2617 JUMP JUMPDEST MLOAD SWAP1 KECCAK256 SWAP2 PUSH1 0x20 PUSH1 0x1 DUP1 PUSH1 0xA0 SHL SUB PUSH1 0x2 SLOAD AND PUSH1 0x24 PUSH1 0x40 MLOAD DUP1 SWAP6 DUP2 SWAP4 PUSH4 0x71C8A239 PUSH1 0xE1 SHL DUP4 MSTORE DUP9 PUSH1 0x4 DUP5 ADD MSTORE GAS CALL SWAP2 DUP3 ISZERO PUSH2 0xDCF JUMPI PUSH1 0x0 SWAP3 PUSH2 0x140F JUMPI JUMPDEST POP PUSH1 0x4 DUP2 LT ISZERO PUSH2 0x10D6 JUMPI PUSH1 0x40 MLOAD PUSH2 0x1363 DUP2 PUSH2 0x25DF JUMP JUMPDEST ADDRESS DUP2 MSTORE PUSH1 0x20 DUP2 ADD SWAP5 DUP6 MSTORE PUSH2 0x137B PUSH1 0x40 DUP3 ADD SWAP3 DUP4 PUSH2 0x26F8 JUMP JUMPDEST TIMESTAMP PUSH1 0x60 DUP3 ADD SWAP1 DUP2 MSTORE PUSH1 0x0 PUSH1 0x80 DUP4 ADD DUP2 DUP2 MSTORE DUP6 DUP3 MSTORE PUSH1 0x1B PUSH1 0x20 MSTORE PUSH1 0x40 SWAP1 SWAP2 KECCAK256 SWAP3 MLOAD DUP4 SLOAD PUSH1 0x1 PUSH1 0x1 PUSH1 0xA0 SHL SUB NOT AND PUSH1 0x1 PUSH1 0x1 PUSH1 0xA0 SHL SUB SWAP2 SWAP1 SWAP2 AND OR DUP4 SSTORE SWAP6 MLOAD PUSH1 0x1 DUP4 ADD SSTORE SWAP2 MLOAD SWAP5 PUSH1 0x2 DUP3 ADD SWAP1 PUSH1 0x4 DUP8 LT ISZERO PUSH2 0x10D6 JUMPI PUSH2 0x1400 SWAP4 PUSH1 0x4 SWAP3 PUSH1 0x0 SWAP9 PUSH1 0xFF DUP1 NOT DUP4 SLOAD AND SWAP2 AND OR SWAP1 SSTORE MLOAD PUSH1 0x3 DUP5 ADD SSTORE MLOAD ISZERO ISZERO SWAP2 ADD SWAP1 PUSH1 0xFF DUP1 NOT DUP4 SLOAD AND SWAP2 ISZERO ISZERO AND OR SWAP1 SSTORE JUMP JUMPDEST DUP3 MSTORE PUSH1 0x1C PUSH1 0x20 MSTORE PUSH1 0x40 DUP3 KECCAK256 SSTORE DUP1 RETURN JUMPDEST SWAP1 SWAP2 PUSH1 0x20 DUP3 RETURNDATASIZE PUSH1 0x20 GT PUSH2 0x143B JUMPI JUMPDEST DUP2 PUSH2 0x142A PUSH1 0x20 SWAP4 DUP4 PUSH2 0x2617 JUMP JUMPDEST DUP2 ADD SUB SLT PUSH2 0xEB9 JUMPI POP MLOAD SWAP1 DUP5 PUSH2 0x134D JUMP JUMPDEST RETURNDATASIZE SWAP2 POP PUSH2 0x141D JUMP JUMPDEST PUSH4 0x2F8ECEC9 PUSH1 0xE2 SHL PUSH1 0x0 MSTORE PUSH1 0x4 MSTORE PUSH1 0x24 PUSH1 0x0 REVERT JUMPDEST POP PUSH4 0xCBA51315 PUSH1 0xE0 SHL PUSH1 0x0 MSTORE PUSH1 0x4 MSTORE PUSH1 0x24 PUSH1 0x0 REVERT JUMPDEST CALLVALUE PUSH2 0x365 JUMPI PUSH1 0x60 CALLDATASIZE PUSH1 0x3 NOT ADD SLT PUSH2 0x365 JUMPI PUSH2 0x1485 PUSH2 0x25C2 JUMP JUMPDEST PUSH2 0x148D PUSH2 0x2E5E JUMP JUMPDEST PUSH1 0xFF DUP2 AND SWAP1 PUSH1 0x3 DUP3 LT ISZERO PUSH2 0x1457 JUMPI PUSH1 0x3 DUP2 LT ISZERO PUSH2 0x33B JUMPI PUSH1 0x5 MUL PUSH1 0xE DUP2 ADD SWAP2 PUSH1 0xFF DUP4 SLOAD PUSH1 0x8 SHR AND PUSH2 0x1443 JUMPI PUSH1 0x1A SLOAD SWAP2 PUSH2 0x14C5 DUP4 PUSH2 0x2704 JUMP JUMPDEST PUSH1 0x1A SSTORE PUSH1 0x24 CALLDATALOAD PUSH2 0x3E8 SWAP1 MOD PUSH1 0x44 CALLDATALOAD PUSH2 0x3E8 SWAP1 MOD SWAP2 PUSH1 0x40 MLOAD SWAP6 PUSH2 0x14E6 DUP8 PUSH2 0x25FB JUMP JUMPDEST DUP6 DUP8 MSTORE PUSH1 0x20 DUP1 DUP9 ADD DUP5 SWAP1 MSTORE PUSH1 0x40 DUP1 DUP10 ADD DUP7 SWAP1 MSTORE PUSH1 0x0 PUSH1 0x60 DUP1 DUP12 ADD DUP3 SWAP1 MSTORE PUSH1 0x1 PUSH1 0x80 DUP1 DUP14 ADD SWAP2 SWAP1 SWAP2 MSTORE TIMESTAMP PUSH1 0xA0 SWAP1 SWAP13 ADD DUP13 SWAP1 MSTORE PUSH1 0xB DUP8 ADD DUP12 SWAP1 SSTORE PUSH1 0xC DUP8 ADD DUP9 SWAP1 SSTORE PUSH1 0xD DUP8 ADD DUP10 SWAP1 SSTORE DUP6 SLOAD PUSH2 0xFFFF NOT AND PUSH2 0x100 OR SWAP1 SWAP6 SSTORE PUSH1 0xF SWAP1 SWAP6 ADD SWAP10 SWAP1 SWAP10 SSTORE DUP1 MLOAD SWAP8 DUP9 MSTORE SWAP1 DUP8 ADD SWAP4 SWAP1 SWAP4 MSTORE SWAP2 DUP6 ADD SWAP3 SWAP1 SWAP3 MSTORE SWAP1 DUP4 ADD SWAP2 SWAP1 SWAP2 MSTORE PUSH32 0x156F6FEF57E34329718D6EFBD41F31A81AFD51D967D24F97B94EB576DCA20CFE SWAP2 LOG1 DUP1 RETURN JUMPDEST CALLVALUE PUSH2 0x365 JUMPI PUSH1 0x0 CALLDATASIZE PUSH1 0x3 NOT ADD SLT PUSH2 0x365 JUMPI PUSH1 0x1 SLOAD PUSH1 0x40 MLOAD PUSH1 0x1 PUSH1 0x1 PUSH1 0xA0 SHL SUB SWAP1 SWAP2 AND DUP2 MSTORE PUSH1 0x20 SWAP1 RETURN JUMPDEST CALLVALUE PUSH2 0x365 JUMPI PUSH1 0x0 CALLDATASIZE PUSH1 0x3 NOT ADD SLT PUSH2 0x365 JUMPI PUSH1 0x20 PUSH1 0x40 MLOAD PUSH1 0x2 DUP2 MSTORE RETURN JUMPDEST CALLVALUE PUSH2 0x365 JUMPI PUSH1 0x0 CALLDATASIZE PUSH1 0x3 NOT ADD SLT PUSH2 0x365 JUMPI PUSH2 0x15E1 PUSH2 0x2E5E JUMP JUMPDEST PUSH1 0x0 DUP1 MLOAD PUSH1 0x20 PUSH2 0x301F DUP4 CODECOPY DUP2 MLOAD SWAP2 MSTORE DUP1 SLOAD PUSH1 0x1 PUSH1 0x1 PUSH1 0xA0 SHL SUB NOT DUP2 AND SWAP1 SWAP2 SSTORE PUSH1 0x0 SWAP1 PUSH1 0x1 PUSH1 0x1 PUSH1 0xA0 SHL SUB AND PUSH32 0x8BE0079C531659141344CD1FD0A4F28419497F9722A3DAAFE3B4186F6B6457E0 DUP3 DUP1 LOG3 STOP JUMPDEST CALLVALUE PUSH2 0x365 JUMPI PUSH1 0x0 CALLDATASIZE PUSH1 0x3 NOT ADD SLT PUSH2 0x365 JUMPI PUSH1 0x6 SLOAD PUSH1 0x40 MLOAD PUSH1 0x1 PUSH1 0x1 PUSH1 0xA0 SHL SUB SWAP1 SWAP2 AND DUP2 MSTORE PUSH1 0x20 SWAP1 RETURN JUMPDEST CALLVALUE PUSH2 0x365 JUMPI PUSH1 0x0 CALLDATASIZE PUSH1 0x3 NOT ADD SLT PUSH2 0x365 JUMPI PUSH1 0x2 SLOAD PUSH1 0x40 MLOAD PUSH1 0x1 PUSH1 0x1 PUSH1 0xA0 SHL SUB SWAP1 SWAP2 AND DUP2 MSTORE PUSH1 0x20 SWAP1 RETURN JUMPDEST CALLVALUE PUSH2 0x365 JUMPI PUSH1 0x20 CALLDATASIZE PUSH1 0x3 NOT ADD SLT PUSH2 0x365 JUMPI PUSH1 0x4 CALLDATALOAD PUSH2 0x16A0 PUSH2 0x2E5E JUMP JUMPDEST DUP1 ISZERO PUSH2 0x16DF JUMPI PUSH1 0x40 PUSH32 0xC401B47DB6EC4C8671A2F54CF3A5F3F7069C3B71B6C6AD9ED90F2C8CC9920B6A SWAP2 PUSH1 0x20 SLOAD SWAP1 DUP1 PUSH1 0x20 SSTORE DUP3 MLOAD SWAP2 DUP3 MSTORE PUSH1 0x20 DUP3 ADD MSTORE LOG1 STOP JUMPDEST PUSH3 0xBFC921 PUSH1 0xE0 SHL PUSH1 0x0 MSTORE PUSH1 0x4 PUSH1 0x0 REVERT JUMPDEST CALLVALUE PUSH2 0x365 JUMPI PUSH1 0x0 CALLDATASIZE PUSH1 0x3 NOT ADD SLT PUSH2 0x365 JUMPI PUSH1 0x20 PUSH1 0xFF PUSH1 0x0 DUP1 MLOAD PUSH1 0x20 PUSH2 0x305F DUP4 CODECOPY DUP2 MLOAD SWAP2 MSTORE SLOAD AND PUSH1 0x40 MLOAD SWAP1 ISZERO ISZERO DUP2 MSTORE RETURN JUMPDEST CALLVALUE PUSH2 0x365 JUMPI PUSH1 0x0 CALLDATASIZE PUSH1 0x3 NOT ADD SLT PUSH2 0x365 JUMPI PUSH1 0x3 SLOAD PUSH1 0x40 MLOAD PUSH1 0x1 PUSH1 0x1 PUSH1 0xA0 SHL SUB SWAP1 SWAP2 AND DUP2 MSTORE PUSH1 0x20 SWAP1 RETURN JUMPDEST CALLVALUE PUSH2 0x365 JUMPI PUSH1 0x0 CALLDATASIZE PUSH1 0x3 NOT ADD SLT PUSH2 0x365 JUMPI PUSH1 0x20 PUSH1 0x40 MLOAD PUSH2 0x12C DUP2 MSTORE RETURN JUMPDEST CALLVALUE PUSH2 0x365 JUMPI PUSH1 0x0 CALLDATASIZE PUSH1 0x3 NOT ADD SLT PUSH2 0x365 JUMPI PUSH32 0x0 PUSH1 0x1 PUSH1 0x1 PUSH1 0xA0 SHL SUB AND ADDRESS SUB PUSH2 0x17BE JUMPI PUSH1 0x20 PUSH1 0x40 MLOAD PUSH1 0x0 DUP1 MLOAD PUSH1 0x20 PUSH2 0x303F DUP4 CODECOPY DUP2 MLOAD SWAP2 MSTORE DUP2 MSTORE RETURN JUMPDEST PUSH4 0x703E46DD PUSH1 0xE1 SHL PUSH1 0x0 MSTORE PUSH1 0x4 PUSH1 0x0 REVERT JUMPDEST PUSH1 0x40 CALLDATASIZE PUSH1 0x3 NOT ADD SLT PUSH2 0x365 JUMPI PUSH2 0x17E3 PUSH2 0x2586 JUMP JUMPDEST PUSH1 0x24 CALLDATALOAD SWAP1 PUSH8 0xFFFFFFFFFFFFFFFF DUP3 GT PUSH2 0x365 JUMPI CALLDATASIZE PUSH1 0x23 DUP4 ADD SLT ISZERO PUSH2 0x365 JUMPI DUP2 PUSH1 0x4 ADD CALLDATALOAD SWAP1 PUSH2 0x1810 DUP3 PUSH2 0x2639 JUMP JUMPDEST SWAP2 PUSH2 0x181E PUSH1 0x40 MLOAD SWAP4 DUP5 PUSH2 0x2617 JUMP JUMPDEST DUP1 DUP4 MSTORE PUSH1 0x20 DUP4 ADD SWAP4 CALLDATASIZE PUSH1 0x24 DUP4 DUP4 ADD ADD GT PUSH2 0x365 JUMPI DUP2 PUSH1 0x0 SWAP3 PUSH1 0x24 PUSH1 0x20 SWAP4 ADD DUP8 CALLDATACOPY DUP5 ADD ADD MSTORE PUSH1 0x1 PUSH1 0x1 PUSH1 0xA0 SHL SUB PUSH32 0x0 AND ADDRESS DUP2 EQ SWAP1 DUP2 ISZERO PUSH2 0x19ED JUMPI JUMPDEST POP PUSH2 0x17BE JUMPI PUSH2 0x1884 PUSH2 0x2E5E JUMP JUMPDEST PUSH1 0x40 MLOAD PUSH4 0x52D1902D PUSH1 0xE0 SHL DUP2 MSTORE PUSH1 0x1 PUSH1 0x1 PUSH1 0xA0 SHL SUB DUP3 AND SWAP4 SWAP1 PUSH1 0x20 DUP2 PUSH1 0x4 DUP2 DUP9 GAS STATICCALL PUSH1 0x0 SWAP2 DUP2 PUSH2 0x19B9 JUMPI JUMPDEST POP PUSH2 0x18C9 JUMPI DUP5 PUSH4 0x4C9C8CE3 PUSH1 0xE0 SHL PUSH1 0x0 MSTORE PUSH1 0x4 MSTORE PUSH1 0x24 PUSH1 0x0 REVERT JUMPDEST DUP1 PUSH1 0x0 DUP1 MLOAD PUSH1 0x20 PUSH2 0x303F DUP4 CODECOPY DUP2 MLOAD SWAP2 MSTORE DUP7 SWAP3 SUB PUSH2 0x19A5 JUMPI POP DUP3 EXTCODESIZE ISZERO PUSH2 0x1991 JUMPI PUSH1 0x0 DUP1 MLOAD PUSH1 0x20 PUSH2 0x303F DUP4 CODECOPY DUP2 MLOAD SWAP2 MSTORE DUP1 SLOAD PUSH1 0x1 PUSH1 0x1 PUSH1 0xA0 SHL SUB NOT AND DUP3 OR SWAP1 SSTORE PUSH32 0xBC7CD75A20EE27FD9ADEBAB32041F755214DBC6BFFA90CC0225B39DA2E5C2D3B PUSH1 0x0 DUP1 LOG2 DUP3 MLOAD ISZERO PUSH2 0x1976 JUMPI PUSH1 0x0 DUP1 SWAP2 PUSH2 0x54C SWAP5 MLOAD SWAP1 DUP5 GAS DELEGATECALL RETURNDATASIZE ISZERO PUSH2 0x196E JUMPI RETURNDATASIZE SWAP2 PUSH2 0x1951 DUP4 PUSH2 0x2639 JUMP JUMPDEST SWAP3 PUSH2 0x195F PUSH1 0x40 MLOAD SWAP5 DUP6 PUSH2 0x2617 JUMP JUMPDEST DUP4 MSTORE RETURNDATASIZE PUSH1 0x0 PUSH1 0x20 DUP6 ADD RETURNDATACOPY PUSH2 0x2FBD JUMP JUMPDEST PUSH1 0x60 SWAP2 PUSH2 0x2FBD JUMP JUMPDEST POP POP POP CALLVALUE PUSH2 0x1980 JUMPI STOP JUMPDEST PUSH4 0xB398979F PUSH1 0xE0 SHL PUSH1 0x0 MSTORE PUSH1 0x4 PUSH1 0x0 REVERT JUMPDEST PUSH4 0x4C9C8CE3 PUSH1 0xE0 SHL PUSH1 0x0 MSTORE PUSH1 0x4 MSTORE PUSH1 0x24 PUSH1 0x0 REVERT JUMPDEST PUSH4 0x2A875269 PUSH1 0xE2 SHL PUSH1 0x0 MSTORE PUSH1 0x4 MSTORE PUSH1 0x24 PUSH1 0x0 REVERT JUMPDEST SWAP1 SWAP2 POP PUSH1 0x20 DUP2 RETURNDATASIZE PUSH1 0x20 GT PUSH2 0x19E5 JUMPI JUMPDEST DUP2 PUSH2 0x19D5 PUSH1 0x20 SWAP4 DUP4 PUSH2 0x2617 JUMP JUMPDEST DUP2 ADD SUB SLT PUSH2 0x365 JUMPI MLOAD SWAP1 DUP7 PUSH2 0x18AF JUMP JUMPDEST RETURNDATASIZE SWAP2 POP PUSH2 0x19C8 JUMP JUMPDEST PUSH1 0x0 DUP1 MLOAD PUSH1 0x20 PUSH2 0x303F DUP4 CODECOPY DUP2 MLOAD SWAP2 MSTORE SLOAD PUSH1 0x1 PUSH1 0x1 PUSH1 0xA0 SHL SUB AND EQ ISZERO SWAP1 POP DUP5 PUSH2 0x1877 JUMP JUMPDEST CALLVALUE PUSH2 0x365 JUMPI PUSH1 0x20 CALLDATASIZE PUSH1 0x3 NOT ADD SLT PUSH2 0x365 JUMPI PUSH2 0x1A29 PUSH2 0x2586 JUMP JUMPDEST PUSH2 0x1A31 PUSH2 0x2E5E JUMP JUMPDEST PUSH1 0x1 PUSH1 0x1 PUSH1 0xA0 SHL SUB AND DUP1 ISZERO PUSH2 0x829 JUMPI PUSH1 0xA0 PUSH32 0xD8E98BFF5AE8522235EF48DAECFF7488B367200BEA03A4E8CB4BC98108C6A492 SWAP2 PUSH1 0x6 SLOAD SWAP1 DUP1 PUSH1 0x1 PUSH1 0x1 PUSH1 0x60 SHL SUB DUP5 SHL DUP4 AND OR PUSH1 0x6 SSTORE PUSH1 0x40 MLOAD SWAP2 PUSH1 0x60 DUP4 MSTORE PUSH1 0xA PUSH1 0x60 DUP5 ADD MSTORE PUSH10 0x6E6674526576656E7565 PUSH1 0xB0 SHL PUSH1 0x80 DUP5 ADD MSTORE PUSH1 0x1 DUP1 DUP6 SHL SUB AND PUSH1 0x20 DUP4 ADD MSTORE PUSH1 0x40 DUP3 ADD MSTORE LOG1 STOP JUMPDEST CALLVALUE PUSH2 0x365 JUMPI PUSH1 0x0 CALLDATASIZE PUSH1 0x3 NOT ADD SLT PUSH2 0x365 JUMPI PUSH2 0x1AC8 PUSH2 0x2E5E JUMP JUMPDEST PUSH2 0x1AD0 PUSH2 0x2DF8 JUMP JUMPDEST PUSH1 0x8 SLOAD DUP1 ISZERO PUSH2 0x1B7B JUMPI PUSH1 0x0 PUSH1 0x8 DUP2 SWAP1 SSTORE SLOAD PUSH1 0x5 SLOAD PUSH1 0x40 MLOAD PUSH4 0xA9059CBB PUSH1 0xE0 SHL PUSH1 0x20 DUP3 ADD MSTORE PUSH1 0x1 PUSH1 0x1 PUSH1 0xA0 SHL SUB SWAP2 DUP3 AND PUSH1 0x24 DUP3 ADD MSTORE PUSH1 0x44 DUP2 ADD DUP5 SWAP1 MSTORE PUSH32 0xC0819C13BE868895EB93E40EACEB96DE976442FA1D404E5C55F14BB65A8C489A SWAP4 SWAP3 PUSH2 0x1B4A SWAP3 AND PUSH2 0xE14 DUP3 PUSH1 0x64 DUP2 ADD JUMPDEST SUB PUSH1 0x1F NOT DUP2 ADD DUP5 MSTORE DUP4 PUSH2 0x2617 JUMP JUMPDEST PUSH1 0x5 SLOAD PUSH1 0x40 DUP1 MLOAD PUSH1 0x1 PUSH1 0x1 PUSH1 0xA0 SHL SUB SWAP1 SWAP3 AND DUP3 MSTORE PUSH1 0x20 DUP3 ADD SWAP3 SWAP1 SWAP3 MSTORE LOG1 PUSH1 0x1 PUSH1 0x0 DUP1 MLOAD PUSH1 0x20 PUSH2 0x307F DUP4 CODECOPY DUP2 MLOAD SWAP2 MSTORE SSTORE STOP JUMPDEST PUSH4 0xD00DB4D PUSH1 0xE3 SHL PUSH1 0x0 MSTORE PUSH1 0x4 PUSH1 0x0 REVERT JUMPDEST CALLVALUE PUSH2 0x365 JUMPI PUSH1 0x0 CALLDATASIZE PUSH1 0x3 NOT ADD SLT PUSH2 0x365 JUMPI PUSH1 0x5 SLOAD PUSH1 0x40 MLOAD PUSH1 0x1 PUSH1 0x1 PUSH1 0xA0 SHL SUB SWAP1 SWAP2 AND DUP2 MSTORE PUSH1 0x20 SWAP1 RETURN JUMPDEST CALLVALUE PUSH2 0x365 JUMPI PUSH1 0x0 CALLDATASIZE PUSH1 0x3 NOT ADD SLT PUSH2 0x365 JUMPI PUSH1 0x20 PUSH1 0x1E SLOAD PUSH1 0x40 MLOAD SWAP1 DUP2 MSTORE RETURN JUMPDEST CALLVALUE PUSH2 0x365 JUMPI PUSH1 0x0 CALLDATASIZE PUSH1 0x3 NOT ADD SLT PUSH2 0x365 JUMPI PUSH2 0x1BEC PUSH2 0x2E5E JUMP JUMPDEST PUSH1 0x0 DUP1 MLOAD PUSH1 0x20 PUSH2 0x305F DUP4 CODECOPY DUP2 MLOAD SWAP2 MSTORE SLOAD PUSH1 0xFF DUP2 AND ISZERO PUSH2 0x1C45 JUMPI PUSH1 0xFF NOT AND PUSH1 0x0 DUP1 MLOAD PUSH1 0x20 PUSH2 0x305F DUP4 CODECOPY DUP2 MLOAD SWAP2 MSTORE SSTORE PUSH32 0x5DB9EE0A495BF2E6FF9C91A7834C1BA4FDD244A5E8AA4E537BD38AEAE4B073AA PUSH1 0x20 PUSH1 0x40 MLOAD CALLER DUP2 MSTORE LOG1 STOP JUMPDEST PUSH4 0x8DFC202B PUSH1 0xE0 SHL PUSH1 0x0 MSTORE PUSH1 0x4 PUSH1 0x0 REVERT JUMPDEST CALLVALUE PUSH2 0x365 JUMPI PUSH1 0x0 CALLDATASIZE PUSH1 0x3 NOT ADD SLT PUSH2 0x365 JUMPI PUSH1 0x20 PUSH1 0x40 MLOAD PUSH2 0x25E4 DUP2 MSTORE RETURN JUMPDEST CALLVALUE PUSH2 0x365 JUMPI PUSH1 0x0 CALLDATASIZE PUSH1 0x3 NOT ADD SLT PUSH2 0x365 JUMPI PUSH1 0x20 PUSH1 0x40 MLOAD PUSH1 0x12 DUP2 MSTORE RETURN JUMPDEST CALLVALUE PUSH2 0x365 JUMPI PUSH2 0x120 CALLDATASIZE PUSH1 0x3 NOT ADD SLT PUSH2 0x365 JUMPI PUSH2 0x1CA9 PUSH2 0x2586 JUMP JUMPDEST PUSH2 0x1CB1 PUSH2 0x259C JUMP JUMPDEST SWAP1 PUSH1 0x44 CALLDATALOAD PUSH1 0x1 PUSH1 0x1 PUSH1 0xA0 SHL SUB DUP2 AND SWAP1 DUP2 SWAP1 SUB PUSH2 0x365 JUMPI PUSH1 0x64 CALLDATALOAD PUSH1 0x1 PUSH1 0x1 PUSH1 0xA0 SHL SUB DUP2 AND SWAP3 SWAP1 DUP4 SWAP1 SUB PUSH2 0x365 JUMPI PUSH1 0x84 CALLDATALOAD PUSH1 0x1 PUSH1 0x1 PUSH1 0xA0 SHL SUB DUP2 AND SWAP1 DUP2 SWAP1 SUB PUSH2 0x365 JUMPI PUSH1 0xA4 CALLDATALOAD PUSH1 0x1 PUSH1 0x1 PUSH1 0xA0 SHL SUB DUP2 AND SWAP1 DUP2 SWAP1 SUB PUSH2 0x365 JUMPI PUSH1 0xC4 CALLDATALOAD PUSH1 0x1 PUSH1 0x1 PUSH1 0xA0 SHL SUB DUP2 AND SWAP2 SWAP1 DUP3 SWAP1 SUB PUSH2 0x365 JUMPI PUSH1 0xE4 CALLDATALOAD PUSH1 0x1 PUSH1 0x1 PUSH1 0xA0 SHL SUB DUP2 AND SWAP4 SWAP1 DUP5 SWAP1 SUB PUSH2 0x365 JUMPI PUSH2 0x104 CALLDATALOAD SWAP7 PUSH1 0x0 DUP1 MLOAD PUSH1 0x20 PUSH2 0x309F DUP4 CODECOPY DUP2 MLOAD SWAP2 MSTORE SLOAD SWAP9 PUSH1 0xFF DUP11 PUSH1 0x40 SHR AND ISZERO SWAP10 PUSH8 0xFFFFFFFFFFFFFFFF DUP2 AND DUP1 ISZERO SWAP1 DUP2 PUSH2 0x1F74 JUMPI JUMPDEST PUSH1 0x1 EQ SWAP1 DUP2 PUSH2 0x1F6A JUMPI JUMPDEST ISZERO SWAP1 DUP2 PUSH2 0x1F61 JUMPI JUMPDEST POP PUSH2 0x1F50 JUMPI PUSH8 0xFFFFFFFFFFFFFFFF NOT DUP2 AND PUSH1 0x1 OR PUSH1 0x0 DUP1 MLOAD PUSH1 0x20 PUSH2 0x309F DUP4 CODECOPY DUP2 MLOAD SWAP2 MSTORE SSTORE DUP11 PUSH2 0x1F23 JUMPI JUMPDEST POP PUSH1 0x1 PUSH1 0x1 PUSH1 0xA0 SHL SUB DUP8 AND ISZERO PUSH2 0x829 JUMPI PUSH1 0x1 PUSH1 0x1 PUSH1 0xA0 SHL SUB AND SWAP6 DUP7 ISZERO PUSH2 0x829 JUMPI DUP8 ISZERO PUSH2 0x829 JUMPI DUP2 ISZERO PUSH2 0x829 JUMPI DUP3 ISZERO PUSH2 0x829 JUMPI DUP4 ISZERO PUSH2 0x829 JUMPI DUP5 ISZERO PUSH2 0x829 JUMPI DUP6 ISZERO PUSH2 0x829 JUMPI DUP9 ISZERO PUSH2 0x16DF JUMPI PUSH2 0x1E00 SWAP1 PUSH2 0x1DF8 PUSH2 0x2EF0 JUMP JUMPDEST PUSH2 0x547 PUSH2 0x2EF0 JUMP JUMPDEST PUSH2 0x1E08 PUSH2 0x2EF0 JUMP JUMPDEST PUSH2 0x1E10 PUSH2 0x2EF0 JUMP JUMPDEST PUSH2 0x1E18 PUSH2 0x2EF0 JUMP JUMPDEST PUSH1 0x1 PUSH1 0x0 DUP1 MLOAD PUSH1 0x20 PUSH2 0x307F DUP4 CODECOPY DUP2 MLOAD SWAP2 MSTORE SSTORE PUSH2 0x1E32 PUSH2 0x2EF0 JUMP JUMPDEST PUSH1 0x1 PUSH1 0x1 PUSH1 0x60 SHL SUB PUSH1 0xA0 SHL PUSH1 0x0 SLOAD AND OR PUSH1 0x0 SSTORE PUSH1 0x1 PUSH1 0x1 PUSH1 0x60 SHL SUB PUSH1 0xA0 SHL PUSH1 0x1 SLOAD AND OR PUSH1 0x1 SSTORE PUSH1 0x1 PUSH1 0x1 PUSH1 0x60 SHL SUB PUSH1 0xA0 SHL PUSH1 0x2 SLOAD AND OR PUSH1 0x2 SSTORE PUSH1 0x1 PUSH1 0x1 PUSH1 0x60 SHL SUB PUSH1 0xA0 SHL PUSH1 0x3 SLOAD AND OR PUSH1 0x3 SSTORE PUSH1 0x1 PUSH1 0x1 PUSH1 0x60 SHL SUB PUSH1 0xA0 SHL PUSH1 0x4 SLOAD AND OR PUSH1 0x4 SSTORE PUSH1 0x1 PUSH1 0x1 PUSH1 0x60 SHL SUB PUSH1 0xA0 SHL PUSH1 0x5 SLOAD AND OR PUSH1 0x5 SSTORE PUSH1 0x1 PUSH1 0x1 PUSH1 0x60 SHL SUB PUSH1 0xA0 SHL PUSH1 0x6 SLOAD AND OR PUSH1 0x6 SSTORE PUSH1 0x20 SSTORE PUSH1 0x1 PUSH1 0x1A SSTORE PUSH1 0x1 PUSH1 0x1D SSTORE PUSH2 0x1ECA JUMPI STOP JUMPDEST PUSH9 0xFF0000000000000000 NOT PUSH1 0x0 DUP1 MLOAD PUSH1 0x20 PUSH2 0x309F DUP4 CODECOPY DUP2 MLOAD SWAP2 MSTORE SLOAD AND PUSH1 0x0 DUP1 MLOAD PUSH1 0x20 PUSH2 0x309F DUP4 CODECOPY DUP2 MLOAD SWAP2 MSTORE SSTORE PUSH32 0xC7F505B2F371AE2175EE4913F4499E1F2633A7B5936321EED1CDAEB6115181D2 PUSH1 0x20 PUSH1 0x40 MLOAD PUSH1 0x1 DUP2 MSTORE LOG1 STOP JUMPDEST PUSH9 0xFFFFFFFFFFFFFFFFFF NOT AND PUSH9 0x10000000000000001 OR PUSH1 0x0 DUP1 MLOAD PUSH1 0x20 PUSH2 0x309F DUP4 CODECOPY DUP2 MLOAD SWAP2 MSTORE SSTORE DUP11 PUSH2 0x1DA2 JUMP JUMPDEST PUSH4 0xF92EE8A9 PUSH1 0xE0 SHL PUSH1 0x0 MSTORE PUSH1 0x4 PUSH1 0x0 REVERT JUMPDEST SWAP1 POP ISZERO DUP13 PUSH2 0x1D78 JUMP JUMPDEST ADDRESS EXTCODESIZE ISZERO SWAP2 POP PUSH2 0x1D70 JUMP JUMPDEST DUP13 SWAP2 POP PUSH2 0x1D66 JUMP JUMPDEST CALLVALUE PUSH2 0x365 JUMPI PUSH1 0x0 CALLDATASIZE PUSH1 0x3 NOT ADD SLT PUSH2 0x365 JUMPI PUSH1 0x20 PUSH1 0x40 MLOAD PUSH4 0x2F969E0 DUP2 MSTORE RETURN JUMPDEST CALLVALUE PUSH2 0x365 JUMPI PUSH1 0x20 CALLDATASIZE PUSH1 0x3 NOT ADD SLT PUSH2 0x365 JUMPI PUSH1 0x4 CALLDATALOAD PUSH1 0x3 DUP2 LT ISZERO PUSH2 0x365 JUMPI PUSH1 0x5 PUSH1 0xC0 SWAP2 MUL DUP1 PUSH1 0xB ADD SLOAD SWAP1 PUSH1 0xFF PUSH1 0xC DUP3 ADD SLOAD SWAP2 PUSH1 0xD DUP2 ADD SLOAD PUSH1 0xF PUSH1 0xE DUP4 ADD SLOAD SWAP3 ADD SLOAD SWAP4 PUSH1 0x40 MLOAD SWAP6 DUP7 MSTORE PUSH1 0x20 DUP7 ADD MSTORE PUSH1 0x40 DUP6 ADD MSTORE DUP2 DUP2 AND PUSH1 0x60 DUP6 ADD MSTORE PUSH1 0x8 SHR AND ISZERO ISZERO PUSH1 0x80 DUP4 ADD MSTORE PUSH1 0xA0 DUP3 ADD MSTORE RETURN JUMPDEST CALLVALUE PUSH2 0x365 JUMPI PUSH1 0x0 CALLDATASIZE PUSH1 0x3 NOT ADD SLT PUSH2 0x365 JUMPI PUSH1 0x4 SLOAD PUSH1 0x40 MLOAD PUSH1 0x1 PUSH1 0x1 PUSH1 0xA0 SHL SUB SWAP1 SWAP2 AND DUP2 MSTORE PUSH1 0x20 SWAP1 RETURN JUMPDEST CALLVALUE PUSH2 0x365 JUMPI PUSH1 0x20 CALLDATASIZE PUSH1 0x3 NOT ADD SLT PUSH2 0x365 JUMPI PUSH1 0x4 CALLDATALOAD PUSH1 0x0 MSTORE PUSH1 0x1F PUSH1 0x20 MSTORE PUSH1 0x20 PUSH1 0x1 DUP1 PUSH1 0xA0 SHL SUB PUSH1 0x40 PUSH1 0x0 KECCAK256 SLOAD AND PUSH1 0x40 MLOAD SWAP1 DUP2 MSTORE RETURN JUMPDEST CALLVALUE PUSH2 0x365 JUMPI PUSH1 0x20 CALLDATASIZE PUSH1 0x3 NOT ADD SLT PUSH2 0x365 JUMPI PUSH1 0x0 PUSH1 0x80 PUSH1 0x40 MLOAD PUSH2 0x2084 DUP2 PUSH2 0x25DF JUMP JUMPDEST DUP3 DUP2 MSTORE DUP3 PUSH1 0x20 DUP3 ADD MSTORE DUP3 PUSH1 0x40 DUP3 ADD MSTORE DUP3 PUSH1 0x60 DUP3 ADD MSTORE ADD MSTORE PUSH1 0x4 CALLDATALOAD PUSH1 0x0 MSTORE PUSH1 0x1B PUSH1 0x20 MSTORE PUSH1 0xA0 PUSH1 0x40 PUSH1 0x0 KECCAK256 PUSH1 0x40 MLOAD SWAP1 PUSH2 0x20BA DUP3 PUSH2 0x25DF JUMP JUMPDEST PUSH1 0x1 DUP1 DUP5 SHL SUB DUP2 SLOAD AND DUP3 MSTORE PUSH1 0x1 DUP2 ADD SLOAD SWAP1 PUSH1 0x20 DUP4 ADD SWAP2 DUP3 MSTORE PUSH2 0x2129 PUSH1 0xFF PUSH1 0x2 DUP4 ADD SLOAD AND PUSH2 0x20EB PUSH1 0x40 DUP7 ADD SWAP2 DUP3 PUSH2 0x26F8 JUMP JUMPDEST PUSH1 0xFF PUSH1 0x4 PUSH1 0x3 DUP6 ADD SLOAD SWAP5 PUSH1 0x60 DUP9 ADD SWAP6 DUP7 MSTORE ADD SLOAD AND SWAP4 PUSH1 0x80 DUP7 ADD SWAP5 ISZERO ISZERO DUP6 MSTORE PUSH1 0x40 MLOAD SWAP6 PUSH1 0x1 DUP1 DUP10 SHL SUB SWAP1 MLOAD AND DUP7 MSTORE MLOAD PUSH1 0x20 DUP7 ADD MSTORE MLOAD PUSH1 0x40 DUP6 ADD SWAP1 PUSH2 0x25D2 JUMP JUMPDEST MLOAD PUSH1 0x60 DUP4 ADD MSTORE MLOAD ISZERO ISZERO PUSH1 0x80 DUP3 ADD MSTORE RETURN JUMPDEST CALLVALUE PUSH2 0x365 JUMPI PUSH1 0x0 CALLDATASIZE PUSH1 0x3 NOT ADD SLT PUSH2 0x365 JUMPI PUSH1 0x20 PUSH1 0x40 MLOAD PUSH4 0x30A32C0 DUP2 MSTORE RETURN JUMPDEST CALLVALUE PUSH2 0x365 JUMPI PUSH1 0x80 CALLDATASIZE PUSH1 0x3 NOT ADD SLT PUSH2 0x365 JUMPI PUSH2 0x2171 PUSH2 0x2586 JUMP JUMPDEST POP PUSH2 0x217A PUSH2 0x259C JUMP JUMPDEST POP PUSH1 0x64 CALLDATALOAD PUSH8 0xFFFFFFFFFFFFFFFF DUP2 GT PUSH2 0x365 JUMPI CALLDATASIZE PUSH1 0x23 DUP3 ADD SLT ISZERO PUSH2 0x365 JUMPI DUP1 PUSH1 0x4 ADD CALLDATALOAD PUSH8 0xFFFFFFFFFFFFFFFF DUP2 GT PUSH2 0x365 JUMPI CALLDATASIZE SWAP2 ADD PUSH1 0x24 ADD GT PUSH2 0x365 JUMPI PUSH1 0x4 SLOAD PUSH1 0x1 PUSH1 0x1 PUSH1 0xA0 SHL SUB AND CALLER EQ PUSH2 0x21DC JUMPI JUMPDEST PUSH1 0x40 MLOAD PUSH4 0xA85BD01 PUSH1 0xE1 SHL DUP2 MSTORE PUSH1 0x20 SWAP1 RETURN JUMPDEST PUSH1 0x1E SLOAD PUSH9 0x10000000000000000 DUP2 LT ISZERO PUSH2 0x465 JUMPI DUP1 PUSH1 0x1 PUSH2 0x2200 SWAP3 ADD PUSH1 0x1E SSTORE PUSH2 0x2655 JUMP JUMPDEST DUP2 SLOAD SWAP1 PUSH1 0x3 SHL SWAP1 PUSH1 0x44 CALLDATALOAD DUP3 SHL SWAP2 PUSH1 0x0 NOT SWAP1 SHL NOT AND OR SWAP1 SSTORE PUSH2 0x21CA JUMP JUMPDEST CALLVALUE PUSH2 0x365 JUMPI PUSH1 0x40 CALLDATASIZE PUSH1 0x3 NOT ADD SLT PUSH2 0x365 JUMPI PUSH2 0x2235 PUSH2 0x25C2 JUMP JUMPDEST PUSH2 0x223D PUSH2 0x25B2 JUMP JUMPDEST PUSH2 0x2245 PUSH2 0x2DF8 JUMP JUMPDEST PUSH2 0x224D PUSH2 0x2E34 JUMP JUMPDEST PUSH1 0xFF DUP3 AND PUSH1 0x3 DUP2 LT ISZERO PUSH2 0x351 JUMPI POP PUSH1 0xFF DUP2 AND SWAP2 PUSH1 0x3 DUP4 GT PUSH2 0x24E5 JUMPI PUSH1 0x3 DUP2 LT ISZERO PUSH2 0x33B JUMPI PUSH1 0x5 MUL SWAP2 PUSH1 0xFF PUSH1 0xE DUP5 PUSH1 0xB ADD SWAP5 ADD SLOAD PUSH1 0x8 SHR AND ISZERO PUSH2 0x24CF JUMPI PUSH1 0x4 DUP2 LT ISZERO PUSH2 0x10D6 JUMPI CALLER PUSH1 0x0 MSTORE PUSH1 0xA PUSH1 0x20 MSTORE PUSH2 0x22A9 DUP2 PUSH1 0x40 PUSH1 0x0 KECCAK256 PUSH2 0x2670 JUMP JUMPDEST SLOAD ISZERO PUSH2 0x24B1 JUMPI CALLER PUSH1 0x0 MSTORE PUSH1 0xA PUSH1 0x20 MSTORE PUSH2 0x22C6 DUP2 PUSH1 0x40 PUSH1 0x0 KECCAK256 PUSH2 0x2670 JUMP JUMPDEST SWAP2 DUP3 SLOAD PUSH1 0x0 NOT DUP2 ADD SWAP1 DUP2 GT PUSH2 0xEC8 JUMPI PUSH1 0x0 SWAP4 SSTORE DUP4 SLOAD SWAP1 PUSH1 0x1D SLOAD PUSH2 0x22E8 DUP2 PUSH2 0x2704 JUMP JUMPDEST PUSH1 0x1D SSTORE PUSH1 0x40 MLOAD SWAP2 PUSH1 0x20 DUP4 ADD SWAP4 PUSH1 0x1 PUSH1 0x1 PUSH1 0x60 SHL SUB NOT CALLER PUSH1 0x60 SHL AND DUP6 MSTORE PUSH1 0x34 DUP5 ADD MSTORE PUSH1 0xFF PUSH1 0xF8 SHL SWAP1 PUSH1 0xF8 SHL AND PUSH1 0x54 DUP4 ADD MSTORE TIMESTAMP PUSH1 0x55 DUP4 ADD MSTORE PUSH1 0x75 DUP3 ADD MSTORE PUSH1 0x75 DUP2 MSTORE PUSH2 0x2332 PUSH1 0x95 DUP3 PUSH2 0x2617 JUMP JUMPDEST MLOAD SWAP1 KECCAK256 SWAP3 PUSH1 0x20 PUSH1 0x1 DUP1 PUSH1 0xA0 SHL SUB PUSH1 0x2 SLOAD AND PUSH1 0x24 PUSH1 0x40 MLOAD DUP1 SWAP7 DUP2 SWAP4 PUSH4 0x71C8A239 PUSH1 0xE1 SHL DUP4 MSTORE DUP10 PUSH1 0x4 DUP5 ADD MSTORE GAS CALL SWAP3 DUP4 ISZERO PUSH2 0xDCF JUMPI PUSH1 0x0 SWAP4 PUSH2 0x247D JUMPI JUMPDEST POP DUP1 SLOAD SWAP4 PUSH1 0x40 MLOAD PUSH2 0x237D DUP2 PUSH2 0x25DF JUMP JUMPDEST CALLER DUP2 MSTORE PUSH1 0x20 DUP2 ADD SWAP6 DUP7 MSTORE PUSH1 0x40 DUP2 ADD SWAP1 PUSH2 0x2396 DUP6 DUP4 PUSH2 0x26F8 JUMP JUMPDEST TIMESTAMP PUSH1 0x60 DUP3 ADD SWAP1 DUP2 MSTORE PUSH1 0x0 PUSH1 0x80 DUP4 ADD DUP2 DUP2 MSTORE DUP9 DUP3 MSTORE PUSH1 0x1B PUSH1 0x20 MSTORE PUSH1 0x40 SWAP1 SWAP2 KECCAK256 SWAP3 MLOAD DUP4 SLOAD PUSH1 0x1 PUSH1 0x1 PUSH1 0xA0 SHL SUB NOT AND PUSH1 0x1 PUSH1 0x1 PUSH1 0xA0 SHL SUB SWAP2 SWAP1 SWAP2 AND OR DUP4 SSTORE SWAP8 MLOAD PUSH1 0x1 DUP4 ADD SSTORE SWAP2 MLOAD SWAP2 SWAP7 PUSH1 0x2 DUP3 ADD SWAP3 SWAP1 PUSH1 0x4 DUP3 LT ISZERO PUSH2 0x10D6 JUMPI PUSH1 0x20 SWAP9 PUSH2 0x241D SWAP5 PUSH1 0x4 SWAP4 PUSH1 0xFF DUP1 NOT DUP4 SLOAD AND SWAP2 AND OR SWAP1 SSTORE MLOAD PUSH1 0x3 DUP5 ADD SSTORE MLOAD ISZERO ISZERO SWAP2 ADD SWAP1 PUSH1 0xFF DUP1 NOT DUP4 SLOAD AND SWAP2 ISZERO ISZERO AND OR SWAP1 SSTORE JUMP JUMPDEST DUP4 PUSH1 0x0 MSTORE PUSH1 0x1C DUP6 MSTORE PUSH1 0x40 PUSH1 0x0 KECCAK256 SSTORE SLOAD SWAP1 PUSH1 0x40 MLOAD SWAP2 DUP3 MSTORE DUP4 DUP3 ADD MSTORE DUP2 PUSH1 0x40 DUP3 ADD MSTORE PUSH32 0x5E0C015D137A94A9E864E17092FB126241C929614B46C3BC32163B46DE9BF05B PUSH1 0x60 CALLER SWAP3 LOG2 PUSH1 0x1 PUSH1 0x0 DUP1 MLOAD PUSH1 0x20 PUSH2 0x307F DUP4 CODECOPY DUP2 MLOAD SWAP2 MSTORE SSTORE PUSH1 0x40 MLOAD SWAP1 DUP2 MSTORE RETURN JUMPDEST SWAP1 SWAP3 PUSH1 0x20 DUP3 RETURNDATASIZE PUSH1 0x20 GT PUSH2 0x24A9 JUMPI JUMPDEST DUP2 PUSH2 0x2498 PUSH1 0x20 SWAP4 DUP4 PUSH2 0x2617 JUMP JUMPDEST DUP2 ADD SUB SLT PUSH2 0xEB9 JUMPI POP MLOAD SWAP2 DUP5 PUSH2 0x236D JUMP JUMPDEST RETURNDATASIZE SWAP2 POP PUSH2 0x248B JUMP JUMPDEST PUSH4 0x9F27773F PUSH1 0xE0 SHL PUSH1 0x0 MSTORE PUSH1 0x4 MSTORE PUSH1 0x1 PUSH1 0x24 MSTORE PUSH1 0x0 PUSH1 0x44 MSTORE PUSH1 0x64 PUSH1 0x0 REVERT JUMPDEST DUP3 SLOAD PUSH4 0x32C3E471 PUSH1 0xE2 SHL PUSH1 0x0 MSTORE PUSH1 0x4 MSTORE PUSH1 0x24 PUSH1 0x0 REVERT JUMPDEST DUP3 PUSH4 0xFAB9B837 PUSH1 0xE0 SHL PUSH1 0x0 MSTORE PUSH1 0x4 MSTORE PUSH1 0x24 PUSH1 0x0 REVERT JUMPDEST CALLVALUE PUSH2 0x365 JUMPI PUSH1 0x40 CALLDATASIZE PUSH1 0x3 NOT ADD SLT PUSH2 0x365 JUMPI PUSH2 0x2513 PUSH2 0x2586 JUMP JUMPDEST PUSH1 0xFF PUSH2 0x251D PUSH2 0x25B2 JUMP JUMPDEST AND SWAP1 PUSH1 0x3 DUP3 GT PUSH2 0x2553 JUMPI PUSH1 0x1 PUSH1 0x1 PUSH1 0xA0 SHL SUB AND PUSH1 0x0 SWAP1 DUP2 MSTORE PUSH1 0xA PUSH1 0x20 MSTORE PUSH1 0x40 SWAP1 KECCAK256 PUSH1 0x4 DUP3 LT ISZERO PUSH2 0x10D6 JUMPI PUSH1 0x20 SWAP2 PUSH2 0x9D6 SWAP2 PUSH2 0x2670 JUMP JUMPDEST POP PUSH4 0xFAB9B837 PUSH1 0xE0 SHL PUSH1 0x0 MSTORE PUSH1 0x4 MSTORE PUSH1 0x24 PUSH1 0x0 REVERT JUMPDEST CALLVALUE PUSH2 0x365 JUMPI PUSH1 0x20 CALLDATASIZE PUSH1 0x3 NOT ADD SLT PUSH2 0x365 JUMPI PUSH1 0x20 PUSH2 0x6EC PUSH1 0x4 CALLDATALOAD PUSH2 0x26A4 JUMP JUMPDEST PUSH1 0x4 CALLDATALOAD SWAP1 PUSH1 0x1 PUSH1 0x1 PUSH1 0xA0 SHL SUB DUP3 AND DUP3 SUB PUSH2 0x365 JUMPI JUMP JUMPDEST PUSH1 0x24 CALLDATALOAD SWAP1 PUSH1 0x1 PUSH1 0x1 PUSH1 0xA0 SHL SUB DUP3 AND DUP3 SUB PUSH2 0x365 JUMPI JUMP JUMPDEST PUSH1 0x24 CALLDATALOAD SWAP1 PUSH1 0xFF DUP3 AND DUP3 SUB PUSH2 0x365 JUMPI JUMP JUMPDEST PUSH1 0x4 CALLDATALOAD SWAP1 PUSH1 0xFF DUP3 AND DUP3 SUB PUSH2 0x365 JUMPI JUMP JUMPDEST SWAP1 PUSH1 0x4 DUP3 LT ISZERO PUSH2 0x10D6 JUMPI MSTORE JUMP JUMPDEST PUSH1 0xA0 DUP2 ADD SWAP1 DUP2 LT PUSH8 0xFFFFFFFFFFFFFFFF DUP3 GT OR PUSH2 0x465 JUMPI PUSH1 0x40 MSTORE JUMP JUMPDEST PUSH1 0xC0 DUP2 ADD SWAP1 DUP2 LT PUSH8 0xFFFFFFFFFFFFFFFF DUP3 GT OR PUSH2 0x465 JUMPI PUSH1 0x40 MSTORE JUMP JUMPDEST SWAP1 PUSH1 0x1F DUP1 NOT SWAP2 ADD AND DUP2 ADD SWAP1 DUP2 LT PUSH8 0xFFFFFFFFFFFFFFFF DUP3 GT OR PUSH2 0x465 JUMPI PUSH1 0x40 MSTORE JUMP JUMPDEST PUSH8 0xFFFFFFFFFFFFFFFF DUP2 GT PUSH2 0x465 JUMPI PUSH1 0x1F ADD PUSH1 0x1F NOT AND PUSH1 0x20 ADD SWAP1 JUMP JUMPDEST PUSH1 0x1E SLOAD DUP2 LT ISZERO PUSH2 0x33B JUMPI PUSH1 0x1E PUSH1 0x0 MSTORE PUSH1 0x20 PUSH1 0x0 KECCAK256 ADD SWAP1 PUSH1 0x0 SWAP1 JUMP JUMPDEST SWAP1 PUSH1 0x4 DUP2 LT ISZERO PUSH2 0x10D6 JUMPI PUSH1 0x0 MSTORE PUSH1 0x20 MSTORE PUSH1 0x40 PUSH1 0x0 KECCAK256 SWAP1 JUMP JUMPDEST CALLVALUE PUSH2 0x365 JUMPI PUSH1 0x0 CALLDATASIZE PUSH1 0x3 NOT ADD SLT PUSH2 0x365 JUMPI PUSH1 0x20 PUSH1 0x40 MLOAD PUSH1 0x3 DUP2 MSTORE RETURN JUMPDEST PUSH9 0x56BC75E2D63100000 DUP2 MUL SWAP1 DUP1 DUP3 DIV PUSH9 0x56BC75E2D63100000 EQ SWAP1 ISZERO OR ISZERO PUSH2 0xEC8 JUMPI PUSH1 0x20 SLOAD SWAP1 DUP2 ISZERO PUSH2 0x26D5 JUMPI DIV SWAP1 JUMP JUMPDEST PUSH4 0x4E487B71 PUSH1 0xE0 SHL PUSH1 0x0 MSTORE PUSH1 0x12 PUSH1 0x4 MSTORE PUSH1 0x24 PUSH1 0x0 REVERT JUMPDEST SWAP2 SWAP1 DUP3 SUB SWAP2 DUP3 GT PUSH2 0xEC8 JUMPI JUMP JUMPDEST PUSH1 0x4 DUP3 LT ISZERO PUSH2 0x10D6 JUMPI MSTORE JUMP JUMPDEST PUSH1 0x0 NOT DUP2 EQ PUSH2 0xEC8 JUMPI PUSH1 0x1 ADD SWAP1 JUMP JUMPDEST SWAP2 SWAP1 DUP3 ADD DUP1 SWAP3 GT PUSH2 0xEC8 JUMPI JUMP JUMPDEST PUSH1 0x0 SWAP1 DUP1 DUP3 MSTORE PUSH1 0x1B PUSH1 0x20 MSTORE PUSH1 0x40 DUP3 KECCAK256 SWAP3 PUSH1 0x1 DUP1 PUSH1 0xA0 SHL SUB DUP5 SLOAD AND SWAP2 DUP3 ISZERO PUSH2 0x2C29 JUMPI PUSH1 0x4 DUP6 ADD SWAP1 DUP2 SLOAD SWAP1 PUSH1 0xFF DUP3 AND PUSH2 0x2C17 JUMPI POP PUSH1 0x1 SWAP1 PUSH1 0xFF NOT AND OR SWAP1 SSTORE PUSH2 0x2769 PUSH1 0x1 DUP6 ADD SLOAD PUSH2 0x2E94 JUMP JUMPDEST SWAP5 SWAP1 ISZERO DUP1 ISZERO PUSH2 0x2BF9 JUMPI JUMPDEST PUSH2 0x2B63 JUMPI PUSH1 0x3 DUP6 LT ISZERO PUSH2 0x2BE5 JUMPI PUSH1 0x5 DUP6 MUL SWAP3 DUP4 PUSH1 0xB ADD SWAP3 PUSH1 0xFF PUSH2 0x279B DUP2 PUSH1 0x2 DUP7 ADD SLOAD AND PUSH2 0x2D22 JUMP JUMPDEST AND PUSH1 0x64 DUP3 MOD LT ISZERO PUSH2 0x2AE8 JUMPI POP POP PUSH1 0xE SWAP1 PUSH1 0x1 DUP1 PUSH1 0xA0 SHL SUB SWAP1 SLOAD AND SWAP2 SLOAD SWAP3 ADD PUSH2 0xFF00 NOT DUP2 SLOAD AND SWAP1 SSTORE DUP3 PUSH1 0x1E SLOAD DUP1 ISZERO SWAP1 DUP2 ISZERO PUSH2 0x29DC JUMPI JUMPDEST POP POP PUSH1 0x40 PUSH32 0xE1EF7825C332C25296359D37AF815442CBD1FD6D620D8271B4180BD68F834BB0 SWAP2 DUP2 MLOAD SWAP1 DUP6 DUP3 MSTORE PUSH1 0x20 DUP3 ADD MSTORE LOG2 PUSH2 0x3E8 DUP2 ADD DUP1 SWAP2 GT PUSH2 0x29C8 JUMPI DUP2 SWAP1 PUSH1 0x1D SLOAD PUSH2 0x281C DUP2 PUSH2 0x2704 JUMP JUMPDEST PUSH1 0x1D SSTORE PUSH1 0x40 MLOAD PUSH1 0x20 DUP2 ADD SWAP2 PUSH1 0x1 PUSH1 0x1 PUSH1 0x60 SHL SUB NOT ADDRESS PUSH1 0x60 SHL AND DUP4 MSTORE DUP4 PUSH1 0x34 DUP4 ADD MSTORE PUSH1 0x7F PUSH1 0xF9 SHL PUSH1 0x54 DUP4 ADD MSTORE TIMESTAMP PUSH1 0x55 DUP4 ADD MSTORE PUSH1 0x75 DUP3 ADD MSTORE PUSH1 0x75 DUP2 MSTORE PUSH2 0x2861 PUSH1 0x95 DUP3 PUSH2 0x2617 JUMP JUMPDEST MLOAD SWAP1 KECCAK256 SWAP4 PUSH1 0x20 PUSH1 0x1 DUP1 PUSH1 0xA0 SHL SUB PUSH1 0x2 SLOAD AND PUSH1 0x24 PUSH1 0x40 MLOAD DUP1 SWAP7 DUP2 SWAP4 PUSH4 0x71C8A239 PUSH1 0xE1 SHL DUP4 MSTORE DUP11 PUSH1 0x4 DUP5 ADD MSTORE GAS CALL SWAP3 DUP4 ISZERO PUSH2 0x29BD JUMPI DUP5 SWAP4 PUSH2 0x2988 JUMPI JUMPDEST POP PUSH1 0xFF AND SWAP1 PUSH1 0x4 DUP3 LT ISZERO PUSH2 0x2974 JUMPI PUSH1 0x40 MLOAD SWAP2 PUSH2 0x28B6 DUP4 PUSH2 0x25DF JUMP JUMPDEST ADDRESS DUP4 MSTORE PUSH1 0x20 DUP4 ADD SWAP2 DUP3 MSTORE PUSH2 0x28CE PUSH1 0x40 DUP5 ADD SWAP2 DUP3 PUSH2 0x26F8 JUMP JUMPDEST TIMESTAMP PUSH1 0x60 DUP5 ADD SWAP1 DUP2 MSTORE PUSH1 0x80 DUP5 ADD DUP7 DUP2 MSTORE DUP6 DUP8 MSTORE PUSH1 0x1B PUSH1 0x20 MSTORE PUSH1 0x40 DUP8 KECCAK256 SWAP5 MLOAD DUP6 SLOAD PUSH1 0x1 PUSH1 0x1 PUSH1 0xA0 SHL SUB NOT AND PUSH1 0x1 PUSH1 0x1 PUSH1 0xA0 SHL SUB SWAP2 SWAP1 SWAP2 AND OR DUP6 SSTORE SWAP3 MLOAD PUSH1 0x1 DUP6 ADD SSTORE SWAP1 MLOAD PUSH1 0x2 DUP5 ADD SWAP1 PUSH1 0x4 DUP2 LT ISZERO PUSH2 0x2960 JUMPI SWAP3 DUP7 SWAP6 SWAP5 SWAP3 PUSH1 0x4 SWAP3 PUSH2 0x2955 SWAP6 PUSH1 0x40 SWAP10 POP PUSH1 0xFF DUP1 NOT DUP4 SLOAD AND SWAP2 AND OR SWAP1 SSTORE MLOAD PUSH1 0x3 DUP5 ADD SSTORE MLOAD ISZERO ISZERO SWAP2 ADD SWAP1 PUSH1 0xFF DUP1 NOT DUP4 SLOAD AND SWAP2 ISZERO ISZERO AND OR SWAP1 SSTORE JUMP JUMPDEST DUP2 MSTORE PUSH1 0x1C PUSH1 0x20 MSTORE KECCAK256 SSTORE JUMP JUMPDEST PUSH4 0x4E487B71 PUSH1 0xE0 SHL DUP8 MSTORE PUSH1 0x21 PUSH1 0x4 MSTORE PUSH1 0x24 DUP8 REVERT JUMPDEST PUSH4 0x4E487B71 PUSH1 0xE0 SHL DUP5 MSTORE PUSH1 0x21 PUSH1 0x4 MSTORE PUSH1 0x24 DUP5 REVERT JUMPDEST SWAP1 SWAP3 POP PUSH1 0x20 DUP2 RETURNDATASIZE PUSH1 0x20 GT PUSH2 0x29B5 JUMPI JUMPDEST DUP2 PUSH2 0x29A4 PUSH1 0x20 SWAP4 DUP4 PUSH2 0x2617 JUMP JUMPDEST DUP2 ADD SUB SLT PUSH2 0x365 JUMPI MLOAD SWAP2 PUSH1 0xFF PUSH2 0x289B JUMP JUMPDEST RETURNDATASIZE SWAP2 POP PUSH2 0x2997 JUMP JUMPDEST PUSH1 0x40 MLOAD RETURNDATASIZE DUP7 DUP3 RETURNDATACOPY RETURNDATASIZE SWAP1 REVERT JUMPDEST PUSH4 0x4E487B71 PUSH1 0xE0 SHL DUP3 MSTORE PUSH1 0x11 PUSH1 0x4 MSTORE PUSH1 0x24 DUP3 REVERT JUMPDEST SWAP1 SWAP2 POP PUSH1 0x0 NOT DUP2 ADD SWAP1 DUP2 GT PUSH2 0x2AD4 JUMPI PUSH2 0x29F4 DUP2 PUSH2 0x2655 JUMP JUMPDEST SWAP1 SLOAD SWAP1 PUSH1 0x3 SHL SHR SWAP2 PUSH2 0x2AC0 JUMPI PUSH2 0x2A09 DUP2 PUSH2 0x2655 JUMP JUMPDEST DUP2 SLOAD PUSH1 0x0 NOT PUSH1 0x3 SWAP3 SWAP1 SWAP3 SHL SWAP2 SWAP1 SWAP2 SHL NOT AND SWAP1 SSTORE PUSH1 0x1E SSTORE PUSH1 0x4 SLOAD PUSH1 0x1 PUSH1 0x1 PUSH1 0xA0 SHL SUB AND DUP1 EXTCODESIZE ISZERO PUSH2 0x2ABC JUMPI PUSH1 0x40 MLOAD PUSH4 0x21421707 PUSH1 0xE1 SHL DUP2 MSTORE ADDRESS PUSH1 0x4 DUP3 ADD MSTORE PUSH1 0x1 PUSH1 0x1 PUSH1 0xA0 SHL SUB DUP5 AND PUSH1 0x24 DUP3 ADD MSTORE PUSH1 0x44 DUP2 ADD DUP4 SWAP1 MSTORE SWAP1 DUP6 SWAP1 DUP3 SWAP1 PUSH1 0x64 SWAP1 DUP3 SWAP1 DUP5 SWAP1 GAS CALL DUP1 ISZERO PUSH2 0x2AB1 JUMPI PUSH2 0x2A7A JUMPI JUMPDEST DUP1 PUSH2 0x27D0 JUMP JUMPDEST DUP5 PUSH2 0x2AA9 PUSH32 0xE1EF7825C332C25296359D37AF815442CBD1FD6D620D8271B4180BD68F834BB0 SWAP4 SWAP7 PUSH1 0x40 SWAP4 PUSH2 0x2617 JUMP JUMPDEST SWAP5 SWAP2 POP PUSH2 0x2A74 JUMP JUMPDEST PUSH1 0x40 MLOAD RETURNDATASIZE DUP8 DUP3 RETURNDATACOPY RETURNDATASIZE SWAP1 REVERT JUMPDEST DUP5 DUP1 REVERT JUMPDEST PUSH4 0x4E487B71 PUSH1 0xE0 SHL DUP6 MSTORE PUSH1 0x31 PUSH1 0x4 MSTORE PUSH1 0x24 DUP6 REVERT JUMPDEST PUSH4 0x4E487B71 PUSH1 0xE0 SHL DUP6 MSTORE PUSH1 0x11 PUSH1 0x4 MSTORE PUSH1 0x24 DUP6 REVERT JUMPDEST SWAP3 SWAP2 POP SWAP5 POP PUSH1 0xE DUP4 SWAP5 SWAP4 ADD SWAP5 PUSH1 0xFF DUP7 SLOAD AND PUSH1 0xFF DUP2 EQ PUSH2 0x2AD4 JUMPI PUSH1 0x1 PUSH1 0xFF SWAP2 ADD AND PUSH1 0xFF NOT DUP8 SLOAD AND OR DUP7 SSTORE PUSH1 0xFF DUP7 SLOAD AND SWAP1 DUP2 PUSH1 0x3 SUB PUSH1 0xFF DUP2 GT PUSH2 0x2BD1 JUMPI SWAP1 PUSH32 0xDE2C7625951EF209E3B14DC5DE7C713AAF12A680817DF0BA922F064834ED47E4 PUSH1 0x40 PUSH1 0x3 SWAP5 SWAP4 PUSH1 0xFF DUP8 SLOAD SWAP2 DUP4 MLOAD SWAP3 DUP4 MSTORE AND PUSH1 0x20 DUP3 ADD MSTORE LOG2 LT ISZERO PUSH2 0x2B6A JUMPI JUMPDEST POP POP POP POP POP JUMP JUMPDEST PUSH32 0x991F141B1F67192A98969CD4005F41D17EF23A517C6975606AF1C6F48A0AE37D SWAP5 PUSH1 0x60 SWAP5 PUSH2 0x3E8 PUSH1 0xD SWAP5 DUP2 DUP2 PUSH1 0x8 SHR MOD SWAP7 POP PUSH1 0x10 SHR MOD SWAP4 DUP2 DUP7 PUSH1 0xC DUP8 SWAP5 ADD SSTORE ADD SSTORE PUSH1 0xFF NOT DUP2 SLOAD AND SWAP1 SSTORE SLOAD SWAP2 PUSH1 0x40 MLOAD SWAP3 DUP4 MSTORE PUSH1 0x20 DUP4 ADD MSTORE PUSH1 0x40 DUP3 ADD MSTORE LOG1 CODESIZE DUP1 DUP1 DUP1 DUP1 PUSH2 0x2B63 JUMP JUMPDEST PUSH4 0x4E487B71 PUSH1 0xE0 SHL DUP7 MSTORE PUSH1 0x11 PUSH1 0x4 MSTORE PUSH1 0x24 DUP7 REVERT JUMPDEST PUSH4 0x4E487B71 PUSH1 0xE0 SHL DUP5 MSTORE PUSH1 0x32 PUSH1 0x4 MSTORE PUSH1 0x24 DUP5 REVERT JUMPDEST POP PUSH1 0x3 DUP6 LT ISZERO PUSH2 0x2BE5 JUMPI PUSH1 0xFF PUSH1 0xE PUSH1 0x5 DUP8 MUL ADD SLOAD PUSH1 0x8 SHR AND ISZERO PUSH2 0x2773 JUMP JUMPDEST PUSH4 0x3F8CBCED PUSH1 0xE2 SHL DUP7 MSTORE PUSH1 0x4 MSTORE PUSH1 0x24 DUP6 REVERT JUMPDEST PUSH4 0x98354E9 PUSH1 0xE4 SHL DUP5 MSTORE PUSH1 0x4 MSTORE PUSH1 0x24 DUP4 REVERT JUMPDEST PUSH1 0x40 MLOAD SWAP1 PUSH2 0x2C48 DUP3 PUSH2 0x25FB JUMP JUMPDEST PUSH1 0x0 PUSH1 0xA0 DUP4 DUP3 DUP2 MSTORE DUP3 PUSH1 0x20 DUP3 ADD MSTORE DUP3 PUSH1 0x40 DUP3 ADD MSTORE DUP3 PUSH1 0x60 DUP3 ADD MSTORE DUP3 PUSH1 0x80 DUP3 ADD MSTORE ADD MSTORE JUMP JUMPDEST SWAP1 PUSH1 0x40 MLOAD PUSH2 0x2C79 DUP2 PUSH2 0x25FB JUMP JUMPDEST PUSH1 0xA0 PUSH1 0x4 DUP3 SWAP5 DUP1 SLOAD DUP5 MSTORE PUSH1 0x1 DUP2 ADD SLOAD PUSH1 0x20 DUP6 ADD MSTORE PUSH1 0x2 DUP2 ADD SLOAD PUSH1 0x40 DUP6 ADD MSTORE PUSH1 0xFF PUSH1 0x3 DUP3 ADD SLOAD DUP2 DUP2 AND PUSH1 0x60 DUP8 ADD MSTORE PUSH1 0x8 SHR AND ISZERO ISZERO PUSH1 0x80 DUP6 ADD MSTORE ADD SLOAD SWAP2 ADD MSTORE JUMP JUMPDEST PUSH1 0x4 DUP2 LT ISZERO PUSH2 0x10D6 JUMPI DUP1 ISZERO PUSH2 0x2D1A JUMPI PUSH1 0x0 PUSH1 0x1 DUP3 EQ PUSH2 0x2D11 JUMPI POP PUSH1 0x2 DUP2 EQ PUSH2 0x2D08 JUMPI PUSH1 0x0 PUSH1 0x3 DUP3 EQ PUSH2 0x2CFE JUMPI PUSH1 0xFF SWAP3 POP POP PUSH4 0xFAB9B837 PUSH1 0xE0 SHL PUSH1 0x0 MSTORE AND PUSH1 0x4 MSTORE PUSH1 0x24 PUSH1 0x0 REVERT JUMPDEST POP POP PUSH4 0x2F969E0 SWAP1 JUMP JUMPDEST POP PUSH4 0x17D7840 SWAP1 JUMP JUMPDEST POP POP PUSH3 0x989680 SWAP1 JUMP JUMPDEST POP PUSH3 0xF4240 SWAP1 JUMP JUMPDEST PUSH1 0x4 DUP2 LT ISZERO PUSH2 0x10D6 JUMPI DUP1 ISZERO PUSH2 0x2D7C JUMPI PUSH1 0x0 PUSH1 0x1 DUP3 EQ PUSH2 0x2D75 JUMPI POP PUSH1 0x2 DUP2 EQ PUSH2 0x2D6F JUMPI PUSH1 0x0 PUSH1 0x3 DUP3 EQ PUSH2 0x2D68 JUMPI PUSH1 0xFF SWAP3 POP POP PUSH4 0xFAB9B837 PUSH1 0xE0 SHL PUSH1 0x0 MSTORE AND PUSH1 0x4 MSTORE PUSH1 0x24 PUSH1 0x0 REVERT JUMPDEST POP POP PUSH1 0x63 SWAP1 JUMP JUMPDEST POP PUSH1 0x32 SWAP1 JUMP JUMPDEST POP POP PUSH1 0x14 SWAP1 JUMP JUMPDEST POP PUSH1 0x2 SWAP1 JUMP JUMPDEST PUSH1 0x1 PUSH1 0x1 PUSH1 0xA0 SHL SUB AND DUP1 ISZERO PUSH2 0x2DE2 JUMPI PUSH1 0x0 DUP1 MLOAD PUSH1 0x20 PUSH2 0x301F DUP4 CODECOPY DUP2 MLOAD SWAP2 MSTORE DUP1 SLOAD PUSH1 0x1 PUSH1 0x1 PUSH1 0xA0 SHL SUB NOT DUP2 AND DUP4 OR SWAP1 SWAP2 SSTORE PUSH1 0x1 PUSH1 0x1 PUSH1 0xA0 SHL SUB AND PUSH32 0x8BE0079C531659141344CD1FD0A4F28419497F9722A3DAAFE3B4186F6B6457E0 PUSH1 0x0 DUP1 LOG3 JUMP JUMPDEST PUSH4 0x1E4FBDF7 PUSH1 0xE0 SHL PUSH1 0x0 MSTORE PUSH1 0x0 PUSH1 0x4 MSTORE PUSH1 0x24 PUSH1 0x0 REVERT JUMPDEST PUSH1 0x2 PUSH1 0x0 DUP1 MLOAD PUSH1 0x20 PUSH2 0x307F DUP4 CODECOPY DUP2 MLOAD SWAP2 MSTORE SLOAD EQ PUSH2 0x2E23 JUMPI PUSH1 0x2 PUSH1 0x0 DUP1 MLOAD PUSH1 0x20 PUSH2 0x307F DUP4 CODECOPY DUP2 MLOAD SWAP2 MSTORE SSTORE JUMP JUMPDEST PUSH4 0x3EE5AEB5 PUSH1 0xE0 SHL PUSH1 0x0 MSTORE PUSH1 0x4 PUSH1 0x0 REVERT JUMPDEST PUSH1 0xFF PUSH1 0x0 DUP1 MLOAD PUSH1 0x20 PUSH2 0x305F DUP4 CODECOPY DUP2 MLOAD SWAP2 MSTORE SLOAD AND PUSH2 0x2E4D JUMPI JUMP JUMPDEST PUSH4 0xD93C0665 PUSH1 0xE0 SHL PUSH1 0x0 MSTORE PUSH1 0x4 PUSH1 0x0 REVERT JUMPDEST PUSH1 0x0 DUP1 MLOAD PUSH1 0x20 PUSH2 0x301F DUP4 CODECOPY DUP2 MLOAD SWAP2 MSTORE SLOAD PUSH1 0x1 PUSH1 0x1 PUSH1 0xA0 SHL SUB AND CALLER SUB PUSH2 0x2E7F JUMPI JUMP JUMPDEST PUSH4 0x118CDAA7 PUSH1 0xE0 SHL PUSH1 0x0 MSTORE CALLER PUSH1 0x4 MSTORE PUSH1 0x24 PUSH1 0x0 REVERT JUMPDEST SWAP1 PUSH1 0x0 JUMPDEST PUSH1 0x3 PUSH1 0xFF DUP3 AND LT PUSH2 0x2EAC JUMPI POP PUSH1 0x0 SWAP2 POP DUP2 SWAP1 JUMP JUMPDEST PUSH1 0x3 DUP2 LT ISZERO PUSH2 0x33B JUMPI PUSH1 0x5 DUP2 MUL DUP4 DUP2 PUSH1 0xB ADD SLOAD EQ SWAP1 DUP2 PUSH2 0x2EDE JUMPI JUMPDEST POP PUSH2 0x2ED7 JUMPI PUSH1 0x1 ADD PUSH1 0xFF AND PUSH2 0x2E98 JUMP JUMPDEST PUSH1 0x1 SWAP3 POP SWAP1 JUMP JUMPDEST PUSH1 0xFF SWAP2 POP PUSH1 0xE ADD SLOAD PUSH1 0x8 SHR AND CODESIZE PUSH2 0x2EC7 JUMP JUMPDEST PUSH1 0xFF PUSH1 0x0 DUP1 MLOAD PUSH1 0x20 PUSH2 0x309F DUP4 CODECOPY DUP2 MLOAD SWAP2 MSTORE SLOAD PUSH1 0x40 SHR AND ISZERO PUSH2 0x2F0D JUMPI JUMP JUMPDEST PUSH4 0x1AFCD79F PUSH1 0xE3 SHL PUSH1 0x0 MSTORE PUSH1 0x4 PUSH1 0x0 REVERT JUMPDEST SWAP1 PUSH1 0x0 PUSH1 0x20 SWAP2 DUP3 DUP2 MLOAD SWAP2 ADD DUP3 DUP6 GAS CALL ISZERO PUSH2 0xDCF JUMPI PUSH1 0x0 MLOAD RETURNDATASIZE PUSH2 0x2F70 JUMPI POP PUSH1 0x1 PUSH1 0x1 PUSH1 0xA0 SHL SUB DUP2 AND EXTCODESIZE ISZERO JUMPDEST PUSH2 0x2F4F JUMPI POP JUMP JUMPDEST PUSH4 0x5274AFE7 PUSH1 0xE0 SHL PUSH1 0x0 SWAP1 DUP2 MSTORE PUSH1 0x1 PUSH1 0x1 PUSH1 0xA0 SHL SUB SWAP2 SWAP1 SWAP2 AND PUSH1 0x4 MSTORE PUSH1 0x24 SWAP1 REVERT JUMPDEST PUSH1 0x1 EQ ISZERO PUSH2 0x2F48 JUMP JUMPDEST PUSH1 0x40 MLOAD PUSH4 0x23B872DD PUSH1 0xE0 SHL PUSH1 0x20 DUP3 ADD MSTORE PUSH1 0x1 PUSH1 0x1 PUSH1 0xA0 SHL SUB SWAP3 DUP4 AND PUSH1 0x24 DUP3 ADD MSTORE SWAP3 SWAP1 SWAP2 AND PUSH1 0x44 DUP4 ADD MSTORE PUSH1 0x64 DUP3 ADD SWAP3 SWAP1 SWAP3 MSTORE PUSH2 0x2FBB SWAP2 PUSH2 0xE14 DUP3 PUSH1 0x84 DUP2 ADD PUSH2 0x1B3C JUMP JUMPDEST JUMP JUMPDEST SWAP1 PUSH2 0x2FE3 JUMPI POP DUP1 MLOAD ISZERO PUSH2 0x2FD2 JUMPI PUSH1 0x20 DUP2 MLOAD SWAP2 ADD REVERT JUMPDEST PUSH4 0xD6BDA275 PUSH1 0xE0 SHL PUSH1 0x0 MSTORE PUSH1 0x4 PUSH1 0x0 REVERT JUMPDEST DUP2 MLOAD ISZERO DUP1 PUSH2 0x3015 JUMPI JUMPDEST PUSH2 0x2FF4 JUMPI POP SWAP1 JUMP JUMPDEST PUSH4 0x9996B315 PUSH1 0xE0 SHL PUSH1 0x0 SWAP1 DUP2 MSTORE PUSH1 0x1 PUSH1 0x1 PUSH1 0xA0 SHL SUB SWAP2 SWAP1 SWAP2 AND PUSH1 0x4 MSTORE PUSH1 0x24 SWAP1 REVERT JUMPDEST POP DUP1 EXTCODESIZE ISZERO PUSH2 0x2FEC JUMP INVALID SWAP1 AND 0xD0 SWAP14 PUSH19 0xD40FDAE2FD8CEAC6B6234C7706214FD39C1CD1 0xE6 MULMOD LOG0 MSTORE DUP13 NOT SWAP4 STOP CALLDATASIZE ADDMOD SWAP5 LOG1 EXTCODESIZE LOG1 LOG3 0x21 MOD PUSH8 0xC828492DB98DCA3E KECCAK256 PUSH23 0xCC3735A920A3CA505D382BBCCD5ED15C6E187E77E9AEE8 DUP2 DUP5 0xC2 0x1F 0x4F 0x21 DUP3 0xAB PC 0x27 0xCB EXTCODESIZE PUSH31 0x7FBEDCD63F033009B779B17422D0DF92223018B32B4D1FA46E071723D6817 0xE2 BASEFEE PUSH14 0x3BECC55F00F0C57E16840DF040 CALL POP DUP9 0xDC 0x2F DUP2 INVALID CODECOPY SHR CODECOPY 0x23 0xBE 0xC7 RETURNDATACOPY 0x23 0xA9 PUSH7 0x2EFC9C229C6A00 LOG2 PUSH5 0x6970667358 0x22 SLT KECCAK256 DUP13 PUSH2 0xA6DE DUP3 0xAB SWAP3 SWAP12 PUSH24 0x842C3A40363901916DABDB072E210AE45133B400C02D9264 PUSH20 0x6F6C634300081A00330000000000000000000000 "},"methodIdentifiers":{"APE_DECIMALS()":"38efa831","BPS_DENOMINATOR()":"e1a45218","GREATBALL_CATCH_RATE()":"df33c1fd","GREATBALL_PRICE()":"a4cedc39","MASTERBALL_CATCH_RATE()":"b036d591","MASTERBALL_PRICE()":"2e9ed2e4","MAX_ACTIVE_POKEMON()":"fc774c5c","MAX_COORDINATE()":"d2574183","MAX_THROW_ATTEMPTS()":"eb76c37e","NFT_PURCHASE_THRESHOLD()":"230c77ff","PLATFORM_FEE_BPS()":"539aa77f","POKEBALL_CATCH_RATE()":"7881a070","POKEBALL_PRICE()":"fd626a18","REVENUE_POOL_BPS()":"3bd81715","ULTRABALL_CATCH_RATE()":"9f48ed23","ULTRABALL_PRICE()":"f8ce2c7d","UPGRADE_INTERFACE_VERSION()":"ad3cb1cc","USDC_DECIMALS()":"c1419def","activePokemons(uint256)":"2795a90e","ape()":"79babd2c","apePriceUSD()":"cc7a69de","calculateAPEAmount(uint256)":"064c973c","despawnPokemon(uint8)":"fe5c7ba8","forceSpawnPokemon(uint8,uint256,uint256)":"7a0b07cf","getAllActivePokemons()":"fcc536ba","getAllPlayerBalls(address)":"a2afc373","getBallPrice(uint8)":"bf370a61","getCatchRate(uint8)":"efdf9949","getNFTInventoryCount()":"4129849f","getPendingThrow(uint256)":"23b5cb5d","getPlayerBallBalance(address,uint8)":"0771197f","getPokemon(uint8)":"9b7d1a2a","getRevenuePoolStatus()":"c5b7dffd","initialize(address,address,address,address,address,address,address,address,uint256)":"344dd6e4","nextPokemonId()":"d9deb60b","nftInventory(uint256)":"82b65bef","nftRevenueWallet()":"64c618cc","onERC721Received(address,address,uint256,bytes)":"150b7a02","owner()":"8da5cb5b","pause()":"8456cb59","paused()":"5c975abb","pendingNFTRecipients(uint256)":"23eec571","pendingThrows(uint256)":"f4f00092","playerBalls(address,uint8)":"970cff93","proxiableUUID()":"52d1902d","purchaseBalls(uint8,uint256,bool)":"94ea04d1","randomNumberCallback(uint256,uint256)":"8f561acc","renounceOwnership()":"715018a6","requestIdToTraceId(uint256)":"7edc648c","setAPEPrice(uint256)":"607c45d1","setNFTRevenueWallet(address)":"4c4e2a46","setTreasuryWallet(address)":"a8602fea","slabMachine()":"5bf7117a","slabNFT()":"25c61fcd","spawnPokemon(uint8)":"7ed2f783","throwBall(uint8,uint8)":"11648422","totalNFTsPurchased()":"e155d79e","totalPlatformFees()":"d3631fa5","totalRevenuePool()":"9fb769dd","transferOwnership(address)":"f2fde38b","treasuryWallet()":"4626402b","unpause()":"3f4ba83a","upgradeToAndCall(address,bytes)":"4f1ef286","usdce()":"d33953ba","vrng()":"62138414","withdrawFees()":"476343ee"}},"storageLayout":{"storage":[{"astId":2662,"contract":"contracts/PokeballGame.sol:PokeballGame","label":"usdce","offset":0,"slot":"0","type":"t_contract(IERC20)1482"},{"astId":2665,"contract":"contracts/PokeballGame.sol:PokeballGame","label":"ape","offset":0,"slot":"1","type":"t_contract(IERC20)1482"},{"astId":2668,"contract":"contracts/PokeballGame.sol:PokeballGame","label":"vrng","offset":0,"slot":"2","type":"t_contract(IPOPVRNG)2501"},{"astId":2671,"contract":"contracts/PokeballGame.sol:PokeballGame","label":"slabMachine","offset":0,"slot":"3","type":"t_contract(ISlabMachine)2527"},{"astId":2674,"contract":"contracts/PokeballGame.sol:PokeballGame","label":"slabNFT","offset":0,"slot":"4","type":"t_contract(IERC721)2063"},{"astId":2676,"contract":"contracts/PokeballGame.sol:PokeballGame","label":"treasuryWallet","offset":0,"slot":"5","type":"t_address"},{"astId":2678,"contract":"contracts/PokeballGame.sol:PokeballGame","label":"nftRevenueWallet","offset":0,"slot":"6","type":"t_address"},{"astId":2680,"contract":"contracts/PokeballGame.sol:PokeballGame","label":"totalRevenuePool","offset":0,"slot":"7","type":"t_uint256"},{"astId":2682,"contract":"contracts/PokeballGame.sol:PokeballGame","label":"totalPlatformFees","offset":0,"slot":"8","type":"t_uint256"},{"astId":2684,"contract":"contracts/PokeballGame.sol:PokeballGame","label":"totalNFTsPurchased","offset":0,"slot":"9","type":"t_uint256"},{"astId":2691,"contract":"contracts/PokeballGame.sol:PokeballGame","label":"playerBalls","offset":0,"slot":"10","type":"t_mapping(t_address,t_mapping(t_enum(BallType)2554,t_uint256))"},{"astId":2696,"contract":"contracts/PokeballGame.sol:PokeballGame","label":"activePokemons","offset":0,"slot":"11","type":"t_array(t_struct(Pokemon)2568_storage)3_storage"},{"astId":2698,"contract":"contracts/PokeballGame.sol:PokeballGame","label":"nextPokemonId","offset":0,"slot":"26","type":"t_uint256"},{"astId":2703,"contract":"contracts/PokeballGame.sol:PokeballGame","label":"pendingThrows","offset":0,"slot":"27","type":"t_mapping(t_uint256,t_struct(PendingThrow)2581_storage)"},{"astId":2707,"contract":"contracts/PokeballGame.sol:PokeballGame","label":"requestIdToTraceId","offset":0,"slot":"28","type":"t_mapping(t_uint256,t_uint256)"},{"astId":2709,"contract":"contracts/PokeballGame.sol:PokeballGame","label":"_traceIdCounter","offset":0,"slot":"29","type":"t_uint256"},{"astId":2712,"contract":"contracts/PokeballGame.sol:PokeballGame","label":"nftInventory","offset":0,"slot":"30","type":"t_array(t_uint256)dyn_storage"},{"astId":2716,"contract":"contracts/PokeballGame.sol:PokeballGame","label":"pendingNFTRecipients","offset":0,"slot":"31","type":"t_mapping(t_uint256,t_address)"},{"astId":2718,"contract":"contracts/PokeballGame.sol:PokeballGame","label":"apePriceUSD","offset":0,"slot":"32","type":"t_uint256"},{"astId":4569,"contract":"contracts/PokeballGame.sol:PokeballGame","label":"__gap","offset":0,"slot":"33","type":"t_array(t_uint256)50_storage"}],"types":{"t_address":{"encoding":"inplace","label":"address","numberOfBytes":"20"},"t_array(t_struct(Pokemon)2568_storage)3_storage":{"base":"t_struct(Pokemon)2568_storage","encoding":"inplace","label":"struct PokeballGame.Pokemon[3]","numberOfBytes":"480"},"t_array(t_uint256)50_storage":{"base":"t_uint256","encoding":"inplace","label":"uint256[50]","numberOfBytes":"1600"},"t_array(t_uint256)dyn_storage":{"base":"t_uint256","encoding":"dynamic_array","label":"uint256[]","numberOfBytes":"32"},"t_bool":{"encoding":"inplace","label":"bool","numberOfBytes":"1"},"t_contract(IERC20)1482":{"encoding":"inplace","label":"contract IERC20","numberOfBytes":"20"},"t_contract(IERC721)2063":{"encoding":"inplace","label":"contract IERC721","numberOfBytes":"20"},"t_contract(IPOPVRNG)2501":{"encoding":"inplace","label":"contract IPOPVRNG","numberOfBytes":"20"},"t_contract(ISlabMachine)2527":{"encoding":"inplace","label":"contract ISlabMachine","numberOfBytes":"20"},"t_enum(BallType)2554":{"encoding":"inplace","label":"enum PokeballGame.BallType","numberOfBytes":"1"},"t_mapping(t_address,t_mapping(t_enum(BallType)2554,t_uint256))":{"encoding":"mapping","key":"t_address","label":"mapping(address => mapping(enum PokeballGame.BallType => uint256))","numberOfBytes":"32","value":"t_mapping(t_enum(BallType)2554,t_uint256)"},"t_mapping(t_enum(BallType)2554,t_uint256)":{"encoding":"mapping","key":"t_enum(BallType)2554","label":"mapping(enum PokeballGame.BallType => uint256)","numberOfBytes":"32","value":"t_uint256"},"t_mapping(t_uint256,t_address)":{"encoding":"mapping","key":"t_uint256","label":"mapping(uint256 => address)","numberOfBytes":"32","value":"t_address"},"t_mapping(t_uint256,t_struct(PendingThrow)2581_storage)":{"encoding":"mapping","key":"t_uint256","label":"mapping(uint256 => struct PokeballGame.PendingThrow)","numberOfBytes":"32","value":"t_struct(PendingThrow)2581_storage"},"t_mapping(t_uint256,t_uint256)":{"encoding":"mapping","key":"t_uint256","label":"mapping(uint256 => uint256)","numberOfBytes":"32","value":"t_uint256"},"t_struct(PendingThrow)2581_storage":{"encoding":"inplace","label":"struct PokeballGame.PendingThrow","members":[{"astId":2571,"contract":"contracts/PokeballGame.sol:PokeballGame","label":"thrower","offset":0,"slot":"0","type":"t_address"},{"astId":2573,"contract":"contracts/PokeballGame.sol:PokeballGame","label":"pokemonId","offset":0,"slot":"1","type":"t_uint256"},{"astId":2576,"contract":"contracts/PokeballGame.sol:PokeballGame","label":"ballType","offset":0,"slot":"2","type":"t_enum(BallType)2554"},{"astId":2578,"contract":"contracts/PokeballGame.sol:PokeballGame","label":"timestamp","offset":0,"slot":"3","type":"t_uint256"},{"astId":2580,"contract":"contracts/PokeballGame.sol:PokeballGame","label":"resolved","offset":0,"slot":"4","type":"t_bool"}],"numberOfBytes":"160"},"t_struct(Pokemon)2568_storage":{"encoding":"inplace","label":"struct PokeballGame.Pokemon","members":[{"astId":2557,"contract":"contracts/PokeballGame.sol:PokeballGame","label":"id","offset":0,"slot":"0","type":"t_uint256"},{"astId":2559,"contract":"contracts/PokeballGame.sol:PokeballGame","label":"positionX","offset":0,"slot":"1","type":"t_uint256"},{"astId":2561,"contract":"contracts/PokeballGame.sol:PokeballGame","label":"positionY","offset":0,"slot":"2","type":"t_uint256"},{"astId":2563,"contract":"contracts/PokeballGame.sol:PokeballGame","label":"throwAttempts","offset":0,"slot":"3","type":"t_uint8"},{"astId":2565,"contract":"contracts/PokeballGame.sol:PokeballGame","label":"isActive","offset":1,"slot":"3","type":"t_bool"},{"astId":2567,"contract":"contracts/PokeballGame.sol:PokeballGame","label":"spawnTime","offset":0,"slot":"4","type":"t_uint256"}],"numberOfBytes":"160"},"t_uint256":{"encoding":"inplace","label":"uint256","numberOfBytes":"32"},"t_uint8":{"encoding":"inplace","label":"uint8","numberOfBytes":"1"}}}}}}