{"contracts/SlabNFTManagerV2.sol":{"SlabNFTManager":{"abi":[{"inputs":[],"stateMutability":"nonpayable","type":"constructor"},{"inputs":[{"internalType":"address","name":"target","type":"address"}],"name":"AddressEmptyCode","type":"error"},{"inputs":[{"internalType":"uint256","name":"balance","type":"uint256"},{"internalType":"uint256","name":"threshold","type":"uint256"}],"name":"BelowPurchaseThreshold","type":"error"},{"inputs":[{"internalType":"address","name":"implementation","type":"address"}],"name":"ERC1967InvalidImplementation","type":"error"},{"inputs":[],"name":"ERC1967NonPayable","type":"error"},{"inputs":[],"name":"EnforcedPause","type":"error"},{"inputs":[],"name":"ExpectedPause","type":"error"},{"inputs":[],"name":"FailedCall","type":"error"},{"inputs":[{"internalType":"uint256","name":"required","type":"uint256"},{"internalType":"uint256","name":"available","type":"uint256"}],"name":"InsufficientBalance","type":"error"},{"inputs":[],"name":"InvalidAmount","type":"error"},{"inputs":[],"name":"InvalidInitialization","type":"error"},{"inputs":[],"name":"InvalidTokenId","type":"error"},{"inputs":[],"name":"InventoryEmpty","type":"error"},{"inputs":[{"internalType":"uint8","name":"maxSize","type":"uint8"}],"name":"InventoryFull","type":"error"},{"inputs":[{"internalType":"address","name":"caller","type":"address"}],"name":"NotAuthorized","type":"error"},{"inputs":[],"name":"NotInitializing","type":"error"},{"inputs":[{"internalType":"address","name":"owner","type":"address"}],"name":"OwnableInvalidOwner","type":"error"},{"inputs":[{"internalType":"address","name":"account","type":"address"}],"name":"OwnableUnauthorizedAccount","type":"error"},{"inputs":[],"name":"PurchaseAlreadyPending","type":"error"},{"inputs":[],"name":"ReentrancyGuardReentrantCall","type":"error"},{"inputs":[{"internalType":"address","name":"token","type":"address"}],"name":"SafeERC20FailedOperation","type":"error"},{"inputs":[{"internalType":"uint256","name":"tokenId","type":"uint256"}],"name":"TokenNotInInventory","type":"error"},{"inputs":[],"name":"TransferFailed","type":"error"},{"inputs":[],"name":"UUPSUnauthorizedCallContext","type":"error"},{"inputs":[{"internalType":"bytes32","name":"slot","type":"bytes32"}],"name":"UUPSUnsupportedProxiableUUID","type":"error"},{"inputs":[],"name":"ZeroAddress","type":"error"},{"anonymous":false,"inputs":[{"indexed":false,"internalType":"uint256","name":"balance","type":"uint256"},{"indexed":false,"internalType":"uint256","name":"inventorySize","type":"uint256"},{"indexed":false,"internalType":"uint256","name":"maxSize","type":"uint256"}],"name":"AutoPurchaseSkippedInventoryFull","type":"event"},{"anonymous":false,"inputs":[{"indexed":true,"internalType":"address","name":"recipient","type":"address"},{"indexed":false,"internalType":"uint256","name":"usdcAmount","type":"uint256"},{"indexed":false,"internalType":"uint256","name":"nftCount","type":"uint256"}],"name":"EmergencyWithdrawal","type":"event"},{"anonymous":false,"inputs":[{"indexed":false,"internalType":"uint64","name":"version","type":"uint64"}],"name":"Initialized","type":"event"},{"anonymous":false,"inputs":[{"indexed":false,"internalType":"uint256","name":"currentSize","type":"uint256"},{"indexed":false,"internalType":"uint256","name":"maxSize","type":"uint256"}],"name":"InventoryCapacityReached","type":"event"},{"anonymous":false,"inputs":[{"indexed":true,"internalType":"address","name":"winner","type":"address"},{"indexed":true,"internalType":"uint256","name":"tokenId","type":"uint256"},{"indexed":false,"internalType":"uint256","name":"remainingInventory","type":"uint256"}],"name":"NFTAwarded","type":"event"},{"anonymous":false,"inputs":[{"indexed":true,"internalType":"uint256","name":"requestId","type":"uint256"},{"indexed":false,"internalType":"uint256","name":"amount","type":"uint256"},{"indexed":false,"internalType":"address","name":"recipient","type":"address"}],"name":"NFTPurchaseInitiated","type":"event"},{"anonymous":false,"inputs":[{"indexed":true,"internalType":"uint256","name":"tokenId","type":"uint256"},{"indexed":false,"internalType":"uint256","name":"inventorySize","type":"uint256"}],"name":"NFTReceived","type":"event"},{"anonymous":false,"inputs":[{"indexed":false,"internalType":"address","name":"oldOwner","type":"address"},{"indexed":false,"internalType":"address","name":"newOwner","type":"address"}],"name":"OwnerWalletUpdated","type":"event"},{"anonymous":false,"inputs":[{"indexed":true,"internalType":"address","name":"previousOwner","type":"address"},{"indexed":true,"internalType":"address","name":"newOwner","type":"address"}],"name":"OwnershipTransferred","type":"event"},{"anonymous":false,"inputs":[{"indexed":false,"internalType":"address","name":"account","type":"address"}],"name":"Paused","type":"event"},{"anonymous":false,"inputs":[{"indexed":false,"internalType":"address","name":"oldAddress","type":"address"},{"indexed":false,"internalType":"address","name":"newAddress","type":"address"}],"name":"PokeballGameUpdated","type":"event"},{"anonymous":false,"inputs":[{"indexed":true,"internalType":"address","name":"depositor","type":"address"},{"indexed":false,"internalType":"uint256","name":"amount","type":"uint256"},{"indexed":false,"internalType":"uint256","name":"newBalance","type":"uint256"}],"name":"RevenueDeposited","type":"event"},{"anonymous":false,"inputs":[{"indexed":false,"internalType":"address","name":"oldAddress","type":"address"},{"indexed":false,"internalType":"address","name":"newAddress","type":"address"}],"name":"TreasuryWalletUpdated","type":"event"},{"anonymous":false,"inputs":[{"indexed":false,"internalType":"address","name":"account","type":"address"}],"name":"Unpaused","type":"event"},{"anonymous":false,"inputs":[{"indexed":true,"internalType":"address","name":"implementation","type":"address"}],"name":"Upgraded","type":"event"},{"inputs":[],"name":"AUTO_PURCHASE_THRESHOLD","outputs":[{"internalType":"uint256","name":"","type":"uint256"}],"stateMutability":"view","type":"function"},{"inputs":[],"name":"MAX_INVENTORY_SIZE","outputs":[{"internalType":"uint8","name":"","type":"uint8"}],"stateMutability":"view","type":"function"},{"inputs":[],"name":"UPGRADE_INTERFACE_VERSION","outputs":[{"internalType":"string","name":"","type":"string"}],"stateMutability":"view","type":"function"},{"inputs":[],"name":"USDC_DECIMALS","outputs":[{"internalType":"uint8","name":"","type":"uint8"}],"stateMutability":"view","type":"function"},{"inputs":[{"internalType":"address","name":"winner","type":"address"}],"name":"awardNFTToWinner","outputs":[{"internalType":"uint256","name":"tokenId","type":"uint256"}],"stateMutability":"nonpayable","type":"function"},{"inputs":[{"internalType":"address","name":"winner","type":"address"},{"internalType":"uint256","name":"tokenId","type":"uint256"}],"name":"awardSpecificNFT","outputs":[{"internalType":"bool","name":"success","type":"bool"}],"stateMutability":"nonpayable","type":"function"},{"inputs":[],"name":"canAutoPurchase","outputs":[{"internalType":"bool","name":"canPurchase","type":"bool"},{"internalType":"uint256","name":"currentBalance","type":"uint256"},{"internalType":"uint256","name":"threshold","type":"uint256"},{"internalType":"uint256","name":"pullPrice","type":"uint256"}],"stateMutability":"view","type":"function"},{"inputs":[],"name":"checkAndPurchaseNFT","outputs":[{"internalType":"bool","name":"purchased","type":"bool"},{"internalType":"uint256","name":"requestId","type":"uint256"}],"stateMutability":"nonpayable","type":"function"},{"inputs":[{"internalType":"uint256","name":"amount","type":"uint256"}],"name":"depositRevenue","outputs":[],"stateMutability":"nonpayable","type":"function"},{"inputs":[],"name":"emergencyWithdraw","outputs":[],"stateMutability":"nonpayable","type":"function"},{"inputs":[],"name":"forcePurchaseNFT","outputs":[{"internalType":"uint256","name":"requestId","type":"uint256"}],"stateMutability":"nonpayable","type":"function"},{"inputs":[],"name":"getInventory","outputs":[{"internalType":"uint256[]","name":"tokenIds","type":"uint256[]"}],"stateMutability":"view","type":"function"},{"inputs":[],"name":"getInventoryCount","outputs":[{"internalType":"uint256","name":"count","type":"uint256"}],"stateMutability":"view","type":"function"},{"inputs":[],"name":"getMaxInventorySize","outputs":[{"internalType":"uint8","name":"maxSize","type":"uint8"}],"stateMutability":"pure","type":"function"},{"inputs":[],"name":"getStats","outputs":[{"internalType":"uint256","name":"nftsPurchased","type":"uint256"},{"internalType":"uint256","name":"nftsAwarded","type":"uint256"},{"internalType":"uint256","name":"usdcSpent","type":"uint256"},{"internalType":"uint256","name":"currentInventory","type":"uint256"},{"internalType":"uint256","name":"currentBalance","type":"uint256"}],"stateMutability":"view","type":"function"},{"inputs":[],"name":"getUSDCBalance","outputs":[{"internalType":"uint256","name":"balance","type":"uint256"}],"stateMutability":"view","type":"function"},{"inputs":[],"name":"hasInventorySpace","outputs":[{"internalType":"bool","name":"hasSpace","type":"bool"},{"internalType":"uint8","name":"availableSlots","type":"uint8"}],"stateMutability":"view","type":"function"},{"inputs":[{"internalType":"address","name":"_owner","type":"address"},{"internalType":"address","name":"_treasury","type":"address"},{"internalType":"address","name":"_usdce","type":"address"},{"internalType":"address","name":"_slabMachine","type":"address"},{"internalType":"address","name":"_slabNFT","type":"address"},{"internalType":"address","name":"_pokeballGame","type":"address"}],"name":"initialize","outputs":[],"stateMutability":"nonpayable","type":"function"},{"inputs":[{"internalType":"uint256","name":"","type":"uint256"}],"name":"isInInventory","outputs":[{"internalType":"bool","name":"","type":"bool"}],"stateMutability":"view","type":"function"},{"inputs":[{"internalType":"uint256","name":"tokenId","type":"uint256"}],"name":"isTokenInInventory","outputs":[{"internalType":"bool","name":"inInventory","type":"bool"}],"stateMutability":"view","type":"function"},{"inputs":[{"internalType":"uint256","name":"","type":"uint256"}],"name":"nftInventory","outputs":[{"internalType":"uint256","name":"","type":"uint256"}],"stateMutability":"view","type":"function"},{"inputs":[{"internalType":"address","name":"","type":"address"},{"internalType":"address","name":"","type":"address"},{"internalType":"uint256","name":"tokenId","type":"uint256"},{"internalType":"bytes","name":"","type":"bytes"}],"name":"onERC721Received","outputs":[{"internalType":"bytes4","name":"","type":"bytes4"}],"stateMutability":"nonpayable","type":"function"},{"inputs":[],"name":"owner","outputs":[{"internalType":"address","name":"","type":"address"}],"stateMutability":"view","type":"function"},{"inputs":[],"name":"pause","outputs":[],"stateMutability":"nonpayable","type":"function"},{"inputs":[],"name":"paused","outputs":[{"internalType":"bool","name":"","type":"bool"}],"stateMutability":"view","type":"function"},{"inputs":[{"internalType":"uint256","name":"","type":"uint256"}],"name":"pendingPullRequests","outputs":[{"internalType":"address","name":"","type":"address"}],"stateMutability":"view","type":"function"},{"inputs":[],"name":"pendingRequestCount","outputs":[{"internalType":"uint256","name":"","type":"uint256"}],"stateMutability":"view","type":"function"},{"inputs":[],"name":"pokeballGame","outputs":[{"internalType":"address","name":"","type":"address"}],"stateMutability":"view","type":"function"},{"inputs":[],"name":"proxiableUUID","outputs":[{"internalType":"bytes32","name":"","type":"bytes32"}],"stateMutability":"view","type":"function"},{"inputs":[],"name":"renounceOwnership","outputs":[],"stateMutability":"nonpayable","type":"function"},{"inputs":[{"internalType":"address","name":"newOwner","type":"address"}],"name":"setOwnerWallet","outputs":[],"stateMutability":"nonpayable","type":"function"},{"inputs":[{"internalType":"address","name":"_pokeballGame","type":"address"}],"name":"setPokeballGame","outputs":[],"stateMutability":"nonpayable","type":"function"},{"inputs":[{"internalType":"address","name":"_treasury","type":"address"}],"name":"setTreasuryWallet","outputs":[],"stateMutability":"nonpayable","type":"function"},{"inputs":[],"name":"slabMachine","outputs":[{"internalType":"contract ISlabMachine","name":"","type":"address"}],"stateMutability":"view","type":"function"},{"inputs":[],"name":"slabNFT","outputs":[{"internalType":"contract IERC721","name":"","type":"address"}],"stateMutability":"view","type":"function"},{"inputs":[{"internalType":"uint256","name":"","type":"uint256"}],"name":"tokenIdToIndex","outputs":[{"internalType":"uint256","name":"","type":"uint256"}],"stateMutability":"view","type":"function"},{"inputs":[],"name":"totalNFTsAwarded","outputs":[{"internalType":"uint256","name":"","type":"uint256"}],"stateMutability":"view","type":"function"},{"inputs":[],"name":"totalNFTsPurchased","outputs":[{"internalType":"uint256","name":"","type":"uint256"}],"stateMutability":"view","type":"function"},{"inputs":[],"name":"totalUSDCSpent","outputs":[{"internalType":"uint256","name":"","type":"uint256"}],"stateMutability":"view","type":"function"},{"inputs":[{"internalType":"address","name":"newOwner","type":"address"}],"name":"transferOwnership","outputs":[],"stateMutability":"nonpayable","type":"function"},{"inputs":[],"name":"treasuryWallet","outputs":[{"internalType":"address","name":"","type":"address"}],"stateMutability":"view","type":"function"},{"inputs":[],"name":"unpause","outputs":[],"stateMutability":"nonpayable","type":"function"},{"inputs":[{"internalType":"address","name":"newImplementation","type":"address"},{"internalType":"bytes","name":"data","type":"bytes"}],"name":"upgradeToAndCall","outputs":[],"stateMutability":"payable","type":"function"},{"inputs":[],"name":"usdce","outputs":[{"internalType":"contract IERC20","name":"","type":"address"}],"stateMutability":"view","type":"function"}],"evm":{"bytecode":{"linkReferences":{},"object":"60a080604052346100ea57306080527ff0c57e16840df040f15088dc2f81fe391c3923bec73e23a9662efc9c229c6a005460ff8160401c166100d9576002600160401b03196001600160401b03821601610073575b6040516124e890816100f082396080518181816114ab015261157c0152f35b6001600160401b0319166001600160401b039081177ff0c57e16840df040f15088dc2f81fe391c3923bec73e23a9662efc9c229c6a005581527fc7f505b2f371ae2175ee4913f4499e1f2633a7b5936321eed1cdaeb6115181d290602090a13880610054565b63f92ee8a960e01b60005260046000fd5b600080fdfe608080604052600436101561001357600080fd5b600090813560e01c908163150b7a02146118f45750806325c61fcd146118cb57806326ec0fbe146118a157806331e2c022146118835780633cfd1ccc146117f85780633f4ba83a146117765780634626402b1461174d5780634f1ef2861461150057806352d1902d14611498578063569ffd42146114695780635bf7117a146114405780635c975abb146114105780635d7f850c1461135a578063715018a6146112f0578063753089f71461129057806377d983c91461126757806378b5aa8f1461121f5780637c597f4e146112015780637d8dbe57146111ce578063829095971461106c57806382b65bef146110325780638456cb5914610fbd5780638da5cb5b14610f87578063a8602fea14610efc578063ad3cb1cc14610e82578063af3df16014610e64578063b309a85714610d1f578063b6efd54014610c85578063bb542ef014610bdb578063bc1ca3e914610ab0578063c1419def14610a94578063c59d4847146109d9578063cc2a9a5b1461074d578063d33953ba14610726578063d3e0414514610707578063d82872fe1461066e578063d8b84c62146103b2578063db2e21bc1461040a578063e0abba57146103ec578063e155d79e146103ce578063e18bbf5b146103b2578063ef33794814610263578063f2fde38b146102365763fbd7ec9e1461020557600080fd5b346102335760203660031901126102335760ff60406020926004358152600684522054166040519015158152f35b80fd5b503461023357602036600319011261023357610260610253611ac0565b61025b611d05565b611cd5565b80f35b503461023357806003193601126102335780546040516370a0823160e01b815230600482015290602090829060249082906001600160a01b03165afa9081156103a7578291610370575b50600154604051632dabc24f60e01b81529060a090829060049082906001600160a01b03165afa9081156103655760809391610331575b5063030a32c08210159182610326575b82610318575b6040519215158352602083015263030a32c060408301526060820152f35b9150601460055410916102fa565b8181101592506102f4565b610353915060a03d60a01161035e575b61034b8183611aec565b810190611cae565b9350505050386102e4565b503d610341565b6040513d85823e3d90fd5b90506020813d60201161039f575b8161038b60209383611aec565b8101031261039a5751386102ad565b600080fd5b3d915061037e565b6040513d84823e3d90fd5b5034610233578060031936011261023357602060405160148152f35b50346102335780600319360112610233576020600854604051908152f35b50346102335780600319360112610233576020600c54604051908152f35b5034610233578060031936011261023357610423611d05565b61042b611d91565b80546040516370a0823160e01b81523060048201526001600160a01b0390911690602081602481855afa90811561036557839161063c575b506005549181806105ea575b5050825b82811061053d575060055483600555806104dd575b506004546040805192835260208301939093526001600160a01b0316917f56da9a5ae0bcf6e7c3fdd78a10550e7d0458de1c39bfb7f6e96a3e92dd344a6891a260016000805160206124738339815191525580f35b600584527f036b6384b5eca791c62761152d0c79bb0604c104a5fb6f4eb0703f3154bb3db0017f036b6384b5eca791c62761152d0c79bb0604c104a5fb6f4eb0703f3154bb3db05b8181106105325750610488565b848155600101610525565b61054681611b40565b90549060031b1c908460018060a01b036002541660018060a01b036004541690803b156105e657604051632142170760e11b81523060048201526001600160a01b039290921660248301526044820185905282908290606490829084905af180156103a7576105cd575b50916001925260066020526040852060ff19815416905501610473565b816105d791611aec565b6105e25784386105b0565b8480fd5b8280fd5b60045460405163a9059cbb60e01b60208201526001600160a01b03909116602482015260448101919091526106359161063082606481015b03601f198101845283611aec565b612328565b388161046f565b90506020813d602011610666575b8161065760209383611aec565b8101031261039a575138610463565b3d915061064a565b5034610233578060031936011261023357610687611d91565b61068f611dcd565b6003546001600160a01b0316331415806106e5575b6106d25760406106b261214e565b600160008051602061247383398151915255825191151582526020820152f35b634a0bfec160e01b815233600452602490fd5b50600080516020612413833981519152546001600160a01b03163314156106a4565b5034610233578060031936011261023357602060405163030a32c08152f35b5034610233578060031936011261023357546040516001600160a01b039091168152602090f35b50346102335760c036600319011261023357610767611ac0565b61076f611ad6565b906044356001600160a01b03811691908290036109d5576064356001600160a01b038116908190036105e2576084356001600160a01b03811691908290036109d15760a4356001600160a01b03811694908590036109cd57600080516020612493833981519152549560ff8760401c16159667ffffffffffffffff8116801590816109c5575b60011490816109bb575b1590816109b2575b506109a35767ffffffffffffffff1981166001176000805160206124938339815191525587610976575b506001600160a01b03851615610967576001600160a01b0316938415610967578115610967578215610967578315610967576108779061086f612383565b61025b612383565b61087f612383565b610887612383565b61088f612383565b6001600080516020612473833981519152556108a9612383565b6001600160601b0360a01b8754161786556001600160601b0360a01b60015416176001556001600160601b0360a01b60025416176002556001600160601b0360a01b60045416176004556001600160601b0360a01b600354161760035561090d5780f35b68ff0000000000000000196000805160206124938339815191525416600080516020612493833981519152557fc7f505b2f371ae2175ee4913f4499e1f2633a7b5936321eed1cdaeb6115181d2602060405160018152a180f35b63d92e233d60e01b8852600488fd5b68ffffffffffffffffff191668010000000000000001176000805160206124938339815191525538610831565b63f92ee8a960e01b8952600489fd5b90501538610807565b303b1591506107ff565b8991506107f5565b8680fd5b8580fd5b8380fd5b5034610233578060031936011261023357600854600954600a5460055484546040516370a0823160e01b8152306004820152959391929190602090879060249082906001600160a01b03165afa938415610a885793610a53575b60a095506040519485526020850152604084015260608301526080820152f35b92506020853d602011610a80575b81610a6e60209383611aec565b8101031261039a5760a0945192610a33565b3d9150610a61565b604051903d90823e3d90fd5b5034610233578060031936011261023357602060405160068152f35b503461023357602036600319011261023357600435610acd611d91565b610ad5611dcd565b8015610bcc5781546040516323b872dd60e01b602082015233602482015230604482015260648101839052610b1a916001600160a01b03166106308260848101610622565b81546040516370a0823160e01b815230600482015290602090829060249082906001600160a01b03165afa908115610365578391610b9a575b5060405191825260208201527f2f22b7f6e7f7df7d0eb3d1a543a2b6eb906e76a03540c2d66d2725270a5f6d3160403392a260016000805160206124738339815191525580f35b90506020813d602011610bc4575b81610bb560209383611aec565b8101031261039a575138610b53565b3d9150610ba8565b63162908e360e11b8252600482fd5b503461023357602036600319011261023357610bf5611ac0565b610bfd611d05565b6001600160a01b03811615610c7657600080516020612413833981519152547f1ae677bcbca66f3bcf12daf4568dd58ceac4a4016c2c6da39a6ec63fa9b6434591906001600160a01b0316610c5182611d3b565b604080516001600160a01b039283168152929091166020830152819081015b0390a180f35b63d92e233d60e01b8252600482fd5b503461023357602036600319011261023357610c9f611ac0565b610ca7611d05565b6001600160a01b0381168015610d1057600380546001600160a01b031981169092179055604080516001600160a01b0392831681529190921660208201527ff66399fe71a8aeef123694608632ea96ea22bb57f3831b48be1edd314bd320cb9181908101610c70565b63d92e233d60e01b8352600483fd5b503461023357604036600319011261023357610d39611ac0565b60243591610d45611d91565b610d4d611dcd565b6003546001600160a01b031633036106d2576001600160a01b038216918215610c7657838252600660205260ff60408320541615610e5057610d8e84611df7565b6002546001600160a01b031690813b156105e657604051632142170760e11b81523060048201526001600160a01b03919091166024820152604481018590529082908290606490829084905af180156103a757610e40575b5050610df3600954611b71565b6009557f55144f84a06aba3b3a5c49b5d2d0d2a1fed9e25f465a2cc0f4a23b883c4782156020600554604051908152a3600160008051602061247383398151915255602060405160018152f35b81610e4a91611aec565b38610de6565b6329762dbf60e21b82526004849052602482fd5b50346102335780600319360112610233576020600554604051908152f35b50346102335780600319360112610233576040805191610ea28284611aec565b60058352640352e302e360dc1b6020840152815192839160208352815191826020850152815b838110610ee5575050828201840152601f01601f19168101030190f35b602082820181015188830188015287955001610ec8565b503461023357602036600319011261023357610f16611ac0565b610f1e611d05565b6001600160a01b0381168015610d1057600480546001600160a01b031981169092179055604080516001600160a01b0392831681529190921660208201527fa982575859d7ad2f390dc12b23f7dab8bbda047f9d0140ac68344b27bf34bfb49181908101610c70565b5034610233578060031936011261023357600080516020612413833981519152546040516001600160a01b039091168152602090f35b5034610233578060031936011261023357610fd6611d05565b610fde611dcd565b600160ff19600080516020612453833981519152541617600080516020612453833981519152557f62e78cea01bee320cd4e420270b5ea74000d11b0c9f74754ebdbfc544b05a2586020604051338152a180f35b5034610233576020366003190112610233576004359060055482101561023357602061105d83611b40565b90549060031b1c604051908152f35b5034610233578060031936011261023357611085611d91565b61108d611dcd565b611095611d05565b601460055410156111ba57600154604051632dabc24f60e01b8152919060a090839060049082906001600160a01b03165afa9182156111ad578192611187575b5080546040516370a0823160e01b815230600482015290602090829060249082906001600160a01b03165afa9081156103a7578291611151575b5082811061113c57602061112284611eee565b600160008051602061247383398151915255604051908152f35b60449263cf47918160e01b8352600452602452fd5b90506020813d60201161117f575b8161116c60209383611aec565b8101031261117b57513861110f565b5080fd5b3d915061115f565b6111a191925060a03d60a01161035e5761034b8183611aec565b935050505090386110d5565b50604051903d90823e3d90fd5b630c6fb6e960e31b81526014600452602490fd5b5034610233576020366003190112610233576020906004358152600b8252604060018060a01b0391205416604051908152f35b50346102335780600319360112610233576020600954604051908152f35b503461023357602036600319011261023357611239611ac0565b90611242611d91565b61124a611dcd565b6003546001600160a01b031633036106d257602061112283611b96565b50346102335780600319360112610233576003546040516001600160a01b039091168152602090f35b5034610233578060031936011261023357600554601481109081156112e55760140391601483116112d1575060ff80604093165b8351928352166020820152f35b634e487b7160e01b81526011600452602490fd5b5060ff6040926112c4565b5034610233578060031936011261023357611309611d05565b60008051602061241383398151915280546001600160a01b0319811690915581906001600160a01b03167f8be0079c531659141344cd1fd0a4f28419497f9722a3daafe3b4186f6b6457e08280a380f35b503461023357806003193601126102335760405180602060055491828152018091600585527f036b6384b5eca791c62761152d0c79bb0604c104a5fb6f4eb0703f3154bb3db090855b8181106113fa57505050826113b9910383611aec565b604051928392602084019060208552518091526040840192915b8181106113e1575050500390f35b82518452859450602093840193909201916001016113d3565b82548452602090930192600192830192016113a3565b5034610233578060031936011261023357602060ff60008051602061245383398151915254166040519015158152f35b50346102335780600319360112610233576001546040516001600160a01b039091168152602090f35b50346102335760203660031901126102335760ff60406020926004358152600684522054166040519015158152f35b50346102335780600319360112610233577f00000000000000000000000000000000000000000000000000000000000000006001600160a01b031630036114f15760206040516000805160206124338339815191528152f35b63703e46dd60e11b8152600490fd5b50604036600319011261023357611515611ac0565b6024359067ffffffffffffffff82116105e657366023830112156105e6578160040135908361154383611b24565b936115516040519586611aec565b838552602085019336602482840101116105e657806024602093018637850101526001600160a01b037f00000000000000000000000000000000000000000000000000000000000000001630811490811561172a575b5061171b576115b4611d05565b6040516352d1902d60e01b81526001600160a01b0382169390602081600481885afa8691816116e7575b506115f757634c9c8ce360e01b86526004859052602486fd5b93846000805160206124338339815191528796036116d55750823b156116c35760008051602061243383398151915280546001600160a01b031916821790558491907fbc7cd75a20ee27fd9adebab32041f755214dbc6bffa90cc0225b39da2e5c2d3b8380a28051156116a85761169c9382915190845af43d156116a0573d9161168083611b24565b9261168e6040519485611aec565b83523d85602085013e6123b1565b5080f35b6060916123b1565b50505050346116b45780f35b63b398979f60e01b8152600490fd5b634c9c8ce360e01b8552600452602484fd5b632a87526960e21b8652600452602485fd5b9091506020813d602011611713575b8161170360209383611aec565b810103126109cd575190386115de565b3d91506116f6565b63703e46dd60e11b8452600484fd5b600080516020612433833981519152546001600160a01b031614159050386115a7565b50346102335780600319360112610233576004546040516001600160a01b039091168152602090f35b503461023357806003193601126102335761178f611d05565b6000805160206124538339815191525460ff8116156117e95760ff1916600080516020612453833981519152557f5db9ee0a495bf2e6ff9c91a7834c1ba4fdd244a5e8aa4e537bd38aeae4b073aa6020604051338152a180f35b638dfc202b60e01b8252600482fd5b503461023357806003193601126102335780546040516370a0823160e01b815230600482015290602090829060249082906001600160a01b03165afa9081156103a757829161184d575b602082604051908152f35b90506020813d60201161187b575b8161186860209383611aec565b8101031261117b57602091505138611842565b3d915061185b565b50346102335780600319360112610233576020600a54604051908152f35b50346102335760203660031901126102335760406020916004358152600783522054604051908152f35b50346102335780600319360112610233576002546040516001600160a01b039091168152602090f35b82346102335760803660031901126102335761190e611ac0565b50611917611ad6565b506044359160643567ffffffffffffffff81116105e657366023820112156105e657806004013567ffffffffffffffff81116109d5573691016024011161117b576002546001600160a01b0316331461197d575b604051630a85bd0160e11b8152602090f35b6005549060148210908115611a88575015611a41578282526007602052604082205560055468010000000000000000811015611a2d57906119e3836119ca84600160409601600555611b40565b90919082549060031b91821b91600019901b1916179055565b828152600660205220600160ff198254161790557f1be18eb15fae79b2ef01c40d9c2880744c4d536df2f5ac14fdb74fee71dc452c6020600554604051908152a25b80808061196b565b634e487b7160e01b82526041600452602482fd5b6040805191825260146020830152602492917ff412b82e309222a345c6e9320ef106691e62ad44355f516d03ce23fdcda49cdc9190a1630c6fb6e960e31b81526014600452fd5b91825250601460208201527ff412b82e309222a345c6e9320ef106691e62ad44355f516d03ce23fdcda49cdc925060409150a1611a25565b600435906001600160a01b038216820361039a57565b602435906001600160a01b038216820361039a57565b90601f8019910116810190811067ffffffffffffffff821117611b0e57604052565b634e487b7160e01b600052604160045260246000fd5b67ffffffffffffffff8111611b0e57601f01601f191660200190565b600554811015611b5b57600560005260206000200190600090565b634e487b7160e01b600052603260045260246000fd5b6000198114611b805760010190565b634e487b7160e01b600052601160045260246000fd5b600091906001600160a01b0381168015611c9f576005548015611c9a576000198101908111611c8657611bc890611b40565b90549060031b1c91611bd983611df7565b6002546001600160a01b031690813b156109d157604051632142170760e11b81523060048201526001600160a01b0391909116602482015260448101849052949081908690606490829084905af19485156111ad57839495611c76575b5050611c43600954611b71565b6009557f55144f84a06aba3b3a5c49b5d2d0d2a1fed9e25f465a2cc0f4a23b883c4782156020600554604051908152a390565b81611c8091611aec565b38611c36565b634e487b7160e01b85526011600452602485fd5b505050565b63d92e233d60e01b8452600484fd5b908160a091031261039a578051916020820151916040810151916080606083015192015190565b6001600160a01b03811615611cef57611ced90611d3b565b565b631e4fbdf760e01b600052600060045260246000fd5b600080516020612413833981519152546001600160a01b03163303611d2657565b63118cdaa760e01b6000523360045260246000fd5b60008051602061241383398151915280546001600160a01b039283166001600160a01b0319821681179092559091167f8be0079c531659141344cd1fd0a4f28419497f9722a3daafe3b4186f6b6457e0600080a3565b60026000805160206124738339815191525414611dbc57600260008051602061247383398151915255565b633ee5aeb560e01b60005260046000fd5b60ff6000805160206124538339815191525416611de657565b63d93c066560e01b60005260046000fd5b80600052600660205260ff6040600020541615611ecd578060005260076020526040600020546005546000198101908111611b8057808203611e9b575b50506005548015611e855760001901611e4c81611b40565b8154906000199060031b1b19169055600555806000526006602052604060002060ff198154169055600052600760205260006040812055565b634e487b7160e01b600052603160045260246000fd5b611ea490611b40565b90549060031b1c611eb8816119ca84611b40565b60005260076020526040600020553880611e34565b6329762dbf60e21b60005260045260246000fd5b91908201809211611b8057565b600054600154604051636eb1769f60e11b81523060048201526001600160a01b0391821660248201819052929190911690602081604481855afa80156120af578490600090612118575b611f429250611ee1565b60405163095ea7b360e01b60208083019182526001600160a01b038616602484015260448084019490945292825290929190600090611f82606486611aec565b84519082855af16000513d826120fc575b5050156120bb575b5050506000602060018060a01b0360015416604460405180948193634bda0d0960e11b8352600160048401523060248401525af19081156120af5760009161205d575b507f6929b90e2c20a95d4538df3110e196e018b4d66120e0020e665a4af86f1b52716040829383600052600b60205281600020306001600160601b0360a01b82541617905561202e600c54611b71565b600c5561203c600854611b71565b60085561204b81600a54611ee1565b600a558151908152306020820152a290565b906020823d6020116120a7575b8161207760209383611aec565b810103126102335750517f6929b90e2c20a95d4538df3110e196e018b4d66120e0020e665a4af86f1b5271611fde565b3d915061206a565b6040513d6000823e3d90fd5b6106306120f4936040519063095ea7b360e01b6020830152602482015260006044820152604481526120ee606482611aec565b82612328565b388080611f9b565b9091506121105750803b15155b3880611f93565b600114612109565b50506020813d602011612146575b8161213360209383611aec565b8101031261039a5783611f429151611f38565b3d9150612126565b600554601481101561225a5750600154604051632dabc24f60e01b81529060a090829060049082906001600160a01b03165afa9081156120af57600091612236575b506000546040516370a0823160e01b815230600482015290602090829060249082906001600160a01b03165afa9081156120af57600091612204575b508163030a32c082109182156121fa575b50506121f1576121ec90611eee565b600191565b50600090600090565b10905081386121dd565b906020823d60201161222e575b8161221e60209383611aec565b81010312610233575051386121cc565b3d9150612211565b61224f915060a03d60a01161035e5761034b8183611aec565b935050505038612190565b6000546040516370a0823160e01b815230600482015290602090829060249082906001600160a01b03165afa9081156120af576000916122d6575b506060907fcc4ee2e034de83c93ba6c21ff29c1368284a557946b6cb0f5950fc6fd15e5b0692604051918252602082015260146040820152a1600090600090565b90506020813d602011612320575b816122f160209383611aec565b8101031261039a57517fcc4ee2e034de83c93ba6c21ff29c1368284a557946b6cb0f5950fc6fd15e5b06612295565b3d91506122e4565b906000602091828151910182855af1156120af576000513d61237a57506001600160a01b0381163b155b6123595750565b635274afe760e01b60009081526001600160a01b0391909116600452602490fd5b60011415612352565b60ff6000805160206124938339815191525460401c16156123a057565b631afcd79f60e31b60005260046000fd5b906123d757508051156123c657602081519101fd5b63d6bda27560e01b60005260046000fd5b81511580612409575b6123e8575090565b639996b31560e01b60009081526001600160a01b0391909116600452602490fd5b50803b156123e056fe9016d09d72d40fdae2fd8ceac6b6234c7706214fd39c1cd1e609a0528c199300360894a13ba1a3210667c828492db98dca3e2076cc3735a920a3ca505d382bbccd5ed15c6e187e77e9aee88184c21f4f2182ab5827cb3b7e07fbedcd63f033009b779b17422d0df92223018b32b4d1fa46e071723d6817e2486d003becc55f00f0c57e16840df040f15088dc2f81fe391c3923bec73e23a9662efc9c229c6a00a26469706673582212202323c64feafd1a953401e6f833a59b49ce3b950a77d2ec7b2f655d557a0d125b64736f6c634300081a0033","opcodes":"PUSH1 0xA0 DUP1 PUSH1 0x40 MSTORE CALLVALUE PUSH2 0xEA JUMPI ADDRESS PUSH1 0x80 MSTORE PUSH32 0xF0C57E16840DF040F15088DC2F81FE391C3923BEC73E23A9662EFC9C229C6A00 SLOAD PUSH1 0xFF DUP2 PUSH1 0x40 SHR AND PUSH2 0xD9 JUMPI PUSH1 0x2 PUSH1 0x1 PUSH1 0x40 SHL SUB NOT PUSH1 0x1 PUSH1 0x1 PUSH1 0x40 SHL SUB DUP3 AND ADD PUSH2 0x73 JUMPI JUMPDEST PUSH1 0x40 MLOAD PUSH2 0x24E8 SWAP1 DUP2 PUSH2 0xF0 DUP3 CODECOPY PUSH1 0x80 MLOAD DUP2 DUP2 DUP2 PUSH2 0x14AB ADD MSTORE PUSH2 0x157C ADD MSTORE RETURN JUMPDEST PUSH1 0x1 PUSH1 0x1 PUSH1 0x40 SHL SUB NOT AND PUSH1 0x1 PUSH1 0x1 PUSH1 0x40 SHL SUB SWAP1 DUP2 OR PUSH32 0xF0C57E16840DF040F15088DC2F81FE391C3923BEC73E23A9662EFC9C229C6A00 SSTORE DUP2 MSTORE PUSH32 0xC7F505B2F371AE2175EE4913F4499E1F2633A7B5936321EED1CDAEB6115181D2 SWAP1 PUSH1 0x20 SWAP1 LOG1 CODESIZE DUP1 PUSH2 0x54 JUMP JUMPDEST PUSH4 0xF92EE8A9 PUSH1 0xE0 SHL PUSH1 0x0 MSTORE PUSH1 0x4 PUSH1 0x0 REVERT JUMPDEST PUSH1 0x0 DUP1 REVERT INVALID PUSH1 0x80 DUP1 PUSH1 0x40 MSTORE PUSH1 0x4 CALLDATASIZE LT ISZERO PUSH2 0x13 JUMPI PUSH1 0x0 DUP1 REVERT JUMPDEST PUSH1 0x0 SWAP1 DUP2 CALLDATALOAD PUSH1 0xE0 SHR SWAP1 DUP2 PUSH4 0x150B7A02 EQ PUSH2 0x18F4 JUMPI POP DUP1 PUSH4 0x25C61FCD EQ PUSH2 0x18CB JUMPI DUP1 PUSH4 0x26EC0FBE EQ PUSH2 0x18A1 JUMPI DUP1 PUSH4 0x31E2C022 EQ PUSH2 0x1883 JUMPI DUP1 PUSH4 0x3CFD1CCC EQ PUSH2 0x17F8 JUMPI DUP1 PUSH4 0x3F4BA83A EQ PUSH2 0x1776 JUMPI DUP1 PUSH4 0x4626402B EQ PUSH2 0x174D JUMPI DUP1 PUSH4 0x4F1EF286 EQ PUSH2 0x1500 JUMPI DUP1 PUSH4 0x52D1902D EQ PUSH2 0x1498 JUMPI DUP1 PUSH4 0x569FFD42 EQ PUSH2 0x1469 JUMPI DUP1 PUSH4 0x5BF7117A EQ PUSH2 0x1440 JUMPI DUP1 PUSH4 0x5C975ABB EQ PUSH2 0x1410 JUMPI DUP1 PUSH4 0x5D7F850C EQ PUSH2 0x135A JUMPI DUP1 PUSH4 0x715018A6 EQ PUSH2 0x12F0 JUMPI DUP1 PUSH4 0x753089F7 EQ PUSH2 0x1290 JUMPI DUP1 PUSH4 0x77D983C9 EQ PUSH2 0x1267 JUMPI DUP1 PUSH4 0x78B5AA8F EQ PUSH2 0x121F JUMPI DUP1 PUSH4 0x7C597F4E EQ PUSH2 0x1201 JUMPI DUP1 PUSH4 0x7D8DBE57 EQ PUSH2 0x11CE JUMPI DUP1 PUSH4 0x82909597 EQ PUSH2 0x106C JUMPI DUP1 PUSH4 0x82B65BEF EQ PUSH2 0x1032 JUMPI DUP1 PUSH4 0x8456CB59 EQ PUSH2 0xFBD JUMPI DUP1 PUSH4 0x8DA5CB5B EQ PUSH2 0xF87 JUMPI DUP1 PUSH4 0xA8602FEA EQ PUSH2 0xEFC JUMPI DUP1 PUSH4 0xAD3CB1CC EQ PUSH2 0xE82 JUMPI DUP1 PUSH4 0xAF3DF160 EQ PUSH2 0xE64 JUMPI DUP1 PUSH4 0xB309A857 EQ PUSH2 0xD1F JUMPI DUP1 PUSH4 0xB6EFD540 EQ PUSH2 0xC85 JUMPI DUP1 PUSH4 0xBB542EF0 EQ PUSH2 0xBDB JUMPI DUP1 PUSH4 0xBC1CA3E9 EQ PUSH2 0xAB0 JUMPI DUP1 PUSH4 0xC1419DEF EQ PUSH2 0xA94 JUMPI DUP1 PUSH4 0xC59D4847 EQ PUSH2 0x9D9 JUMPI DUP1 PUSH4 0xCC2A9A5B EQ PUSH2 0x74D JUMPI DUP1 PUSH4 0xD33953BA EQ PUSH2 0x726 JUMPI DUP1 PUSH4 0xD3E04145 EQ PUSH2 0x707 JUMPI DUP1 PUSH4 0xD82872FE EQ PUSH2 0x66E JUMPI DUP1 PUSH4 0xD8B84C62 EQ PUSH2 0x3B2 JUMPI DUP1 PUSH4 0xDB2E21BC EQ PUSH2 0x40A JUMPI DUP1 PUSH4 0xE0ABBA57 EQ PUSH2 0x3EC JUMPI DUP1 PUSH4 0xE155D79E EQ PUSH2 0x3CE JUMPI DUP1 PUSH4 0xE18BBF5B EQ PUSH2 0x3B2 JUMPI DUP1 PUSH4 0xEF337948 EQ PUSH2 0x263 JUMPI DUP1 PUSH4 0xF2FDE38B EQ PUSH2 0x236 JUMPI PUSH4 0xFBD7EC9E EQ PUSH2 0x205 JUMPI PUSH1 0x0 DUP1 REVERT JUMPDEST CALLVALUE PUSH2 0x233 JUMPI PUSH1 0x20 CALLDATASIZE PUSH1 0x3 NOT ADD SLT PUSH2 0x233 JUMPI PUSH1 0xFF PUSH1 0x40 PUSH1 0x20 SWAP3 PUSH1 0x4 CALLDATALOAD DUP2 MSTORE PUSH1 0x6 DUP5 MSTORE KECCAK256 SLOAD AND PUSH1 0x40 MLOAD SWAP1 ISZERO ISZERO DUP2 MSTORE RETURN JUMPDEST DUP1 REVERT JUMPDEST POP CALLVALUE PUSH2 0x233 JUMPI PUSH1 0x20 CALLDATASIZE PUSH1 0x3 NOT ADD SLT PUSH2 0x233 JUMPI PUSH2 0x260 PUSH2 0x253 PUSH2 0x1AC0 JUMP JUMPDEST PUSH2 0x25B PUSH2 0x1D05 JUMP JUMPDEST PUSH2 0x1CD5 JUMP JUMPDEST DUP1 RETURN JUMPDEST POP CALLVALUE PUSH2 0x233 JUMPI DUP1 PUSH1 0x3 NOT CALLDATASIZE ADD SLT PUSH2 0x233 JUMPI DUP1 SLOAD PUSH1 0x40 MLOAD PUSH4 0x70A08231 PUSH1 0xE0 SHL DUP2 MSTORE ADDRESS PUSH1 0x4 DUP3 ADD MSTORE SWAP1 PUSH1 0x20 SWAP1 DUP3 SWAP1 PUSH1 0x24 SWAP1 DUP3 SWAP1 PUSH1 0x1 PUSH1 0x1 PUSH1 0xA0 SHL SUB AND GAS STATICCALL SWAP1 DUP2 ISZERO PUSH2 0x3A7 JUMPI DUP3 SWAP2 PUSH2 0x370 JUMPI JUMPDEST POP PUSH1 0x1 SLOAD PUSH1 0x40 MLOAD PUSH4 0x2DABC24F PUSH1 0xE0 SHL DUP2 MSTORE SWAP1 PUSH1 0xA0 SWAP1 DUP3 SWAP1 PUSH1 0x4 SWAP1 DUP3 SWAP1 PUSH1 0x1 PUSH1 0x1 PUSH1 0xA0 SHL SUB AND GAS STATICCALL SWAP1 DUP2 ISZERO PUSH2 0x365 JUMPI PUSH1 0x80 SWAP4 SWAP2 PUSH2 0x331 JUMPI JUMPDEST POP PUSH4 0x30A32C0 DUP3 LT ISZERO SWAP2 DUP3 PUSH2 0x326 JUMPI JUMPDEST DUP3 PUSH2 0x318 JUMPI JUMPDEST PUSH1 0x40 MLOAD SWAP3 ISZERO ISZERO DUP4 MSTORE PUSH1 0x20 DUP4 ADD MSTORE PUSH4 0x30A32C0 PUSH1 0x40 DUP4 ADD MSTORE PUSH1 0x60 DUP3 ADD MSTORE RETURN JUMPDEST SWAP2 POP PUSH1 0x14 PUSH1 0x5 SLOAD LT SWAP2 PUSH2 0x2FA JUMP JUMPDEST DUP2 DUP2 LT ISZERO SWAP3 POP PUSH2 0x2F4 JUMP JUMPDEST PUSH2 0x353 SWAP2 POP PUSH1 0xA0 RETURNDATASIZE PUSH1 0xA0 GT PUSH2 0x35E JUMPI JUMPDEST PUSH2 0x34B DUP2 DUP4 PUSH2 0x1AEC JUMP JUMPDEST DUP2 ADD SWAP1 PUSH2 0x1CAE JUMP JUMPDEST SWAP4 POP POP POP POP CODESIZE PUSH2 0x2E4 JUMP JUMPDEST POP RETURNDATASIZE PUSH2 0x341 JUMP JUMPDEST PUSH1 0x40 MLOAD RETURNDATASIZE DUP6 DUP3 RETURNDATACOPY RETURNDATASIZE SWAP1 REVERT JUMPDEST SWAP1 POP PUSH1 0x20 DUP2 RETURNDATASIZE PUSH1 0x20 GT PUSH2 0x39F JUMPI JUMPDEST DUP2 PUSH2 0x38B PUSH1 0x20 SWAP4 DUP4 PUSH2 0x1AEC JUMP JUMPDEST DUP2 ADD SUB SLT PUSH2 0x39A JUMPI MLOAD CODESIZE PUSH2 0x2AD JUMP JUMPDEST PUSH1 0x0 DUP1 REVERT JUMPDEST RETURNDATASIZE SWAP2 POP PUSH2 0x37E JUMP JUMPDEST PUSH1 0x40 MLOAD RETURNDATASIZE DUP5 DUP3 RETURNDATACOPY RETURNDATASIZE SWAP1 REVERT JUMPDEST POP CALLVALUE PUSH2 0x233 JUMPI DUP1 PUSH1 0x3 NOT CALLDATASIZE ADD SLT PUSH2 0x233 JUMPI PUSH1 0x20 PUSH1 0x40 MLOAD PUSH1 0x14 DUP2 MSTORE RETURN JUMPDEST POP CALLVALUE PUSH2 0x233 JUMPI DUP1 PUSH1 0x3 NOT CALLDATASIZE ADD SLT PUSH2 0x233 JUMPI PUSH1 0x20 PUSH1 0x8 SLOAD PUSH1 0x40 MLOAD SWAP1 DUP2 MSTORE RETURN JUMPDEST POP CALLVALUE PUSH2 0x233 JUMPI DUP1 PUSH1 0x3 NOT CALLDATASIZE ADD SLT PUSH2 0x233 JUMPI PUSH1 0x20 PUSH1 0xC SLOAD PUSH1 0x40 MLOAD SWAP1 DUP2 MSTORE RETURN JUMPDEST POP CALLVALUE PUSH2 0x233 JUMPI DUP1 PUSH1 0x3 NOT CALLDATASIZE ADD SLT PUSH2 0x233 JUMPI PUSH2 0x423 PUSH2 0x1D05 JUMP JUMPDEST PUSH2 0x42B PUSH2 0x1D91 JUMP JUMPDEST DUP1 SLOAD PUSH1 0x40 MLOAD PUSH4 0x70A08231 PUSH1 0xE0 SHL DUP2 MSTORE ADDRESS PUSH1 0x4 DUP3 ADD MSTORE PUSH1 0x1 PUSH1 0x1 PUSH1 0xA0 SHL SUB SWAP1 SWAP2 AND SWAP1 PUSH1 0x20 DUP2 PUSH1 0x24 DUP2 DUP6 GAS STATICCALL SWAP1 DUP2 ISZERO PUSH2 0x365 JUMPI DUP4 SWAP2 PUSH2 0x63C JUMPI JUMPDEST POP PUSH1 0x5 SLOAD SWAP2 DUP2 DUP1 PUSH2 0x5EA JUMPI JUMPDEST POP POP DUP3 JUMPDEST DUP3 DUP2 LT PUSH2 0x53D JUMPI POP PUSH1 0x5 SLOAD DUP4 PUSH1 0x5 SSTORE DUP1 PUSH2 0x4DD JUMPI JUMPDEST POP PUSH1 0x4 SLOAD PUSH1 0x40 DUP1 MLOAD SWAP3 DUP4 MSTORE PUSH1 0x20 DUP4 ADD SWAP4 SWAP1 SWAP4 MSTORE PUSH1 0x1 PUSH1 0x1 PUSH1 0xA0 SHL SUB AND SWAP2 PUSH32 0x56DA9A5AE0BCF6E7C3FDD78A10550E7D0458DE1C39BFB7F6E96A3E92DD344A68 SWAP2 LOG2 PUSH1 0x1 PUSH1 0x0 DUP1 MLOAD PUSH1 0x20 PUSH2 0x2473 DUP4 CODECOPY DUP2 MLOAD SWAP2 MSTORE SSTORE DUP1 RETURN JUMPDEST PUSH1 0x5 DUP5 MSTORE PUSH32 0x36B6384B5ECA791C62761152D0C79BB0604C104A5FB6F4EB0703F3154BB3DB0 ADD PUSH32 0x36B6384B5ECA791C62761152D0C79BB0604C104A5FB6F4EB0703F3154BB3DB0 JUMPDEST DUP2 DUP2 LT PUSH2 0x532 JUMPI POP PUSH2 0x488 JUMP JUMPDEST DUP5 DUP2 SSTORE PUSH1 0x1 ADD PUSH2 0x525 JUMP JUMPDEST PUSH2 0x546 DUP2 PUSH2 0x1B40 JUMP JUMPDEST SWAP1 SLOAD SWAP1 PUSH1 0x3 SHL SHR SWAP1 DUP5 PUSH1 0x1 DUP1 PUSH1 0xA0 SHL SUB PUSH1 0x2 SLOAD AND PUSH1 0x1 DUP1 PUSH1 0xA0 SHL SUB PUSH1 0x4 SLOAD AND SWAP1 DUP1 EXTCODESIZE ISZERO PUSH2 0x5E6 JUMPI PUSH1 0x40 MLOAD PUSH4 0x21421707 PUSH1 0xE1 SHL DUP2 MSTORE ADDRESS PUSH1 0x4 DUP3 ADD MSTORE PUSH1 0x1 PUSH1 0x1 PUSH1 0xA0 SHL SUB SWAP3 SWAP1 SWAP3 AND PUSH1 0x24 DUP4 ADD MSTORE PUSH1 0x44 DUP3 ADD DUP6 SWAP1 MSTORE DUP3 SWAP1 DUP3 SWAP1 PUSH1 0x64 SWAP1 DUP3 SWAP1 DUP5 SWAP1 GAS CALL DUP1 ISZERO PUSH2 0x3A7 JUMPI PUSH2 0x5CD JUMPI JUMPDEST POP SWAP2 PUSH1 0x1 SWAP3 MSTORE PUSH1 0x6 PUSH1 0x20 MSTORE PUSH1 0x40 DUP6 KECCAK256 PUSH1 0xFF NOT DUP2 SLOAD AND SWAP1 SSTORE ADD PUSH2 0x473 JUMP JUMPDEST DUP2 PUSH2 0x5D7 SWAP2 PUSH2 0x1AEC JUMP JUMPDEST PUSH2 0x5E2 JUMPI DUP5 CODESIZE PUSH2 0x5B0 JUMP JUMPDEST DUP5 DUP1 REVERT JUMPDEST DUP3 DUP1 REVERT JUMPDEST PUSH1 0x4 SLOAD PUSH1 0x40 MLOAD PUSH4 0xA9059CBB PUSH1 0xE0 SHL PUSH1 0x20 DUP3 ADD MSTORE PUSH1 0x1 PUSH1 0x1 PUSH1 0xA0 SHL SUB SWAP1 SWAP2 AND PUSH1 0x24 DUP3 ADD MSTORE PUSH1 0x44 DUP2 ADD SWAP2 SWAP1 SWAP2 MSTORE PUSH2 0x635 SWAP2 PUSH2 0x630 DUP3 PUSH1 0x64 DUP2 ADD JUMPDEST SUB PUSH1 0x1F NOT DUP2 ADD DUP5 MSTORE DUP4 PUSH2 0x1AEC JUMP JUMPDEST PUSH2 0x2328 JUMP JUMPDEST CODESIZE DUP2 PUSH2 0x46F JUMP JUMPDEST SWAP1 POP PUSH1 0x20 DUP2 RETURNDATASIZE PUSH1 0x20 GT PUSH2 0x666 JUMPI JUMPDEST DUP2 PUSH2 0x657 PUSH1 0x20 SWAP4 DUP4 PUSH2 0x1AEC JUMP JUMPDEST DUP2 ADD SUB SLT PUSH2 0x39A JUMPI MLOAD CODESIZE PUSH2 0x463 JUMP JUMPDEST RETURNDATASIZE SWAP2 POP PUSH2 0x64A JUMP JUMPDEST POP CALLVALUE PUSH2 0x233 JUMPI DUP1 PUSH1 0x3 NOT CALLDATASIZE ADD SLT PUSH2 0x233 JUMPI PUSH2 0x687 PUSH2 0x1D91 JUMP JUMPDEST PUSH2 0x68F PUSH2 0x1DCD JUMP JUMPDEST PUSH1 0x3 SLOAD PUSH1 0x1 PUSH1 0x1 PUSH1 0xA0 SHL SUB AND CALLER EQ ISZERO DUP1 PUSH2 0x6E5 JUMPI JUMPDEST PUSH2 0x6D2 JUMPI PUSH1 0x40 PUSH2 0x6B2 PUSH2 0x214E JUMP JUMPDEST PUSH1 0x1 PUSH1 0x0 DUP1 MLOAD PUSH1 0x20 PUSH2 0x2473 DUP4 CODECOPY DUP2 MLOAD SWAP2 MSTORE SSTORE DUP3 MLOAD SWAP2 ISZERO ISZERO DUP3 MSTORE PUSH1 0x20 DUP3 ADD MSTORE RETURN JUMPDEST PUSH4 0x4A0BFEC1 PUSH1 0xE0 SHL DUP2 MSTORE CALLER PUSH1 0x4 MSTORE PUSH1 0x24 SWAP1 REVERT JUMPDEST POP PUSH1 0x0 DUP1 MLOAD PUSH1 0x20 PUSH2 0x2413 DUP4 CODECOPY DUP2 MLOAD SWAP2 MSTORE SLOAD PUSH1 0x1 PUSH1 0x1 PUSH1 0xA0 SHL SUB AND CALLER EQ ISZERO PUSH2 0x6A4 JUMP JUMPDEST POP CALLVALUE PUSH2 0x233 JUMPI DUP1 PUSH1 0x3 NOT CALLDATASIZE ADD SLT PUSH2 0x233 JUMPI PUSH1 0x20 PUSH1 0x40 MLOAD PUSH4 0x30A32C0 DUP2 MSTORE RETURN JUMPDEST POP CALLVALUE PUSH2 0x233 JUMPI DUP1 PUSH1 0x3 NOT CALLDATASIZE ADD SLT PUSH2 0x233 JUMPI SLOAD PUSH1 0x40 MLOAD PUSH1 0x1 PUSH1 0x1 PUSH1 0xA0 SHL SUB SWAP1 SWAP2 AND DUP2 MSTORE PUSH1 0x20 SWAP1 RETURN JUMPDEST POP CALLVALUE PUSH2 0x233 JUMPI PUSH1 0xC0 CALLDATASIZE PUSH1 0x3 NOT ADD SLT PUSH2 0x233 JUMPI PUSH2 0x767 PUSH2 0x1AC0 JUMP JUMPDEST PUSH2 0x76F PUSH2 0x1AD6 JUMP JUMPDEST SWAP1 PUSH1 0x44 CALLDATALOAD PUSH1 0x1 PUSH1 0x1 PUSH1 0xA0 SHL SUB DUP2 AND SWAP2 SWAP1 DUP3 SWAP1 SUB PUSH2 0x9D5 JUMPI PUSH1 0x64 CALLDATALOAD PUSH1 0x1 PUSH1 0x1 PUSH1 0xA0 SHL SUB DUP2 AND SWAP1 DUP2 SWAP1 SUB PUSH2 0x5E2 JUMPI PUSH1 0x84 CALLDATALOAD PUSH1 0x1 PUSH1 0x1 PUSH1 0xA0 SHL SUB DUP2 AND SWAP2 SWAP1 DUP3 SWAP1 SUB PUSH2 0x9D1 JUMPI PUSH1 0xA4 CALLDATALOAD PUSH1 0x1 PUSH1 0x1 PUSH1 0xA0 SHL SUB DUP2 AND SWAP5 SWAP1 DUP6 SWAP1 SUB PUSH2 0x9CD JUMPI PUSH1 0x0 DUP1 MLOAD PUSH1 0x20 PUSH2 0x2493 DUP4 CODECOPY DUP2 MLOAD SWAP2 MSTORE SLOAD SWAP6 PUSH1 0xFF DUP8 PUSH1 0x40 SHR AND ISZERO SWAP7 PUSH8 0xFFFFFFFFFFFFFFFF DUP2 AND DUP1 ISZERO SWAP1 DUP2 PUSH2 0x9C5 JUMPI JUMPDEST PUSH1 0x1 EQ SWAP1 DUP2 PUSH2 0x9BB JUMPI JUMPDEST ISZERO SWAP1 DUP2 PUSH2 0x9B2 JUMPI JUMPDEST POP PUSH2 0x9A3 JUMPI PUSH8 0xFFFFFFFFFFFFFFFF NOT DUP2 AND PUSH1 0x1 OR PUSH1 0x0 DUP1 MLOAD PUSH1 0x20 PUSH2 0x2493 DUP4 CODECOPY DUP2 MLOAD SWAP2 MSTORE SSTORE DUP8 PUSH2 0x976 JUMPI JUMPDEST POP PUSH1 0x1 PUSH1 0x1 PUSH1 0xA0 SHL SUB DUP6 AND ISZERO PUSH2 0x967 JUMPI PUSH1 0x1 PUSH1 0x1 PUSH1 0xA0 SHL SUB AND SWAP4 DUP5 ISZERO PUSH2 0x967 JUMPI DUP2 ISZERO PUSH2 0x967 JUMPI DUP3 ISZERO PUSH2 0x967 JUMPI DUP4 ISZERO PUSH2 0x967 JUMPI PUSH2 0x877 SWAP1 PUSH2 0x86F PUSH2 0x2383 JUMP JUMPDEST PUSH2 0x25B PUSH2 0x2383 JUMP JUMPDEST PUSH2 0x87F PUSH2 0x2383 JUMP JUMPDEST PUSH2 0x887 PUSH2 0x2383 JUMP JUMPDEST PUSH2 0x88F PUSH2 0x2383 JUMP JUMPDEST PUSH1 0x1 PUSH1 0x0 DUP1 MLOAD PUSH1 0x20 PUSH2 0x2473 DUP4 CODECOPY DUP2 MLOAD SWAP2 MSTORE SSTORE PUSH2 0x8A9 PUSH2 0x2383 JUMP JUMPDEST PUSH1 0x1 PUSH1 0x1 PUSH1 0x60 SHL SUB PUSH1 0xA0 SHL DUP8 SLOAD AND OR DUP7 SSTORE PUSH1 0x1 PUSH1 0x1 PUSH1 0x60 SHL SUB PUSH1 0xA0 SHL PUSH1 0x1 SLOAD AND OR PUSH1 0x1 SSTORE PUSH1 0x1 PUSH1 0x1 PUSH1 0x60 SHL SUB PUSH1 0xA0 SHL PUSH1 0x2 SLOAD AND OR PUSH1 0x2 SSTORE PUSH1 0x1 PUSH1 0x1 PUSH1 0x60 SHL SUB PUSH1 0xA0 SHL PUSH1 0x4 SLOAD AND OR PUSH1 0x4 SSTORE PUSH1 0x1 PUSH1 0x1 PUSH1 0x60 SHL SUB PUSH1 0xA0 SHL PUSH1 0x3 SLOAD AND OR PUSH1 0x3 SSTORE PUSH2 0x90D JUMPI DUP1 RETURN JUMPDEST PUSH9 0xFF0000000000000000 NOT PUSH1 0x0 DUP1 MLOAD PUSH1 0x20 PUSH2 0x2493 DUP4 CODECOPY DUP2 MLOAD SWAP2 MSTORE SLOAD AND PUSH1 0x0 DUP1 MLOAD PUSH1 0x20 PUSH2 0x2493 DUP4 CODECOPY DUP2 MLOAD SWAP2 MSTORE SSTORE PUSH32 0xC7F505B2F371AE2175EE4913F4499E1F2633A7B5936321EED1CDAEB6115181D2 PUSH1 0x20 PUSH1 0x40 MLOAD PUSH1 0x1 DUP2 MSTORE LOG1 DUP1 RETURN JUMPDEST PUSH4 0xD92E233D PUSH1 0xE0 SHL DUP9 MSTORE PUSH1 0x4 DUP9 REVERT JUMPDEST PUSH9 0xFFFFFFFFFFFFFFFFFF NOT AND PUSH9 0x10000000000000001 OR PUSH1 0x0 DUP1 MLOAD PUSH1 0x20 PUSH2 0x2493 DUP4 CODECOPY DUP2 MLOAD SWAP2 MSTORE SSTORE CODESIZE PUSH2 0x831 JUMP JUMPDEST PUSH4 0xF92EE8A9 PUSH1 0xE0 SHL DUP10 MSTORE PUSH1 0x4 DUP10 REVERT JUMPDEST SWAP1 POP ISZERO CODESIZE PUSH2 0x807 JUMP JUMPDEST ADDRESS EXTCODESIZE ISZERO SWAP2 POP PUSH2 0x7FF JUMP JUMPDEST DUP10 SWAP2 POP PUSH2 0x7F5 JUMP JUMPDEST DUP7 DUP1 REVERT JUMPDEST DUP6 DUP1 REVERT JUMPDEST DUP4 DUP1 REVERT JUMPDEST POP CALLVALUE PUSH2 0x233 JUMPI DUP1 PUSH1 0x3 NOT CALLDATASIZE ADD SLT PUSH2 0x233 JUMPI PUSH1 0x8 SLOAD PUSH1 0x9 SLOAD PUSH1 0xA SLOAD PUSH1 0x5 SLOAD DUP5 SLOAD PUSH1 0x40 MLOAD PUSH4 0x70A08231 PUSH1 0xE0 SHL DUP2 MSTORE ADDRESS PUSH1 0x4 DUP3 ADD MSTORE SWAP6 SWAP4 SWAP2 SWAP3 SWAP2 SWAP1 PUSH1 0x20 SWAP1 DUP8 SWAP1 PUSH1 0x24 SWAP1 DUP3 SWAP1 PUSH1 0x1 PUSH1 0x1 PUSH1 0xA0 SHL SUB AND GAS STATICCALL SWAP4 DUP5 ISZERO PUSH2 0xA88 JUMPI SWAP4 PUSH2 0xA53 JUMPI JUMPDEST PUSH1 0xA0 SWAP6 POP PUSH1 0x40 MLOAD SWAP5 DUP6 MSTORE PUSH1 0x20 DUP6 ADD MSTORE PUSH1 0x40 DUP5 ADD MSTORE PUSH1 0x60 DUP4 ADD MSTORE PUSH1 0x80 DUP3 ADD MSTORE RETURN JUMPDEST SWAP3 POP PUSH1 0x20 DUP6 RETURNDATASIZE PUSH1 0x20 GT PUSH2 0xA80 JUMPI JUMPDEST DUP2 PUSH2 0xA6E PUSH1 0x20 SWAP4 DUP4 PUSH2 0x1AEC JUMP JUMPDEST DUP2 ADD SUB SLT PUSH2 0x39A JUMPI PUSH1 0xA0 SWAP5 MLOAD SWAP3 PUSH2 0xA33 JUMP JUMPDEST RETURNDATASIZE SWAP2 POP PUSH2 0xA61 JUMP JUMPDEST PUSH1 0x40 MLOAD SWAP1 RETURNDATASIZE SWAP1 DUP3 RETURNDATACOPY RETURNDATASIZE SWAP1 REVERT JUMPDEST POP CALLVALUE PUSH2 0x233 JUMPI DUP1 PUSH1 0x3 NOT CALLDATASIZE ADD SLT PUSH2 0x233 JUMPI PUSH1 0x20 PUSH1 0x40 MLOAD PUSH1 0x6 DUP2 MSTORE RETURN JUMPDEST POP CALLVALUE PUSH2 0x233 JUMPI PUSH1 0x20 CALLDATASIZE PUSH1 0x3 NOT ADD SLT PUSH2 0x233 JUMPI PUSH1 0x4 CALLDATALOAD PUSH2 0xACD PUSH2 0x1D91 JUMP JUMPDEST PUSH2 0xAD5 PUSH2 0x1DCD JUMP JUMPDEST DUP1 ISZERO PUSH2 0xBCC JUMPI DUP2 SLOAD PUSH1 0x40 MLOAD PUSH4 0x23B872DD PUSH1 0xE0 SHL PUSH1 0x20 DUP3 ADD MSTORE CALLER PUSH1 0x24 DUP3 ADD MSTORE ADDRESS PUSH1 0x44 DUP3 ADD MSTORE PUSH1 0x64 DUP2 ADD DUP4 SWAP1 MSTORE PUSH2 0xB1A SWAP2 PUSH1 0x1 PUSH1 0x1 PUSH1 0xA0 SHL SUB AND PUSH2 0x630 DUP3 PUSH1 0x84 DUP2 ADD PUSH2 0x622 JUMP JUMPDEST DUP2 SLOAD PUSH1 0x40 MLOAD PUSH4 0x70A08231 PUSH1 0xE0 SHL DUP2 MSTORE ADDRESS PUSH1 0x4 DUP3 ADD MSTORE SWAP1 PUSH1 0x20 SWAP1 DUP3 SWAP1 PUSH1 0x24 SWAP1 DUP3 SWAP1 PUSH1 0x1 PUSH1 0x1 PUSH1 0xA0 SHL SUB AND GAS STATICCALL SWAP1 DUP2 ISZERO PUSH2 0x365 JUMPI DUP4 SWAP2 PUSH2 0xB9A JUMPI JUMPDEST POP PUSH1 0x40 MLOAD SWAP2 DUP3 MSTORE PUSH1 0x20 DUP3 ADD MSTORE PUSH32 0x2F22B7F6E7F7DF7D0EB3D1A543A2B6EB906E76A03540C2D66D2725270A5F6D31 PUSH1 0x40 CALLER SWAP3 LOG2 PUSH1 0x1 PUSH1 0x0 DUP1 MLOAD PUSH1 0x20 PUSH2 0x2473 DUP4 CODECOPY DUP2 MLOAD SWAP2 MSTORE SSTORE DUP1 RETURN JUMPDEST SWAP1 POP PUSH1 0x20 DUP2 RETURNDATASIZE PUSH1 0x20 GT PUSH2 0xBC4 JUMPI JUMPDEST DUP2 PUSH2 0xBB5 PUSH1 0x20 SWAP4 DUP4 PUSH2 0x1AEC JUMP JUMPDEST DUP2 ADD SUB SLT PUSH2 0x39A JUMPI MLOAD CODESIZE PUSH2 0xB53 JUMP JUMPDEST RETURNDATASIZE SWAP2 POP PUSH2 0xBA8 JUMP JUMPDEST PUSH4 0x162908E3 PUSH1 0xE1 SHL DUP3 MSTORE PUSH1 0x4 DUP3 REVERT JUMPDEST POP CALLVALUE PUSH2 0x233 JUMPI PUSH1 0x20 CALLDATASIZE PUSH1 0x3 NOT ADD SLT PUSH2 0x233 JUMPI PUSH2 0xBF5 PUSH2 0x1AC0 JUMP JUMPDEST PUSH2 0xBFD PUSH2 0x1D05 JUMP JUMPDEST PUSH1 0x1 PUSH1 0x1 PUSH1 0xA0 SHL SUB DUP2 AND ISZERO PUSH2 0xC76 JUMPI PUSH1 0x0 DUP1 MLOAD PUSH1 0x20 PUSH2 0x2413 DUP4 CODECOPY DUP2 MLOAD SWAP2 MSTORE SLOAD PUSH32 0x1AE677BCBCA66F3BCF12DAF4568DD58CEAC4A4016C2C6DA39A6EC63FA9B64345 SWAP2 SWAP1 PUSH1 0x1 PUSH1 0x1 PUSH1 0xA0 SHL SUB AND PUSH2 0xC51 DUP3 PUSH2 0x1D3B JUMP JUMPDEST PUSH1 0x40 DUP1 MLOAD PUSH1 0x1 PUSH1 0x1 PUSH1 0xA0 SHL SUB SWAP3 DUP4 AND DUP2 MSTORE SWAP3 SWAP1 SWAP2 AND PUSH1 0x20 DUP4 ADD MSTORE DUP2 SWAP1 DUP2 ADD JUMPDEST SUB SWAP1 LOG1 DUP1 RETURN JUMPDEST PUSH4 0xD92E233D PUSH1 0xE0 SHL DUP3 MSTORE PUSH1 0x4 DUP3 REVERT JUMPDEST POP CALLVALUE PUSH2 0x233 JUMPI PUSH1 0x20 CALLDATASIZE PUSH1 0x3 NOT ADD SLT PUSH2 0x233 JUMPI PUSH2 0xC9F PUSH2 0x1AC0 JUMP JUMPDEST PUSH2 0xCA7 PUSH2 0x1D05 JUMP JUMPDEST PUSH1 0x1 PUSH1 0x1 PUSH1 0xA0 SHL SUB DUP2 AND DUP1 ISZERO PUSH2 0xD10 JUMPI PUSH1 0x3 DUP1 SLOAD PUSH1 0x1 PUSH1 0x1 PUSH1 0xA0 SHL SUB NOT DUP2 AND SWAP1 SWAP3 OR SWAP1 SSTORE PUSH1 0x40 DUP1 MLOAD PUSH1 0x1 PUSH1 0x1 PUSH1 0xA0 SHL SUB SWAP3 DUP4 AND DUP2 MSTORE SWAP2 SWAP1 SWAP3 AND PUSH1 0x20 DUP3 ADD MSTORE PUSH32 0xF66399FE71A8AEEF123694608632EA96EA22BB57F3831B48BE1EDD314BD320CB SWAP2 DUP2 SWAP1 DUP2 ADD PUSH2 0xC70 JUMP JUMPDEST PUSH4 0xD92E233D PUSH1 0xE0 SHL DUP4 MSTORE PUSH1 0x4 DUP4 REVERT JUMPDEST POP CALLVALUE PUSH2 0x233 JUMPI PUSH1 0x40 CALLDATASIZE PUSH1 0x3 NOT ADD SLT PUSH2 0x233 JUMPI PUSH2 0xD39 PUSH2 0x1AC0 JUMP JUMPDEST PUSH1 0x24 CALLDATALOAD SWAP2 PUSH2 0xD45 PUSH2 0x1D91 JUMP JUMPDEST PUSH2 0xD4D PUSH2 0x1DCD JUMP JUMPDEST PUSH1 0x3 SLOAD PUSH1 0x1 PUSH1 0x1 PUSH1 0xA0 SHL SUB AND CALLER SUB PUSH2 0x6D2 JUMPI PUSH1 0x1 PUSH1 0x1 PUSH1 0xA0 SHL SUB DUP3 AND SWAP2 DUP3 ISZERO PUSH2 0xC76 JUMPI DUP4 DUP3 MSTORE PUSH1 0x6 PUSH1 0x20 MSTORE PUSH1 0xFF PUSH1 0x40 DUP4 KECCAK256 SLOAD AND ISZERO PUSH2 0xE50 JUMPI PUSH2 0xD8E DUP5 PUSH2 0x1DF7 JUMP JUMPDEST PUSH1 0x2 SLOAD PUSH1 0x1 PUSH1 0x1 PUSH1 0xA0 SHL SUB AND SWAP1 DUP2 EXTCODESIZE ISZERO PUSH2 0x5E6 JUMPI PUSH1 0x40 MLOAD PUSH4 0x21421707 PUSH1 0xE1 SHL DUP2 MSTORE ADDRESS PUSH1 0x4 DUP3 ADD MSTORE PUSH1 0x1 PUSH1 0x1 PUSH1 0xA0 SHL SUB SWAP2 SWAP1 SWAP2 AND PUSH1 0x24 DUP3 ADD MSTORE PUSH1 0x44 DUP2 ADD DUP6 SWAP1 MSTORE SWAP1 DUP3 SWAP1 DUP3 SWAP1 PUSH1 0x64 SWAP1 DUP3 SWAP1 DUP5 SWAP1 GAS CALL DUP1 ISZERO PUSH2 0x3A7 JUMPI PUSH2 0xE40 JUMPI JUMPDEST POP POP PUSH2 0xDF3 PUSH1 0x9 SLOAD PUSH2 0x1B71 JUMP JUMPDEST PUSH1 0x9 SSTORE PUSH32 0x55144F84A06ABA3B3A5C49B5D2D0D2A1FED9E25F465A2CC0F4A23B883C478215 PUSH1 0x20 PUSH1 0x5 SLOAD PUSH1 0x40 MLOAD SWAP1 DUP2 MSTORE LOG3 PUSH1 0x1 PUSH1 0x0 DUP1 MLOAD PUSH1 0x20 PUSH2 0x2473 DUP4 CODECOPY DUP2 MLOAD SWAP2 MSTORE SSTORE PUSH1 0x20 PUSH1 0x40 MLOAD PUSH1 0x1 DUP2 MSTORE RETURN JUMPDEST DUP2 PUSH2 0xE4A SWAP2 PUSH2 0x1AEC JUMP JUMPDEST CODESIZE PUSH2 0xDE6 JUMP JUMPDEST PUSH4 0x29762DBF PUSH1 0xE2 SHL DUP3 MSTORE PUSH1 0x4 DUP5 SWAP1 MSTORE PUSH1 0x24 DUP3 REVERT JUMPDEST POP CALLVALUE PUSH2 0x233 JUMPI DUP1 PUSH1 0x3 NOT CALLDATASIZE ADD SLT PUSH2 0x233 JUMPI PUSH1 0x20 PUSH1 0x5 SLOAD PUSH1 0x40 MLOAD SWAP1 DUP2 MSTORE RETURN JUMPDEST POP CALLVALUE PUSH2 0x233 JUMPI DUP1 PUSH1 0x3 NOT CALLDATASIZE ADD SLT PUSH2 0x233 JUMPI PUSH1 0x40 DUP1 MLOAD SWAP2 PUSH2 0xEA2 DUP3 DUP5 PUSH2 0x1AEC JUMP JUMPDEST PUSH1 0x5 DUP4 MSTORE PUSH5 0x352E302E3 PUSH1 0xDC SHL PUSH1 0x20 DUP5 ADD MSTORE DUP2 MLOAD SWAP3 DUP4 SWAP2 PUSH1 0x20 DUP4 MSTORE DUP2 MLOAD SWAP2 DUP3 PUSH1 0x20 DUP6 ADD MSTORE DUP2 JUMPDEST DUP4 DUP2 LT PUSH2 0xEE5 JUMPI POP POP DUP3 DUP3 ADD DUP5 ADD MSTORE PUSH1 0x1F ADD PUSH1 0x1F NOT AND DUP2 ADD SUB ADD SWAP1 RETURN JUMPDEST PUSH1 0x20 DUP3 DUP3 ADD DUP2 ADD MLOAD DUP9 DUP4 ADD DUP9 ADD MSTORE DUP8 SWAP6 POP ADD PUSH2 0xEC8 JUMP JUMPDEST POP CALLVALUE PUSH2 0x233 JUMPI PUSH1 0x20 CALLDATASIZE PUSH1 0x3 NOT ADD SLT PUSH2 0x233 JUMPI PUSH2 0xF16 PUSH2 0x1AC0 JUMP JUMPDEST PUSH2 0xF1E PUSH2 0x1D05 JUMP JUMPDEST PUSH1 0x1 PUSH1 0x1 PUSH1 0xA0 SHL SUB DUP2 AND DUP1 ISZERO PUSH2 0xD10 JUMPI PUSH1 0x4 DUP1 SLOAD PUSH1 0x1 PUSH1 0x1 PUSH1 0xA0 SHL SUB NOT DUP2 AND SWAP1 SWAP3 OR SWAP1 SSTORE PUSH1 0x40 DUP1 MLOAD PUSH1 0x1 PUSH1 0x1 PUSH1 0xA0 SHL SUB SWAP3 DUP4 AND DUP2 MSTORE SWAP2 SWAP1 SWAP3 AND PUSH1 0x20 DUP3 ADD MSTORE PUSH32 0xA982575859D7AD2F390DC12B23F7DAB8BBDA047F9D0140AC68344B27BF34BFB4 SWAP2 DUP2 SWAP1 DUP2 ADD PUSH2 0xC70 JUMP JUMPDEST POP CALLVALUE PUSH2 0x233 JUMPI DUP1 PUSH1 0x3 NOT CALLDATASIZE ADD SLT PUSH2 0x233 JUMPI PUSH1 0x0 DUP1 MLOAD PUSH1 0x20 PUSH2 0x2413 DUP4 CODECOPY DUP2 MLOAD SWAP2 MSTORE SLOAD PUSH1 0x40 MLOAD PUSH1 0x1 PUSH1 0x1 PUSH1 0xA0 SHL SUB SWAP1 SWAP2 AND DUP2 MSTORE PUSH1 0x20 SWAP1 RETURN JUMPDEST POP CALLVALUE PUSH2 0x233 JUMPI DUP1 PUSH1 0x3 NOT CALLDATASIZE ADD SLT PUSH2 0x233 JUMPI PUSH2 0xFD6 PUSH2 0x1D05 JUMP JUMPDEST PUSH2 0xFDE PUSH2 0x1DCD JUMP JUMPDEST PUSH1 0x1 PUSH1 0xFF NOT PUSH1 0x0 DUP1 MLOAD PUSH1 0x20 PUSH2 0x2453 DUP4 CODECOPY DUP2 MLOAD SWAP2 MSTORE SLOAD AND OR PUSH1 0x0 DUP1 MLOAD PUSH1 0x20 PUSH2 0x2453 DUP4 CODECOPY DUP2 MLOAD SWAP2 MSTORE SSTORE PUSH32 0x62E78CEA01BEE320CD4E420270B5EA74000D11B0C9F74754EBDBFC544B05A258 PUSH1 0x20 PUSH1 0x40 MLOAD CALLER DUP2 MSTORE LOG1 DUP1 RETURN JUMPDEST POP CALLVALUE PUSH2 0x233 JUMPI PUSH1 0x20 CALLDATASIZE PUSH1 0x3 NOT ADD SLT PUSH2 0x233 JUMPI PUSH1 0x4 CALLDATALOAD SWAP1 PUSH1 0x5 SLOAD DUP3 LT ISZERO PUSH2 0x233 JUMPI PUSH1 0x20 PUSH2 0x105D DUP4 PUSH2 0x1B40 JUMP JUMPDEST SWAP1 SLOAD SWAP1 PUSH1 0x3 SHL SHR PUSH1 0x40 MLOAD SWAP1 DUP2 MSTORE RETURN JUMPDEST POP CALLVALUE PUSH2 0x233 JUMPI DUP1 PUSH1 0x3 NOT CALLDATASIZE ADD SLT PUSH2 0x233 JUMPI PUSH2 0x1085 PUSH2 0x1D91 JUMP JUMPDEST PUSH2 0x108D PUSH2 0x1DCD JUMP JUMPDEST PUSH2 0x1095 PUSH2 0x1D05 JUMP JUMPDEST PUSH1 0x14 PUSH1 0x5 SLOAD LT ISZERO PUSH2 0x11BA JUMPI PUSH1 0x1 SLOAD PUSH1 0x40 MLOAD PUSH4 0x2DABC24F PUSH1 0xE0 SHL DUP2 MSTORE SWAP2 SWAP1 PUSH1 0xA0 SWAP1 DUP4 SWAP1 PUSH1 0x4 SWAP1 DUP3 SWAP1 PUSH1 0x1 PUSH1 0x1 PUSH1 0xA0 SHL SUB AND GAS STATICCALL SWAP2 DUP3 ISZERO PUSH2 0x11AD JUMPI DUP2 SWAP3 PUSH2 0x1187 JUMPI JUMPDEST POP DUP1 SLOAD PUSH1 0x40 MLOAD PUSH4 0x70A08231 PUSH1 0xE0 SHL DUP2 MSTORE ADDRESS PUSH1 0x4 DUP3 ADD MSTORE SWAP1 PUSH1 0x20 SWAP1 DUP3 SWAP1 PUSH1 0x24 SWAP1 DUP3 SWAP1 PUSH1 0x1 PUSH1 0x1 PUSH1 0xA0 SHL SUB AND GAS STATICCALL SWAP1 DUP2 ISZERO PUSH2 0x3A7 JUMPI DUP3 SWAP2 PUSH2 0x1151 JUMPI JUMPDEST POP DUP3 DUP2 LT PUSH2 0x113C JUMPI PUSH1 0x20 PUSH2 0x1122 DUP5 PUSH2 0x1EEE JUMP JUMPDEST PUSH1 0x1 PUSH1 0x0 DUP1 MLOAD PUSH1 0x20 PUSH2 0x2473 DUP4 CODECOPY DUP2 MLOAD SWAP2 MSTORE SSTORE PUSH1 0x40 MLOAD SWAP1 DUP2 MSTORE RETURN JUMPDEST PUSH1 0x44 SWAP3 PUSH4 0xCF479181 PUSH1 0xE0 SHL DUP4 MSTORE PUSH1 0x4 MSTORE PUSH1 0x24 MSTORE REVERT JUMPDEST SWAP1 POP PUSH1 0x20 DUP2 RETURNDATASIZE PUSH1 0x20 GT PUSH2 0x117F JUMPI JUMPDEST DUP2 PUSH2 0x116C PUSH1 0x20 SWAP4 DUP4 PUSH2 0x1AEC JUMP JUMPDEST DUP2 ADD SUB SLT PUSH2 0x117B JUMPI MLOAD CODESIZE PUSH2 0x110F JUMP JUMPDEST POP DUP1 REVERT JUMPDEST RETURNDATASIZE SWAP2 POP PUSH2 0x115F JUMP JUMPDEST PUSH2 0x11A1 SWAP2 SWAP3 POP PUSH1 0xA0 RETURNDATASIZE PUSH1 0xA0 GT PUSH2 0x35E JUMPI PUSH2 0x34B DUP2 DUP4 PUSH2 0x1AEC JUMP JUMPDEST SWAP4 POP POP POP POP SWAP1 CODESIZE PUSH2 0x10D5 JUMP JUMPDEST POP PUSH1 0x40 MLOAD SWAP1 RETURNDATASIZE SWAP1 DUP3 RETURNDATACOPY RETURNDATASIZE SWAP1 REVERT JUMPDEST PUSH4 0xC6FB6E9 PUSH1 0xE3 SHL DUP2 MSTORE PUSH1 0x14 PUSH1 0x4 MSTORE PUSH1 0x24 SWAP1 REVERT JUMPDEST POP CALLVALUE PUSH2 0x233 JUMPI PUSH1 0x20 CALLDATASIZE PUSH1 0x3 NOT ADD SLT PUSH2 0x233 JUMPI PUSH1 0x20 SWAP1 PUSH1 0x4 CALLDATALOAD DUP2 MSTORE PUSH1 0xB DUP3 MSTORE PUSH1 0x40 PUSH1 0x1 DUP1 PUSH1 0xA0 SHL SUB SWAP2 KECCAK256 SLOAD AND PUSH1 0x40 MLOAD SWAP1 DUP2 MSTORE RETURN JUMPDEST POP CALLVALUE PUSH2 0x233 JUMPI DUP1 PUSH1 0x3 NOT CALLDATASIZE ADD SLT PUSH2 0x233 JUMPI PUSH1 0x20 PUSH1 0x9 SLOAD PUSH1 0x40 MLOAD SWAP1 DUP2 MSTORE RETURN JUMPDEST POP CALLVALUE PUSH2 0x233 JUMPI PUSH1 0x20 CALLDATASIZE PUSH1 0x3 NOT ADD SLT PUSH2 0x233 JUMPI PUSH2 0x1239 PUSH2 0x1AC0 JUMP JUMPDEST SWAP1 PUSH2 0x1242 PUSH2 0x1D91 JUMP JUMPDEST PUSH2 0x124A PUSH2 0x1DCD JUMP JUMPDEST PUSH1 0x3 SLOAD PUSH1 0x1 PUSH1 0x1 PUSH1 0xA0 SHL SUB AND CALLER SUB PUSH2 0x6D2 JUMPI PUSH1 0x20 PUSH2 0x1122 DUP4 PUSH2 0x1B96 JUMP JUMPDEST POP CALLVALUE PUSH2 0x233 JUMPI DUP1 PUSH1 0x3 NOT CALLDATASIZE ADD SLT PUSH2 0x233 JUMPI PUSH1 0x3 SLOAD PUSH1 0x40 MLOAD PUSH1 0x1 PUSH1 0x1 PUSH1 0xA0 SHL SUB SWAP1 SWAP2 AND DUP2 MSTORE PUSH1 0x20 SWAP1 RETURN JUMPDEST POP CALLVALUE PUSH2 0x233 JUMPI DUP1 PUSH1 0x3 NOT CALLDATASIZE ADD SLT PUSH2 0x233 JUMPI PUSH1 0x5 SLOAD PUSH1 0x14 DUP2 LT SWAP1 DUP2 ISZERO PUSH2 0x12E5 JUMPI PUSH1 0x14 SUB SWAP2 PUSH1 0x14 DUP4 GT PUSH2 0x12D1 JUMPI POP PUSH1 0xFF DUP1 PUSH1 0x40 SWAP4 AND JUMPDEST DUP4 MLOAD SWAP3 DUP4 MSTORE AND PUSH1 0x20 DUP3 ADD MSTORE RETURN JUMPDEST PUSH4 0x4E487B71 PUSH1 0xE0 SHL DUP2 MSTORE PUSH1 0x11 PUSH1 0x4 MSTORE PUSH1 0x24 SWAP1 REVERT JUMPDEST POP PUSH1 0xFF PUSH1 0x40 SWAP3 PUSH2 0x12C4 JUMP JUMPDEST POP CALLVALUE PUSH2 0x233 JUMPI DUP1 PUSH1 0x3 NOT CALLDATASIZE ADD SLT PUSH2 0x233 JUMPI PUSH2 0x1309 PUSH2 0x1D05 JUMP JUMPDEST PUSH1 0x0 DUP1 MLOAD PUSH1 0x20 PUSH2 0x2413 DUP4 CODECOPY DUP2 MLOAD SWAP2 MSTORE DUP1 SLOAD PUSH1 0x1 PUSH1 0x1 PUSH1 0xA0 SHL SUB NOT DUP2 AND SWAP1 SWAP2 SSTORE DUP2 SWAP1 PUSH1 0x1 PUSH1 0x1 PUSH1 0xA0 SHL SUB AND PUSH32 0x8BE0079C531659141344CD1FD0A4F28419497F9722A3DAAFE3B4186F6B6457E0 DUP3 DUP1 LOG3 DUP1 RETURN JUMPDEST POP CALLVALUE PUSH2 0x233 JUMPI DUP1 PUSH1 0x3 NOT CALLDATASIZE ADD SLT PUSH2 0x233 JUMPI PUSH1 0x40 MLOAD DUP1 PUSH1 0x20 PUSH1 0x5 SLOAD SWAP2 DUP3 DUP2 MSTORE ADD DUP1 SWAP2 PUSH1 0x5 DUP6 MSTORE PUSH32 0x36B6384B5ECA791C62761152D0C79BB0604C104A5FB6F4EB0703F3154BB3DB0 SWAP1 DUP6 JUMPDEST DUP2 DUP2 LT PUSH2 0x13FA JUMPI POP POP POP DUP3 PUSH2 0x13B9 SWAP2 SUB DUP4 PUSH2 0x1AEC JUMP JUMPDEST PUSH1 0x40 MLOAD SWAP3 DUP4 SWAP3 PUSH1 0x20 DUP5 ADD SWAP1 PUSH1 0x20 DUP6 MSTORE MLOAD DUP1 SWAP2 MSTORE PUSH1 0x40 DUP5 ADD SWAP3 SWAP2 JUMPDEST DUP2 DUP2 LT PUSH2 0x13E1 JUMPI POP POP POP SUB SWAP1 RETURN JUMPDEST DUP3 MLOAD DUP5 MSTORE DUP6 SWAP5 POP PUSH1 0x20 SWAP4 DUP5 ADD SWAP4 SWAP1 SWAP3 ADD SWAP2 PUSH1 0x1 ADD PUSH2 0x13D3 JUMP JUMPDEST DUP3 SLOAD DUP5 MSTORE PUSH1 0x20 SWAP1 SWAP4 ADD SWAP3 PUSH1 0x1 SWAP3 DUP4 ADD SWAP3 ADD PUSH2 0x13A3 JUMP JUMPDEST POP CALLVALUE PUSH2 0x233 JUMPI DUP1 PUSH1 0x3 NOT CALLDATASIZE ADD SLT PUSH2 0x233 JUMPI PUSH1 0x20 PUSH1 0xFF PUSH1 0x0 DUP1 MLOAD PUSH1 0x20 PUSH2 0x2453 DUP4 CODECOPY DUP2 MLOAD SWAP2 MSTORE SLOAD AND PUSH1 0x40 MLOAD SWAP1 ISZERO ISZERO DUP2 MSTORE RETURN JUMPDEST POP CALLVALUE PUSH2 0x233 JUMPI DUP1 PUSH1 0x3 NOT CALLDATASIZE ADD SLT PUSH2 0x233 JUMPI PUSH1 0x1 SLOAD PUSH1 0x40 MLOAD PUSH1 0x1 PUSH1 0x1 PUSH1 0xA0 SHL SUB SWAP1 SWAP2 AND DUP2 MSTORE PUSH1 0x20 SWAP1 RETURN JUMPDEST POP CALLVALUE PUSH2 0x233 JUMPI PUSH1 0x20 CALLDATASIZE PUSH1 0x3 NOT ADD SLT PUSH2 0x233 JUMPI PUSH1 0xFF PUSH1 0x40 PUSH1 0x20 SWAP3 PUSH1 0x4 CALLDATALOAD DUP2 MSTORE PUSH1 0x6 DUP5 MSTORE KECCAK256 SLOAD AND PUSH1 0x40 MLOAD SWAP1 ISZERO ISZERO DUP2 MSTORE RETURN JUMPDEST POP CALLVALUE PUSH2 0x233 JUMPI DUP1 PUSH1 0x3 NOT CALLDATASIZE ADD SLT PUSH2 0x233 JUMPI PUSH32 0x0 PUSH1 0x1 PUSH1 0x1 PUSH1 0xA0 SHL SUB AND ADDRESS SUB PUSH2 0x14F1 JUMPI PUSH1 0x20 PUSH1 0x40 MLOAD PUSH1 0x0 DUP1 MLOAD PUSH1 0x20 PUSH2 0x2433 DUP4 CODECOPY DUP2 MLOAD SWAP2 MSTORE DUP2 MSTORE RETURN JUMPDEST PUSH4 0x703E46DD PUSH1 0xE1 SHL DUP2 MSTORE PUSH1 0x4 SWAP1 REVERT JUMPDEST POP PUSH1 0x40 CALLDATASIZE PUSH1 0x3 NOT ADD SLT PUSH2 0x233 JUMPI PUSH2 0x1515 PUSH2 0x1AC0 JUMP JUMPDEST PUSH1 0x24 CALLDATALOAD SWAP1 PUSH8 0xFFFFFFFFFFFFFFFF DUP3 GT PUSH2 0x5E6 JUMPI CALLDATASIZE PUSH1 0x23 DUP4 ADD SLT ISZERO PUSH2 0x5E6 JUMPI DUP2 PUSH1 0x4 ADD CALLDATALOAD SWAP1 DUP4 PUSH2 0x1543 DUP4 PUSH2 0x1B24 JUMP JUMPDEST SWAP4 PUSH2 0x1551 PUSH1 0x40 MLOAD SWAP6 DUP7 PUSH2 0x1AEC JUMP JUMPDEST DUP4 DUP6 MSTORE PUSH1 0x20 DUP6 ADD SWAP4 CALLDATASIZE PUSH1 0x24 DUP3 DUP5 ADD ADD GT PUSH2 0x5E6 JUMPI DUP1 PUSH1 0x24 PUSH1 0x20 SWAP4 ADD DUP7 CALLDATACOPY DUP6 ADD ADD MSTORE PUSH1 0x1 PUSH1 0x1 PUSH1 0xA0 SHL SUB PUSH32 0x0 AND ADDRESS DUP2 EQ SWAP1 DUP2 ISZERO PUSH2 0x172A JUMPI JUMPDEST POP PUSH2 0x171B JUMPI PUSH2 0x15B4 PUSH2 0x1D05 JUMP JUMPDEST PUSH1 0x40 MLOAD PUSH4 0x52D1902D PUSH1 0xE0 SHL DUP2 MSTORE PUSH1 0x1 PUSH1 0x1 PUSH1 0xA0 SHL SUB DUP3 AND SWAP4 SWAP1 PUSH1 0x20 DUP2 PUSH1 0x4 DUP2 DUP9 GAS STATICCALL DUP7 SWAP2 DUP2 PUSH2 0x16E7 JUMPI JUMPDEST POP PUSH2 0x15F7 JUMPI PUSH4 0x4C9C8CE3 PUSH1 0xE0 SHL DUP7 MSTORE PUSH1 0x4 DUP6 SWAP1 MSTORE PUSH1 0x24 DUP7 REVERT JUMPDEST SWAP4 DUP5 PUSH1 0x0 DUP1 MLOAD PUSH1 0x20 PUSH2 0x2433 DUP4 CODECOPY DUP2 MLOAD SWAP2 MSTORE DUP8 SWAP7 SUB PUSH2 0x16D5 JUMPI POP DUP3 EXTCODESIZE ISZERO PUSH2 0x16C3 JUMPI PUSH1 0x0 DUP1 MLOAD PUSH1 0x20 PUSH2 0x2433 DUP4 CODECOPY DUP2 MLOAD SWAP2 MSTORE DUP1 SLOAD PUSH1 0x1 PUSH1 0x1 PUSH1 0xA0 SHL SUB NOT AND DUP3 OR SWAP1 SSTORE DUP5 SWAP2 SWAP1 PUSH32 0xBC7CD75A20EE27FD9ADEBAB32041F755214DBC6BFFA90CC0225B39DA2E5C2D3B DUP4 DUP1 LOG2 DUP1 MLOAD ISZERO PUSH2 0x16A8 JUMPI PUSH2 0x169C SWAP4 DUP3 SWAP2 MLOAD SWAP1 DUP5 GAS DELEGATECALL RETURNDATASIZE ISZERO PUSH2 0x16A0 JUMPI RETURNDATASIZE SWAP2 PUSH2 0x1680 DUP4 PUSH2 0x1B24 JUMP JUMPDEST SWAP3 PUSH2 0x168E PUSH1 0x40 MLOAD SWAP5 DUP6 PUSH2 0x1AEC JUMP JUMPDEST DUP4 MSTORE RETURNDATASIZE DUP6 PUSH1 0x20 DUP6 ADD RETURNDATACOPY PUSH2 0x23B1 JUMP JUMPDEST POP DUP1 RETURN JUMPDEST PUSH1 0x60 SWAP2 PUSH2 0x23B1 JUMP JUMPDEST POP POP POP POP CALLVALUE PUSH2 0x16B4 JUMPI DUP1 RETURN JUMPDEST PUSH4 0xB398979F PUSH1 0xE0 SHL DUP2 MSTORE PUSH1 0x4 SWAP1 REVERT JUMPDEST PUSH4 0x4C9C8CE3 PUSH1 0xE0 SHL DUP6 MSTORE PUSH1 0x4 MSTORE PUSH1 0x24 DUP5 REVERT JUMPDEST PUSH4 0x2A875269 PUSH1 0xE2 SHL DUP7 MSTORE PUSH1 0x4 MSTORE PUSH1 0x24 DUP6 REVERT JUMPDEST SWAP1 SWAP2 POP PUSH1 0x20 DUP2 RETURNDATASIZE PUSH1 0x20 GT PUSH2 0x1713 JUMPI JUMPDEST DUP2 PUSH2 0x1703 PUSH1 0x20 SWAP4 DUP4 PUSH2 0x1AEC JUMP JUMPDEST DUP2 ADD SUB SLT PUSH2 0x9CD JUMPI MLOAD SWAP1 CODESIZE PUSH2 0x15DE JUMP JUMPDEST RETURNDATASIZE SWAP2 POP PUSH2 0x16F6 JUMP JUMPDEST PUSH4 0x703E46DD PUSH1 0xE1 SHL DUP5 MSTORE PUSH1 0x4 DUP5 REVERT JUMPDEST PUSH1 0x0 DUP1 MLOAD PUSH1 0x20 PUSH2 0x2433 DUP4 CODECOPY DUP2 MLOAD SWAP2 MSTORE SLOAD PUSH1 0x1 PUSH1 0x1 PUSH1 0xA0 SHL SUB AND EQ ISZERO SWAP1 POP CODESIZE PUSH2 0x15A7 JUMP JUMPDEST POP CALLVALUE PUSH2 0x233 JUMPI DUP1 PUSH1 0x3 NOT CALLDATASIZE ADD SLT PUSH2 0x233 JUMPI PUSH1 0x4 SLOAD PUSH1 0x40 MLOAD PUSH1 0x1 PUSH1 0x1 PUSH1 0xA0 SHL SUB SWAP1 SWAP2 AND DUP2 MSTORE PUSH1 0x20 SWAP1 RETURN JUMPDEST POP CALLVALUE PUSH2 0x233 JUMPI DUP1 PUSH1 0x3 NOT CALLDATASIZE ADD SLT PUSH2 0x233 JUMPI PUSH2 0x178F PUSH2 0x1D05 JUMP JUMPDEST PUSH1 0x0 DUP1 MLOAD PUSH1 0x20 PUSH2 0x2453 DUP4 CODECOPY DUP2 MLOAD SWAP2 MSTORE SLOAD PUSH1 0xFF DUP2 AND ISZERO PUSH2 0x17E9 JUMPI PUSH1 0xFF NOT AND PUSH1 0x0 DUP1 MLOAD PUSH1 0x20 PUSH2 0x2453 DUP4 CODECOPY DUP2 MLOAD SWAP2 MSTORE SSTORE PUSH32 0x5DB9EE0A495BF2E6FF9C91A7834C1BA4FDD244A5E8AA4E537BD38AEAE4B073AA PUSH1 0x20 PUSH1 0x40 MLOAD CALLER DUP2 MSTORE LOG1 DUP1 RETURN JUMPDEST PUSH4 0x8DFC202B PUSH1 0xE0 SHL DUP3 MSTORE PUSH1 0x4 DUP3 REVERT JUMPDEST POP CALLVALUE PUSH2 0x233 JUMPI DUP1 PUSH1 0x3 NOT CALLDATASIZE ADD SLT PUSH2 0x233 JUMPI DUP1 SLOAD PUSH1 0x40 MLOAD PUSH4 0x70A08231 PUSH1 0xE0 SHL DUP2 MSTORE ADDRESS PUSH1 0x4 DUP3 ADD MSTORE SWAP1 PUSH1 0x20 SWAP1 DUP3 SWAP1 PUSH1 0x24 SWAP1 DUP3 SWAP1 PUSH1 0x1 PUSH1 0x1 PUSH1 0xA0 SHL SUB AND GAS STATICCALL SWAP1 DUP2 ISZERO PUSH2 0x3A7 JUMPI DUP3 SWAP2 PUSH2 0x184D JUMPI JUMPDEST PUSH1 0x20 DUP3 PUSH1 0x40 MLOAD SWAP1 DUP2 MSTORE RETURN JUMPDEST SWAP1 POP PUSH1 0x20 DUP2 RETURNDATASIZE PUSH1 0x20 GT PUSH2 0x187B JUMPI JUMPDEST DUP2 PUSH2 0x1868 PUSH1 0x20 SWAP4 DUP4 PUSH2 0x1AEC JUMP JUMPDEST DUP2 ADD SUB SLT PUSH2 0x117B JUMPI PUSH1 0x20 SWAP2 POP MLOAD CODESIZE PUSH2 0x1842 JUMP JUMPDEST RETURNDATASIZE SWAP2 POP PUSH2 0x185B JUMP JUMPDEST POP CALLVALUE PUSH2 0x233 JUMPI DUP1 PUSH1 0x3 NOT CALLDATASIZE ADD SLT PUSH2 0x233 JUMPI PUSH1 0x20 PUSH1 0xA SLOAD PUSH1 0x40 MLOAD SWAP1 DUP2 MSTORE RETURN JUMPDEST POP CALLVALUE PUSH2 0x233 JUMPI PUSH1 0x20 CALLDATASIZE PUSH1 0x3 NOT ADD SLT PUSH2 0x233 JUMPI PUSH1 0x40 PUSH1 0x20 SWAP2 PUSH1 0x4 CALLDATALOAD DUP2 MSTORE PUSH1 0x7 DUP4 MSTORE KECCAK256 SLOAD PUSH1 0x40 MLOAD SWAP1 DUP2 MSTORE RETURN JUMPDEST POP CALLVALUE PUSH2 0x233 JUMPI DUP1 PUSH1 0x3 NOT CALLDATASIZE ADD SLT PUSH2 0x233 JUMPI PUSH1 0x2 SLOAD PUSH1 0x40 MLOAD PUSH1 0x1 PUSH1 0x1 PUSH1 0xA0 SHL SUB SWAP1 SWAP2 AND DUP2 MSTORE PUSH1 0x20 SWAP1 RETURN JUMPDEST DUP3 CALLVALUE PUSH2 0x233 JUMPI PUSH1 0x80 CALLDATASIZE PUSH1 0x3 NOT ADD SLT PUSH2 0x233 JUMPI PUSH2 0x190E PUSH2 0x1AC0 JUMP JUMPDEST POP PUSH2 0x1917 PUSH2 0x1AD6 JUMP JUMPDEST POP PUSH1 0x44 CALLDATALOAD SWAP2 PUSH1 0x64 CALLDATALOAD PUSH8 0xFFFFFFFFFFFFFFFF DUP2 GT PUSH2 0x5E6 JUMPI CALLDATASIZE PUSH1 0x23 DUP3 ADD SLT ISZERO PUSH2 0x5E6 JUMPI DUP1 PUSH1 0x4 ADD CALLDATALOAD PUSH8 0xFFFFFFFFFFFFFFFF DUP2 GT PUSH2 0x9D5 JUMPI CALLDATASIZE SWAP2 ADD PUSH1 0x24 ADD GT PUSH2 0x117B JUMPI PUSH1 0x2 SLOAD PUSH1 0x1 PUSH1 0x1 PUSH1 0xA0 SHL SUB AND CALLER EQ PUSH2 0x197D JUMPI JUMPDEST PUSH1 0x40 MLOAD PUSH4 0xA85BD01 PUSH1 0xE1 SHL DUP2 MSTORE PUSH1 0x20 SWAP1 RETURN JUMPDEST PUSH1 0x5 SLOAD SWAP1 PUSH1 0x14 DUP3 LT SWAP1 DUP2 ISZERO PUSH2 0x1A88 JUMPI POP ISZERO PUSH2 0x1A41 JUMPI DUP3 DUP3 MSTORE PUSH1 0x7 PUSH1 0x20 MSTORE PUSH1 0x40 DUP3 KECCAK256 SSTORE PUSH1 0x5 SLOAD PUSH9 0x10000000000000000 DUP2 LT ISZERO PUSH2 0x1A2D JUMPI SWAP1 PUSH2 0x19E3 DUP4 PUSH2 0x19CA DUP5 PUSH1 0x1 PUSH1 0x40 SWAP7 ADD PUSH1 0x5 SSTORE PUSH2 0x1B40 JUMP JUMPDEST SWAP1 SWAP2 SWAP1 DUP3 SLOAD SWAP1 PUSH1 0x3 SHL SWAP2 DUP3 SHL SWAP2 PUSH1 0x0 NOT SWAP1 SHL NOT AND OR SWAP1 SSTORE JUMP JUMPDEST DUP3 DUP2 MSTORE PUSH1 0x6 PUSH1 0x20 MSTORE KECCAK256 PUSH1 0x1 PUSH1 0xFF NOT DUP3 SLOAD AND OR SWAP1 SSTORE PUSH32 0x1BE18EB15FAE79B2EF01C40D9C2880744C4D536DF2F5AC14FDB74FEE71DC452C PUSH1 0x20 PUSH1 0x5 SLOAD PUSH1 0x40 MLOAD SWAP1 DUP2 MSTORE LOG2 JUMPDEST DUP1 DUP1 DUP1 PUSH2 0x196B JUMP JUMPDEST PUSH4 0x4E487B71 PUSH1 0xE0 SHL DUP3 MSTORE PUSH1 0x41 PUSH1 0x4 MSTORE PUSH1 0x24 DUP3 REVERT JUMPDEST PUSH1 0x40 DUP1 MLOAD SWAP2 DUP3 MSTORE PUSH1 0x14 PUSH1 0x20 DUP4 ADD MSTORE PUSH1 0x24 SWAP3 SWAP2 PUSH32 0xF412B82E309222A345C6E9320EF106691E62AD44355F516D03CE23FDCDA49CDC SWAP2 SWAP1 LOG1 PUSH4 0xC6FB6E9 PUSH1 0xE3 SHL DUP2 MSTORE PUSH1 0x14 PUSH1 0x4 MSTORE REVERT JUMPDEST SWAP2 DUP3 MSTORE POP PUSH1 0x14 PUSH1 0x20 DUP3 ADD MSTORE PUSH32 0xF412B82E309222A345C6E9320EF106691E62AD44355F516D03CE23FDCDA49CDC SWAP3 POP PUSH1 0x40 SWAP2 POP LOG1 PUSH2 0x1A25 JUMP JUMPDEST PUSH1 0x4 CALLDATALOAD SWAP1 PUSH1 0x1 PUSH1 0x1 PUSH1 0xA0 SHL SUB DUP3 AND DUP3 SUB PUSH2 0x39A JUMPI JUMP JUMPDEST PUSH1 0x24 CALLDATALOAD SWAP1 PUSH1 0x1 PUSH1 0x1 PUSH1 0xA0 SHL SUB DUP3 AND DUP3 SUB PUSH2 0x39A JUMPI JUMP JUMPDEST SWAP1 PUSH1 0x1F DUP1 NOT SWAP2 ADD AND DUP2 ADD SWAP1 DUP2 LT PUSH8 0xFFFFFFFFFFFFFFFF DUP3 GT OR PUSH2 0x1B0E JUMPI PUSH1 0x40 MSTORE JUMP JUMPDEST PUSH4 0x4E487B71 PUSH1 0xE0 SHL PUSH1 0x0 MSTORE PUSH1 0x41 PUSH1 0x4 MSTORE PUSH1 0x24 PUSH1 0x0 REVERT JUMPDEST PUSH8 0xFFFFFFFFFFFFFFFF DUP2 GT PUSH2 0x1B0E JUMPI PUSH1 0x1F ADD PUSH1 0x1F NOT AND PUSH1 0x20 ADD SWAP1 JUMP JUMPDEST PUSH1 0x5 SLOAD DUP2 LT ISZERO PUSH2 0x1B5B JUMPI PUSH1 0x5 PUSH1 0x0 MSTORE PUSH1 0x20 PUSH1 0x0 KECCAK256 ADD SWAP1 PUSH1 0x0 SWAP1 JUMP JUMPDEST PUSH4 0x4E487B71 PUSH1 0xE0 SHL PUSH1 0x0 MSTORE PUSH1 0x32 PUSH1 0x4 MSTORE PUSH1 0x24 PUSH1 0x0 REVERT JUMPDEST PUSH1 0x0 NOT DUP2 EQ PUSH2 0x1B80 JUMPI PUSH1 0x1 ADD SWAP1 JUMP JUMPDEST PUSH4 0x4E487B71 PUSH1 0xE0 SHL PUSH1 0x0 MSTORE PUSH1 0x11 PUSH1 0x4 MSTORE PUSH1 0x24 PUSH1 0x0 REVERT JUMPDEST PUSH1 0x0 SWAP2 SWAP1 PUSH1 0x1 PUSH1 0x1 PUSH1 0xA0 SHL SUB DUP2 AND DUP1 ISZERO PUSH2 0x1C9F JUMPI PUSH1 0x5 SLOAD DUP1 ISZERO PUSH2 0x1C9A JUMPI PUSH1 0x0 NOT DUP2 ADD SWAP1 DUP2 GT PUSH2 0x1C86 JUMPI PUSH2 0x1BC8 SWAP1 PUSH2 0x1B40 JUMP JUMPDEST SWAP1 SLOAD SWAP1 PUSH1 0x3 SHL SHR SWAP2 PUSH2 0x1BD9 DUP4 PUSH2 0x1DF7 JUMP JUMPDEST PUSH1 0x2 SLOAD PUSH1 0x1 PUSH1 0x1 PUSH1 0xA0 SHL SUB AND SWAP1 DUP2 EXTCODESIZE ISZERO PUSH2 0x9D1 JUMPI PUSH1 0x40 MLOAD PUSH4 0x21421707 PUSH1 0xE1 SHL DUP2 MSTORE ADDRESS PUSH1 0x4 DUP3 ADD MSTORE PUSH1 0x1 PUSH1 0x1 PUSH1 0xA0 SHL SUB SWAP2 SWAP1 SWAP2 AND PUSH1 0x24 DUP3 ADD MSTORE PUSH1 0x44 DUP2 ADD DUP5 SWAP1 MSTORE SWAP5 SWAP1 DUP2 SWAP1 DUP7 SWAP1 PUSH1 0x64 SWAP1 DUP3 SWAP1 DUP5 SWAP1 GAS CALL SWAP5 DUP6 ISZERO PUSH2 0x11AD JUMPI DUP4 SWAP5 SWAP6 PUSH2 0x1C76 JUMPI JUMPDEST POP POP PUSH2 0x1C43 PUSH1 0x9 SLOAD PUSH2 0x1B71 JUMP JUMPDEST PUSH1 0x9 SSTORE PUSH32 0x55144F84A06ABA3B3A5C49B5D2D0D2A1FED9E25F465A2CC0F4A23B883C478215 PUSH1 0x20 PUSH1 0x5 SLOAD PUSH1 0x40 MLOAD SWAP1 DUP2 MSTORE LOG3 SWAP1 JUMP JUMPDEST DUP2 PUSH2 0x1C80 SWAP2 PUSH2 0x1AEC JUMP JUMPDEST CODESIZE PUSH2 0x1C36 JUMP JUMPDEST PUSH4 0x4E487B71 PUSH1 0xE0 SHL DUP6 MSTORE PUSH1 0x11 PUSH1 0x4 MSTORE PUSH1 0x24 DUP6 REVERT JUMPDEST POP POP POP JUMP JUMPDEST PUSH4 0xD92E233D PUSH1 0xE0 SHL DUP5 MSTORE PUSH1 0x4 DUP5 REVERT JUMPDEST SWAP1 DUP2 PUSH1 0xA0 SWAP2 SUB SLT PUSH2 0x39A JUMPI DUP1 MLOAD SWAP2 PUSH1 0x20 DUP3 ADD MLOAD SWAP2 PUSH1 0x40 DUP2 ADD MLOAD SWAP2 PUSH1 0x80 PUSH1 0x60 DUP4 ADD MLOAD SWAP3 ADD MLOAD SWAP1 JUMP JUMPDEST PUSH1 0x1 PUSH1 0x1 PUSH1 0xA0 SHL SUB DUP2 AND ISZERO PUSH2 0x1CEF JUMPI PUSH2 0x1CED SWAP1 PUSH2 0x1D3B JUMP JUMPDEST JUMP JUMPDEST PUSH4 0x1E4FBDF7 PUSH1 0xE0 SHL PUSH1 0x0 MSTORE PUSH1 0x0 PUSH1 0x4 MSTORE PUSH1 0x24 PUSH1 0x0 REVERT JUMPDEST PUSH1 0x0 DUP1 MLOAD PUSH1 0x20 PUSH2 0x2413 DUP4 CODECOPY DUP2 MLOAD SWAP2 MSTORE SLOAD PUSH1 0x1 PUSH1 0x1 PUSH1 0xA0 SHL SUB AND CALLER SUB PUSH2 0x1D26 JUMPI JUMP JUMPDEST PUSH4 0x118CDAA7 PUSH1 0xE0 SHL PUSH1 0x0 MSTORE CALLER PUSH1 0x4 MSTORE PUSH1 0x24 PUSH1 0x0 REVERT JUMPDEST PUSH1 0x0 DUP1 MLOAD PUSH1 0x20 PUSH2 0x2413 DUP4 CODECOPY DUP2 MLOAD SWAP2 MSTORE DUP1 SLOAD PUSH1 0x1 PUSH1 0x1 PUSH1 0xA0 SHL SUB SWAP3 DUP4 AND PUSH1 0x1 PUSH1 0x1 PUSH1 0xA0 SHL SUB NOT DUP3 AND DUP2 OR SWAP1 SWAP3 SSTORE SWAP1 SWAP2 AND PUSH32 0x8BE0079C531659141344CD1FD0A4F28419497F9722A3DAAFE3B4186F6B6457E0 PUSH1 0x0 DUP1 LOG3 JUMP JUMPDEST PUSH1 0x2 PUSH1 0x0 DUP1 MLOAD PUSH1 0x20 PUSH2 0x2473 DUP4 CODECOPY DUP2 MLOAD SWAP2 MSTORE SLOAD EQ PUSH2 0x1DBC JUMPI PUSH1 0x2 PUSH1 0x0 DUP1 MLOAD PUSH1 0x20 PUSH2 0x2473 DUP4 CODECOPY DUP2 MLOAD SWAP2 MSTORE SSTORE JUMP JUMPDEST PUSH4 0x3EE5AEB5 PUSH1 0xE0 SHL PUSH1 0x0 MSTORE PUSH1 0x4 PUSH1 0x0 REVERT JUMPDEST PUSH1 0xFF PUSH1 0x0 DUP1 MLOAD PUSH1 0x20 PUSH2 0x2453 DUP4 CODECOPY DUP2 MLOAD SWAP2 MSTORE SLOAD AND PUSH2 0x1DE6 JUMPI JUMP JUMPDEST PUSH4 0xD93C0665 PUSH1 0xE0 SHL PUSH1 0x0 MSTORE PUSH1 0x4 PUSH1 0x0 REVERT JUMPDEST DUP1 PUSH1 0x0 MSTORE PUSH1 0x6 PUSH1 0x20 MSTORE PUSH1 0xFF PUSH1 0x40 PUSH1 0x0 KECCAK256 SLOAD AND ISZERO PUSH2 0x1ECD JUMPI DUP1 PUSH1 0x0 MSTORE PUSH1 0x7 PUSH1 0x20 MSTORE PUSH1 0x40 PUSH1 0x0 KECCAK256 SLOAD PUSH1 0x5 SLOAD PUSH1 0x0 NOT DUP2 ADD SWAP1 DUP2 GT PUSH2 0x1B80 JUMPI DUP1 DUP3 SUB PUSH2 0x1E9B JUMPI JUMPDEST POP POP PUSH1 0x5 SLOAD DUP1 ISZERO PUSH2 0x1E85 JUMPI PUSH1 0x0 NOT ADD PUSH2 0x1E4C DUP2 PUSH2 0x1B40 JUMP JUMPDEST DUP2 SLOAD SWAP1 PUSH1 0x0 NOT SWAP1 PUSH1 0x3 SHL SHL NOT AND SWAP1 SSTORE PUSH1 0x5 SSTORE DUP1 PUSH1 0x0 MSTORE PUSH1 0x6 PUSH1 0x20 MSTORE PUSH1 0x40 PUSH1 0x0 KECCAK256 PUSH1 0xFF NOT DUP2 SLOAD AND SWAP1 SSTORE PUSH1 0x0 MSTORE PUSH1 0x7 PUSH1 0x20 MSTORE PUSH1 0x0 PUSH1 0x40 DUP2 KECCAK256 SSTORE JUMP JUMPDEST PUSH4 0x4E487B71 PUSH1 0xE0 SHL PUSH1 0x0 MSTORE PUSH1 0x31 PUSH1 0x4 MSTORE PUSH1 0x24 PUSH1 0x0 REVERT JUMPDEST PUSH2 0x1EA4 SWAP1 PUSH2 0x1B40 JUMP JUMPDEST SWAP1 SLOAD SWAP1 PUSH1 0x3 SHL SHR PUSH2 0x1EB8 DUP2 PUSH2 0x19CA DUP5 PUSH2 0x1B40 JUMP JUMPDEST PUSH1 0x0 MSTORE PUSH1 0x7 PUSH1 0x20 MSTORE PUSH1 0x40 PUSH1 0x0 KECCAK256 SSTORE CODESIZE DUP1 PUSH2 0x1E34 JUMP JUMPDEST PUSH4 0x29762DBF PUSH1 0xE2 SHL PUSH1 0x0 MSTORE PUSH1 0x4 MSTORE PUSH1 0x24 PUSH1 0x0 REVERT JUMPDEST SWAP2 SWAP1 DUP3 ADD DUP1 SWAP3 GT PUSH2 0x1B80 JUMPI JUMP JUMPDEST PUSH1 0x0 SLOAD PUSH1 0x1 SLOAD PUSH1 0x40 MLOAD PUSH4 0x6EB1769F PUSH1 0xE1 SHL DUP2 MSTORE ADDRESS PUSH1 0x4 DUP3 ADD MSTORE PUSH1 0x1 PUSH1 0x1 PUSH1 0xA0 SHL SUB SWAP2 DUP3 AND PUSH1 0x24 DUP3 ADD DUP2 SWAP1 MSTORE SWAP3 SWAP2 SWAP1 SWAP2 AND SWAP1 PUSH1 0x20 DUP2 PUSH1 0x44 DUP2 DUP6 GAS STATICCALL DUP1 ISZERO PUSH2 0x20AF JUMPI DUP5 SWAP1 PUSH1 0x0 SWAP1 PUSH2 0x2118 JUMPI JUMPDEST PUSH2 0x1F42 SWAP3 POP PUSH2 0x1EE1 JUMP JUMPDEST PUSH1 0x40 MLOAD PUSH4 0x95EA7B3 PUSH1 0xE0 SHL PUSH1 0x20 DUP1 DUP4 ADD SWAP2 DUP3 MSTORE PUSH1 0x1 PUSH1 0x1 PUSH1 0xA0 SHL SUB DUP7 AND PUSH1 0x24 DUP5 ADD MSTORE PUSH1 0x44 DUP1 DUP5 ADD SWAP5 SWAP1 SWAP5 MSTORE SWAP3 DUP3 MSTORE SWAP1 SWAP3 SWAP2 SWAP1 PUSH1 0x0 SWAP1 PUSH2 0x1F82 PUSH1 0x64 DUP7 PUSH2 0x1AEC JUMP JUMPDEST DUP5 MLOAD SWAP1 DUP3 DUP6 GAS CALL PUSH1 0x0 MLOAD RETURNDATASIZE DUP3 PUSH2 0x20FC JUMPI JUMPDEST POP POP ISZERO PUSH2 0x20BB JUMPI JUMPDEST POP POP POP PUSH1 0x0 PUSH1 0x20 PUSH1 0x1 DUP1 PUSH1 0xA0 SHL SUB PUSH1 0x1 SLOAD AND PUSH1 0x44 PUSH1 0x40 MLOAD DUP1 SWAP5 DUP2 SWAP4 PUSH4 0x4BDA0D09 PUSH1 0xE1 SHL DUP4 MSTORE PUSH1 0x1 PUSH1 0x4 DUP5 ADD MSTORE ADDRESS PUSH1 0x24 DUP5 ADD MSTORE GAS CALL SWAP1 DUP2 ISZERO PUSH2 0x20AF JUMPI PUSH1 0x0 SWAP2 PUSH2 0x205D JUMPI JUMPDEST POP PUSH32 0x6929B90E2C20A95D4538DF3110E196E018B4D66120E0020E665A4AF86F1B5271 PUSH1 0x40 DUP3 SWAP4 DUP4 PUSH1 0x0 MSTORE PUSH1 0xB PUSH1 0x20 MSTORE DUP2 PUSH1 0x0 KECCAK256 ADDRESS PUSH1 0x1 PUSH1 0x1 PUSH1 0x60 SHL SUB PUSH1 0xA0 SHL DUP3 SLOAD AND OR SWAP1 SSTORE PUSH2 0x202E PUSH1 0xC SLOAD PUSH2 0x1B71 JUMP JUMPDEST PUSH1 0xC SSTORE PUSH2 0x203C PUSH1 0x8 SLOAD PUSH2 0x1B71 JUMP JUMPDEST PUSH1 0x8 SSTORE PUSH2 0x204B DUP2 PUSH1 0xA SLOAD PUSH2 0x1EE1 JUMP JUMPDEST PUSH1 0xA SSTORE DUP2 MLOAD SWAP1 DUP2 MSTORE ADDRESS PUSH1 0x20 DUP3 ADD MSTORE LOG2 SWAP1 JUMP JUMPDEST SWAP1 PUSH1 0x20 DUP3 RETURNDATASIZE PUSH1 0x20 GT PUSH2 0x20A7 JUMPI JUMPDEST DUP2 PUSH2 0x2077 PUSH1 0x20 SWAP4 DUP4 PUSH2 0x1AEC JUMP JUMPDEST DUP2 ADD SUB SLT PUSH2 0x233 JUMPI POP MLOAD PUSH32 0x6929B90E2C20A95D4538DF3110E196E018B4D66120E0020E665A4AF86F1B5271 PUSH2 0x1FDE JUMP JUMPDEST RETURNDATASIZE SWAP2 POP PUSH2 0x206A JUMP JUMPDEST PUSH1 0x40 MLOAD RETURNDATASIZE PUSH1 0x0 DUP3 RETURNDATACOPY RETURNDATASIZE SWAP1 REVERT JUMPDEST PUSH2 0x630 PUSH2 0x20F4 SWAP4 PUSH1 0x40 MLOAD SWAP1 PUSH4 0x95EA7B3 PUSH1 0xE0 SHL PUSH1 0x20 DUP4 ADD MSTORE PUSH1 0x24 DUP3 ADD MSTORE PUSH1 0x0 PUSH1 0x44 DUP3 ADD MSTORE PUSH1 0x44 DUP2 MSTORE PUSH2 0x20EE PUSH1 0x64 DUP3 PUSH2 0x1AEC JUMP JUMPDEST DUP3 PUSH2 0x2328 JUMP JUMPDEST CODESIZE DUP1 DUP1 PUSH2 0x1F9B JUMP JUMPDEST SWAP1 SWAP2 POP PUSH2 0x2110 JUMPI POP DUP1 EXTCODESIZE ISZERO ISZERO JUMPDEST CODESIZE DUP1 PUSH2 0x1F93 JUMP JUMPDEST PUSH1 0x1 EQ PUSH2 0x2109 JUMP JUMPDEST POP POP PUSH1 0x20 DUP2 RETURNDATASIZE PUSH1 0x20 GT PUSH2 0x2146 JUMPI JUMPDEST DUP2 PUSH2 0x2133 PUSH1 0x20 SWAP4 DUP4 PUSH2 0x1AEC JUMP JUMPDEST DUP2 ADD SUB SLT PUSH2 0x39A JUMPI DUP4 PUSH2 0x1F42 SWAP2 MLOAD PUSH2 0x1F38 JUMP JUMPDEST RETURNDATASIZE SWAP2 POP PUSH2 0x2126 JUMP JUMPDEST PUSH1 0x5 SLOAD PUSH1 0x14 DUP2 LT ISZERO PUSH2 0x225A JUMPI POP PUSH1 0x1 SLOAD PUSH1 0x40 MLOAD PUSH4 0x2DABC24F PUSH1 0xE0 SHL DUP2 MSTORE SWAP1 PUSH1 0xA0 SWAP1 DUP3 SWAP1 PUSH1 0x4 SWAP1 DUP3 SWAP1 PUSH1 0x1 PUSH1 0x1 PUSH1 0xA0 SHL SUB AND GAS STATICCALL SWAP1 DUP2 ISZERO PUSH2 0x20AF JUMPI PUSH1 0x0 SWAP2 PUSH2 0x2236 JUMPI JUMPDEST POP PUSH1 0x0 SLOAD PUSH1 0x40 MLOAD PUSH4 0x70A08231 PUSH1 0xE0 SHL DUP2 MSTORE ADDRESS PUSH1 0x4 DUP3 ADD MSTORE SWAP1 PUSH1 0x20 SWAP1 DUP3 SWAP1 PUSH1 0x24 SWAP1 DUP3 SWAP1 PUSH1 0x1 PUSH1 0x1 PUSH1 0xA0 SHL SUB AND GAS STATICCALL SWAP1 DUP2 ISZERO PUSH2 0x20AF JUMPI PUSH1 0x0 SWAP2 PUSH2 0x2204 JUMPI JUMPDEST POP DUP2 PUSH4 0x30A32C0 DUP3 LT SWAP2 DUP3 ISZERO PUSH2 0x21FA JUMPI JUMPDEST POP POP PUSH2 0x21F1 JUMPI PUSH2 0x21EC SWAP1 PUSH2 0x1EEE JUMP JUMPDEST PUSH1 0x1 SWAP2 JUMP JUMPDEST POP PUSH1 0x0 SWAP1 PUSH1 0x0 SWAP1 JUMP JUMPDEST LT SWAP1 POP DUP2 CODESIZE PUSH2 0x21DD JUMP JUMPDEST SWAP1 PUSH1 0x20 DUP3 RETURNDATASIZE PUSH1 0x20 GT PUSH2 0x222E JUMPI JUMPDEST DUP2 PUSH2 0x221E PUSH1 0x20 SWAP4 DUP4 PUSH2 0x1AEC JUMP JUMPDEST DUP2 ADD SUB SLT PUSH2 0x233 JUMPI POP MLOAD CODESIZE PUSH2 0x21CC JUMP JUMPDEST RETURNDATASIZE SWAP2 POP PUSH2 0x2211 JUMP JUMPDEST PUSH2 0x224F SWAP2 POP PUSH1 0xA0 RETURNDATASIZE PUSH1 0xA0 GT PUSH2 0x35E JUMPI PUSH2 0x34B DUP2 DUP4 PUSH2 0x1AEC JUMP JUMPDEST SWAP4 POP POP POP POP CODESIZE PUSH2 0x2190 JUMP JUMPDEST PUSH1 0x0 SLOAD PUSH1 0x40 MLOAD PUSH4 0x70A08231 PUSH1 0xE0 SHL DUP2 MSTORE ADDRESS PUSH1 0x4 DUP3 ADD MSTORE SWAP1 PUSH1 0x20 SWAP1 DUP3 SWAP1 PUSH1 0x24 SWAP1 DUP3 SWAP1 PUSH1 0x1 PUSH1 0x1 PUSH1 0xA0 SHL SUB AND GAS STATICCALL SWAP1 DUP2 ISZERO PUSH2 0x20AF JUMPI PUSH1 0x0 SWAP2 PUSH2 0x22D6 JUMPI JUMPDEST POP PUSH1 0x60 SWAP1 PUSH32 0xCC4EE2E034DE83C93BA6C21FF29C1368284A557946B6CB0F5950FC6FD15E5B06 SWAP3 PUSH1 0x40 MLOAD SWAP2 DUP3 MSTORE PUSH1 0x20 DUP3 ADD MSTORE PUSH1 0x14 PUSH1 0x40 DUP3 ADD MSTORE LOG1 PUSH1 0x0 SWAP1 PUSH1 0x0 SWAP1 JUMP JUMPDEST SWAP1 POP PUSH1 0x20 DUP2 RETURNDATASIZE PUSH1 0x20 GT PUSH2 0x2320 JUMPI JUMPDEST DUP2 PUSH2 0x22F1 PUSH1 0x20 SWAP4 DUP4 PUSH2 0x1AEC JUMP JUMPDEST DUP2 ADD SUB SLT PUSH2 0x39A JUMPI MLOAD PUSH32 0xCC4EE2E034DE83C93BA6C21FF29C1368284A557946B6CB0F5950FC6FD15E5B06 PUSH2 0x2295 JUMP JUMPDEST RETURNDATASIZE SWAP2 POP PUSH2 0x22E4 JUMP JUMPDEST SWAP1 PUSH1 0x0 PUSH1 0x20 SWAP2 DUP3 DUP2 MLOAD SWAP2 ADD DUP3 DUP6 GAS CALL ISZERO PUSH2 0x20AF JUMPI PUSH1 0x0 MLOAD RETURNDATASIZE PUSH2 0x237A JUMPI POP PUSH1 0x1 PUSH1 0x1 PUSH1 0xA0 SHL SUB DUP2 AND EXTCODESIZE ISZERO JUMPDEST PUSH2 0x2359 JUMPI POP JUMP JUMPDEST PUSH4 0x5274AFE7 PUSH1 0xE0 SHL PUSH1 0x0 SWAP1 DUP2 MSTORE PUSH1 0x1 PUSH1 0x1 PUSH1 0xA0 SHL SUB SWAP2 SWAP1 SWAP2 AND PUSH1 0x4 MSTORE PUSH1 0x24 SWAP1 REVERT JUMPDEST PUSH1 0x1 EQ ISZERO PUSH2 0x2352 JUMP JUMPDEST PUSH1 0xFF PUSH1 0x0 DUP1 MLOAD PUSH1 0x20 PUSH2 0x2493 DUP4 CODECOPY DUP2 MLOAD SWAP2 MSTORE SLOAD PUSH1 0x40 SHR AND ISZERO PUSH2 0x23A0 JUMPI JUMP JUMPDEST PUSH4 0x1AFCD79F PUSH1 0xE3 SHL PUSH1 0x0 MSTORE PUSH1 0x4 PUSH1 0x0 REVERT JUMPDEST SWAP1 PUSH2 0x23D7 JUMPI POP DUP1 MLOAD ISZERO PUSH2 0x23C6 JUMPI PUSH1 0x20 DUP2 MLOAD SWAP2 ADD REVERT JUMPDEST PUSH4 0xD6BDA275 PUSH1 0xE0 SHL PUSH1 0x0 MSTORE PUSH1 0x4 PUSH1 0x0 REVERT JUMPDEST DUP2 MLOAD ISZERO DUP1 PUSH2 0x2409 JUMPI JUMPDEST PUSH2 0x23E8 JUMPI POP SWAP1 JUMP JUMPDEST PUSH4 0x9996B315 PUSH1 0xE0 SHL PUSH1 0x0 SWAP1 DUP2 MSTORE PUSH1 0x1 PUSH1 0x1 PUSH1 0xA0 SHL SUB SWAP2 SWAP1 SWAP2 AND PUSH1 0x4 MSTORE PUSH1 0x24 SWAP1 REVERT JUMPDEST POP DUP1 EXTCODESIZE ISZERO PUSH2 0x23E0 JUMP INVALID SWAP1 AND 0xD0 SWAP14 PUSH19 0xD40FDAE2FD8CEAC6B6234C7706214FD39C1CD1 0xE6 MULMOD LOG0 MSTORE DUP13 NOT SWAP4 STOP CALLDATASIZE ADDMOD SWAP5 LOG1 EXTCODESIZE LOG1 LOG3 0x21 MOD PUSH8 0xC828492DB98DCA3E KECCAK256 PUSH23 0xCC3735A920A3CA505D382BBCCD5ED15C6E187E77E9AEE8 DUP2 DUP5 0xC2 0x1F 0x4F 0x21 DUP3 0xAB PC 0x27 0xCB EXTCODESIZE PUSH31 0x7FBEDCD63F033009B779B17422D0DF92223018B32B4D1FA46E071723D6817 0xE2 BASEFEE PUSH14 0x3BECC55F00F0C57E16840DF040 CALL POP DUP9 0xDC 0x2F DUP2 INVALID CODECOPY SHR CODECOPY 0x23 0xBE 0xC7 RETURNDATACOPY 0x23 0xA9 PUSH7 0x2EFC9C229C6A00 LOG2 PUSH5 0x6970667358 0x22 SLT KECCAK256 0x23 0x23 0xC6 0x4F 0xEA REVERT BYTE SWAP6 CALLVALUE ADD 0xE6 0xF8 CALLER 0xA5 SWAP12 BLOBHASH 0xCE EXTCODESIZE SWAP6 EXP PUSH24 0xD2EC7B2F655D557A0D125B64736F6C634300081A00330000 "},"methodIdentifiers":{"AUTO_PURCHASE_THRESHOLD()":"d3e04145","MAX_INVENTORY_SIZE()":"e18bbf5b","UPGRADE_INTERFACE_VERSION()":"ad3cb1cc","USDC_DECIMALS()":"c1419def","awardNFTToWinner(address)":"78b5aa8f","awardSpecificNFT(address,uint256)":"b309a857","canAutoPurchase()":"ef337948","checkAndPurchaseNFT()":"d82872fe","depositRevenue(uint256)":"bc1ca3e9","emergencyWithdraw()":"db2e21bc","forcePurchaseNFT()":"82909597","getInventory()":"5d7f850c","getInventoryCount()":"af3df160","getMaxInventorySize()":"d8b84c62","getStats()":"c59d4847","getUSDCBalance()":"3cfd1ccc","hasInventorySpace()":"753089f7","initialize(address,address,address,address,address,address)":"cc2a9a5b","isInInventory(uint256)":"fbd7ec9e","isTokenInInventory(uint256)":"569ffd42","nftInventory(uint256)":"82b65bef","onERC721Received(address,address,uint256,bytes)":"150b7a02","owner()":"8da5cb5b","pause()":"8456cb59","paused()":"5c975abb","pendingPullRequests(uint256)":"7d8dbe57","pendingRequestCount()":"e0abba57","pokeballGame()":"77d983c9","proxiableUUID()":"52d1902d","renounceOwnership()":"715018a6","setOwnerWallet(address)":"bb542ef0","setPokeballGame(address)":"b6efd540","setTreasuryWallet(address)":"a8602fea","slabMachine()":"5bf7117a","slabNFT()":"25c61fcd","tokenIdToIndex(uint256)":"26ec0fbe","totalNFTsAwarded()":"7c597f4e","totalNFTsPurchased()":"e155d79e","totalUSDCSpent()":"31e2c022","transferOwnership(address)":"f2fde38b","treasuryWallet()":"4626402b","unpause()":"3f4ba83a","upgradeToAndCall(address,bytes)":"4f1ef286","usdce()":"d33953ba"}},"storageLayout":{"storage":[{"astId":5349,"contract":"contracts/SlabNFTManagerV2.sol:SlabNFTManager","label":"usdce","offset":0,"slot":"0","type":"t_contract(IERC20)1482"},{"astId":5353,"contract":"contracts/SlabNFTManagerV2.sol:SlabNFTManager","label":"slabMachine","offset":0,"slot":"1","type":"t_contract(ISlabMachine)5315"},{"astId":5357,"contract":"contracts/SlabNFTManagerV2.sol:SlabNFTManager","label":"slabNFT","offset":0,"slot":"2","type":"t_contract(IERC721)2063"},{"astId":5360,"contract":"contracts/SlabNFTManagerV2.sol:SlabNFTManager","label":"pokeballGame","offset":0,"slot":"3","type":"t_address"},{"astId":5363,"contract":"contracts/SlabNFTManagerV2.sol:SlabNFTManager","label":"treasuryWallet","offset":0,"slot":"4","type":"t_address"},{"astId":5367,"contract":"contracts/SlabNFTManagerV2.sol:SlabNFTManager","label":"nftInventory","offset":0,"slot":"5","type":"t_array(t_uint256)dyn_storage"},{"astId":5372,"contract":"contracts/SlabNFTManagerV2.sol:SlabNFTManager","label":"isInInventory","offset":0,"slot":"6","type":"t_mapping(t_uint256,t_bool)"},{"astId":5377,"contract":"contracts/SlabNFTManagerV2.sol:SlabNFTManager","label":"tokenIdToIndex","offset":0,"slot":"7","type":"t_mapping(t_uint256,t_uint256)"},{"astId":5380,"contract":"contracts/SlabNFTManagerV2.sol:SlabNFTManager","label":"totalNFTsPurchased","offset":0,"slot":"8","type":"t_uint256"},{"astId":5383,"contract":"contracts/SlabNFTManagerV2.sol:SlabNFTManager","label":"totalNFTsAwarded","offset":0,"slot":"9","type":"t_uint256"},{"astId":5386,"contract":"contracts/SlabNFTManagerV2.sol:SlabNFTManager","label":"totalUSDCSpent","offset":0,"slot":"10","type":"t_uint256"},{"astId":5391,"contract":"contracts/SlabNFTManagerV2.sol:SlabNFTManager","label":"pendingPullRequests","offset":0,"slot":"11","type":"t_mapping(t_uint256,t_address)"},{"astId":5394,"contract":"contracts/SlabNFTManagerV2.sol:SlabNFTManager","label":"pendingRequestCount","offset":0,"slot":"12","type":"t_uint256"},{"astId":6590,"contract":"contracts/SlabNFTManagerV2.sol:SlabNFTManager","label":"__gap","offset":0,"slot":"13","type":"t_array(t_uint256)50_storage"}],"types":{"t_address":{"encoding":"inplace","label":"address","numberOfBytes":"20"},"t_array(t_uint256)50_storage":{"base":"t_uint256","encoding":"inplace","label":"uint256[50]","numberOfBytes":"1600"},"t_array(t_uint256)dyn_storage":{"base":"t_uint256","encoding":"dynamic_array","label":"uint256[]","numberOfBytes":"32"},"t_bool":{"encoding":"inplace","label":"bool","numberOfBytes":"1"},"t_contract(IERC20)1482":{"encoding":"inplace","label":"contract IERC20","numberOfBytes":"20"},"t_contract(IERC721)2063":{"encoding":"inplace","label":"contract IERC721","numberOfBytes":"20"},"t_contract(ISlabMachine)5315":{"encoding":"inplace","label":"contract ISlabMachine","numberOfBytes":"20"},"t_mapping(t_uint256,t_address)":{"encoding":"mapping","key":"t_uint256","label":"mapping(uint256 => address)","numberOfBytes":"32","value":"t_address"},"t_mapping(t_uint256,t_bool)":{"encoding":"mapping","key":"t_uint256","label":"mapping(uint256 => bool)","numberOfBytes":"32","value":"t_bool"},"t_mapping(t_uint256,t_uint256)":{"encoding":"mapping","key":"t_uint256","label":"mapping(uint256 => uint256)","numberOfBytes":"32","value":"t_uint256"},"t_uint256":{"encoding":"inplace","label":"uint256","numberOfBytes":"32"}}}}}}