{"contracts/PokeballGame.sol":{"PokeballGame":{"abi":[{"inputs":[],"stateMutability":"nonpayable","type":"constructor"},{"inputs":[{"internalType":"address","name":"target","type":"address"}],"name":"AddressEmptyCode","type":"error"},{"inputs":[{"internalType":"address","name":"implementation","type":"address"}],"name":"ERC1967InvalidImplementation","type":"error"},{"inputs":[],"name":"ERC1967NonPayable","type":"error"},{"inputs":[],"name":"EnforcedPause","type":"error"},{"inputs":[],"name":"ExpectedPause","type":"error"},{"inputs":[],"name":"FailedCall","type":"error"},{"inputs":[{"internalType":"address","name":"token","type":"address"},{"internalType":"uint256","name":"required","type":"uint256"},{"internalType":"uint256","name":"available","type":"uint256"}],"name":"InsufficientAllowance","type":"error"},{"inputs":[{"internalType":"address","name":"token","type":"address"},{"internalType":"uint256","name":"required","type":"uint256"},{"internalType":"uint256","name":"available","type":"uint256"}],"name":"InsufficientBalance","type":"error"},{"inputs":[{"internalType":"enum PokeballGame.BallType","name":"ballType","type":"uint8"},{"internalType":"uint256","name":"required","type":"uint256"},{"internalType":"uint256","name":"available","type":"uint256"}],"name":"InsufficientBalls","type":"error"},{"inputs":[{"internalType":"uint8","name":"provided","type":"uint8"}],"name":"InvalidBallType","type":"error"},{"inputs":[],"name":"InvalidInitialization","type":"error"},{"inputs":[{"internalType":"uint8","name":"slot","type":"uint8"}],"name":"InvalidPokemonSlot","type":"error"},{"inputs":[],"name":"InvalidPrice","type":"error"},{"inputs":[],"name":"NoFeesToWithdraw","type":"error"},{"inputs":[],"name":"NotInitializing","type":"error"},{"inputs":[{"internalType":"address","name":"owner","type":"address"}],"name":"OwnableInvalidOwner","type":"error"},{"inputs":[{"internalType":"address","name":"account","type":"address"}],"name":"OwnableUnauthorizedAccount","type":"error"},{"inputs":[{"internalType":"uint256","name":"pokemonId","type":"uint256"}],"name":"PokemonNotActive","type":"error"},{"inputs":[],"name":"ReentrancyGuardReentrantCall","type":"error"},{"inputs":[{"internalType":"address","name":"token","type":"address"}],"name":"SafeERC20FailedOperation","type":"error"},{"inputs":[],"name":"SlabNFTManagerNotSet","type":"error"},{"inputs":[{"internalType":"uint8","name":"slot","type":"uint8"}],"name":"SlotOccupied","type":"error"},{"inputs":[{"internalType":"uint256","name":"requestId","type":"uint256"}],"name":"ThrowAlreadyResolved","type":"error"},{"inputs":[{"internalType":"uint256","name":"requestId","type":"uint256"}],"name":"ThrowNotFound","type":"error"},{"inputs":[],"name":"TransferFailed","type":"error"},{"inputs":[],"name":"UUPSUnauthorizedCallContext","type":"error"},{"inputs":[{"internalType":"bytes32","name":"slot","type":"bytes32"}],"name":"UUPSUnsupportedProxiableUUID","type":"error"},{"inputs":[{"internalType":"address","name":"caller","type":"address"}],"name":"UnauthorizedCallback","type":"error"},{"inputs":[],"name":"ZeroAddress","type":"error"},{"inputs":[],"name":"ZeroQuantity","type":"error"},{"anonymous":false,"inputs":[{"indexed":false,"internalType":"uint256","name":"oldPrice","type":"uint256"},{"indexed":false,"internalType":"uint256","name":"newPrice","type":"uint256"}],"name":"APEPriceUpdated","type":"event"},{"anonymous":false,"inputs":[{"indexed":true,"internalType":"address","name":"buyer","type":"address"},{"indexed":false,"internalType":"uint8","name":"ballType","type":"uint8"},{"indexed":false,"internalType":"uint256","name":"quantity","type":"uint256"},{"indexed":false,"internalType":"bool","name":"usedAPE","type":"bool"}],"name":"BallPurchased","type":"event"},{"anonymous":false,"inputs":[{"indexed":true,"internalType":"address","name":"catcher","type":"address"},{"indexed":false,"internalType":"uint256","name":"pokemonId","type":"uint256"},{"indexed":false,"internalType":"uint256","name":"nftTokenId","type":"uint256"}],"name":"CaughtPokemon","type":"event"},{"anonymous":false,"inputs":[{"indexed":true,"internalType":"address","name":"thrower","type":"address"},{"indexed":false,"internalType":"uint256","name":"pokemonId","type":"uint256"},{"indexed":false,"internalType":"uint8","name":"attemptsRemaining","type":"uint8"}],"name":"FailedCatch","type":"event"},{"anonymous":false,"inputs":[{"indexed":false,"internalType":"address","name":"recipient","type":"address"},{"indexed":false,"internalType":"uint256","name":"amount","type":"uint256"}],"name":"FeesWithdrawn","type":"event"},{"anonymous":false,"inputs":[{"indexed":false,"internalType":"uint64","name":"version","type":"uint64"}],"name":"Initialized","type":"event"},{"anonymous":false,"inputs":[{"indexed":true,"internalType":"address","name":"previousOwner","type":"address"},{"indexed":true,"internalType":"address","name":"newOwner","type":"address"}],"name":"OwnershipTransferred","type":"event"},{"anonymous":false,"inputs":[{"indexed":false,"internalType":"address","name":"account","type":"address"}],"name":"Paused","type":"event"},{"anonymous":false,"inputs":[{"indexed":false,"internalType":"uint256","name":"pokemonId","type":"uint256"},{"indexed":false,"internalType":"uint256","name":"newX","type":"uint256"},{"indexed":false,"internalType":"uint256","name":"newY","type":"uint256"}],"name":"PokemonRelocated","type":"event"},{"anonymous":false,"inputs":[{"indexed":false,"internalType":"uint256","name":"pokemonId","type":"uint256"},{"indexed":false,"internalType":"uint256","name":"positionX","type":"uint256"},{"indexed":false,"internalType":"uint256","name":"positionY","type":"uint256"},{"indexed":false,"internalType":"uint8","name":"slotIndex","type":"uint8"}],"name":"PokemonSpawned","type":"event"},{"anonymous":false,"inputs":[{"indexed":false,"internalType":"uint256","name":"amount","type":"uint256"}],"name":"RevenueSentToManager","type":"event"},{"anonymous":false,"inputs":[{"indexed":true,"internalType":"address","name":"thrower","type":"address"},{"indexed":false,"internalType":"uint256","name":"pokemonId","type":"uint256"},{"indexed":false,"internalType":"uint8","name":"ballTier","type":"uint8"},{"indexed":false,"internalType":"uint256","name":"requestId","type":"uint256"}],"name":"ThrowAttempted","type":"event"},{"anonymous":false,"inputs":[{"indexed":false,"internalType":"address","name":"account","type":"address"}],"name":"Unpaused","type":"event"},{"anonymous":false,"inputs":[{"indexed":true,"internalType":"address","name":"implementation","type":"address"}],"name":"Upgraded","type":"event"},{"anonymous":false,"inputs":[{"indexed":false,"internalType":"string","name":"walletType","type":"string"},{"indexed":false,"internalType":"address","name":"oldAddress","type":"address"},{"indexed":false,"internalType":"address","name":"newAddress","type":"address"}],"name":"WalletUpdated","type":"event"},{"inputs":[],"name":"APE_DECIMALS","outputs":[{"internalType":"uint8","name":"","type":"uint8"}],"stateMutability":"view","type":"function"},{"inputs":[],"name":"BPS_DENOMINATOR","outputs":[{"internalType":"uint256","name":"","type":"uint256"}],"stateMutability":"view","type":"function"},{"inputs":[],"name":"GREATBALL_CATCH_RATE","outputs":[{"internalType":"uint8","name":"","type":"uint8"}],"stateMutability":"view","type":"function"},{"inputs":[],"name":"GREATBALL_PRICE","outputs":[{"internalType":"uint256","name":"","type":"uint256"}],"stateMutability":"view","type":"function"},{"inputs":[],"name":"MASTERBALL_CATCH_RATE","outputs":[{"internalType":"uint8","name":"","type":"uint8"}],"stateMutability":"view","type":"function"},{"inputs":[],"name":"MASTERBALL_PRICE","outputs":[{"internalType":"uint256","name":"","type":"uint256"}],"stateMutability":"view","type":"function"},{"inputs":[],"name":"MAX_ACTIVE_POKEMON","outputs":[{"internalType":"uint8","name":"","type":"uint8"}],"stateMutability":"view","type":"function"},{"inputs":[],"name":"MAX_COORDINATE","outputs":[{"internalType":"uint256","name":"","type":"uint256"}],"stateMutability":"view","type":"function"},{"inputs":[],"name":"MAX_THROW_ATTEMPTS","outputs":[{"internalType":"uint8","name":"","type":"uint8"}],"stateMutability":"view","type":"function"},{"inputs":[],"name":"PLATFORM_FEE_BPS","outputs":[{"internalType":"uint256","name":"","type":"uint256"}],"stateMutability":"view","type":"function"},{"inputs":[],"name":"POKEBALL_CATCH_RATE","outputs":[{"internalType":"uint8","name":"","type":"uint8"}],"stateMutability":"view","type":"function"},{"inputs":[],"name":"POKEBALL_PRICE","outputs":[{"internalType":"uint256","name":"","type":"uint256"}],"stateMutability":"view","type":"function"},{"inputs":[],"name":"REVENUE_POOL_BPS","outputs":[{"internalType":"uint256","name":"","type":"uint256"}],"stateMutability":"view","type":"function"},{"inputs":[],"name":"ULTRABALL_CATCH_RATE","outputs":[{"internalType":"uint8","name":"","type":"uint8"}],"stateMutability":"view","type":"function"},{"inputs":[],"name":"ULTRABALL_PRICE","outputs":[{"internalType":"uint256","name":"","type":"uint256"}],"stateMutability":"view","type":"function"},{"inputs":[],"name":"UPGRADE_INTERFACE_VERSION","outputs":[{"internalType":"string","name":"","type":"string"}],"stateMutability":"view","type":"function"},{"inputs":[],"name":"USDC_DECIMALS","outputs":[{"internalType":"uint8","name":"","type":"uint8"}],"stateMutability":"view","type":"function"},{"inputs":[{"internalType":"uint256","name":"","type":"uint256"}],"name":"activePokemons","outputs":[{"internalType":"uint256","name":"id","type":"uint256"},{"internalType":"uint256","name":"positionX","type":"uint256"},{"internalType":"uint256","name":"positionY","type":"uint256"},{"internalType":"uint8","name":"throwAttempts","type":"uint8"},{"internalType":"bool","name":"isActive","type":"bool"},{"internalType":"uint256","name":"spawnTime","type":"uint256"}],"stateMutability":"view","type":"function"},{"inputs":[],"name":"ape","outputs":[{"internalType":"contract IERC20","name":"","type":"address"}],"stateMutability":"view","type":"function"},{"inputs":[],"name":"apePriceUSD","outputs":[{"internalType":"uint256","name":"","type":"uint256"}],"stateMutability":"view","type":"function"},{"inputs":[{"internalType":"uint256","name":"usdcAmount","type":"uint256"}],"name":"calculateAPEAmount","outputs":[{"internalType":"uint256","name":"apeAmount","type":"uint256"}],"stateMutability":"view","type":"function"},{"inputs":[{"internalType":"uint8","name":"slot","type":"uint8"}],"name":"despawnPokemon","outputs":[],"stateMutability":"nonpayable","type":"function"},{"inputs":[{"internalType":"uint8","name":"slot","type":"uint8"},{"internalType":"uint256","name":"posX","type":"uint256"},{"internalType":"uint256","name":"posY","type":"uint256"}],"name":"forceSpawnPokemon","outputs":[],"stateMutability":"nonpayable","type":"function"},{"inputs":[],"name":"getAllActivePokemons","outputs":[{"components":[{"internalType":"uint256","name":"id","type":"uint256"},{"internalType":"uint256","name":"positionX","type":"uint256"},{"internalType":"uint256","name":"positionY","type":"uint256"},{"internalType":"uint8","name":"throwAttempts","type":"uint8"},{"internalType":"bool","name":"isActive","type":"bool"},{"internalType":"uint256","name":"spawnTime","type":"uint256"}],"internalType":"struct PokeballGame.Pokemon[3]","name":"pokemons","type":"tuple[3]"}],"stateMutability":"view","type":"function"},{"inputs":[{"internalType":"address","name":"player","type":"address"}],"name":"getAllPlayerBalls","outputs":[{"internalType":"uint256","name":"pokeBalls","type":"uint256"},{"internalType":"uint256","name":"greatBalls","type":"uint256"},{"internalType":"uint256","name":"ultraBalls","type":"uint256"},{"internalType":"uint256","name":"masterBalls","type":"uint256"}],"stateMutability":"view","type":"function"},{"inputs":[{"internalType":"enum PokeballGame.BallType","name":"ballType","type":"uint8"}],"name":"getBallPrice","outputs":[{"internalType":"uint256","name":"price","type":"uint256"}],"stateMutability":"pure","type":"function"},{"inputs":[{"internalType":"enum PokeballGame.BallType","name":"ballType","type":"uint8"}],"name":"getCatchRate","outputs":[{"internalType":"uint8","name":"rate","type":"uint8"}],"stateMutability":"pure","type":"function"},{"inputs":[],"name":"getNFTInventoryCount","outputs":[{"internalType":"uint256","name":"count","type":"uint256"}],"stateMutability":"view","type":"function"},{"inputs":[{"internalType":"uint256","name":"requestId","type":"uint256"}],"name":"getPendingThrow","outputs":[{"components":[{"internalType":"address","name":"thrower","type":"address"},{"internalType":"uint256","name":"pokemonId","type":"uint256"},{"internalType":"enum PokeballGame.BallType","name":"ballType","type":"uint8"},{"internalType":"uint256","name":"timestamp","type":"uint256"},{"internalType":"bool","name":"resolved","type":"bool"}],"internalType":"struct PokeballGame.PendingThrow","name":"","type":"tuple"}],"stateMutability":"view","type":"function"},{"inputs":[{"internalType":"address","name":"player","type":"address"},{"internalType":"uint8","name":"ballType","type":"uint8"}],"name":"getPlayerBallBalance","outputs":[{"internalType":"uint256","name":"quantity","type":"uint256"}],"stateMutability":"view","type":"function"},{"inputs":[{"internalType":"uint8","name":"slot","type":"uint8"}],"name":"getPokemon","outputs":[{"components":[{"internalType":"uint256","name":"id","type":"uint256"},{"internalType":"uint256","name":"positionX","type":"uint256"},{"internalType":"uint256","name":"positionY","type":"uint256"},{"internalType":"uint8","name":"throwAttempts","type":"uint8"},{"internalType":"bool","name":"isActive","type":"bool"},{"internalType":"uint256","name":"spawnTime","type":"uint256"}],"internalType":"struct PokeballGame.Pokemon","name":"pokemon","type":"tuple"}],"stateMutability":"view","type":"function"},{"inputs":[{"internalType":"address","name":"_owner","type":"address"},{"internalType":"address","name":"_treasury","type":"address"},{"internalType":"address","name":"_nftRevenue","type":"address"},{"internalType":"address","name":"_usdce","type":"address"},{"internalType":"address","name":"_ape","type":"address"},{"internalType":"address","name":"_vrng","type":"address"},{"internalType":"address","name":"_slabNFT","type":"address"},{"internalType":"uint256","name":"_initialAPEPrice","type":"uint256"}],"name":"initialize","outputs":[],"stateMutability":"nonpayable","type":"function"},{"inputs":[],"name":"nextPokemonId","outputs":[{"internalType":"uint256","name":"","type":"uint256"}],"stateMutability":"view","type":"function"},{"inputs":[],"name":"nftRevenueWallet","outputs":[{"internalType":"address","name":"","type":"address"}],"stateMutability":"view","type":"function"},{"inputs":[],"name":"owner","outputs":[{"internalType":"address","name":"","type":"address"}],"stateMutability":"view","type":"function"},{"inputs":[],"name":"pause","outputs":[],"stateMutability":"nonpayable","type":"function"},{"inputs":[],"name":"paused","outputs":[{"internalType":"bool","name":"","type":"bool"}],"stateMutability":"view","type":"function"},{"inputs":[{"internalType":"uint256","name":"","type":"uint256"}],"name":"pendingThrows","outputs":[{"internalType":"address","name":"thrower","type":"address"},{"internalType":"uint256","name":"pokemonId","type":"uint256"},{"internalType":"enum PokeballGame.BallType","name":"ballType","type":"uint8"},{"internalType":"uint256","name":"timestamp","type":"uint256"},{"internalType":"bool","name":"resolved","type":"bool"}],"stateMutability":"view","type":"function"},{"inputs":[{"internalType":"address","name":"","type":"address"},{"internalType":"enum PokeballGame.BallType","name":"","type":"uint8"}],"name":"playerBalls","outputs":[{"internalType":"uint256","name":"","type":"uint256"}],"stateMutability":"view","type":"function"},{"inputs":[],"name":"proxiableUUID","outputs":[{"internalType":"bytes32","name":"","type":"bytes32"}],"stateMutability":"view","type":"function"},{"inputs":[{"internalType":"uint8","name":"ballType","type":"uint8"},{"internalType":"uint256","name":"quantity","type":"uint256"},{"internalType":"bool","name":"useAPE","type":"bool"}],"name":"purchaseBalls","outputs":[],"stateMutability":"nonpayable","type":"function"},{"inputs":[{"internalType":"uint256","name":"requestId","type":"uint256"},{"internalType":"uint256","name":"randomNumber","type":"uint256"}],"name":"randomNumberCallback","outputs":[],"stateMutability":"nonpayable","type":"function"},{"inputs":[],"name":"renounceOwnership","outputs":[],"stateMutability":"nonpayable","type":"function"},{"inputs":[{"internalType":"uint256","name":"","type":"uint256"}],"name":"requestIdToTraceId","outputs":[{"internalType":"uint256","name":"","type":"uint256"}],"stateMutability":"view","type":"function"},{"inputs":[{"internalType":"uint256","name":"newPrice","type":"uint256"}],"name":"setAPEPrice","outputs":[],"stateMutability":"nonpayable","type":"function"},{"inputs":[{"internalType":"address","name":"newNFTRevenue","type":"address"}],"name":"setNFTRevenueWallet","outputs":[],"stateMutability":"nonpayable","type":"function"},{"inputs":[{"internalType":"address","name":"_slabNFTManager","type":"address"}],"name":"setSlabNFTManager","outputs":[],"stateMutability":"nonpayable","type":"function"},{"inputs":[{"internalType":"address","name":"newTreasury","type":"address"}],"name":"setTreasuryWallet","outputs":[],"stateMutability":"nonpayable","type":"function"},{"inputs":[],"name":"slabNFT","outputs":[{"internalType":"contract IERC721","name":"","type":"address"}],"stateMutability":"view","type":"function"},{"inputs":[],"name":"slabNFTManager","outputs":[{"internalType":"contract ISlabNFTManager","name":"","type":"address"}],"stateMutability":"view","type":"function"},{"inputs":[{"internalType":"uint8","name":"slot","type":"uint8"}],"name":"spawnPokemon","outputs":[],"stateMutability":"nonpayable","type":"function"},{"inputs":[{"internalType":"uint8","name":"pokemonSlot","type":"uint8"},{"internalType":"uint8","name":"ballType","type":"uint8"}],"name":"throwBall","outputs":[{"internalType":"uint256","name":"requestId","type":"uint256"}],"stateMutability":"nonpayable","type":"function"},{"inputs":[],"name":"totalNFTsPurchased","outputs":[{"internalType":"uint256","name":"","type":"uint256"}],"stateMutability":"view","type":"function"},{"inputs":[],"name":"totalPlatformFees","outputs":[{"internalType":"uint256","name":"","type":"uint256"}],"stateMutability":"view","type":"function"},{"inputs":[],"name":"totalRevenuePool","outputs":[{"internalType":"uint256","name":"","type":"uint256"}],"stateMutability":"view","type":"function"},{"inputs":[{"internalType":"address","name":"newOwner","type":"address"}],"name":"transferOwnership","outputs":[],"stateMutability":"nonpayable","type":"function"},{"inputs":[],"name":"treasuryWallet","outputs":[{"internalType":"address","name":"","type":"address"}],"stateMutability":"view","type":"function"},{"inputs":[],"name":"unpause","outputs":[],"stateMutability":"nonpayable","type":"function"},{"inputs":[{"internalType":"address","name":"newImplementation","type":"address"},{"internalType":"bytes","name":"data","type":"bytes"}],"name":"upgradeToAndCall","outputs":[],"stateMutability":"payable","type":"function"},{"inputs":[],"name":"usdce","outputs":[{"internalType":"contract IERC20","name":"","type":"address"}],"stateMutability":"view","type":"function"},{"inputs":[],"name":"vrng","outputs":[{"internalType":"contract IPOPVRNG","name":"","type":"address"}],"stateMutability":"view","type":"function"},{"inputs":[],"name":"withdrawFees","outputs":[],"stateMutability":"nonpayable","type":"function"}],"evm":{"bytecode":{"linkReferences":{},"object":"60a080604052346100ea57306080527ff0c57e16840df040f15088dc2f81fe391c3923bec73e23a9662efc9c229c6a005460ff8160401c166100d9576002600160401b03196001600160401b03821601610073575b60405161310690816100f08239608051818181611a540152611b250152f35b6001600160401b0319166001600160401b039081177ff0c57e16840df040f15088dc2f81fe391c3923bec73e23a9662efc9c229c6a005581527fc7f505b2f371ae2175ee4913f4499e1f2633a7b5936321eed1cdaeb6115181d290602090a13880610054565b63f92ee8a960e01b60005260046000fd5b600080fdfe6080604052600436101561001257600080fd5b6000803560e01c8063064c973c1461246c5780630771197f146123ec57806311648422146120f057806323b5cb5d1461201e57806325c61fcd14611ff55780632795a90e14611f875780632e9ed2e414611f6857806338efa83114611f4c5780633bd8171514611f2f5780633f4ba83a14611ead5780634129849f14611e925780634626402b14611e69578063476343ee14611d975780634c4e2a4614611cf65780634f1ef28614611aa957806352d1902d14611a41578063539aa77f14611a245780635c975abb146119f4578063607c45d114611989578063621384141461196057806364c618cc146119375780636fea438d1461190e578063715018a6146118a45780637881a0701461188857806379babd2c1461185f5780637a0b07cf1461173c5780637ed2f7831461150a5780637edc648c146114e05780638456cb591461146b578063883019111461118c5780638da5cb5b146111565780638f561acc1461111157806394ea04d114610a7f578063970cff9314610a2a5780639b7d1a2a146109715780639f48ed23146109555780639fb769dd14610937578063a2afc3731461089c578063a4cedc391461087e578063a8602fea146107df578063ad3cb1cc14610765578063b036d59114610749578063bf370a6114610717578063c1419def146106fb578063c5f5251114610647578063cc7a69de14610629578063d25741831461060c578063d33953ba146105e5578063d3631fa5146105c7578063d9deb60b146105a9578063df33c1fd1461058d578063e155d79e1461056f578063e1a4521814610552578063eb76c37e1461045e578063efdf99491461051d578063f2fde38b146104f0578063f4f0009214610482578063f8ce2c7d14610463578063fc774c5c1461045e578063fcc536ba14610358578063fd626a181461033a5763fe5c7ba8146102c757600080fd5b34610337576020366003190112610337576102e06124b1565b6102e8612999565b60ff811660038110156103255750600381101561031157600502600d01805461ff001916905580f35b634e487b7160e01b82526032600452602482fd5b63cba5131560e01b8352600452602482fd5b80fd5b50346103375780600319360112610337576020604051620f42408152f35b50346103375780600319360112610337576060604051610379606082612532565b825b82811061044957836040516060810181811067ffffffffffffffff82111761043557604052600a82825b60038210610417576040518486825b600382106103c25761024084f35b602060c08261040b600194875160a0809180518452602081015160208501526040810151604085015260ff60608201511660608501526080810151151560808501520151910152565b019301910190916103b4565b60056020600192610427866127a7565b8152019301910190916103a5565b634e487b7160e01b83526041600452602483fd5b602090610454612776565b818401520161037b565b612588565b5034610337578060031936011261033757602060405163017d78408152f35b503461033757602036600319011261033757604060a0916004358152601a60205220600180831b03815416906001810154906104e260ff60028301541660ff600460038501549401541693604051958652602086015260408501906124c1565b606083015215156080820152f35b50346103375760203660031901126103375761051a61050d61248b565b610515612999565b6128bd565b80f35b5034610337576020366003190112610337576004359060048210156103375760206105478361285d565b60ff60405191168152f35b503461033757806003193601126103375760206040516127108152f35b50346103375780600319360112610337576020600854604051908152f35b5034610337578060031936011261033757602060405160148152f35b50346103375780600319360112610337576020601954604051908152f35b50346103375780600319360112610337576020600754604051908152f35b5034610337578060031936011261033757546040516001600160a01b039091168152602090f35b503461033757806003193601126103375760206040516103e78152f35b50346103375780600319360112610337576020601d54604051908152f35b50346103375760203660031901126103375761066161248b565b610669612999565b6001600160a01b031680156106ec5760a07fd8e98bff5ae8522235ef48daecff7488b367200bea03a4e8cb4bc98108c6a49291601e5490806001600160601b03841b831617601e556040519160608352600e60608401526d39b630b127232a26b0b730b3b2b960911b6080840152600180851b031660208301526040820152a180f35b63d92e233d60e01b8252600482fd5b5034610337578060031936011261033757602060405160068152f35b503461033757602036600319011261033757600435906004821015610337576020610741836127f3565b604051908152f35b5034610337578060031936011261033757602060405160638152f35b503461033757806003193601126103375760408051916107858284612532565b60058352640352e302e360dc1b6020840152815192839160208352815191826020850152815b8381106107c8575050828201840152601f01601f19168101030190f35b6020828201810151888301880152879550016107ab565b5034610337576020366003190112610337576107f961248b565b610801612999565b6001600160a01b031680156106ec5760a07fd8e98bff5ae8522235ef48daecff7488b367200bea03a4e8cb4bc98108c6a4929160045490806001600160601b03841b83161760045560405191606083526008606084015267747265617375727960c01b6080840152600180851b031660208301526040820152a180f35b50346103375780600319360112610337576020604051629896808152f35b5034610337576020366003190112610337576080906001600160a01b036108c161248b565b1690818152600960205260408120818052602052604081205491808252600960205260408220600183526020526040808320549282815260096020528181206002825260205281812054928152600960205281812060038252602052205491604051938452602084015260408301526060820152f35b50346103375780600319360112610337576020600654604051908152f35b5034610337578060031936011261033757602060405160328152f35b50346103375760203660031901126103375761098b6124b1565b90610994612776565b5060ff82166003811015610a1757506003821015610a035760c06109bd60058402600a016127a7565b610a01604051809260a0809180518452602081015160208501526040810151604085015260ff60608201511660608501526080810151151560808501520151910152565bf35b634e487b7160e01b81526032600452602490fd5b63cba5131560e01b825260045260249150fd5b503461033757604036600319011261033757610a4461248b565b602435906004821015610a7b576001600160a01b03168252600960209081526040909220610a729190612570565b54604051908152f35b8280fd5b503461033757606036600319011261033757610a996124b1565b602435906044359182151591828403610f3257610ab4612933565b610abc61296f565b81156111025760ff1692600384116110ee5760048410156110da57610ae0846127f3565b908282029180830484149015171561101f5715610cdb57610b00816125a4565b600154604051636eb1769f60e11b81523360048201523060248201526001600160a01b0390911690602081604481855afa908115610c84578891610ca9575b50828110610c8f57506040516370a0823160e01b8152336004820152602081602481855afa908115610c84578891610c4d575b50828110610c33575090610b899130903390612f8b565b61012c81029080820461012c1490151715610c1f57612710610bae9104600754612699565b6007555b3384526009602052610bc78360408620612570565b610bd2828254612699565b9055604051928352602083015260408201527f279d78d3bc9e8f1f0c6275b03db1ea13aed8715f3f9ad832f728113b3568cc4160603392a260016000805160206130918339815191525580f35b634e487b7160e01b85526011600452602485fd5b606492889263db42144d60e01b8452600452602452604452fd5b90506020813d602011610c7c575b81610c6860209383612532565b81010312610c77575138610b72565b600080fd5b3d9150610c5b565b6040513d8a823e3d90fd5b6064928892630c95cf2760e11b8452600452602452604452fd5b90506020813d602011610cd3575b81610cc460209383612532565b81010312610c77575138610b3f565b3d9150610cb7565b8454604051636eb1769f60e11b81523360048201523060248201526001600160a01b0390911690602081604481855afa9081156110835787916110a8575b5082811061108e57506040516370a0823160e01b8152336004820152602081602481855afa90811561108357879161104d575b50828110611033575081610d639130903390612f8b565b61012c810281810461012c148215171561101f5761271090048082039180831161100b57610d9382600754612699565b600755601e546001600160a01b0316918215159182611000575b5050610dbb575b5050610bb2565b8554604051636eb1769f60e11b81523060048201526001600160a01b03838116602483015290911690602081604481855afa8015610c845784908990610fc6575b610e069250612699565b60405163095ea7b360e01b60208083019182526001600160a01b0386166024840152604480840194909452928252909291908990610e45606486612532565b84519082855af188513d82610faa575b505015610f65575b5050601e548691506001600160a01b0316803b15610f6157819060246040518094819363bc1ca3e960e01b83528760048401525af18015610f4257610f4d575b50601e5460408051636c14397f60e11b815291829060049082908a906001600160a01b03165af18015610f4257610f02575b5060207f6a35e7a759100d73c502119478cb5ae1ca768bbe0205d011ed3b0f76c59207a891604051908152a13880610db4565b6040813d604011610f3a575b81610f1b60409383612532565b81010312610f36575180151503610f325738610ecf565b8480fd5b8580fd5b3d9150610f0e565b6040513d88823e3d90fd5b85610f5a91969296612532565b9338610e9d565b5080fd5b610f9d610fa2936040519063095ea7b360e01b6020830152602482015289604482015260448152610f97606482612532565b82612ea6565b612ea6565b388080610e5d565b909150610fbe5750803b15155b3880610e55565b600114610fb7565b50506020813d602011610ff8575b81610fe160209383612532565b81010312610ff45783610e069151610dfc565b8780fd5b3d9150610fd4565b141590503880610dad565b634e487b7160e01b87526011600452602487fd5b634e487b7160e01b86526011600452602486fd5b606492879263db42144d60e01b8452600452602452604452fd5b90506020813d60201161107b575b8161106860209383612532565b81010312611077575138610d4c565b8680fd5b3d915061105b565b6040513d89823e3d90fd5b6064928792630c95cf2760e11b8452600452602452604452fd5b90506020813d6020116110d2575b816110c360209383612532565b81010312611077575138610d19565b3d91506110b6565b634e487b7160e01b85526021600452602485fd5b63fab9b83760e01b85526004849052602485fd5b63f4f5b73360e01b8552600485fd5b5034610337576040366003190112610337576002546001600160a01b031633036111435761051a6024356004356126f9565b635a1c6a5960e01b815233600452602490fd5b5034610337578060031936011261033757600080516020613031833981519152546040516001600160a01b039091168152602090f35b503461033757610100366003190112610337576111a761248b565b6024356001600160a01b03811690819003610a7b576044356001600160a01b03811690819003611467576064356001600160a01b0381169290839003610f32576084356001600160a01b03811690819003610f365760a4356001600160a01b038116908190036110775760c4356001600160a01b0381169290839003610ff45760e435956000805160206130b1833981519152549760ff8960401c16159867ffffffffffffffff81168015908161145f575b6001149081611455575b15908161144c575b5061143d5767ffffffffffffffff1981166001176000805160206130b18339815191525589611410575b506001600160a01b038116156114015785156114015786156114015781156114015782156114015783156114015784156114015787156113f3576112e3906112db612f01565b610515612f01565b6112eb612f01565b6112f3612f01565b6112fb612f01565b600160008051602061309183398151915255611315612f01565b6001600160601b0360a01b8954161788556001600160601b0360a01b60015416176001556001600160601b0360a01b60025416176002556001600160601b0360a01b60035416176003556001600160601b0360a01b60045416176004556001600160601b0360a01b6005541617600555601d5560016019556001601c556113995780f35b68ff0000000000000000196000805160206130b183398151915254166000805160206130b1833981519152557fc7f505b2f371ae2175ee4913f4499e1f2633a7b5936321eed1cdaeb6115181d2602060405160018152a180f35b62bfc92160e01b8a5260048afd5b63d92e233d60e01b8a5260048afd5b68ffffffffffffffffff191668010000000000000001176000805160206130b18339815191525538611295565b63f92ee8a960e01b8b5260048bfd5b9050153861126b565b303b159150611263565b8b9150611259565b8380fd5b5034610337578060031936011261033757611484612999565b61148c61296f565b600160ff19600080516020613071833981519152541617600080516020613071833981519152557f62e78cea01bee320cd4e420270b5ea74000d11b0c9f74754ebdbfc544b05a2586020604051338152a180f35b50346103375760203660031901126103375760406020916004358152601b83522054604051908152f35b5034610337576020366003190112610337576115246124b1565b61152c612999565b60ff811690600382101561172857600381101561171457600502600d015460081c60ff166117025781601954916115628361268a565b601955601c546115718161268a565b601c5560405160208101916001600160601b03193060601b16835285603483015260ff60f81b60548301524260558301526075820152607581526115b6609582612532565b51902092602060018060a01b03600254166024604051809681936371c8a23960e11b83528960048401525af19283156116f75785936116c3575b5060048210156110da5760405191611607836124e4565b3083526020830191825261161f604084019182612601565b426060840190815260808401878152858852601a60205260408820945185546001600160a01b0319166001600160a01b0391909116178555925160018501559051600284019060048110156116af57916116a094939160049360ff8019835416911617905551600384015551151591019060ff801983541691151516179055565b8252601b602052604082205580f35b634e487b7160e01b88526021600452602488fd5b9092506020813d6020116116ef575b816116df60209383612532565b81010312610f32575191386115f0565b3d91506116d2565b6040513d87823e3d90fd5b632f8ecec960e21b8252600452602490fd5b634e487b7160e01b83526032600452602483fd5b63cba5131560e01b83526004829052602483fd5b5034610337576060366003190112610337576117566124b1565b9061175f612999565b60ff821691600383101561184c57600381101561031157600581029060ff600d83015460081c1661183857907f156f6fef57e34329718d6efbd41f31a81afd51d967d24f97b94eb576dca20cfe91611832601954916117bd8361268a565b6019556103e8602435069361180a6103e86044350691604051906117e082612516565b868252876020830152836040830152896060830152600160808301524260a0830152600a016126a6565b60405194859485929360ff919594606093608086019786526020860152604085015216910152565b0390a180f35b632f8ecec960e21b83526004849052602483fd5b5060249163cba5131560e01b8252600452fd5b50346103375780600319360112610337576001546040516001600160a01b039091168152602090f35b5034610337578060031936011261033757602060405160028152f35b50346103375780600319360112610337576118bd612999565b60008051602061303183398151915280546001600160a01b0319811690915581906001600160a01b03167f8be0079c531659141344cd1fd0a4f28419497f9722a3daafe3b4186f6b6457e08280a380f35b5034610337578060031936011261033757601e546040516001600160a01b039091168152602090f35b50346103375780600319360112610337576005546040516001600160a01b039091168152602090f35b50346103375780600319360112610337576002546040516001600160a01b039091168152602090f35b5034610337576020366003190112610337576004356119a6612999565b80156119e65760407fc401b47db6ec4c8671a2f54cf3a5f3f7069c3b71b6c6ad9ed90f2c8cc9920b6a91601d549080601d5582519182526020820152a180f35b62bfc92160e01b8252600482fd5b5034610337578060031936011261033757602060ff60008051602061307183398151915254166040519015158152f35b5034610337578060031936011261033757602060405161012c8152f35b50346103375780600319360112610337577f00000000000000000000000000000000000000000000000000000000000000006001600160a01b03163003611a9a5760206040516000805160206130518339815191528152f35b63703e46dd60e11b8152600490fd5b50604036600319011261033757611abe61248b565b6024359067ffffffffffffffff8211610a7b5736602383011215610a7b5781600401359083611aec83612554565b93611afa6040519586612532565b83855260208501933660248284010111610a7b57806024602093018637850101526001600160a01b037f000000000000000000000000000000000000000000000000000000000000000016308114908115611cd3575b50611cc457611b5d612999565b6040516352d1902d60e01b81526001600160a01b0382169390602081600481885afa869181611c90575b50611ba057634c9c8ce360e01b86526004859052602486fd5b9384600080516020613051833981519152879603611c7e5750823b15611c6c5760008051602061305183398151915280546001600160a01b031916821790558491907fbc7cd75a20ee27fd9adebab32041f755214dbc6bffa90cc0225b39da2e5c2d3b8380a2805115611c5157611c459382915190845af43d15611c49573d91611c2983612554565b92611c376040519485612532565b83523d85602085013e612fcf565b5080f35b606091612fcf565b5050505034611c5d5780f35b63b398979f60e01b8152600490fd5b634c9c8ce360e01b8552600452602484fd5b632a87526960e21b8652600452602485fd5b9091506020813d602011611cbc575b81611cac60209383612532565b8101031261107757519038611b87565b3d9150611c9f565b63703e46dd60e11b8452600484fd5b600080516020613051833981519152546001600160a01b03161415905038611b50565b503461033757602036600319011261033757611d1061248b565b611d18612999565b6001600160a01b031680156106ec5760a07fd8e98bff5ae8522235ef48daecff7488b367200bea03a4e8cb4bc98108c6a4929160055490806001600160601b03841b8316176005556040519160608352600a6060840152696e6674526576656e756560b01b6080840152600180851b031660208301526040820152a180f35b5034610337578060031936011261033757611db0612999565b611db8612933565b6007548015611e5a576007829055815460045460405163a9059cbb60e01b60208201526001600160a01b039182166024820152604480820185905281527fc0819c13be868895eb93e40eaceb96de976442fa1d404e5c55f14bb65a8c489a9392611e289216610f9d606483612532565b600454604080516001600160a01b0390921682526020820192909252a160016000805160206130918339815191525580f35b630d00db4d60e31b8252600482fd5b50346103375780600319360112610337576004546040516001600160a01b039091168152602090f35b5034610337578060031936011261033757602061074161260d565b5034610337578060031936011261033757611ec6612999565b6000805160206130718339815191525460ff811615611f205760ff1916600080516020613071833981519152557f5db9ee0a495bf2e6ff9c91a7834c1ba4fdd244a5e8aa4e537bd38aeae4b073aa6020604051338152a180f35b638dfc202b60e01b8252600482fd5b503461033757806003193601126103375760206040516125e48152f35b5034610337578060031936011261033757602060405160128152f35b503461033757806003193601126103375760206040516302f969e08152f35b5034610337576020366003190112610337576004356003811015610f615760059060c092500280600a01549060ff600b82015491600c810154600e600d8301549201549360405195865260208601526040850152818116606085015260081c161515608083015260a0820152f35b50346103375780600319360112610337576003546040516001600160a01b039091168152602090f35b50346103375760203660031901126103375760408160a09260808351612043816124e4565b828152826020820152828582015282606082015201526004358152601a6020522060405190612071826124e4565b600180841b038154168252600181015490602083019182526120e060ff6002830154166120a2604086019182612601565b60ff6004600385015494606088019586520154169360808601941515855260405195600180891b0390511686525160208601525160408501906124c1565b5160608301525115156080820152f35b50346103375760403660031901126103375761210a6124b1565b906121136124a1565b9161211c612933565b61212461296f565b60ff81166003811015610325575060ff831690600382116123d85760038110156117145760050260ff600d82600a0192015460081c16156123c55760048210156123b157338352600960205261217d8260408520612570565b54156123955733835260096020526121988260408520612570565b9384546000198101908111610c1f57849555815490601c546121b98161268a565b601c556040519160208301936001600160601b03193360601b168552603484015260ff60f81b9060f81b166054830152426055830152607582015260758152612203609582612532565b5190206002546040516371c8a23960e11b8152600481018390529460209186916024918391906001600160a01b03165af19384156116f7578594612361575b50815460405190612252826124e4565b338252602082019081526040820161226a8682612601565b426060840190815260808401898152888a52601a60205260408a20945185546001600160a01b0319166001600160a01b03919091161785559251600185015590516002840190600481101561234d5789936122f2936040969360049360209d5060ff8019835416911617905551600384015551151591019060ff801983541691151516179055565b858152601b875220555490604051918252838201528160408201527f5e0c015d137a94a9e864e17092fb126241c929614b46c3bc32163b46de9bf05b60603392a2600160008051602061309183398151915255604051908152f35b634e487b7160e01b8a52602160045260248afd5b9093506020813d60201161238d575b8161237d60209383612532565b81010312610f3257519238612242565b3d9150612370565b60648383639f27773f60e01b8252600452600160245280604452fd5b634e487b7160e01b83526021600452602483fd5b546332c3e47160e21b8352600452602482fd5b63fab9b83760e01b83526004829052602483fd5b50346103375760403660031901126103375761240661248b565b9060ff6124116124a1565b169160038311612459576001600160a01b03168152600960205260408120906004831015612445576020610a728484612570565b634e487b7160e01b81526021600452602490fd5b5060249163fab9b83760e01b8252600452fd5b50346103375760203660031901126103375760206107416004356125a4565b600435906001600160a01b0382168203610c7757565b6024359060ff82168203610c7757565b6004359060ff82168203610c7757565b9060048210156124ce5752565b634e487b7160e01b600052602160045260246000fd5b60a0810190811067ffffffffffffffff82111761250057604052565b634e487b7160e01b600052604160045260246000fd5b60c0810190811067ffffffffffffffff82111761250057604052565b90601f8019910116810190811067ffffffffffffffff82111761250057604052565b67ffffffffffffffff811161250057601f01601f191660200190565b9060048110156124ce57600052602052604060002090565b34610c77576000366003190112610c7757602060405160038152f35b68056bc75e2d6310000081029080820468056bc75e2d6310000014901517156125eb57601d549081156125d5570490565b634e487b7160e01b600052601260045260246000fd5b634e487b7160e01b600052601160045260246000fd5b60048210156124ce5752565b601e546001600160a01b0316801561268457602060049160405192838092630579ef8b60e51b82525afa90811561267857600091612649575090565b90506020813d602011612670575b8161266460209383612532565b81010312610c77575190565b3d9150612657565b6040513d6000823e3d90fd5b50600090565b60001981146125eb5760010190565b919082018092116125eb57565b8151815560208201516001820155604082015160028201556060820151600382018054608085015161ff0090151560081b1660ff90931661ffff199091161791909117905560a090910151600490910155565b9081600052601a60205260406000209160018060a01b0383541690811561276257600484019081549060ff821661274e575060ff1916600117905530146127455761274391612ab1565b565b612743916129cf565b633f8cbced60e21b60005260045260246000fd5b63098354e960e41b60005260045260246000fd5b6040519061278382612516565b600060a0838281528260208201528260408201528260608201528260808201520152565b906040516127b481612516565b60a06004829480548452600181015460208501526002810154604085015260ff6003820154818116606087015260081c16151560808501520154910152565b60048110156124ce5780156128555760006001821461284c575060028114612843576000600382146128395760ff92505063fab9b83760e01b6000521660045260246000fd5b50506302f969e090565b5063017d784090565b50506298968090565b50620f424090565b60048110156124ce5780156128b7576000600182146128b05750600281146128aa576000600382146128a35760ff92505063fab9b83760e01b6000521660045260246000fd5b5050606390565b50603290565b5050601490565b50600290565b6001600160a01b0316801561291d5760008051602061303183398151915280546001600160a01b0319811683179091556001600160a01b03167f8be0079c531659141344cd1fd0a4f28419497f9722a3daafe3b4186f6b6457e0600080a3565b631e4fbdf760e01b600052600060045260246000fd5b6002600080516020613091833981519152541461295e57600260008051602061309183398151915255565b633ee5aeb560e01b60005260046000fd5b60ff600080516020613071833981519152541661298857565b63d93c066560e01b60005260046000fd5b600080516020613031833981519152546001600160a01b031633036129ba57565b63118cdaa760e01b6000523360045260246000fd5b9060ff6002830154169160048310156124ce576003831015612aac576000600584029360ff600d86015460081c16612aa5577f156f6fef57e34329718d6efbd41f31a81afd51d967d24f97b94eb576dca20cfe94612a7683612aa0945060016103e88089069860801c0696019283549160405192612a4c84612516565b8352886020840152876040840152806060840152600160808401524260a084015250600a016126a6565b549260405194859485929360ff919594606093608086019786526020860152604085015216910152565b0390a1565b5050505050565b505050565b612abe6001820154612f2f565b9290158015612e88575b612aac576003831015612e7257600583029182600a019160ff612af08160028501541661285d565b16606482061015612d875750549054600d92909201805461ff0019169055601e546001600160a01b03918216916000911680612cef575b5060407fe1ef7825c332c25296359d37af815442cbd1fd6d620d8271b4180bd68f834bb0918151908582526020820152a26103e881018091116125eb57600090601c54612b738161268a565b601c5560405160208101916001600160601b03193060601b168352836034830152607f60f91b6054830152426055830152607582015260758152612bb8609582612532565b51902092602060018060a01b03600254166024604051809681936371c8a23960e11b83528960048401525af192831561267857600093612cba575b5060ff169060048210156124ce5760405190612c0e826124e4565b30825260208201908152612c26604083019384612601565b4260608301908152600060808401818152868252601a6020526040909120935184546001600160a01b0319166001600160a01b0391909116178455915160018401559251600283019390919060048310156124ce57612caa9460049360ff8019835416911617905551600384015551151591019060ff801983541691151516179055565b600052601b602052604060002055565b90926020823d602011612ce7575b81612cd560209383612532565b810103126103375750519160ff612bf3565b3d9150612cc8565b602082916024604051809481936378b5aa8f60e01b83528860048401525af1918215612d7b578092612d25575b50506040612b27565b9091506020823d602011612d73575b81612d4160209383612532565b8101031261033757505160407fe1ef7825c332c25296359d37af815442cbd1fd6d620d8271b4180bd68f834bb0612d1c565b3d9150612d34565b604051903d90823e3d90fd5b91935060018060a01b0390541691600d81019260ff84541660ff81146125eb57600160ff91011660ff1985541617845560ff845416806003039160ff83116125eb577fde2c7625951ef209e3b14dc5de7c713aaf12a680817df0ba922f064834ed47e4604060039460ff8a54918351928352166020820152a21015612e0d575b50505050565b7f991f141b1f67192a98969cd4005f41d17ef23a517c6975606af1c6f48a0ae37d93606093600c926103e8808660081c069560101c06938186600b87940155015560ff198154169055549160405192835260208301526040820152a138808080612e07565b634e487b7160e01b600052603260045260246000fd5b506003831015612e725760ff600d60058502015460081c1615612ac8565b906000602091828151910182855af115612678576000513d612ef857506001600160a01b0381163b155b612ed75750565b635274afe760e01b60009081526001600160a01b0391909116600452602490fd5b60011415612ed0565b60ff6000805160206130b18339815191525460401c1615612f1e57565b631afcd79f60e31b60005260046000fd5b9060005b600360ff821610612f475750600091508190565b6003811015612e7257600581028381600a0154149081612f79575b50612f725760010160ff16612f33565b6001925090565b60ff9150600d015460081c1638612f62565b6040516323b872dd60e01b60208201526001600160a01b03928316602482015292909116604483015260648083019390935291815261274391610f9d608483612532565b90612ff55750805115612fe457602081519101fd5b63d6bda27560e01b60005260046000fd5b81511580613027575b613006575090565b639996b31560e01b60009081526001600160a01b0391909116600452602490fd5b50803b15612ffe56fe9016d09d72d40fdae2fd8ceac6b6234c7706214fd39c1cd1e609a0528c199300360894a13ba1a3210667c828492db98dca3e2076cc3735a920a3ca505d382bbccd5ed15c6e187e77e9aee88184c21f4f2182ab5827cb3b7e07fbedcd63f033009b779b17422d0df92223018b32b4d1fa46e071723d6817e2486d003becc55f00f0c57e16840df040f15088dc2f81fe391c3923bec73e23a9662efc9c229c6a00a26469706673582212200a5e345f3db6ad7f835866d8cc0443ef0865e4b394fb83f7dd9458b6b335021864736f6c634300081a0033","opcodes":"PUSH1 0xA0 DUP1 PUSH1 0x40 MSTORE CALLVALUE PUSH2 0xEA JUMPI ADDRESS PUSH1 0x80 MSTORE PUSH32 0xF0C57E16840DF040F15088DC2F81FE391C3923BEC73E23A9662EFC9C229C6A00 SLOAD PUSH1 0xFF DUP2 PUSH1 0x40 SHR AND PUSH2 0xD9 JUMPI PUSH1 0x2 PUSH1 0x1 PUSH1 0x40 SHL SUB NOT PUSH1 0x1 PUSH1 0x1 PUSH1 0x40 SHL SUB DUP3 AND ADD PUSH2 0x73 JUMPI JUMPDEST PUSH1 0x40 MLOAD PUSH2 0x3106 SWAP1 DUP2 PUSH2 0xF0 DUP3 CODECOPY PUSH1 0x80 MLOAD DUP2 DUP2 DUP2 PUSH2 0x1A54 ADD MSTORE PUSH2 0x1B25 ADD MSTORE RETURN JUMPDEST PUSH1 0x1 PUSH1 0x1 PUSH1 0x40 SHL SUB NOT AND PUSH1 0x1 PUSH1 0x1 PUSH1 0x40 SHL SUB SWAP1 DUP2 OR PUSH32 0xF0C57E16840DF040F15088DC2F81FE391C3923BEC73E23A9662EFC9C229C6A00 SSTORE DUP2 MSTORE PUSH32 0xC7F505B2F371AE2175EE4913F4499E1F2633A7B5936321EED1CDAEB6115181D2 SWAP1 PUSH1 0x20 SWAP1 LOG1 CODESIZE DUP1 PUSH2 0x54 JUMP JUMPDEST PUSH4 0xF92EE8A9 PUSH1 0xE0 SHL PUSH1 0x0 MSTORE PUSH1 0x4 PUSH1 0x0 REVERT JUMPDEST PUSH1 0x0 DUP1 REVERT INVALID PUSH1 0x80 PUSH1 0x40 MSTORE PUSH1 0x4 CALLDATASIZE LT ISZERO PUSH2 0x12 JUMPI PUSH1 0x0 DUP1 REVERT JUMPDEST PUSH1 0x0 DUP1 CALLDATALOAD PUSH1 0xE0 SHR DUP1 PUSH4 0x64C973C EQ PUSH2 0x246C JUMPI DUP1 PUSH4 0x771197F EQ PUSH2 0x23EC JUMPI DUP1 PUSH4 0x11648422 EQ PUSH2 0x20F0 JUMPI DUP1 PUSH4 0x23B5CB5D EQ PUSH2 0x201E JUMPI DUP1 PUSH4 0x25C61FCD EQ PUSH2 0x1FF5 JUMPI DUP1 PUSH4 0x2795A90E EQ PUSH2 0x1F87 JUMPI DUP1 PUSH4 0x2E9ED2E4 EQ PUSH2 0x1F68 JUMPI DUP1 PUSH4 0x38EFA831 EQ PUSH2 0x1F4C JUMPI DUP1 PUSH4 0x3BD81715 EQ PUSH2 0x1F2F JUMPI DUP1 PUSH4 0x3F4BA83A EQ PUSH2 0x1EAD JUMPI DUP1 PUSH4 0x4129849F EQ PUSH2 0x1E92 JUMPI DUP1 PUSH4 0x4626402B EQ PUSH2 0x1E69 JUMPI DUP1 PUSH4 0x476343EE EQ PUSH2 0x1D97 JUMPI DUP1 PUSH4 0x4C4E2A46 EQ PUSH2 0x1CF6 JUMPI DUP1 PUSH4 0x4F1EF286 EQ PUSH2 0x1AA9 JUMPI DUP1 PUSH4 0x52D1902D EQ PUSH2 0x1A41 JUMPI DUP1 PUSH4 0x539AA77F EQ PUSH2 0x1A24 JUMPI DUP1 PUSH4 0x5C975ABB EQ PUSH2 0x19F4 JUMPI DUP1 PUSH4 0x607C45D1 EQ PUSH2 0x1989 JUMPI DUP1 PUSH4 0x62138414 EQ PUSH2 0x1960 JUMPI DUP1 PUSH4 0x64C618CC EQ PUSH2 0x1937 JUMPI DUP1 PUSH4 0x6FEA438D EQ PUSH2 0x190E JUMPI DUP1 PUSH4 0x715018A6 EQ PUSH2 0x18A4 JUMPI DUP1 PUSH4 0x7881A070 EQ PUSH2 0x1888 JUMPI DUP1 PUSH4 0x79BABD2C EQ PUSH2 0x185F JUMPI DUP1 PUSH4 0x7A0B07CF EQ PUSH2 0x173C JUMPI DUP1 PUSH4 0x7ED2F783 EQ PUSH2 0x150A JUMPI DUP1 PUSH4 0x7EDC648C EQ PUSH2 0x14E0 JUMPI DUP1 PUSH4 0x8456CB59 EQ PUSH2 0x146B JUMPI DUP1 PUSH4 0x88301911 EQ PUSH2 0x118C JUMPI DUP1 PUSH4 0x8DA5CB5B EQ PUSH2 0x1156 JUMPI DUP1 PUSH4 0x8F561ACC EQ PUSH2 0x1111 JUMPI DUP1 PUSH4 0x94EA04D1 EQ PUSH2 0xA7F JUMPI DUP1 PUSH4 0x970CFF93 EQ PUSH2 0xA2A JUMPI DUP1 PUSH4 0x9B7D1A2A EQ PUSH2 0x971 JUMPI DUP1 PUSH4 0x9F48ED23 EQ PUSH2 0x955 JUMPI DUP1 PUSH4 0x9FB769DD EQ PUSH2 0x937 JUMPI DUP1 PUSH4 0xA2AFC373 EQ PUSH2 0x89C JUMPI DUP1 PUSH4 0xA4CEDC39 EQ PUSH2 0x87E JUMPI DUP1 PUSH4 0xA8602FEA EQ PUSH2 0x7DF JUMPI DUP1 PUSH4 0xAD3CB1CC EQ PUSH2 0x765 JUMPI DUP1 PUSH4 0xB036D591 EQ PUSH2 0x749 JUMPI DUP1 PUSH4 0xBF370A61 EQ PUSH2 0x717 JUMPI DUP1 PUSH4 0xC1419DEF EQ PUSH2 0x6FB JUMPI DUP1 PUSH4 0xC5F52511 EQ PUSH2 0x647 JUMPI DUP1 PUSH4 0xCC7A69DE EQ PUSH2 0x629 JUMPI DUP1 PUSH4 0xD2574183 EQ PUSH2 0x60C JUMPI DUP1 PUSH4 0xD33953BA EQ PUSH2 0x5E5 JUMPI DUP1 PUSH4 0xD3631FA5 EQ PUSH2 0x5C7 JUMPI DUP1 PUSH4 0xD9DEB60B EQ PUSH2 0x5A9 JUMPI DUP1 PUSH4 0xDF33C1FD EQ PUSH2 0x58D JUMPI DUP1 PUSH4 0xE155D79E EQ PUSH2 0x56F JUMPI DUP1 PUSH4 0xE1A45218 EQ PUSH2 0x552 JUMPI DUP1 PUSH4 0xEB76C37E EQ PUSH2 0x45E JUMPI DUP1 PUSH4 0xEFDF9949 EQ PUSH2 0x51D JUMPI DUP1 PUSH4 0xF2FDE38B EQ PUSH2 0x4F0 JUMPI DUP1 PUSH4 0xF4F00092 EQ PUSH2 0x482 JUMPI DUP1 PUSH4 0xF8CE2C7D EQ PUSH2 0x463 JUMPI DUP1 PUSH4 0xFC774C5C EQ PUSH2 0x45E JUMPI DUP1 PUSH4 0xFCC536BA EQ PUSH2 0x358 JUMPI DUP1 PUSH4 0xFD626A18 EQ PUSH2 0x33A JUMPI PUSH4 0xFE5C7BA8 EQ PUSH2 0x2C7 JUMPI PUSH1 0x0 DUP1 REVERT JUMPDEST CALLVALUE PUSH2 0x337 JUMPI PUSH1 0x20 CALLDATASIZE PUSH1 0x3 NOT ADD SLT PUSH2 0x337 JUMPI PUSH2 0x2E0 PUSH2 0x24B1 JUMP JUMPDEST PUSH2 0x2E8 PUSH2 0x2999 JUMP JUMPDEST PUSH1 0xFF DUP2 AND PUSH1 0x3 DUP2 LT ISZERO PUSH2 0x325 JUMPI POP PUSH1 0x3 DUP2 LT ISZERO PUSH2 0x311 JUMPI PUSH1 0x5 MUL PUSH1 0xD ADD DUP1 SLOAD PUSH2 0xFF00 NOT AND SWAP1 SSTORE DUP1 RETURN JUMPDEST PUSH4 0x4E487B71 PUSH1 0xE0 SHL DUP3 MSTORE PUSH1 0x32 PUSH1 0x4 MSTORE PUSH1 0x24 DUP3 REVERT JUMPDEST PUSH4 0xCBA51315 PUSH1 0xE0 SHL DUP4 MSTORE PUSH1 0x4 MSTORE PUSH1 0x24 DUP3 REVERT JUMPDEST DUP1 REVERT JUMPDEST POP CALLVALUE PUSH2 0x337 JUMPI DUP1 PUSH1 0x3 NOT CALLDATASIZE ADD SLT PUSH2 0x337 JUMPI PUSH1 0x20 PUSH1 0x40 MLOAD PUSH3 0xF4240 DUP2 MSTORE RETURN JUMPDEST POP CALLVALUE PUSH2 0x337 JUMPI DUP1 PUSH1 0x3 NOT CALLDATASIZE ADD SLT PUSH2 0x337 JUMPI PUSH1 0x60 PUSH1 0x40 MLOAD PUSH2 0x379 PUSH1 0x60 DUP3 PUSH2 0x2532 JUMP JUMPDEST DUP3 JUMPDEST DUP3 DUP2 LT PUSH2 0x449 JUMPI DUP4 PUSH1 0x40 MLOAD PUSH1 0x60 DUP2 ADD DUP2 DUP2 LT PUSH8 0xFFFFFFFFFFFFFFFF DUP3 GT OR PUSH2 0x435 JUMPI PUSH1 0x40 MSTORE PUSH1 0xA DUP3 DUP3 JUMPDEST PUSH1 0x3 DUP3 LT PUSH2 0x417 JUMPI PUSH1 0x40 MLOAD DUP5 DUP7 DUP3 JUMPDEST PUSH1 0x3 DUP3 LT PUSH2 0x3C2 JUMPI PUSH2 0x240 DUP5 RETURN JUMPDEST PUSH1 0x20 PUSH1 0xC0 DUP3 PUSH2 0x40B PUSH1 0x1 SWAP5 DUP8 MLOAD PUSH1 0xA0 DUP1 SWAP2 DUP1 MLOAD DUP5 MSTORE PUSH1 0x20 DUP2 ADD MLOAD PUSH1 0x20 DUP6 ADD MSTORE PUSH1 0x40 DUP2 ADD MLOAD PUSH1 0x40 DUP6 ADD MSTORE PUSH1 0xFF PUSH1 0x60 DUP3 ADD MLOAD AND PUSH1 0x60 DUP6 ADD MSTORE PUSH1 0x80 DUP2 ADD MLOAD ISZERO ISZERO PUSH1 0x80 DUP6 ADD MSTORE ADD MLOAD SWAP2 ADD MSTORE JUMP JUMPDEST ADD SWAP4 ADD SWAP2 ADD SWAP1 SWAP2 PUSH2 0x3B4 JUMP JUMPDEST PUSH1 0x5 PUSH1 0x20 PUSH1 0x1 SWAP3 PUSH2 0x427 DUP7 PUSH2 0x27A7 JUMP JUMPDEST DUP2 MSTORE ADD SWAP4 ADD SWAP2 ADD SWAP1 SWAP2 PUSH2 0x3A5 JUMP JUMPDEST PUSH4 0x4E487B71 PUSH1 0xE0 SHL DUP4 MSTORE PUSH1 0x41 PUSH1 0x4 MSTORE PUSH1 0x24 DUP4 REVERT JUMPDEST PUSH1 0x20 SWAP1 PUSH2 0x454 PUSH2 0x2776 JUMP JUMPDEST DUP2 DUP5 ADD MSTORE ADD PUSH2 0x37B JUMP JUMPDEST PUSH2 0x2588 JUMP JUMPDEST POP CALLVALUE PUSH2 0x337 JUMPI DUP1 PUSH1 0x3 NOT CALLDATASIZE ADD SLT PUSH2 0x337 JUMPI PUSH1 0x20 PUSH1 0x40 MLOAD PUSH4 0x17D7840 DUP2 MSTORE RETURN JUMPDEST POP CALLVALUE PUSH2 0x337 JUMPI PUSH1 0x20 CALLDATASIZE PUSH1 0x3 NOT ADD SLT PUSH2 0x337 JUMPI PUSH1 0x40 PUSH1 0xA0 SWAP2 PUSH1 0x4 CALLDATALOAD DUP2 MSTORE PUSH1 0x1A PUSH1 0x20 MSTORE KECCAK256 PUSH1 0x1 DUP1 DUP4 SHL SUB DUP2 SLOAD AND SWAP1 PUSH1 0x1 DUP2 ADD SLOAD SWAP1 PUSH2 0x4E2 PUSH1 0xFF PUSH1 0x2 DUP4 ADD SLOAD AND PUSH1 0xFF PUSH1 0x4 PUSH1 0x3 DUP6 ADD SLOAD SWAP5 ADD SLOAD AND SWAP4 PUSH1 0x40 MLOAD SWAP6 DUP7 MSTORE PUSH1 0x20 DUP7 ADD MSTORE PUSH1 0x40 DUP6 ADD SWAP1 PUSH2 0x24C1 JUMP JUMPDEST PUSH1 0x60 DUP4 ADD MSTORE ISZERO ISZERO PUSH1 0x80 DUP3 ADD MSTORE RETURN JUMPDEST POP CALLVALUE PUSH2 0x337 JUMPI PUSH1 0x20 CALLDATASIZE PUSH1 0x3 NOT ADD SLT PUSH2 0x337 JUMPI PUSH2 0x51A PUSH2 0x50D PUSH2 0x248B JUMP JUMPDEST PUSH2 0x515 PUSH2 0x2999 JUMP JUMPDEST PUSH2 0x28BD JUMP JUMPDEST DUP1 RETURN JUMPDEST POP CALLVALUE PUSH2 0x337 JUMPI PUSH1 0x20 CALLDATASIZE PUSH1 0x3 NOT ADD SLT PUSH2 0x337 JUMPI PUSH1 0x4 CALLDATALOAD SWAP1 PUSH1 0x4 DUP3 LT ISZERO PUSH2 0x337 JUMPI PUSH1 0x20 PUSH2 0x547 DUP4 PUSH2 0x285D JUMP JUMPDEST PUSH1 0xFF PUSH1 0x40 MLOAD SWAP2 AND DUP2 MSTORE RETURN JUMPDEST POP CALLVALUE PUSH2 0x337 JUMPI DUP1 PUSH1 0x3 NOT CALLDATASIZE ADD SLT PUSH2 0x337 JUMPI PUSH1 0x20 PUSH1 0x40 MLOAD PUSH2 0x2710 DUP2 MSTORE RETURN JUMPDEST POP CALLVALUE PUSH2 0x337 JUMPI DUP1 PUSH1 0x3 NOT CALLDATASIZE ADD SLT PUSH2 0x337 JUMPI PUSH1 0x20 PUSH1 0x8 SLOAD PUSH1 0x40 MLOAD SWAP1 DUP2 MSTORE RETURN JUMPDEST POP CALLVALUE PUSH2 0x337 JUMPI DUP1 PUSH1 0x3 NOT CALLDATASIZE ADD SLT PUSH2 0x337 JUMPI PUSH1 0x20 PUSH1 0x40 MLOAD PUSH1 0x14 DUP2 MSTORE RETURN JUMPDEST POP CALLVALUE PUSH2 0x337 JUMPI DUP1 PUSH1 0x3 NOT CALLDATASIZE ADD SLT PUSH2 0x337 JUMPI PUSH1 0x20 PUSH1 0x19 SLOAD PUSH1 0x40 MLOAD SWAP1 DUP2 MSTORE RETURN JUMPDEST POP CALLVALUE PUSH2 0x337 JUMPI DUP1 PUSH1 0x3 NOT CALLDATASIZE ADD SLT PUSH2 0x337 JUMPI PUSH1 0x20 PUSH1 0x7 SLOAD PUSH1 0x40 MLOAD SWAP1 DUP2 MSTORE RETURN JUMPDEST POP CALLVALUE PUSH2 0x337 JUMPI DUP1 PUSH1 0x3 NOT CALLDATASIZE ADD SLT PUSH2 0x337 JUMPI SLOAD PUSH1 0x40 MLOAD PUSH1 0x1 PUSH1 0x1 PUSH1 0xA0 SHL SUB SWAP1 SWAP2 AND DUP2 MSTORE PUSH1 0x20 SWAP1 RETURN JUMPDEST POP CALLVALUE PUSH2 0x337 JUMPI DUP1 PUSH1 0x3 NOT CALLDATASIZE ADD SLT PUSH2 0x337 JUMPI PUSH1 0x20 PUSH1 0x40 MLOAD PUSH2 0x3E7 DUP2 MSTORE RETURN JUMPDEST POP CALLVALUE PUSH2 0x337 JUMPI DUP1 PUSH1 0x3 NOT CALLDATASIZE ADD SLT PUSH2 0x337 JUMPI PUSH1 0x20 PUSH1 0x1D SLOAD PUSH1 0x40 MLOAD SWAP1 DUP2 MSTORE RETURN JUMPDEST POP CALLVALUE PUSH2 0x337 JUMPI PUSH1 0x20 CALLDATASIZE PUSH1 0x3 NOT ADD SLT PUSH2 0x337 JUMPI PUSH2 0x661 PUSH2 0x248B JUMP JUMPDEST PUSH2 0x669 PUSH2 0x2999 JUMP JUMPDEST PUSH1 0x1 PUSH1 0x1 PUSH1 0xA0 SHL SUB AND DUP1 ISZERO PUSH2 0x6EC JUMPI PUSH1 0xA0 PUSH32 0xD8E98BFF5AE8522235EF48DAECFF7488B367200BEA03A4E8CB4BC98108C6A492 SWAP2 PUSH1 0x1E SLOAD SWAP1 DUP1 PUSH1 0x1 PUSH1 0x1 PUSH1 0x60 SHL SUB DUP5 SHL DUP4 AND OR PUSH1 0x1E SSTORE PUSH1 0x40 MLOAD SWAP2 PUSH1 0x60 DUP4 MSTORE PUSH1 0xE PUSH1 0x60 DUP5 ADD MSTORE PUSH14 0x39B630B127232A26B0B730B3B2B9 PUSH1 0x91 SHL PUSH1 0x80 DUP5 ADD MSTORE PUSH1 0x1 DUP1 DUP6 SHL SUB AND PUSH1 0x20 DUP4 ADD MSTORE PUSH1 0x40 DUP3 ADD MSTORE LOG1 DUP1 RETURN JUMPDEST PUSH4 0xD92E233D PUSH1 0xE0 SHL DUP3 MSTORE PUSH1 0x4 DUP3 REVERT JUMPDEST POP CALLVALUE PUSH2 0x337 JUMPI DUP1 PUSH1 0x3 NOT CALLDATASIZE ADD SLT PUSH2 0x337 JUMPI PUSH1 0x20 PUSH1 0x40 MLOAD PUSH1 0x6 DUP2 MSTORE RETURN JUMPDEST POP CALLVALUE PUSH2 0x337 JUMPI PUSH1 0x20 CALLDATASIZE PUSH1 0x3 NOT ADD SLT PUSH2 0x337 JUMPI PUSH1 0x4 CALLDATALOAD SWAP1 PUSH1 0x4 DUP3 LT ISZERO PUSH2 0x337 JUMPI PUSH1 0x20 PUSH2 0x741 DUP4 PUSH2 0x27F3 JUMP JUMPDEST PUSH1 0x40 MLOAD SWAP1 DUP2 MSTORE RETURN JUMPDEST POP CALLVALUE PUSH2 0x337 JUMPI DUP1 PUSH1 0x3 NOT CALLDATASIZE ADD SLT PUSH2 0x337 JUMPI PUSH1 0x20 PUSH1 0x40 MLOAD PUSH1 0x63 DUP2 MSTORE RETURN JUMPDEST POP CALLVALUE PUSH2 0x337 JUMPI DUP1 PUSH1 0x3 NOT CALLDATASIZE ADD SLT PUSH2 0x337 JUMPI PUSH1 0x40 DUP1 MLOAD SWAP2 PUSH2 0x785 DUP3 DUP5 PUSH2 0x2532 JUMP JUMPDEST PUSH1 0x5 DUP4 MSTORE PUSH5 0x352E302E3 PUSH1 0xDC SHL PUSH1 0x20 DUP5 ADD MSTORE DUP2 MLOAD SWAP3 DUP4 SWAP2 PUSH1 0x20 DUP4 MSTORE DUP2 MLOAD SWAP2 DUP3 PUSH1 0x20 DUP6 ADD MSTORE DUP2 JUMPDEST DUP4 DUP2 LT PUSH2 0x7C8 JUMPI POP POP DUP3 DUP3 ADD DUP5 ADD MSTORE PUSH1 0x1F ADD PUSH1 0x1F NOT AND DUP2 ADD SUB ADD SWAP1 RETURN JUMPDEST PUSH1 0x20 DUP3 DUP3 ADD DUP2 ADD MLOAD DUP9 DUP4 ADD DUP9 ADD MSTORE DUP8 SWAP6 POP ADD PUSH2 0x7AB JUMP JUMPDEST POP CALLVALUE PUSH2 0x337 JUMPI PUSH1 0x20 CALLDATASIZE PUSH1 0x3 NOT ADD SLT PUSH2 0x337 JUMPI PUSH2 0x7F9 PUSH2 0x248B JUMP JUMPDEST PUSH2 0x801 PUSH2 0x2999 JUMP JUMPDEST PUSH1 0x1 PUSH1 0x1 PUSH1 0xA0 SHL SUB AND DUP1 ISZERO PUSH2 0x6EC JUMPI PUSH1 0xA0 PUSH32 0xD8E98BFF5AE8522235EF48DAECFF7488B367200BEA03A4E8CB4BC98108C6A492 SWAP2 PUSH1 0x4 SLOAD SWAP1 DUP1 PUSH1 0x1 PUSH1 0x1 PUSH1 0x60 SHL SUB DUP5 SHL DUP4 AND OR PUSH1 0x4 SSTORE PUSH1 0x40 MLOAD SWAP2 PUSH1 0x60 DUP4 MSTORE PUSH1 0x8 PUSH1 0x60 DUP5 ADD MSTORE PUSH8 0x7472656173757279 PUSH1 0xC0 SHL PUSH1 0x80 DUP5 ADD MSTORE PUSH1 0x1 DUP1 DUP6 SHL SUB AND PUSH1 0x20 DUP4 ADD MSTORE PUSH1 0x40 DUP3 ADD MSTORE LOG1 DUP1 RETURN JUMPDEST POP CALLVALUE PUSH2 0x337 JUMPI DUP1 PUSH1 0x3 NOT CALLDATASIZE ADD SLT PUSH2 0x337 JUMPI PUSH1 0x20 PUSH1 0x40 MLOAD PUSH3 0x989680 DUP2 MSTORE RETURN JUMPDEST POP CALLVALUE PUSH2 0x337 JUMPI PUSH1 0x20 CALLDATASIZE PUSH1 0x3 NOT ADD SLT PUSH2 0x337 JUMPI PUSH1 0x80 SWAP1 PUSH1 0x1 PUSH1 0x1 PUSH1 0xA0 SHL SUB PUSH2 0x8C1 PUSH2 0x248B JUMP JUMPDEST AND SWAP1 DUP2 DUP2 MSTORE PUSH1 0x9 PUSH1 0x20 MSTORE PUSH1 0x40 DUP2 KECCAK256 DUP2 DUP1 MSTORE PUSH1 0x20 MSTORE PUSH1 0x40 DUP2 KECCAK256 SLOAD SWAP2 DUP1 DUP3 MSTORE PUSH1 0x9 PUSH1 0x20 MSTORE PUSH1 0x40 DUP3 KECCAK256 PUSH1 0x1 DUP4 MSTORE PUSH1 0x20 MSTORE PUSH1 0x40 DUP1 DUP4 KECCAK256 SLOAD SWAP3 DUP3 DUP2 MSTORE PUSH1 0x9 PUSH1 0x20 MSTORE DUP2 DUP2 KECCAK256 PUSH1 0x2 DUP3 MSTORE PUSH1 0x20 MSTORE DUP2 DUP2 KECCAK256 SLOAD SWAP3 DUP2 MSTORE PUSH1 0x9 PUSH1 0x20 MSTORE DUP2 DUP2 KECCAK256 PUSH1 0x3 DUP3 MSTORE PUSH1 0x20 MSTORE KECCAK256 SLOAD SWAP2 PUSH1 0x40 MLOAD SWAP4 DUP5 MSTORE PUSH1 0x20 DUP5 ADD MSTORE PUSH1 0x40 DUP4 ADD MSTORE PUSH1 0x60 DUP3 ADD MSTORE RETURN JUMPDEST POP CALLVALUE PUSH2 0x337 JUMPI DUP1 PUSH1 0x3 NOT CALLDATASIZE ADD SLT PUSH2 0x337 JUMPI PUSH1 0x20 PUSH1 0x6 SLOAD PUSH1 0x40 MLOAD SWAP1 DUP2 MSTORE RETURN JUMPDEST POP CALLVALUE PUSH2 0x337 JUMPI DUP1 PUSH1 0x3 NOT CALLDATASIZE ADD SLT PUSH2 0x337 JUMPI PUSH1 0x20 PUSH1 0x40 MLOAD PUSH1 0x32 DUP2 MSTORE RETURN JUMPDEST POP CALLVALUE PUSH2 0x337 JUMPI PUSH1 0x20 CALLDATASIZE PUSH1 0x3 NOT ADD SLT PUSH2 0x337 JUMPI PUSH2 0x98B PUSH2 0x24B1 JUMP JUMPDEST SWAP1 PUSH2 0x994 PUSH2 0x2776 JUMP JUMPDEST POP PUSH1 0xFF DUP3 AND PUSH1 0x3 DUP2 LT ISZERO PUSH2 0xA17 JUMPI POP PUSH1 0x3 DUP3 LT ISZERO PUSH2 0xA03 JUMPI PUSH1 0xC0 PUSH2 0x9BD PUSH1 0x5 DUP5 MUL PUSH1 0xA ADD PUSH2 0x27A7 JUMP JUMPDEST PUSH2 0xA01 PUSH1 0x40 MLOAD DUP1 SWAP3 PUSH1 0xA0 DUP1 SWAP2 DUP1 MLOAD DUP5 MSTORE PUSH1 0x20 DUP2 ADD MLOAD PUSH1 0x20 DUP6 ADD MSTORE PUSH1 0x40 DUP2 ADD MLOAD PUSH1 0x40 DUP6 ADD MSTORE PUSH1 0xFF PUSH1 0x60 DUP3 ADD MLOAD AND PUSH1 0x60 DUP6 ADD MSTORE PUSH1 0x80 DUP2 ADD MLOAD ISZERO ISZERO PUSH1 0x80 DUP6 ADD MSTORE ADD MLOAD SWAP2 ADD MSTORE JUMP JUMPDEST RETURN JUMPDEST PUSH4 0x4E487B71 PUSH1 0xE0 SHL DUP2 MSTORE PUSH1 0x32 PUSH1 0x4 MSTORE PUSH1 0x24 SWAP1 REVERT JUMPDEST PUSH4 0xCBA51315 PUSH1 0xE0 SHL DUP3 MSTORE PUSH1 0x4 MSTORE PUSH1 0x24 SWAP2 POP REVERT JUMPDEST POP CALLVALUE PUSH2 0x337 JUMPI PUSH1 0x40 CALLDATASIZE PUSH1 0x3 NOT ADD SLT PUSH2 0x337 JUMPI PUSH2 0xA44 PUSH2 0x248B JUMP JUMPDEST PUSH1 0x24 CALLDATALOAD SWAP1 PUSH1 0x4 DUP3 LT ISZERO PUSH2 0xA7B JUMPI PUSH1 0x1 PUSH1 0x1 PUSH1 0xA0 SHL SUB AND DUP3 MSTORE PUSH1 0x9 PUSH1 0x20 SWAP1 DUP2 MSTORE PUSH1 0x40 SWAP1 SWAP3 KECCAK256 PUSH2 0xA72 SWAP2 SWAP1 PUSH2 0x2570 JUMP JUMPDEST SLOAD PUSH1 0x40 MLOAD SWAP1 DUP2 MSTORE RETURN JUMPDEST DUP3 DUP1 REVERT JUMPDEST POP CALLVALUE PUSH2 0x337 JUMPI PUSH1 0x60 CALLDATASIZE PUSH1 0x3 NOT ADD SLT PUSH2 0x337 JUMPI PUSH2 0xA99 PUSH2 0x24B1 JUMP JUMPDEST PUSH1 0x24 CALLDATALOAD SWAP1 PUSH1 0x44 CALLDATALOAD SWAP2 DUP3 ISZERO ISZERO SWAP2 DUP3 DUP5 SUB PUSH2 0xF32 JUMPI PUSH2 0xAB4 PUSH2 0x2933 JUMP JUMPDEST PUSH2 0xABC PUSH2 0x296F JUMP JUMPDEST DUP2 ISZERO PUSH2 0x1102 JUMPI PUSH1 0xFF AND SWAP3 PUSH1 0x3 DUP5 GT PUSH2 0x10EE JUMPI PUSH1 0x4 DUP5 LT ISZERO PUSH2 0x10DA JUMPI PUSH2 0xAE0 DUP5 PUSH2 0x27F3 JUMP JUMPDEST SWAP1 DUP3 DUP3 MUL SWAP2 DUP1 DUP4 DIV DUP5 EQ SWAP1 ISZERO OR ISZERO PUSH2 0x101F JUMPI ISZERO PUSH2 0xCDB JUMPI PUSH2 0xB00 DUP2 PUSH2 0x25A4 JUMP JUMPDEST PUSH1 0x1 SLOAD PUSH1 0x40 MLOAD PUSH4 0x6EB1769F PUSH1 0xE1 SHL DUP2 MSTORE CALLER PUSH1 0x4 DUP3 ADD MSTORE ADDRESS PUSH1 0x24 DUP3 ADD MSTORE PUSH1 0x1 PUSH1 0x1 PUSH1 0xA0 SHL SUB SWAP1 SWAP2 AND SWAP1 PUSH1 0x20 DUP2 PUSH1 0x44 DUP2 DUP6 GAS STATICCALL SWAP1 DUP2 ISZERO PUSH2 0xC84 JUMPI DUP9 SWAP2 PUSH2 0xCA9 JUMPI JUMPDEST POP DUP3 DUP2 LT PUSH2 0xC8F JUMPI POP PUSH1 0x40 MLOAD PUSH4 0x70A08231 PUSH1 0xE0 SHL DUP2 MSTORE CALLER PUSH1 0x4 DUP3 ADD MSTORE PUSH1 0x20 DUP2 PUSH1 0x24 DUP2 DUP6 GAS STATICCALL SWAP1 DUP2 ISZERO PUSH2 0xC84 JUMPI DUP9 SWAP2 PUSH2 0xC4D JUMPI JUMPDEST POP DUP3 DUP2 LT PUSH2 0xC33 JUMPI POP SWAP1 PUSH2 0xB89 SWAP2 ADDRESS SWAP1 CALLER SWAP1 PUSH2 0x2F8B JUMP JUMPDEST PUSH2 0x12C DUP2 MUL SWAP1 DUP1 DUP3 DIV PUSH2 0x12C EQ SWAP1 ISZERO OR ISZERO PUSH2 0xC1F JUMPI PUSH2 0x2710 PUSH2 0xBAE SWAP2 DIV PUSH1 0x7 SLOAD PUSH2 0x2699 JUMP JUMPDEST PUSH1 0x7 SSTORE JUMPDEST CALLER DUP5 MSTORE PUSH1 0x9 PUSH1 0x20 MSTORE PUSH2 0xBC7 DUP4 PUSH1 0x40 DUP7 KECCAK256 PUSH2 0x2570 JUMP JUMPDEST PUSH2 0xBD2 DUP3 DUP3 SLOAD PUSH2 0x2699 JUMP JUMPDEST SWAP1 SSTORE PUSH1 0x40 MLOAD SWAP3 DUP4 MSTORE PUSH1 0x20 DUP4 ADD MSTORE PUSH1 0x40 DUP3 ADD MSTORE PUSH32 0x279D78D3BC9E8F1F0C6275B03DB1EA13AED8715F3F9AD832F728113B3568CC41 PUSH1 0x60 CALLER SWAP3 LOG2 PUSH1 0x1 PUSH1 0x0 DUP1 MLOAD PUSH1 0x20 PUSH2 0x3091 DUP4 CODECOPY DUP2 MLOAD SWAP2 MSTORE SSTORE DUP1 RETURN JUMPDEST PUSH4 0x4E487B71 PUSH1 0xE0 SHL DUP6 MSTORE PUSH1 0x11 PUSH1 0x4 MSTORE PUSH1 0x24 DUP6 REVERT JUMPDEST PUSH1 0x64 SWAP3 DUP9 SWAP3 PUSH4 0xDB42144D PUSH1 0xE0 SHL DUP5 MSTORE PUSH1 0x4 MSTORE PUSH1 0x24 MSTORE PUSH1 0x44 MSTORE REVERT JUMPDEST SWAP1 POP PUSH1 0x20 DUP2 RETURNDATASIZE PUSH1 0x20 GT PUSH2 0xC7C JUMPI JUMPDEST DUP2 PUSH2 0xC68 PUSH1 0x20 SWAP4 DUP4 PUSH2 0x2532 JUMP JUMPDEST DUP2 ADD SUB SLT PUSH2 0xC77 JUMPI MLOAD CODESIZE PUSH2 0xB72 JUMP JUMPDEST PUSH1 0x0 DUP1 REVERT JUMPDEST RETURNDATASIZE SWAP2 POP PUSH2 0xC5B JUMP JUMPDEST PUSH1 0x40 MLOAD RETURNDATASIZE DUP11 DUP3 RETURNDATACOPY RETURNDATASIZE SWAP1 REVERT JUMPDEST PUSH1 0x64 SWAP3 DUP9 SWAP3 PUSH4 0xC95CF27 PUSH1 0xE1 SHL DUP5 MSTORE PUSH1 0x4 MSTORE PUSH1 0x24 MSTORE PUSH1 0x44 MSTORE REVERT JUMPDEST SWAP1 POP PUSH1 0x20 DUP2 RETURNDATASIZE PUSH1 0x20 GT PUSH2 0xCD3 JUMPI JUMPDEST DUP2 PUSH2 0xCC4 PUSH1 0x20 SWAP4 DUP4 PUSH2 0x2532 JUMP JUMPDEST DUP2 ADD SUB SLT PUSH2 0xC77 JUMPI MLOAD CODESIZE PUSH2 0xB3F JUMP JUMPDEST RETURNDATASIZE SWAP2 POP PUSH2 0xCB7 JUMP JUMPDEST DUP5 SLOAD PUSH1 0x40 MLOAD PUSH4 0x6EB1769F PUSH1 0xE1 SHL DUP2 MSTORE CALLER PUSH1 0x4 DUP3 ADD MSTORE ADDRESS PUSH1 0x24 DUP3 ADD MSTORE PUSH1 0x1 PUSH1 0x1 PUSH1 0xA0 SHL SUB SWAP1 SWAP2 AND SWAP1 PUSH1 0x20 DUP2 PUSH1 0x44 DUP2 DUP6 GAS STATICCALL SWAP1 DUP2 ISZERO PUSH2 0x1083 JUMPI DUP8 SWAP2 PUSH2 0x10A8 JUMPI JUMPDEST POP DUP3 DUP2 LT PUSH2 0x108E JUMPI POP PUSH1 0x40 MLOAD PUSH4 0x70A08231 PUSH1 0xE0 SHL DUP2 MSTORE CALLER PUSH1 0x4 DUP3 ADD MSTORE PUSH1 0x20 DUP2 PUSH1 0x24 DUP2 DUP6 GAS STATICCALL SWAP1 DUP2 ISZERO PUSH2 0x1083 JUMPI DUP8 SWAP2 PUSH2 0x104D JUMPI JUMPDEST POP DUP3 DUP2 LT PUSH2 0x1033 JUMPI POP DUP2 PUSH2 0xD63 SWAP2 ADDRESS SWAP1 CALLER SWAP1 PUSH2 0x2F8B JUMP JUMPDEST PUSH2 0x12C DUP2 MUL DUP2 DUP2 DIV PUSH2 0x12C EQ DUP3 ISZERO OR ISZERO PUSH2 0x101F JUMPI PUSH2 0x2710 SWAP1 DIV DUP1 DUP3 SUB SWAP2 DUP1 DUP4 GT PUSH2 0x100B JUMPI PUSH2 0xD93 DUP3 PUSH1 0x7 SLOAD PUSH2 0x2699 JUMP JUMPDEST PUSH1 0x7 SSTORE PUSH1 0x1E SLOAD PUSH1 0x1 PUSH1 0x1 PUSH1 0xA0 SHL SUB AND SWAP2 DUP3 ISZERO ISZERO SWAP2 DUP3 PUSH2 0x1000 JUMPI JUMPDEST POP POP PUSH2 0xDBB JUMPI JUMPDEST POP POP PUSH2 0xBB2 JUMP JUMPDEST DUP6 SLOAD PUSH1 0x40 MLOAD PUSH4 0x6EB1769F PUSH1 0xE1 SHL DUP2 MSTORE ADDRESS PUSH1 0x4 DUP3 ADD MSTORE PUSH1 0x1 PUSH1 0x1 PUSH1 0xA0 SHL SUB DUP4 DUP2 AND PUSH1 0x24 DUP4 ADD MSTORE SWAP1 SWAP2 AND SWAP1 PUSH1 0x20 DUP2 PUSH1 0x44 DUP2 DUP6 GAS STATICCALL DUP1 ISZERO PUSH2 0xC84 JUMPI DUP5 SWAP1 DUP10 SWAP1 PUSH2 0xFC6 JUMPI JUMPDEST PUSH2 0xE06 SWAP3 POP PUSH2 0x2699 JUMP JUMPDEST PUSH1 0x40 MLOAD PUSH4 0x95EA7B3 PUSH1 0xE0 SHL PUSH1 0x20 DUP1 DUP4 ADD SWAP2 DUP3 MSTORE PUSH1 0x1 PUSH1 0x1 PUSH1 0xA0 SHL SUB DUP7 AND PUSH1 0x24 DUP5 ADD MSTORE PUSH1 0x44 DUP1 DUP5 ADD SWAP5 SWAP1 SWAP5 MSTORE SWAP3 DUP3 MSTORE SWAP1 SWAP3 SWAP2 SWAP1 DUP10 SWAP1 PUSH2 0xE45 PUSH1 0x64 DUP7 PUSH2 0x2532 JUMP JUMPDEST DUP5 MLOAD SWAP1 DUP3 DUP6 GAS CALL DUP9 MLOAD RETURNDATASIZE DUP3 PUSH2 0xFAA JUMPI JUMPDEST POP POP ISZERO PUSH2 0xF65 JUMPI JUMPDEST POP POP PUSH1 0x1E SLOAD DUP7 SWAP2 POP PUSH1 0x1 PUSH1 0x1 PUSH1 0xA0 SHL SUB AND DUP1 EXTCODESIZE ISZERO PUSH2 0xF61 JUMPI DUP2 SWAP1 PUSH1 0x24 PUSH1 0x40 MLOAD DUP1 SWAP5 DUP2 SWAP4 PUSH4 0xBC1CA3E9 PUSH1 0xE0 SHL DUP4 MSTORE DUP8 PUSH1 0x4 DUP5 ADD MSTORE GAS CALL DUP1 ISZERO PUSH2 0xF42 JUMPI PUSH2 0xF4D JUMPI JUMPDEST POP PUSH1 0x1E SLOAD PUSH1 0x40 DUP1 MLOAD PUSH4 0x6C14397F PUSH1 0xE1 SHL DUP2 MSTORE SWAP2 DUP3 SWAP1 PUSH1 0x4 SWAP1 DUP3 SWAP1 DUP11 SWAP1 PUSH1 0x1 PUSH1 0x1 PUSH1 0xA0 SHL SUB AND GAS CALL DUP1 ISZERO PUSH2 0xF42 JUMPI PUSH2 0xF02 JUMPI JUMPDEST POP PUSH1 0x20 PUSH32 0x6A35E7A759100D73C502119478CB5AE1CA768BBE0205D011ED3B0F76C59207A8 SWAP2 PUSH1 0x40 MLOAD SWAP1 DUP2 MSTORE LOG1 CODESIZE DUP1 PUSH2 0xDB4 JUMP JUMPDEST PUSH1 0x40 DUP2 RETURNDATASIZE PUSH1 0x40 GT PUSH2 0xF3A JUMPI JUMPDEST DUP2 PUSH2 0xF1B PUSH1 0x40 SWAP4 DUP4 PUSH2 0x2532 JUMP JUMPDEST DUP2 ADD SUB SLT PUSH2 0xF36 JUMPI MLOAD DUP1 ISZERO ISZERO SUB PUSH2 0xF32 JUMPI CODESIZE PUSH2 0xECF JUMP JUMPDEST DUP5 DUP1 REVERT JUMPDEST DUP6 DUP1 REVERT JUMPDEST RETURNDATASIZE SWAP2 POP PUSH2 0xF0E JUMP JUMPDEST PUSH1 0x40 MLOAD RETURNDATASIZE DUP9 DUP3 RETURNDATACOPY RETURNDATASIZE SWAP1 REVERT JUMPDEST DUP6 PUSH2 0xF5A SWAP2 SWAP7 SWAP3 SWAP7 PUSH2 0x2532 JUMP JUMPDEST SWAP4 CODESIZE PUSH2 0xE9D JUMP JUMPDEST POP DUP1 REVERT JUMPDEST PUSH2 0xF9D PUSH2 0xFA2 SWAP4 PUSH1 0x40 MLOAD SWAP1 PUSH4 0x95EA7B3 PUSH1 0xE0 SHL PUSH1 0x20 DUP4 ADD MSTORE PUSH1 0x24 DUP3 ADD MSTORE DUP10 PUSH1 0x44 DUP3 ADD MSTORE PUSH1 0x44 DUP2 MSTORE PUSH2 0xF97 PUSH1 0x64 DUP3 PUSH2 0x2532 JUMP JUMPDEST DUP3 PUSH2 0x2EA6 JUMP JUMPDEST PUSH2 0x2EA6 JUMP JUMPDEST CODESIZE DUP1 DUP1 PUSH2 0xE5D JUMP JUMPDEST SWAP1 SWAP2 POP PUSH2 0xFBE JUMPI POP DUP1 EXTCODESIZE ISZERO ISZERO JUMPDEST CODESIZE DUP1 PUSH2 0xE55 JUMP JUMPDEST PUSH1 0x1 EQ PUSH2 0xFB7 JUMP JUMPDEST POP POP PUSH1 0x20 DUP2 RETURNDATASIZE PUSH1 0x20 GT PUSH2 0xFF8 JUMPI JUMPDEST DUP2 PUSH2 0xFE1 PUSH1 0x20 SWAP4 DUP4 PUSH2 0x2532 JUMP JUMPDEST DUP2 ADD SUB SLT PUSH2 0xFF4 JUMPI DUP4 PUSH2 0xE06 SWAP2 MLOAD PUSH2 0xDFC JUMP JUMPDEST DUP8 DUP1 REVERT JUMPDEST RETURNDATASIZE SWAP2 POP PUSH2 0xFD4 JUMP JUMPDEST EQ ISZERO SWAP1 POP CODESIZE DUP1 PUSH2 0xDAD JUMP JUMPDEST PUSH4 0x4E487B71 PUSH1 0xE0 SHL DUP8 MSTORE PUSH1 0x11 PUSH1 0x4 MSTORE PUSH1 0x24 DUP8 REVERT JUMPDEST PUSH4 0x4E487B71 PUSH1 0xE0 SHL DUP7 MSTORE PUSH1 0x11 PUSH1 0x4 MSTORE PUSH1 0x24 DUP7 REVERT JUMPDEST PUSH1 0x64 SWAP3 DUP8 SWAP3 PUSH4 0xDB42144D PUSH1 0xE0 SHL DUP5 MSTORE PUSH1 0x4 MSTORE PUSH1 0x24 MSTORE PUSH1 0x44 MSTORE REVERT JUMPDEST SWAP1 POP PUSH1 0x20 DUP2 RETURNDATASIZE PUSH1 0x20 GT PUSH2 0x107B JUMPI JUMPDEST DUP2 PUSH2 0x1068 PUSH1 0x20 SWAP4 DUP4 PUSH2 0x2532 JUMP JUMPDEST DUP2 ADD SUB SLT PUSH2 0x1077 JUMPI MLOAD CODESIZE PUSH2 0xD4C JUMP JUMPDEST DUP7 DUP1 REVERT JUMPDEST RETURNDATASIZE SWAP2 POP PUSH2 0x105B JUMP JUMPDEST PUSH1 0x40 MLOAD RETURNDATASIZE DUP10 DUP3 RETURNDATACOPY RETURNDATASIZE SWAP1 REVERT JUMPDEST PUSH1 0x64 SWAP3 DUP8 SWAP3 PUSH4 0xC95CF27 PUSH1 0xE1 SHL DUP5 MSTORE PUSH1 0x4 MSTORE PUSH1 0x24 MSTORE PUSH1 0x44 MSTORE REVERT JUMPDEST SWAP1 POP PUSH1 0x20 DUP2 RETURNDATASIZE PUSH1 0x20 GT PUSH2 0x10D2 JUMPI JUMPDEST DUP2 PUSH2 0x10C3 PUSH1 0x20 SWAP4 DUP4 PUSH2 0x2532 JUMP JUMPDEST DUP2 ADD SUB SLT PUSH2 0x1077 JUMPI MLOAD CODESIZE PUSH2 0xD19 JUMP JUMPDEST RETURNDATASIZE SWAP2 POP PUSH2 0x10B6 JUMP JUMPDEST PUSH4 0x4E487B71 PUSH1 0xE0 SHL DUP6 MSTORE PUSH1 0x21 PUSH1 0x4 MSTORE PUSH1 0x24 DUP6 REVERT JUMPDEST PUSH4 0xFAB9B837 PUSH1 0xE0 SHL DUP6 MSTORE PUSH1 0x4 DUP5 SWAP1 MSTORE PUSH1 0x24 DUP6 REVERT JUMPDEST PUSH4 0xF4F5B733 PUSH1 0xE0 SHL DUP6 MSTORE PUSH1 0x4 DUP6 REVERT JUMPDEST POP CALLVALUE PUSH2 0x337 JUMPI PUSH1 0x40 CALLDATASIZE PUSH1 0x3 NOT ADD SLT PUSH2 0x337 JUMPI PUSH1 0x2 SLOAD PUSH1 0x1 PUSH1 0x1 PUSH1 0xA0 SHL SUB AND CALLER SUB PUSH2 0x1143 JUMPI PUSH2 0x51A PUSH1 0x24 CALLDATALOAD PUSH1 0x4 CALLDATALOAD PUSH2 0x26F9 JUMP JUMPDEST PUSH4 0x5A1C6A59 PUSH1 0xE0 SHL DUP2 MSTORE CALLER PUSH1 0x4 MSTORE PUSH1 0x24 SWAP1 REVERT JUMPDEST POP CALLVALUE PUSH2 0x337 JUMPI DUP1 PUSH1 0x3 NOT CALLDATASIZE ADD SLT PUSH2 0x337 JUMPI PUSH1 0x0 DUP1 MLOAD PUSH1 0x20 PUSH2 0x3031 DUP4 CODECOPY DUP2 MLOAD SWAP2 MSTORE SLOAD PUSH1 0x40 MLOAD PUSH1 0x1 PUSH1 0x1 PUSH1 0xA0 SHL SUB SWAP1 SWAP2 AND DUP2 MSTORE PUSH1 0x20 SWAP1 RETURN JUMPDEST POP CALLVALUE PUSH2 0x337 JUMPI PUSH2 0x100 CALLDATASIZE PUSH1 0x3 NOT ADD SLT PUSH2 0x337 JUMPI PUSH2 0x11A7 PUSH2 0x248B JUMP JUMPDEST PUSH1 0x24 CALLDATALOAD PUSH1 0x1 PUSH1 0x1 PUSH1 0xA0 SHL SUB DUP2 AND SWAP1 DUP2 SWAP1 SUB PUSH2 0xA7B JUMPI PUSH1 0x44 CALLDATALOAD PUSH1 0x1 PUSH1 0x1 PUSH1 0xA0 SHL SUB DUP2 AND SWAP1 DUP2 SWAP1 SUB PUSH2 0x1467 JUMPI PUSH1 0x64 CALLDATALOAD PUSH1 0x1 PUSH1 0x1 PUSH1 0xA0 SHL SUB DUP2 AND SWAP3 SWAP1 DUP4 SWAP1 SUB PUSH2 0xF32 JUMPI PUSH1 0x84 CALLDATALOAD PUSH1 0x1 PUSH1 0x1 PUSH1 0xA0 SHL SUB DUP2 AND SWAP1 DUP2 SWAP1 SUB PUSH2 0xF36 JUMPI PUSH1 0xA4 CALLDATALOAD PUSH1 0x1 PUSH1 0x1 PUSH1 0xA0 SHL SUB DUP2 AND SWAP1 DUP2 SWAP1 SUB PUSH2 0x1077 JUMPI PUSH1 0xC4 CALLDATALOAD PUSH1 0x1 PUSH1 0x1 PUSH1 0xA0 SHL SUB DUP2 AND SWAP3 SWAP1 DUP4 SWAP1 SUB PUSH2 0xFF4 JUMPI PUSH1 0xE4 CALLDATALOAD SWAP6 PUSH1 0x0 DUP1 MLOAD PUSH1 0x20 PUSH2 0x30B1 DUP4 CODECOPY DUP2 MLOAD SWAP2 MSTORE SLOAD SWAP8 PUSH1 0xFF DUP10 PUSH1 0x40 SHR AND ISZERO SWAP9 PUSH8 0xFFFFFFFFFFFFFFFF DUP2 AND DUP1 ISZERO SWAP1 DUP2 PUSH2 0x145F JUMPI JUMPDEST PUSH1 0x1 EQ SWAP1 DUP2 PUSH2 0x1455 JUMPI JUMPDEST ISZERO SWAP1 DUP2 PUSH2 0x144C JUMPI JUMPDEST POP PUSH2 0x143D JUMPI PUSH8 0xFFFFFFFFFFFFFFFF NOT DUP2 AND PUSH1 0x1 OR PUSH1 0x0 DUP1 MLOAD PUSH1 0x20 PUSH2 0x30B1 DUP4 CODECOPY DUP2 MLOAD SWAP2 MSTORE SSTORE DUP10 PUSH2 0x1410 JUMPI JUMPDEST POP PUSH1 0x1 PUSH1 0x1 PUSH1 0xA0 SHL SUB DUP2 AND ISZERO PUSH2 0x1401 JUMPI DUP6 ISZERO PUSH2 0x1401 JUMPI DUP7 ISZERO PUSH2 0x1401 JUMPI DUP2 ISZERO PUSH2 0x1401 JUMPI DUP3 ISZERO PUSH2 0x1401 JUMPI DUP4 ISZERO PUSH2 0x1401 JUMPI DUP5 ISZERO PUSH2 0x1401 JUMPI DUP8 ISZERO PUSH2 0x13F3 JUMPI PUSH2 0x12E3 SWAP1 PUSH2 0x12DB PUSH2 0x2F01 JUMP JUMPDEST PUSH2 0x515 PUSH2 0x2F01 JUMP JUMPDEST PUSH2 0x12EB PUSH2 0x2F01 JUMP JUMPDEST PUSH2 0x12F3 PUSH2 0x2F01 JUMP JUMPDEST PUSH2 0x12FB PUSH2 0x2F01 JUMP JUMPDEST PUSH1 0x1 PUSH1 0x0 DUP1 MLOAD PUSH1 0x20 PUSH2 0x3091 DUP4 CODECOPY DUP2 MLOAD SWAP2 MSTORE SSTORE PUSH2 0x1315 PUSH2 0x2F01 JUMP JUMPDEST PUSH1 0x1 PUSH1 0x1 PUSH1 0x60 SHL SUB PUSH1 0xA0 SHL DUP10 SLOAD AND OR DUP9 SSTORE PUSH1 0x1 PUSH1 0x1 PUSH1 0x60 SHL SUB PUSH1 0xA0 SHL PUSH1 0x1 SLOAD AND OR PUSH1 0x1 SSTORE PUSH1 0x1 PUSH1 0x1 PUSH1 0x60 SHL SUB PUSH1 0xA0 SHL PUSH1 0x2 SLOAD AND OR PUSH1 0x2 SSTORE PUSH1 0x1 PUSH1 0x1 PUSH1 0x60 SHL SUB PUSH1 0xA0 SHL PUSH1 0x3 SLOAD AND OR PUSH1 0x3 SSTORE PUSH1 0x1 PUSH1 0x1 PUSH1 0x60 SHL SUB PUSH1 0xA0 SHL PUSH1 0x4 SLOAD AND OR PUSH1 0x4 SSTORE PUSH1 0x1 PUSH1 0x1 PUSH1 0x60 SHL SUB PUSH1 0xA0 SHL PUSH1 0x5 SLOAD AND OR PUSH1 0x5 SSTORE PUSH1 0x1D SSTORE PUSH1 0x1 PUSH1 0x19 SSTORE PUSH1 0x1 PUSH1 0x1C SSTORE PUSH2 0x1399 JUMPI DUP1 RETURN JUMPDEST PUSH9 0xFF0000000000000000 NOT PUSH1 0x0 DUP1 MLOAD PUSH1 0x20 PUSH2 0x30B1 DUP4 CODECOPY DUP2 MLOAD SWAP2 MSTORE SLOAD AND PUSH1 0x0 DUP1 MLOAD PUSH1 0x20 PUSH2 0x30B1 DUP4 CODECOPY DUP2 MLOAD SWAP2 MSTORE SSTORE PUSH32 0xC7F505B2F371AE2175EE4913F4499E1F2633A7B5936321EED1CDAEB6115181D2 PUSH1 0x20 PUSH1 0x40 MLOAD PUSH1 0x1 DUP2 MSTORE LOG1 DUP1 RETURN JUMPDEST PUSH3 0xBFC921 PUSH1 0xE0 SHL DUP11 MSTORE PUSH1 0x4 DUP11 REVERT JUMPDEST PUSH4 0xD92E233D PUSH1 0xE0 SHL DUP11 MSTORE PUSH1 0x4 DUP11 REVERT JUMPDEST PUSH9 0xFFFFFFFFFFFFFFFFFF NOT AND PUSH9 0x10000000000000001 OR PUSH1 0x0 DUP1 MLOAD PUSH1 0x20 PUSH2 0x30B1 DUP4 CODECOPY DUP2 MLOAD SWAP2 MSTORE SSTORE CODESIZE PUSH2 0x1295 JUMP JUMPDEST PUSH4 0xF92EE8A9 PUSH1 0xE0 SHL DUP12 MSTORE PUSH1 0x4 DUP12 REVERT JUMPDEST SWAP1 POP ISZERO CODESIZE PUSH2 0x126B JUMP JUMPDEST ADDRESS EXTCODESIZE ISZERO SWAP2 POP PUSH2 0x1263 JUMP JUMPDEST DUP12 SWAP2 POP PUSH2 0x1259 JUMP JUMPDEST DUP4 DUP1 REVERT JUMPDEST POP CALLVALUE PUSH2 0x337 JUMPI DUP1 PUSH1 0x3 NOT CALLDATASIZE ADD SLT PUSH2 0x337 JUMPI PUSH2 0x1484 PUSH2 0x2999 JUMP JUMPDEST PUSH2 0x148C PUSH2 0x296F JUMP JUMPDEST PUSH1 0x1 PUSH1 0xFF NOT PUSH1 0x0 DUP1 MLOAD PUSH1 0x20 PUSH2 0x3071 DUP4 CODECOPY DUP2 MLOAD SWAP2 MSTORE SLOAD AND OR PUSH1 0x0 DUP1 MLOAD PUSH1 0x20 PUSH2 0x3071 DUP4 CODECOPY DUP2 MLOAD SWAP2 MSTORE SSTORE PUSH32 0x62E78CEA01BEE320CD4E420270B5EA74000D11B0C9F74754EBDBFC544B05A258 PUSH1 0x20 PUSH1 0x40 MLOAD CALLER DUP2 MSTORE LOG1 DUP1 RETURN JUMPDEST POP CALLVALUE PUSH2 0x337 JUMPI PUSH1 0x20 CALLDATASIZE PUSH1 0x3 NOT ADD SLT PUSH2 0x337 JUMPI PUSH1 0x40 PUSH1 0x20 SWAP2 PUSH1 0x4 CALLDATALOAD DUP2 MSTORE PUSH1 0x1B DUP4 MSTORE KECCAK256 SLOAD PUSH1 0x40 MLOAD SWAP1 DUP2 MSTORE RETURN JUMPDEST POP CALLVALUE PUSH2 0x337 JUMPI PUSH1 0x20 CALLDATASIZE PUSH1 0x3 NOT ADD SLT PUSH2 0x337 JUMPI PUSH2 0x1524 PUSH2 0x24B1 JUMP JUMPDEST PUSH2 0x152C PUSH2 0x2999 JUMP JUMPDEST PUSH1 0xFF DUP2 AND SWAP1 PUSH1 0x3 DUP3 LT ISZERO PUSH2 0x1728 JUMPI PUSH1 0x3 DUP2 LT ISZERO PUSH2 0x1714 JUMPI PUSH1 0x5 MUL PUSH1 0xD ADD SLOAD PUSH1 0x8 SHR PUSH1 0xFF AND PUSH2 0x1702 JUMPI DUP2 PUSH1 0x19 SLOAD SWAP2 PUSH2 0x1562 DUP4 PUSH2 0x268A JUMP JUMPDEST PUSH1 0x19 SSTORE PUSH1 0x1C SLOAD PUSH2 0x1571 DUP2 PUSH2 0x268A JUMP JUMPDEST PUSH1 0x1C SSTORE PUSH1 0x40 MLOAD PUSH1 0x20 DUP2 ADD SWAP2 PUSH1 0x1 PUSH1 0x1 PUSH1 0x60 SHL SUB NOT ADDRESS PUSH1 0x60 SHL AND DUP4 MSTORE DUP6 PUSH1 0x34 DUP4 ADD MSTORE PUSH1 0xFF PUSH1 0xF8 SHL PUSH1 0x54 DUP4 ADD MSTORE TIMESTAMP PUSH1 0x55 DUP4 ADD MSTORE PUSH1 0x75 DUP3 ADD MSTORE PUSH1 0x75 DUP2 MSTORE PUSH2 0x15B6 PUSH1 0x95 DUP3 PUSH2 0x2532 JUMP JUMPDEST MLOAD SWAP1 KECCAK256 SWAP3 PUSH1 0x20 PUSH1 0x1 DUP1 PUSH1 0xA0 SHL SUB PUSH1 0x2 SLOAD AND PUSH1 0x24 PUSH1 0x40 MLOAD DUP1 SWAP7 DUP2 SWAP4 PUSH4 0x71C8A239 PUSH1 0xE1 SHL DUP4 MSTORE DUP10 PUSH1 0x4 DUP5 ADD MSTORE GAS CALL SWAP3 DUP4 ISZERO PUSH2 0x16F7 JUMPI DUP6 SWAP4 PUSH2 0x16C3 JUMPI JUMPDEST POP PUSH1 0x4 DUP3 LT ISZERO PUSH2 0x10DA JUMPI PUSH1 0x40 MLOAD SWAP2 PUSH2 0x1607 DUP4 PUSH2 0x24E4 JUMP JUMPDEST ADDRESS DUP4 MSTORE PUSH1 0x20 DUP4 ADD SWAP2 DUP3 MSTORE PUSH2 0x161F PUSH1 0x40 DUP5 ADD SWAP2 DUP3 PUSH2 0x2601 JUMP JUMPDEST TIMESTAMP PUSH1 0x60 DUP5 ADD SWAP1 DUP2 MSTORE PUSH1 0x80 DUP5 ADD DUP8 DUP2 MSTORE DUP6 DUP9 MSTORE PUSH1 0x1A PUSH1 0x20 MSTORE PUSH1 0x40 DUP9 KECCAK256 SWAP5 MLOAD DUP6 SLOAD PUSH1 0x1 PUSH1 0x1 PUSH1 0xA0 SHL SUB NOT AND PUSH1 0x1 PUSH1 0x1 PUSH1 0xA0 SHL SUB SWAP2 SWAP1 SWAP2 AND OR DUP6 SSTORE SWAP3 MLOAD PUSH1 0x1 DUP6 ADD SSTORE SWAP1 MLOAD PUSH1 0x2 DUP5 ADD SWAP1 PUSH1 0x4 DUP2 LT ISZERO PUSH2 0x16AF JUMPI SWAP2 PUSH2 0x16A0 SWAP5 SWAP4 SWAP2 PUSH1 0x4 SWAP4 PUSH1 0xFF DUP1 NOT DUP4 SLOAD AND SWAP2 AND OR SWAP1 SSTORE MLOAD PUSH1 0x3 DUP5 ADD SSTORE MLOAD ISZERO ISZERO SWAP2 ADD SWAP1 PUSH1 0xFF DUP1 NOT DUP4 SLOAD AND SWAP2 ISZERO ISZERO AND OR SWAP1 SSTORE JUMP JUMPDEST DUP3 MSTORE PUSH1 0x1B PUSH1 0x20 MSTORE PUSH1 0x40 DUP3 KECCAK256 SSTORE DUP1 RETURN JUMPDEST PUSH4 0x4E487B71 PUSH1 0xE0 SHL DUP9 MSTORE PUSH1 0x21 PUSH1 0x4 MSTORE PUSH1 0x24 DUP9 REVERT JUMPDEST SWAP1 SWAP3 POP PUSH1 0x20 DUP2 RETURNDATASIZE PUSH1 0x20 GT PUSH2 0x16EF JUMPI JUMPDEST DUP2 PUSH2 0x16DF PUSH1 0x20 SWAP4 DUP4 PUSH2 0x2532 JUMP JUMPDEST DUP2 ADD SUB SLT PUSH2 0xF32 JUMPI MLOAD SWAP2 CODESIZE PUSH2 0x15F0 JUMP JUMPDEST RETURNDATASIZE SWAP2 POP PUSH2 0x16D2 JUMP JUMPDEST PUSH1 0x40 MLOAD RETURNDATASIZE DUP8 DUP3 RETURNDATACOPY RETURNDATASIZE SWAP1 REVERT JUMPDEST PUSH4 0x2F8ECEC9 PUSH1 0xE2 SHL DUP3 MSTORE PUSH1 0x4 MSTORE PUSH1 0x24 SWAP1 REVERT JUMPDEST PUSH4 0x4E487B71 PUSH1 0xE0 SHL DUP4 MSTORE PUSH1 0x32 PUSH1 0x4 MSTORE PUSH1 0x24 DUP4 REVERT JUMPDEST PUSH4 0xCBA51315 PUSH1 0xE0 SHL DUP4 MSTORE PUSH1 0x4 DUP3 SWAP1 MSTORE PUSH1 0x24 DUP4 REVERT JUMPDEST POP CALLVALUE PUSH2 0x337 JUMPI PUSH1 0x60 CALLDATASIZE PUSH1 0x3 NOT ADD SLT PUSH2 0x337 JUMPI PUSH2 0x1756 PUSH2 0x24B1 JUMP JUMPDEST SWAP1 PUSH2 0x175F PUSH2 0x2999 JUMP JUMPDEST PUSH1 0xFF DUP3 AND SWAP2 PUSH1 0x3 DUP4 LT ISZERO PUSH2 0x184C JUMPI PUSH1 0x3 DUP2 LT ISZERO PUSH2 0x311 JUMPI PUSH1 0x5 DUP2 MUL SWAP1 PUSH1 0xFF PUSH1 0xD DUP4 ADD SLOAD PUSH1 0x8 SHR AND PUSH2 0x1838 JUMPI SWAP1 PUSH32 0x156F6FEF57E34329718D6EFBD41F31A81AFD51D967D24F97B94EB576DCA20CFE SWAP2 PUSH2 0x1832 PUSH1 0x19 SLOAD SWAP2 PUSH2 0x17BD DUP4 PUSH2 0x268A JUMP JUMPDEST PUSH1 0x19 SSTORE PUSH2 0x3E8 PUSH1 0x24 CALLDATALOAD MOD SWAP4 PUSH2 0x180A PUSH2 0x3E8 PUSH1 0x44 CALLDATALOAD MOD SWAP2 PUSH1 0x40 MLOAD SWAP1 PUSH2 0x17E0 DUP3 PUSH2 0x2516 JUMP JUMPDEST DUP7 DUP3 MSTORE DUP8 PUSH1 0x20 DUP4 ADD MSTORE DUP4 PUSH1 0x40 DUP4 ADD MSTORE DUP10 PUSH1 0x60 DUP4 ADD MSTORE PUSH1 0x1 PUSH1 0x80 DUP4 ADD MSTORE TIMESTAMP PUSH1 0xA0 DUP4 ADD MSTORE PUSH1 0xA ADD PUSH2 0x26A6 JUMP JUMPDEST PUSH1 0x40 MLOAD SWAP5 DUP6 SWAP5 DUP6 SWAP3 SWAP4 PUSH1 0xFF SWAP2 SWAP6 SWAP5 PUSH1 0x60 SWAP4 PUSH1 0x80 DUP7 ADD SWAP8 DUP7 MSTORE PUSH1 0x20 DUP7 ADD MSTORE PUSH1 0x40 DUP6 ADD MSTORE AND SWAP2 ADD MSTORE JUMP JUMPDEST SUB SWAP1 LOG1 DUP1 RETURN JUMPDEST PUSH4 0x2F8ECEC9 PUSH1 0xE2 SHL DUP4 MSTORE PUSH1 0x4 DUP5 SWAP1 MSTORE PUSH1 0x24 DUP4 REVERT JUMPDEST POP PUSH1 0x24 SWAP2 PUSH4 0xCBA51315 PUSH1 0xE0 SHL DUP3 MSTORE PUSH1 0x4 MSTORE REVERT JUMPDEST POP CALLVALUE PUSH2 0x337 JUMPI DUP1 PUSH1 0x3 NOT CALLDATASIZE ADD SLT PUSH2 0x337 JUMPI PUSH1 0x1 SLOAD PUSH1 0x40 MLOAD PUSH1 0x1 PUSH1 0x1 PUSH1 0xA0 SHL SUB SWAP1 SWAP2 AND DUP2 MSTORE PUSH1 0x20 SWAP1 RETURN JUMPDEST POP CALLVALUE PUSH2 0x337 JUMPI DUP1 PUSH1 0x3 NOT CALLDATASIZE ADD SLT PUSH2 0x337 JUMPI PUSH1 0x20 PUSH1 0x40 MLOAD PUSH1 0x2 DUP2 MSTORE RETURN JUMPDEST POP CALLVALUE PUSH2 0x337 JUMPI DUP1 PUSH1 0x3 NOT CALLDATASIZE ADD SLT PUSH2 0x337 JUMPI PUSH2 0x18BD PUSH2 0x2999 JUMP JUMPDEST PUSH1 0x0 DUP1 MLOAD PUSH1 0x20 PUSH2 0x3031 DUP4 CODECOPY DUP2 MLOAD SWAP2 MSTORE DUP1 SLOAD PUSH1 0x1 PUSH1 0x1 PUSH1 0xA0 SHL SUB NOT DUP2 AND SWAP1 SWAP2 SSTORE DUP2 SWAP1 PUSH1 0x1 PUSH1 0x1 PUSH1 0xA0 SHL SUB AND PUSH32 0x8BE0079C531659141344CD1FD0A4F28419497F9722A3DAAFE3B4186F6B6457E0 DUP3 DUP1 LOG3 DUP1 RETURN JUMPDEST POP CALLVALUE PUSH2 0x337 JUMPI DUP1 PUSH1 0x3 NOT CALLDATASIZE ADD SLT PUSH2 0x337 JUMPI PUSH1 0x1E SLOAD PUSH1 0x40 MLOAD PUSH1 0x1 PUSH1 0x1 PUSH1 0xA0 SHL SUB SWAP1 SWAP2 AND DUP2 MSTORE PUSH1 0x20 SWAP1 RETURN JUMPDEST POP CALLVALUE PUSH2 0x337 JUMPI DUP1 PUSH1 0x3 NOT CALLDATASIZE ADD SLT PUSH2 0x337 JUMPI PUSH1 0x5 SLOAD PUSH1 0x40 MLOAD PUSH1 0x1 PUSH1 0x1 PUSH1 0xA0 SHL SUB SWAP1 SWAP2 AND DUP2 MSTORE PUSH1 0x20 SWAP1 RETURN JUMPDEST POP CALLVALUE PUSH2 0x337 JUMPI DUP1 PUSH1 0x3 NOT CALLDATASIZE ADD SLT PUSH2 0x337 JUMPI PUSH1 0x2 SLOAD PUSH1 0x40 MLOAD PUSH1 0x1 PUSH1 0x1 PUSH1 0xA0 SHL SUB SWAP1 SWAP2 AND DUP2 MSTORE PUSH1 0x20 SWAP1 RETURN JUMPDEST POP CALLVALUE PUSH2 0x337 JUMPI PUSH1 0x20 CALLDATASIZE PUSH1 0x3 NOT ADD SLT PUSH2 0x337 JUMPI PUSH1 0x4 CALLDATALOAD PUSH2 0x19A6 PUSH2 0x2999 JUMP JUMPDEST DUP1 ISZERO PUSH2 0x19E6 JUMPI PUSH1 0x40 PUSH32 0xC401B47DB6EC4C8671A2F54CF3A5F3F7069C3B71B6C6AD9ED90F2C8CC9920B6A SWAP2 PUSH1 0x1D SLOAD SWAP1 DUP1 PUSH1 0x1D SSTORE DUP3 MLOAD SWAP2 DUP3 MSTORE PUSH1 0x20 DUP3 ADD MSTORE LOG1 DUP1 RETURN JUMPDEST PUSH3 0xBFC921 PUSH1 0xE0 SHL DUP3 MSTORE PUSH1 0x4 DUP3 REVERT JUMPDEST POP CALLVALUE PUSH2 0x337 JUMPI DUP1 PUSH1 0x3 NOT CALLDATASIZE ADD SLT PUSH2 0x337 JUMPI PUSH1 0x20 PUSH1 0xFF PUSH1 0x0 DUP1 MLOAD PUSH1 0x20 PUSH2 0x3071 DUP4 CODECOPY DUP2 MLOAD SWAP2 MSTORE SLOAD AND PUSH1 0x40 MLOAD SWAP1 ISZERO ISZERO DUP2 MSTORE RETURN JUMPDEST POP CALLVALUE PUSH2 0x337 JUMPI DUP1 PUSH1 0x3 NOT CALLDATASIZE ADD SLT PUSH2 0x337 JUMPI PUSH1 0x20 PUSH1 0x40 MLOAD PUSH2 0x12C DUP2 MSTORE RETURN JUMPDEST POP CALLVALUE PUSH2 0x337 JUMPI DUP1 PUSH1 0x3 NOT CALLDATASIZE ADD SLT PUSH2 0x337 JUMPI PUSH32 0x0 PUSH1 0x1 PUSH1 0x1 PUSH1 0xA0 SHL SUB AND ADDRESS SUB PUSH2 0x1A9A JUMPI PUSH1 0x20 PUSH1 0x40 MLOAD PUSH1 0x0 DUP1 MLOAD PUSH1 0x20 PUSH2 0x3051 DUP4 CODECOPY DUP2 MLOAD SWAP2 MSTORE DUP2 MSTORE RETURN JUMPDEST PUSH4 0x703E46DD PUSH1 0xE1 SHL DUP2 MSTORE PUSH1 0x4 SWAP1 REVERT JUMPDEST POP PUSH1 0x40 CALLDATASIZE PUSH1 0x3 NOT ADD SLT PUSH2 0x337 JUMPI PUSH2 0x1ABE PUSH2 0x248B JUMP JUMPDEST PUSH1 0x24 CALLDATALOAD SWAP1 PUSH8 0xFFFFFFFFFFFFFFFF DUP3 GT PUSH2 0xA7B JUMPI CALLDATASIZE PUSH1 0x23 DUP4 ADD SLT ISZERO PUSH2 0xA7B JUMPI DUP2 PUSH1 0x4 ADD CALLDATALOAD SWAP1 DUP4 PUSH2 0x1AEC DUP4 PUSH2 0x2554 JUMP JUMPDEST SWAP4 PUSH2 0x1AFA PUSH1 0x40 MLOAD SWAP6 DUP7 PUSH2 0x2532 JUMP JUMPDEST DUP4 DUP6 MSTORE PUSH1 0x20 DUP6 ADD SWAP4 CALLDATASIZE PUSH1 0x24 DUP3 DUP5 ADD ADD GT PUSH2 0xA7B JUMPI DUP1 PUSH1 0x24 PUSH1 0x20 SWAP4 ADD DUP7 CALLDATACOPY DUP6 ADD ADD MSTORE PUSH1 0x1 PUSH1 0x1 PUSH1 0xA0 SHL SUB PUSH32 0x0 AND ADDRESS DUP2 EQ SWAP1 DUP2 ISZERO PUSH2 0x1CD3 JUMPI JUMPDEST POP PUSH2 0x1CC4 JUMPI PUSH2 0x1B5D PUSH2 0x2999 JUMP JUMPDEST PUSH1 0x40 MLOAD PUSH4 0x52D1902D PUSH1 0xE0 SHL DUP2 MSTORE PUSH1 0x1 PUSH1 0x1 PUSH1 0xA0 SHL SUB DUP3 AND SWAP4 SWAP1 PUSH1 0x20 DUP2 PUSH1 0x4 DUP2 DUP9 GAS STATICCALL DUP7 SWAP2 DUP2 PUSH2 0x1C90 JUMPI JUMPDEST POP PUSH2 0x1BA0 JUMPI PUSH4 0x4C9C8CE3 PUSH1 0xE0 SHL DUP7 MSTORE PUSH1 0x4 DUP6 SWAP1 MSTORE PUSH1 0x24 DUP7 REVERT JUMPDEST SWAP4 DUP5 PUSH1 0x0 DUP1 MLOAD PUSH1 0x20 PUSH2 0x3051 DUP4 CODECOPY DUP2 MLOAD SWAP2 MSTORE DUP8 SWAP7 SUB PUSH2 0x1C7E JUMPI POP DUP3 EXTCODESIZE ISZERO PUSH2 0x1C6C JUMPI PUSH1 0x0 DUP1 MLOAD PUSH1 0x20 PUSH2 0x3051 DUP4 CODECOPY DUP2 MLOAD SWAP2 MSTORE DUP1 SLOAD PUSH1 0x1 PUSH1 0x1 PUSH1 0xA0 SHL SUB NOT AND DUP3 OR SWAP1 SSTORE DUP5 SWAP2 SWAP1 PUSH32 0xBC7CD75A20EE27FD9ADEBAB32041F755214DBC6BFFA90CC0225B39DA2E5C2D3B DUP4 DUP1 LOG2 DUP1 MLOAD ISZERO PUSH2 0x1C51 JUMPI PUSH2 0x1C45 SWAP4 DUP3 SWAP2 MLOAD SWAP1 DUP5 GAS DELEGATECALL RETURNDATASIZE ISZERO PUSH2 0x1C49 JUMPI RETURNDATASIZE SWAP2 PUSH2 0x1C29 DUP4 PUSH2 0x2554 JUMP JUMPDEST SWAP3 PUSH2 0x1C37 PUSH1 0x40 MLOAD SWAP5 DUP6 PUSH2 0x2532 JUMP JUMPDEST DUP4 MSTORE RETURNDATASIZE DUP6 PUSH1 0x20 DUP6 ADD RETURNDATACOPY PUSH2 0x2FCF JUMP JUMPDEST POP DUP1 RETURN JUMPDEST PUSH1 0x60 SWAP2 PUSH2 0x2FCF JUMP JUMPDEST POP POP POP POP CALLVALUE PUSH2 0x1C5D JUMPI DUP1 RETURN JUMPDEST PUSH4 0xB398979F PUSH1 0xE0 SHL DUP2 MSTORE PUSH1 0x4 SWAP1 REVERT JUMPDEST PUSH4 0x4C9C8CE3 PUSH1 0xE0 SHL DUP6 MSTORE PUSH1 0x4 MSTORE PUSH1 0x24 DUP5 REVERT JUMPDEST PUSH4 0x2A875269 PUSH1 0xE2 SHL DUP7 MSTORE PUSH1 0x4 MSTORE PUSH1 0x24 DUP6 REVERT JUMPDEST SWAP1 SWAP2 POP PUSH1 0x20 DUP2 RETURNDATASIZE PUSH1 0x20 GT PUSH2 0x1CBC JUMPI JUMPDEST DUP2 PUSH2 0x1CAC PUSH1 0x20 SWAP4 DUP4 PUSH2 0x2532 JUMP JUMPDEST DUP2 ADD SUB SLT PUSH2 0x1077 JUMPI MLOAD SWAP1 CODESIZE PUSH2 0x1B87 JUMP JUMPDEST RETURNDATASIZE SWAP2 POP PUSH2 0x1C9F JUMP JUMPDEST PUSH4 0x703E46DD PUSH1 0xE1 SHL DUP5 MSTORE PUSH1 0x4 DUP5 REVERT JUMPDEST PUSH1 0x0 DUP1 MLOAD PUSH1 0x20 PUSH2 0x3051 DUP4 CODECOPY DUP2 MLOAD SWAP2 MSTORE SLOAD PUSH1 0x1 PUSH1 0x1 PUSH1 0xA0 SHL SUB AND EQ ISZERO SWAP1 POP CODESIZE PUSH2 0x1B50 JUMP JUMPDEST POP CALLVALUE PUSH2 0x337 JUMPI PUSH1 0x20 CALLDATASIZE PUSH1 0x3 NOT ADD SLT PUSH2 0x337 JUMPI PUSH2 0x1D10 PUSH2 0x248B JUMP JUMPDEST PUSH2 0x1D18 PUSH2 0x2999 JUMP JUMPDEST PUSH1 0x1 PUSH1 0x1 PUSH1 0xA0 SHL SUB AND DUP1 ISZERO PUSH2 0x6EC JUMPI PUSH1 0xA0 PUSH32 0xD8E98BFF5AE8522235EF48DAECFF7488B367200BEA03A4E8CB4BC98108C6A492 SWAP2 PUSH1 0x5 SLOAD SWAP1 DUP1 PUSH1 0x1 PUSH1 0x1 PUSH1 0x60 SHL SUB DUP5 SHL DUP4 AND OR PUSH1 0x5 SSTORE PUSH1 0x40 MLOAD SWAP2 PUSH1 0x60 DUP4 MSTORE PUSH1 0xA PUSH1 0x60 DUP5 ADD MSTORE PUSH10 0x6E6674526576656E7565 PUSH1 0xB0 SHL PUSH1 0x80 DUP5 ADD MSTORE PUSH1 0x1 DUP1 DUP6 SHL SUB AND PUSH1 0x20 DUP4 ADD MSTORE PUSH1 0x40 DUP3 ADD MSTORE LOG1 DUP1 RETURN JUMPDEST POP CALLVALUE PUSH2 0x337 JUMPI DUP1 PUSH1 0x3 NOT CALLDATASIZE ADD SLT PUSH2 0x337 JUMPI PUSH2 0x1DB0 PUSH2 0x2999 JUMP JUMPDEST PUSH2 0x1DB8 PUSH2 0x2933 JUMP JUMPDEST PUSH1 0x7 SLOAD DUP1 ISZERO PUSH2 0x1E5A JUMPI PUSH1 0x7 DUP3 SWAP1 SSTORE DUP2 SLOAD PUSH1 0x4 SLOAD PUSH1 0x40 MLOAD PUSH4 0xA9059CBB PUSH1 0xE0 SHL PUSH1 0x20 DUP3 ADD MSTORE PUSH1 0x1 PUSH1 0x1 PUSH1 0xA0 SHL SUB SWAP2 DUP3 AND PUSH1 0x24 DUP3 ADD MSTORE PUSH1 0x44 DUP1 DUP3 ADD DUP6 SWAP1 MSTORE DUP2 MSTORE PUSH32 0xC0819C13BE868895EB93E40EACEB96DE976442FA1D404E5C55F14BB65A8C489A SWAP4 SWAP3 PUSH2 0x1E28 SWAP3 AND PUSH2 0xF9D PUSH1 0x64 DUP4 PUSH2 0x2532 JUMP JUMPDEST PUSH1 0x4 SLOAD PUSH1 0x40 DUP1 MLOAD PUSH1 0x1 PUSH1 0x1 PUSH1 0xA0 SHL SUB SWAP1 SWAP3 AND DUP3 MSTORE PUSH1 0x20 DUP3 ADD SWAP3 SWAP1 SWAP3 MSTORE LOG1 PUSH1 0x1 PUSH1 0x0 DUP1 MLOAD PUSH1 0x20 PUSH2 0x3091 DUP4 CODECOPY DUP2 MLOAD SWAP2 MSTORE SSTORE DUP1 RETURN JUMPDEST PUSH4 0xD00DB4D PUSH1 0xE3 SHL DUP3 MSTORE PUSH1 0x4 DUP3 REVERT JUMPDEST POP CALLVALUE PUSH2 0x337 JUMPI DUP1 PUSH1 0x3 NOT CALLDATASIZE ADD SLT PUSH2 0x337 JUMPI PUSH1 0x4 SLOAD PUSH1 0x40 MLOAD PUSH1 0x1 PUSH1 0x1 PUSH1 0xA0 SHL SUB SWAP1 SWAP2 AND DUP2 MSTORE PUSH1 0x20 SWAP1 RETURN JUMPDEST POP CALLVALUE PUSH2 0x337 JUMPI DUP1 PUSH1 0x3 NOT CALLDATASIZE ADD SLT PUSH2 0x337 JUMPI PUSH1 0x20 PUSH2 0x741 PUSH2 0x260D JUMP JUMPDEST POP CALLVALUE PUSH2 0x337 JUMPI DUP1 PUSH1 0x3 NOT CALLDATASIZE ADD SLT PUSH2 0x337 JUMPI PUSH2 0x1EC6 PUSH2 0x2999 JUMP JUMPDEST PUSH1 0x0 DUP1 MLOAD PUSH1 0x20 PUSH2 0x3071 DUP4 CODECOPY DUP2 MLOAD SWAP2 MSTORE SLOAD PUSH1 0xFF DUP2 AND ISZERO PUSH2 0x1F20 JUMPI PUSH1 0xFF NOT AND PUSH1 0x0 DUP1 MLOAD PUSH1 0x20 PUSH2 0x3071 DUP4 CODECOPY DUP2 MLOAD SWAP2 MSTORE SSTORE PUSH32 0x5DB9EE0A495BF2E6FF9C91A7834C1BA4FDD244A5E8AA4E537BD38AEAE4B073AA PUSH1 0x20 PUSH1 0x40 MLOAD CALLER DUP2 MSTORE LOG1 DUP1 RETURN JUMPDEST PUSH4 0x8DFC202B PUSH1 0xE0 SHL DUP3 MSTORE PUSH1 0x4 DUP3 REVERT JUMPDEST POP CALLVALUE PUSH2 0x337 JUMPI DUP1 PUSH1 0x3 NOT CALLDATASIZE ADD SLT PUSH2 0x337 JUMPI PUSH1 0x20 PUSH1 0x40 MLOAD PUSH2 0x25E4 DUP2 MSTORE RETURN JUMPDEST POP CALLVALUE PUSH2 0x337 JUMPI DUP1 PUSH1 0x3 NOT CALLDATASIZE ADD SLT PUSH2 0x337 JUMPI PUSH1 0x20 PUSH1 0x40 MLOAD PUSH1 0x12 DUP2 MSTORE RETURN JUMPDEST POP CALLVALUE PUSH2 0x337 JUMPI DUP1 PUSH1 0x3 NOT CALLDATASIZE ADD SLT PUSH2 0x337 JUMPI PUSH1 0x20 PUSH1 0x40 MLOAD PUSH4 0x2F969E0 DUP2 MSTORE RETURN JUMPDEST POP CALLVALUE PUSH2 0x337 JUMPI PUSH1 0x20 CALLDATASIZE PUSH1 0x3 NOT ADD SLT PUSH2 0x337 JUMPI PUSH1 0x4 CALLDATALOAD PUSH1 0x3 DUP2 LT ISZERO PUSH2 0xF61 JUMPI PUSH1 0x5 SWAP1 PUSH1 0xC0 SWAP3 POP MUL DUP1 PUSH1 0xA ADD SLOAD SWAP1 PUSH1 0xFF PUSH1 0xB DUP3 ADD SLOAD SWAP2 PUSH1 0xC DUP2 ADD SLOAD PUSH1 0xE PUSH1 0xD DUP4 ADD SLOAD SWAP3 ADD SLOAD SWAP4 PUSH1 0x40 MLOAD SWAP6 DUP7 MSTORE PUSH1 0x20 DUP7 ADD MSTORE PUSH1 0x40 DUP6 ADD MSTORE DUP2 DUP2 AND PUSH1 0x60 DUP6 ADD MSTORE PUSH1 0x8 SHR AND ISZERO ISZERO PUSH1 0x80 DUP4 ADD MSTORE PUSH1 0xA0 DUP3 ADD MSTORE RETURN JUMPDEST POP CALLVALUE PUSH2 0x337 JUMPI DUP1 PUSH1 0x3 NOT CALLDATASIZE ADD SLT PUSH2 0x337 JUMPI PUSH1 0x3 SLOAD PUSH1 0x40 MLOAD PUSH1 0x1 PUSH1 0x1 PUSH1 0xA0 SHL SUB SWAP1 SWAP2 AND DUP2 MSTORE PUSH1 0x20 SWAP1 RETURN JUMPDEST POP CALLVALUE PUSH2 0x337 JUMPI PUSH1 0x20 CALLDATASIZE PUSH1 0x3 NOT ADD SLT PUSH2 0x337 JUMPI PUSH1 0x40 DUP2 PUSH1 0xA0 SWAP3 PUSH1 0x80 DUP4 MLOAD PUSH2 0x2043 DUP2 PUSH2 0x24E4 JUMP JUMPDEST DUP3 DUP2 MSTORE DUP3 PUSH1 0x20 DUP3 ADD MSTORE DUP3 DUP6 DUP3 ADD MSTORE DUP3 PUSH1 0x60 DUP3 ADD MSTORE ADD MSTORE PUSH1 0x4 CALLDATALOAD DUP2 MSTORE PUSH1 0x1A PUSH1 0x20 MSTORE KECCAK256 PUSH1 0x40 MLOAD SWAP1 PUSH2 0x2071 DUP3 PUSH2 0x24E4 JUMP JUMPDEST PUSH1 0x1 DUP1 DUP5 SHL SUB DUP2 SLOAD AND DUP3 MSTORE PUSH1 0x1 DUP2 ADD SLOAD SWAP1 PUSH1 0x20 DUP4 ADD SWAP2 DUP3 MSTORE PUSH2 0x20E0 PUSH1 0xFF PUSH1 0x2 DUP4 ADD SLOAD AND PUSH2 0x20A2 PUSH1 0x40 DUP7 ADD SWAP2 DUP3 PUSH2 0x2601 JUMP JUMPDEST PUSH1 0xFF PUSH1 0x4 PUSH1 0x3 DUP6 ADD SLOAD SWAP5 PUSH1 0x60 DUP9 ADD SWAP6 DUP7 MSTORE ADD SLOAD AND SWAP4 PUSH1 0x80 DUP7 ADD SWAP5 ISZERO ISZERO DUP6 MSTORE PUSH1 0x40 MLOAD SWAP6 PUSH1 0x1 DUP1 DUP10 SHL SUB SWAP1 MLOAD AND DUP7 MSTORE MLOAD PUSH1 0x20 DUP7 ADD MSTORE MLOAD PUSH1 0x40 DUP6 ADD SWAP1 PUSH2 0x24C1 JUMP JUMPDEST MLOAD PUSH1 0x60 DUP4 ADD MSTORE MLOAD ISZERO ISZERO PUSH1 0x80 DUP3 ADD MSTORE RETURN JUMPDEST POP CALLVALUE PUSH2 0x337 JUMPI PUSH1 0x40 CALLDATASIZE PUSH1 0x3 NOT ADD SLT PUSH2 0x337 JUMPI PUSH2 0x210A PUSH2 0x24B1 JUMP JUMPDEST SWAP1 PUSH2 0x2113 PUSH2 0x24A1 JUMP JUMPDEST SWAP2 PUSH2 0x211C PUSH2 0x2933 JUMP JUMPDEST PUSH2 0x2124 PUSH2 0x296F JUMP JUMPDEST PUSH1 0xFF DUP2 AND PUSH1 0x3 DUP2 LT ISZERO PUSH2 0x325 JUMPI POP PUSH1 0xFF DUP4 AND SWAP1 PUSH1 0x3 DUP3 GT PUSH2 0x23D8 JUMPI PUSH1 0x3 DUP2 LT ISZERO PUSH2 0x1714 JUMPI PUSH1 0x5 MUL PUSH1 0xFF PUSH1 0xD DUP3 PUSH1 0xA ADD SWAP3 ADD SLOAD PUSH1 0x8 SHR AND ISZERO PUSH2 0x23C5 JUMPI PUSH1 0x4 DUP3 LT ISZERO PUSH2 0x23B1 JUMPI CALLER DUP4 MSTORE PUSH1 0x9 PUSH1 0x20 MSTORE PUSH2 0x217D DUP3 PUSH1 0x40 DUP6 KECCAK256 PUSH2 0x2570 JUMP JUMPDEST SLOAD ISZERO PUSH2 0x2395 JUMPI CALLER DUP4 MSTORE PUSH1 0x9 PUSH1 0x20 MSTORE PUSH2 0x2198 DUP3 PUSH1 0x40 DUP6 KECCAK256 PUSH2 0x2570 JUMP JUMPDEST SWAP4 DUP5 SLOAD PUSH1 0x0 NOT DUP2 ADD SWAP1 DUP2 GT PUSH2 0xC1F JUMPI DUP5 SWAP6 SSTORE DUP2 SLOAD SWAP1 PUSH1 0x1C SLOAD PUSH2 0x21B9 DUP2 PUSH2 0x268A JUMP JUMPDEST PUSH1 0x1C SSTORE PUSH1 0x40 MLOAD SWAP2 PUSH1 0x20 DUP4 ADD SWAP4 PUSH1 0x1 PUSH1 0x1 PUSH1 0x60 SHL SUB NOT CALLER PUSH1 0x60 SHL AND DUP6 MSTORE PUSH1 0x34 DUP5 ADD MSTORE PUSH1 0xFF PUSH1 0xF8 SHL SWAP1 PUSH1 0xF8 SHL AND PUSH1 0x54 DUP4 ADD MSTORE TIMESTAMP PUSH1 0x55 DUP4 ADD MSTORE PUSH1 0x75 DUP3 ADD MSTORE PUSH1 0x75 DUP2 MSTORE PUSH2 0x2203 PUSH1 0x95 DUP3 PUSH2 0x2532 JUMP JUMPDEST MLOAD SWAP1 KECCAK256 PUSH1 0x2 SLOAD PUSH1 0x40 MLOAD PUSH4 0x71C8A239 PUSH1 0xE1 SHL DUP2 MSTORE PUSH1 0x4 DUP2 ADD DUP4 SWAP1 MSTORE SWAP5 PUSH1 0x20 SWAP2 DUP7 SWAP2 PUSH1 0x24 SWAP2 DUP4 SWAP2 SWAP1 PUSH1 0x1 PUSH1 0x1 PUSH1 0xA0 SHL SUB AND GAS CALL SWAP4 DUP5 ISZERO PUSH2 0x16F7 JUMPI DUP6 SWAP5 PUSH2 0x2361 JUMPI JUMPDEST POP DUP2 SLOAD PUSH1 0x40 MLOAD SWAP1 PUSH2 0x2252 DUP3 PUSH2 0x24E4 JUMP JUMPDEST CALLER DUP3 MSTORE PUSH1 0x20 DUP3 ADD SWAP1 DUP2 MSTORE PUSH1 0x40 DUP3 ADD PUSH2 0x226A DUP7 DUP3 PUSH2 0x2601 JUMP JUMPDEST TIMESTAMP PUSH1 0x60 DUP5 ADD SWAP1 DUP2 MSTORE PUSH1 0x80 DUP5 ADD DUP10 DUP2 MSTORE DUP9 DUP11 MSTORE PUSH1 0x1A PUSH1 0x20 MSTORE PUSH1 0x40 DUP11 KECCAK256 SWAP5 MLOAD DUP6 SLOAD PUSH1 0x1 PUSH1 0x1 PUSH1 0xA0 SHL SUB NOT AND PUSH1 0x1 PUSH1 0x1 PUSH1 0xA0 SHL SUB SWAP2 SWAP1 SWAP2 AND OR DUP6 SSTORE SWAP3 MLOAD PUSH1 0x1 DUP6 ADD SSTORE SWAP1 MLOAD PUSH1 0x2 DUP5 ADD SWAP1 PUSH1 0x4 DUP2 LT ISZERO PUSH2 0x234D JUMPI DUP10 SWAP4 PUSH2 0x22F2 SWAP4 PUSH1 0x40 SWAP7 SWAP4 PUSH1 0x4 SWAP4 PUSH1 0x20 SWAP14 POP PUSH1 0xFF DUP1 NOT DUP4 SLOAD AND SWAP2 AND OR SWAP1 SSTORE MLOAD PUSH1 0x3 DUP5 ADD SSTORE MLOAD ISZERO ISZERO SWAP2 ADD SWAP1 PUSH1 0xFF DUP1 NOT DUP4 SLOAD AND SWAP2 ISZERO ISZERO AND OR SWAP1 SSTORE JUMP JUMPDEST DUP6 DUP2 MSTORE PUSH1 0x1B DUP8 MSTORE KECCAK256 SSTORE SLOAD SWAP1 PUSH1 0x40 MLOAD SWAP2 DUP3 MSTORE DUP4 DUP3 ADD MSTORE DUP2 PUSH1 0x40 DUP3 ADD MSTORE PUSH32 0x5E0C015D137A94A9E864E17092FB126241C929614B46C3BC32163B46DE9BF05B PUSH1 0x60 CALLER SWAP3 LOG2 PUSH1 0x1 PUSH1 0x0 DUP1 MLOAD PUSH1 0x20 PUSH2 0x3091 DUP4 CODECOPY DUP2 MLOAD SWAP2 MSTORE SSTORE PUSH1 0x40 MLOAD SWAP1 DUP2 MSTORE RETURN JUMPDEST PUSH4 0x4E487B71 PUSH1 0xE0 SHL DUP11 MSTORE PUSH1 0x21 PUSH1 0x4 MSTORE PUSH1 0x24 DUP11 REVERT JUMPDEST SWAP1 SWAP4 POP PUSH1 0x20 DUP2 RETURNDATASIZE PUSH1 0x20 GT PUSH2 0x238D JUMPI JUMPDEST DUP2 PUSH2 0x237D PUSH1 0x20 SWAP4 DUP4 PUSH2 0x2532 JUMP JUMPDEST DUP2 ADD SUB SLT PUSH2 0xF32 JUMPI MLOAD SWAP3 CODESIZE PUSH2 0x2242 JUMP JUMPDEST RETURNDATASIZE SWAP2 POP PUSH2 0x2370 JUMP JUMPDEST PUSH1 0x64 DUP4 DUP4 PUSH4 0x9F27773F PUSH1 0xE0 SHL DUP3 MSTORE PUSH1 0x4 MSTORE PUSH1 0x1 PUSH1 0x24 MSTORE DUP1 PUSH1 0x44 MSTORE REVERT JUMPDEST PUSH4 0x4E487B71 PUSH1 0xE0 SHL DUP4 MSTORE PUSH1 0x21 PUSH1 0x4 MSTORE PUSH1 0x24 DUP4 REVERT JUMPDEST SLOAD PUSH4 0x32C3E471 PUSH1 0xE2 SHL DUP4 MSTORE PUSH1 0x4 MSTORE PUSH1 0x24 DUP3 REVERT JUMPDEST PUSH4 0xFAB9B837 PUSH1 0xE0 SHL DUP4 MSTORE PUSH1 0x4 DUP3 SWAP1 MSTORE PUSH1 0x24 DUP4 REVERT JUMPDEST POP CALLVALUE PUSH2 0x337 JUMPI PUSH1 0x40 CALLDATASIZE PUSH1 0x3 NOT ADD SLT PUSH2 0x337 JUMPI PUSH2 0x2406 PUSH2 0x248B JUMP JUMPDEST SWAP1 PUSH1 0xFF PUSH2 0x2411 PUSH2 0x24A1 JUMP JUMPDEST AND SWAP2 PUSH1 0x3 DUP4 GT PUSH2 0x2459 JUMPI PUSH1 0x1 PUSH1 0x1 PUSH1 0xA0 SHL SUB AND DUP2 MSTORE PUSH1 0x9 PUSH1 0x20 MSTORE PUSH1 0x40 DUP2 KECCAK256 SWAP1 PUSH1 0x4 DUP4 LT ISZERO PUSH2 0x2445 JUMPI PUSH1 0x20 PUSH2 0xA72 DUP5 DUP5 PUSH2 0x2570 JUMP JUMPDEST PUSH4 0x4E487B71 PUSH1 0xE0 SHL DUP2 MSTORE PUSH1 0x21 PUSH1 0x4 MSTORE PUSH1 0x24 SWAP1 REVERT JUMPDEST POP PUSH1 0x24 SWAP2 PUSH4 0xFAB9B837 PUSH1 0xE0 SHL DUP3 MSTORE PUSH1 0x4 MSTORE REVERT JUMPDEST POP CALLVALUE PUSH2 0x337 JUMPI PUSH1 0x20 CALLDATASIZE PUSH1 0x3 NOT ADD SLT PUSH2 0x337 JUMPI PUSH1 0x20 PUSH2 0x741 PUSH1 0x4 CALLDATALOAD PUSH2 0x25A4 JUMP JUMPDEST PUSH1 0x4 CALLDATALOAD SWAP1 PUSH1 0x1 PUSH1 0x1 PUSH1 0xA0 SHL SUB DUP3 AND DUP3 SUB PUSH2 0xC77 JUMPI JUMP JUMPDEST PUSH1 0x24 CALLDATALOAD SWAP1 PUSH1 0xFF DUP3 AND DUP3 SUB PUSH2 0xC77 JUMPI JUMP JUMPDEST PUSH1 0x4 CALLDATALOAD SWAP1 PUSH1 0xFF DUP3 AND DUP3 SUB PUSH2 0xC77 JUMPI JUMP JUMPDEST SWAP1 PUSH1 0x4 DUP3 LT ISZERO PUSH2 0x24CE JUMPI MSTORE JUMP JUMPDEST PUSH4 0x4E487B71 PUSH1 0xE0 SHL PUSH1 0x0 MSTORE PUSH1 0x21 PUSH1 0x4 MSTORE PUSH1 0x24 PUSH1 0x0 REVERT JUMPDEST PUSH1 0xA0 DUP2 ADD SWAP1 DUP2 LT PUSH8 0xFFFFFFFFFFFFFFFF DUP3 GT OR PUSH2 0x2500 JUMPI PUSH1 0x40 MSTORE JUMP JUMPDEST PUSH4 0x4E487B71 PUSH1 0xE0 SHL PUSH1 0x0 MSTORE PUSH1 0x41 PUSH1 0x4 MSTORE PUSH1 0x24 PUSH1 0x0 REVERT JUMPDEST PUSH1 0xC0 DUP2 ADD SWAP1 DUP2 LT PUSH8 0xFFFFFFFFFFFFFFFF DUP3 GT OR PUSH2 0x2500 JUMPI PUSH1 0x40 MSTORE JUMP JUMPDEST SWAP1 PUSH1 0x1F DUP1 NOT SWAP2 ADD AND DUP2 ADD SWAP1 DUP2 LT PUSH8 0xFFFFFFFFFFFFFFFF DUP3 GT OR PUSH2 0x2500 JUMPI PUSH1 0x40 MSTORE JUMP JUMPDEST PUSH8 0xFFFFFFFFFFFFFFFF DUP2 GT PUSH2 0x2500 JUMPI PUSH1 0x1F ADD PUSH1 0x1F NOT AND PUSH1 0x20 ADD SWAP1 JUMP JUMPDEST SWAP1 PUSH1 0x4 DUP2 LT ISZERO PUSH2 0x24CE JUMPI PUSH1 0x0 MSTORE PUSH1 0x20 MSTORE PUSH1 0x40 PUSH1 0x0 KECCAK256 SWAP1 JUMP JUMPDEST CALLVALUE PUSH2 0xC77 JUMPI PUSH1 0x0 CALLDATASIZE PUSH1 0x3 NOT ADD SLT PUSH2 0xC77 JUMPI PUSH1 0x20 PUSH1 0x40 MLOAD PUSH1 0x3 DUP2 MSTORE RETURN JUMPDEST PUSH9 0x56BC75E2D63100000 DUP2 MUL SWAP1 DUP1 DUP3 DIV PUSH9 0x56BC75E2D63100000 EQ SWAP1 ISZERO OR ISZERO PUSH2 0x25EB JUMPI PUSH1 0x1D SLOAD SWAP1 DUP2 ISZERO PUSH2 0x25D5 JUMPI DIV SWAP1 JUMP JUMPDEST PUSH4 0x4E487B71 PUSH1 0xE0 SHL PUSH1 0x0 MSTORE PUSH1 0x12 PUSH1 0x4 MSTORE PUSH1 0x24 PUSH1 0x0 REVERT JUMPDEST PUSH4 0x4E487B71 PUSH1 0xE0 SHL PUSH1 0x0 MSTORE PUSH1 0x11 PUSH1 0x4 MSTORE PUSH1 0x24 PUSH1 0x0 REVERT JUMPDEST PUSH1 0x4 DUP3 LT ISZERO PUSH2 0x24CE JUMPI MSTORE JUMP JUMPDEST PUSH1 0x1E SLOAD PUSH1 0x1 PUSH1 0x1 PUSH1 0xA0 SHL SUB AND DUP1 ISZERO PUSH2 0x2684 JUMPI PUSH1 0x20 PUSH1 0x4 SWAP2 PUSH1 0x40 MLOAD SWAP3 DUP4 DUP1 SWAP3 PUSH4 0x579EF8B PUSH1 0xE5 SHL DUP3 MSTORE GAS STATICCALL SWAP1 DUP2 ISZERO PUSH2 0x2678 JUMPI PUSH1 0x0 SWAP2 PUSH2 0x2649 JUMPI POP SWAP1 JUMP JUMPDEST SWAP1 POP PUSH1 0x20 DUP2 RETURNDATASIZE PUSH1 0x20 GT PUSH2 0x2670 JUMPI JUMPDEST DUP2 PUSH2 0x2664 PUSH1 0x20 SWAP4 DUP4 PUSH2 0x2532 JUMP JUMPDEST DUP2 ADD SUB SLT PUSH2 0xC77 JUMPI MLOAD SWAP1 JUMP JUMPDEST RETURNDATASIZE SWAP2 POP PUSH2 0x2657 JUMP JUMPDEST PUSH1 0x40 MLOAD RETURNDATASIZE PUSH1 0x0 DUP3 RETURNDATACOPY RETURNDATASIZE SWAP1 REVERT JUMPDEST POP PUSH1 0x0 SWAP1 JUMP JUMPDEST PUSH1 0x0 NOT DUP2 EQ PUSH2 0x25EB JUMPI PUSH1 0x1 ADD SWAP1 JUMP JUMPDEST SWAP2 SWAP1 DUP3 ADD DUP1 SWAP3 GT PUSH2 0x25EB JUMPI JUMP JUMPDEST DUP2 MLOAD DUP2 SSTORE PUSH1 0x20 DUP3 ADD MLOAD PUSH1 0x1 DUP3 ADD SSTORE PUSH1 0x40 DUP3 ADD MLOAD PUSH1 0x2 DUP3 ADD SSTORE PUSH1 0x60 DUP3 ADD MLOAD PUSH1 0x3 DUP3 ADD DUP1 SLOAD PUSH1 0x80 DUP6 ADD MLOAD PUSH2 0xFF00 SWAP1 ISZERO ISZERO PUSH1 0x8 SHL AND PUSH1 0xFF SWAP1 SWAP4 AND PUSH2 0xFFFF NOT SWAP1 SWAP2 AND OR SWAP2 SWAP1 SWAP2 OR SWAP1 SSTORE PUSH1 0xA0 SWAP1 SWAP2 ADD MLOAD PUSH1 0x4 SWAP1 SWAP2 ADD SSTORE JUMP JUMPDEST SWAP1 DUP2 PUSH1 0x0 MSTORE PUSH1 0x1A PUSH1 0x20 MSTORE PUSH1 0x40 PUSH1 0x0 KECCAK256 SWAP2 PUSH1 0x1 DUP1 PUSH1 0xA0 SHL SUB DUP4 SLOAD AND SWAP1 DUP2 ISZERO PUSH2 0x2762 JUMPI PUSH1 0x4 DUP5 ADD SWAP1 DUP2 SLOAD SWAP1 PUSH1 0xFF DUP3 AND PUSH2 0x274E JUMPI POP PUSH1 0xFF NOT AND PUSH1 0x1 OR SWAP1 SSTORE ADDRESS EQ PUSH2 0x2745 JUMPI PUSH2 0x2743 SWAP2 PUSH2 0x2AB1 JUMP JUMPDEST JUMP JUMPDEST PUSH2 0x2743 SWAP2 PUSH2 0x29CF JUMP JUMPDEST PUSH4 0x3F8CBCED PUSH1 0xE2 SHL PUSH1 0x0 MSTORE PUSH1 0x4 MSTORE PUSH1 0x24 PUSH1 0x0 REVERT JUMPDEST PUSH4 0x98354E9 PUSH1 0xE4 SHL PUSH1 0x0 MSTORE PUSH1 0x4 MSTORE PUSH1 0x24 PUSH1 0x0 REVERT JUMPDEST PUSH1 0x40 MLOAD SWAP1 PUSH2 0x2783 DUP3 PUSH2 0x2516 JUMP JUMPDEST PUSH1 0x0 PUSH1 0xA0 DUP4 DUP3 DUP2 MSTORE DUP3 PUSH1 0x20 DUP3 ADD MSTORE DUP3 PUSH1 0x40 DUP3 ADD MSTORE DUP3 PUSH1 0x60 DUP3 ADD MSTORE DUP3 PUSH1 0x80 DUP3 ADD MSTORE ADD MSTORE JUMP JUMPDEST SWAP1 PUSH1 0x40 MLOAD PUSH2 0x27B4 DUP2 PUSH2 0x2516 JUMP JUMPDEST PUSH1 0xA0 PUSH1 0x4 DUP3 SWAP5 DUP1 SLOAD DUP5 MSTORE PUSH1 0x1 DUP2 ADD SLOAD PUSH1 0x20 DUP6 ADD MSTORE PUSH1 0x2 DUP2 ADD SLOAD PUSH1 0x40 DUP6 ADD MSTORE PUSH1 0xFF PUSH1 0x3 DUP3 ADD SLOAD DUP2 DUP2 AND PUSH1 0x60 DUP8 ADD MSTORE PUSH1 0x8 SHR AND ISZERO ISZERO PUSH1 0x80 DUP6 ADD MSTORE ADD SLOAD SWAP2 ADD MSTORE JUMP JUMPDEST PUSH1 0x4 DUP2 LT ISZERO PUSH2 0x24CE JUMPI DUP1 ISZERO PUSH2 0x2855 JUMPI PUSH1 0x0 PUSH1 0x1 DUP3 EQ PUSH2 0x284C JUMPI POP PUSH1 0x2 DUP2 EQ PUSH2 0x2843 JUMPI PUSH1 0x0 PUSH1 0x3 DUP3 EQ PUSH2 0x2839 JUMPI PUSH1 0xFF SWAP3 POP POP PUSH4 0xFAB9B837 PUSH1 0xE0 SHL PUSH1 0x0 MSTORE AND PUSH1 0x4 MSTORE PUSH1 0x24 PUSH1 0x0 REVERT JUMPDEST POP POP PUSH4 0x2F969E0 SWAP1 JUMP JUMPDEST POP PUSH4 0x17D7840 SWAP1 JUMP JUMPDEST POP POP PUSH3 0x989680 SWAP1 JUMP JUMPDEST POP PUSH3 0xF4240 SWAP1 JUMP JUMPDEST PUSH1 0x4 DUP2 LT ISZERO PUSH2 0x24CE JUMPI DUP1 ISZERO PUSH2 0x28B7 JUMPI PUSH1 0x0 PUSH1 0x1 DUP3 EQ PUSH2 0x28B0 JUMPI POP PUSH1 0x2 DUP2 EQ PUSH2 0x28AA JUMPI PUSH1 0x0 PUSH1 0x3 DUP3 EQ PUSH2 0x28A3 JUMPI PUSH1 0xFF SWAP3 POP POP PUSH4 0xFAB9B837 PUSH1 0xE0 SHL PUSH1 0x0 MSTORE AND PUSH1 0x4 MSTORE PUSH1 0x24 PUSH1 0x0 REVERT JUMPDEST POP POP PUSH1 0x63 SWAP1 JUMP JUMPDEST POP PUSH1 0x32 SWAP1 JUMP JUMPDEST POP POP PUSH1 0x14 SWAP1 JUMP JUMPDEST POP PUSH1 0x2 SWAP1 JUMP JUMPDEST PUSH1 0x1 PUSH1 0x1 PUSH1 0xA0 SHL SUB AND DUP1 ISZERO PUSH2 0x291D JUMPI PUSH1 0x0 DUP1 MLOAD PUSH1 0x20 PUSH2 0x3031 DUP4 CODECOPY DUP2 MLOAD SWAP2 MSTORE DUP1 SLOAD PUSH1 0x1 PUSH1 0x1 PUSH1 0xA0 SHL SUB NOT DUP2 AND DUP4 OR SWAP1 SWAP2 SSTORE PUSH1 0x1 PUSH1 0x1 PUSH1 0xA0 SHL SUB AND PUSH32 0x8BE0079C531659141344CD1FD0A4F28419497F9722A3DAAFE3B4186F6B6457E0 PUSH1 0x0 DUP1 LOG3 JUMP JUMPDEST PUSH4 0x1E4FBDF7 PUSH1 0xE0 SHL PUSH1 0x0 MSTORE PUSH1 0x0 PUSH1 0x4 MSTORE PUSH1 0x24 PUSH1 0x0 REVERT JUMPDEST PUSH1 0x2 PUSH1 0x0 DUP1 MLOAD PUSH1 0x20 PUSH2 0x3091 DUP4 CODECOPY DUP2 MLOAD SWAP2 MSTORE SLOAD EQ PUSH2 0x295E JUMPI PUSH1 0x2 PUSH1 0x0 DUP1 MLOAD PUSH1 0x20 PUSH2 0x3091 DUP4 CODECOPY DUP2 MLOAD SWAP2 MSTORE SSTORE JUMP JUMPDEST PUSH4 0x3EE5AEB5 PUSH1 0xE0 SHL PUSH1 0x0 MSTORE PUSH1 0x4 PUSH1 0x0 REVERT JUMPDEST PUSH1 0xFF PUSH1 0x0 DUP1 MLOAD PUSH1 0x20 PUSH2 0x3071 DUP4 CODECOPY DUP2 MLOAD SWAP2 MSTORE SLOAD AND PUSH2 0x2988 JUMPI JUMP JUMPDEST PUSH4 0xD93C0665 PUSH1 0xE0 SHL PUSH1 0x0 MSTORE PUSH1 0x4 PUSH1 0x0 REVERT JUMPDEST PUSH1 0x0 DUP1 MLOAD PUSH1 0x20 PUSH2 0x3031 DUP4 CODECOPY DUP2 MLOAD SWAP2 MSTORE SLOAD PUSH1 0x1 PUSH1 0x1 PUSH1 0xA0 SHL SUB AND CALLER SUB PUSH2 0x29BA JUMPI JUMP JUMPDEST PUSH4 0x118CDAA7 PUSH1 0xE0 SHL PUSH1 0x0 MSTORE CALLER PUSH1 0x4 MSTORE PUSH1 0x24 PUSH1 0x0 REVERT JUMPDEST SWAP1 PUSH1 0xFF PUSH1 0x2 DUP4 ADD SLOAD AND SWAP2 PUSH1 0x4 DUP4 LT ISZERO PUSH2 0x24CE JUMPI PUSH1 0x3 DUP4 LT ISZERO PUSH2 0x2AAC JUMPI PUSH1 0x0 PUSH1 0x5 DUP5 MUL SWAP4 PUSH1 0xFF PUSH1 0xD DUP7 ADD SLOAD PUSH1 0x8 SHR AND PUSH2 0x2AA5 JUMPI PUSH32 0x156F6FEF57E34329718D6EFBD41F31A81AFD51D967D24F97B94EB576DCA20CFE SWAP5 PUSH2 0x2A76 DUP4 PUSH2 0x2AA0 SWAP5 POP PUSH1 0x1 PUSH2 0x3E8 DUP1 DUP10 MOD SWAP9 PUSH1 0x80 SHR MOD SWAP7 ADD SWAP3 DUP4 SLOAD SWAP2 PUSH1 0x40 MLOAD SWAP3 PUSH2 0x2A4C DUP5 PUSH2 0x2516 JUMP JUMPDEST DUP4 MSTORE DUP9 PUSH1 0x20 DUP5 ADD MSTORE DUP8 PUSH1 0x40 DUP5 ADD MSTORE DUP1 PUSH1 0x60 DUP5 ADD MSTORE PUSH1 0x1 PUSH1 0x80 DUP5 ADD MSTORE TIMESTAMP PUSH1 0xA0 DUP5 ADD MSTORE POP PUSH1 0xA ADD PUSH2 0x26A6 JUMP JUMPDEST SLOAD SWAP3 PUSH1 0x40 MLOAD SWAP5 DUP6 SWAP5 DUP6 SWAP3 SWAP4 PUSH1 0xFF SWAP2 SWAP6 SWAP5 PUSH1 0x60 SWAP4 PUSH1 0x80 DUP7 ADD SWAP8 DUP7 MSTORE PUSH1 0x20 DUP7 ADD MSTORE PUSH1 0x40 DUP6 ADD MSTORE AND SWAP2 ADD MSTORE JUMP JUMPDEST SUB SWAP1 LOG1 JUMP JUMPDEST POP POP POP POP POP JUMP JUMPDEST POP POP POP JUMP JUMPDEST PUSH2 0x2ABE PUSH1 0x1 DUP3 ADD SLOAD PUSH2 0x2F2F JUMP JUMPDEST SWAP3 SWAP1 ISZERO DUP1 ISZERO PUSH2 0x2E88 JUMPI JUMPDEST PUSH2 0x2AAC JUMPI PUSH1 0x3 DUP4 LT ISZERO PUSH2 0x2E72 JUMPI PUSH1 0x5 DUP4 MUL SWAP2 DUP3 PUSH1 0xA ADD SWAP2 PUSH1 0xFF PUSH2 0x2AF0 DUP2 PUSH1 0x2 DUP6 ADD SLOAD AND PUSH2 0x285D JUMP JUMPDEST AND PUSH1 0x64 DUP3 MOD LT ISZERO PUSH2 0x2D87 JUMPI POP SLOAD SWAP1 SLOAD PUSH1 0xD SWAP3 SWAP1 SWAP3 ADD DUP1 SLOAD PUSH2 0xFF00 NOT AND SWAP1 SSTORE PUSH1 0x1E SLOAD PUSH1 0x1 PUSH1 0x1 PUSH1 0xA0 SHL SUB SWAP2 DUP3 AND SWAP2 PUSH1 0x0 SWAP2 AND DUP1 PUSH2 0x2CEF JUMPI JUMPDEST POP PUSH1 0x40 PUSH32 0xE1EF7825C332C25296359D37AF815442CBD1FD6D620D8271B4180BD68F834BB0 SWAP2 DUP2 MLOAD SWAP1 DUP6 DUP3 MSTORE PUSH1 0x20 DUP3 ADD MSTORE LOG2 PUSH2 0x3E8 DUP2 ADD DUP1 SWAP2 GT PUSH2 0x25EB JUMPI PUSH1 0x0 SWAP1 PUSH1 0x1C SLOAD PUSH2 0x2B73 DUP2 PUSH2 0x268A JUMP JUMPDEST PUSH1 0x1C SSTORE PUSH1 0x40 MLOAD PUSH1 0x20 DUP2 ADD SWAP2 PUSH1 0x1 PUSH1 0x1 PUSH1 0x60 SHL SUB NOT ADDRESS PUSH1 0x60 SHL AND DUP4 MSTORE DUP4 PUSH1 0x34 DUP4 ADD MSTORE PUSH1 0x7F PUSH1 0xF9 SHL PUSH1 0x54 DUP4 ADD MSTORE TIMESTAMP PUSH1 0x55 DUP4 ADD MSTORE PUSH1 0x75 DUP3 ADD MSTORE PUSH1 0x75 DUP2 MSTORE PUSH2 0x2BB8 PUSH1 0x95 DUP3 PUSH2 0x2532 JUMP JUMPDEST MLOAD SWAP1 KECCAK256 SWAP3 PUSH1 0x20 PUSH1 0x1 DUP1 PUSH1 0xA0 SHL SUB PUSH1 0x2 SLOAD AND PUSH1 0x24 PUSH1 0x40 MLOAD DUP1 SWAP7 DUP2 SWAP4 PUSH4 0x71C8A239 PUSH1 0xE1 SHL DUP4 MSTORE DUP10 PUSH1 0x4 DUP5 ADD MSTORE GAS CALL SWAP3 DUP4 ISZERO PUSH2 0x2678 JUMPI PUSH1 0x0 SWAP4 PUSH2 0x2CBA JUMPI JUMPDEST POP PUSH1 0xFF AND SWAP1 PUSH1 0x4 DUP3 LT ISZERO PUSH2 0x24CE JUMPI PUSH1 0x40 MLOAD SWAP1 PUSH2 0x2C0E DUP3 PUSH2 0x24E4 JUMP JUMPDEST ADDRESS DUP3 MSTORE PUSH1 0x20 DUP3 ADD SWAP1 DUP2 MSTORE PUSH2 0x2C26 PUSH1 0x40 DUP4 ADD SWAP4 DUP5 PUSH2 0x2601 JUMP JUMPDEST TIMESTAMP PUSH1 0x60 DUP4 ADD SWAP1 DUP2 MSTORE PUSH1 0x0 PUSH1 0x80 DUP5 ADD DUP2 DUP2 MSTORE DUP7 DUP3 MSTORE PUSH1 0x1A PUSH1 0x20 MSTORE PUSH1 0x40 SWAP1 SWAP2 KECCAK256 SWAP4 MLOAD DUP5 SLOAD PUSH1 0x1 PUSH1 0x1 PUSH1 0xA0 SHL SUB NOT AND PUSH1 0x1 PUSH1 0x1 PUSH1 0xA0 SHL SUB SWAP2 SWAP1 SWAP2 AND OR DUP5 SSTORE SWAP2 MLOAD PUSH1 0x1 DUP5 ADD SSTORE SWAP3 MLOAD PUSH1 0x2 DUP4 ADD SWAP4 SWAP1 SWAP2 SWAP1 PUSH1 0x4 DUP4 LT ISZERO PUSH2 0x24CE JUMPI PUSH2 0x2CAA SWAP5 PUSH1 0x4 SWAP4 PUSH1 0xFF DUP1 NOT DUP4 SLOAD AND SWAP2 AND OR SWAP1 SSTORE MLOAD PUSH1 0x3 DUP5 ADD SSTORE MLOAD ISZERO ISZERO SWAP2 ADD SWAP1 PUSH1 0xFF DUP1 NOT DUP4 SLOAD AND SWAP2 ISZERO ISZERO AND OR SWAP1 SSTORE JUMP JUMPDEST PUSH1 0x0 MSTORE PUSH1 0x1B PUSH1 0x20 MSTORE PUSH1 0x40 PUSH1 0x0 KECCAK256 SSTORE JUMP JUMPDEST SWAP1 SWAP3 PUSH1 0x20 DUP3 RETURNDATASIZE PUSH1 0x20 GT PUSH2 0x2CE7 JUMPI JUMPDEST DUP2 PUSH2 0x2CD5 PUSH1 0x20 SWAP4 DUP4 PUSH2 0x2532 JUMP JUMPDEST DUP2 ADD SUB SLT PUSH2 0x337 JUMPI POP MLOAD SWAP2 PUSH1 0xFF PUSH2 0x2BF3 JUMP JUMPDEST RETURNDATASIZE SWAP2 POP PUSH2 0x2CC8 JUMP JUMPDEST PUSH1 0x20 DUP3 SWAP2 PUSH1 0x24 PUSH1 0x40 MLOAD DUP1 SWAP5 DUP2 SWAP4 PUSH4 0x78B5AA8F PUSH1 0xE0 SHL DUP4 MSTORE DUP9 PUSH1 0x4 DUP5 ADD MSTORE GAS CALL SWAP2 DUP3 ISZERO PUSH2 0x2D7B JUMPI DUP1 SWAP3 PUSH2 0x2D25 JUMPI JUMPDEST POP POP PUSH1 0x40 PUSH2 0x2B27 JUMP JUMPDEST SWAP1 SWAP2 POP PUSH1 0x20 DUP3 RETURNDATASIZE PUSH1 0x20 GT PUSH2 0x2D73 JUMPI JUMPDEST DUP2 PUSH2 0x2D41 PUSH1 0x20 SWAP4 DUP4 PUSH2 0x2532 JUMP JUMPDEST DUP2 ADD SUB SLT PUSH2 0x337 JUMPI POP MLOAD PUSH1 0x40 PUSH32 0xE1EF7825C332C25296359D37AF815442CBD1FD6D620D8271B4180BD68F834BB0 PUSH2 0x2D1C JUMP JUMPDEST RETURNDATASIZE SWAP2 POP PUSH2 0x2D34 JUMP JUMPDEST PUSH1 0x40 MLOAD SWAP1 RETURNDATASIZE SWAP1 DUP3 RETURNDATACOPY RETURNDATASIZE SWAP1 REVERT JUMPDEST SWAP2 SWAP4 POP PUSH1 0x1 DUP1 PUSH1 0xA0 SHL SUB SWAP1 SLOAD AND SWAP2 PUSH1 0xD DUP2 ADD SWAP3 PUSH1 0xFF DUP5 SLOAD AND PUSH1 0xFF DUP2 EQ PUSH2 0x25EB JUMPI PUSH1 0x1 PUSH1 0xFF SWAP2 ADD AND PUSH1 0xFF NOT DUP6 SLOAD AND OR DUP5 SSTORE PUSH1 0xFF DUP5 SLOAD AND DUP1 PUSH1 0x3 SUB SWAP2 PUSH1 0xFF DUP4 GT PUSH2 0x25EB JUMPI PUSH32 0xDE2C7625951EF209E3B14DC5DE7C713AAF12A680817DF0BA922F064834ED47E4 PUSH1 0x40 PUSH1 0x3 SWAP5 PUSH1 0xFF DUP11 SLOAD SWAP2 DUP4 MLOAD SWAP3 DUP4 MSTORE AND PUSH1 0x20 DUP3 ADD MSTORE LOG2 LT ISZERO PUSH2 0x2E0D JUMPI JUMPDEST POP POP POP POP JUMP JUMPDEST PUSH32 0x991F141B1F67192A98969CD4005F41D17EF23A517C6975606AF1C6F48A0AE37D SWAP4 PUSH1 0x60 SWAP4 PUSH1 0xC SWAP3 PUSH2 0x3E8 DUP1 DUP7 PUSH1 0x8 SHR MOD SWAP6 PUSH1 0x10 SHR MOD SWAP4 DUP2 DUP7 PUSH1 0xB DUP8 SWAP5 ADD SSTORE ADD SSTORE PUSH1 0xFF NOT DUP2 SLOAD AND SWAP1 SSTORE SLOAD SWAP2 PUSH1 0x40 MLOAD SWAP3 DUP4 MSTORE PUSH1 0x20 DUP4 ADD MSTORE PUSH1 0x40 DUP3 ADD MSTORE LOG1 CODESIZE DUP1 DUP1 DUP1 PUSH2 0x2E07 JUMP JUMPDEST PUSH4 0x4E487B71 PUSH1 0xE0 SHL PUSH1 0x0 MSTORE PUSH1 0x32 PUSH1 0x4 MSTORE PUSH1 0x24 PUSH1 0x0 REVERT JUMPDEST POP PUSH1 0x3 DUP4 LT ISZERO PUSH2 0x2E72 JUMPI PUSH1 0xFF PUSH1 0xD PUSH1 0x5 DUP6 MUL ADD SLOAD PUSH1 0x8 SHR AND ISZERO PUSH2 0x2AC8 JUMP JUMPDEST SWAP1 PUSH1 0x0 PUSH1 0x20 SWAP2 DUP3 DUP2 MLOAD SWAP2 ADD DUP3 DUP6 GAS CALL ISZERO PUSH2 0x2678 JUMPI PUSH1 0x0 MLOAD RETURNDATASIZE PUSH2 0x2EF8 JUMPI POP PUSH1 0x1 PUSH1 0x1 PUSH1 0xA0 SHL SUB DUP2 AND EXTCODESIZE ISZERO JUMPDEST PUSH2 0x2ED7 JUMPI POP JUMP JUMPDEST PUSH4 0x5274AFE7 PUSH1 0xE0 SHL PUSH1 0x0 SWAP1 DUP2 MSTORE PUSH1 0x1 PUSH1 0x1 PUSH1 0xA0 SHL SUB SWAP2 SWAP1 SWAP2 AND PUSH1 0x4 MSTORE PUSH1 0x24 SWAP1 REVERT JUMPDEST PUSH1 0x1 EQ ISZERO PUSH2 0x2ED0 JUMP JUMPDEST PUSH1 0xFF PUSH1 0x0 DUP1 MLOAD PUSH1 0x20 PUSH2 0x30B1 DUP4 CODECOPY DUP2 MLOAD SWAP2 MSTORE SLOAD PUSH1 0x40 SHR AND ISZERO PUSH2 0x2F1E JUMPI JUMP JUMPDEST PUSH4 0x1AFCD79F PUSH1 0xE3 SHL PUSH1 0x0 MSTORE PUSH1 0x4 PUSH1 0x0 REVERT JUMPDEST SWAP1 PUSH1 0x0 JUMPDEST PUSH1 0x3 PUSH1 0xFF DUP3 AND LT PUSH2 0x2F47 JUMPI POP PUSH1 0x0 SWAP2 POP DUP2 SWAP1 JUMP JUMPDEST PUSH1 0x3 DUP2 LT ISZERO PUSH2 0x2E72 JUMPI PUSH1 0x5 DUP2 MUL DUP4 DUP2 PUSH1 0xA ADD SLOAD EQ SWAP1 DUP2 PUSH2 0x2F79 JUMPI JUMPDEST POP PUSH2 0x2F72 JUMPI PUSH1 0x1 ADD PUSH1 0xFF AND PUSH2 0x2F33 JUMP JUMPDEST PUSH1 0x1 SWAP3 POP SWAP1 JUMP JUMPDEST PUSH1 0xFF SWAP2 POP PUSH1 0xD ADD SLOAD PUSH1 0x8 SHR AND CODESIZE PUSH2 0x2F62 JUMP JUMPDEST PUSH1 0x40 MLOAD PUSH4 0x23B872DD PUSH1 0xE0 SHL PUSH1 0x20 DUP3 ADD MSTORE PUSH1 0x1 PUSH1 0x1 PUSH1 0xA0 SHL SUB SWAP3 DUP4 AND PUSH1 0x24 DUP3 ADD MSTORE SWAP3 SWAP1 SWAP2 AND PUSH1 0x44 DUP4 ADD MSTORE PUSH1 0x64 DUP1 DUP4 ADD SWAP4 SWAP1 SWAP4 MSTORE SWAP2 DUP2 MSTORE PUSH2 0x2743 SWAP2 PUSH2 0xF9D PUSH1 0x84 DUP4 PUSH2 0x2532 JUMP JUMPDEST SWAP1 PUSH2 0x2FF5 JUMPI POP DUP1 MLOAD ISZERO PUSH2 0x2FE4 JUMPI PUSH1 0x20 DUP2 MLOAD SWAP2 ADD REVERT JUMPDEST PUSH4 0xD6BDA275 PUSH1 0xE0 SHL PUSH1 0x0 MSTORE PUSH1 0x4 PUSH1 0x0 REVERT JUMPDEST DUP2 MLOAD ISZERO DUP1 PUSH2 0x3027 JUMPI JUMPDEST PUSH2 0x3006 JUMPI POP SWAP1 JUMP JUMPDEST PUSH4 0x9996B315 PUSH1 0xE0 SHL PUSH1 0x0 SWAP1 DUP2 MSTORE PUSH1 0x1 PUSH1 0x1 PUSH1 0xA0 SHL SUB SWAP2 SWAP1 SWAP2 AND PUSH1 0x4 MSTORE PUSH1 0x24 SWAP1 REVERT JUMPDEST POP DUP1 EXTCODESIZE ISZERO PUSH2 0x2FFE JUMP INVALID SWAP1 AND 0xD0 SWAP14 PUSH19 0xD40FDAE2FD8CEAC6B6234C7706214FD39C1CD1 0xE6 MULMOD LOG0 MSTORE DUP13 NOT SWAP4 STOP CALLDATASIZE ADDMOD SWAP5 LOG1 EXTCODESIZE LOG1 LOG3 0x21 MOD PUSH8 0xC828492DB98DCA3E KECCAK256 PUSH23 0xCC3735A920A3CA505D382BBCCD5ED15C6E187E77E9AEE8 DUP2 DUP5 0xC2 0x1F 0x4F 0x21 DUP3 0xAB PC 0x27 0xCB EXTCODESIZE PUSH31 0x7FBEDCD63F033009B779B17422D0DF92223018B32B4D1FA46E071723D6817 0xE2 BASEFEE PUSH14 0x3BECC55F00F0C57E16840DF040 CALL POP DUP9 0xDC 0x2F DUP2 INVALID CODECOPY SHR CODECOPY 0x23 0xBE 0xC7 RETURNDATACOPY 0x23 0xA9 PUSH7 0x2EFC9C229C6A00 LOG2 PUSH5 0x6970667358 0x22 SLT KECCAK256 EXP MCOPY CALLVALUE PUSH0 RETURNDATASIZE 0xB6 0xAD PUSH32 0x835866D8CC0443EF0865E4B394FB83F7DD9458B6B335021864736F6C63430008 BYTE STOP CALLER "},"methodIdentifiers":{"APE_DECIMALS()":"38efa831","BPS_DENOMINATOR()":"e1a45218","GREATBALL_CATCH_RATE()":"df33c1fd","GREATBALL_PRICE()":"a4cedc39","MASTERBALL_CATCH_RATE()":"b036d591","MASTERBALL_PRICE()":"2e9ed2e4","MAX_ACTIVE_POKEMON()":"fc774c5c","MAX_COORDINATE()":"d2574183","MAX_THROW_ATTEMPTS()":"eb76c37e","PLATFORM_FEE_BPS()":"539aa77f","POKEBALL_CATCH_RATE()":"7881a070","POKEBALL_PRICE()":"fd626a18","REVENUE_POOL_BPS()":"3bd81715","ULTRABALL_CATCH_RATE()":"9f48ed23","ULTRABALL_PRICE()":"f8ce2c7d","UPGRADE_INTERFACE_VERSION()":"ad3cb1cc","USDC_DECIMALS()":"c1419def","activePokemons(uint256)":"2795a90e","ape()":"79babd2c","apePriceUSD()":"cc7a69de","calculateAPEAmount(uint256)":"064c973c","despawnPokemon(uint8)":"fe5c7ba8","forceSpawnPokemon(uint8,uint256,uint256)":"7a0b07cf","getAllActivePokemons()":"fcc536ba","getAllPlayerBalls(address)":"a2afc373","getBallPrice(uint8)":"bf370a61","getCatchRate(uint8)":"efdf9949","getNFTInventoryCount()":"4129849f","getPendingThrow(uint256)":"23b5cb5d","getPlayerBallBalance(address,uint8)":"0771197f","getPokemon(uint8)":"9b7d1a2a","initialize(address,address,address,address,address,address,address,uint256)":"88301911","nextPokemonId()":"d9deb60b","nftRevenueWallet()":"64c618cc","owner()":"8da5cb5b","pause()":"8456cb59","paused()":"5c975abb","pendingThrows(uint256)":"f4f00092","playerBalls(address,uint8)":"970cff93","proxiableUUID()":"52d1902d","purchaseBalls(uint8,uint256,bool)":"94ea04d1","randomNumberCallback(uint256,uint256)":"8f561acc","renounceOwnership()":"715018a6","requestIdToTraceId(uint256)":"7edc648c","setAPEPrice(uint256)":"607c45d1","setNFTRevenueWallet(address)":"4c4e2a46","setSlabNFTManager(address)":"c5f52511","setTreasuryWallet(address)":"a8602fea","slabNFT()":"25c61fcd","slabNFTManager()":"6fea438d","spawnPokemon(uint8)":"7ed2f783","throwBall(uint8,uint8)":"11648422","totalNFTsPurchased()":"e155d79e","totalPlatformFees()":"d3631fa5","totalRevenuePool()":"9fb769dd","transferOwnership(address)":"f2fde38b","treasuryWallet()":"4626402b","unpause()":"3f4ba83a","upgradeToAndCall(address,bytes)":"4f1ef286","usdce()":"d33953ba","vrng()":"62138414","withdrawFees()":"476343ee"}},"storageLayout":{"storage":[{"astId":2660,"contract":"contracts/PokeballGame.sol:PokeballGame","label":"usdce","offset":0,"slot":"0","type":"t_contract(IERC20)1482"},{"astId":2663,"contract":"contracts/PokeballGame.sol:PokeballGame","label":"ape","offset":0,"slot":"1","type":"t_contract(IERC20)1482"},{"astId":2666,"contract":"contracts/PokeballGame.sol:PokeballGame","label":"vrng","offset":0,"slot":"2","type":"t_contract(IPOPVRNG)2501"},{"astId":2669,"contract":"contracts/PokeballGame.sol:PokeballGame","label":"slabNFT","offset":0,"slot":"3","type":"t_contract(IERC721)2063"},{"astId":2671,"contract":"contracts/PokeballGame.sol:PokeballGame","label":"treasuryWallet","offset":0,"slot":"4","type":"t_address"},{"astId":2673,"contract":"contracts/PokeballGame.sol:PokeballGame","label":"nftRevenueWallet","offset":0,"slot":"5","type":"t_address"},{"astId":2675,"contract":"contracts/PokeballGame.sol:PokeballGame","label":"totalRevenuePool","offset":0,"slot":"6","type":"t_uint256"},{"astId":2677,"contract":"contracts/PokeballGame.sol:PokeballGame","label":"totalPlatformFees","offset":0,"slot":"7","type":"t_uint256"},{"astId":2679,"contract":"contracts/PokeballGame.sol:PokeballGame","label":"totalNFTsPurchased","offset":0,"slot":"8","type":"t_uint256"},{"astId":2686,"contract":"contracts/PokeballGame.sol:PokeballGame","label":"playerBalls","offset":0,"slot":"9","type":"t_mapping(t_address,t_mapping(t_enum(BallType)2558,t_uint256))"},{"astId":2691,"contract":"contracts/PokeballGame.sol:PokeballGame","label":"activePokemons","offset":0,"slot":"10","type":"t_array(t_struct(Pokemon)2572_storage)3_storage"},{"astId":2693,"contract":"contracts/PokeballGame.sol:PokeballGame","label":"nextPokemonId","offset":0,"slot":"25","type":"t_uint256"},{"astId":2698,"contract":"contracts/PokeballGame.sol:PokeballGame","label":"pendingThrows","offset":0,"slot":"26","type":"t_mapping(t_uint256,t_struct(PendingThrow)2585_storage)"},{"astId":2702,"contract":"contracts/PokeballGame.sol:PokeballGame","label":"requestIdToTraceId","offset":0,"slot":"27","type":"t_mapping(t_uint256,t_uint256)"},{"astId":2704,"contract":"contracts/PokeballGame.sol:PokeballGame","label":"_traceIdCounter","offset":0,"slot":"28","type":"t_uint256"},{"astId":2706,"contract":"contracts/PokeballGame.sol:PokeballGame","label":"apePriceUSD","offset":0,"slot":"29","type":"t_uint256"},{"astId":2710,"contract":"contracts/PokeballGame.sol:PokeballGame","label":"slabNFTManager","offset":0,"slot":"30","type":"t_contract(ISlabNFTManager)2531"},{"astId":4581,"contract":"contracts/PokeballGame.sol:PokeballGame","label":"__gap","offset":0,"slot":"31","type":"t_array(t_uint256)49_storage"}],"types":{"t_address":{"encoding":"inplace","label":"address","numberOfBytes":"20"},"t_array(t_struct(Pokemon)2572_storage)3_storage":{"base":"t_struct(Pokemon)2572_storage","encoding":"inplace","label":"struct PokeballGame.Pokemon[3]","numberOfBytes":"480"},"t_array(t_uint256)49_storage":{"base":"t_uint256","encoding":"inplace","label":"uint256[49]","numberOfBytes":"1568"},"t_bool":{"encoding":"inplace","label":"bool","numberOfBytes":"1"},"t_contract(IERC20)1482":{"encoding":"inplace","label":"contract IERC20","numberOfBytes":"20"},"t_contract(IERC721)2063":{"encoding":"inplace","label":"contract IERC721","numberOfBytes":"20"},"t_contract(IPOPVRNG)2501":{"encoding":"inplace","label":"contract IPOPVRNG","numberOfBytes":"20"},"t_contract(ISlabNFTManager)2531":{"encoding":"inplace","label":"contract ISlabNFTManager","numberOfBytes":"20"},"t_enum(BallType)2558":{"encoding":"inplace","label":"enum PokeballGame.BallType","numberOfBytes":"1"},"t_mapping(t_address,t_mapping(t_enum(BallType)2558,t_uint256))":{"encoding":"mapping","key":"t_address","label":"mapping(address => mapping(enum PokeballGame.BallType => uint256))","numberOfBytes":"32","value":"t_mapping(t_enum(BallType)2558,t_uint256)"},"t_mapping(t_enum(BallType)2558,t_uint256)":{"encoding":"mapping","key":"t_enum(BallType)2558","label":"mapping(enum PokeballGame.BallType => uint256)","numberOfBytes":"32","value":"t_uint256"},"t_mapping(t_uint256,t_struct(PendingThrow)2585_storage)":{"encoding":"mapping","key":"t_uint256","label":"mapping(uint256 => struct PokeballGame.PendingThrow)","numberOfBytes":"32","value":"t_struct(PendingThrow)2585_storage"},"t_mapping(t_uint256,t_uint256)":{"encoding":"mapping","key":"t_uint256","label":"mapping(uint256 => uint256)","numberOfBytes":"32","value":"t_uint256"},"t_struct(PendingThrow)2585_storage":{"encoding":"inplace","label":"struct PokeballGame.PendingThrow","members":[{"astId":2575,"contract":"contracts/PokeballGame.sol:PokeballGame","label":"thrower","offset":0,"slot":"0","type":"t_address"},{"astId":2577,"contract":"contracts/PokeballGame.sol:PokeballGame","label":"pokemonId","offset":0,"slot":"1","type":"t_uint256"},{"astId":2580,"contract":"contracts/PokeballGame.sol:PokeballGame","label":"ballType","offset":0,"slot":"2","type":"t_enum(BallType)2558"},{"astId":2582,"contract":"contracts/PokeballGame.sol:PokeballGame","label":"timestamp","offset":0,"slot":"3","type":"t_uint256"},{"astId":2584,"contract":"contracts/PokeballGame.sol:PokeballGame","label":"resolved","offset":0,"slot":"4","type":"t_bool"}],"numberOfBytes":"160"},"t_struct(Pokemon)2572_storage":{"encoding":"inplace","label":"struct PokeballGame.Pokemon","members":[{"astId":2561,"contract":"contracts/PokeballGame.sol:PokeballGame","label":"id","offset":0,"slot":"0","type":"t_uint256"},{"astId":2563,"contract":"contracts/PokeballGame.sol:PokeballGame","label":"positionX","offset":0,"slot":"1","type":"t_uint256"},{"astId":2565,"contract":"contracts/PokeballGame.sol:PokeballGame","label":"positionY","offset":0,"slot":"2","type":"t_uint256"},{"astId":2567,"contract":"contracts/PokeballGame.sol:PokeballGame","label":"throwAttempts","offset":0,"slot":"3","type":"t_uint8"},{"astId":2569,"contract":"contracts/PokeballGame.sol:PokeballGame","label":"isActive","offset":1,"slot":"3","type":"t_bool"},{"astId":2571,"contract":"contracts/PokeballGame.sol:PokeballGame","label":"spawnTime","offset":0,"slot":"4","type":"t_uint256"}],"numberOfBytes":"160"},"t_uint256":{"encoding":"inplace","label":"uint256","numberOfBytes":"32"},"t_uint8":{"encoding":"inplace","label":"uint8","numberOfBytes":"1"}}}}}}