{"contracts/PokeballGameV2.sol":{"PokeballGame":{"abi":[{"inputs":[],"stateMutability":"nonpayable","type":"constructor"},{"inputs":[{"internalType":"address","name":"target","type":"address"}],"name":"AddressEmptyCode","type":"error"},{"inputs":[{"internalType":"address","name":"implementation","type":"address"}],"name":"ERC1967InvalidImplementation","type":"error"},{"inputs":[],"name":"ERC1967NonPayable","type":"error"},{"inputs":[],"name":"EnforcedPause","type":"error"},{"inputs":[],"name":"ExpectedPause","type":"error"},{"inputs":[],"name":"FailedCall","type":"error"},{"inputs":[{"internalType":"address","name":"token","type":"address"},{"internalType":"uint256","name":"required","type":"uint256"},{"internalType":"uint256","name":"available","type":"uint256"}],"name":"InsufficientAllowance","type":"error"},{"inputs":[{"internalType":"address","name":"token","type":"address"},{"internalType":"uint256","name":"required","type":"uint256"},{"internalType":"uint256","name":"available","type":"uint256"}],"name":"InsufficientBalance","type":"error"},{"inputs":[{"internalType":"enum PokeballGame.BallType","name":"ballType","type":"uint8"},{"internalType":"uint256","name":"required","type":"uint256"},{"internalType":"uint256","name":"available","type":"uint256"}],"name":"InsufficientBalls","type":"error"},{"inputs":[{"internalType":"uint8","name":"provided","type":"uint8"}],"name":"InvalidBallType","type":"error"},{"inputs":[],"name":"InvalidInitialization","type":"error"},{"inputs":[{"internalType":"uint8","name":"slot","type":"uint8"}],"name":"InvalidPokemonSlot","type":"error"},{"inputs":[],"name":"InvalidPrice","type":"error"},{"inputs":[],"name":"NoFeesToWithdraw","type":"error"},{"inputs":[],"name":"NotInitializing","type":"error"},{"inputs":[{"internalType":"address","name":"owner","type":"address"}],"name":"OwnableInvalidOwner","type":"error"},{"inputs":[{"internalType":"address","name":"account","type":"address"}],"name":"OwnableUnauthorizedAccount","type":"error"},{"inputs":[{"internalType":"uint256","name":"pokemonId","type":"uint256"}],"name":"PokemonNotActive","type":"error"},{"inputs":[],"name":"ReentrancyGuardReentrantCall","type":"error"},{"inputs":[{"internalType":"address","name":"token","type":"address"}],"name":"SafeERC20FailedOperation","type":"error"},{"inputs":[],"name":"SlabNFTManagerNotSet","type":"error"},{"inputs":[{"internalType":"uint8","name":"slot","type":"uint8"}],"name":"SlotOccupied","type":"error"},{"inputs":[{"internalType":"uint256","name":"requestId","type":"uint256"}],"name":"ThrowAlreadyResolved","type":"error"},{"inputs":[{"internalType":"uint256","name":"requestId","type":"uint256"}],"name":"ThrowNotFound","type":"error"},{"inputs":[],"name":"TransferFailed","type":"error"},{"inputs":[],"name":"UUPSUnauthorizedCallContext","type":"error"},{"inputs":[{"internalType":"bytes32","name":"slot","type":"bytes32"}],"name":"UUPSUnsupportedProxiableUUID","type":"error"},{"inputs":[{"internalType":"address","name":"caller","type":"address"}],"name":"UnauthorizedCallback","type":"error"},{"inputs":[],"name":"ZeroAddress","type":"error"},{"inputs":[],"name":"ZeroQuantity","type":"error"},{"anonymous":false,"inputs":[{"indexed":false,"internalType":"uint256","name":"oldPrice","type":"uint256"},{"indexed":false,"internalType":"uint256","name":"newPrice","type":"uint256"}],"name":"APEPriceUpdated","type":"event"},{"anonymous":false,"inputs":[{"indexed":true,"internalType":"address","name":"buyer","type":"address"},{"indexed":false,"internalType":"uint8","name":"ballType","type":"uint8"},{"indexed":false,"internalType":"uint256","name":"quantity","type":"uint256"},{"indexed":false,"internalType":"bool","name":"usedAPE","type":"bool"}],"name":"BallPurchased","type":"event"},{"anonymous":false,"inputs":[{"indexed":true,"internalType":"address","name":"catcher","type":"address"},{"indexed":false,"internalType":"uint256","name":"pokemonId","type":"uint256"},{"indexed":false,"internalType":"uint256","name":"nftTokenId","type":"uint256"}],"name":"CaughtPokemon","type":"event"},{"anonymous":false,"inputs":[{"indexed":true,"internalType":"address","name":"thrower","type":"address"},{"indexed":false,"internalType":"uint256","name":"pokemonId","type":"uint256"},{"indexed":false,"internalType":"uint8","name":"attemptsRemaining","type":"uint8"}],"name":"FailedCatch","type":"event"},{"anonymous":false,"inputs":[{"indexed":false,"internalType":"address","name":"recipient","type":"address"},{"indexed":false,"internalType":"uint256","name":"amount","type":"uint256"}],"name":"FeesWithdrawn","type":"event"},{"anonymous":false,"inputs":[{"indexed":false,"internalType":"uint64","name":"version","type":"uint64"}],"name":"Initialized","type":"event"},{"anonymous":false,"inputs":[{"indexed":true,"internalType":"address","name":"previousOwner","type":"address"},{"indexed":true,"internalType":"address","name":"newOwner","type":"address"}],"name":"OwnershipTransferred","type":"event"},{"anonymous":false,"inputs":[{"indexed":false,"internalType":"address","name":"account","type":"address"}],"name":"Paused","type":"event"},{"anonymous":false,"inputs":[{"indexed":false,"internalType":"uint256","name":"pokemonId","type":"uint256"},{"indexed":false,"internalType":"uint256","name":"newX","type":"uint256"},{"indexed":false,"internalType":"uint256","name":"newY","type":"uint256"}],"name":"PokemonRelocated","type":"event"},{"anonymous":false,"inputs":[{"indexed":false,"internalType":"uint256","name":"pokemonId","type":"uint256"},{"indexed":false,"internalType":"uint256","name":"positionX","type":"uint256"},{"indexed":false,"internalType":"uint256","name":"positionY","type":"uint256"},{"indexed":false,"internalType":"uint8","name":"slotIndex","type":"uint8"}],"name":"PokemonSpawned","type":"event"},{"anonymous":false,"inputs":[{"indexed":false,"internalType":"uint256","name":"amount","type":"uint256"}],"name":"RevenueSentToManager","type":"event"},{"anonymous":false,"inputs":[{"indexed":true,"internalType":"address","name":"thrower","type":"address"},{"indexed":false,"internalType":"uint256","name":"pokemonId","type":"uint256"},{"indexed":false,"internalType":"uint8","name":"ballTier","type":"uint8"},{"indexed":false,"internalType":"uint256","name":"requestId","type":"uint256"}],"name":"ThrowAttempted","type":"event"},{"anonymous":false,"inputs":[{"indexed":false,"internalType":"address","name":"account","type":"address"}],"name":"Unpaused","type":"event"},{"anonymous":false,"inputs":[{"indexed":true,"internalType":"address","name":"implementation","type":"address"}],"name":"Upgraded","type":"event"},{"anonymous":false,"inputs":[{"indexed":false,"internalType":"string","name":"walletType","type":"string"},{"indexed":false,"internalType":"address","name":"oldAddress","type":"address"},{"indexed":false,"internalType":"address","name":"newAddress","type":"address"}],"name":"WalletUpdated","type":"event"},{"inputs":[],"name":"APE_DECIMALS","outputs":[{"internalType":"uint8","name":"","type":"uint8"}],"stateMutability":"view","type":"function"},{"inputs":[],"name":"BPS_DENOMINATOR","outputs":[{"internalType":"uint256","name":"","type":"uint256"}],"stateMutability":"view","type":"function"},{"inputs":[],"name":"GREATBALL_CATCH_RATE","outputs":[{"internalType":"uint8","name":"","type":"uint8"}],"stateMutability":"view","type":"function"},{"inputs":[],"name":"GREATBALL_PRICE","outputs":[{"internalType":"uint256","name":"","type":"uint256"}],"stateMutability":"view","type":"function"},{"inputs":[],"name":"MASTERBALL_CATCH_RATE","outputs":[{"internalType":"uint8","name":"","type":"uint8"}],"stateMutability":"view","type":"function"},{"inputs":[],"name":"MASTERBALL_PRICE","outputs":[{"internalType":"uint256","name":"","type":"uint256"}],"stateMutability":"view","type":"function"},{"inputs":[],"name":"MAX_ACTIVE_POKEMON","outputs":[{"internalType":"uint8","name":"","type":"uint8"}],"stateMutability":"view","type":"function"},{"inputs":[],"name":"MAX_COORDINATE","outputs":[{"internalType":"uint256","name":"","type":"uint256"}],"stateMutability":"view","type":"function"},{"inputs":[],"name":"MAX_THROW_ATTEMPTS","outputs":[{"internalType":"uint8","name":"","type":"uint8"}],"stateMutability":"view","type":"function"},{"inputs":[],"name":"PLATFORM_FEE_BPS","outputs":[{"internalType":"uint256","name":"","type":"uint256"}],"stateMutability":"view","type":"function"},{"inputs":[],"name":"POKEBALL_CATCH_RATE","outputs":[{"internalType":"uint8","name":"","type":"uint8"}],"stateMutability":"view","type":"function"},{"inputs":[],"name":"POKEBALL_PRICE","outputs":[{"internalType":"uint256","name":"","type":"uint256"}],"stateMutability":"view","type":"function"},{"inputs":[],"name":"REVENUE_POOL_BPS","outputs":[{"internalType":"uint256","name":"","type":"uint256"}],"stateMutability":"view","type":"function"},{"inputs":[],"name":"ULTRABALL_CATCH_RATE","outputs":[{"internalType":"uint8","name":"","type":"uint8"}],"stateMutability":"view","type":"function"},{"inputs":[],"name":"ULTRABALL_PRICE","outputs":[{"internalType":"uint256","name":"","type":"uint256"}],"stateMutability":"view","type":"function"},{"inputs":[],"name":"UPGRADE_INTERFACE_VERSION","outputs":[{"internalType":"string","name":"","type":"string"}],"stateMutability":"view","type":"function"},{"inputs":[],"name":"USDC_DECIMALS","outputs":[{"internalType":"uint8","name":"","type":"uint8"}],"stateMutability":"view","type":"function"},{"inputs":[{"internalType":"uint256","name":"","type":"uint256"}],"name":"activePokemons","outputs":[{"internalType":"uint256","name":"id","type":"uint256"},{"internalType":"uint256","name":"positionX","type":"uint256"},{"internalType":"uint256","name":"positionY","type":"uint256"},{"internalType":"uint8","name":"throwAttempts","type":"uint8"},{"internalType":"bool","name":"isActive","type":"bool"},{"internalType":"uint256","name":"spawnTime","type":"uint256"}],"stateMutability":"view","type":"function"},{"inputs":[],"name":"ape","outputs":[{"internalType":"contract IERC20","name":"","type":"address"}],"stateMutability":"view","type":"function"},{"inputs":[],"name":"apePriceUSD","outputs":[{"internalType":"uint256","name":"","type":"uint256"}],"stateMutability":"view","type":"function"},{"inputs":[{"internalType":"uint256","name":"usdcAmount","type":"uint256"}],"name":"calculateAPEAmount","outputs":[{"internalType":"uint256","name":"apeAmount","type":"uint256"}],"stateMutability":"view","type":"function"},{"inputs":[{"internalType":"uint8","name":"slot","type":"uint8"}],"name":"despawnPokemon","outputs":[],"stateMutability":"nonpayable","type":"function"},{"inputs":[{"internalType":"uint8","name":"slot","type":"uint8"},{"internalType":"uint256","name":"posX","type":"uint256"},{"internalType":"uint256","name":"posY","type":"uint256"}],"name":"forceSpawnPokemon","outputs":[],"stateMutability":"nonpayable","type":"function"},{"inputs":[],"name":"getActivePokemonCount","outputs":[{"internalType":"uint8","name":"count","type":"uint8"}],"stateMutability":"view","type":"function"},{"inputs":[],"name":"getActivePokemonSlots","outputs":[{"internalType":"uint8[]","name":"slots","type":"uint8[]"}],"stateMutability":"view","type":"function"},{"inputs":[],"name":"getAllActivePokemons","outputs":[{"components":[{"internalType":"uint256","name":"id","type":"uint256"},{"internalType":"uint256","name":"positionX","type":"uint256"},{"internalType":"uint256","name":"positionY","type":"uint256"},{"internalType":"uint8","name":"throwAttempts","type":"uint8"},{"internalType":"bool","name":"isActive","type":"bool"},{"internalType":"uint256","name":"spawnTime","type":"uint256"}],"internalType":"struct PokeballGame.Pokemon[20]","name":"pokemons","type":"tuple[20]"}],"stateMutability":"view","type":"function"},{"inputs":[{"internalType":"address","name":"player","type":"address"}],"name":"getAllPlayerBalls","outputs":[{"internalType":"uint256","name":"pokeBalls","type":"uint256"},{"internalType":"uint256","name":"greatBalls","type":"uint256"},{"internalType":"uint256","name":"ultraBalls","type":"uint256"},{"internalType":"uint256","name":"masterBalls","type":"uint256"}],"stateMutability":"view","type":"function"},{"inputs":[{"internalType":"enum PokeballGame.BallType","name":"ballType","type":"uint8"}],"name":"getBallPrice","outputs":[{"internalType":"uint256","name":"price","type":"uint256"}],"stateMutability":"pure","type":"function"},{"inputs":[{"internalType":"enum PokeballGame.BallType","name":"ballType","type":"uint8"}],"name":"getCatchRate","outputs":[{"internalType":"uint8","name":"rate","type":"uint8"}],"stateMutability":"pure","type":"function"},{"inputs":[],"name":"getNFTInventoryCount","outputs":[{"internalType":"uint256","name":"count","type":"uint256"}],"stateMutability":"view","type":"function"},{"inputs":[{"internalType":"uint256","name":"requestId","type":"uint256"}],"name":"getPendingThrow","outputs":[{"components":[{"internalType":"address","name":"thrower","type":"address"},{"internalType":"uint256","name":"pokemonId","type":"uint256"},{"internalType":"enum PokeballGame.BallType","name":"ballType","type":"uint8"},{"internalType":"uint256","name":"timestamp","type":"uint256"},{"internalType":"bool","name":"resolved","type":"bool"}],"internalType":"struct PokeballGame.PendingThrow","name":"","type":"tuple"}],"stateMutability":"view","type":"function"},{"inputs":[{"internalType":"address","name":"player","type":"address"},{"internalType":"uint8","name":"ballType","type":"uint8"}],"name":"getPlayerBallBalance","outputs":[{"internalType":"uint256","name":"quantity","type":"uint256"}],"stateMutability":"view","type":"function"},{"inputs":[{"internalType":"uint8","name":"slot","type":"uint8"}],"name":"getPokemon","outputs":[{"components":[{"internalType":"uint256","name":"id","type":"uint256"},{"internalType":"uint256","name":"positionX","type":"uint256"},{"internalType":"uint256","name":"positionY","type":"uint256"},{"internalType":"uint8","name":"throwAttempts","type":"uint8"},{"internalType":"bool","name":"isActive","type":"bool"},{"internalType":"uint256","name":"spawnTime","type":"uint256"}],"internalType":"struct PokeballGame.Pokemon","name":"pokemon","type":"tuple"}],"stateMutability":"view","type":"function"},{"inputs":[{"internalType":"address","name":"_owner","type":"address"},{"internalType":"address","name":"_treasury","type":"address"},{"internalType":"address","name":"_nftRevenue","type":"address"},{"internalType":"address","name":"_usdce","type":"address"},{"internalType":"address","name":"_ape","type":"address"},{"internalType":"address","name":"_vrng","type":"address"},{"internalType":"address","name":"_slabNFT","type":"address"},{"internalType":"uint256","name":"_initialAPEPrice","type":"uint256"}],"name":"initialize","outputs":[],"stateMutability":"nonpayable","type":"function"},{"inputs":[],"name":"nextPokemonId","outputs":[{"internalType":"uint256","name":"","type":"uint256"}],"stateMutability":"view","type":"function"},{"inputs":[],"name":"nftRevenueWallet","outputs":[{"internalType":"address","name":"","type":"address"}],"stateMutability":"view","type":"function"},{"inputs":[],"name":"owner","outputs":[{"internalType":"address","name":"","type":"address"}],"stateMutability":"view","type":"function"},{"inputs":[],"name":"pause","outputs":[],"stateMutability":"nonpayable","type":"function"},{"inputs":[],"name":"paused","outputs":[{"internalType":"bool","name":"","type":"bool"}],"stateMutability":"view","type":"function"},{"inputs":[{"internalType":"uint256","name":"","type":"uint256"}],"name":"pendingThrows","outputs":[{"internalType":"address","name":"thrower","type":"address"},{"internalType":"uint256","name":"pokemonId","type":"uint256"},{"internalType":"enum PokeballGame.BallType","name":"ballType","type":"uint8"},{"internalType":"uint256","name":"timestamp","type":"uint256"},{"internalType":"bool","name":"resolved","type":"bool"}],"stateMutability":"view","type":"function"},{"inputs":[{"internalType":"address","name":"","type":"address"},{"internalType":"enum PokeballGame.BallType","name":"","type":"uint8"}],"name":"playerBalls","outputs":[{"internalType":"uint256","name":"","type":"uint256"}],"stateMutability":"view","type":"function"},{"inputs":[],"name":"proxiableUUID","outputs":[{"internalType":"bytes32","name":"","type":"bytes32"}],"stateMutability":"view","type":"function"},{"inputs":[{"internalType":"uint8","name":"ballType","type":"uint8"},{"internalType":"uint256","name":"quantity","type":"uint256"},{"internalType":"bool","name":"useAPE","type":"bool"}],"name":"purchaseBalls","outputs":[],"stateMutability":"nonpayable","type":"function"},{"inputs":[{"internalType":"uint256","name":"requestId","type":"uint256"},{"internalType":"uint256","name":"randomNumber","type":"uint256"}],"name":"randomNumberCallback","outputs":[],"stateMutability":"nonpayable","type":"function"},{"inputs":[],"name":"renounceOwnership","outputs":[],"stateMutability":"nonpayable","type":"function"},{"inputs":[{"internalType":"uint256","name":"","type":"uint256"}],"name":"requestIdToTraceId","outputs":[{"internalType":"uint256","name":"","type":"uint256"}],"stateMutability":"view","type":"function"},{"inputs":[{"internalType":"uint256","name":"newPrice","type":"uint256"}],"name":"setAPEPrice","outputs":[],"stateMutability":"nonpayable","type":"function"},{"inputs":[{"internalType":"address","name":"newNFTRevenue","type":"address"}],"name":"setNFTRevenueWallet","outputs":[],"stateMutability":"nonpayable","type":"function"},{"inputs":[{"internalType":"address","name":"_slabNFTManager","type":"address"}],"name":"setSlabNFTManager","outputs":[],"stateMutability":"nonpayable","type":"function"},{"inputs":[{"internalType":"address","name":"newTreasury","type":"address"}],"name":"setTreasuryWallet","outputs":[],"stateMutability":"nonpayable","type":"function"},{"inputs":[],"name":"slabNFT","outputs":[{"internalType":"contract IERC721","name":"","type":"address"}],"stateMutability":"view","type":"function"},{"inputs":[],"name":"slabNFTManager","outputs":[{"internalType":"contract ISlabNFTManager","name":"","type":"address"}],"stateMutability":"view","type":"function"},{"inputs":[{"internalType":"uint8","name":"slot","type":"uint8"}],"name":"spawnPokemon","outputs":[],"stateMutability":"nonpayable","type":"function"},{"inputs":[{"internalType":"uint8","name":"pokemonSlot","type":"uint8"},{"internalType":"uint8","name":"ballType","type":"uint8"}],"name":"throwBall","outputs":[{"internalType":"uint256","name":"requestId","type":"uint256"}],"stateMutability":"nonpayable","type":"function"},{"inputs":[],"name":"totalNFTsPurchased","outputs":[{"internalType":"uint256","name":"","type":"uint256"}],"stateMutability":"view","type":"function"},{"inputs":[],"name":"totalPlatformFees","outputs":[{"internalType":"uint256","name":"","type":"uint256"}],"stateMutability":"view","type":"function"},{"inputs":[],"name":"totalRevenuePool","outputs":[{"internalType":"uint256","name":"","type":"uint256"}],"stateMutability":"view","type":"function"},{"inputs":[{"internalType":"address","name":"newOwner","type":"address"}],"name":"transferOwnership","outputs":[],"stateMutability":"nonpayable","type":"function"},{"inputs":[],"name":"treasuryWallet","outputs":[{"internalType":"address","name":"","type":"address"}],"stateMutability":"view","type":"function"},{"inputs":[],"name":"unpause","outputs":[],"stateMutability":"nonpayable","type":"function"},{"inputs":[{"internalType":"address","name":"newImplementation","type":"address"},{"internalType":"bytes","name":"data","type":"bytes"}],"name":"upgradeToAndCall","outputs":[],"stateMutability":"payable","type":"function"},{"inputs":[],"name":"usdce","outputs":[{"internalType":"contract IERC20","name":"","type":"address"}],"stateMutability":"view","type":"function"},{"inputs":[],"name":"vrng","outputs":[{"internalType":"contract IPOPVRNG","name":"","type":"address"}],"stateMutability":"view","type":"function"},{"inputs":[],"name":"withdrawFees","outputs":[],"stateMutability":"nonpayable","type":"function"}],"evm":{"bytecode":{"linkReferences":{},"object":"60a080604052346100ea57306080527ff0c57e16840df040f15088dc2f81fe391c3923bec73e23a9662efc9c229c6a005460ff8160401c166100d9576002600160401b03196001600160401b03821601610073575b60405161330d90816100f08239608051818181611c370152611d080152f35b6001600160401b0319166001600160401b039081177ff0c57e16840df040f15088dc2f81fe391c3923bec73e23a9662efc9c229c6a005581527fc7f505b2f371ae2175ee4913f4499e1f2633a7b5936321eed1cdaeb6115181d290602090a13880610054565b63f92ee8a960e01b60005260046000fd5b600080fdfe6080604052600436101561001257600080fd5b6000803560e01c8063064c973c1461264f5780630771197f146125cf57806311648422146122d357806323b5cb5d1461220157806325c61fcd146121d85780632795a90e1461216a5780632e9ed2e41461214b57806338efa8311461212f5780633bd81715146121125780633f4ba83a146120905780634129849f146120755780634626402b1461204c578063476343ee14611f7a5780634c4e2a4614611ed95780634f1ef28614611c8c57806352d1902d14611c24578063539aa77f14611c075780635c975abb14611bd7578063607c45d114611b6c5780636213841414611b4357806364c618cc14611b1a5780636fea438d14611af1578063715018a614611a875780637881a07014611a6b57806379babd2c14611a425780637a0b07cf1461191f5780637ed2f783146117015780637edc648c146116d75780638456cb591461166257806388301911146113835780638da5cb5b1461134d5780638f561acc1461130857806394ea04d114610c76578063970cff9314610c215780639b7d1a2a14610b685780639f48ed2314610b4c5780639fb769dd14610b2e578063a2afc37314610a93578063a4cedc3914610a75578063a8602fea146109d6578063ad3cb1cc1461095c578063b036d59114610940578063bf370a611461090e578063c1419def146108f2578063c5f525111461083e578063cc7a69de14610820578063d257418314610803578063d33953ba146107dc578063d3631fa5146107be578063d9deb60b146107a0578063df33c1fd14610474578063e155d79e14610782578063e1a4521814610765578063e53b74c614610603578063eb76c37e146105e7578063efdf9949146105b2578063f2fde38b14610585578063f4f0009214610517578063f8ce2c7d146104f8578063fa86b90b14610479578063fc774c5c14610474578063fcc536ba1461036e578063fd626a18146103505763fe5c7ba8146102dd57600080fd5b3461034d57602036600319011261034d576102f6612694565b6102fe612ba5565b60ff8116601481101561033b5750601481101561032757600502600d01805461ff001916905580f35b634e487b7160e01b82526032600452602482fd5b63cba5131560e01b8352600452602482fd5b80fd5b503461034d578060031936011261034d576020604051620f42408152f35b503461034d578060031936011261034d5761028060405161038f8282612715565b825b82811061045f57505060405190810181811067ffffffffffffffff82111761044b57604052600a82825b6014821061042d576040518486825b601482106103d857610f0084f35b602060c082610421600194875160a0809180518452602081015160208501526040810151604085015260ff60608201511660608501526080810151151560808501520151910152565b019301910190916103ca565b6005602060019261043d8661298a565b8152019301910190916103bb565b634e487b7160e01b83526041600452602483fd5b60209061046a612959565b8184015201610391565b61276b565b503461034d578060031936011261034d5780815b601460ff8216106104a65760208260ff60405191168152f35b60148110156104e45760ff600d60058302015460081c166104cd575b60010160ff1661048d565b9060016104db60ff92612a40565b929150506104c2565b634e487b7160e01b83526032600452602483fd5b503461034d578060031936011261034d57602060405163017d78408152f35b503461034d57602036600319011261034d57604060a0916004358152606f60205220600180831b038154169060018101549061057760ff60028301541660ff600460038501549401541693604051958652602086015260408501906126a4565b606083015215156080820152f35b503461034d57602036600319011261034d576105af6105a261266e565b6105aa612ba5565b612ac9565b80f35b503461034d57602036600319011261034d5760043590600482101561034d5760206105dc83612a69565b60ff60405191168152f35b503461034d578060031936011261034d57602060405160038152f35b503461034d578060031936011261034d5780815b601460ff821610610727575060ff1661064861063282612a51565b916106406040519384612715565b808352612a51565b602082019190601f190136833782835b60ff811660148110156106df5760148210156106cb5760ff600d60058402015460081c1661068d575b5060010160ff16610658565b61069683612a40565b92845160ff821610156106b75760051b611fe0168401602001526001610681565b634e487b7160e01b87526032600452602487fd5b634e487b7160e01b86526032600452602486fd5b50505090604051928392602084019060208552518091526040840192915b81811061070b575050500390f35b825160ff168452859450602093840193909201916001016106fd565b60148110156104e45760ff600d60058302015460081c1661074e575b60010160ff16610617565b90600161075c60ff92612a40565b92915050610743565b503461034d578060031936011261034d5760206040516127108152f35b503461034d578060031936011261034d576020600854604051908152f35b503461034d578060031936011261034d576020606e54604051908152f35b503461034d578060031936011261034d576020600754604051908152f35b503461034d578060031936011261034d57546040516001600160a01b039091168152602090f35b503461034d578060031936011261034d5760206040516103e78152f35b503461034d578060031936011261034d576020607254604051908152f35b503461034d57602036600319011261034d5761085861266e565b610860612ba5565b6001600160a01b031680156108e35760a07fd8e98bff5ae8522235ef48daecff7488b367200bea03a4e8cb4bc98108c6a4929160735490806001600160601b03841b8316176073556040519160608352600e60608401526d39b630b127232a26b0b730b3b2b960911b6080840152600180851b031660208301526040820152a180f35b63d92e233d60e01b8252600482fd5b503461034d578060031936011261034d57602060405160068152f35b503461034d57602036600319011261034d5760043590600482101561034d576020610938836129d6565b604051908152f35b503461034d578060031936011261034d57602060405160638152f35b503461034d578060031936011261034d57604080519161097c8284612715565b60058352640352e302e360dc1b6020840152815192839160208352815191826020850152815b8381106109bf575050828201840152601f01601f19168101030190f35b6020828201810151888301880152879550016109a2565b503461034d57602036600319011261034d576109f061266e565b6109f8612ba5565b6001600160a01b031680156108e35760a07fd8e98bff5ae8522235ef48daecff7488b367200bea03a4e8cb4bc98108c6a4929160045490806001600160601b03841b83161760045560405191606083526008606084015267747265617375727960c01b6080840152600180851b031660208301526040820152a180f35b503461034d578060031936011261034d576020604051629896808152f35b503461034d57602036600319011261034d576080906001600160a01b03610ab861266e565b1690818152600960205260408120818052602052604081205491808252600960205260408220600183526020526040808320549282815260096020528181206002825260205281812054928152600960205281812060038252602052205491604051938452602084015260408301526060820152f35b503461034d578060031936011261034d576020600654604051908152f35b503461034d578060031936011261034d57602060405160328152f35b503461034d57602036600319011261034d57610b82612694565b90610b8b612959565b5060ff82166014811015610c0e57506014821015610bfa5760c0610bb460058402600a0161298a565b610bf8604051809260a0809180518452602081015160208501526040810151604085015260ff60608201511660608501526080810151151560808501520151910152565bf35b634e487b7160e01b81526032600452602490fd5b63cba5131560e01b825260045260249150fd5b503461034d57604036600319011261034d57610c3b61266e565b602435906004821015610c72576001600160a01b03168252600960209081526040909220610c699190612753565b54604051908152f35b8280fd5b503461034d57606036600319011261034d57610c90612694565b60243590604435918215159182840361112957610cab612b3f565b610cb3612b7b565b81156112f95760ff1692600384116112e55760048410156112d157610cd7846129d6565b90828202918083048414901517156112165715610ed257610cf781612787565b600154604051636eb1769f60e11b81523360048201523060248201526001600160a01b0390911690602081604481855afa908115610e7b578891610ea0575b50828110610e8657506040516370a0823160e01b8152336004820152602081602481855afa908115610e7b578891610e44575b50828110610e2a575090610d809130903390613192565b61012c81029080820461012c1490151715610e1657612710610da5910460075461287c565b6007555b3384526009602052610dbe8360408620612753565b610dc982825461287c565b9055604051928352602083015260408201527f279d78d3bc9e8f1f0c6275b03db1ea13aed8715f3f9ad832f728113b3568cc4160603392a260016000805160206132988339815191525580f35b634e487b7160e01b85526011600452602485fd5b606492889263db42144d60e01b8452600452602452604452fd5b90506020813d602011610e73575b81610e5f60209383612715565b81010312610e6e575138610d69565b600080fd5b3d9150610e52565b6040513d8a823e3d90fd5b6064928892630c95cf2760e11b8452600452602452604452fd5b90506020813d602011610eca575b81610ebb60209383612715565b81010312610e6e575138610d36565b3d9150610eae565b8454604051636eb1769f60e11b81523360048201523060248201526001600160a01b0390911690602081604481855afa90811561127a57879161129f575b5082811061128557506040516370a0823160e01b8152336004820152602081602481855afa90811561127a578791611244575b5082811061122a575081610f5a9130903390613192565b61012c810281810461012c14821517156112165761271090048082039180831161120257610f8a8260075461287c565b6007556073546001600160a01b03169182151591826111f7575b5050610fb2575b5050610da9565b8554604051636eb1769f60e11b81523060048201526001600160a01b03838116602483015290911690602081604481855afa8015610e7b57849089906111bd575b610ffd925061287c565b60405163095ea7b360e01b60208083019182526001600160a01b038616602484015260448084019490945292825290929190899061103c606486612715565b84519082855af188513d826111a1575b50501561115c575b50506073548691506001600160a01b0316803b1561115857819060246040518094819363bc1ca3e960e01b83528760048401525af1801561113957611144575b5060735460408051636c14397f60e11b815291829060049082908a906001600160a01b03165af18015611139576110f9575b5060207f6a35e7a759100d73c502119478cb5ae1ca768bbe0205d011ed3b0f76c59207a891604051908152a13880610fab565b6040813d604011611131575b8161111260409383612715565b8101031261112d57518015150361112957386110c6565b8480fd5b8580fd5b3d9150611105565b6040513d88823e3d90fd5b8561115191969296612715565b9338611094565b5080fd5b611194611199936040519063095ea7b360e01b602083015260248201528960448201526044815261118e606482612715565b826130ad565b6130ad565b388080611054565b9091506111b55750803b15155b388061104c565b6001146111ae565b50506020813d6020116111ef575b816111d860209383612715565b810103126111eb5783610ffd9151610ff3565b8780fd5b3d91506111cb565b141590503880610fa4565b634e487b7160e01b87526011600452602487fd5b634e487b7160e01b86526011600452602486fd5b606492879263db42144d60e01b8452600452602452604452fd5b90506020813d602011611272575b8161125f60209383612715565b8101031261126e575138610f43565b8680fd5b3d9150611252565b6040513d89823e3d90fd5b6064928792630c95cf2760e11b8452600452602452604452fd5b90506020813d6020116112c9575b816112ba60209383612715565b8101031261126e575138610f10565b3d91506112ad565b634e487b7160e01b85526021600452602485fd5b63fab9b83760e01b85526004849052602485fd5b63f4f5b73360e01b8552600485fd5b503461034d57604036600319011261034d576002546001600160a01b0316330361133a576105af6024356004356128dc565b635a1c6a5960e01b815233600452602490fd5b503461034d578060031936011261034d57600080516020613238833981519152546040516001600160a01b039091168152602090f35b503461034d5761010036600319011261034d5761139e61266e565b6024356001600160a01b03811690819003610c72576044356001600160a01b0381169081900361165e576064356001600160a01b0381169290839003611129576084356001600160a01b0381169081900361112d5760a4356001600160a01b0381169081900361126e5760c4356001600160a01b03811692908390036111eb5760e435956000805160206132b8833981519152549760ff8960401c16159867ffffffffffffffff811680159081611656575b600114908161164c575b159081611643575b506116345767ffffffffffffffff1981166001176000805160206132b88339815191525589611607575b506001600160a01b038116156115f85785156115f85786156115f85781156115f85782156115f85783156115f85784156115f85787156115ea576114da906114d2613108565b6105aa613108565b6114e2613108565b6114ea613108565b6114f2613108565b60016000805160206132988339815191525561150c613108565b6001600160601b0360a01b8954161788556001600160601b0360a01b60015416176001556001600160601b0360a01b60025416176002556001600160601b0360a01b60035416176003556001600160601b0360a01b60045416176004556001600160601b0360a01b60055416176005556072556001606e5560016071556115905780f35b68ff0000000000000000196000805160206132b883398151915254166000805160206132b8833981519152557fc7f505b2f371ae2175ee4913f4499e1f2633a7b5936321eed1cdaeb6115181d2602060405160018152a180f35b62bfc92160e01b8a5260048afd5b63d92e233d60e01b8a5260048afd5b68ffffffffffffffffff191668010000000000000001176000805160206132b8833981519152553861148c565b63f92ee8a960e01b8b5260048bfd5b90501538611462565b303b15915061145a565b8b9150611450565b8380fd5b503461034d578060031936011261034d5761167b612ba5565b611683612b7b565b600160ff19600080516020613278833981519152541617600080516020613278833981519152557f62e78cea01bee320cd4e420270b5ea74000d11b0c9f74754ebdbfc544b05a2586020604051338152a180f35b503461034d57602036600319011261034d5760406020916004358152607083522054604051908152f35b503461034d57602036600319011261034d5761171b612694565b611723612ba5565b60ff811690601482101561190b5760148110156104e457600502600d015460081c60ff166118f95781606e54916117598361286d565b606e556071546117688161286d565b60715560405160208101916001600160601b03193060601b16835285603483015260ff60f81b60548301524260558301526075820152607581526117ad609582612715565b51902092602060018060a01b03600254166024604051809681936371c8a23960e11b83528960048401525af19283156118ee5785936118ba575b5060048210156112d157604051916117fe836126c7565b308352602083019182526118166040840191826127e4565b426060840190815260808401878152858852606f60205260408820945185546001600160a01b0319166001600160a01b0391909116178555925160018501559051600284019060048110156118a6579161189794939160049360ff8019835416911617905551600384015551151591019060ff801983541691151516179055565b82526070602052604082205580f35b634e487b7160e01b88526021600452602488fd5b9092506020813d6020116118e6575b816118d660209383612715565b81010312611129575191386117e7565b3d91506118c9565b6040513d87823e3d90fd5b632f8ecec960e21b8252600452602490fd5b63cba5131560e01b83526004829052602483fd5b503461034d57606036600319011261034d57611939612694565b90611942612ba5565b60ff8216916014831015611a2f57601481101561032757600581029060ff600d83015460081c16611a1b57907f156f6fef57e34329718d6efbd41f31a81afd51d967d24f97b94eb576dca20cfe91611a15606e54916119a08361286d565b606e556103e860243506936119ed6103e86044350691604051906119c3826126f9565b868252876020830152836040830152896060830152600160808301524260a0830152600a01612889565b60405194859485929360ff919594606093608086019786526020860152604085015216910152565b0390a180f35b632f8ecec960e21b83526004849052602483fd5b5060249163cba5131560e01b8252600452fd5b503461034d578060031936011261034d576001546040516001600160a01b039091168152602090f35b503461034d578060031936011261034d57602060405160028152f35b503461034d578060031936011261034d57611aa0612ba5565b60008051602061323883398151915280546001600160a01b0319811690915581906001600160a01b03167f8be0079c531659141344cd1fd0a4f28419497f9722a3daafe3b4186f6b6457e08280a380f35b503461034d578060031936011261034d576073546040516001600160a01b039091168152602090f35b503461034d578060031936011261034d576005546040516001600160a01b039091168152602090f35b503461034d578060031936011261034d576002546040516001600160a01b039091168152602090f35b503461034d57602036600319011261034d57600435611b89612ba5565b8015611bc95760407fc401b47db6ec4c8671a2f54cf3a5f3f7069c3b71b6c6ad9ed90f2c8cc9920b6a91607254908060725582519182526020820152a180f35b62bfc92160e01b8252600482fd5b503461034d578060031936011261034d57602060ff60008051602061327883398151915254166040519015158152f35b503461034d578060031936011261034d57602060405161012c8152f35b503461034d578060031936011261034d577f00000000000000000000000000000000000000000000000000000000000000006001600160a01b03163003611c7d5760206040516000805160206132588339815191528152f35b63703e46dd60e11b8152600490fd5b50604036600319011261034d57611ca161266e565b6024359067ffffffffffffffff8211610c725736602383011215610c725781600401359083611ccf83612737565b93611cdd6040519586612715565b83855260208501933660248284010111610c7257806024602093018637850101526001600160a01b037f000000000000000000000000000000000000000000000000000000000000000016308114908115611eb6575b50611ea757611d40612ba5565b6040516352d1902d60e01b81526001600160a01b0382169390602081600481885afa869181611e73575b50611d8357634c9c8ce360e01b86526004859052602486fd5b9384600080516020613258833981519152879603611e615750823b15611e4f5760008051602061325883398151915280546001600160a01b031916821790558491907fbc7cd75a20ee27fd9adebab32041f755214dbc6bffa90cc0225b39da2e5c2d3b8380a2805115611e3457611e289382915190845af43d15611e2c573d91611e0c83612737565b92611e1a6040519485612715565b83523d85602085013e6131d6565b5080f35b6060916131d6565b5050505034611e405780f35b63b398979f60e01b8152600490fd5b634c9c8ce360e01b8552600452602484fd5b632a87526960e21b8652600452602485fd5b9091506020813d602011611e9f575b81611e8f60209383612715565b8101031261126e57519038611d6a565b3d9150611e82565b63703e46dd60e11b8452600484fd5b600080516020613258833981519152546001600160a01b03161415905038611d33565b503461034d57602036600319011261034d57611ef361266e565b611efb612ba5565b6001600160a01b031680156108e35760a07fd8e98bff5ae8522235ef48daecff7488b367200bea03a4e8cb4bc98108c6a4929160055490806001600160601b03841b8316176005556040519160608352600a6060840152696e6674526576656e756560b01b6080840152600180851b031660208301526040820152a180f35b503461034d578060031936011261034d57611f93612ba5565b611f9b612b3f565b600754801561203d576007829055815460045460405163a9059cbb60e01b60208201526001600160a01b039182166024820152604480820185905281527fc0819c13be868895eb93e40eaceb96de976442fa1d404e5c55f14bb65a8c489a939261200b9216611194606483612715565b600454604080516001600160a01b0390921682526020820192909252a160016000805160206132988339815191525580f35b630d00db4d60e31b8252600482fd5b503461034d578060031936011261034d576004546040516001600160a01b039091168152602090f35b503461034d578060031936011261034d5760206109386127f0565b503461034d578060031936011261034d576120a9612ba5565b6000805160206132788339815191525460ff8116156121035760ff1916600080516020613278833981519152557f5db9ee0a495bf2e6ff9c91a7834c1ba4fdd244a5e8aa4e537bd38aeae4b073aa6020604051338152a180f35b638dfc202b60e01b8252600482fd5b503461034d578060031936011261034d5760206040516125e48152f35b503461034d578060031936011261034d57602060405160128152f35b503461034d578060031936011261034d5760206040516302f969e08152f35b503461034d57602036600319011261034d5760043560148110156111585760059060c092500280600a01549060ff600b82015491600c810154600e600d8301549201549360405195865260208601526040850152818116606085015260081c161515608083015260a0820152f35b503461034d578060031936011261034d576003546040516001600160a01b039091168152602090f35b503461034d57602036600319011261034d5760408160a09260808351612226816126c7565b828152826020820152828582015282606082015201526004358152606f6020522060405190612254826126c7565b600180841b038154168252600181015490602083019182526122c360ff6002830154166122856040860191826127e4565b60ff6004600385015494606088019586520154169360808601941515855260405195600180891b0390511686525160208601525160408501906126a4565b5160608301525115156080820152f35b503461034d57604036600319011261034d576122ed612694565b906122f6612684565b916122ff612b3f565b612307612b7b565b60ff8116601481101561033b575060ff831690600382116125bb5760148110156104e45760050260ff600d82600a0192015460081c16156125a85760048210156125945733835260096020526123608260408520612753565b541561257857338352600960205261237b8260408520612753565b9384546000198101908111610e165784955581549060715461239c8161286d565b6071556040519160208301936001600160601b03193360601b168552603484015260ff60f81b9060f81b1660548301524260558301526075820152607581526123e6609582612715565b5190206002546040516371c8a23960e11b8152600481018390529460209186916024918391906001600160a01b03165af19384156118ee578594612544575b50815460405190612435826126c7565b338252602082019081526040820161244d86826127e4565b426060840190815260808401898152888a52606f60205260408a20945185546001600160a01b0319166001600160a01b0391909116178555925160018501559051600284019060048110156125305789936124d5936040969360049360209d5060ff8019835416911617905551600384015551151591019060ff801983541691151516179055565b8581526070875220555490604051918252838201528160408201527f5e0c015d137a94a9e864e17092fb126241c929614b46c3bc32163b46de9bf05b60603392a2600160008051602061329883398151915255604051908152f35b634e487b7160e01b8a52602160045260248afd5b9093506020813d602011612570575b8161256060209383612715565b8101031261112957519238612425565b3d9150612553565b60648383639f27773f60e01b8252600452600160245280604452fd5b634e487b7160e01b83526021600452602483fd5b546332c3e47160e21b8352600452602482fd5b63fab9b83760e01b83526004829052602483fd5b503461034d57604036600319011261034d576125e961266e565b9060ff6125f4612684565b16916003831161263c576001600160a01b03168152600960205260408120906004831015612628576020610c698484612753565b634e487b7160e01b81526021600452602490fd5b5060249163fab9b83760e01b8252600452fd5b503461034d57602036600319011261034d576020610938600435612787565b600435906001600160a01b0382168203610e6e57565b6024359060ff82168203610e6e57565b6004359060ff82168203610e6e57565b9060048210156126b15752565b634e487b7160e01b600052602160045260246000fd5b60a0810190811067ffffffffffffffff8211176126e357604052565b634e487b7160e01b600052604160045260246000fd5b60c0810190811067ffffffffffffffff8211176126e357604052565b90601f8019910116810190811067ffffffffffffffff8211176126e357604052565b67ffffffffffffffff81116126e357601f01601f191660200190565b9060048110156126b157600052602052604060002090565b34610e6e576000366003190112610e6e57602060405160148152f35b68056bc75e2d6310000081029080820468056bc75e2d6310000014901517156127ce576072549081156127b8570490565b634e487b7160e01b600052601260045260246000fd5b634e487b7160e01b600052601160045260246000fd5b60048210156126b15752565b6073546001600160a01b0316801561286757602060049160405192838092630579ef8b60e51b82525afa90811561285b5760009161282c575090565b90506020813d602011612853575b8161284760209383612715565b81010312610e6e575190565b3d915061283a565b6040513d6000823e3d90fd5b50600090565b60001981146127ce5760010190565b919082018092116127ce57565b8151815560208201516001820155604082015160028201556060820151600382018054608085015161ff0090151560081b1660ff90931661ffff199091161791909117905560a090910151600490910155565b9081600052606f60205260406000209160018060a01b0383541690811561294557600484019081549060ff8216612931575060ff1916600117905530146129285761292691612cbd565b565b61292691612bdb565b633f8cbced60e21b60005260045260246000fd5b63098354e960e41b60005260045260246000fd5b60405190612966826126f9565b600060a0838281528260208201528260408201528260608201528260808201520152565b90604051612997816126f9565b60a06004829480548452600181015460208501526002810154604085015260ff6003820154818116606087015260081c16151560808501520154910152565b60048110156126b1578015612a3857600060018214612a2f575060028114612a2657600060038214612a1c5760ff92505063fab9b83760e01b6000521660045260246000fd5b50506302f969e090565b5063017d784090565b50506298968090565b50620f424090565b60ff1660ff81146127ce5760010190565b67ffffffffffffffff81116126e35760051b60200190565b60048110156126b1578015612ac357600060018214612abc575060028114612ab657600060038214612aaf5760ff92505063fab9b83760e01b6000521660045260246000fd5b5050606390565b50603290565b5050601490565b50600290565b6001600160a01b03168015612b295760008051602061323883398151915280546001600160a01b0319811683179091556001600160a01b03167f8be0079c531659141344cd1fd0a4f28419497f9722a3daafe3b4186f6b6457e0600080a3565b631e4fbdf760e01b600052600060045260246000fd5b60026000805160206132988339815191525414612b6a57600260008051602061329883398151915255565b633ee5aeb560e01b60005260046000fd5b60ff6000805160206132788339815191525416612b9457565b63d93c066560e01b60005260046000fd5b600080516020613238833981519152546001600160a01b03163303612bc657565b63118cdaa760e01b6000523360045260246000fd5b9060ff6002830154169160048310156126b1576014831015612cb8576000600584029360ff600d86015460081c16612cb1577f156f6fef57e34329718d6efbd41f31a81afd51d967d24f97b94eb576dca20cfe94612c8283612cac945060016103e88089069860801c0696019283549160405192612c58846126f9565b8352886020840152876040840152806060840152600160808401524260a084015250600a01612889565b549260405194859485929360ff919594606093608086019786526020860152604085015216910152565b0390a1565b5050505050565b505050565b612cca6001820154613136565b929015801561308f575b612cb857601483101561307957600583029182600a019160ff612cfc81600285015416612a69565b16606482061015612f935750549054600d92909201805461ff00191690556073546001600160a01b03918216916000911680612efb575b5060407fe1ef7825c332c25296359d37af815442cbd1fd6d620d8271b4180bd68f834bb0918151908582526020820152a26103e881018091116127ce57600090607154612d7f8161286d565b60715560405160208101916001600160601b03193060601b168352836034830152607f60f91b6054830152426055830152607582015260758152612dc4609582612715565b51902092602060018060a01b03600254166024604051809681936371c8a23960e11b83528960048401525af192831561285b57600093612ec6575b5060ff169060048210156126b15760405190612e1a826126c7565b30825260208201908152612e326040830193846127e4565b4260608301908152600060808401818152868252606f6020526040909120935184546001600160a01b0319166001600160a01b0391909116178455915160018401559251600283019390919060048310156126b157612eb69460049360ff8019835416911617905551600384015551151591019060ff801983541691151516179055565b6000526070602052604060002055565b90926020823d602011612ef3575b81612ee160209383612715565b8101031261034d5750519160ff612dff565b3d9150612ed4565b602082916024604051809481936378b5aa8f60e01b83528860048401525af1918215612f87578092612f31575b50506040612d33565b9091506020823d602011612f7f575b81612f4d60209383612715565b8101031261034d57505160407fe1ef7825c332c25296359d37af815442cbd1fd6d620d8271b4180bd68f834bb0612f28565b3d9150612f40565b604051903d90823e3d90fd5b91935060018060a01b0390541691600d81019260ff612fb481865416612a40565b1660ff1985541617845560ff845416806003039160ff83116127ce577fde2c7625951ef209e3b14dc5de7c713aaf12a680817df0ba922f064834ed47e4604060039460ff8a54918351928352166020820152a21015613014575b50505050565b7f991f141b1f67192a98969cd4005f41d17ef23a517c6975606af1c6f48a0ae37d93606093600c926103e8808660081c069560101c06938186600b87940155015560ff198154169055549160405192835260208301526040820152a13880808061300e565b634e487b7160e01b600052603260045260246000fd5b5060148310156130795760ff600d60058502015460081c1615612cd4565b906000602091828151910182855af11561285b576000513d6130ff57506001600160a01b0381163b155b6130de5750565b635274afe760e01b60009081526001600160a01b0391909116600452602490fd5b600114156130d7565b60ff6000805160206132b88339815191525460401c161561312557565b631afcd79f60e31b60005260046000fd5b9060005b601460ff82161061314e5750600091508190565b601481101561307957600581028381600a0154149081613180575b506131795760010160ff1661313a565b6001925090565b60ff9150600d015460081c1638613169565b6040516323b872dd60e01b60208201526001600160a01b03928316602482015292909116604483015260648083019390935291815261292691611194608483612715565b906131fc57508051156131eb57602081519101fd5b63d6bda27560e01b60005260046000fd5b8151158061322e575b61320d575090565b639996b31560e01b60009081526001600160a01b0391909116600452602490fd5b50803b1561320556fe9016d09d72d40fdae2fd8ceac6b6234c7706214fd39c1cd1e609a0528c199300360894a13ba1a3210667c828492db98dca3e2076cc3735a920a3ca505d382bbccd5ed15c6e187e77e9aee88184c21f4f2182ab5827cb3b7e07fbedcd63f033009b779b17422d0df92223018b32b4d1fa46e071723d6817e2486d003becc55f00f0c57e16840df040f15088dc2f81fe391c3923bec73e23a9662efc9c229c6a00a2646970667358221220f83c684129d061f1e740ab23d300d9b3d0e166f8d826bc0d7be841c59738e25864736f6c634300081a0033","opcodes":"PUSH1 0xA0 DUP1 PUSH1 0x40 MSTORE CALLVALUE PUSH2 0xEA JUMPI ADDRESS PUSH1 0x80 MSTORE PUSH32 0xF0C57E16840DF040F15088DC2F81FE391C3923BEC73E23A9662EFC9C229C6A00 SLOAD PUSH1 0xFF DUP2 PUSH1 0x40 SHR AND PUSH2 0xD9 JUMPI PUSH1 0x2 PUSH1 0x1 PUSH1 0x40 SHL SUB NOT PUSH1 0x1 PUSH1 0x1 PUSH1 0x40 SHL SUB DUP3 AND ADD PUSH2 0x73 JUMPI JUMPDEST PUSH1 0x40 MLOAD PUSH2 0x330D SWAP1 DUP2 PUSH2 0xF0 DUP3 CODECOPY PUSH1 0x80 MLOAD DUP2 DUP2 DUP2 PUSH2 0x1C37 ADD MSTORE PUSH2 0x1D08 ADD MSTORE RETURN JUMPDEST PUSH1 0x1 PUSH1 0x1 PUSH1 0x40 SHL SUB NOT AND PUSH1 0x1 PUSH1 0x1 PUSH1 0x40 SHL SUB SWAP1 DUP2 OR PUSH32 0xF0C57E16840DF040F15088DC2F81FE391C3923BEC73E23A9662EFC9C229C6A00 SSTORE DUP2 MSTORE PUSH32 0xC7F505B2F371AE2175EE4913F4499E1F2633A7B5936321EED1CDAEB6115181D2 SWAP1 PUSH1 0x20 SWAP1 LOG1 CODESIZE DUP1 PUSH2 0x54 JUMP JUMPDEST PUSH4 0xF92EE8A9 PUSH1 0xE0 SHL PUSH1 0x0 MSTORE PUSH1 0x4 PUSH1 0x0 REVERT JUMPDEST PUSH1 0x0 DUP1 REVERT INVALID PUSH1 0x80 PUSH1 0x40 MSTORE PUSH1 0x4 CALLDATASIZE LT ISZERO PUSH2 0x12 JUMPI PUSH1 0x0 DUP1 REVERT JUMPDEST PUSH1 0x0 DUP1 CALLDATALOAD PUSH1 0xE0 SHR DUP1 PUSH4 0x64C973C EQ PUSH2 0x264F JUMPI DUP1 PUSH4 0x771197F EQ PUSH2 0x25CF JUMPI DUP1 PUSH4 0x11648422 EQ PUSH2 0x22D3 JUMPI DUP1 PUSH4 0x23B5CB5D EQ PUSH2 0x2201 JUMPI DUP1 PUSH4 0x25C61FCD EQ PUSH2 0x21D8 JUMPI DUP1 PUSH4 0x2795A90E EQ PUSH2 0x216A JUMPI DUP1 PUSH4 0x2E9ED2E4 EQ PUSH2 0x214B JUMPI DUP1 PUSH4 0x38EFA831 EQ PUSH2 0x212F JUMPI DUP1 PUSH4 0x3BD81715 EQ PUSH2 0x2112 JUMPI DUP1 PUSH4 0x3F4BA83A EQ PUSH2 0x2090 JUMPI DUP1 PUSH4 0x4129849F EQ PUSH2 0x2075 JUMPI DUP1 PUSH4 0x4626402B EQ PUSH2 0x204C JUMPI DUP1 PUSH4 0x476343EE EQ PUSH2 0x1F7A JUMPI DUP1 PUSH4 0x4C4E2A46 EQ PUSH2 0x1ED9 JUMPI DUP1 PUSH4 0x4F1EF286 EQ PUSH2 0x1C8C JUMPI DUP1 PUSH4 0x52D1902D EQ PUSH2 0x1C24 JUMPI DUP1 PUSH4 0x539AA77F EQ PUSH2 0x1C07 JUMPI DUP1 PUSH4 0x5C975ABB EQ PUSH2 0x1BD7 JUMPI DUP1 PUSH4 0x607C45D1 EQ PUSH2 0x1B6C JUMPI DUP1 PUSH4 0x62138414 EQ PUSH2 0x1B43 JUMPI DUP1 PUSH4 0x64C618CC EQ PUSH2 0x1B1A JUMPI DUP1 PUSH4 0x6FEA438D EQ PUSH2 0x1AF1 JUMPI DUP1 PUSH4 0x715018A6 EQ PUSH2 0x1A87 JUMPI DUP1 PUSH4 0x7881A070 EQ PUSH2 0x1A6B JUMPI DUP1 PUSH4 0x79BABD2C EQ PUSH2 0x1A42 JUMPI DUP1 PUSH4 0x7A0B07CF EQ PUSH2 0x191F JUMPI DUP1 PUSH4 0x7ED2F783 EQ PUSH2 0x1701 JUMPI DUP1 PUSH4 0x7EDC648C EQ PUSH2 0x16D7 JUMPI DUP1 PUSH4 0x8456CB59 EQ PUSH2 0x1662 JUMPI DUP1 PUSH4 0x88301911 EQ PUSH2 0x1383 JUMPI DUP1 PUSH4 0x8DA5CB5B EQ PUSH2 0x134D JUMPI DUP1 PUSH4 0x8F561ACC EQ PUSH2 0x1308 JUMPI DUP1 PUSH4 0x94EA04D1 EQ PUSH2 0xC76 JUMPI DUP1 PUSH4 0x970CFF93 EQ PUSH2 0xC21 JUMPI DUP1 PUSH4 0x9B7D1A2A EQ PUSH2 0xB68 JUMPI DUP1 PUSH4 0x9F48ED23 EQ PUSH2 0xB4C JUMPI DUP1 PUSH4 0x9FB769DD EQ PUSH2 0xB2E JUMPI DUP1 PUSH4 0xA2AFC373 EQ PUSH2 0xA93 JUMPI DUP1 PUSH4 0xA4CEDC39 EQ PUSH2 0xA75 JUMPI DUP1 PUSH4 0xA8602FEA EQ PUSH2 0x9D6 JUMPI DUP1 PUSH4 0xAD3CB1CC EQ PUSH2 0x95C JUMPI DUP1 PUSH4 0xB036D591 EQ PUSH2 0x940 JUMPI DUP1 PUSH4 0xBF370A61 EQ PUSH2 0x90E JUMPI DUP1 PUSH4 0xC1419DEF EQ PUSH2 0x8F2 JUMPI DUP1 PUSH4 0xC5F52511 EQ PUSH2 0x83E JUMPI DUP1 PUSH4 0xCC7A69DE EQ PUSH2 0x820 JUMPI DUP1 PUSH4 0xD2574183 EQ PUSH2 0x803 JUMPI DUP1 PUSH4 0xD33953BA EQ PUSH2 0x7DC JUMPI DUP1 PUSH4 0xD3631FA5 EQ PUSH2 0x7BE JUMPI DUP1 PUSH4 0xD9DEB60B EQ PUSH2 0x7A0 JUMPI DUP1 PUSH4 0xDF33C1FD EQ PUSH2 0x474 JUMPI DUP1 PUSH4 0xE155D79E EQ PUSH2 0x782 JUMPI DUP1 PUSH4 0xE1A45218 EQ PUSH2 0x765 JUMPI DUP1 PUSH4 0xE53B74C6 EQ PUSH2 0x603 JUMPI DUP1 PUSH4 0xEB76C37E EQ PUSH2 0x5E7 JUMPI DUP1 PUSH4 0xEFDF9949 EQ PUSH2 0x5B2 JUMPI DUP1 PUSH4 0xF2FDE38B EQ PUSH2 0x585 JUMPI DUP1 PUSH4 0xF4F00092 EQ PUSH2 0x517 JUMPI DUP1 PUSH4 0xF8CE2C7D EQ PUSH2 0x4F8 JUMPI DUP1 PUSH4 0xFA86B90B EQ PUSH2 0x479 JUMPI DUP1 PUSH4 0xFC774C5C EQ PUSH2 0x474 JUMPI DUP1 PUSH4 0xFCC536BA EQ PUSH2 0x36E JUMPI DUP1 PUSH4 0xFD626A18 EQ PUSH2 0x350 JUMPI PUSH4 0xFE5C7BA8 EQ PUSH2 0x2DD JUMPI PUSH1 0x0 DUP1 REVERT JUMPDEST CALLVALUE PUSH2 0x34D JUMPI PUSH1 0x20 CALLDATASIZE PUSH1 0x3 NOT ADD SLT PUSH2 0x34D JUMPI PUSH2 0x2F6 PUSH2 0x2694 JUMP JUMPDEST PUSH2 0x2FE PUSH2 0x2BA5 JUMP JUMPDEST PUSH1 0xFF DUP2 AND PUSH1 0x14 DUP2 LT ISZERO PUSH2 0x33B JUMPI POP PUSH1 0x14 DUP2 LT ISZERO PUSH2 0x327 JUMPI PUSH1 0x5 MUL PUSH1 0xD ADD DUP1 SLOAD PUSH2 0xFF00 NOT AND SWAP1 SSTORE DUP1 RETURN JUMPDEST PUSH4 0x4E487B71 PUSH1 0xE0 SHL DUP3 MSTORE PUSH1 0x32 PUSH1 0x4 MSTORE PUSH1 0x24 DUP3 REVERT JUMPDEST PUSH4 0xCBA51315 PUSH1 0xE0 SHL DUP4 MSTORE PUSH1 0x4 MSTORE PUSH1 0x24 DUP3 REVERT JUMPDEST DUP1 REVERT JUMPDEST POP CALLVALUE PUSH2 0x34D JUMPI DUP1 PUSH1 0x3 NOT CALLDATASIZE ADD SLT PUSH2 0x34D JUMPI PUSH1 0x20 PUSH1 0x40 MLOAD PUSH3 0xF4240 DUP2 MSTORE RETURN JUMPDEST POP CALLVALUE PUSH2 0x34D JUMPI DUP1 PUSH1 0x3 NOT CALLDATASIZE ADD SLT PUSH2 0x34D JUMPI PUSH2 0x280 PUSH1 0x40 MLOAD PUSH2 0x38F DUP3 DUP3 PUSH2 0x2715 JUMP JUMPDEST DUP3 JUMPDEST DUP3 DUP2 LT PUSH2 0x45F JUMPI POP POP PUSH1 0x40 MLOAD SWAP1 DUP2 ADD DUP2 DUP2 LT PUSH8 0xFFFFFFFFFFFFFFFF DUP3 GT OR PUSH2 0x44B JUMPI PUSH1 0x40 MSTORE PUSH1 0xA DUP3 DUP3 JUMPDEST PUSH1 0x14 DUP3 LT PUSH2 0x42D JUMPI PUSH1 0x40 MLOAD DUP5 DUP7 DUP3 JUMPDEST PUSH1 0x14 DUP3 LT PUSH2 0x3D8 JUMPI PUSH2 0xF00 DUP5 RETURN JUMPDEST PUSH1 0x20 PUSH1 0xC0 DUP3 PUSH2 0x421 PUSH1 0x1 SWAP5 DUP8 MLOAD PUSH1 0xA0 DUP1 SWAP2 DUP1 MLOAD DUP5 MSTORE PUSH1 0x20 DUP2 ADD MLOAD PUSH1 0x20 DUP6 ADD MSTORE PUSH1 0x40 DUP2 ADD MLOAD PUSH1 0x40 DUP6 ADD MSTORE PUSH1 0xFF PUSH1 0x60 DUP3 ADD MLOAD AND PUSH1 0x60 DUP6 ADD MSTORE PUSH1 0x80 DUP2 ADD MLOAD ISZERO ISZERO PUSH1 0x80 DUP6 ADD MSTORE ADD MLOAD SWAP2 ADD MSTORE JUMP JUMPDEST ADD SWAP4 ADD SWAP2 ADD SWAP1 SWAP2 PUSH2 0x3CA JUMP JUMPDEST PUSH1 0x5 PUSH1 0x20 PUSH1 0x1 SWAP3 PUSH2 0x43D DUP7 PUSH2 0x298A JUMP JUMPDEST DUP2 MSTORE ADD SWAP4 ADD SWAP2 ADD SWAP1 SWAP2 PUSH2 0x3BB JUMP JUMPDEST PUSH4 0x4E487B71 PUSH1 0xE0 SHL DUP4 MSTORE PUSH1 0x41 PUSH1 0x4 MSTORE PUSH1 0x24 DUP4 REVERT JUMPDEST PUSH1 0x20 SWAP1 PUSH2 0x46A PUSH2 0x2959 JUMP JUMPDEST DUP2 DUP5 ADD MSTORE ADD PUSH2 0x391 JUMP JUMPDEST PUSH2 0x276B JUMP JUMPDEST POP CALLVALUE PUSH2 0x34D JUMPI DUP1 PUSH1 0x3 NOT CALLDATASIZE ADD SLT PUSH2 0x34D JUMPI DUP1 DUP2 JUMPDEST PUSH1 0x14 PUSH1 0xFF DUP3 AND LT PUSH2 0x4A6 JUMPI PUSH1 0x20 DUP3 PUSH1 0xFF PUSH1 0x40 MLOAD SWAP2 AND DUP2 MSTORE RETURN JUMPDEST PUSH1 0x14 DUP2 LT ISZERO PUSH2 0x4E4 JUMPI PUSH1 0xFF PUSH1 0xD PUSH1 0x5 DUP4 MUL ADD SLOAD PUSH1 0x8 SHR AND PUSH2 0x4CD JUMPI JUMPDEST PUSH1 0x1 ADD PUSH1 0xFF AND PUSH2 0x48D JUMP JUMPDEST SWAP1 PUSH1 0x1 PUSH2 0x4DB PUSH1 0xFF SWAP3 PUSH2 0x2A40 JUMP JUMPDEST SWAP3 SWAP2 POP POP PUSH2 0x4C2 JUMP JUMPDEST PUSH4 0x4E487B71 PUSH1 0xE0 SHL DUP4 MSTORE PUSH1 0x32 PUSH1 0x4 MSTORE PUSH1 0x24 DUP4 REVERT JUMPDEST POP CALLVALUE PUSH2 0x34D JUMPI DUP1 PUSH1 0x3 NOT CALLDATASIZE ADD SLT PUSH2 0x34D JUMPI PUSH1 0x20 PUSH1 0x40 MLOAD PUSH4 0x17D7840 DUP2 MSTORE RETURN JUMPDEST POP CALLVALUE PUSH2 0x34D JUMPI PUSH1 0x20 CALLDATASIZE PUSH1 0x3 NOT ADD SLT PUSH2 0x34D JUMPI PUSH1 0x40 PUSH1 0xA0 SWAP2 PUSH1 0x4 CALLDATALOAD DUP2 MSTORE PUSH1 0x6F PUSH1 0x20 MSTORE KECCAK256 PUSH1 0x1 DUP1 DUP4 SHL SUB DUP2 SLOAD AND SWAP1 PUSH1 0x1 DUP2 ADD SLOAD SWAP1 PUSH2 0x577 PUSH1 0xFF PUSH1 0x2 DUP4 ADD SLOAD AND PUSH1 0xFF PUSH1 0x4 PUSH1 0x3 DUP6 ADD SLOAD SWAP5 ADD SLOAD AND SWAP4 PUSH1 0x40 MLOAD SWAP6 DUP7 MSTORE PUSH1 0x20 DUP7 ADD MSTORE PUSH1 0x40 DUP6 ADD SWAP1 PUSH2 0x26A4 JUMP JUMPDEST PUSH1 0x60 DUP4 ADD MSTORE ISZERO ISZERO PUSH1 0x80 DUP3 ADD MSTORE RETURN JUMPDEST POP CALLVALUE PUSH2 0x34D JUMPI PUSH1 0x20 CALLDATASIZE PUSH1 0x3 NOT ADD SLT PUSH2 0x34D JUMPI PUSH2 0x5AF PUSH2 0x5A2 PUSH2 0x266E JUMP JUMPDEST PUSH2 0x5AA PUSH2 0x2BA5 JUMP JUMPDEST PUSH2 0x2AC9 JUMP JUMPDEST DUP1 RETURN JUMPDEST POP CALLVALUE PUSH2 0x34D JUMPI PUSH1 0x20 CALLDATASIZE PUSH1 0x3 NOT ADD SLT PUSH2 0x34D JUMPI PUSH1 0x4 CALLDATALOAD SWAP1 PUSH1 0x4 DUP3 LT ISZERO PUSH2 0x34D JUMPI PUSH1 0x20 PUSH2 0x5DC DUP4 PUSH2 0x2A69 JUMP JUMPDEST PUSH1 0xFF PUSH1 0x40 MLOAD SWAP2 AND DUP2 MSTORE RETURN JUMPDEST POP CALLVALUE PUSH2 0x34D JUMPI DUP1 PUSH1 0x3 NOT CALLDATASIZE ADD SLT PUSH2 0x34D JUMPI PUSH1 0x20 PUSH1 0x40 MLOAD PUSH1 0x3 DUP2 MSTORE RETURN JUMPDEST POP CALLVALUE PUSH2 0x34D JUMPI DUP1 PUSH1 0x3 NOT CALLDATASIZE ADD SLT PUSH2 0x34D JUMPI DUP1 DUP2 JUMPDEST PUSH1 0x14 PUSH1 0xFF DUP3 AND LT PUSH2 0x727 JUMPI POP PUSH1 0xFF AND PUSH2 0x648 PUSH2 0x632 DUP3 PUSH2 0x2A51 JUMP JUMPDEST SWAP2 PUSH2 0x640 PUSH1 0x40 MLOAD SWAP4 DUP5 PUSH2 0x2715 JUMP JUMPDEST DUP1 DUP4 MSTORE PUSH2 0x2A51 JUMP JUMPDEST PUSH1 0x20 DUP3 ADD SWAP2 SWAP1 PUSH1 0x1F NOT ADD CALLDATASIZE DUP4 CALLDATACOPY DUP3 DUP4 JUMPDEST PUSH1 0xFF DUP2 AND PUSH1 0x14 DUP2 LT ISZERO PUSH2 0x6DF JUMPI PUSH1 0x14 DUP3 LT ISZERO PUSH2 0x6CB JUMPI PUSH1 0xFF PUSH1 0xD PUSH1 0x5 DUP5 MUL ADD SLOAD PUSH1 0x8 SHR AND PUSH2 0x68D JUMPI JUMPDEST POP PUSH1 0x1 ADD PUSH1 0xFF AND PUSH2 0x658 JUMP JUMPDEST PUSH2 0x696 DUP4 PUSH2 0x2A40 JUMP JUMPDEST SWAP3 DUP5 MLOAD PUSH1 0xFF DUP3 AND LT ISZERO PUSH2 0x6B7 JUMPI PUSH1 0x5 SHL PUSH2 0x1FE0 AND DUP5 ADD PUSH1 0x20 ADD MSTORE PUSH1 0x1 PUSH2 0x681 JUMP JUMPDEST PUSH4 0x4E487B71 PUSH1 0xE0 SHL DUP8 MSTORE PUSH1 0x32 PUSH1 0x4 MSTORE PUSH1 0x24 DUP8 REVERT JUMPDEST PUSH4 0x4E487B71 PUSH1 0xE0 SHL DUP7 MSTORE PUSH1 0x32 PUSH1 0x4 MSTORE PUSH1 0x24 DUP7 REVERT JUMPDEST POP POP POP SWAP1 PUSH1 0x40 MLOAD SWAP3 DUP4 SWAP3 PUSH1 0x20 DUP5 ADD SWAP1 PUSH1 0x20 DUP6 MSTORE MLOAD DUP1 SWAP2 MSTORE PUSH1 0x40 DUP5 ADD SWAP3 SWAP2 JUMPDEST DUP2 DUP2 LT PUSH2 0x70B JUMPI POP POP POP SUB SWAP1 RETURN JUMPDEST DUP3 MLOAD PUSH1 0xFF AND DUP5 MSTORE DUP6 SWAP5 POP PUSH1 0x20 SWAP4 DUP5 ADD SWAP4 SWAP1 SWAP3 ADD SWAP2 PUSH1 0x1 ADD PUSH2 0x6FD JUMP JUMPDEST PUSH1 0x14 DUP2 LT ISZERO PUSH2 0x4E4 JUMPI PUSH1 0xFF PUSH1 0xD PUSH1 0x5 DUP4 MUL ADD SLOAD PUSH1 0x8 SHR AND PUSH2 0x74E JUMPI JUMPDEST PUSH1 0x1 ADD PUSH1 0xFF AND PUSH2 0x617 JUMP JUMPDEST SWAP1 PUSH1 0x1 PUSH2 0x75C PUSH1 0xFF SWAP3 PUSH2 0x2A40 JUMP JUMPDEST SWAP3 SWAP2 POP POP PUSH2 0x743 JUMP JUMPDEST POP CALLVALUE PUSH2 0x34D JUMPI DUP1 PUSH1 0x3 NOT CALLDATASIZE ADD SLT PUSH2 0x34D JUMPI PUSH1 0x20 PUSH1 0x40 MLOAD PUSH2 0x2710 DUP2 MSTORE RETURN JUMPDEST POP CALLVALUE PUSH2 0x34D JUMPI DUP1 PUSH1 0x3 NOT CALLDATASIZE ADD SLT PUSH2 0x34D JUMPI PUSH1 0x20 PUSH1 0x8 SLOAD PUSH1 0x40 MLOAD SWAP1 DUP2 MSTORE RETURN JUMPDEST POP CALLVALUE PUSH2 0x34D JUMPI DUP1 PUSH1 0x3 NOT CALLDATASIZE ADD SLT PUSH2 0x34D JUMPI PUSH1 0x20 PUSH1 0x6E SLOAD PUSH1 0x40 MLOAD SWAP1 DUP2 MSTORE RETURN JUMPDEST POP CALLVALUE PUSH2 0x34D JUMPI DUP1 PUSH1 0x3 NOT CALLDATASIZE ADD SLT PUSH2 0x34D JUMPI PUSH1 0x20 PUSH1 0x7 SLOAD PUSH1 0x40 MLOAD SWAP1 DUP2 MSTORE RETURN JUMPDEST POP CALLVALUE PUSH2 0x34D JUMPI DUP1 PUSH1 0x3 NOT CALLDATASIZE ADD SLT PUSH2 0x34D JUMPI SLOAD PUSH1 0x40 MLOAD PUSH1 0x1 PUSH1 0x1 PUSH1 0xA0 SHL SUB SWAP1 SWAP2 AND DUP2 MSTORE PUSH1 0x20 SWAP1 RETURN JUMPDEST POP CALLVALUE PUSH2 0x34D JUMPI DUP1 PUSH1 0x3 NOT CALLDATASIZE ADD SLT PUSH2 0x34D JUMPI PUSH1 0x20 PUSH1 0x40 MLOAD PUSH2 0x3E7 DUP2 MSTORE RETURN JUMPDEST POP CALLVALUE PUSH2 0x34D JUMPI DUP1 PUSH1 0x3 NOT CALLDATASIZE ADD SLT PUSH2 0x34D JUMPI PUSH1 0x20 PUSH1 0x72 SLOAD PUSH1 0x40 MLOAD SWAP1 DUP2 MSTORE RETURN JUMPDEST POP CALLVALUE PUSH2 0x34D JUMPI PUSH1 0x20 CALLDATASIZE PUSH1 0x3 NOT ADD SLT PUSH2 0x34D JUMPI PUSH2 0x858 PUSH2 0x266E JUMP JUMPDEST PUSH2 0x860 PUSH2 0x2BA5 JUMP JUMPDEST PUSH1 0x1 PUSH1 0x1 PUSH1 0xA0 SHL SUB AND DUP1 ISZERO PUSH2 0x8E3 JUMPI PUSH1 0xA0 PUSH32 0xD8E98BFF5AE8522235EF48DAECFF7488B367200BEA03A4E8CB4BC98108C6A492 SWAP2 PUSH1 0x73 SLOAD SWAP1 DUP1 PUSH1 0x1 PUSH1 0x1 PUSH1 0x60 SHL SUB DUP5 SHL DUP4 AND OR PUSH1 0x73 SSTORE PUSH1 0x40 MLOAD SWAP2 PUSH1 0x60 DUP4 MSTORE PUSH1 0xE PUSH1 0x60 DUP5 ADD MSTORE PUSH14 0x39B630B127232A26B0B730B3B2B9 PUSH1 0x91 SHL PUSH1 0x80 DUP5 ADD MSTORE PUSH1 0x1 DUP1 DUP6 SHL SUB AND PUSH1 0x20 DUP4 ADD MSTORE PUSH1 0x40 DUP3 ADD MSTORE LOG1 DUP1 RETURN JUMPDEST PUSH4 0xD92E233D PUSH1 0xE0 SHL DUP3 MSTORE PUSH1 0x4 DUP3 REVERT JUMPDEST POP CALLVALUE PUSH2 0x34D JUMPI DUP1 PUSH1 0x3 NOT CALLDATASIZE ADD SLT PUSH2 0x34D JUMPI PUSH1 0x20 PUSH1 0x40 MLOAD PUSH1 0x6 DUP2 MSTORE RETURN JUMPDEST POP CALLVALUE PUSH2 0x34D JUMPI PUSH1 0x20 CALLDATASIZE PUSH1 0x3 NOT ADD SLT PUSH2 0x34D JUMPI PUSH1 0x4 CALLDATALOAD SWAP1 PUSH1 0x4 DUP3 LT ISZERO PUSH2 0x34D JUMPI PUSH1 0x20 PUSH2 0x938 DUP4 PUSH2 0x29D6 JUMP JUMPDEST PUSH1 0x40 MLOAD SWAP1 DUP2 MSTORE RETURN JUMPDEST POP CALLVALUE PUSH2 0x34D JUMPI DUP1 PUSH1 0x3 NOT CALLDATASIZE ADD SLT PUSH2 0x34D JUMPI PUSH1 0x20 PUSH1 0x40 MLOAD PUSH1 0x63 DUP2 MSTORE RETURN JUMPDEST POP CALLVALUE PUSH2 0x34D JUMPI DUP1 PUSH1 0x3 NOT CALLDATASIZE ADD SLT PUSH2 0x34D JUMPI PUSH1 0x40 DUP1 MLOAD SWAP2 PUSH2 0x97C DUP3 DUP5 PUSH2 0x2715 JUMP JUMPDEST PUSH1 0x5 DUP4 MSTORE PUSH5 0x352E302E3 PUSH1 0xDC SHL PUSH1 0x20 DUP5 ADD MSTORE DUP2 MLOAD SWAP3 DUP4 SWAP2 PUSH1 0x20 DUP4 MSTORE DUP2 MLOAD SWAP2 DUP3 PUSH1 0x20 DUP6 ADD MSTORE DUP2 JUMPDEST DUP4 DUP2 LT PUSH2 0x9BF JUMPI POP POP DUP3 DUP3 ADD DUP5 ADD MSTORE PUSH1 0x1F ADD PUSH1 0x1F NOT AND DUP2 ADD SUB ADD SWAP1 RETURN JUMPDEST PUSH1 0x20 DUP3 DUP3 ADD DUP2 ADD MLOAD DUP9 DUP4 ADD DUP9 ADD MSTORE DUP8 SWAP6 POP ADD PUSH2 0x9A2 JUMP JUMPDEST POP CALLVALUE PUSH2 0x34D JUMPI PUSH1 0x20 CALLDATASIZE PUSH1 0x3 NOT ADD SLT PUSH2 0x34D JUMPI PUSH2 0x9F0 PUSH2 0x266E JUMP JUMPDEST PUSH2 0x9F8 PUSH2 0x2BA5 JUMP JUMPDEST PUSH1 0x1 PUSH1 0x1 PUSH1 0xA0 SHL SUB AND DUP1 ISZERO PUSH2 0x8E3 JUMPI PUSH1 0xA0 PUSH32 0xD8E98BFF5AE8522235EF48DAECFF7488B367200BEA03A4E8CB4BC98108C6A492 SWAP2 PUSH1 0x4 SLOAD SWAP1 DUP1 PUSH1 0x1 PUSH1 0x1 PUSH1 0x60 SHL SUB DUP5 SHL DUP4 AND OR PUSH1 0x4 SSTORE PUSH1 0x40 MLOAD SWAP2 PUSH1 0x60 DUP4 MSTORE PUSH1 0x8 PUSH1 0x60 DUP5 ADD MSTORE PUSH8 0x7472656173757279 PUSH1 0xC0 SHL PUSH1 0x80 DUP5 ADD MSTORE PUSH1 0x1 DUP1 DUP6 SHL SUB AND PUSH1 0x20 DUP4 ADD MSTORE PUSH1 0x40 DUP3 ADD MSTORE LOG1 DUP1 RETURN JUMPDEST POP CALLVALUE PUSH2 0x34D JUMPI DUP1 PUSH1 0x3 NOT CALLDATASIZE ADD SLT PUSH2 0x34D JUMPI PUSH1 0x20 PUSH1 0x40 MLOAD PUSH3 0x989680 DUP2 MSTORE RETURN JUMPDEST POP CALLVALUE PUSH2 0x34D JUMPI PUSH1 0x20 CALLDATASIZE PUSH1 0x3 NOT ADD SLT PUSH2 0x34D JUMPI PUSH1 0x80 SWAP1 PUSH1 0x1 PUSH1 0x1 PUSH1 0xA0 SHL SUB PUSH2 0xAB8 PUSH2 0x266E JUMP JUMPDEST AND SWAP1 DUP2 DUP2 MSTORE PUSH1 0x9 PUSH1 0x20 MSTORE PUSH1 0x40 DUP2 KECCAK256 DUP2 DUP1 MSTORE PUSH1 0x20 MSTORE PUSH1 0x40 DUP2 KECCAK256 SLOAD SWAP2 DUP1 DUP3 MSTORE PUSH1 0x9 PUSH1 0x20 MSTORE PUSH1 0x40 DUP3 KECCAK256 PUSH1 0x1 DUP4 MSTORE PUSH1 0x20 MSTORE PUSH1 0x40 DUP1 DUP4 KECCAK256 SLOAD SWAP3 DUP3 DUP2 MSTORE PUSH1 0x9 PUSH1 0x20 MSTORE DUP2 DUP2 KECCAK256 PUSH1 0x2 DUP3 MSTORE PUSH1 0x20 MSTORE DUP2 DUP2 KECCAK256 SLOAD SWAP3 DUP2 MSTORE PUSH1 0x9 PUSH1 0x20 MSTORE DUP2 DUP2 KECCAK256 PUSH1 0x3 DUP3 MSTORE PUSH1 0x20 MSTORE KECCAK256 SLOAD SWAP2 PUSH1 0x40 MLOAD SWAP4 DUP5 MSTORE PUSH1 0x20 DUP5 ADD MSTORE PUSH1 0x40 DUP4 ADD MSTORE PUSH1 0x60 DUP3 ADD MSTORE RETURN JUMPDEST POP CALLVALUE PUSH2 0x34D JUMPI DUP1 PUSH1 0x3 NOT CALLDATASIZE ADD SLT PUSH2 0x34D JUMPI PUSH1 0x20 PUSH1 0x6 SLOAD PUSH1 0x40 MLOAD SWAP1 DUP2 MSTORE RETURN JUMPDEST POP CALLVALUE PUSH2 0x34D JUMPI DUP1 PUSH1 0x3 NOT CALLDATASIZE ADD SLT PUSH2 0x34D JUMPI PUSH1 0x20 PUSH1 0x40 MLOAD PUSH1 0x32 DUP2 MSTORE RETURN JUMPDEST POP CALLVALUE PUSH2 0x34D JUMPI PUSH1 0x20 CALLDATASIZE PUSH1 0x3 NOT ADD SLT PUSH2 0x34D JUMPI PUSH2 0xB82 PUSH2 0x2694 JUMP JUMPDEST SWAP1 PUSH2 0xB8B PUSH2 0x2959 JUMP JUMPDEST POP PUSH1 0xFF DUP3 AND PUSH1 0x14 DUP2 LT ISZERO PUSH2 0xC0E JUMPI POP PUSH1 0x14 DUP3 LT ISZERO PUSH2 0xBFA JUMPI PUSH1 0xC0 PUSH2 0xBB4 PUSH1 0x5 DUP5 MUL PUSH1 0xA ADD PUSH2 0x298A JUMP JUMPDEST PUSH2 0xBF8 PUSH1 0x40 MLOAD DUP1 SWAP3 PUSH1 0xA0 DUP1 SWAP2 DUP1 MLOAD DUP5 MSTORE PUSH1 0x20 DUP2 ADD MLOAD PUSH1 0x20 DUP6 ADD MSTORE PUSH1 0x40 DUP2 ADD MLOAD PUSH1 0x40 DUP6 ADD MSTORE PUSH1 0xFF PUSH1 0x60 DUP3 ADD MLOAD AND PUSH1 0x60 DUP6 ADD MSTORE PUSH1 0x80 DUP2 ADD MLOAD ISZERO ISZERO PUSH1 0x80 DUP6 ADD MSTORE ADD MLOAD SWAP2 ADD MSTORE JUMP JUMPDEST RETURN JUMPDEST PUSH4 0x4E487B71 PUSH1 0xE0 SHL DUP2 MSTORE PUSH1 0x32 PUSH1 0x4 MSTORE PUSH1 0x24 SWAP1 REVERT JUMPDEST PUSH4 0xCBA51315 PUSH1 0xE0 SHL DUP3 MSTORE PUSH1 0x4 MSTORE PUSH1 0x24 SWAP2 POP REVERT JUMPDEST POP CALLVALUE PUSH2 0x34D JUMPI PUSH1 0x40 CALLDATASIZE PUSH1 0x3 NOT ADD SLT PUSH2 0x34D JUMPI PUSH2 0xC3B PUSH2 0x266E JUMP JUMPDEST PUSH1 0x24 CALLDATALOAD SWAP1 PUSH1 0x4 DUP3 LT ISZERO PUSH2 0xC72 JUMPI PUSH1 0x1 PUSH1 0x1 PUSH1 0xA0 SHL SUB AND DUP3 MSTORE PUSH1 0x9 PUSH1 0x20 SWAP1 DUP2 MSTORE PUSH1 0x40 SWAP1 SWAP3 KECCAK256 PUSH2 0xC69 SWAP2 SWAP1 PUSH2 0x2753 JUMP JUMPDEST SLOAD PUSH1 0x40 MLOAD SWAP1 DUP2 MSTORE RETURN JUMPDEST DUP3 DUP1 REVERT JUMPDEST POP CALLVALUE PUSH2 0x34D JUMPI PUSH1 0x60 CALLDATASIZE PUSH1 0x3 NOT ADD SLT PUSH2 0x34D JUMPI PUSH2 0xC90 PUSH2 0x2694 JUMP JUMPDEST PUSH1 0x24 CALLDATALOAD SWAP1 PUSH1 0x44 CALLDATALOAD SWAP2 DUP3 ISZERO ISZERO SWAP2 DUP3 DUP5 SUB PUSH2 0x1129 JUMPI PUSH2 0xCAB PUSH2 0x2B3F JUMP JUMPDEST PUSH2 0xCB3 PUSH2 0x2B7B JUMP JUMPDEST DUP2 ISZERO PUSH2 0x12F9 JUMPI PUSH1 0xFF AND SWAP3 PUSH1 0x3 DUP5 GT PUSH2 0x12E5 JUMPI PUSH1 0x4 DUP5 LT ISZERO PUSH2 0x12D1 JUMPI PUSH2 0xCD7 DUP5 PUSH2 0x29D6 JUMP JUMPDEST SWAP1 DUP3 DUP3 MUL SWAP2 DUP1 DUP4 DIV DUP5 EQ SWAP1 ISZERO OR ISZERO PUSH2 0x1216 JUMPI ISZERO PUSH2 0xED2 JUMPI PUSH2 0xCF7 DUP2 PUSH2 0x2787 JUMP JUMPDEST PUSH1 0x1 SLOAD PUSH1 0x40 MLOAD PUSH4 0x6EB1769F PUSH1 0xE1 SHL DUP2 MSTORE CALLER PUSH1 0x4 DUP3 ADD MSTORE ADDRESS PUSH1 0x24 DUP3 ADD MSTORE PUSH1 0x1 PUSH1 0x1 PUSH1 0xA0 SHL SUB SWAP1 SWAP2 AND SWAP1 PUSH1 0x20 DUP2 PUSH1 0x44 DUP2 DUP6 GAS STATICCALL SWAP1 DUP2 ISZERO PUSH2 0xE7B JUMPI DUP9 SWAP2 PUSH2 0xEA0 JUMPI JUMPDEST POP DUP3 DUP2 LT PUSH2 0xE86 JUMPI POP PUSH1 0x40 MLOAD PUSH4 0x70A08231 PUSH1 0xE0 SHL DUP2 MSTORE CALLER PUSH1 0x4 DUP3 ADD MSTORE PUSH1 0x20 DUP2 PUSH1 0x24 DUP2 DUP6 GAS STATICCALL SWAP1 DUP2 ISZERO PUSH2 0xE7B JUMPI DUP9 SWAP2 PUSH2 0xE44 JUMPI JUMPDEST POP DUP3 DUP2 LT PUSH2 0xE2A JUMPI POP SWAP1 PUSH2 0xD80 SWAP2 ADDRESS SWAP1 CALLER SWAP1 PUSH2 0x3192 JUMP JUMPDEST PUSH2 0x12C DUP2 MUL SWAP1 DUP1 DUP3 DIV PUSH2 0x12C EQ SWAP1 ISZERO OR ISZERO PUSH2 0xE16 JUMPI PUSH2 0x2710 PUSH2 0xDA5 SWAP2 DIV PUSH1 0x7 SLOAD PUSH2 0x287C JUMP JUMPDEST PUSH1 0x7 SSTORE JUMPDEST CALLER DUP5 MSTORE PUSH1 0x9 PUSH1 0x20 MSTORE PUSH2 0xDBE DUP4 PUSH1 0x40 DUP7 KECCAK256 PUSH2 0x2753 JUMP JUMPDEST PUSH2 0xDC9 DUP3 DUP3 SLOAD PUSH2 0x287C JUMP JUMPDEST SWAP1 SSTORE PUSH1 0x40 MLOAD SWAP3 DUP4 MSTORE PUSH1 0x20 DUP4 ADD MSTORE PUSH1 0x40 DUP3 ADD MSTORE PUSH32 0x279D78D3BC9E8F1F0C6275B03DB1EA13AED8715F3F9AD832F728113B3568CC41 PUSH1 0x60 CALLER SWAP3 LOG2 PUSH1 0x1 PUSH1 0x0 DUP1 MLOAD PUSH1 0x20 PUSH2 0x3298 DUP4 CODECOPY DUP2 MLOAD SWAP2 MSTORE SSTORE DUP1 RETURN JUMPDEST PUSH4 0x4E487B71 PUSH1 0xE0 SHL DUP6 MSTORE PUSH1 0x11 PUSH1 0x4 MSTORE PUSH1 0x24 DUP6 REVERT JUMPDEST PUSH1 0x64 SWAP3 DUP9 SWAP3 PUSH4 0xDB42144D PUSH1 0xE0 SHL DUP5 MSTORE PUSH1 0x4 MSTORE PUSH1 0x24 MSTORE PUSH1 0x44 MSTORE REVERT JUMPDEST SWAP1 POP PUSH1 0x20 DUP2 RETURNDATASIZE PUSH1 0x20 GT PUSH2 0xE73 JUMPI JUMPDEST DUP2 PUSH2 0xE5F PUSH1 0x20 SWAP4 DUP4 PUSH2 0x2715 JUMP JUMPDEST DUP2 ADD SUB SLT PUSH2 0xE6E JUMPI MLOAD CODESIZE PUSH2 0xD69 JUMP JUMPDEST PUSH1 0x0 DUP1 REVERT JUMPDEST RETURNDATASIZE SWAP2 POP PUSH2 0xE52 JUMP JUMPDEST PUSH1 0x40 MLOAD RETURNDATASIZE DUP11 DUP3 RETURNDATACOPY RETURNDATASIZE SWAP1 REVERT JUMPDEST PUSH1 0x64 SWAP3 DUP9 SWAP3 PUSH4 0xC95CF27 PUSH1 0xE1 SHL DUP5 MSTORE PUSH1 0x4 MSTORE PUSH1 0x24 MSTORE PUSH1 0x44 MSTORE REVERT JUMPDEST SWAP1 POP PUSH1 0x20 DUP2 RETURNDATASIZE PUSH1 0x20 GT PUSH2 0xECA JUMPI JUMPDEST DUP2 PUSH2 0xEBB PUSH1 0x20 SWAP4 DUP4 PUSH2 0x2715 JUMP JUMPDEST DUP2 ADD SUB SLT PUSH2 0xE6E JUMPI MLOAD CODESIZE PUSH2 0xD36 JUMP JUMPDEST RETURNDATASIZE SWAP2 POP PUSH2 0xEAE JUMP JUMPDEST DUP5 SLOAD PUSH1 0x40 MLOAD PUSH4 0x6EB1769F PUSH1 0xE1 SHL DUP2 MSTORE CALLER PUSH1 0x4 DUP3 ADD MSTORE ADDRESS PUSH1 0x24 DUP3 ADD MSTORE PUSH1 0x1 PUSH1 0x1 PUSH1 0xA0 SHL SUB SWAP1 SWAP2 AND SWAP1 PUSH1 0x20 DUP2 PUSH1 0x44 DUP2 DUP6 GAS STATICCALL SWAP1 DUP2 ISZERO PUSH2 0x127A JUMPI DUP8 SWAP2 PUSH2 0x129F JUMPI JUMPDEST POP DUP3 DUP2 LT PUSH2 0x1285 JUMPI POP PUSH1 0x40 MLOAD PUSH4 0x70A08231 PUSH1 0xE0 SHL DUP2 MSTORE CALLER PUSH1 0x4 DUP3 ADD MSTORE PUSH1 0x20 DUP2 PUSH1 0x24 DUP2 DUP6 GAS STATICCALL SWAP1 DUP2 ISZERO PUSH2 0x127A JUMPI DUP8 SWAP2 PUSH2 0x1244 JUMPI JUMPDEST POP DUP3 DUP2 LT PUSH2 0x122A JUMPI POP DUP2 PUSH2 0xF5A SWAP2 ADDRESS SWAP1 CALLER SWAP1 PUSH2 0x3192 JUMP JUMPDEST PUSH2 0x12C DUP2 MUL DUP2 DUP2 DIV PUSH2 0x12C EQ DUP3 ISZERO OR ISZERO PUSH2 0x1216 JUMPI PUSH2 0x2710 SWAP1 DIV DUP1 DUP3 SUB SWAP2 DUP1 DUP4 GT PUSH2 0x1202 JUMPI PUSH2 0xF8A DUP3 PUSH1 0x7 SLOAD PUSH2 0x287C JUMP JUMPDEST PUSH1 0x7 SSTORE PUSH1 0x73 SLOAD PUSH1 0x1 PUSH1 0x1 PUSH1 0xA0 SHL SUB AND SWAP2 DUP3 ISZERO ISZERO SWAP2 DUP3 PUSH2 0x11F7 JUMPI JUMPDEST POP POP PUSH2 0xFB2 JUMPI JUMPDEST POP POP PUSH2 0xDA9 JUMP JUMPDEST DUP6 SLOAD PUSH1 0x40 MLOAD PUSH4 0x6EB1769F PUSH1 0xE1 SHL DUP2 MSTORE ADDRESS PUSH1 0x4 DUP3 ADD MSTORE PUSH1 0x1 PUSH1 0x1 PUSH1 0xA0 SHL SUB DUP4 DUP2 AND PUSH1 0x24 DUP4 ADD MSTORE SWAP1 SWAP2 AND SWAP1 PUSH1 0x20 DUP2 PUSH1 0x44 DUP2 DUP6 GAS STATICCALL DUP1 ISZERO PUSH2 0xE7B JUMPI DUP5 SWAP1 DUP10 SWAP1 PUSH2 0x11BD JUMPI JUMPDEST PUSH2 0xFFD SWAP3 POP PUSH2 0x287C JUMP JUMPDEST PUSH1 0x40 MLOAD PUSH4 0x95EA7B3 PUSH1 0xE0 SHL PUSH1 0x20 DUP1 DUP4 ADD SWAP2 DUP3 MSTORE PUSH1 0x1 PUSH1 0x1 PUSH1 0xA0 SHL SUB DUP7 AND PUSH1 0x24 DUP5 ADD MSTORE PUSH1 0x44 DUP1 DUP5 ADD SWAP5 SWAP1 SWAP5 MSTORE SWAP3 DUP3 MSTORE SWAP1 SWAP3 SWAP2 SWAP1 DUP10 SWAP1 PUSH2 0x103C PUSH1 0x64 DUP7 PUSH2 0x2715 JUMP JUMPDEST DUP5 MLOAD SWAP1 DUP3 DUP6 GAS CALL DUP9 MLOAD RETURNDATASIZE DUP3 PUSH2 0x11A1 JUMPI JUMPDEST POP POP ISZERO PUSH2 0x115C JUMPI JUMPDEST POP POP PUSH1 0x73 SLOAD DUP7 SWAP2 POP PUSH1 0x1 PUSH1 0x1 PUSH1 0xA0 SHL SUB AND DUP1 EXTCODESIZE ISZERO PUSH2 0x1158 JUMPI DUP2 SWAP1 PUSH1 0x24 PUSH1 0x40 MLOAD DUP1 SWAP5 DUP2 SWAP4 PUSH4 0xBC1CA3E9 PUSH1 0xE0 SHL DUP4 MSTORE DUP8 PUSH1 0x4 DUP5 ADD MSTORE GAS CALL DUP1 ISZERO PUSH2 0x1139 JUMPI PUSH2 0x1144 JUMPI JUMPDEST POP PUSH1 0x73 SLOAD PUSH1 0x40 DUP1 MLOAD PUSH4 0x6C14397F PUSH1 0xE1 SHL DUP2 MSTORE SWAP2 DUP3 SWAP1 PUSH1 0x4 SWAP1 DUP3 SWAP1 DUP11 SWAP1 PUSH1 0x1 PUSH1 0x1 PUSH1 0xA0 SHL SUB AND GAS CALL DUP1 ISZERO PUSH2 0x1139 JUMPI PUSH2 0x10F9 JUMPI JUMPDEST POP PUSH1 0x20 PUSH32 0x6A35E7A759100D73C502119478CB5AE1CA768BBE0205D011ED3B0F76C59207A8 SWAP2 PUSH1 0x40 MLOAD SWAP1 DUP2 MSTORE LOG1 CODESIZE DUP1 PUSH2 0xFAB JUMP JUMPDEST PUSH1 0x40 DUP2 RETURNDATASIZE PUSH1 0x40 GT PUSH2 0x1131 JUMPI JUMPDEST DUP2 PUSH2 0x1112 PUSH1 0x40 SWAP4 DUP4 PUSH2 0x2715 JUMP JUMPDEST DUP2 ADD SUB SLT PUSH2 0x112D JUMPI MLOAD DUP1 ISZERO ISZERO SUB PUSH2 0x1129 JUMPI CODESIZE PUSH2 0x10C6 JUMP JUMPDEST DUP5 DUP1 REVERT JUMPDEST DUP6 DUP1 REVERT JUMPDEST RETURNDATASIZE SWAP2 POP PUSH2 0x1105 JUMP JUMPDEST PUSH1 0x40 MLOAD RETURNDATASIZE DUP9 DUP3 RETURNDATACOPY RETURNDATASIZE SWAP1 REVERT JUMPDEST DUP6 PUSH2 0x1151 SWAP2 SWAP7 SWAP3 SWAP7 PUSH2 0x2715 JUMP JUMPDEST SWAP4 CODESIZE PUSH2 0x1094 JUMP JUMPDEST POP DUP1 REVERT JUMPDEST PUSH2 0x1194 PUSH2 0x1199 SWAP4 PUSH1 0x40 MLOAD SWAP1 PUSH4 0x95EA7B3 PUSH1 0xE0 SHL PUSH1 0x20 DUP4 ADD MSTORE PUSH1 0x24 DUP3 ADD MSTORE DUP10 PUSH1 0x44 DUP3 ADD MSTORE PUSH1 0x44 DUP2 MSTORE PUSH2 0x118E PUSH1 0x64 DUP3 PUSH2 0x2715 JUMP JUMPDEST DUP3 PUSH2 0x30AD JUMP JUMPDEST PUSH2 0x30AD JUMP JUMPDEST CODESIZE DUP1 DUP1 PUSH2 0x1054 JUMP JUMPDEST SWAP1 SWAP2 POP PUSH2 0x11B5 JUMPI POP DUP1 EXTCODESIZE ISZERO ISZERO JUMPDEST CODESIZE DUP1 PUSH2 0x104C JUMP JUMPDEST PUSH1 0x1 EQ PUSH2 0x11AE JUMP JUMPDEST POP POP PUSH1 0x20 DUP2 RETURNDATASIZE PUSH1 0x20 GT PUSH2 0x11EF JUMPI JUMPDEST DUP2 PUSH2 0x11D8 PUSH1 0x20 SWAP4 DUP4 PUSH2 0x2715 JUMP JUMPDEST DUP2 ADD SUB SLT PUSH2 0x11EB JUMPI DUP4 PUSH2 0xFFD SWAP2 MLOAD PUSH2 0xFF3 JUMP JUMPDEST DUP8 DUP1 REVERT JUMPDEST RETURNDATASIZE SWAP2 POP PUSH2 0x11CB JUMP JUMPDEST EQ ISZERO SWAP1 POP CODESIZE DUP1 PUSH2 0xFA4 JUMP JUMPDEST PUSH4 0x4E487B71 PUSH1 0xE0 SHL DUP8 MSTORE PUSH1 0x11 PUSH1 0x4 MSTORE PUSH1 0x24 DUP8 REVERT JUMPDEST PUSH4 0x4E487B71 PUSH1 0xE0 SHL DUP7 MSTORE PUSH1 0x11 PUSH1 0x4 MSTORE PUSH1 0x24 DUP7 REVERT JUMPDEST PUSH1 0x64 SWAP3 DUP8 SWAP3 PUSH4 0xDB42144D PUSH1 0xE0 SHL DUP5 MSTORE PUSH1 0x4 MSTORE PUSH1 0x24 MSTORE PUSH1 0x44 MSTORE REVERT JUMPDEST SWAP1 POP PUSH1 0x20 DUP2 RETURNDATASIZE PUSH1 0x20 GT PUSH2 0x1272 JUMPI JUMPDEST DUP2 PUSH2 0x125F PUSH1 0x20 SWAP4 DUP4 PUSH2 0x2715 JUMP JUMPDEST DUP2 ADD SUB SLT PUSH2 0x126E JUMPI MLOAD CODESIZE PUSH2 0xF43 JUMP JUMPDEST DUP7 DUP1 REVERT JUMPDEST RETURNDATASIZE SWAP2 POP PUSH2 0x1252 JUMP JUMPDEST PUSH1 0x40 MLOAD RETURNDATASIZE DUP10 DUP3 RETURNDATACOPY RETURNDATASIZE SWAP1 REVERT JUMPDEST PUSH1 0x64 SWAP3 DUP8 SWAP3 PUSH4 0xC95CF27 PUSH1 0xE1 SHL DUP5 MSTORE PUSH1 0x4 MSTORE PUSH1 0x24 MSTORE PUSH1 0x44 MSTORE REVERT JUMPDEST SWAP1 POP PUSH1 0x20 DUP2 RETURNDATASIZE PUSH1 0x20 GT PUSH2 0x12C9 JUMPI JUMPDEST DUP2 PUSH2 0x12BA PUSH1 0x20 SWAP4 DUP4 PUSH2 0x2715 JUMP JUMPDEST DUP2 ADD SUB SLT PUSH2 0x126E JUMPI MLOAD CODESIZE PUSH2 0xF10 JUMP JUMPDEST RETURNDATASIZE SWAP2 POP PUSH2 0x12AD JUMP JUMPDEST PUSH4 0x4E487B71 PUSH1 0xE0 SHL DUP6 MSTORE PUSH1 0x21 PUSH1 0x4 MSTORE PUSH1 0x24 DUP6 REVERT JUMPDEST PUSH4 0xFAB9B837 PUSH1 0xE0 SHL DUP6 MSTORE PUSH1 0x4 DUP5 SWAP1 MSTORE PUSH1 0x24 DUP6 REVERT JUMPDEST PUSH4 0xF4F5B733 PUSH1 0xE0 SHL DUP6 MSTORE PUSH1 0x4 DUP6 REVERT JUMPDEST POP CALLVALUE PUSH2 0x34D JUMPI PUSH1 0x40 CALLDATASIZE PUSH1 0x3 NOT ADD SLT PUSH2 0x34D JUMPI PUSH1 0x2 SLOAD PUSH1 0x1 PUSH1 0x1 PUSH1 0xA0 SHL SUB AND CALLER SUB PUSH2 0x133A JUMPI PUSH2 0x5AF PUSH1 0x24 CALLDATALOAD PUSH1 0x4 CALLDATALOAD PUSH2 0x28DC JUMP JUMPDEST PUSH4 0x5A1C6A59 PUSH1 0xE0 SHL DUP2 MSTORE CALLER PUSH1 0x4 MSTORE PUSH1 0x24 SWAP1 REVERT JUMPDEST POP CALLVALUE PUSH2 0x34D JUMPI DUP1 PUSH1 0x3 NOT CALLDATASIZE ADD SLT PUSH2 0x34D JUMPI PUSH1 0x0 DUP1 MLOAD PUSH1 0x20 PUSH2 0x3238 DUP4 CODECOPY DUP2 MLOAD SWAP2 MSTORE SLOAD PUSH1 0x40 MLOAD PUSH1 0x1 PUSH1 0x1 PUSH1 0xA0 SHL SUB SWAP1 SWAP2 AND DUP2 MSTORE PUSH1 0x20 SWAP1 RETURN JUMPDEST POP CALLVALUE PUSH2 0x34D JUMPI PUSH2 0x100 CALLDATASIZE PUSH1 0x3 NOT ADD SLT PUSH2 0x34D JUMPI PUSH2 0x139E PUSH2 0x266E JUMP JUMPDEST PUSH1 0x24 CALLDATALOAD PUSH1 0x1 PUSH1 0x1 PUSH1 0xA0 SHL SUB DUP2 AND SWAP1 DUP2 SWAP1 SUB PUSH2 0xC72 JUMPI PUSH1 0x44 CALLDATALOAD PUSH1 0x1 PUSH1 0x1 PUSH1 0xA0 SHL SUB DUP2 AND SWAP1 DUP2 SWAP1 SUB PUSH2 0x165E JUMPI PUSH1 0x64 CALLDATALOAD PUSH1 0x1 PUSH1 0x1 PUSH1 0xA0 SHL SUB DUP2 AND SWAP3 SWAP1 DUP4 SWAP1 SUB PUSH2 0x1129 JUMPI PUSH1 0x84 CALLDATALOAD PUSH1 0x1 PUSH1 0x1 PUSH1 0xA0 SHL SUB DUP2 AND SWAP1 DUP2 SWAP1 SUB PUSH2 0x112D JUMPI PUSH1 0xA4 CALLDATALOAD PUSH1 0x1 PUSH1 0x1 PUSH1 0xA0 SHL SUB DUP2 AND SWAP1 DUP2 SWAP1 SUB PUSH2 0x126E JUMPI PUSH1 0xC4 CALLDATALOAD PUSH1 0x1 PUSH1 0x1 PUSH1 0xA0 SHL SUB DUP2 AND SWAP3 SWAP1 DUP4 SWAP1 SUB PUSH2 0x11EB JUMPI PUSH1 0xE4 CALLDATALOAD SWAP6 PUSH1 0x0 DUP1 MLOAD PUSH1 0x20 PUSH2 0x32B8 DUP4 CODECOPY DUP2 MLOAD SWAP2 MSTORE SLOAD SWAP8 PUSH1 0xFF DUP10 PUSH1 0x40 SHR AND ISZERO SWAP9 PUSH8 0xFFFFFFFFFFFFFFFF DUP2 AND DUP1 ISZERO SWAP1 DUP2 PUSH2 0x1656 JUMPI JUMPDEST PUSH1 0x1 EQ SWAP1 DUP2 PUSH2 0x164C JUMPI JUMPDEST ISZERO SWAP1 DUP2 PUSH2 0x1643 JUMPI JUMPDEST POP PUSH2 0x1634 JUMPI PUSH8 0xFFFFFFFFFFFFFFFF NOT DUP2 AND PUSH1 0x1 OR PUSH1 0x0 DUP1 MLOAD PUSH1 0x20 PUSH2 0x32B8 DUP4 CODECOPY DUP2 MLOAD SWAP2 MSTORE SSTORE DUP10 PUSH2 0x1607 JUMPI JUMPDEST POP PUSH1 0x1 PUSH1 0x1 PUSH1 0xA0 SHL SUB DUP2 AND ISZERO PUSH2 0x15F8 JUMPI DUP6 ISZERO PUSH2 0x15F8 JUMPI DUP7 ISZERO PUSH2 0x15F8 JUMPI DUP2 ISZERO PUSH2 0x15F8 JUMPI DUP3 ISZERO PUSH2 0x15F8 JUMPI DUP4 ISZERO PUSH2 0x15F8 JUMPI DUP5 ISZERO PUSH2 0x15F8 JUMPI DUP8 ISZERO PUSH2 0x15EA JUMPI PUSH2 0x14DA SWAP1 PUSH2 0x14D2 PUSH2 0x3108 JUMP JUMPDEST PUSH2 0x5AA PUSH2 0x3108 JUMP JUMPDEST PUSH2 0x14E2 PUSH2 0x3108 JUMP JUMPDEST PUSH2 0x14EA PUSH2 0x3108 JUMP JUMPDEST PUSH2 0x14F2 PUSH2 0x3108 JUMP JUMPDEST PUSH1 0x1 PUSH1 0x0 DUP1 MLOAD PUSH1 0x20 PUSH2 0x3298 DUP4 CODECOPY DUP2 MLOAD SWAP2 MSTORE SSTORE PUSH2 0x150C PUSH2 0x3108 JUMP JUMPDEST PUSH1 0x1 PUSH1 0x1 PUSH1 0x60 SHL SUB PUSH1 0xA0 SHL DUP10 SLOAD AND OR DUP9 SSTORE PUSH1 0x1 PUSH1 0x1 PUSH1 0x60 SHL SUB PUSH1 0xA0 SHL PUSH1 0x1 SLOAD AND OR PUSH1 0x1 SSTORE PUSH1 0x1 PUSH1 0x1 PUSH1 0x60 SHL SUB PUSH1 0xA0 SHL PUSH1 0x2 SLOAD AND OR PUSH1 0x2 SSTORE PUSH1 0x1 PUSH1 0x1 PUSH1 0x60 SHL SUB PUSH1 0xA0 SHL PUSH1 0x3 SLOAD AND OR PUSH1 0x3 SSTORE PUSH1 0x1 PUSH1 0x1 PUSH1 0x60 SHL SUB PUSH1 0xA0 SHL PUSH1 0x4 SLOAD AND OR PUSH1 0x4 SSTORE PUSH1 0x1 PUSH1 0x1 PUSH1 0x60 SHL SUB PUSH1 0xA0 SHL PUSH1 0x5 SLOAD AND OR PUSH1 0x5 SSTORE PUSH1 0x72 SSTORE PUSH1 0x1 PUSH1 0x6E SSTORE PUSH1 0x1 PUSH1 0x71 SSTORE PUSH2 0x1590 JUMPI DUP1 RETURN JUMPDEST PUSH9 0xFF0000000000000000 NOT PUSH1 0x0 DUP1 MLOAD PUSH1 0x20 PUSH2 0x32B8 DUP4 CODECOPY DUP2 MLOAD SWAP2 MSTORE SLOAD AND PUSH1 0x0 DUP1 MLOAD PUSH1 0x20 PUSH2 0x32B8 DUP4 CODECOPY DUP2 MLOAD SWAP2 MSTORE SSTORE PUSH32 0xC7F505B2F371AE2175EE4913F4499E1F2633A7B5936321EED1CDAEB6115181D2 PUSH1 0x20 PUSH1 0x40 MLOAD PUSH1 0x1 DUP2 MSTORE LOG1 DUP1 RETURN JUMPDEST PUSH3 0xBFC921 PUSH1 0xE0 SHL DUP11 MSTORE PUSH1 0x4 DUP11 REVERT JUMPDEST PUSH4 0xD92E233D PUSH1 0xE0 SHL DUP11 MSTORE PUSH1 0x4 DUP11 REVERT JUMPDEST PUSH9 0xFFFFFFFFFFFFFFFFFF NOT AND PUSH9 0x10000000000000001 OR PUSH1 0x0 DUP1 MLOAD PUSH1 0x20 PUSH2 0x32B8 DUP4 CODECOPY DUP2 MLOAD SWAP2 MSTORE SSTORE CODESIZE PUSH2 0x148C JUMP JUMPDEST PUSH4 0xF92EE8A9 PUSH1 0xE0 SHL DUP12 MSTORE PUSH1 0x4 DUP12 REVERT JUMPDEST SWAP1 POP ISZERO CODESIZE PUSH2 0x1462 JUMP JUMPDEST ADDRESS EXTCODESIZE ISZERO SWAP2 POP PUSH2 0x145A JUMP JUMPDEST DUP12 SWAP2 POP PUSH2 0x1450 JUMP JUMPDEST DUP4 DUP1 REVERT JUMPDEST POP CALLVALUE PUSH2 0x34D JUMPI DUP1 PUSH1 0x3 NOT CALLDATASIZE ADD SLT PUSH2 0x34D JUMPI PUSH2 0x167B PUSH2 0x2BA5 JUMP JUMPDEST PUSH2 0x1683 PUSH2 0x2B7B JUMP JUMPDEST PUSH1 0x1 PUSH1 0xFF NOT PUSH1 0x0 DUP1 MLOAD PUSH1 0x20 PUSH2 0x3278 DUP4 CODECOPY DUP2 MLOAD SWAP2 MSTORE SLOAD AND OR PUSH1 0x0 DUP1 MLOAD PUSH1 0x20 PUSH2 0x3278 DUP4 CODECOPY DUP2 MLOAD SWAP2 MSTORE SSTORE PUSH32 0x62E78CEA01BEE320CD4E420270B5EA74000D11B0C9F74754EBDBFC544B05A258 PUSH1 0x20 PUSH1 0x40 MLOAD CALLER DUP2 MSTORE LOG1 DUP1 RETURN JUMPDEST POP CALLVALUE PUSH2 0x34D JUMPI PUSH1 0x20 CALLDATASIZE PUSH1 0x3 NOT ADD SLT PUSH2 0x34D JUMPI PUSH1 0x40 PUSH1 0x20 SWAP2 PUSH1 0x4 CALLDATALOAD DUP2 MSTORE PUSH1 0x70 DUP4 MSTORE KECCAK256 SLOAD PUSH1 0x40 MLOAD SWAP1 DUP2 MSTORE RETURN JUMPDEST POP CALLVALUE PUSH2 0x34D JUMPI PUSH1 0x20 CALLDATASIZE PUSH1 0x3 NOT ADD SLT PUSH2 0x34D JUMPI PUSH2 0x171B PUSH2 0x2694 JUMP JUMPDEST PUSH2 0x1723 PUSH2 0x2BA5 JUMP JUMPDEST PUSH1 0xFF DUP2 AND SWAP1 PUSH1 0x14 DUP3 LT ISZERO PUSH2 0x190B JUMPI PUSH1 0x14 DUP2 LT ISZERO PUSH2 0x4E4 JUMPI PUSH1 0x5 MUL PUSH1 0xD ADD SLOAD PUSH1 0x8 SHR PUSH1 0xFF AND PUSH2 0x18F9 JUMPI DUP2 PUSH1 0x6E SLOAD SWAP2 PUSH2 0x1759 DUP4 PUSH2 0x286D JUMP JUMPDEST PUSH1 0x6E SSTORE PUSH1 0x71 SLOAD PUSH2 0x1768 DUP2 PUSH2 0x286D JUMP JUMPDEST PUSH1 0x71 SSTORE PUSH1 0x40 MLOAD PUSH1 0x20 DUP2 ADD SWAP2 PUSH1 0x1 PUSH1 0x1 PUSH1 0x60 SHL SUB NOT ADDRESS PUSH1 0x60 SHL AND DUP4 MSTORE DUP6 PUSH1 0x34 DUP4 ADD MSTORE PUSH1 0xFF PUSH1 0xF8 SHL PUSH1 0x54 DUP4 ADD MSTORE TIMESTAMP PUSH1 0x55 DUP4 ADD MSTORE PUSH1 0x75 DUP3 ADD MSTORE PUSH1 0x75 DUP2 MSTORE PUSH2 0x17AD PUSH1 0x95 DUP3 PUSH2 0x2715 JUMP JUMPDEST MLOAD SWAP1 KECCAK256 SWAP3 PUSH1 0x20 PUSH1 0x1 DUP1 PUSH1 0xA0 SHL SUB PUSH1 0x2 SLOAD AND PUSH1 0x24 PUSH1 0x40 MLOAD DUP1 SWAP7 DUP2 SWAP4 PUSH4 0x71C8A239 PUSH1 0xE1 SHL DUP4 MSTORE DUP10 PUSH1 0x4 DUP5 ADD MSTORE GAS CALL SWAP3 DUP4 ISZERO PUSH2 0x18EE JUMPI DUP6 SWAP4 PUSH2 0x18BA JUMPI JUMPDEST POP PUSH1 0x4 DUP3 LT ISZERO PUSH2 0x12D1 JUMPI PUSH1 0x40 MLOAD SWAP2 PUSH2 0x17FE DUP4 PUSH2 0x26C7 JUMP JUMPDEST ADDRESS DUP4 MSTORE PUSH1 0x20 DUP4 ADD SWAP2 DUP3 MSTORE PUSH2 0x1816 PUSH1 0x40 DUP5 ADD SWAP2 DUP3 PUSH2 0x27E4 JUMP JUMPDEST TIMESTAMP PUSH1 0x60 DUP5 ADD SWAP1 DUP2 MSTORE PUSH1 0x80 DUP5 ADD DUP8 DUP2 MSTORE DUP6 DUP9 MSTORE PUSH1 0x6F PUSH1 0x20 MSTORE PUSH1 0x40 DUP9 KECCAK256 SWAP5 MLOAD DUP6 SLOAD PUSH1 0x1 PUSH1 0x1 PUSH1 0xA0 SHL SUB NOT AND PUSH1 0x1 PUSH1 0x1 PUSH1 0xA0 SHL SUB SWAP2 SWAP1 SWAP2 AND OR DUP6 SSTORE SWAP3 MLOAD PUSH1 0x1 DUP6 ADD SSTORE SWAP1 MLOAD PUSH1 0x2 DUP5 ADD SWAP1 PUSH1 0x4 DUP2 LT ISZERO PUSH2 0x18A6 JUMPI SWAP2 PUSH2 0x1897 SWAP5 SWAP4 SWAP2 PUSH1 0x4 SWAP4 PUSH1 0xFF DUP1 NOT DUP4 SLOAD AND SWAP2 AND OR SWAP1 SSTORE MLOAD PUSH1 0x3 DUP5 ADD SSTORE MLOAD ISZERO ISZERO SWAP2 ADD SWAP1 PUSH1 0xFF DUP1 NOT DUP4 SLOAD AND SWAP2 ISZERO ISZERO AND OR SWAP1 SSTORE JUMP JUMPDEST DUP3 MSTORE PUSH1 0x70 PUSH1 0x20 MSTORE PUSH1 0x40 DUP3 KECCAK256 SSTORE DUP1 RETURN JUMPDEST PUSH4 0x4E487B71 PUSH1 0xE0 SHL DUP9 MSTORE PUSH1 0x21 PUSH1 0x4 MSTORE PUSH1 0x24 DUP9 REVERT JUMPDEST SWAP1 SWAP3 POP PUSH1 0x20 DUP2 RETURNDATASIZE PUSH1 0x20 GT PUSH2 0x18E6 JUMPI JUMPDEST DUP2 PUSH2 0x18D6 PUSH1 0x20 SWAP4 DUP4 PUSH2 0x2715 JUMP JUMPDEST DUP2 ADD SUB SLT PUSH2 0x1129 JUMPI MLOAD SWAP2 CODESIZE PUSH2 0x17E7 JUMP JUMPDEST RETURNDATASIZE SWAP2 POP PUSH2 0x18C9 JUMP JUMPDEST PUSH1 0x40 MLOAD RETURNDATASIZE DUP8 DUP3 RETURNDATACOPY RETURNDATASIZE SWAP1 REVERT JUMPDEST PUSH4 0x2F8ECEC9 PUSH1 0xE2 SHL DUP3 MSTORE PUSH1 0x4 MSTORE PUSH1 0x24 SWAP1 REVERT JUMPDEST PUSH4 0xCBA51315 PUSH1 0xE0 SHL DUP4 MSTORE PUSH1 0x4 DUP3 SWAP1 MSTORE PUSH1 0x24 DUP4 REVERT JUMPDEST POP CALLVALUE PUSH2 0x34D JUMPI PUSH1 0x60 CALLDATASIZE PUSH1 0x3 NOT ADD SLT PUSH2 0x34D JUMPI PUSH2 0x1939 PUSH2 0x2694 JUMP JUMPDEST SWAP1 PUSH2 0x1942 PUSH2 0x2BA5 JUMP JUMPDEST PUSH1 0xFF DUP3 AND SWAP2 PUSH1 0x14 DUP4 LT ISZERO PUSH2 0x1A2F JUMPI PUSH1 0x14 DUP2 LT ISZERO PUSH2 0x327 JUMPI PUSH1 0x5 DUP2 MUL SWAP1 PUSH1 0xFF PUSH1 0xD DUP4 ADD SLOAD PUSH1 0x8 SHR AND PUSH2 0x1A1B JUMPI SWAP1 PUSH32 0x156F6FEF57E34329718D6EFBD41F31A81AFD51D967D24F97B94EB576DCA20CFE SWAP2 PUSH2 0x1A15 PUSH1 0x6E SLOAD SWAP2 PUSH2 0x19A0 DUP4 PUSH2 0x286D JUMP JUMPDEST PUSH1 0x6E SSTORE PUSH2 0x3E8 PUSH1 0x24 CALLDATALOAD MOD SWAP4 PUSH2 0x19ED PUSH2 0x3E8 PUSH1 0x44 CALLDATALOAD MOD SWAP2 PUSH1 0x40 MLOAD SWAP1 PUSH2 0x19C3 DUP3 PUSH2 0x26F9 JUMP JUMPDEST DUP7 DUP3 MSTORE DUP8 PUSH1 0x20 DUP4 ADD MSTORE DUP4 PUSH1 0x40 DUP4 ADD MSTORE DUP10 PUSH1 0x60 DUP4 ADD MSTORE PUSH1 0x1 PUSH1 0x80 DUP4 ADD MSTORE TIMESTAMP PUSH1 0xA0 DUP4 ADD MSTORE PUSH1 0xA ADD PUSH2 0x2889 JUMP JUMPDEST PUSH1 0x40 MLOAD SWAP5 DUP6 SWAP5 DUP6 SWAP3 SWAP4 PUSH1 0xFF SWAP2 SWAP6 SWAP5 PUSH1 0x60 SWAP4 PUSH1 0x80 DUP7 ADD SWAP8 DUP7 MSTORE PUSH1 0x20 DUP7 ADD MSTORE PUSH1 0x40 DUP6 ADD MSTORE AND SWAP2 ADD MSTORE JUMP JUMPDEST SUB SWAP1 LOG1 DUP1 RETURN JUMPDEST PUSH4 0x2F8ECEC9 PUSH1 0xE2 SHL DUP4 MSTORE PUSH1 0x4 DUP5 SWAP1 MSTORE PUSH1 0x24 DUP4 REVERT JUMPDEST POP PUSH1 0x24 SWAP2 PUSH4 0xCBA51315 PUSH1 0xE0 SHL DUP3 MSTORE PUSH1 0x4 MSTORE REVERT JUMPDEST POP CALLVALUE PUSH2 0x34D JUMPI DUP1 PUSH1 0x3 NOT CALLDATASIZE ADD SLT PUSH2 0x34D JUMPI PUSH1 0x1 SLOAD PUSH1 0x40 MLOAD PUSH1 0x1 PUSH1 0x1 PUSH1 0xA0 SHL SUB SWAP1 SWAP2 AND DUP2 MSTORE PUSH1 0x20 SWAP1 RETURN JUMPDEST POP CALLVALUE PUSH2 0x34D JUMPI DUP1 PUSH1 0x3 NOT CALLDATASIZE ADD SLT PUSH2 0x34D JUMPI PUSH1 0x20 PUSH1 0x40 MLOAD PUSH1 0x2 DUP2 MSTORE RETURN JUMPDEST POP CALLVALUE PUSH2 0x34D JUMPI DUP1 PUSH1 0x3 NOT CALLDATASIZE ADD SLT PUSH2 0x34D JUMPI PUSH2 0x1AA0 PUSH2 0x2BA5 JUMP JUMPDEST PUSH1 0x0 DUP1 MLOAD PUSH1 0x20 PUSH2 0x3238 DUP4 CODECOPY DUP2 MLOAD SWAP2 MSTORE DUP1 SLOAD PUSH1 0x1 PUSH1 0x1 PUSH1 0xA0 SHL SUB NOT DUP2 AND SWAP1 SWAP2 SSTORE DUP2 SWAP1 PUSH1 0x1 PUSH1 0x1 PUSH1 0xA0 SHL SUB AND PUSH32 0x8BE0079C531659141344CD1FD0A4F28419497F9722A3DAAFE3B4186F6B6457E0 DUP3 DUP1 LOG3 DUP1 RETURN JUMPDEST POP CALLVALUE PUSH2 0x34D JUMPI DUP1 PUSH1 0x3 NOT CALLDATASIZE ADD SLT PUSH2 0x34D JUMPI PUSH1 0x73 SLOAD PUSH1 0x40 MLOAD PUSH1 0x1 PUSH1 0x1 PUSH1 0xA0 SHL SUB SWAP1 SWAP2 AND DUP2 MSTORE PUSH1 0x20 SWAP1 RETURN JUMPDEST POP CALLVALUE PUSH2 0x34D JUMPI DUP1 PUSH1 0x3 NOT CALLDATASIZE ADD SLT PUSH2 0x34D JUMPI PUSH1 0x5 SLOAD PUSH1 0x40 MLOAD PUSH1 0x1 PUSH1 0x1 PUSH1 0xA0 SHL SUB SWAP1 SWAP2 AND DUP2 MSTORE PUSH1 0x20 SWAP1 RETURN JUMPDEST POP CALLVALUE PUSH2 0x34D JUMPI DUP1 PUSH1 0x3 NOT CALLDATASIZE ADD SLT PUSH2 0x34D JUMPI PUSH1 0x2 SLOAD PUSH1 0x40 MLOAD PUSH1 0x1 PUSH1 0x1 PUSH1 0xA0 SHL SUB SWAP1 SWAP2 AND DUP2 MSTORE PUSH1 0x20 SWAP1 RETURN JUMPDEST POP CALLVALUE PUSH2 0x34D JUMPI PUSH1 0x20 CALLDATASIZE PUSH1 0x3 NOT ADD SLT PUSH2 0x34D JUMPI PUSH1 0x4 CALLDATALOAD PUSH2 0x1B89 PUSH2 0x2BA5 JUMP JUMPDEST DUP1 ISZERO PUSH2 0x1BC9 JUMPI PUSH1 0x40 PUSH32 0xC401B47DB6EC4C8671A2F54CF3A5F3F7069C3B71B6C6AD9ED90F2C8CC9920B6A SWAP2 PUSH1 0x72 SLOAD SWAP1 DUP1 PUSH1 0x72 SSTORE DUP3 MLOAD SWAP2 DUP3 MSTORE PUSH1 0x20 DUP3 ADD MSTORE LOG1 DUP1 RETURN JUMPDEST PUSH3 0xBFC921 PUSH1 0xE0 SHL DUP3 MSTORE PUSH1 0x4 DUP3 REVERT JUMPDEST POP CALLVALUE PUSH2 0x34D JUMPI DUP1 PUSH1 0x3 NOT CALLDATASIZE ADD SLT PUSH2 0x34D JUMPI PUSH1 0x20 PUSH1 0xFF PUSH1 0x0 DUP1 MLOAD PUSH1 0x20 PUSH2 0x3278 DUP4 CODECOPY DUP2 MLOAD SWAP2 MSTORE SLOAD AND PUSH1 0x40 MLOAD SWAP1 ISZERO ISZERO DUP2 MSTORE RETURN JUMPDEST POP CALLVALUE PUSH2 0x34D JUMPI DUP1 PUSH1 0x3 NOT CALLDATASIZE ADD SLT PUSH2 0x34D JUMPI PUSH1 0x20 PUSH1 0x40 MLOAD PUSH2 0x12C DUP2 MSTORE RETURN JUMPDEST POP CALLVALUE PUSH2 0x34D JUMPI DUP1 PUSH1 0x3 NOT CALLDATASIZE ADD SLT PUSH2 0x34D JUMPI PUSH32 0x0 PUSH1 0x1 PUSH1 0x1 PUSH1 0xA0 SHL SUB AND ADDRESS SUB PUSH2 0x1C7D JUMPI PUSH1 0x20 PUSH1 0x40 MLOAD PUSH1 0x0 DUP1 MLOAD PUSH1 0x20 PUSH2 0x3258 DUP4 CODECOPY DUP2 MLOAD SWAP2 MSTORE DUP2 MSTORE RETURN JUMPDEST PUSH4 0x703E46DD PUSH1 0xE1 SHL DUP2 MSTORE PUSH1 0x4 SWAP1 REVERT JUMPDEST POP PUSH1 0x40 CALLDATASIZE PUSH1 0x3 NOT ADD SLT PUSH2 0x34D JUMPI PUSH2 0x1CA1 PUSH2 0x266E JUMP JUMPDEST PUSH1 0x24 CALLDATALOAD SWAP1 PUSH8 0xFFFFFFFFFFFFFFFF DUP3 GT PUSH2 0xC72 JUMPI CALLDATASIZE PUSH1 0x23 DUP4 ADD SLT ISZERO PUSH2 0xC72 JUMPI DUP2 PUSH1 0x4 ADD CALLDATALOAD SWAP1 DUP4 PUSH2 0x1CCF DUP4 PUSH2 0x2737 JUMP JUMPDEST SWAP4 PUSH2 0x1CDD PUSH1 0x40 MLOAD SWAP6 DUP7 PUSH2 0x2715 JUMP JUMPDEST DUP4 DUP6 MSTORE PUSH1 0x20 DUP6 ADD SWAP4 CALLDATASIZE PUSH1 0x24 DUP3 DUP5 ADD ADD GT PUSH2 0xC72 JUMPI DUP1 PUSH1 0x24 PUSH1 0x20 SWAP4 ADD DUP7 CALLDATACOPY DUP6 ADD ADD MSTORE PUSH1 0x1 PUSH1 0x1 PUSH1 0xA0 SHL SUB PUSH32 0x0 AND ADDRESS DUP2 EQ SWAP1 DUP2 ISZERO PUSH2 0x1EB6 JUMPI JUMPDEST POP PUSH2 0x1EA7 JUMPI PUSH2 0x1D40 PUSH2 0x2BA5 JUMP JUMPDEST PUSH1 0x40 MLOAD PUSH4 0x52D1902D PUSH1 0xE0 SHL DUP2 MSTORE PUSH1 0x1 PUSH1 0x1 PUSH1 0xA0 SHL SUB DUP3 AND SWAP4 SWAP1 PUSH1 0x20 DUP2 PUSH1 0x4 DUP2 DUP9 GAS STATICCALL DUP7 SWAP2 DUP2 PUSH2 0x1E73 JUMPI JUMPDEST POP PUSH2 0x1D83 JUMPI PUSH4 0x4C9C8CE3 PUSH1 0xE0 SHL DUP7 MSTORE PUSH1 0x4 DUP6 SWAP1 MSTORE PUSH1 0x24 DUP7 REVERT JUMPDEST SWAP4 DUP5 PUSH1 0x0 DUP1 MLOAD PUSH1 0x20 PUSH2 0x3258 DUP4 CODECOPY DUP2 MLOAD SWAP2 MSTORE DUP8 SWAP7 SUB PUSH2 0x1E61 JUMPI POP DUP3 EXTCODESIZE ISZERO PUSH2 0x1E4F JUMPI PUSH1 0x0 DUP1 MLOAD PUSH1 0x20 PUSH2 0x3258 DUP4 CODECOPY DUP2 MLOAD SWAP2 MSTORE DUP1 SLOAD PUSH1 0x1 PUSH1 0x1 PUSH1 0xA0 SHL SUB NOT AND DUP3 OR SWAP1 SSTORE DUP5 SWAP2 SWAP1 PUSH32 0xBC7CD75A20EE27FD9ADEBAB32041F755214DBC6BFFA90CC0225B39DA2E5C2D3B DUP4 DUP1 LOG2 DUP1 MLOAD ISZERO PUSH2 0x1E34 JUMPI PUSH2 0x1E28 SWAP4 DUP3 SWAP2 MLOAD SWAP1 DUP5 GAS DELEGATECALL RETURNDATASIZE ISZERO PUSH2 0x1E2C JUMPI RETURNDATASIZE SWAP2 PUSH2 0x1E0C DUP4 PUSH2 0x2737 JUMP JUMPDEST SWAP3 PUSH2 0x1E1A PUSH1 0x40 MLOAD SWAP5 DUP6 PUSH2 0x2715 JUMP JUMPDEST DUP4 MSTORE RETURNDATASIZE DUP6 PUSH1 0x20 DUP6 ADD RETURNDATACOPY PUSH2 0x31D6 JUMP JUMPDEST POP DUP1 RETURN JUMPDEST PUSH1 0x60 SWAP2 PUSH2 0x31D6 JUMP JUMPDEST POP POP POP POP CALLVALUE PUSH2 0x1E40 JUMPI DUP1 RETURN JUMPDEST PUSH4 0xB398979F PUSH1 0xE0 SHL DUP2 MSTORE PUSH1 0x4 SWAP1 REVERT JUMPDEST PUSH4 0x4C9C8CE3 PUSH1 0xE0 SHL DUP6 MSTORE PUSH1 0x4 MSTORE PUSH1 0x24 DUP5 REVERT JUMPDEST PUSH4 0x2A875269 PUSH1 0xE2 SHL DUP7 MSTORE PUSH1 0x4 MSTORE PUSH1 0x24 DUP6 REVERT JUMPDEST SWAP1 SWAP2 POP PUSH1 0x20 DUP2 RETURNDATASIZE PUSH1 0x20 GT PUSH2 0x1E9F JUMPI JUMPDEST DUP2 PUSH2 0x1E8F PUSH1 0x20 SWAP4 DUP4 PUSH2 0x2715 JUMP JUMPDEST DUP2 ADD SUB SLT PUSH2 0x126E JUMPI MLOAD SWAP1 CODESIZE PUSH2 0x1D6A JUMP JUMPDEST RETURNDATASIZE SWAP2 POP PUSH2 0x1E82 JUMP JUMPDEST PUSH4 0x703E46DD PUSH1 0xE1 SHL DUP5 MSTORE PUSH1 0x4 DUP5 REVERT JUMPDEST PUSH1 0x0 DUP1 MLOAD PUSH1 0x20 PUSH2 0x3258 DUP4 CODECOPY DUP2 MLOAD SWAP2 MSTORE SLOAD PUSH1 0x1 PUSH1 0x1 PUSH1 0xA0 SHL SUB AND EQ ISZERO SWAP1 POP CODESIZE PUSH2 0x1D33 JUMP JUMPDEST POP CALLVALUE PUSH2 0x34D JUMPI PUSH1 0x20 CALLDATASIZE PUSH1 0x3 NOT ADD SLT PUSH2 0x34D JUMPI PUSH2 0x1EF3 PUSH2 0x266E JUMP JUMPDEST PUSH2 0x1EFB PUSH2 0x2BA5 JUMP JUMPDEST PUSH1 0x1 PUSH1 0x1 PUSH1 0xA0 SHL SUB AND DUP1 ISZERO PUSH2 0x8E3 JUMPI PUSH1 0xA0 PUSH32 0xD8E98BFF5AE8522235EF48DAECFF7488B367200BEA03A4E8CB4BC98108C6A492 SWAP2 PUSH1 0x5 SLOAD SWAP1 DUP1 PUSH1 0x1 PUSH1 0x1 PUSH1 0x60 SHL SUB DUP5 SHL DUP4 AND OR PUSH1 0x5 SSTORE PUSH1 0x40 MLOAD SWAP2 PUSH1 0x60 DUP4 MSTORE PUSH1 0xA PUSH1 0x60 DUP5 ADD MSTORE PUSH10 0x6E6674526576656E7565 PUSH1 0xB0 SHL PUSH1 0x80 DUP5 ADD MSTORE PUSH1 0x1 DUP1 DUP6 SHL SUB AND PUSH1 0x20 DUP4 ADD MSTORE PUSH1 0x40 DUP3 ADD MSTORE LOG1 DUP1 RETURN JUMPDEST POP CALLVALUE PUSH2 0x34D JUMPI DUP1 PUSH1 0x3 NOT CALLDATASIZE ADD SLT PUSH2 0x34D JUMPI PUSH2 0x1F93 PUSH2 0x2BA5 JUMP JUMPDEST PUSH2 0x1F9B PUSH2 0x2B3F JUMP JUMPDEST PUSH1 0x7 SLOAD DUP1 ISZERO PUSH2 0x203D JUMPI PUSH1 0x7 DUP3 SWAP1 SSTORE DUP2 SLOAD PUSH1 0x4 SLOAD PUSH1 0x40 MLOAD PUSH4 0xA9059CBB PUSH1 0xE0 SHL PUSH1 0x20 DUP3 ADD MSTORE PUSH1 0x1 PUSH1 0x1 PUSH1 0xA0 SHL SUB SWAP2 DUP3 AND PUSH1 0x24 DUP3 ADD MSTORE PUSH1 0x44 DUP1 DUP3 ADD DUP6 SWAP1 MSTORE DUP2 MSTORE PUSH32 0xC0819C13BE868895EB93E40EACEB96DE976442FA1D404E5C55F14BB65A8C489A SWAP4 SWAP3 PUSH2 0x200B SWAP3 AND PUSH2 0x1194 PUSH1 0x64 DUP4 PUSH2 0x2715 JUMP JUMPDEST PUSH1 0x4 SLOAD PUSH1 0x40 DUP1 MLOAD PUSH1 0x1 PUSH1 0x1 PUSH1 0xA0 SHL SUB SWAP1 SWAP3 AND DUP3 MSTORE PUSH1 0x20 DUP3 ADD SWAP3 SWAP1 SWAP3 MSTORE LOG1 PUSH1 0x1 PUSH1 0x0 DUP1 MLOAD PUSH1 0x20 PUSH2 0x3298 DUP4 CODECOPY DUP2 MLOAD SWAP2 MSTORE SSTORE DUP1 RETURN JUMPDEST PUSH4 0xD00DB4D PUSH1 0xE3 SHL DUP3 MSTORE PUSH1 0x4 DUP3 REVERT JUMPDEST POP CALLVALUE PUSH2 0x34D JUMPI DUP1 PUSH1 0x3 NOT CALLDATASIZE ADD SLT PUSH2 0x34D JUMPI PUSH1 0x4 SLOAD PUSH1 0x40 MLOAD PUSH1 0x1 PUSH1 0x1 PUSH1 0xA0 SHL SUB SWAP1 SWAP2 AND DUP2 MSTORE PUSH1 0x20 SWAP1 RETURN JUMPDEST POP CALLVALUE PUSH2 0x34D JUMPI DUP1 PUSH1 0x3 NOT CALLDATASIZE ADD SLT PUSH2 0x34D JUMPI PUSH1 0x20 PUSH2 0x938 PUSH2 0x27F0 JUMP JUMPDEST POP CALLVALUE PUSH2 0x34D JUMPI DUP1 PUSH1 0x3 NOT CALLDATASIZE ADD SLT PUSH2 0x34D JUMPI PUSH2 0x20A9 PUSH2 0x2BA5 JUMP JUMPDEST PUSH1 0x0 DUP1 MLOAD PUSH1 0x20 PUSH2 0x3278 DUP4 CODECOPY DUP2 MLOAD SWAP2 MSTORE SLOAD PUSH1 0xFF DUP2 AND ISZERO PUSH2 0x2103 JUMPI PUSH1 0xFF NOT AND PUSH1 0x0 DUP1 MLOAD PUSH1 0x20 PUSH2 0x3278 DUP4 CODECOPY DUP2 MLOAD SWAP2 MSTORE SSTORE PUSH32 0x5DB9EE0A495BF2E6FF9C91A7834C1BA4FDD244A5E8AA4E537BD38AEAE4B073AA PUSH1 0x20 PUSH1 0x40 MLOAD CALLER DUP2 MSTORE LOG1 DUP1 RETURN JUMPDEST PUSH4 0x8DFC202B PUSH1 0xE0 SHL DUP3 MSTORE PUSH1 0x4 DUP3 REVERT JUMPDEST POP CALLVALUE PUSH2 0x34D JUMPI DUP1 PUSH1 0x3 NOT CALLDATASIZE ADD SLT PUSH2 0x34D JUMPI PUSH1 0x20 PUSH1 0x40 MLOAD PUSH2 0x25E4 DUP2 MSTORE RETURN JUMPDEST POP CALLVALUE PUSH2 0x34D JUMPI DUP1 PUSH1 0x3 NOT CALLDATASIZE ADD SLT PUSH2 0x34D JUMPI PUSH1 0x20 PUSH1 0x40 MLOAD PUSH1 0x12 DUP2 MSTORE RETURN JUMPDEST POP CALLVALUE PUSH2 0x34D JUMPI DUP1 PUSH1 0x3 NOT CALLDATASIZE ADD SLT PUSH2 0x34D JUMPI PUSH1 0x20 PUSH1 0x40 MLOAD PUSH4 0x2F969E0 DUP2 MSTORE RETURN JUMPDEST POP CALLVALUE PUSH2 0x34D JUMPI PUSH1 0x20 CALLDATASIZE PUSH1 0x3 NOT ADD SLT PUSH2 0x34D JUMPI PUSH1 0x4 CALLDATALOAD PUSH1 0x14 DUP2 LT ISZERO PUSH2 0x1158 JUMPI PUSH1 0x5 SWAP1 PUSH1 0xC0 SWAP3 POP MUL DUP1 PUSH1 0xA ADD SLOAD SWAP1 PUSH1 0xFF PUSH1 0xB DUP3 ADD SLOAD SWAP2 PUSH1 0xC DUP2 ADD SLOAD PUSH1 0xE PUSH1 0xD DUP4 ADD SLOAD SWAP3 ADD SLOAD SWAP4 PUSH1 0x40 MLOAD SWAP6 DUP7 MSTORE PUSH1 0x20 DUP7 ADD MSTORE PUSH1 0x40 DUP6 ADD MSTORE DUP2 DUP2 AND PUSH1 0x60 DUP6 ADD MSTORE PUSH1 0x8 SHR AND ISZERO ISZERO PUSH1 0x80 DUP4 ADD MSTORE PUSH1 0xA0 DUP3 ADD MSTORE RETURN JUMPDEST POP CALLVALUE PUSH2 0x34D JUMPI DUP1 PUSH1 0x3 NOT CALLDATASIZE ADD SLT PUSH2 0x34D JUMPI PUSH1 0x3 SLOAD PUSH1 0x40 MLOAD PUSH1 0x1 PUSH1 0x1 PUSH1 0xA0 SHL SUB SWAP1 SWAP2 AND DUP2 MSTORE PUSH1 0x20 SWAP1 RETURN JUMPDEST POP CALLVALUE PUSH2 0x34D JUMPI PUSH1 0x20 CALLDATASIZE PUSH1 0x3 NOT ADD SLT PUSH2 0x34D JUMPI PUSH1 0x40 DUP2 PUSH1 0xA0 SWAP3 PUSH1 0x80 DUP4 MLOAD PUSH2 0x2226 DUP2 PUSH2 0x26C7 JUMP JUMPDEST DUP3 DUP2 MSTORE DUP3 PUSH1 0x20 DUP3 ADD MSTORE DUP3 DUP6 DUP3 ADD MSTORE DUP3 PUSH1 0x60 DUP3 ADD MSTORE ADD MSTORE PUSH1 0x4 CALLDATALOAD DUP2 MSTORE PUSH1 0x6F PUSH1 0x20 MSTORE KECCAK256 PUSH1 0x40 MLOAD SWAP1 PUSH2 0x2254 DUP3 PUSH2 0x26C7 JUMP JUMPDEST PUSH1 0x1 DUP1 DUP5 SHL SUB DUP2 SLOAD AND DUP3 MSTORE PUSH1 0x1 DUP2 ADD SLOAD SWAP1 PUSH1 0x20 DUP4 ADD SWAP2 DUP3 MSTORE PUSH2 0x22C3 PUSH1 0xFF PUSH1 0x2 DUP4 ADD SLOAD AND PUSH2 0x2285 PUSH1 0x40 DUP7 ADD SWAP2 DUP3 PUSH2 0x27E4 JUMP JUMPDEST PUSH1 0xFF PUSH1 0x4 PUSH1 0x3 DUP6 ADD SLOAD SWAP5 PUSH1 0x60 DUP9 ADD SWAP6 DUP7 MSTORE ADD SLOAD AND SWAP4 PUSH1 0x80 DUP7 ADD SWAP5 ISZERO ISZERO DUP6 MSTORE PUSH1 0x40 MLOAD SWAP6 PUSH1 0x1 DUP1 DUP10 SHL SUB SWAP1 MLOAD AND DUP7 MSTORE MLOAD PUSH1 0x20 DUP7 ADD MSTORE MLOAD PUSH1 0x40 DUP6 ADD SWAP1 PUSH2 0x26A4 JUMP JUMPDEST MLOAD PUSH1 0x60 DUP4 ADD MSTORE MLOAD ISZERO ISZERO PUSH1 0x80 DUP3 ADD MSTORE RETURN JUMPDEST POP CALLVALUE PUSH2 0x34D JUMPI PUSH1 0x40 CALLDATASIZE PUSH1 0x3 NOT ADD SLT PUSH2 0x34D JUMPI PUSH2 0x22ED PUSH2 0x2694 JUMP JUMPDEST SWAP1 PUSH2 0x22F6 PUSH2 0x2684 JUMP JUMPDEST SWAP2 PUSH2 0x22FF PUSH2 0x2B3F JUMP JUMPDEST PUSH2 0x2307 PUSH2 0x2B7B JUMP JUMPDEST PUSH1 0xFF DUP2 AND PUSH1 0x14 DUP2 LT ISZERO PUSH2 0x33B JUMPI POP PUSH1 0xFF DUP4 AND SWAP1 PUSH1 0x3 DUP3 GT PUSH2 0x25BB JUMPI PUSH1 0x14 DUP2 LT ISZERO PUSH2 0x4E4 JUMPI PUSH1 0x5 MUL PUSH1 0xFF PUSH1 0xD DUP3 PUSH1 0xA ADD SWAP3 ADD SLOAD PUSH1 0x8 SHR AND ISZERO PUSH2 0x25A8 JUMPI PUSH1 0x4 DUP3 LT ISZERO PUSH2 0x2594 JUMPI CALLER DUP4 MSTORE PUSH1 0x9 PUSH1 0x20 MSTORE PUSH2 0x2360 DUP3 PUSH1 0x40 DUP6 KECCAK256 PUSH2 0x2753 JUMP JUMPDEST SLOAD ISZERO PUSH2 0x2578 JUMPI CALLER DUP4 MSTORE PUSH1 0x9 PUSH1 0x20 MSTORE PUSH2 0x237B DUP3 PUSH1 0x40 DUP6 KECCAK256 PUSH2 0x2753 JUMP JUMPDEST SWAP4 DUP5 SLOAD PUSH1 0x0 NOT DUP2 ADD SWAP1 DUP2 GT PUSH2 0xE16 JUMPI DUP5 SWAP6 SSTORE DUP2 SLOAD SWAP1 PUSH1 0x71 SLOAD PUSH2 0x239C DUP2 PUSH2 0x286D JUMP JUMPDEST PUSH1 0x71 SSTORE PUSH1 0x40 MLOAD SWAP2 PUSH1 0x20 DUP4 ADD SWAP4 PUSH1 0x1 PUSH1 0x1 PUSH1 0x60 SHL SUB NOT CALLER PUSH1 0x60 SHL AND DUP6 MSTORE PUSH1 0x34 DUP5 ADD MSTORE PUSH1 0xFF PUSH1 0xF8 SHL SWAP1 PUSH1 0xF8 SHL AND PUSH1 0x54 DUP4 ADD MSTORE TIMESTAMP PUSH1 0x55 DUP4 ADD MSTORE PUSH1 0x75 DUP3 ADD MSTORE PUSH1 0x75 DUP2 MSTORE PUSH2 0x23E6 PUSH1 0x95 DUP3 PUSH2 0x2715 JUMP JUMPDEST MLOAD SWAP1 KECCAK256 PUSH1 0x2 SLOAD PUSH1 0x40 MLOAD PUSH4 0x71C8A239 PUSH1 0xE1 SHL DUP2 MSTORE PUSH1 0x4 DUP2 ADD DUP4 SWAP1 MSTORE SWAP5 PUSH1 0x20 SWAP2 DUP7 SWAP2 PUSH1 0x24 SWAP2 DUP4 SWAP2 SWAP1 PUSH1 0x1 PUSH1 0x1 PUSH1 0xA0 SHL SUB AND GAS CALL SWAP4 DUP5 ISZERO PUSH2 0x18EE JUMPI DUP6 SWAP5 PUSH2 0x2544 JUMPI JUMPDEST POP DUP2 SLOAD PUSH1 0x40 MLOAD SWAP1 PUSH2 0x2435 DUP3 PUSH2 0x26C7 JUMP JUMPDEST CALLER DUP3 MSTORE PUSH1 0x20 DUP3 ADD SWAP1 DUP2 MSTORE PUSH1 0x40 DUP3 ADD PUSH2 0x244D DUP7 DUP3 PUSH2 0x27E4 JUMP JUMPDEST TIMESTAMP PUSH1 0x60 DUP5 ADD SWAP1 DUP2 MSTORE PUSH1 0x80 DUP5 ADD DUP10 DUP2 MSTORE DUP9 DUP11 MSTORE PUSH1 0x6F PUSH1 0x20 MSTORE PUSH1 0x40 DUP11 KECCAK256 SWAP5 MLOAD DUP6 SLOAD PUSH1 0x1 PUSH1 0x1 PUSH1 0xA0 SHL SUB NOT AND PUSH1 0x1 PUSH1 0x1 PUSH1 0xA0 SHL SUB SWAP2 SWAP1 SWAP2 AND OR DUP6 SSTORE SWAP3 MLOAD PUSH1 0x1 DUP6 ADD SSTORE SWAP1 MLOAD PUSH1 0x2 DUP5 ADD SWAP1 PUSH1 0x4 DUP2 LT ISZERO PUSH2 0x2530 JUMPI DUP10 SWAP4 PUSH2 0x24D5 SWAP4 PUSH1 0x40 SWAP7 SWAP4 PUSH1 0x4 SWAP4 PUSH1 0x20 SWAP14 POP PUSH1 0xFF DUP1 NOT DUP4 SLOAD AND SWAP2 AND OR SWAP1 SSTORE MLOAD PUSH1 0x3 DUP5 ADD SSTORE MLOAD ISZERO ISZERO SWAP2 ADD SWAP1 PUSH1 0xFF DUP1 NOT DUP4 SLOAD AND SWAP2 ISZERO ISZERO AND OR SWAP1 SSTORE JUMP JUMPDEST DUP6 DUP2 MSTORE PUSH1 0x70 DUP8 MSTORE KECCAK256 SSTORE SLOAD SWAP1 PUSH1 0x40 MLOAD SWAP2 DUP3 MSTORE DUP4 DUP3 ADD MSTORE DUP2 PUSH1 0x40 DUP3 ADD MSTORE PUSH32 0x5E0C015D137A94A9E864E17092FB126241C929614B46C3BC32163B46DE9BF05B PUSH1 0x60 CALLER SWAP3 LOG2 PUSH1 0x1 PUSH1 0x0 DUP1 MLOAD PUSH1 0x20 PUSH2 0x3298 DUP4 CODECOPY DUP2 MLOAD SWAP2 MSTORE SSTORE PUSH1 0x40 MLOAD SWAP1 DUP2 MSTORE RETURN JUMPDEST PUSH4 0x4E487B71 PUSH1 0xE0 SHL DUP11 MSTORE PUSH1 0x21 PUSH1 0x4 MSTORE PUSH1 0x24 DUP11 REVERT JUMPDEST SWAP1 SWAP4 POP PUSH1 0x20 DUP2 RETURNDATASIZE PUSH1 0x20 GT PUSH2 0x2570 JUMPI JUMPDEST DUP2 PUSH2 0x2560 PUSH1 0x20 SWAP4 DUP4 PUSH2 0x2715 JUMP JUMPDEST DUP2 ADD SUB SLT PUSH2 0x1129 JUMPI MLOAD SWAP3 CODESIZE PUSH2 0x2425 JUMP JUMPDEST RETURNDATASIZE SWAP2 POP PUSH2 0x2553 JUMP JUMPDEST PUSH1 0x64 DUP4 DUP4 PUSH4 0x9F27773F PUSH1 0xE0 SHL DUP3 MSTORE PUSH1 0x4 MSTORE PUSH1 0x1 PUSH1 0x24 MSTORE DUP1 PUSH1 0x44 MSTORE REVERT JUMPDEST PUSH4 0x4E487B71 PUSH1 0xE0 SHL DUP4 MSTORE PUSH1 0x21 PUSH1 0x4 MSTORE PUSH1 0x24 DUP4 REVERT JUMPDEST SLOAD PUSH4 0x32C3E471 PUSH1 0xE2 SHL DUP4 MSTORE PUSH1 0x4 MSTORE PUSH1 0x24 DUP3 REVERT JUMPDEST PUSH4 0xFAB9B837 PUSH1 0xE0 SHL DUP4 MSTORE PUSH1 0x4 DUP3 SWAP1 MSTORE PUSH1 0x24 DUP4 REVERT JUMPDEST POP CALLVALUE PUSH2 0x34D JUMPI PUSH1 0x40 CALLDATASIZE PUSH1 0x3 NOT ADD SLT PUSH2 0x34D JUMPI PUSH2 0x25E9 PUSH2 0x266E JUMP JUMPDEST SWAP1 PUSH1 0xFF PUSH2 0x25F4 PUSH2 0x2684 JUMP JUMPDEST AND SWAP2 PUSH1 0x3 DUP4 GT PUSH2 0x263C JUMPI PUSH1 0x1 PUSH1 0x1 PUSH1 0xA0 SHL SUB AND DUP2 MSTORE PUSH1 0x9 PUSH1 0x20 MSTORE PUSH1 0x40 DUP2 KECCAK256 SWAP1 PUSH1 0x4 DUP4 LT ISZERO PUSH2 0x2628 JUMPI PUSH1 0x20 PUSH2 0xC69 DUP5 DUP5 PUSH2 0x2753 JUMP JUMPDEST PUSH4 0x4E487B71 PUSH1 0xE0 SHL DUP2 MSTORE PUSH1 0x21 PUSH1 0x4 MSTORE PUSH1 0x24 SWAP1 REVERT JUMPDEST POP PUSH1 0x24 SWAP2 PUSH4 0xFAB9B837 PUSH1 0xE0 SHL DUP3 MSTORE PUSH1 0x4 MSTORE REVERT JUMPDEST POP CALLVALUE PUSH2 0x34D JUMPI PUSH1 0x20 CALLDATASIZE PUSH1 0x3 NOT ADD SLT PUSH2 0x34D JUMPI PUSH1 0x20 PUSH2 0x938 PUSH1 0x4 CALLDATALOAD PUSH2 0x2787 JUMP JUMPDEST PUSH1 0x4 CALLDATALOAD SWAP1 PUSH1 0x1 PUSH1 0x1 PUSH1 0xA0 SHL SUB DUP3 AND DUP3 SUB PUSH2 0xE6E JUMPI JUMP JUMPDEST PUSH1 0x24 CALLDATALOAD SWAP1 PUSH1 0xFF DUP3 AND DUP3 SUB PUSH2 0xE6E JUMPI JUMP JUMPDEST PUSH1 0x4 CALLDATALOAD SWAP1 PUSH1 0xFF DUP3 AND DUP3 SUB PUSH2 0xE6E JUMPI JUMP JUMPDEST SWAP1 PUSH1 0x4 DUP3 LT ISZERO PUSH2 0x26B1 JUMPI MSTORE JUMP JUMPDEST PUSH4 0x4E487B71 PUSH1 0xE0 SHL PUSH1 0x0 MSTORE PUSH1 0x21 PUSH1 0x4 MSTORE PUSH1 0x24 PUSH1 0x0 REVERT JUMPDEST PUSH1 0xA0 DUP2 ADD SWAP1 DUP2 LT PUSH8 0xFFFFFFFFFFFFFFFF DUP3 GT OR PUSH2 0x26E3 JUMPI PUSH1 0x40 MSTORE JUMP JUMPDEST PUSH4 0x4E487B71 PUSH1 0xE0 SHL PUSH1 0x0 MSTORE PUSH1 0x41 PUSH1 0x4 MSTORE PUSH1 0x24 PUSH1 0x0 REVERT JUMPDEST PUSH1 0xC0 DUP2 ADD SWAP1 DUP2 LT PUSH8 0xFFFFFFFFFFFFFFFF DUP3 GT OR PUSH2 0x26E3 JUMPI PUSH1 0x40 MSTORE JUMP JUMPDEST SWAP1 PUSH1 0x1F DUP1 NOT SWAP2 ADD AND DUP2 ADD SWAP1 DUP2 LT PUSH8 0xFFFFFFFFFFFFFFFF DUP3 GT OR PUSH2 0x26E3 JUMPI PUSH1 0x40 MSTORE JUMP JUMPDEST PUSH8 0xFFFFFFFFFFFFFFFF DUP2 GT PUSH2 0x26E3 JUMPI PUSH1 0x1F ADD PUSH1 0x1F NOT AND PUSH1 0x20 ADD SWAP1 JUMP JUMPDEST SWAP1 PUSH1 0x4 DUP2 LT ISZERO PUSH2 0x26B1 JUMPI PUSH1 0x0 MSTORE PUSH1 0x20 MSTORE PUSH1 0x40 PUSH1 0x0 KECCAK256 SWAP1 JUMP JUMPDEST CALLVALUE PUSH2 0xE6E JUMPI PUSH1 0x0 CALLDATASIZE PUSH1 0x3 NOT ADD SLT PUSH2 0xE6E JUMPI PUSH1 0x20 PUSH1 0x40 MLOAD PUSH1 0x14 DUP2 MSTORE RETURN JUMPDEST PUSH9 0x56BC75E2D63100000 DUP2 MUL SWAP1 DUP1 DUP3 DIV PUSH9 0x56BC75E2D63100000 EQ SWAP1 ISZERO OR ISZERO PUSH2 0x27CE JUMPI PUSH1 0x72 SLOAD SWAP1 DUP2 ISZERO PUSH2 0x27B8 JUMPI DIV SWAP1 JUMP JUMPDEST PUSH4 0x4E487B71 PUSH1 0xE0 SHL PUSH1 0x0 MSTORE PUSH1 0x12 PUSH1 0x4 MSTORE PUSH1 0x24 PUSH1 0x0 REVERT JUMPDEST PUSH4 0x4E487B71 PUSH1 0xE0 SHL PUSH1 0x0 MSTORE PUSH1 0x11 PUSH1 0x4 MSTORE PUSH1 0x24 PUSH1 0x0 REVERT JUMPDEST PUSH1 0x4 DUP3 LT ISZERO PUSH2 0x26B1 JUMPI MSTORE JUMP JUMPDEST PUSH1 0x73 SLOAD PUSH1 0x1 PUSH1 0x1 PUSH1 0xA0 SHL SUB AND DUP1 ISZERO PUSH2 0x2867 JUMPI PUSH1 0x20 PUSH1 0x4 SWAP2 PUSH1 0x40 MLOAD SWAP3 DUP4 DUP1 SWAP3 PUSH4 0x579EF8B PUSH1 0xE5 SHL DUP3 MSTORE GAS STATICCALL SWAP1 DUP2 ISZERO PUSH2 0x285B JUMPI PUSH1 0x0 SWAP2 PUSH2 0x282C JUMPI POP SWAP1 JUMP JUMPDEST SWAP1 POP PUSH1 0x20 DUP2 RETURNDATASIZE PUSH1 0x20 GT PUSH2 0x2853 JUMPI JUMPDEST DUP2 PUSH2 0x2847 PUSH1 0x20 SWAP4 DUP4 PUSH2 0x2715 JUMP JUMPDEST DUP2 ADD SUB SLT PUSH2 0xE6E JUMPI MLOAD SWAP1 JUMP JUMPDEST RETURNDATASIZE SWAP2 POP PUSH2 0x283A JUMP JUMPDEST PUSH1 0x40 MLOAD RETURNDATASIZE PUSH1 0x0 DUP3 RETURNDATACOPY RETURNDATASIZE SWAP1 REVERT JUMPDEST POP PUSH1 0x0 SWAP1 JUMP JUMPDEST PUSH1 0x0 NOT DUP2 EQ PUSH2 0x27CE JUMPI PUSH1 0x1 ADD SWAP1 JUMP JUMPDEST SWAP2 SWAP1 DUP3 ADD DUP1 SWAP3 GT PUSH2 0x27CE JUMPI JUMP JUMPDEST DUP2 MLOAD DUP2 SSTORE PUSH1 0x20 DUP3 ADD MLOAD PUSH1 0x1 DUP3 ADD SSTORE PUSH1 0x40 DUP3 ADD MLOAD PUSH1 0x2 DUP3 ADD SSTORE PUSH1 0x60 DUP3 ADD MLOAD PUSH1 0x3 DUP3 ADD DUP1 SLOAD PUSH1 0x80 DUP6 ADD MLOAD PUSH2 0xFF00 SWAP1 ISZERO ISZERO PUSH1 0x8 SHL AND PUSH1 0xFF SWAP1 SWAP4 AND PUSH2 0xFFFF NOT SWAP1 SWAP2 AND OR SWAP2 SWAP1 SWAP2 OR SWAP1 SSTORE PUSH1 0xA0 SWAP1 SWAP2 ADD MLOAD PUSH1 0x4 SWAP1 SWAP2 ADD SSTORE JUMP JUMPDEST SWAP1 DUP2 PUSH1 0x0 MSTORE PUSH1 0x6F PUSH1 0x20 MSTORE PUSH1 0x40 PUSH1 0x0 KECCAK256 SWAP2 PUSH1 0x1 DUP1 PUSH1 0xA0 SHL SUB DUP4 SLOAD AND SWAP1 DUP2 ISZERO PUSH2 0x2945 JUMPI PUSH1 0x4 DUP5 ADD SWAP1 DUP2 SLOAD SWAP1 PUSH1 0xFF DUP3 AND PUSH2 0x2931 JUMPI POP PUSH1 0xFF NOT AND PUSH1 0x1 OR SWAP1 SSTORE ADDRESS EQ PUSH2 0x2928 JUMPI PUSH2 0x2926 SWAP2 PUSH2 0x2CBD JUMP JUMPDEST JUMP JUMPDEST PUSH2 0x2926 SWAP2 PUSH2 0x2BDB JUMP JUMPDEST PUSH4 0x3F8CBCED PUSH1 0xE2 SHL PUSH1 0x0 MSTORE PUSH1 0x4 MSTORE PUSH1 0x24 PUSH1 0x0 REVERT JUMPDEST PUSH4 0x98354E9 PUSH1 0xE4 SHL PUSH1 0x0 MSTORE PUSH1 0x4 MSTORE PUSH1 0x24 PUSH1 0x0 REVERT JUMPDEST PUSH1 0x40 MLOAD SWAP1 PUSH2 0x2966 DUP3 PUSH2 0x26F9 JUMP JUMPDEST PUSH1 0x0 PUSH1 0xA0 DUP4 DUP3 DUP2 MSTORE DUP3 PUSH1 0x20 DUP3 ADD MSTORE DUP3 PUSH1 0x40 DUP3 ADD MSTORE DUP3 PUSH1 0x60 DUP3 ADD MSTORE DUP3 PUSH1 0x80 DUP3 ADD MSTORE ADD MSTORE JUMP JUMPDEST SWAP1 PUSH1 0x40 MLOAD PUSH2 0x2997 DUP2 PUSH2 0x26F9 JUMP JUMPDEST PUSH1 0xA0 PUSH1 0x4 DUP3 SWAP5 DUP1 SLOAD DUP5 MSTORE PUSH1 0x1 DUP2 ADD SLOAD PUSH1 0x20 DUP6 ADD MSTORE PUSH1 0x2 DUP2 ADD SLOAD PUSH1 0x40 DUP6 ADD MSTORE PUSH1 0xFF PUSH1 0x3 DUP3 ADD SLOAD DUP2 DUP2 AND PUSH1 0x60 DUP8 ADD MSTORE PUSH1 0x8 SHR AND ISZERO ISZERO PUSH1 0x80 DUP6 ADD MSTORE ADD SLOAD SWAP2 ADD MSTORE JUMP JUMPDEST PUSH1 0x4 DUP2 LT ISZERO PUSH2 0x26B1 JUMPI DUP1 ISZERO PUSH2 0x2A38 JUMPI PUSH1 0x0 PUSH1 0x1 DUP3 EQ PUSH2 0x2A2F JUMPI POP PUSH1 0x2 DUP2 EQ PUSH2 0x2A26 JUMPI PUSH1 0x0 PUSH1 0x3 DUP3 EQ PUSH2 0x2A1C JUMPI PUSH1 0xFF SWAP3 POP POP PUSH4 0xFAB9B837 PUSH1 0xE0 SHL PUSH1 0x0 MSTORE AND PUSH1 0x4 MSTORE PUSH1 0x24 PUSH1 0x0 REVERT JUMPDEST POP POP PUSH4 0x2F969E0 SWAP1 JUMP JUMPDEST POP PUSH4 0x17D7840 SWAP1 JUMP JUMPDEST POP POP PUSH3 0x989680 SWAP1 JUMP JUMPDEST POP PUSH3 0xF4240 SWAP1 JUMP JUMPDEST PUSH1 0xFF AND PUSH1 0xFF DUP2 EQ PUSH2 0x27CE JUMPI PUSH1 0x1 ADD SWAP1 JUMP JUMPDEST PUSH8 0xFFFFFFFFFFFFFFFF DUP2 GT PUSH2 0x26E3 JUMPI PUSH1 0x5 SHL PUSH1 0x20 ADD SWAP1 JUMP JUMPDEST PUSH1 0x4 DUP2 LT ISZERO PUSH2 0x26B1 JUMPI DUP1 ISZERO PUSH2 0x2AC3 JUMPI PUSH1 0x0 PUSH1 0x1 DUP3 EQ PUSH2 0x2ABC JUMPI POP PUSH1 0x2 DUP2 EQ PUSH2 0x2AB6 JUMPI PUSH1 0x0 PUSH1 0x3 DUP3 EQ PUSH2 0x2AAF JUMPI PUSH1 0xFF SWAP3 POP POP PUSH4 0xFAB9B837 PUSH1 0xE0 SHL PUSH1 0x0 MSTORE AND PUSH1 0x4 MSTORE PUSH1 0x24 PUSH1 0x0 REVERT JUMPDEST POP POP PUSH1 0x63 SWAP1 JUMP JUMPDEST POP PUSH1 0x32 SWAP1 JUMP JUMPDEST POP POP PUSH1 0x14 SWAP1 JUMP JUMPDEST POP PUSH1 0x2 SWAP1 JUMP JUMPDEST PUSH1 0x1 PUSH1 0x1 PUSH1 0xA0 SHL SUB AND DUP1 ISZERO PUSH2 0x2B29 JUMPI PUSH1 0x0 DUP1 MLOAD PUSH1 0x20 PUSH2 0x3238 DUP4 CODECOPY DUP2 MLOAD SWAP2 MSTORE DUP1 SLOAD PUSH1 0x1 PUSH1 0x1 PUSH1 0xA0 SHL SUB NOT DUP2 AND DUP4 OR SWAP1 SWAP2 SSTORE PUSH1 0x1 PUSH1 0x1 PUSH1 0xA0 SHL SUB AND PUSH32 0x8BE0079C531659141344CD1FD0A4F28419497F9722A3DAAFE3B4186F6B6457E0 PUSH1 0x0 DUP1 LOG3 JUMP JUMPDEST PUSH4 0x1E4FBDF7 PUSH1 0xE0 SHL PUSH1 0x0 MSTORE PUSH1 0x0 PUSH1 0x4 MSTORE PUSH1 0x24 PUSH1 0x0 REVERT JUMPDEST PUSH1 0x2 PUSH1 0x0 DUP1 MLOAD PUSH1 0x20 PUSH2 0x3298 DUP4 CODECOPY DUP2 MLOAD SWAP2 MSTORE SLOAD EQ PUSH2 0x2B6A JUMPI PUSH1 0x2 PUSH1 0x0 DUP1 MLOAD PUSH1 0x20 PUSH2 0x3298 DUP4 CODECOPY DUP2 MLOAD SWAP2 MSTORE SSTORE JUMP JUMPDEST PUSH4 0x3EE5AEB5 PUSH1 0xE0 SHL PUSH1 0x0 MSTORE PUSH1 0x4 PUSH1 0x0 REVERT JUMPDEST PUSH1 0xFF PUSH1 0x0 DUP1 MLOAD PUSH1 0x20 PUSH2 0x3278 DUP4 CODECOPY DUP2 MLOAD SWAP2 MSTORE SLOAD AND PUSH2 0x2B94 JUMPI JUMP JUMPDEST PUSH4 0xD93C0665 PUSH1 0xE0 SHL PUSH1 0x0 MSTORE PUSH1 0x4 PUSH1 0x0 REVERT JUMPDEST PUSH1 0x0 DUP1 MLOAD PUSH1 0x20 PUSH2 0x3238 DUP4 CODECOPY DUP2 MLOAD SWAP2 MSTORE SLOAD PUSH1 0x1 PUSH1 0x1 PUSH1 0xA0 SHL SUB AND CALLER SUB PUSH2 0x2BC6 JUMPI JUMP JUMPDEST PUSH4 0x118CDAA7 PUSH1 0xE0 SHL PUSH1 0x0 MSTORE CALLER PUSH1 0x4 MSTORE PUSH1 0x24 PUSH1 0x0 REVERT JUMPDEST SWAP1 PUSH1 0xFF PUSH1 0x2 DUP4 ADD SLOAD AND SWAP2 PUSH1 0x4 DUP4 LT ISZERO PUSH2 0x26B1 JUMPI PUSH1 0x14 DUP4 LT ISZERO PUSH2 0x2CB8 JUMPI PUSH1 0x0 PUSH1 0x5 DUP5 MUL SWAP4 PUSH1 0xFF PUSH1 0xD DUP7 ADD SLOAD PUSH1 0x8 SHR AND PUSH2 0x2CB1 JUMPI PUSH32 0x156F6FEF57E34329718D6EFBD41F31A81AFD51D967D24F97B94EB576DCA20CFE SWAP5 PUSH2 0x2C82 DUP4 PUSH2 0x2CAC SWAP5 POP PUSH1 0x1 PUSH2 0x3E8 DUP1 DUP10 MOD SWAP9 PUSH1 0x80 SHR MOD SWAP7 ADD SWAP3 DUP4 SLOAD SWAP2 PUSH1 0x40 MLOAD SWAP3 PUSH2 0x2C58 DUP5 PUSH2 0x26F9 JUMP JUMPDEST DUP4 MSTORE DUP9 PUSH1 0x20 DUP5 ADD MSTORE DUP8 PUSH1 0x40 DUP5 ADD MSTORE DUP1 PUSH1 0x60 DUP5 ADD MSTORE PUSH1 0x1 PUSH1 0x80 DUP5 ADD MSTORE TIMESTAMP PUSH1 0xA0 DUP5 ADD MSTORE POP PUSH1 0xA ADD PUSH2 0x2889 JUMP JUMPDEST SLOAD SWAP3 PUSH1 0x40 MLOAD SWAP5 DUP6 SWAP5 DUP6 SWAP3 SWAP4 PUSH1 0xFF SWAP2 SWAP6 SWAP5 PUSH1 0x60 SWAP4 PUSH1 0x80 DUP7 ADD SWAP8 DUP7 MSTORE PUSH1 0x20 DUP7 ADD MSTORE PUSH1 0x40 DUP6 ADD MSTORE AND SWAP2 ADD MSTORE JUMP JUMPDEST SUB SWAP1 LOG1 JUMP JUMPDEST POP POP POP POP POP JUMP JUMPDEST POP POP POP JUMP JUMPDEST PUSH2 0x2CCA PUSH1 0x1 DUP3 ADD SLOAD PUSH2 0x3136 JUMP JUMPDEST SWAP3 SWAP1 ISZERO DUP1 ISZERO PUSH2 0x308F JUMPI JUMPDEST PUSH2 0x2CB8 JUMPI PUSH1 0x14 DUP4 LT ISZERO PUSH2 0x3079 JUMPI PUSH1 0x5 DUP4 MUL SWAP2 DUP3 PUSH1 0xA ADD SWAP2 PUSH1 0xFF PUSH2 0x2CFC DUP2 PUSH1 0x2 DUP6 ADD SLOAD AND PUSH2 0x2A69 JUMP JUMPDEST AND PUSH1 0x64 DUP3 MOD LT ISZERO PUSH2 0x2F93 JUMPI POP SLOAD SWAP1 SLOAD PUSH1 0xD SWAP3 SWAP1 SWAP3 ADD DUP1 SLOAD PUSH2 0xFF00 NOT AND SWAP1 SSTORE PUSH1 0x73 SLOAD PUSH1 0x1 PUSH1 0x1 PUSH1 0xA0 SHL SUB SWAP2 DUP3 AND SWAP2 PUSH1 0x0 SWAP2 AND DUP1 PUSH2 0x2EFB JUMPI JUMPDEST POP PUSH1 0x40 PUSH32 0xE1EF7825C332C25296359D37AF815442CBD1FD6D620D8271B4180BD68F834BB0 SWAP2 DUP2 MLOAD SWAP1 DUP6 DUP3 MSTORE PUSH1 0x20 DUP3 ADD MSTORE LOG2 PUSH2 0x3E8 DUP2 ADD DUP1 SWAP2 GT PUSH2 0x27CE JUMPI PUSH1 0x0 SWAP1 PUSH1 0x71 SLOAD PUSH2 0x2D7F DUP2 PUSH2 0x286D JUMP JUMPDEST PUSH1 0x71 SSTORE PUSH1 0x40 MLOAD PUSH1 0x20 DUP2 ADD SWAP2 PUSH1 0x1 PUSH1 0x1 PUSH1 0x60 SHL SUB NOT ADDRESS PUSH1 0x60 SHL AND DUP4 MSTORE DUP4 PUSH1 0x34 DUP4 ADD MSTORE PUSH1 0x7F PUSH1 0xF9 SHL PUSH1 0x54 DUP4 ADD MSTORE TIMESTAMP PUSH1 0x55 DUP4 ADD MSTORE PUSH1 0x75 DUP3 ADD MSTORE PUSH1 0x75 DUP2 MSTORE PUSH2 0x2DC4 PUSH1 0x95 DUP3 PUSH2 0x2715 JUMP JUMPDEST MLOAD SWAP1 KECCAK256 SWAP3 PUSH1 0x20 PUSH1 0x1 DUP1 PUSH1 0xA0 SHL SUB PUSH1 0x2 SLOAD AND PUSH1 0x24 PUSH1 0x40 MLOAD DUP1 SWAP7 DUP2 SWAP4 PUSH4 0x71C8A239 PUSH1 0xE1 SHL DUP4 MSTORE DUP10 PUSH1 0x4 DUP5 ADD MSTORE GAS CALL SWAP3 DUP4 ISZERO PUSH2 0x285B JUMPI PUSH1 0x0 SWAP4 PUSH2 0x2EC6 JUMPI JUMPDEST POP PUSH1 0xFF AND SWAP1 PUSH1 0x4 DUP3 LT ISZERO PUSH2 0x26B1 JUMPI PUSH1 0x40 MLOAD SWAP1 PUSH2 0x2E1A DUP3 PUSH2 0x26C7 JUMP JUMPDEST ADDRESS DUP3 MSTORE PUSH1 0x20 DUP3 ADD SWAP1 DUP2 MSTORE PUSH2 0x2E32 PUSH1 0x40 DUP4 ADD SWAP4 DUP5 PUSH2 0x27E4 JUMP JUMPDEST TIMESTAMP PUSH1 0x60 DUP4 ADD SWAP1 DUP2 MSTORE PUSH1 0x0 PUSH1 0x80 DUP5 ADD DUP2 DUP2 MSTORE DUP7 DUP3 MSTORE PUSH1 0x6F PUSH1 0x20 MSTORE PUSH1 0x40 SWAP1 SWAP2 KECCAK256 SWAP4 MLOAD DUP5 SLOAD PUSH1 0x1 PUSH1 0x1 PUSH1 0xA0 SHL SUB NOT AND PUSH1 0x1 PUSH1 0x1 PUSH1 0xA0 SHL SUB SWAP2 SWAP1 SWAP2 AND OR DUP5 SSTORE SWAP2 MLOAD PUSH1 0x1 DUP5 ADD SSTORE SWAP3 MLOAD PUSH1 0x2 DUP4 ADD SWAP4 SWAP1 SWAP2 SWAP1 PUSH1 0x4 DUP4 LT ISZERO PUSH2 0x26B1 JUMPI PUSH2 0x2EB6 SWAP5 PUSH1 0x4 SWAP4 PUSH1 0xFF DUP1 NOT DUP4 SLOAD AND SWAP2 AND OR SWAP1 SSTORE MLOAD PUSH1 0x3 DUP5 ADD SSTORE MLOAD ISZERO ISZERO SWAP2 ADD SWAP1 PUSH1 0xFF DUP1 NOT DUP4 SLOAD AND SWAP2 ISZERO ISZERO AND OR SWAP1 SSTORE JUMP JUMPDEST PUSH1 0x0 MSTORE PUSH1 0x70 PUSH1 0x20 MSTORE PUSH1 0x40 PUSH1 0x0 KECCAK256 SSTORE JUMP JUMPDEST SWAP1 SWAP3 PUSH1 0x20 DUP3 RETURNDATASIZE PUSH1 0x20 GT PUSH2 0x2EF3 JUMPI JUMPDEST DUP2 PUSH2 0x2EE1 PUSH1 0x20 SWAP4 DUP4 PUSH2 0x2715 JUMP JUMPDEST DUP2 ADD SUB SLT PUSH2 0x34D JUMPI POP MLOAD SWAP2 PUSH1 0xFF PUSH2 0x2DFF JUMP JUMPDEST RETURNDATASIZE SWAP2 POP PUSH2 0x2ED4 JUMP JUMPDEST PUSH1 0x20 DUP3 SWAP2 PUSH1 0x24 PUSH1 0x40 MLOAD DUP1 SWAP5 DUP2 SWAP4 PUSH4 0x78B5AA8F PUSH1 0xE0 SHL DUP4 MSTORE DUP9 PUSH1 0x4 DUP5 ADD MSTORE GAS CALL SWAP2 DUP3 ISZERO PUSH2 0x2F87 JUMPI DUP1 SWAP3 PUSH2 0x2F31 JUMPI JUMPDEST POP POP PUSH1 0x40 PUSH2 0x2D33 JUMP JUMPDEST SWAP1 SWAP2 POP PUSH1 0x20 DUP3 RETURNDATASIZE PUSH1 0x20 GT PUSH2 0x2F7F JUMPI JUMPDEST DUP2 PUSH2 0x2F4D PUSH1 0x20 SWAP4 DUP4 PUSH2 0x2715 JUMP JUMPDEST DUP2 ADD SUB SLT PUSH2 0x34D JUMPI POP MLOAD PUSH1 0x40 PUSH32 0xE1EF7825C332C25296359D37AF815442CBD1FD6D620D8271B4180BD68F834BB0 PUSH2 0x2F28 JUMP JUMPDEST RETURNDATASIZE SWAP2 POP PUSH2 0x2F40 JUMP JUMPDEST PUSH1 0x40 MLOAD SWAP1 RETURNDATASIZE SWAP1 DUP3 RETURNDATACOPY RETURNDATASIZE SWAP1 REVERT JUMPDEST SWAP2 SWAP4 POP PUSH1 0x1 DUP1 PUSH1 0xA0 SHL SUB SWAP1 SLOAD AND SWAP2 PUSH1 0xD DUP2 ADD SWAP3 PUSH1 0xFF PUSH2 0x2FB4 DUP2 DUP7 SLOAD AND PUSH2 0x2A40 JUMP JUMPDEST AND PUSH1 0xFF NOT DUP6 SLOAD AND OR DUP5 SSTORE PUSH1 0xFF DUP5 SLOAD AND DUP1 PUSH1 0x3 SUB SWAP2 PUSH1 0xFF DUP4 GT PUSH2 0x27CE JUMPI PUSH32 0xDE2C7625951EF209E3B14DC5DE7C713AAF12A680817DF0BA922F064834ED47E4 PUSH1 0x40 PUSH1 0x3 SWAP5 PUSH1 0xFF DUP11 SLOAD SWAP2 DUP4 MLOAD SWAP3 DUP4 MSTORE AND PUSH1 0x20 DUP3 ADD MSTORE LOG2 LT ISZERO PUSH2 0x3014 JUMPI JUMPDEST POP POP POP POP JUMP JUMPDEST PUSH32 0x991F141B1F67192A98969CD4005F41D17EF23A517C6975606AF1C6F48A0AE37D SWAP4 PUSH1 0x60 SWAP4 PUSH1 0xC SWAP3 PUSH2 0x3E8 DUP1 DUP7 PUSH1 0x8 SHR MOD SWAP6 PUSH1 0x10 SHR MOD SWAP4 DUP2 DUP7 PUSH1 0xB DUP8 SWAP5 ADD SSTORE ADD SSTORE PUSH1 0xFF NOT DUP2 SLOAD AND SWAP1 SSTORE SLOAD SWAP2 PUSH1 0x40 MLOAD SWAP3 DUP4 MSTORE PUSH1 0x20 DUP4 ADD MSTORE PUSH1 0x40 DUP3 ADD MSTORE LOG1 CODESIZE DUP1 DUP1 DUP1 PUSH2 0x300E JUMP JUMPDEST PUSH4 0x4E487B71 PUSH1 0xE0 SHL PUSH1 0x0 MSTORE PUSH1 0x32 PUSH1 0x4 MSTORE PUSH1 0x24 PUSH1 0x0 REVERT JUMPDEST POP PUSH1 0x14 DUP4 LT ISZERO PUSH2 0x3079 JUMPI PUSH1 0xFF PUSH1 0xD PUSH1 0x5 DUP6 MUL ADD SLOAD PUSH1 0x8 SHR AND ISZERO PUSH2 0x2CD4 JUMP JUMPDEST SWAP1 PUSH1 0x0 PUSH1 0x20 SWAP2 DUP3 DUP2 MLOAD SWAP2 ADD DUP3 DUP6 GAS CALL ISZERO PUSH2 0x285B JUMPI PUSH1 0x0 MLOAD RETURNDATASIZE PUSH2 0x30FF JUMPI POP PUSH1 0x1 PUSH1 0x1 PUSH1 0xA0 SHL SUB DUP2 AND EXTCODESIZE ISZERO JUMPDEST PUSH2 0x30DE JUMPI POP JUMP JUMPDEST PUSH4 0x5274AFE7 PUSH1 0xE0 SHL PUSH1 0x0 SWAP1 DUP2 MSTORE PUSH1 0x1 PUSH1 0x1 PUSH1 0xA0 SHL SUB SWAP2 SWAP1 SWAP2 AND PUSH1 0x4 MSTORE PUSH1 0x24 SWAP1 REVERT JUMPDEST PUSH1 0x1 EQ ISZERO PUSH2 0x30D7 JUMP JUMPDEST PUSH1 0xFF PUSH1 0x0 DUP1 MLOAD PUSH1 0x20 PUSH2 0x32B8 DUP4 CODECOPY DUP2 MLOAD SWAP2 MSTORE SLOAD PUSH1 0x40 SHR AND ISZERO PUSH2 0x3125 JUMPI JUMP JUMPDEST PUSH4 0x1AFCD79F PUSH1 0xE3 SHL PUSH1 0x0 MSTORE PUSH1 0x4 PUSH1 0x0 REVERT JUMPDEST SWAP1 PUSH1 0x0 JUMPDEST PUSH1 0x14 PUSH1 0xFF DUP3 AND LT PUSH2 0x314E JUMPI POP PUSH1 0x0 SWAP2 POP DUP2 SWAP1 JUMP JUMPDEST PUSH1 0x14 DUP2 LT ISZERO PUSH2 0x3079 JUMPI PUSH1 0x5 DUP2 MUL DUP4 DUP2 PUSH1 0xA ADD SLOAD EQ SWAP1 DUP2 PUSH2 0x3180 JUMPI JUMPDEST POP PUSH2 0x3179 JUMPI PUSH1 0x1 ADD PUSH1 0xFF AND PUSH2 0x313A JUMP JUMPDEST PUSH1 0x1 SWAP3 POP SWAP1 JUMP JUMPDEST PUSH1 0xFF SWAP2 POP PUSH1 0xD ADD SLOAD PUSH1 0x8 SHR AND CODESIZE PUSH2 0x3169 JUMP JUMPDEST PUSH1 0x40 MLOAD PUSH4 0x23B872DD PUSH1 0xE0 SHL PUSH1 0x20 DUP3 ADD MSTORE PUSH1 0x1 PUSH1 0x1 PUSH1 0xA0 SHL SUB SWAP3 DUP4 AND PUSH1 0x24 DUP3 ADD MSTORE SWAP3 SWAP1 SWAP2 AND PUSH1 0x44 DUP4 ADD MSTORE PUSH1 0x64 DUP1 DUP4 ADD SWAP4 SWAP1 SWAP4 MSTORE SWAP2 DUP2 MSTORE PUSH2 0x2926 SWAP2 PUSH2 0x1194 PUSH1 0x84 DUP4 PUSH2 0x2715 JUMP JUMPDEST SWAP1 PUSH2 0x31FC JUMPI POP DUP1 MLOAD ISZERO PUSH2 0x31EB JUMPI PUSH1 0x20 DUP2 MLOAD SWAP2 ADD REVERT JUMPDEST PUSH4 0xD6BDA275 PUSH1 0xE0 SHL PUSH1 0x0 MSTORE PUSH1 0x4 PUSH1 0x0 REVERT JUMPDEST DUP2 MLOAD ISZERO DUP1 PUSH2 0x322E JUMPI JUMPDEST PUSH2 0x320D JUMPI POP SWAP1 JUMP JUMPDEST PUSH4 0x9996B315 PUSH1 0xE0 SHL PUSH1 0x0 SWAP1 DUP2 MSTORE PUSH1 0x1 PUSH1 0x1 PUSH1 0xA0 SHL SUB SWAP2 SWAP1 SWAP2 AND PUSH1 0x4 MSTORE PUSH1 0x24 SWAP1 REVERT JUMPDEST POP DUP1 EXTCODESIZE ISZERO PUSH2 0x3205 JUMP INVALID SWAP1 AND 0xD0 SWAP14 PUSH19 0xD40FDAE2FD8CEAC6B6234C7706214FD39C1CD1 0xE6 MULMOD LOG0 MSTORE DUP13 NOT SWAP4 STOP CALLDATASIZE ADDMOD SWAP5 LOG1 EXTCODESIZE LOG1 LOG3 0x21 MOD PUSH8 0xC828492DB98DCA3E KECCAK256 PUSH23 0xCC3735A920A3CA505D382BBCCD5ED15C6E187E77E9AEE8 DUP2 DUP5 0xC2 0x1F 0x4F 0x21 DUP3 0xAB PC 0x27 0xCB EXTCODESIZE PUSH31 0x7FBEDCD63F033009B779B17422D0DF92223018B32B4D1FA46E071723D6817 0xE2 BASEFEE PUSH14 0x3BECC55F00F0C57E16840DF040 CALL POP DUP9 0xDC 0x2F DUP2 INVALID CODECOPY SHR CODECOPY 0x23 0xBE 0xC7 RETURNDATACOPY 0x23 0xA9 PUSH7 0x2EFC9C229C6A00 LOG2 PUSH5 0x6970667358 0x22 SLT KECCAK256 0xF8 EXTCODECOPY PUSH9 0x4129D061F1E740AB23 0xD3 STOP 0xD9 0xB3 0xD0 0xE1 PUSH7 0xF8D826BC0D7BE8 COINBASE 0xC5 SWAP8 CODESIZE 0xE2 PC PUSH5 0x736F6C6343 STOP ADDMOD BYTE STOP CALLER "},"methodIdentifiers":{"APE_DECIMALS()":"38efa831","BPS_DENOMINATOR()":"e1a45218","GREATBALL_CATCH_RATE()":"df33c1fd","GREATBALL_PRICE()":"a4cedc39","MASTERBALL_CATCH_RATE()":"b036d591","MASTERBALL_PRICE()":"2e9ed2e4","MAX_ACTIVE_POKEMON()":"fc774c5c","MAX_COORDINATE()":"d2574183","MAX_THROW_ATTEMPTS()":"eb76c37e","PLATFORM_FEE_BPS()":"539aa77f","POKEBALL_CATCH_RATE()":"7881a070","POKEBALL_PRICE()":"fd626a18","REVENUE_POOL_BPS()":"3bd81715","ULTRABALL_CATCH_RATE()":"9f48ed23","ULTRABALL_PRICE()":"f8ce2c7d","UPGRADE_INTERFACE_VERSION()":"ad3cb1cc","USDC_DECIMALS()":"c1419def","activePokemons(uint256)":"2795a90e","ape()":"79babd2c","apePriceUSD()":"cc7a69de","calculateAPEAmount(uint256)":"064c973c","despawnPokemon(uint8)":"fe5c7ba8","forceSpawnPokemon(uint8,uint256,uint256)":"7a0b07cf","getActivePokemonCount()":"fa86b90b","getActivePokemonSlots()":"e53b74c6","getAllActivePokemons()":"fcc536ba","getAllPlayerBalls(address)":"a2afc373","getBallPrice(uint8)":"bf370a61","getCatchRate(uint8)":"efdf9949","getNFTInventoryCount()":"4129849f","getPendingThrow(uint256)":"23b5cb5d","getPlayerBallBalance(address,uint8)":"0771197f","getPokemon(uint8)":"9b7d1a2a","initialize(address,address,address,address,address,address,address,uint256)":"88301911","nextPokemonId()":"d9deb60b","nftRevenueWallet()":"64c618cc","owner()":"8da5cb5b","pause()":"8456cb59","paused()":"5c975abb","pendingThrows(uint256)":"f4f00092","playerBalls(address,uint8)":"970cff93","proxiableUUID()":"52d1902d","purchaseBalls(uint8,uint256,bool)":"94ea04d1","randomNumberCallback(uint256,uint256)":"8f561acc","renounceOwnership()":"715018a6","requestIdToTraceId(uint256)":"7edc648c","setAPEPrice(uint256)":"607c45d1","setNFTRevenueWallet(address)":"4c4e2a46","setSlabNFTManager(address)":"c5f52511","setTreasuryWallet(address)":"a8602fea","slabNFT()":"25c61fcd","slabNFTManager()":"6fea438d","spawnPokemon(uint8)":"7ed2f783","throwBall(uint8,uint8)":"11648422","totalNFTsPurchased()":"e155d79e","totalPlatformFees()":"d3631fa5","totalRevenuePool()":"9fb769dd","transferOwnership(address)":"f2fde38b","treasuryWallet()":"4626402b","unpause()":"3f4ba83a","upgradeToAndCall(address,bytes)":"4f1ef286","usdce()":"d33953ba","vrng()":"62138414","withdrawFees()":"476343ee"}},"storageLayout":{"storage":[{"astId":2660,"contract":"contracts/PokeballGameV2.sol:PokeballGame","label":"usdce","offset":0,"slot":"0","type":"t_contract(IERC20)1482"},{"astId":2663,"contract":"contracts/PokeballGameV2.sol:PokeballGame","label":"ape","offset":0,"slot":"1","type":"t_contract(IERC20)1482"},{"astId":2666,"contract":"contracts/PokeballGameV2.sol:PokeballGame","label":"vrng","offset":0,"slot":"2","type":"t_contract(IPOPVRNG)2501"},{"astId":2669,"contract":"contracts/PokeballGameV2.sol:PokeballGame","label":"slabNFT","offset":0,"slot":"3","type":"t_contract(IERC721)2063"},{"astId":2671,"contract":"contracts/PokeballGameV2.sol:PokeballGame","label":"treasuryWallet","offset":0,"slot":"4","type":"t_address"},{"astId":2673,"contract":"contracts/PokeballGameV2.sol:PokeballGame","label":"nftRevenueWallet","offset":0,"slot":"5","type":"t_address"},{"astId":2675,"contract":"contracts/PokeballGameV2.sol:PokeballGame","label":"totalRevenuePool","offset":0,"slot":"6","type":"t_uint256"},{"astId":2677,"contract":"contracts/PokeballGameV2.sol:PokeballGame","label":"totalPlatformFees","offset":0,"slot":"7","type":"t_uint256"},{"astId":2679,"contract":"contracts/PokeballGameV2.sol:PokeballGame","label":"totalNFTsPurchased","offset":0,"slot":"8","type":"t_uint256"},{"astId":2686,"contract":"contracts/PokeballGameV2.sol:PokeballGame","label":"playerBalls","offset":0,"slot":"9","type":"t_mapping(t_address,t_mapping(t_enum(BallType)2558,t_uint256))"},{"astId":2691,"contract":"contracts/PokeballGameV2.sol:PokeballGame","label":"activePokemons","offset":0,"slot":"10","type":"t_array(t_struct(Pokemon)2572_storage)20_storage"},{"astId":2693,"contract":"contracts/PokeballGameV2.sol:PokeballGame","label":"nextPokemonId","offset":0,"slot":"110","type":"t_uint256"},{"astId":2698,"contract":"contracts/PokeballGameV2.sol:PokeballGame","label":"pendingThrows","offset":0,"slot":"111","type":"t_mapping(t_uint256,t_struct(PendingThrow)2585_storage)"},{"astId":2702,"contract":"contracts/PokeballGameV2.sol:PokeballGame","label":"requestIdToTraceId","offset":0,"slot":"112","type":"t_mapping(t_uint256,t_uint256)"},{"astId":2704,"contract":"contracts/PokeballGameV2.sol:PokeballGame","label":"_traceIdCounter","offset":0,"slot":"113","type":"t_uint256"},{"astId":2706,"contract":"contracts/PokeballGameV2.sol:PokeballGame","label":"apePriceUSD","offset":0,"slot":"114","type":"t_uint256"},{"astId":2710,"contract":"contracts/PokeballGameV2.sol:PokeballGame","label":"slabNFTManager","offset":0,"slot":"115","type":"t_contract(ISlabNFTManager)2531"},{"astId":4683,"contract":"contracts/PokeballGameV2.sol:PokeballGame","label":"__gap","offset":0,"slot":"116","type":"t_array(t_uint256)49_storage"}],"types":{"t_address":{"encoding":"inplace","label":"address","numberOfBytes":"20"},"t_array(t_struct(Pokemon)2572_storage)20_storage":{"base":"t_struct(Pokemon)2572_storage","encoding":"inplace","label":"struct PokeballGame.Pokemon[20]","numberOfBytes":"3200"},"t_array(t_uint256)49_storage":{"base":"t_uint256","encoding":"inplace","label":"uint256[49]","numberOfBytes":"1568"},"t_bool":{"encoding":"inplace","label":"bool","numberOfBytes":"1"},"t_contract(IERC20)1482":{"encoding":"inplace","label":"contract IERC20","numberOfBytes":"20"},"t_contract(IERC721)2063":{"encoding":"inplace","label":"contract IERC721","numberOfBytes":"20"},"t_contract(IPOPVRNG)2501":{"encoding":"inplace","label":"contract IPOPVRNG","numberOfBytes":"20"},"t_contract(ISlabNFTManager)2531":{"encoding":"inplace","label":"contract ISlabNFTManager","numberOfBytes":"20"},"t_enum(BallType)2558":{"encoding":"inplace","label":"enum PokeballGame.BallType","numberOfBytes":"1"},"t_mapping(t_address,t_mapping(t_enum(BallType)2558,t_uint256))":{"encoding":"mapping","key":"t_address","label":"mapping(address => mapping(enum PokeballGame.BallType => uint256))","numberOfBytes":"32","value":"t_mapping(t_enum(BallType)2558,t_uint256)"},"t_mapping(t_enum(BallType)2558,t_uint256)":{"encoding":"mapping","key":"t_enum(BallType)2558","label":"mapping(enum PokeballGame.BallType => uint256)","numberOfBytes":"32","value":"t_uint256"},"t_mapping(t_uint256,t_struct(PendingThrow)2585_storage)":{"encoding":"mapping","key":"t_uint256","label":"mapping(uint256 => struct PokeballGame.PendingThrow)","numberOfBytes":"32","value":"t_struct(PendingThrow)2585_storage"},"t_mapping(t_uint256,t_uint256)":{"encoding":"mapping","key":"t_uint256","label":"mapping(uint256 => uint256)","numberOfBytes":"32","value":"t_uint256"},"t_struct(PendingThrow)2585_storage":{"encoding":"inplace","label":"struct PokeballGame.PendingThrow","members":[{"astId":2575,"contract":"contracts/PokeballGameV2.sol:PokeballGame","label":"thrower","offset":0,"slot":"0","type":"t_address"},{"astId":2577,"contract":"contracts/PokeballGameV2.sol:PokeballGame","label":"pokemonId","offset":0,"slot":"1","type":"t_uint256"},{"astId":2580,"contract":"contracts/PokeballGameV2.sol:PokeballGame","label":"ballType","offset":0,"slot":"2","type":"t_enum(BallType)2558"},{"astId":2582,"contract":"contracts/PokeballGameV2.sol:PokeballGame","label":"timestamp","offset":0,"slot":"3","type":"t_uint256"},{"astId":2584,"contract":"contracts/PokeballGameV2.sol:PokeballGame","label":"resolved","offset":0,"slot":"4","type":"t_bool"}],"numberOfBytes":"160"},"t_struct(Pokemon)2572_storage":{"encoding":"inplace","label":"struct PokeballGame.Pokemon","members":[{"astId":2561,"contract":"contracts/PokeballGameV2.sol:PokeballGame","label":"id","offset":0,"slot":"0","type":"t_uint256"},{"astId":2563,"contract":"contracts/PokeballGameV2.sol:PokeballGame","label":"positionX","offset":0,"slot":"1","type":"t_uint256"},{"astId":2565,"contract":"contracts/PokeballGameV2.sol:PokeballGame","label":"positionY","offset":0,"slot":"2","type":"t_uint256"},{"astId":2567,"contract":"contracts/PokeballGameV2.sol:PokeballGame","label":"throwAttempts","offset":0,"slot":"3","type":"t_uint8"},{"astId":2569,"contract":"contracts/PokeballGameV2.sol:PokeballGame","label":"isActive","offset":1,"slot":"3","type":"t_bool"},{"astId":2571,"contract":"contracts/PokeballGameV2.sol:PokeballGame","label":"spawnTime","offset":0,"slot":"4","type":"t_uint256"}],"numberOfBytes":"160"},"t_uint256":{"encoding":"inplace","label":"uint256","numberOfBytes":"32"},"t_uint8":{"encoding":"inplace","label":"uint8","numberOfBytes":"1"}}}}}}