{"contracts/SlabNFTManager.sol":{"SlabNFTManager":{"abi":[{"inputs":[],"stateMutability":"nonpayable","type":"constructor"},{"inputs":[{"internalType":"address","name":"target","type":"address"}],"name":"AddressEmptyCode","type":"error"},{"inputs":[{"internalType":"uint256","name":"balance","type":"uint256"},{"internalType":"uint256","name":"threshold","type":"uint256"}],"name":"BelowPurchaseThreshold","type":"error"},{"inputs":[{"internalType":"address","name":"implementation","type":"address"}],"name":"ERC1967InvalidImplementation","type":"error"},{"inputs":[],"name":"ERC1967NonPayable","type":"error"},{"inputs":[],"name":"EnforcedPause","type":"error"},{"inputs":[],"name":"ExpectedPause","type":"error"},{"inputs":[],"name":"FailedCall","type":"error"},{"inputs":[{"internalType":"uint256","name":"required","type":"uint256"},{"internalType":"uint256","name":"available","type":"uint256"}],"name":"InsufficientBalance","type":"error"},{"inputs":[],"name":"InvalidAmount","type":"error"},{"inputs":[],"name":"InvalidInitialization","type":"error"},{"inputs":[],"name":"InvalidTokenId","type":"error"},{"inputs":[],"name":"InventoryEmpty","type":"error"},{"inputs":[{"internalType":"uint8","name":"maxSize","type":"uint8"}],"name":"InventoryFull","type":"error"},{"inputs":[{"internalType":"address","name":"caller","type":"address"}],"name":"NotAuthorized","type":"error"},{"inputs":[],"name":"NotInitializing","type":"error"},{"inputs":[{"internalType":"address","name":"owner","type":"address"}],"name":"OwnableInvalidOwner","type":"error"},{"inputs":[{"internalType":"address","name":"account","type":"address"}],"name":"OwnableUnauthorizedAccount","type":"error"},{"inputs":[],"name":"PurchaseAlreadyPending","type":"error"},{"inputs":[],"name":"ReentrancyGuardReentrantCall","type":"error"},{"inputs":[{"internalType":"address","name":"token","type":"address"}],"name":"SafeERC20FailedOperation","type":"error"},{"inputs":[{"internalType":"uint256","name":"tokenId","type":"uint256"}],"name":"TokenNotInInventory","type":"error"},{"inputs":[],"name":"TransferFailed","type":"error"},{"inputs":[],"name":"UUPSUnauthorizedCallContext","type":"error"},{"inputs":[{"internalType":"bytes32","name":"slot","type":"bytes32"}],"name":"UUPSUnsupportedProxiableUUID","type":"error"},{"inputs":[],"name":"ZeroAddress","type":"error"},{"anonymous":false,"inputs":[{"indexed":true,"internalType":"address","name":"recipient","type":"address"},{"indexed":false,"internalType":"uint256","name":"usdcAmount","type":"uint256"},{"indexed":false,"internalType":"uint256","name":"nftCount","type":"uint256"}],"name":"EmergencyWithdrawal","type":"event"},{"anonymous":false,"inputs":[{"indexed":false,"internalType":"uint64","name":"version","type":"uint64"}],"name":"Initialized","type":"event"},{"anonymous":false,"inputs":[{"indexed":true,"internalType":"address","name":"winner","type":"address"},{"indexed":true,"internalType":"uint256","name":"tokenId","type":"uint256"},{"indexed":false,"internalType":"uint256","name":"remainingInventory","type":"uint256"}],"name":"NFTAwarded","type":"event"},{"anonymous":false,"inputs":[{"indexed":true,"internalType":"uint256","name":"requestId","type":"uint256"},{"indexed":false,"internalType":"uint256","name":"amount","type":"uint256"},{"indexed":false,"internalType":"address","name":"recipient","type":"address"}],"name":"NFTPurchaseInitiated","type":"event"},{"anonymous":false,"inputs":[{"indexed":true,"internalType":"uint256","name":"tokenId","type":"uint256"},{"indexed":false,"internalType":"uint256","name":"inventorySize","type":"uint256"}],"name":"NFTReceived","type":"event"},{"anonymous":false,"inputs":[{"indexed":true,"internalType":"address","name":"previousOwner","type":"address"},{"indexed":true,"internalType":"address","name":"newOwner","type":"address"}],"name":"OwnershipTransferred","type":"event"},{"anonymous":false,"inputs":[{"indexed":false,"internalType":"address","name":"account","type":"address"}],"name":"Paused","type":"event"},{"anonymous":false,"inputs":[{"indexed":false,"internalType":"address","name":"oldAddress","type":"address"},{"indexed":false,"internalType":"address","name":"newAddress","type":"address"}],"name":"PokeballGameUpdated","type":"event"},{"anonymous":false,"inputs":[{"indexed":true,"internalType":"address","name":"depositor","type":"address"},{"indexed":false,"internalType":"uint256","name":"amount","type":"uint256"},{"indexed":false,"internalType":"uint256","name":"newBalance","type":"uint256"}],"name":"RevenueDeposited","type":"event"},{"anonymous":false,"inputs":[{"indexed":false,"internalType":"address","name":"oldAddress","type":"address"},{"indexed":false,"internalType":"address","name":"newAddress","type":"address"}],"name":"TreasuryWalletUpdated","type":"event"},{"anonymous":false,"inputs":[{"indexed":false,"internalType":"address","name":"account","type":"address"}],"name":"Unpaused","type":"event"},{"anonymous":false,"inputs":[{"indexed":true,"internalType":"address","name":"implementation","type":"address"}],"name":"Upgraded","type":"event"},{"inputs":[],"name":"AUTO_PURCHASE_THRESHOLD","outputs":[{"internalType":"uint256","name":"","type":"uint256"}],"stateMutability":"view","type":"function"},{"inputs":[],"name":"MAX_INVENTORY_SIZE","outputs":[{"internalType":"uint8","name":"","type":"uint8"}],"stateMutability":"view","type":"function"},{"inputs":[],"name":"UPGRADE_INTERFACE_VERSION","outputs":[{"internalType":"string","name":"","type":"string"}],"stateMutability":"view","type":"function"},{"inputs":[],"name":"USDC_DECIMALS","outputs":[{"internalType":"uint8","name":"","type":"uint8"}],"stateMutability":"view","type":"function"},{"inputs":[{"internalType":"address","name":"winner","type":"address"}],"name":"awardNFTToWinner","outputs":[{"internalType":"uint256","name":"tokenId","type":"uint256"}],"stateMutability":"nonpayable","type":"function"},{"inputs":[{"internalType":"address","name":"winner","type":"address"},{"internalType":"uint256","name":"tokenId","type":"uint256"}],"name":"awardSpecificNFT","outputs":[{"internalType":"bool","name":"success","type":"bool"}],"stateMutability":"nonpayable","type":"function"},{"inputs":[],"name":"canAutoPurchase","outputs":[{"internalType":"bool","name":"canPurchase","type":"bool"},{"internalType":"uint256","name":"currentBalance","type":"uint256"},{"internalType":"uint256","name":"threshold","type":"uint256"},{"internalType":"uint256","name":"pullPrice","type":"uint256"}],"stateMutability":"view","type":"function"},{"inputs":[],"name":"checkAndPurchaseNFT","outputs":[{"internalType":"bool","name":"purchased","type":"bool"},{"internalType":"uint256","name":"requestId","type":"uint256"}],"stateMutability":"nonpayable","type":"function"},{"inputs":[{"internalType":"uint256","name":"amount","type":"uint256"}],"name":"depositRevenue","outputs":[],"stateMutability":"nonpayable","type":"function"},{"inputs":[],"name":"emergencyWithdraw","outputs":[],"stateMutability":"nonpayable","type":"function"},{"inputs":[],"name":"forcePurchaseNFT","outputs":[{"internalType":"uint256","name":"requestId","type":"uint256"}],"stateMutability":"nonpayable","type":"function"},{"inputs":[],"name":"getInventory","outputs":[{"internalType":"uint256[]","name":"tokenIds","type":"uint256[]"}],"stateMutability":"view","type":"function"},{"inputs":[],"name":"getInventoryCount","outputs":[{"internalType":"uint256","name":"count","type":"uint256"}],"stateMutability":"view","type":"function"},{"inputs":[],"name":"getStats","outputs":[{"internalType":"uint256","name":"nftsPurchased","type":"uint256"},{"internalType":"uint256","name":"nftsAwarded","type":"uint256"},{"internalType":"uint256","name":"usdcSpent","type":"uint256"},{"internalType":"uint256","name":"currentInventory","type":"uint256"},{"internalType":"uint256","name":"currentBalance","type":"uint256"}],"stateMutability":"view","type":"function"},{"inputs":[],"name":"getUSDCBalance","outputs":[{"internalType":"uint256","name":"balance","type":"uint256"}],"stateMutability":"view","type":"function"},{"inputs":[],"name":"hasInventorySpace","outputs":[{"internalType":"bool","name":"hasSpace","type":"bool"},{"internalType":"uint8","name":"availableSlots","type":"uint8"}],"stateMutability":"view","type":"function"},{"inputs":[{"internalType":"address","name":"_owner","type":"address"},{"internalType":"address","name":"_treasury","type":"address"},{"internalType":"address","name":"_usdce","type":"address"},{"internalType":"address","name":"_slabMachine","type":"address"},{"internalType":"address","name":"_slabNFT","type":"address"},{"internalType":"address","name":"_pokeballGame","type":"address"}],"name":"initialize","outputs":[],"stateMutability":"nonpayable","type":"function"},{"inputs":[{"internalType":"uint256","name":"","type":"uint256"}],"name":"isInInventory","outputs":[{"internalType":"bool","name":"","type":"bool"}],"stateMutability":"view","type":"function"},{"inputs":[{"internalType":"uint256","name":"tokenId","type":"uint256"}],"name":"isTokenInInventory","outputs":[{"internalType":"bool","name":"inInventory","type":"bool"}],"stateMutability":"view","type":"function"},{"inputs":[{"internalType":"uint256","name":"","type":"uint256"}],"name":"nftInventory","outputs":[{"internalType":"uint256","name":"","type":"uint256"}],"stateMutability":"view","type":"function"},{"inputs":[{"internalType":"address","name":"","type":"address"},{"internalType":"address","name":"","type":"address"},{"internalType":"uint256","name":"tokenId","type":"uint256"},{"internalType":"bytes","name":"","type":"bytes"}],"name":"onERC721Received","outputs":[{"internalType":"bytes4","name":"","type":"bytes4"}],"stateMutability":"nonpayable","type":"function"},{"inputs":[],"name":"owner","outputs":[{"internalType":"address","name":"","type":"address"}],"stateMutability":"view","type":"function"},{"inputs":[],"name":"pause","outputs":[],"stateMutability":"nonpayable","type":"function"},{"inputs":[],"name":"paused","outputs":[{"internalType":"bool","name":"","type":"bool"}],"stateMutability":"view","type":"function"},{"inputs":[{"internalType":"uint256","name":"","type":"uint256"}],"name":"pendingPullRequests","outputs":[{"internalType":"address","name":"","type":"address"}],"stateMutability":"view","type":"function"},{"inputs":[],"name":"pendingRequestCount","outputs":[{"internalType":"uint256","name":"","type":"uint256"}],"stateMutability":"view","type":"function"},{"inputs":[],"name":"pokeballGame","outputs":[{"internalType":"address","name":"","type":"address"}],"stateMutability":"view","type":"function"},{"inputs":[],"name":"proxiableUUID","outputs":[{"internalType":"bytes32","name":"","type":"bytes32"}],"stateMutability":"view","type":"function"},{"inputs":[],"name":"renounceOwnership","outputs":[],"stateMutability":"nonpayable","type":"function"},{"inputs":[{"internalType":"address","name":"_pokeballGame","type":"address"}],"name":"setPokeballGame","outputs":[],"stateMutability":"nonpayable","type":"function"},{"inputs":[{"internalType":"address","name":"_treasury","type":"address"}],"name":"setTreasuryWallet","outputs":[],"stateMutability":"nonpayable","type":"function"},{"inputs":[],"name":"slabMachine","outputs":[{"internalType":"contract ISlabMachine","name":"","type":"address"}],"stateMutability":"view","type":"function"},{"inputs":[],"name":"slabNFT","outputs":[{"internalType":"contract IERC721","name":"","type":"address"}],"stateMutability":"view","type":"function"},{"inputs":[{"internalType":"uint256","name":"","type":"uint256"}],"name":"tokenIdToIndex","outputs":[{"internalType":"uint256","name":"","type":"uint256"}],"stateMutability":"view","type":"function"},{"inputs":[],"name":"totalNFTsAwarded","outputs":[{"internalType":"uint256","name":"","type":"uint256"}],"stateMutability":"view","type":"function"},{"inputs":[],"name":"totalNFTsPurchased","outputs":[{"internalType":"uint256","name":"","type":"uint256"}],"stateMutability":"view","type":"function"},{"inputs":[],"name":"totalUSDCSpent","outputs":[{"internalType":"uint256","name":"","type":"uint256"}],"stateMutability":"view","type":"function"},{"inputs":[{"internalType":"address","name":"newOwner","type":"address"}],"name":"transferOwnership","outputs":[],"stateMutability":"nonpayable","type":"function"},{"inputs":[],"name":"treasuryWallet","outputs":[{"internalType":"address","name":"","type":"address"}],"stateMutability":"view","type":"function"},{"inputs":[],"name":"unpause","outputs":[],"stateMutability":"nonpayable","type":"function"},{"inputs":[{"internalType":"address","name":"newImplementation","type":"address"},{"internalType":"bytes","name":"data","type":"bytes"}],"name":"upgradeToAndCall","outputs":[],"stateMutability":"payable","type":"function"},{"inputs":[],"name":"usdce","outputs":[{"internalType":"contract IERC20","name":"","type":"address"}],"stateMutability":"view","type":"function"}],"evm":{"bytecode":{"linkReferences":{},"object":"60a080604052346100ea57306080527ff0c57e16840df040f15088dc2f81fe391c3923bec73e23a9662efc9c229c6a005460ff8160401c166100d9576002600160401b03196001600160401b03821601610073575b6040516122f690816100f082396080518181816113f801526114c90152f35b6001600160401b0319166001600160401b039081177ff0c57e16840df040f15088dc2f81fe391c3923bec73e23a9662efc9c229c6a005581527fc7f505b2f371ae2175ee4913f4499e1f2633a7b5936321eed1cdaeb6115181d290602090a13880610054565b63f92ee8a960e01b60005260046000fd5b600080fdfe6080604052600436101561001257600080fd5b6000803560e01c8063150b7a021461184157806325c61fcd1461181857806326ec0fbe146117ee57806331e2c022146117d05780633cfd1ccc146117455780633f4ba83a146116c35780634626402b1461169a5780634f1ef2861461144d57806352d1902d146113e5578063569ffd42146113b65780635bf7117a1461138d5780635c975abb1461135d5780635d7f850c146112a7578063715018a61461123d578063753089f7146111dd57806377d983c9146111b457806378b5aa8f1461116c5780637c597f4e1461114e5780637d8dbe571461111b5780638290959714610fb957806382b65bef14610f7f5780638456cb5914610f0a5780638da5cb5b14610ed4578063a8602fea14610e49578063ad3cb1cc14610dcf578063af3df16014610db1578063b309a85714610c5d578063b6efd54014610bc1578063bc1ca3e914610a96578063c1419def14610a7a578063c59d4847146109bf578063cc2a9a5b14610733578063d33953ba1461070c578063d3e04145146106ed578063d82872fe14610654578063db2e21bc146103f0578063e0abba57146103d2578063e155d79e146103b4578063e18bbf5b14610398578063ef33794814610249578063f2fde38b1461021c5763fbd7ec9e146101eb57600080fd5b346102195760203660031901126102195760ff60406020926004358152600684522054166040519015158152f35b80fd5b5034610219576020366003190112610219576102466102396119a6565b610241611c31565b611bbb565b80f35b503461021957806003193601126102195780546040516370a0823160e01b815230600482015290602090829060249082906001600160a01b03165afa90811561038d578291610356575b50600154604051632dabc24f60e01b81529060a090829060049082906001600160a01b03165afa90811561034b5760809391610317575b5063030a32c0821015918261030c575b826102fe575b6040519215158352602083015263030a32c060408301526060820152f35b9150600a60055410916102e0565b8181101592506102da565b610339915060a03d60a011610344575b61033181836119d2565b810190611b94565b9350505050386102ca565b503d610327565b6040513d85823e3d90fd5b90506020813d602011610385575b81610371602093836119d2565b81010312610380575138610293565b600080fd5b3d9150610364565b6040513d84823e3d90fd5b50346102195780600319360112610219576020604051600a8152f35b50346102195780600319360112610219576020600854604051908152f35b50346102195780600319360112610219576020600c54604051908152f35b5034610219578060031936011261021957610409611c31565b610411611c67565b80546040516370a0823160e01b81523060048201526001600160a01b0390911690602081602481855afa90811561034b578391610622575b506005549181806105d0575b5050825b828110610523575060055483600555806104c3575b506004546040805192835260208301939093526001600160a01b0316917f56da9a5ae0bcf6e7c3fdd78a10550e7d0458de1c39bfb7f6e96a3e92dd344a6891a260016000805160206122818339815191525580f35b600584527f036b6384b5eca791c62761152d0c79bb0604c104a5fb6f4eb0703f3154bb3db0017f036b6384b5eca791c62761152d0c79bb0604c104a5fb6f4eb0703f3154bb3db05b818110610518575061046e565b84815560010161050b565b61052c81611a26565b90549060031b1c908460018060a01b036002541660018060a01b036004541690803b156105cc57604051632142170760e11b81523060048201526001600160a01b039290921660248301526044820185905282908290606490829084905af1801561038d576105b3575b50916001925260066020526040852060ff19815416905501610459565b816105bd916119d2565b6105c8578438610596565b8480fd5b8280fd5b60045460405163a9059cbb60e01b60208201526001600160a01b039091166024820152604481019190915261061b9161061682606481015b03601f1981018452836119d2565b612136565b3881610455565b90506020813d60201161064c575b8161063d602093836119d2565b81010312610380575138610449565b3d9150610630565b503461021957806003193601126102195761066d611c67565b610675611ca3565b6003546001600160a01b0316331415806106cb575b6106b8576040610698612024565b600160008051602061228183398151915255825191151582526020820152f35b634a0bfec160e01b815233600452602490fd5b50600080516020612221833981519152546001600160a01b031633141561068a565b5034610219578060031936011261021957602060405163030a32c08152f35b5034610219578060031936011261021957546040516001600160a01b039091168152602090f35b50346102195760c03660031901126102195761074d6119a6565b6107556119bc565b906044356001600160a01b03811691908290036109bb576064356001600160a01b038116908190036105c8576084356001600160a01b03811691908290036109b75760a4356001600160a01b03811694908590036109b3576000805160206122a1833981519152549560ff8760401c16159667ffffffffffffffff8116801590816109ab575b60011490816109a1575b159081610998575b506109895767ffffffffffffffff1981166001176000805160206122a1833981519152558761095c575b506001600160a01b0385161561094d576001600160a01b031693841561094d57811561094d57821561094d57831561094d5761085d90610855612191565b610241612191565b610865612191565b61086d612191565b610875612191565b60016000805160206122818339815191525561088f612191565b6001600160601b0360a01b8754161786556001600160601b0360a01b60015416176001556001600160601b0360a01b60025416176002556001600160601b0360a01b60045416176004556001600160601b0360a01b60035416176003556108f35780f35b68ff0000000000000000196000805160206122a183398151915254166000805160206122a1833981519152557fc7f505b2f371ae2175ee4913f4499e1f2633a7b5936321eed1cdaeb6115181d2602060405160018152a180f35b63d92e233d60e01b8852600488fd5b68ffffffffffffffffff191668010000000000000001176000805160206122a18339815191525538610817565b63f92ee8a960e01b8952600489fd5b905015386107ed565b303b1591506107e5565b8991506107db565b8680fd5b8580fd5b8380fd5b5034610219578060031936011261021957600854600954600a5460055484546040516370a0823160e01b8152306004820152959391929190602090879060249082906001600160a01b03165afa938415610a6e5793610a39575b60a095506040519485526020850152604084015260608301526080820152f35b92506020853d602011610a66575b81610a54602093836119d2565b810103126103805760a0945192610a19565b3d9150610a47565b604051903d90823e3d90fd5b5034610219578060031936011261021957602060405160068152f35b503461021957602036600319011261021957600435610ab3611c67565b610abb611ca3565b8015610bb25781546040516323b872dd60e01b602082015233602482015230604482015260648101839052610b00916001600160a01b03166106168260848101610608565b81546040516370a0823160e01b815230600482015290602090829060249082906001600160a01b03165afa90811561034b578391610b80575b5060405191825260208201527f2f22b7f6e7f7df7d0eb3d1a543a2b6eb906e76a03540c2d66d2725270a5f6d3160403392a260016000805160206122818339815191525580f35b90506020813d602011610baa575b81610b9b602093836119d2565b81010312610380575138610b39565b3d9150610b8e565b63162908e360e11b8252600482fd5b503461021957602036600319011261021957610bdb6119a6565b610be3611c31565b6001600160a01b0381168015610c4e57600380546001600160a01b031981169092179055604080516001600160a01b0392831681529190921660208201527ff66399fe71a8aeef123694608632ea96ea22bb57f3831b48be1edd314bd320cb91819081015b0390a180f35b63d92e233d60e01b8352600483fd5b503461021957604036600319011261021957610c776119a6565b60243591610c83611c67565b610c8b611ca3565b6003546001600160a01b031633036106b8576001600160a01b038216918215610da257838252600660205260ff60408320541615610d8e57610ccc84611ccd565b6002546001600160a01b031690813b156105cc57604051632142170760e11b81523060048201526001600160a01b03919091166024820152604481018590529082908290606490829084905af1801561038d57610d7e575b5050610d31600954611a57565b6009557f55144f84a06aba3b3a5c49b5d2d0d2a1fed9e25f465a2cc0f4a23b883c4782156020600554604051908152a3600160008051602061228183398151915255602060405160018152f35b81610d88916119d2565b38610d24565b6329762dbf60e21b82526004849052602482fd5b63d92e233d60e01b8252600482fd5b50346102195780600319360112610219576020600554604051908152f35b50346102195780600319360112610219576040805191610def82846119d2565b60058352640352e302e360dc1b6020840152815192839160208352815191826020850152815b838110610e32575050828201840152601f01601f19168101030190f35b602082820181015188830188015287955001610e15565b503461021957602036600319011261021957610e636119a6565b610e6b611c31565b6001600160a01b0381168015610c4e57600480546001600160a01b031981169092179055604080516001600160a01b0392831681529190921660208201527fa982575859d7ad2f390dc12b23f7dab8bbda047f9d0140ac68344b27bf34bfb49181908101610c48565b5034610219578060031936011261021957600080516020612221833981519152546040516001600160a01b039091168152602090f35b5034610219578060031936011261021957610f23611c31565b610f2b611ca3565b600160ff19600080516020612261833981519152541617600080516020612261833981519152557f62e78cea01bee320cd4e420270b5ea74000d11b0c9f74754ebdbfc544b05a2586020604051338152a180f35b50346102195760203660031901126102195760043590600554821015610219576020610faa83611a26565b90549060031b1c604051908152f35b5034610219578060031936011261021957610fd2611c67565b610fda611ca3565b610fe2611c31565b600a600554101561110757600154604051632dabc24f60e01b8152919060a090839060049082906001600160a01b03165afa9182156110fa5781926110d4575b5080546040516370a0823160e01b815230600482015290602090829060249082906001600160a01b03165afa90811561038d57829161109e575b5082811061108957602061106f84611dc4565b600160008051602061228183398151915255604051908152f35b60449263cf47918160e01b8352600452602452fd5b90506020813d6020116110cc575b816110b9602093836119d2565b810103126110c857513861105c565b5080fd5b3d91506110ac565b6110ee91925060a03d60a0116103445761033181836119d2565b93505050509038611022565b50604051903d90823e3d90fd5b630c6fb6e960e31b8152600a600452602490fd5b5034610219576020366003190112610219576020906004358152600b8252604060018060a01b0391205416604051908152f35b50346102195780600319360112610219576020600954604051908152f35b5034610219576020366003190112610219576111866119a6565b9061118f611c67565b611197611ca3565b6003546001600160a01b031633036106b857602061106f83611a7c565b50346102195780600319360112610219576003546040516001600160a01b039091168152602090f35b5034610219578060031936011261021957600554600a811090811561123257600a0391600a831161121e575060ff80604093165b8351928352166020820152f35b634e487b7160e01b81526011600452602490fd5b5060ff604092611211565b5034610219578060031936011261021957611256611c31565b60008051602061222183398151915280546001600160a01b0319811690915581906001600160a01b03167f8be0079c531659141344cd1fd0a4f28419497f9722a3daafe3b4186f6b6457e08280a380f35b503461021957806003193601126102195760405180602060055491828152018091600585527f036b6384b5eca791c62761152d0c79bb0604c104a5fb6f4eb0703f3154bb3db090855b81811061134757505050826113069103836119d2565b604051928392602084019060208552518091526040840192915b81811061132e575050500390f35b8251845285945060209384019390920191600101611320565b82548452602090930192600192830192016112f0565b5034610219578060031936011261021957602060ff60008051602061226183398151915254166040519015158152f35b50346102195780600319360112610219576001546040516001600160a01b039091168152602090f35b50346102195760203660031901126102195760ff60406020926004358152600684522054166040519015158152f35b50346102195780600319360112610219577f00000000000000000000000000000000000000000000000000000000000000006001600160a01b0316300361143e5760206040516000805160206122418339815191528152f35b63703e46dd60e11b8152600490fd5b506040366003190112610219576114626119a6565b6024359067ffffffffffffffff82116105cc57366023830112156105cc578160040135908361149083611a0a565b9361149e60405195866119d2565b838552602085019336602482840101116105cc57806024602093018637850101526001600160a01b037f000000000000000000000000000000000000000000000000000000000000000016308114908115611677575b5061166857611501611c31565b6040516352d1902d60e01b81526001600160a01b0382169390602081600481885afa869181611634575b5061154457634c9c8ce360e01b86526004859052602486fd5b93846000805160206122418339815191528796036116225750823b156116105760008051602061224183398151915280546001600160a01b031916821790558491907fbc7cd75a20ee27fd9adebab32041f755214dbc6bffa90cc0225b39da2e5c2d3b8380a28051156115f5576115e99382915190845af43d156115ed573d916115cd83611a0a565b926115db60405194856119d2565b83523d85602085013e6121bf565b5080f35b6060916121bf565b50505050346116015780f35b63b398979f60e01b8152600490fd5b634c9c8ce360e01b8552600452602484fd5b632a87526960e21b8652600452602485fd5b9091506020813d602011611660575b81611650602093836119d2565b810103126109b35751903861152b565b3d9150611643565b63703e46dd60e11b8452600484fd5b600080516020612241833981519152546001600160a01b031614159050386114f4565b50346102195780600319360112610219576004546040516001600160a01b039091168152602090f35b50346102195780600319360112610219576116dc611c31565b6000805160206122618339815191525460ff8116156117365760ff1916600080516020612261833981519152557f5db9ee0a495bf2e6ff9c91a7834c1ba4fdd244a5e8aa4e537bd38aeae4b073aa6020604051338152a180f35b638dfc202b60e01b8252600482fd5b503461021957806003193601126102195780546040516370a0823160e01b815230600482015290602090829060249082906001600160a01b03165afa90811561038d57829161179a575b602082604051908152f35b90506020813d6020116117c8575b816117b5602093836119d2565b810103126110c85760209150513861178f565b3d91506117a8565b50346102195780600319360112610219576020600a54604051908152f35b50346102195760203660031901126102195760406020916004358152600783522054604051908152f35b50346102195780600319360112610219576002546040516001600160a01b039091168152602090f35b50346102195760803660031901126102195761185b6119a6565b506118646119bc565b506044359060643567ffffffffffffffff81116110c857366023820112156110c857806004013567ffffffffffffffff81116105cc5736910160240111610219576002546001600160a01b031633146118ca575b604051630a85bd0160e11b8152602090f35b600554600a8110806118de575b50506118b8565b1561199257828252600760205260408220556005546801000000000000000081101561197e57906119348361191b84600160409601600555611a26565b90919082549060031b91821b91600019901b1916179055565b828152600660205220600160ff198254161790557f1be18eb15fae79b2ef01c40d9c2880744c4d536df2f5ac14fdb74fee71dc452c6020600554604051908152a2388080806118d7565b634e487b7160e01b82526041600452602482fd5b630c6fb6e960e31b8252600a600452602482fd5b600435906001600160a01b038216820361038057565b602435906001600160a01b038216820361038057565b90601f8019910116810190811067ffffffffffffffff8211176119f457604052565b634e487b7160e01b600052604160045260246000fd5b67ffffffffffffffff81116119f457601f01601f191660200190565b600554811015611a4157600560005260206000200190600090565b634e487b7160e01b600052603260045260246000fd5b6000198114611a665760010190565b634e487b7160e01b600052601160045260246000fd5b600091906001600160a01b0381168015611b85576005548015611b80576000198101908111611b6c57611aae90611a26565b90549060031b1c91611abf83611ccd565b6002546001600160a01b031690813b156109b757604051632142170760e11b81523060048201526001600160a01b0391909116602482015260448101849052949081908690606490829084905af19485156110fa57839495611b5c575b5050611b29600954611a57565b6009557f55144f84a06aba3b3a5c49b5d2d0d2a1fed9e25f465a2cc0f4a23b883c4782156020600554604051908152a390565b81611b66916119d2565b38611b1c565b634e487b7160e01b85526011600452602485fd5b505050565b63d92e233d60e01b8452600484fd5b908160a0910312610380578051916020820151916040810151916080606083015192015190565b6001600160a01b03168015611c1b5760008051602061222183398151915280546001600160a01b0319811683179091556001600160a01b03167f8be0079c531659141344cd1fd0a4f28419497f9722a3daafe3b4186f6b6457e0600080a3565b631e4fbdf760e01b600052600060045260246000fd5b600080516020612221833981519152546001600160a01b03163303611c5257565b63118cdaa760e01b6000523360045260246000fd5b60026000805160206122818339815191525414611c9257600260008051602061228183398151915255565b633ee5aeb560e01b60005260046000fd5b60ff6000805160206122618339815191525416611cbc57565b63d93c066560e01b60005260046000fd5b80600052600660205260ff6040600020541615611da3578060005260076020526040600020546005546000198101908111611a6657808203611d71575b50506005548015611d5b5760001901611d2281611a26565b8154906000199060031b1b19169055600555806000526006602052604060002060ff198154169055600052600760205260006040812055565b634e487b7160e01b600052603160045260246000fd5b611d7a90611a26565b90549060031b1c611d8e8161191b84611a26565b60005260076020526040600020553880611d0a565b6329762dbf60e21b60005260045260246000fd5b91908201809211611a6657565b600054600154604051636eb1769f60e11b81523060048201526001600160a01b0391821660248201819052929190911690602081604481855afa8015611f85578490600090611fee575b611e189250611db7565b60405163095ea7b360e01b60208083019182526001600160a01b038616602484015260448084019490945292825290929190600090611e586064866119d2565b84519082855af16000513d82611fd2575b505015611f91575b5050506000602060018060a01b0360015416604460405180948193634bda0d0960e11b8352600160048401523060248401525af1908115611f8557600091611f33575b507f6929b90e2c20a95d4538df3110e196e018b4d66120e0020e665a4af86f1b52716040829383600052600b60205281600020306001600160601b0360a01b825416179055611f04600c54611a57565b600c55611f12600854611a57565b600855611f2181600a54611db7565b600a558151908152306020820152a290565b906020823d602011611f7d575b81611f4d602093836119d2565b810103126102195750517f6929b90e2c20a95d4538df3110e196e018b4d66120e0020e665a4af86f1b5271611eb4565b3d9150611f40565b6040513d6000823e3d90fd5b610616611fca936040519063095ea7b360e01b602083015260248201526000604482015260448152611fc46064826119d2565b82612136565b388080611e71565b909150611fe65750803b15155b3880611e69565b600114611fdf565b50506020813d60201161201c575b81612009602093836119d2565b810103126103805783611e189151611e0e565b3d9150611ffc565b600a600554101561212e57600154604051632dabc24f60e01b81529060a090829060049082906001600160a01b03165afa908115611f855760009161210a575b506000546040516370a0823160e01b815230600482015290602090829060249082906001600160a01b03165afa908115611f85576000916120d8575b508163030a32c082109182156120ce575b50506120c5576120c090611dc4565b600191565b50600090600090565b10905081386120b1565b906020823d602011612102575b816120f2602093836119d2565b81010312610219575051386120a0565b3d91506120e5565b612123915060a03d60a0116103445761033181836119d2565b935050505038612064565b600090600090565b906000602091828151910182855af115611f85576000513d61218857506001600160a01b0381163b155b6121675750565b635274afe760e01b60009081526001600160a01b0391909116600452602490fd5b60011415612160565b60ff6000805160206122a18339815191525460401c16156121ae57565b631afcd79f60e31b60005260046000fd5b906121e557508051156121d457602081519101fd5b63d6bda27560e01b60005260046000fd5b81511580612217575b6121f6575090565b639996b31560e01b60009081526001600160a01b0391909116600452602490fd5b50803b156121ee56fe9016d09d72d40fdae2fd8ceac6b6234c7706214fd39c1cd1e609a0528c199300360894a13ba1a3210667c828492db98dca3e2076cc3735a920a3ca505d382bbccd5ed15c6e187e77e9aee88184c21f4f2182ab5827cb3b7e07fbedcd63f033009b779b17422d0df92223018b32b4d1fa46e071723d6817e2486d003becc55f00f0c57e16840df040f15088dc2f81fe391c3923bec73e23a9662efc9c229c6a00a26469706673582212206903510945c0be8e050b80e5dc3b1fc4cd07edb668e455064ed145f8f83b0a1f64736f6c634300081a0033","opcodes":"PUSH1 0xA0 DUP1 PUSH1 0x40 MSTORE CALLVALUE PUSH2 0xEA JUMPI ADDRESS PUSH1 0x80 MSTORE PUSH32 0xF0C57E16840DF040F15088DC2F81FE391C3923BEC73E23A9662EFC9C229C6A00 SLOAD PUSH1 0xFF DUP2 PUSH1 0x40 SHR AND PUSH2 0xD9 JUMPI PUSH1 0x2 PUSH1 0x1 PUSH1 0x40 SHL SUB NOT PUSH1 0x1 PUSH1 0x1 PUSH1 0x40 SHL SUB DUP3 AND ADD PUSH2 0x73 JUMPI JUMPDEST PUSH1 0x40 MLOAD PUSH2 0x22F6 SWAP1 DUP2 PUSH2 0xF0 DUP3 CODECOPY PUSH1 0x80 MLOAD DUP2 DUP2 DUP2 PUSH2 0x13F8 ADD MSTORE PUSH2 0x14C9 ADD MSTORE RETURN JUMPDEST PUSH1 0x1 PUSH1 0x1 PUSH1 0x40 SHL SUB NOT AND PUSH1 0x1 PUSH1 0x1 PUSH1 0x40 SHL SUB SWAP1 DUP2 OR PUSH32 0xF0C57E16840DF040F15088DC2F81FE391C3923BEC73E23A9662EFC9C229C6A00 SSTORE DUP2 MSTORE PUSH32 0xC7F505B2F371AE2175EE4913F4499E1F2633A7B5936321EED1CDAEB6115181D2 SWAP1 PUSH1 0x20 SWAP1 LOG1 CODESIZE DUP1 PUSH2 0x54 JUMP JUMPDEST PUSH4 0xF92EE8A9 PUSH1 0xE0 SHL PUSH1 0x0 MSTORE PUSH1 0x4 PUSH1 0x0 REVERT JUMPDEST PUSH1 0x0 DUP1 REVERT INVALID PUSH1 0x80 PUSH1 0x40 MSTORE PUSH1 0x4 CALLDATASIZE LT ISZERO PUSH2 0x12 JUMPI PUSH1 0x0 DUP1 REVERT JUMPDEST PUSH1 0x0 DUP1 CALLDATALOAD PUSH1 0xE0 SHR DUP1 PUSH4 0x150B7A02 EQ PUSH2 0x1841 JUMPI DUP1 PUSH4 0x25C61FCD EQ PUSH2 0x1818 JUMPI DUP1 PUSH4 0x26EC0FBE EQ PUSH2 0x17EE JUMPI DUP1 PUSH4 0x31E2C022 EQ PUSH2 0x17D0 JUMPI DUP1 PUSH4 0x3CFD1CCC EQ PUSH2 0x1745 JUMPI DUP1 PUSH4 0x3F4BA83A EQ PUSH2 0x16C3 JUMPI DUP1 PUSH4 0x4626402B EQ PUSH2 0x169A JUMPI DUP1 PUSH4 0x4F1EF286 EQ PUSH2 0x144D JUMPI DUP1 PUSH4 0x52D1902D EQ PUSH2 0x13E5 JUMPI DUP1 PUSH4 0x569FFD42 EQ PUSH2 0x13B6 JUMPI DUP1 PUSH4 0x5BF7117A EQ PUSH2 0x138D JUMPI DUP1 PUSH4 0x5C975ABB EQ PUSH2 0x135D JUMPI DUP1 PUSH4 0x5D7F850C EQ PUSH2 0x12A7 JUMPI DUP1 PUSH4 0x715018A6 EQ PUSH2 0x123D JUMPI DUP1 PUSH4 0x753089F7 EQ PUSH2 0x11DD JUMPI DUP1 PUSH4 0x77D983C9 EQ PUSH2 0x11B4 JUMPI DUP1 PUSH4 0x78B5AA8F EQ PUSH2 0x116C JUMPI DUP1 PUSH4 0x7C597F4E EQ PUSH2 0x114E JUMPI DUP1 PUSH4 0x7D8DBE57 EQ PUSH2 0x111B JUMPI DUP1 PUSH4 0x82909597 EQ PUSH2 0xFB9 JUMPI DUP1 PUSH4 0x82B65BEF EQ PUSH2 0xF7F JUMPI DUP1 PUSH4 0x8456CB59 EQ PUSH2 0xF0A JUMPI DUP1 PUSH4 0x8DA5CB5B EQ PUSH2 0xED4 JUMPI DUP1 PUSH4 0xA8602FEA EQ PUSH2 0xE49 JUMPI DUP1 PUSH4 0xAD3CB1CC EQ PUSH2 0xDCF JUMPI DUP1 PUSH4 0xAF3DF160 EQ PUSH2 0xDB1 JUMPI DUP1 PUSH4 0xB309A857 EQ PUSH2 0xC5D JUMPI DUP1 PUSH4 0xB6EFD540 EQ PUSH2 0xBC1 JUMPI DUP1 PUSH4 0xBC1CA3E9 EQ PUSH2 0xA96 JUMPI DUP1 PUSH4 0xC1419DEF EQ PUSH2 0xA7A JUMPI DUP1 PUSH4 0xC59D4847 EQ PUSH2 0x9BF JUMPI DUP1 PUSH4 0xCC2A9A5B EQ PUSH2 0x733 JUMPI DUP1 PUSH4 0xD33953BA EQ PUSH2 0x70C JUMPI DUP1 PUSH4 0xD3E04145 EQ PUSH2 0x6ED JUMPI DUP1 PUSH4 0xD82872FE EQ PUSH2 0x654 JUMPI DUP1 PUSH4 0xDB2E21BC EQ PUSH2 0x3F0 JUMPI DUP1 PUSH4 0xE0ABBA57 EQ PUSH2 0x3D2 JUMPI DUP1 PUSH4 0xE155D79E EQ PUSH2 0x3B4 JUMPI DUP1 PUSH4 0xE18BBF5B EQ PUSH2 0x398 JUMPI DUP1 PUSH4 0xEF337948 EQ PUSH2 0x249 JUMPI DUP1 PUSH4 0xF2FDE38B EQ PUSH2 0x21C JUMPI PUSH4 0xFBD7EC9E EQ PUSH2 0x1EB JUMPI PUSH1 0x0 DUP1 REVERT JUMPDEST CALLVALUE PUSH2 0x219 JUMPI PUSH1 0x20 CALLDATASIZE PUSH1 0x3 NOT ADD SLT PUSH2 0x219 JUMPI PUSH1 0xFF PUSH1 0x40 PUSH1 0x20 SWAP3 PUSH1 0x4 CALLDATALOAD DUP2 MSTORE PUSH1 0x6 DUP5 MSTORE KECCAK256 SLOAD AND PUSH1 0x40 MLOAD SWAP1 ISZERO ISZERO DUP2 MSTORE RETURN JUMPDEST DUP1 REVERT JUMPDEST POP CALLVALUE PUSH2 0x219 JUMPI PUSH1 0x20 CALLDATASIZE PUSH1 0x3 NOT ADD SLT PUSH2 0x219 JUMPI PUSH2 0x246 PUSH2 0x239 PUSH2 0x19A6 JUMP JUMPDEST PUSH2 0x241 PUSH2 0x1C31 JUMP JUMPDEST PUSH2 0x1BBB JUMP JUMPDEST DUP1 RETURN JUMPDEST POP CALLVALUE PUSH2 0x219 JUMPI DUP1 PUSH1 0x3 NOT CALLDATASIZE ADD SLT PUSH2 0x219 JUMPI DUP1 SLOAD PUSH1 0x40 MLOAD PUSH4 0x70A08231 PUSH1 0xE0 SHL DUP2 MSTORE ADDRESS PUSH1 0x4 DUP3 ADD MSTORE SWAP1 PUSH1 0x20 SWAP1 DUP3 SWAP1 PUSH1 0x24 SWAP1 DUP3 SWAP1 PUSH1 0x1 PUSH1 0x1 PUSH1 0xA0 SHL SUB AND GAS STATICCALL SWAP1 DUP2 ISZERO PUSH2 0x38D JUMPI DUP3 SWAP2 PUSH2 0x356 JUMPI JUMPDEST POP PUSH1 0x1 SLOAD PUSH1 0x40 MLOAD PUSH4 0x2DABC24F PUSH1 0xE0 SHL DUP2 MSTORE SWAP1 PUSH1 0xA0 SWAP1 DUP3 SWAP1 PUSH1 0x4 SWAP1 DUP3 SWAP1 PUSH1 0x1 PUSH1 0x1 PUSH1 0xA0 SHL SUB AND GAS STATICCALL SWAP1 DUP2 ISZERO PUSH2 0x34B JUMPI PUSH1 0x80 SWAP4 SWAP2 PUSH2 0x317 JUMPI JUMPDEST POP PUSH4 0x30A32C0 DUP3 LT ISZERO SWAP2 DUP3 PUSH2 0x30C JUMPI JUMPDEST DUP3 PUSH2 0x2FE JUMPI JUMPDEST PUSH1 0x40 MLOAD SWAP3 ISZERO ISZERO DUP4 MSTORE PUSH1 0x20 DUP4 ADD MSTORE PUSH4 0x30A32C0 PUSH1 0x40 DUP4 ADD MSTORE PUSH1 0x60 DUP3 ADD MSTORE RETURN JUMPDEST SWAP2 POP PUSH1 0xA PUSH1 0x5 SLOAD LT SWAP2 PUSH2 0x2E0 JUMP JUMPDEST DUP2 DUP2 LT ISZERO SWAP3 POP PUSH2 0x2DA JUMP JUMPDEST PUSH2 0x339 SWAP2 POP PUSH1 0xA0 RETURNDATASIZE PUSH1 0xA0 GT PUSH2 0x344 JUMPI JUMPDEST PUSH2 0x331 DUP2 DUP4 PUSH2 0x19D2 JUMP JUMPDEST DUP2 ADD SWAP1 PUSH2 0x1B94 JUMP JUMPDEST SWAP4 POP POP POP POP CODESIZE PUSH2 0x2CA JUMP JUMPDEST POP RETURNDATASIZE PUSH2 0x327 JUMP JUMPDEST PUSH1 0x40 MLOAD RETURNDATASIZE DUP6 DUP3 RETURNDATACOPY RETURNDATASIZE SWAP1 REVERT JUMPDEST SWAP1 POP PUSH1 0x20 DUP2 RETURNDATASIZE PUSH1 0x20 GT PUSH2 0x385 JUMPI JUMPDEST DUP2 PUSH2 0x371 PUSH1 0x20 SWAP4 DUP4 PUSH2 0x19D2 JUMP JUMPDEST DUP2 ADD SUB SLT PUSH2 0x380 JUMPI MLOAD CODESIZE PUSH2 0x293 JUMP JUMPDEST PUSH1 0x0 DUP1 REVERT JUMPDEST RETURNDATASIZE SWAP2 POP PUSH2 0x364 JUMP JUMPDEST PUSH1 0x40 MLOAD RETURNDATASIZE DUP5 DUP3 RETURNDATACOPY RETURNDATASIZE SWAP1 REVERT JUMPDEST POP CALLVALUE PUSH2 0x219 JUMPI DUP1 PUSH1 0x3 NOT CALLDATASIZE ADD SLT PUSH2 0x219 JUMPI PUSH1 0x20 PUSH1 0x40 MLOAD PUSH1 0xA DUP2 MSTORE RETURN JUMPDEST POP CALLVALUE PUSH2 0x219 JUMPI DUP1 PUSH1 0x3 NOT CALLDATASIZE ADD SLT PUSH2 0x219 JUMPI PUSH1 0x20 PUSH1 0x8 SLOAD PUSH1 0x40 MLOAD SWAP1 DUP2 MSTORE RETURN JUMPDEST POP CALLVALUE PUSH2 0x219 JUMPI DUP1 PUSH1 0x3 NOT CALLDATASIZE ADD SLT PUSH2 0x219 JUMPI PUSH1 0x20 PUSH1 0xC SLOAD PUSH1 0x40 MLOAD SWAP1 DUP2 MSTORE RETURN JUMPDEST POP CALLVALUE PUSH2 0x219 JUMPI DUP1 PUSH1 0x3 NOT CALLDATASIZE ADD SLT PUSH2 0x219 JUMPI PUSH2 0x409 PUSH2 0x1C31 JUMP JUMPDEST PUSH2 0x411 PUSH2 0x1C67 JUMP JUMPDEST DUP1 SLOAD PUSH1 0x40 MLOAD PUSH4 0x70A08231 PUSH1 0xE0 SHL DUP2 MSTORE ADDRESS PUSH1 0x4 DUP3 ADD MSTORE PUSH1 0x1 PUSH1 0x1 PUSH1 0xA0 SHL SUB SWAP1 SWAP2 AND SWAP1 PUSH1 0x20 DUP2 PUSH1 0x24 DUP2 DUP6 GAS STATICCALL SWAP1 DUP2 ISZERO PUSH2 0x34B JUMPI DUP4 SWAP2 PUSH2 0x622 JUMPI JUMPDEST POP PUSH1 0x5 SLOAD SWAP2 DUP2 DUP1 PUSH2 0x5D0 JUMPI JUMPDEST POP POP DUP3 JUMPDEST DUP3 DUP2 LT PUSH2 0x523 JUMPI POP PUSH1 0x5 SLOAD DUP4 PUSH1 0x5 SSTORE DUP1 PUSH2 0x4C3 JUMPI JUMPDEST POP PUSH1 0x4 SLOAD PUSH1 0x40 DUP1 MLOAD SWAP3 DUP4 MSTORE PUSH1 0x20 DUP4 ADD SWAP4 SWAP1 SWAP4 MSTORE PUSH1 0x1 PUSH1 0x1 PUSH1 0xA0 SHL SUB AND SWAP2 PUSH32 0x56DA9A5AE0BCF6E7C3FDD78A10550E7D0458DE1C39BFB7F6E96A3E92DD344A68 SWAP2 LOG2 PUSH1 0x1 PUSH1 0x0 DUP1 MLOAD PUSH1 0x20 PUSH2 0x2281 DUP4 CODECOPY DUP2 MLOAD SWAP2 MSTORE SSTORE DUP1 RETURN JUMPDEST PUSH1 0x5 DUP5 MSTORE PUSH32 0x36B6384B5ECA791C62761152D0C79BB0604C104A5FB6F4EB0703F3154BB3DB0 ADD PUSH32 0x36B6384B5ECA791C62761152D0C79BB0604C104A5FB6F4EB0703F3154BB3DB0 JUMPDEST DUP2 DUP2 LT PUSH2 0x518 JUMPI POP PUSH2 0x46E JUMP JUMPDEST DUP5 DUP2 SSTORE PUSH1 0x1 ADD PUSH2 0x50B JUMP JUMPDEST PUSH2 0x52C DUP2 PUSH2 0x1A26 JUMP JUMPDEST SWAP1 SLOAD SWAP1 PUSH1 0x3 SHL SHR SWAP1 DUP5 PUSH1 0x1 DUP1 PUSH1 0xA0 SHL SUB PUSH1 0x2 SLOAD AND PUSH1 0x1 DUP1 PUSH1 0xA0 SHL SUB PUSH1 0x4 SLOAD AND SWAP1 DUP1 EXTCODESIZE ISZERO PUSH2 0x5CC JUMPI PUSH1 0x40 MLOAD PUSH4 0x21421707 PUSH1 0xE1 SHL DUP2 MSTORE ADDRESS PUSH1 0x4 DUP3 ADD MSTORE PUSH1 0x1 PUSH1 0x1 PUSH1 0xA0 SHL SUB SWAP3 SWAP1 SWAP3 AND PUSH1 0x24 DUP4 ADD MSTORE PUSH1 0x44 DUP3 ADD DUP6 SWAP1 MSTORE DUP3 SWAP1 DUP3 SWAP1 PUSH1 0x64 SWAP1 DUP3 SWAP1 DUP5 SWAP1 GAS CALL DUP1 ISZERO PUSH2 0x38D JUMPI PUSH2 0x5B3 JUMPI JUMPDEST POP SWAP2 PUSH1 0x1 SWAP3 MSTORE PUSH1 0x6 PUSH1 0x20 MSTORE PUSH1 0x40 DUP6 KECCAK256 PUSH1 0xFF NOT DUP2 SLOAD AND SWAP1 SSTORE ADD PUSH2 0x459 JUMP JUMPDEST DUP2 PUSH2 0x5BD SWAP2 PUSH2 0x19D2 JUMP JUMPDEST PUSH2 0x5C8 JUMPI DUP5 CODESIZE PUSH2 0x596 JUMP JUMPDEST DUP5 DUP1 REVERT JUMPDEST DUP3 DUP1 REVERT JUMPDEST PUSH1 0x4 SLOAD PUSH1 0x40 MLOAD PUSH4 0xA9059CBB PUSH1 0xE0 SHL PUSH1 0x20 DUP3 ADD MSTORE PUSH1 0x1 PUSH1 0x1 PUSH1 0xA0 SHL SUB SWAP1 SWAP2 AND PUSH1 0x24 DUP3 ADD MSTORE PUSH1 0x44 DUP2 ADD SWAP2 SWAP1 SWAP2 MSTORE PUSH2 0x61B SWAP2 PUSH2 0x616 DUP3 PUSH1 0x64 DUP2 ADD JUMPDEST SUB PUSH1 0x1F NOT DUP2 ADD DUP5 MSTORE DUP4 PUSH2 0x19D2 JUMP JUMPDEST PUSH2 0x2136 JUMP JUMPDEST CODESIZE DUP2 PUSH2 0x455 JUMP JUMPDEST SWAP1 POP PUSH1 0x20 DUP2 RETURNDATASIZE PUSH1 0x20 GT PUSH2 0x64C JUMPI JUMPDEST DUP2 PUSH2 0x63D PUSH1 0x20 SWAP4 DUP4 PUSH2 0x19D2 JUMP JUMPDEST DUP2 ADD SUB SLT PUSH2 0x380 JUMPI MLOAD CODESIZE PUSH2 0x449 JUMP JUMPDEST RETURNDATASIZE SWAP2 POP PUSH2 0x630 JUMP JUMPDEST POP CALLVALUE PUSH2 0x219 JUMPI DUP1 PUSH1 0x3 NOT CALLDATASIZE ADD SLT PUSH2 0x219 JUMPI PUSH2 0x66D PUSH2 0x1C67 JUMP JUMPDEST PUSH2 0x675 PUSH2 0x1CA3 JUMP JUMPDEST PUSH1 0x3 SLOAD PUSH1 0x1 PUSH1 0x1 PUSH1 0xA0 SHL SUB AND CALLER EQ ISZERO DUP1 PUSH2 0x6CB JUMPI JUMPDEST PUSH2 0x6B8 JUMPI PUSH1 0x40 PUSH2 0x698 PUSH2 0x2024 JUMP JUMPDEST PUSH1 0x1 PUSH1 0x0 DUP1 MLOAD PUSH1 0x20 PUSH2 0x2281 DUP4 CODECOPY DUP2 MLOAD SWAP2 MSTORE SSTORE DUP3 MLOAD SWAP2 ISZERO ISZERO DUP3 MSTORE PUSH1 0x20 DUP3 ADD MSTORE RETURN JUMPDEST PUSH4 0x4A0BFEC1 PUSH1 0xE0 SHL DUP2 MSTORE CALLER PUSH1 0x4 MSTORE PUSH1 0x24 SWAP1 REVERT JUMPDEST POP PUSH1 0x0 DUP1 MLOAD PUSH1 0x20 PUSH2 0x2221 DUP4 CODECOPY DUP2 MLOAD SWAP2 MSTORE SLOAD PUSH1 0x1 PUSH1 0x1 PUSH1 0xA0 SHL SUB AND CALLER EQ ISZERO PUSH2 0x68A JUMP JUMPDEST POP CALLVALUE PUSH2 0x219 JUMPI DUP1 PUSH1 0x3 NOT CALLDATASIZE ADD SLT PUSH2 0x219 JUMPI PUSH1 0x20 PUSH1 0x40 MLOAD PUSH4 0x30A32C0 DUP2 MSTORE RETURN JUMPDEST POP CALLVALUE PUSH2 0x219 JUMPI DUP1 PUSH1 0x3 NOT CALLDATASIZE ADD SLT PUSH2 0x219 JUMPI SLOAD PUSH1 0x40 MLOAD PUSH1 0x1 PUSH1 0x1 PUSH1 0xA0 SHL SUB SWAP1 SWAP2 AND DUP2 MSTORE PUSH1 0x20 SWAP1 RETURN JUMPDEST POP CALLVALUE PUSH2 0x219 JUMPI PUSH1 0xC0 CALLDATASIZE PUSH1 0x3 NOT ADD SLT PUSH2 0x219 JUMPI PUSH2 0x74D PUSH2 0x19A6 JUMP JUMPDEST PUSH2 0x755 PUSH2 0x19BC JUMP JUMPDEST SWAP1 PUSH1 0x44 CALLDATALOAD PUSH1 0x1 PUSH1 0x1 PUSH1 0xA0 SHL SUB DUP2 AND SWAP2 SWAP1 DUP3 SWAP1 SUB PUSH2 0x9BB JUMPI PUSH1 0x64 CALLDATALOAD PUSH1 0x1 PUSH1 0x1 PUSH1 0xA0 SHL SUB DUP2 AND SWAP1 DUP2 SWAP1 SUB PUSH2 0x5C8 JUMPI PUSH1 0x84 CALLDATALOAD PUSH1 0x1 PUSH1 0x1 PUSH1 0xA0 SHL SUB DUP2 AND SWAP2 SWAP1 DUP3 SWAP1 SUB PUSH2 0x9B7 JUMPI PUSH1 0xA4 CALLDATALOAD PUSH1 0x1 PUSH1 0x1 PUSH1 0xA0 SHL SUB DUP2 AND SWAP5 SWAP1 DUP6 SWAP1 SUB PUSH2 0x9B3 JUMPI PUSH1 0x0 DUP1 MLOAD PUSH1 0x20 PUSH2 0x22A1 DUP4 CODECOPY DUP2 MLOAD SWAP2 MSTORE SLOAD SWAP6 PUSH1 0xFF DUP8 PUSH1 0x40 SHR AND ISZERO SWAP7 PUSH8 0xFFFFFFFFFFFFFFFF DUP2 AND DUP1 ISZERO SWAP1 DUP2 PUSH2 0x9AB JUMPI JUMPDEST PUSH1 0x1 EQ SWAP1 DUP2 PUSH2 0x9A1 JUMPI JUMPDEST ISZERO SWAP1 DUP2 PUSH2 0x998 JUMPI JUMPDEST POP PUSH2 0x989 JUMPI PUSH8 0xFFFFFFFFFFFFFFFF NOT DUP2 AND PUSH1 0x1 OR PUSH1 0x0 DUP1 MLOAD PUSH1 0x20 PUSH2 0x22A1 DUP4 CODECOPY DUP2 MLOAD SWAP2 MSTORE SSTORE DUP8 PUSH2 0x95C JUMPI JUMPDEST POP PUSH1 0x1 PUSH1 0x1 PUSH1 0xA0 SHL SUB DUP6 AND ISZERO PUSH2 0x94D JUMPI PUSH1 0x1 PUSH1 0x1 PUSH1 0xA0 SHL SUB AND SWAP4 DUP5 ISZERO PUSH2 0x94D JUMPI DUP2 ISZERO PUSH2 0x94D JUMPI DUP3 ISZERO PUSH2 0x94D JUMPI DUP4 ISZERO PUSH2 0x94D JUMPI PUSH2 0x85D SWAP1 PUSH2 0x855 PUSH2 0x2191 JUMP JUMPDEST PUSH2 0x241 PUSH2 0x2191 JUMP JUMPDEST PUSH2 0x865 PUSH2 0x2191 JUMP JUMPDEST PUSH2 0x86D PUSH2 0x2191 JUMP JUMPDEST PUSH2 0x875 PUSH2 0x2191 JUMP JUMPDEST PUSH1 0x1 PUSH1 0x0 DUP1 MLOAD PUSH1 0x20 PUSH2 0x2281 DUP4 CODECOPY DUP2 MLOAD SWAP2 MSTORE SSTORE PUSH2 0x88F PUSH2 0x2191 JUMP JUMPDEST PUSH1 0x1 PUSH1 0x1 PUSH1 0x60 SHL SUB PUSH1 0xA0 SHL DUP8 SLOAD AND OR DUP7 SSTORE PUSH1 0x1 PUSH1 0x1 PUSH1 0x60 SHL SUB PUSH1 0xA0 SHL PUSH1 0x1 SLOAD AND OR PUSH1 0x1 SSTORE PUSH1 0x1 PUSH1 0x1 PUSH1 0x60 SHL SUB PUSH1 0xA0 SHL PUSH1 0x2 SLOAD AND OR PUSH1 0x2 SSTORE PUSH1 0x1 PUSH1 0x1 PUSH1 0x60 SHL SUB PUSH1 0xA0 SHL PUSH1 0x4 SLOAD AND OR PUSH1 0x4 SSTORE PUSH1 0x1 PUSH1 0x1 PUSH1 0x60 SHL SUB PUSH1 0xA0 SHL PUSH1 0x3 SLOAD AND OR PUSH1 0x3 SSTORE PUSH2 0x8F3 JUMPI DUP1 RETURN JUMPDEST PUSH9 0xFF0000000000000000 NOT PUSH1 0x0 DUP1 MLOAD PUSH1 0x20 PUSH2 0x22A1 DUP4 CODECOPY DUP2 MLOAD SWAP2 MSTORE SLOAD AND PUSH1 0x0 DUP1 MLOAD PUSH1 0x20 PUSH2 0x22A1 DUP4 CODECOPY DUP2 MLOAD SWAP2 MSTORE SSTORE PUSH32 0xC7F505B2F371AE2175EE4913F4499E1F2633A7B5936321EED1CDAEB6115181D2 PUSH1 0x20 PUSH1 0x40 MLOAD PUSH1 0x1 DUP2 MSTORE LOG1 DUP1 RETURN JUMPDEST PUSH4 0xD92E233D PUSH1 0xE0 SHL DUP9 MSTORE PUSH1 0x4 DUP9 REVERT JUMPDEST PUSH9 0xFFFFFFFFFFFFFFFFFF NOT AND PUSH9 0x10000000000000001 OR PUSH1 0x0 DUP1 MLOAD PUSH1 0x20 PUSH2 0x22A1 DUP4 CODECOPY DUP2 MLOAD SWAP2 MSTORE SSTORE CODESIZE PUSH2 0x817 JUMP JUMPDEST PUSH4 0xF92EE8A9 PUSH1 0xE0 SHL DUP10 MSTORE PUSH1 0x4 DUP10 REVERT JUMPDEST SWAP1 POP ISZERO CODESIZE PUSH2 0x7ED JUMP JUMPDEST ADDRESS EXTCODESIZE ISZERO SWAP2 POP PUSH2 0x7E5 JUMP JUMPDEST DUP10 SWAP2 POP PUSH2 0x7DB JUMP JUMPDEST DUP7 DUP1 REVERT JUMPDEST DUP6 DUP1 REVERT JUMPDEST DUP4 DUP1 REVERT JUMPDEST POP CALLVALUE PUSH2 0x219 JUMPI DUP1 PUSH1 0x3 NOT CALLDATASIZE ADD SLT PUSH2 0x219 JUMPI PUSH1 0x8 SLOAD PUSH1 0x9 SLOAD PUSH1 0xA SLOAD PUSH1 0x5 SLOAD DUP5 SLOAD PUSH1 0x40 MLOAD PUSH4 0x70A08231 PUSH1 0xE0 SHL DUP2 MSTORE ADDRESS PUSH1 0x4 DUP3 ADD MSTORE SWAP6 SWAP4 SWAP2 SWAP3 SWAP2 SWAP1 PUSH1 0x20 SWAP1 DUP8 SWAP1 PUSH1 0x24 SWAP1 DUP3 SWAP1 PUSH1 0x1 PUSH1 0x1 PUSH1 0xA0 SHL SUB AND GAS STATICCALL SWAP4 DUP5 ISZERO PUSH2 0xA6E JUMPI SWAP4 PUSH2 0xA39 JUMPI JUMPDEST PUSH1 0xA0 SWAP6 POP PUSH1 0x40 MLOAD SWAP5 DUP6 MSTORE PUSH1 0x20 DUP6 ADD MSTORE PUSH1 0x40 DUP5 ADD MSTORE PUSH1 0x60 DUP4 ADD MSTORE PUSH1 0x80 DUP3 ADD MSTORE RETURN JUMPDEST SWAP3 POP PUSH1 0x20 DUP6 RETURNDATASIZE PUSH1 0x20 GT PUSH2 0xA66 JUMPI JUMPDEST DUP2 PUSH2 0xA54 PUSH1 0x20 SWAP4 DUP4 PUSH2 0x19D2 JUMP JUMPDEST DUP2 ADD SUB SLT PUSH2 0x380 JUMPI PUSH1 0xA0 SWAP5 MLOAD SWAP3 PUSH2 0xA19 JUMP JUMPDEST RETURNDATASIZE SWAP2 POP PUSH2 0xA47 JUMP JUMPDEST PUSH1 0x40 MLOAD SWAP1 RETURNDATASIZE SWAP1 DUP3 RETURNDATACOPY RETURNDATASIZE SWAP1 REVERT JUMPDEST POP CALLVALUE PUSH2 0x219 JUMPI DUP1 PUSH1 0x3 NOT CALLDATASIZE ADD SLT PUSH2 0x219 JUMPI PUSH1 0x20 PUSH1 0x40 MLOAD PUSH1 0x6 DUP2 MSTORE RETURN JUMPDEST POP CALLVALUE PUSH2 0x219 JUMPI PUSH1 0x20 CALLDATASIZE PUSH1 0x3 NOT ADD SLT PUSH2 0x219 JUMPI PUSH1 0x4 CALLDATALOAD PUSH2 0xAB3 PUSH2 0x1C67 JUMP JUMPDEST PUSH2 0xABB PUSH2 0x1CA3 JUMP JUMPDEST DUP1 ISZERO PUSH2 0xBB2 JUMPI DUP2 SLOAD PUSH1 0x40 MLOAD PUSH4 0x23B872DD PUSH1 0xE0 SHL PUSH1 0x20 DUP3 ADD MSTORE CALLER PUSH1 0x24 DUP3 ADD MSTORE ADDRESS PUSH1 0x44 DUP3 ADD MSTORE PUSH1 0x64 DUP2 ADD DUP4 SWAP1 MSTORE PUSH2 0xB00 SWAP2 PUSH1 0x1 PUSH1 0x1 PUSH1 0xA0 SHL SUB AND PUSH2 0x616 DUP3 PUSH1 0x84 DUP2 ADD PUSH2 0x608 JUMP JUMPDEST DUP2 SLOAD PUSH1 0x40 MLOAD PUSH4 0x70A08231 PUSH1 0xE0 SHL DUP2 MSTORE ADDRESS PUSH1 0x4 DUP3 ADD MSTORE SWAP1 PUSH1 0x20 SWAP1 DUP3 SWAP1 PUSH1 0x24 SWAP1 DUP3 SWAP1 PUSH1 0x1 PUSH1 0x1 PUSH1 0xA0 SHL SUB AND GAS STATICCALL SWAP1 DUP2 ISZERO PUSH2 0x34B JUMPI DUP4 SWAP2 PUSH2 0xB80 JUMPI JUMPDEST POP PUSH1 0x40 MLOAD SWAP2 DUP3 MSTORE PUSH1 0x20 DUP3 ADD MSTORE PUSH32 0x2F22B7F6E7F7DF7D0EB3D1A543A2B6EB906E76A03540C2D66D2725270A5F6D31 PUSH1 0x40 CALLER SWAP3 LOG2 PUSH1 0x1 PUSH1 0x0 DUP1 MLOAD PUSH1 0x20 PUSH2 0x2281 DUP4 CODECOPY DUP2 MLOAD SWAP2 MSTORE SSTORE DUP1 RETURN JUMPDEST SWAP1 POP PUSH1 0x20 DUP2 RETURNDATASIZE PUSH1 0x20 GT PUSH2 0xBAA JUMPI JUMPDEST DUP2 PUSH2 0xB9B PUSH1 0x20 SWAP4 DUP4 PUSH2 0x19D2 JUMP JUMPDEST DUP2 ADD SUB SLT PUSH2 0x380 JUMPI MLOAD CODESIZE PUSH2 0xB39 JUMP JUMPDEST RETURNDATASIZE SWAP2 POP PUSH2 0xB8E JUMP JUMPDEST PUSH4 0x162908E3 PUSH1 0xE1 SHL DUP3 MSTORE PUSH1 0x4 DUP3 REVERT JUMPDEST POP CALLVALUE PUSH2 0x219 JUMPI PUSH1 0x20 CALLDATASIZE PUSH1 0x3 NOT ADD SLT PUSH2 0x219 JUMPI PUSH2 0xBDB PUSH2 0x19A6 JUMP JUMPDEST PUSH2 0xBE3 PUSH2 0x1C31 JUMP JUMPDEST PUSH1 0x1 PUSH1 0x1 PUSH1 0xA0 SHL SUB DUP2 AND DUP1 ISZERO PUSH2 0xC4E JUMPI PUSH1 0x3 DUP1 SLOAD PUSH1 0x1 PUSH1 0x1 PUSH1 0xA0 SHL SUB NOT DUP2 AND SWAP1 SWAP3 OR SWAP1 SSTORE PUSH1 0x40 DUP1 MLOAD PUSH1 0x1 PUSH1 0x1 PUSH1 0xA0 SHL SUB SWAP3 DUP4 AND DUP2 MSTORE SWAP2 SWAP1 SWAP3 AND PUSH1 0x20 DUP3 ADD MSTORE PUSH32 0xF66399FE71A8AEEF123694608632EA96EA22BB57F3831B48BE1EDD314BD320CB SWAP2 DUP2 SWAP1 DUP2 ADD JUMPDEST SUB SWAP1 LOG1 DUP1 RETURN JUMPDEST PUSH4 0xD92E233D PUSH1 0xE0 SHL DUP4 MSTORE PUSH1 0x4 DUP4 REVERT JUMPDEST POP CALLVALUE PUSH2 0x219 JUMPI PUSH1 0x40 CALLDATASIZE PUSH1 0x3 NOT ADD SLT PUSH2 0x219 JUMPI PUSH2 0xC77 PUSH2 0x19A6 JUMP JUMPDEST PUSH1 0x24 CALLDATALOAD SWAP2 PUSH2 0xC83 PUSH2 0x1C67 JUMP JUMPDEST PUSH2 0xC8B PUSH2 0x1CA3 JUMP JUMPDEST PUSH1 0x3 SLOAD PUSH1 0x1 PUSH1 0x1 PUSH1 0xA0 SHL SUB AND CALLER SUB PUSH2 0x6B8 JUMPI PUSH1 0x1 PUSH1 0x1 PUSH1 0xA0 SHL SUB DUP3 AND SWAP2 DUP3 ISZERO PUSH2 0xDA2 JUMPI DUP4 DUP3 MSTORE PUSH1 0x6 PUSH1 0x20 MSTORE PUSH1 0xFF PUSH1 0x40 DUP4 KECCAK256 SLOAD AND ISZERO PUSH2 0xD8E JUMPI PUSH2 0xCCC DUP5 PUSH2 0x1CCD JUMP JUMPDEST PUSH1 0x2 SLOAD PUSH1 0x1 PUSH1 0x1 PUSH1 0xA0 SHL SUB AND SWAP1 DUP2 EXTCODESIZE ISZERO PUSH2 0x5CC JUMPI PUSH1 0x40 MLOAD PUSH4 0x21421707 PUSH1 0xE1 SHL DUP2 MSTORE ADDRESS PUSH1 0x4 DUP3 ADD MSTORE PUSH1 0x1 PUSH1 0x1 PUSH1 0xA0 SHL SUB SWAP2 SWAP1 SWAP2 AND PUSH1 0x24 DUP3 ADD MSTORE PUSH1 0x44 DUP2 ADD DUP6 SWAP1 MSTORE SWAP1 DUP3 SWAP1 DUP3 SWAP1 PUSH1 0x64 SWAP1 DUP3 SWAP1 DUP5 SWAP1 GAS CALL DUP1 ISZERO PUSH2 0x38D JUMPI PUSH2 0xD7E JUMPI JUMPDEST POP POP PUSH2 0xD31 PUSH1 0x9 SLOAD PUSH2 0x1A57 JUMP JUMPDEST PUSH1 0x9 SSTORE PUSH32 0x55144F84A06ABA3B3A5C49B5D2D0D2A1FED9E25F465A2CC0F4A23B883C478215 PUSH1 0x20 PUSH1 0x5 SLOAD PUSH1 0x40 MLOAD SWAP1 DUP2 MSTORE LOG3 PUSH1 0x1 PUSH1 0x0 DUP1 MLOAD PUSH1 0x20 PUSH2 0x2281 DUP4 CODECOPY DUP2 MLOAD SWAP2 MSTORE SSTORE PUSH1 0x20 PUSH1 0x40 MLOAD PUSH1 0x1 DUP2 MSTORE RETURN JUMPDEST DUP2 PUSH2 0xD88 SWAP2 PUSH2 0x19D2 JUMP JUMPDEST CODESIZE PUSH2 0xD24 JUMP JUMPDEST PUSH4 0x29762DBF PUSH1 0xE2 SHL DUP3 MSTORE PUSH1 0x4 DUP5 SWAP1 MSTORE PUSH1 0x24 DUP3 REVERT JUMPDEST PUSH4 0xD92E233D PUSH1 0xE0 SHL DUP3 MSTORE PUSH1 0x4 DUP3 REVERT JUMPDEST POP CALLVALUE PUSH2 0x219 JUMPI DUP1 PUSH1 0x3 NOT CALLDATASIZE ADD SLT PUSH2 0x219 JUMPI PUSH1 0x20 PUSH1 0x5 SLOAD PUSH1 0x40 MLOAD SWAP1 DUP2 MSTORE RETURN JUMPDEST POP CALLVALUE PUSH2 0x219 JUMPI DUP1 PUSH1 0x3 NOT CALLDATASIZE ADD SLT PUSH2 0x219 JUMPI PUSH1 0x40 DUP1 MLOAD SWAP2 PUSH2 0xDEF DUP3 DUP5 PUSH2 0x19D2 JUMP JUMPDEST PUSH1 0x5 DUP4 MSTORE PUSH5 0x352E302E3 PUSH1 0xDC SHL PUSH1 0x20 DUP5 ADD MSTORE DUP2 MLOAD SWAP3 DUP4 SWAP2 PUSH1 0x20 DUP4 MSTORE DUP2 MLOAD SWAP2 DUP3 PUSH1 0x20 DUP6 ADD MSTORE DUP2 JUMPDEST DUP4 DUP2 LT PUSH2 0xE32 JUMPI POP POP DUP3 DUP3 ADD DUP5 ADD MSTORE PUSH1 0x1F ADD PUSH1 0x1F NOT AND DUP2 ADD SUB ADD SWAP1 RETURN JUMPDEST PUSH1 0x20 DUP3 DUP3 ADD DUP2 ADD MLOAD DUP9 DUP4 ADD DUP9 ADD MSTORE DUP8 SWAP6 POP ADD PUSH2 0xE15 JUMP JUMPDEST POP CALLVALUE PUSH2 0x219 JUMPI PUSH1 0x20 CALLDATASIZE PUSH1 0x3 NOT ADD SLT PUSH2 0x219 JUMPI PUSH2 0xE63 PUSH2 0x19A6 JUMP JUMPDEST PUSH2 0xE6B PUSH2 0x1C31 JUMP JUMPDEST PUSH1 0x1 PUSH1 0x1 PUSH1 0xA0 SHL SUB DUP2 AND DUP1 ISZERO PUSH2 0xC4E JUMPI PUSH1 0x4 DUP1 SLOAD PUSH1 0x1 PUSH1 0x1 PUSH1 0xA0 SHL SUB NOT DUP2 AND SWAP1 SWAP3 OR SWAP1 SSTORE PUSH1 0x40 DUP1 MLOAD PUSH1 0x1 PUSH1 0x1 PUSH1 0xA0 SHL SUB SWAP3 DUP4 AND DUP2 MSTORE SWAP2 SWAP1 SWAP3 AND PUSH1 0x20 DUP3 ADD MSTORE PUSH32 0xA982575859D7AD2F390DC12B23F7DAB8BBDA047F9D0140AC68344B27BF34BFB4 SWAP2 DUP2 SWAP1 DUP2 ADD PUSH2 0xC48 JUMP JUMPDEST POP CALLVALUE PUSH2 0x219 JUMPI DUP1 PUSH1 0x3 NOT CALLDATASIZE ADD SLT PUSH2 0x219 JUMPI PUSH1 0x0 DUP1 MLOAD PUSH1 0x20 PUSH2 0x2221 DUP4 CODECOPY DUP2 MLOAD SWAP2 MSTORE SLOAD PUSH1 0x40 MLOAD PUSH1 0x1 PUSH1 0x1 PUSH1 0xA0 SHL SUB SWAP1 SWAP2 AND DUP2 MSTORE PUSH1 0x20 SWAP1 RETURN JUMPDEST POP CALLVALUE PUSH2 0x219 JUMPI DUP1 PUSH1 0x3 NOT CALLDATASIZE ADD SLT PUSH2 0x219 JUMPI PUSH2 0xF23 PUSH2 0x1C31 JUMP JUMPDEST PUSH2 0xF2B PUSH2 0x1CA3 JUMP JUMPDEST PUSH1 0x1 PUSH1 0xFF NOT PUSH1 0x0 DUP1 MLOAD PUSH1 0x20 PUSH2 0x2261 DUP4 CODECOPY DUP2 MLOAD SWAP2 MSTORE SLOAD AND OR PUSH1 0x0 DUP1 MLOAD PUSH1 0x20 PUSH2 0x2261 DUP4 CODECOPY DUP2 MLOAD SWAP2 MSTORE SSTORE PUSH32 0x62E78CEA01BEE320CD4E420270B5EA74000D11B0C9F74754EBDBFC544B05A258 PUSH1 0x20 PUSH1 0x40 MLOAD CALLER DUP2 MSTORE LOG1 DUP1 RETURN JUMPDEST POP CALLVALUE PUSH2 0x219 JUMPI PUSH1 0x20 CALLDATASIZE PUSH1 0x3 NOT ADD SLT PUSH2 0x219 JUMPI PUSH1 0x4 CALLDATALOAD SWAP1 PUSH1 0x5 SLOAD DUP3 LT ISZERO PUSH2 0x219 JUMPI PUSH1 0x20 PUSH2 0xFAA DUP4 PUSH2 0x1A26 JUMP JUMPDEST SWAP1 SLOAD SWAP1 PUSH1 0x3 SHL SHR PUSH1 0x40 MLOAD SWAP1 DUP2 MSTORE RETURN JUMPDEST POP CALLVALUE PUSH2 0x219 JUMPI DUP1 PUSH1 0x3 NOT CALLDATASIZE ADD SLT PUSH2 0x219 JUMPI PUSH2 0xFD2 PUSH2 0x1C67 JUMP JUMPDEST PUSH2 0xFDA PUSH2 0x1CA3 JUMP JUMPDEST PUSH2 0xFE2 PUSH2 0x1C31 JUMP JUMPDEST PUSH1 0xA PUSH1 0x5 SLOAD LT ISZERO PUSH2 0x1107 JUMPI PUSH1 0x1 SLOAD PUSH1 0x40 MLOAD PUSH4 0x2DABC24F PUSH1 0xE0 SHL DUP2 MSTORE SWAP2 SWAP1 PUSH1 0xA0 SWAP1 DUP4 SWAP1 PUSH1 0x4 SWAP1 DUP3 SWAP1 PUSH1 0x1 PUSH1 0x1 PUSH1 0xA0 SHL SUB AND GAS STATICCALL SWAP2 DUP3 ISZERO PUSH2 0x10FA JUMPI DUP2 SWAP3 PUSH2 0x10D4 JUMPI JUMPDEST POP DUP1 SLOAD PUSH1 0x40 MLOAD PUSH4 0x70A08231 PUSH1 0xE0 SHL DUP2 MSTORE ADDRESS PUSH1 0x4 DUP3 ADD MSTORE SWAP1 PUSH1 0x20 SWAP1 DUP3 SWAP1 PUSH1 0x24 SWAP1 DUP3 SWAP1 PUSH1 0x1 PUSH1 0x1 PUSH1 0xA0 SHL SUB AND GAS STATICCALL SWAP1 DUP2 ISZERO PUSH2 0x38D JUMPI DUP3 SWAP2 PUSH2 0x109E JUMPI JUMPDEST POP DUP3 DUP2 LT PUSH2 0x1089 JUMPI PUSH1 0x20 PUSH2 0x106F DUP5 PUSH2 0x1DC4 JUMP JUMPDEST PUSH1 0x1 PUSH1 0x0 DUP1 MLOAD PUSH1 0x20 PUSH2 0x2281 DUP4 CODECOPY DUP2 MLOAD SWAP2 MSTORE SSTORE PUSH1 0x40 MLOAD SWAP1 DUP2 MSTORE RETURN JUMPDEST PUSH1 0x44 SWAP3 PUSH4 0xCF479181 PUSH1 0xE0 SHL DUP4 MSTORE PUSH1 0x4 MSTORE PUSH1 0x24 MSTORE REVERT JUMPDEST SWAP1 POP PUSH1 0x20 DUP2 RETURNDATASIZE PUSH1 0x20 GT PUSH2 0x10CC JUMPI JUMPDEST DUP2 PUSH2 0x10B9 PUSH1 0x20 SWAP4 DUP4 PUSH2 0x19D2 JUMP JUMPDEST DUP2 ADD SUB SLT PUSH2 0x10C8 JUMPI MLOAD CODESIZE PUSH2 0x105C JUMP JUMPDEST POP DUP1 REVERT JUMPDEST RETURNDATASIZE SWAP2 POP PUSH2 0x10AC JUMP JUMPDEST PUSH2 0x10EE SWAP2 SWAP3 POP PUSH1 0xA0 RETURNDATASIZE PUSH1 0xA0 GT PUSH2 0x344 JUMPI PUSH2 0x331 DUP2 DUP4 PUSH2 0x19D2 JUMP JUMPDEST SWAP4 POP POP POP POP SWAP1 CODESIZE PUSH2 0x1022 JUMP JUMPDEST POP PUSH1 0x40 MLOAD SWAP1 RETURNDATASIZE SWAP1 DUP3 RETURNDATACOPY RETURNDATASIZE SWAP1 REVERT JUMPDEST PUSH4 0xC6FB6E9 PUSH1 0xE3 SHL DUP2 MSTORE PUSH1 0xA PUSH1 0x4 MSTORE PUSH1 0x24 SWAP1 REVERT JUMPDEST POP CALLVALUE PUSH2 0x219 JUMPI PUSH1 0x20 CALLDATASIZE PUSH1 0x3 NOT ADD SLT PUSH2 0x219 JUMPI PUSH1 0x20 SWAP1 PUSH1 0x4 CALLDATALOAD DUP2 MSTORE PUSH1 0xB DUP3 MSTORE PUSH1 0x40 PUSH1 0x1 DUP1 PUSH1 0xA0 SHL SUB SWAP2 KECCAK256 SLOAD AND PUSH1 0x40 MLOAD SWAP1 DUP2 MSTORE RETURN JUMPDEST POP CALLVALUE PUSH2 0x219 JUMPI DUP1 PUSH1 0x3 NOT CALLDATASIZE ADD SLT PUSH2 0x219 JUMPI PUSH1 0x20 PUSH1 0x9 SLOAD PUSH1 0x40 MLOAD SWAP1 DUP2 MSTORE RETURN JUMPDEST POP CALLVALUE PUSH2 0x219 JUMPI PUSH1 0x20 CALLDATASIZE PUSH1 0x3 NOT ADD SLT PUSH2 0x219 JUMPI PUSH2 0x1186 PUSH2 0x19A6 JUMP JUMPDEST SWAP1 PUSH2 0x118F PUSH2 0x1C67 JUMP JUMPDEST PUSH2 0x1197 PUSH2 0x1CA3 JUMP JUMPDEST PUSH1 0x3 SLOAD PUSH1 0x1 PUSH1 0x1 PUSH1 0xA0 SHL SUB AND CALLER SUB PUSH2 0x6B8 JUMPI PUSH1 0x20 PUSH2 0x106F DUP4 PUSH2 0x1A7C JUMP JUMPDEST POP CALLVALUE PUSH2 0x219 JUMPI DUP1 PUSH1 0x3 NOT CALLDATASIZE ADD SLT PUSH2 0x219 JUMPI PUSH1 0x3 SLOAD PUSH1 0x40 MLOAD PUSH1 0x1 PUSH1 0x1 PUSH1 0xA0 SHL SUB SWAP1 SWAP2 AND DUP2 MSTORE PUSH1 0x20 SWAP1 RETURN JUMPDEST POP CALLVALUE PUSH2 0x219 JUMPI DUP1 PUSH1 0x3 NOT CALLDATASIZE ADD SLT PUSH2 0x219 JUMPI PUSH1 0x5 SLOAD PUSH1 0xA DUP2 LT SWAP1 DUP2 ISZERO PUSH2 0x1232 JUMPI PUSH1 0xA SUB SWAP2 PUSH1 0xA DUP4 GT PUSH2 0x121E JUMPI POP PUSH1 0xFF DUP1 PUSH1 0x40 SWAP4 AND JUMPDEST DUP4 MLOAD SWAP3 DUP4 MSTORE AND PUSH1 0x20 DUP3 ADD MSTORE RETURN JUMPDEST PUSH4 0x4E487B71 PUSH1 0xE0 SHL DUP2 MSTORE PUSH1 0x11 PUSH1 0x4 MSTORE PUSH1 0x24 SWAP1 REVERT JUMPDEST POP PUSH1 0xFF PUSH1 0x40 SWAP3 PUSH2 0x1211 JUMP JUMPDEST POP CALLVALUE PUSH2 0x219 JUMPI DUP1 PUSH1 0x3 NOT CALLDATASIZE ADD SLT PUSH2 0x219 JUMPI PUSH2 0x1256 PUSH2 0x1C31 JUMP JUMPDEST PUSH1 0x0 DUP1 MLOAD PUSH1 0x20 PUSH2 0x2221 DUP4 CODECOPY DUP2 MLOAD SWAP2 MSTORE DUP1 SLOAD PUSH1 0x1 PUSH1 0x1 PUSH1 0xA0 SHL SUB NOT DUP2 AND SWAP1 SWAP2 SSTORE DUP2 SWAP1 PUSH1 0x1 PUSH1 0x1 PUSH1 0xA0 SHL SUB AND PUSH32 0x8BE0079C531659141344CD1FD0A4F28419497F9722A3DAAFE3B4186F6B6457E0 DUP3 DUP1 LOG3 DUP1 RETURN JUMPDEST POP CALLVALUE PUSH2 0x219 JUMPI DUP1 PUSH1 0x3 NOT CALLDATASIZE ADD SLT PUSH2 0x219 JUMPI PUSH1 0x40 MLOAD DUP1 PUSH1 0x20 PUSH1 0x5 SLOAD SWAP2 DUP3 DUP2 MSTORE ADD DUP1 SWAP2 PUSH1 0x5 DUP6 MSTORE PUSH32 0x36B6384B5ECA791C62761152D0C79BB0604C104A5FB6F4EB0703F3154BB3DB0 SWAP1 DUP6 JUMPDEST DUP2 DUP2 LT PUSH2 0x1347 JUMPI POP POP POP DUP3 PUSH2 0x1306 SWAP2 SUB DUP4 PUSH2 0x19D2 JUMP JUMPDEST PUSH1 0x40 MLOAD SWAP3 DUP4 SWAP3 PUSH1 0x20 DUP5 ADD SWAP1 PUSH1 0x20 DUP6 MSTORE MLOAD DUP1 SWAP2 MSTORE PUSH1 0x40 DUP5 ADD SWAP3 SWAP2 JUMPDEST DUP2 DUP2 LT PUSH2 0x132E JUMPI POP POP POP SUB SWAP1 RETURN JUMPDEST DUP3 MLOAD DUP5 MSTORE DUP6 SWAP5 POP PUSH1 0x20 SWAP4 DUP5 ADD SWAP4 SWAP1 SWAP3 ADD SWAP2 PUSH1 0x1 ADD PUSH2 0x1320 JUMP JUMPDEST DUP3 SLOAD DUP5 MSTORE PUSH1 0x20 SWAP1 SWAP4 ADD SWAP3 PUSH1 0x1 SWAP3 DUP4 ADD SWAP3 ADD PUSH2 0x12F0 JUMP JUMPDEST POP CALLVALUE PUSH2 0x219 JUMPI DUP1 PUSH1 0x3 NOT CALLDATASIZE ADD SLT PUSH2 0x219 JUMPI PUSH1 0x20 PUSH1 0xFF PUSH1 0x0 DUP1 MLOAD PUSH1 0x20 PUSH2 0x2261 DUP4 CODECOPY DUP2 MLOAD SWAP2 MSTORE SLOAD AND PUSH1 0x40 MLOAD SWAP1 ISZERO ISZERO DUP2 MSTORE RETURN JUMPDEST POP CALLVALUE PUSH2 0x219 JUMPI DUP1 PUSH1 0x3 NOT CALLDATASIZE ADD SLT PUSH2 0x219 JUMPI PUSH1 0x1 SLOAD PUSH1 0x40 MLOAD PUSH1 0x1 PUSH1 0x1 PUSH1 0xA0 SHL SUB SWAP1 SWAP2 AND DUP2 MSTORE PUSH1 0x20 SWAP1 RETURN JUMPDEST POP CALLVALUE PUSH2 0x219 JUMPI PUSH1 0x20 CALLDATASIZE PUSH1 0x3 NOT ADD SLT PUSH2 0x219 JUMPI PUSH1 0xFF PUSH1 0x40 PUSH1 0x20 SWAP3 PUSH1 0x4 CALLDATALOAD DUP2 MSTORE PUSH1 0x6 DUP5 MSTORE KECCAK256 SLOAD AND PUSH1 0x40 MLOAD SWAP1 ISZERO ISZERO DUP2 MSTORE RETURN JUMPDEST POP CALLVALUE PUSH2 0x219 JUMPI DUP1 PUSH1 0x3 NOT CALLDATASIZE ADD SLT PUSH2 0x219 JUMPI PUSH32 0x0 PUSH1 0x1 PUSH1 0x1 PUSH1 0xA0 SHL SUB AND ADDRESS SUB PUSH2 0x143E JUMPI PUSH1 0x20 PUSH1 0x40 MLOAD PUSH1 0x0 DUP1 MLOAD PUSH1 0x20 PUSH2 0x2241 DUP4 CODECOPY DUP2 MLOAD SWAP2 MSTORE DUP2 MSTORE RETURN JUMPDEST PUSH4 0x703E46DD PUSH1 0xE1 SHL DUP2 MSTORE PUSH1 0x4 SWAP1 REVERT JUMPDEST POP PUSH1 0x40 CALLDATASIZE PUSH1 0x3 NOT ADD SLT PUSH2 0x219 JUMPI PUSH2 0x1462 PUSH2 0x19A6 JUMP JUMPDEST PUSH1 0x24 CALLDATALOAD SWAP1 PUSH8 0xFFFFFFFFFFFFFFFF DUP3 GT PUSH2 0x5CC JUMPI CALLDATASIZE PUSH1 0x23 DUP4 ADD SLT ISZERO PUSH2 0x5CC JUMPI DUP2 PUSH1 0x4 ADD CALLDATALOAD SWAP1 DUP4 PUSH2 0x1490 DUP4 PUSH2 0x1A0A JUMP JUMPDEST SWAP4 PUSH2 0x149E PUSH1 0x40 MLOAD SWAP6 DUP7 PUSH2 0x19D2 JUMP JUMPDEST DUP4 DUP6 MSTORE PUSH1 0x20 DUP6 ADD SWAP4 CALLDATASIZE PUSH1 0x24 DUP3 DUP5 ADD ADD GT PUSH2 0x5CC JUMPI DUP1 PUSH1 0x24 PUSH1 0x20 SWAP4 ADD DUP7 CALLDATACOPY DUP6 ADD ADD MSTORE PUSH1 0x1 PUSH1 0x1 PUSH1 0xA0 SHL SUB PUSH32 0x0 AND ADDRESS DUP2 EQ SWAP1 DUP2 ISZERO PUSH2 0x1677 JUMPI JUMPDEST POP PUSH2 0x1668 JUMPI PUSH2 0x1501 PUSH2 0x1C31 JUMP JUMPDEST PUSH1 0x40 MLOAD PUSH4 0x52D1902D PUSH1 0xE0 SHL DUP2 MSTORE PUSH1 0x1 PUSH1 0x1 PUSH1 0xA0 SHL SUB DUP3 AND SWAP4 SWAP1 PUSH1 0x20 DUP2 PUSH1 0x4 DUP2 DUP9 GAS STATICCALL DUP7 SWAP2 DUP2 PUSH2 0x1634 JUMPI JUMPDEST POP PUSH2 0x1544 JUMPI PUSH4 0x4C9C8CE3 PUSH1 0xE0 SHL DUP7 MSTORE PUSH1 0x4 DUP6 SWAP1 MSTORE PUSH1 0x24 DUP7 REVERT JUMPDEST SWAP4 DUP5 PUSH1 0x0 DUP1 MLOAD PUSH1 0x20 PUSH2 0x2241 DUP4 CODECOPY DUP2 MLOAD SWAP2 MSTORE DUP8 SWAP7 SUB PUSH2 0x1622 JUMPI POP DUP3 EXTCODESIZE ISZERO PUSH2 0x1610 JUMPI PUSH1 0x0 DUP1 MLOAD PUSH1 0x20 PUSH2 0x2241 DUP4 CODECOPY DUP2 MLOAD SWAP2 MSTORE DUP1 SLOAD PUSH1 0x1 PUSH1 0x1 PUSH1 0xA0 SHL SUB NOT AND DUP3 OR SWAP1 SSTORE DUP5 SWAP2 SWAP1 PUSH32 0xBC7CD75A20EE27FD9ADEBAB32041F755214DBC6BFFA90CC0225B39DA2E5C2D3B DUP4 DUP1 LOG2 DUP1 MLOAD ISZERO PUSH2 0x15F5 JUMPI PUSH2 0x15E9 SWAP4 DUP3 SWAP2 MLOAD SWAP1 DUP5 GAS DELEGATECALL RETURNDATASIZE ISZERO PUSH2 0x15ED JUMPI RETURNDATASIZE SWAP2 PUSH2 0x15CD DUP4 PUSH2 0x1A0A JUMP JUMPDEST SWAP3 PUSH2 0x15DB PUSH1 0x40 MLOAD SWAP5 DUP6 PUSH2 0x19D2 JUMP JUMPDEST DUP4 MSTORE RETURNDATASIZE DUP6 PUSH1 0x20 DUP6 ADD RETURNDATACOPY PUSH2 0x21BF JUMP JUMPDEST POP DUP1 RETURN JUMPDEST PUSH1 0x60 SWAP2 PUSH2 0x21BF JUMP JUMPDEST POP POP POP POP CALLVALUE PUSH2 0x1601 JUMPI DUP1 RETURN JUMPDEST PUSH4 0xB398979F PUSH1 0xE0 SHL DUP2 MSTORE PUSH1 0x4 SWAP1 REVERT JUMPDEST PUSH4 0x4C9C8CE3 PUSH1 0xE0 SHL DUP6 MSTORE PUSH1 0x4 MSTORE PUSH1 0x24 DUP5 REVERT JUMPDEST PUSH4 0x2A875269 PUSH1 0xE2 SHL DUP7 MSTORE PUSH1 0x4 MSTORE PUSH1 0x24 DUP6 REVERT JUMPDEST SWAP1 SWAP2 POP PUSH1 0x20 DUP2 RETURNDATASIZE PUSH1 0x20 GT PUSH2 0x1660 JUMPI JUMPDEST DUP2 PUSH2 0x1650 PUSH1 0x20 SWAP4 DUP4 PUSH2 0x19D2 JUMP JUMPDEST DUP2 ADD SUB SLT PUSH2 0x9B3 JUMPI MLOAD SWAP1 CODESIZE PUSH2 0x152B JUMP JUMPDEST RETURNDATASIZE SWAP2 POP PUSH2 0x1643 JUMP JUMPDEST PUSH4 0x703E46DD PUSH1 0xE1 SHL DUP5 MSTORE PUSH1 0x4 DUP5 REVERT JUMPDEST PUSH1 0x0 DUP1 MLOAD PUSH1 0x20 PUSH2 0x2241 DUP4 CODECOPY DUP2 MLOAD SWAP2 MSTORE SLOAD PUSH1 0x1 PUSH1 0x1 PUSH1 0xA0 SHL SUB AND EQ ISZERO SWAP1 POP CODESIZE PUSH2 0x14F4 JUMP JUMPDEST POP CALLVALUE PUSH2 0x219 JUMPI DUP1 PUSH1 0x3 NOT CALLDATASIZE ADD SLT PUSH2 0x219 JUMPI PUSH1 0x4 SLOAD PUSH1 0x40 MLOAD PUSH1 0x1 PUSH1 0x1 PUSH1 0xA0 SHL SUB SWAP1 SWAP2 AND DUP2 MSTORE PUSH1 0x20 SWAP1 RETURN JUMPDEST POP CALLVALUE PUSH2 0x219 JUMPI DUP1 PUSH1 0x3 NOT CALLDATASIZE ADD SLT PUSH2 0x219 JUMPI PUSH2 0x16DC PUSH2 0x1C31 JUMP JUMPDEST PUSH1 0x0 DUP1 MLOAD PUSH1 0x20 PUSH2 0x2261 DUP4 CODECOPY DUP2 MLOAD SWAP2 MSTORE SLOAD PUSH1 0xFF DUP2 AND ISZERO PUSH2 0x1736 JUMPI PUSH1 0xFF NOT AND PUSH1 0x0 DUP1 MLOAD PUSH1 0x20 PUSH2 0x2261 DUP4 CODECOPY DUP2 MLOAD SWAP2 MSTORE SSTORE PUSH32 0x5DB9EE0A495BF2E6FF9C91A7834C1BA4FDD244A5E8AA4E537BD38AEAE4B073AA PUSH1 0x20 PUSH1 0x40 MLOAD CALLER DUP2 MSTORE LOG1 DUP1 RETURN JUMPDEST PUSH4 0x8DFC202B PUSH1 0xE0 SHL DUP3 MSTORE PUSH1 0x4 DUP3 REVERT JUMPDEST POP CALLVALUE PUSH2 0x219 JUMPI DUP1 PUSH1 0x3 NOT CALLDATASIZE ADD SLT PUSH2 0x219 JUMPI DUP1 SLOAD PUSH1 0x40 MLOAD PUSH4 0x70A08231 PUSH1 0xE0 SHL DUP2 MSTORE ADDRESS PUSH1 0x4 DUP3 ADD MSTORE SWAP1 PUSH1 0x20 SWAP1 DUP3 SWAP1 PUSH1 0x24 SWAP1 DUP3 SWAP1 PUSH1 0x1 PUSH1 0x1 PUSH1 0xA0 SHL SUB AND GAS STATICCALL SWAP1 DUP2 ISZERO PUSH2 0x38D JUMPI DUP3 SWAP2 PUSH2 0x179A JUMPI JUMPDEST PUSH1 0x20 DUP3 PUSH1 0x40 MLOAD SWAP1 DUP2 MSTORE RETURN JUMPDEST SWAP1 POP PUSH1 0x20 DUP2 RETURNDATASIZE PUSH1 0x20 GT PUSH2 0x17C8 JUMPI JUMPDEST DUP2 PUSH2 0x17B5 PUSH1 0x20 SWAP4 DUP4 PUSH2 0x19D2 JUMP JUMPDEST DUP2 ADD SUB SLT PUSH2 0x10C8 JUMPI PUSH1 0x20 SWAP2 POP MLOAD CODESIZE PUSH2 0x178F JUMP JUMPDEST RETURNDATASIZE SWAP2 POP PUSH2 0x17A8 JUMP JUMPDEST POP CALLVALUE PUSH2 0x219 JUMPI DUP1 PUSH1 0x3 NOT CALLDATASIZE ADD SLT PUSH2 0x219 JUMPI PUSH1 0x20 PUSH1 0xA SLOAD PUSH1 0x40 MLOAD SWAP1 DUP2 MSTORE RETURN JUMPDEST POP CALLVALUE PUSH2 0x219 JUMPI PUSH1 0x20 CALLDATASIZE PUSH1 0x3 NOT ADD SLT PUSH2 0x219 JUMPI PUSH1 0x40 PUSH1 0x20 SWAP2 PUSH1 0x4 CALLDATALOAD DUP2 MSTORE PUSH1 0x7 DUP4 MSTORE KECCAK256 SLOAD PUSH1 0x40 MLOAD SWAP1 DUP2 MSTORE RETURN JUMPDEST POP CALLVALUE PUSH2 0x219 JUMPI DUP1 PUSH1 0x3 NOT CALLDATASIZE ADD SLT PUSH2 0x219 JUMPI PUSH1 0x2 SLOAD PUSH1 0x40 MLOAD PUSH1 0x1 PUSH1 0x1 PUSH1 0xA0 SHL SUB SWAP1 SWAP2 AND DUP2 MSTORE PUSH1 0x20 SWAP1 RETURN JUMPDEST POP CALLVALUE PUSH2 0x219 JUMPI PUSH1 0x80 CALLDATASIZE PUSH1 0x3 NOT ADD SLT PUSH2 0x219 JUMPI PUSH2 0x185B PUSH2 0x19A6 JUMP JUMPDEST POP PUSH2 0x1864 PUSH2 0x19BC JUMP JUMPDEST POP PUSH1 0x44 CALLDATALOAD SWAP1 PUSH1 0x64 CALLDATALOAD PUSH8 0xFFFFFFFFFFFFFFFF DUP2 GT PUSH2 0x10C8 JUMPI CALLDATASIZE PUSH1 0x23 DUP3 ADD SLT ISZERO PUSH2 0x10C8 JUMPI DUP1 PUSH1 0x4 ADD CALLDATALOAD PUSH8 0xFFFFFFFFFFFFFFFF DUP2 GT PUSH2 0x5CC JUMPI CALLDATASIZE SWAP2 ADD PUSH1 0x24 ADD GT PUSH2 0x219 JUMPI PUSH1 0x2 SLOAD PUSH1 0x1 PUSH1 0x1 PUSH1 0xA0 SHL SUB AND CALLER EQ PUSH2 0x18CA JUMPI JUMPDEST PUSH1 0x40 MLOAD PUSH4 0xA85BD01 PUSH1 0xE1 SHL DUP2 MSTORE PUSH1 0x20 SWAP1 RETURN JUMPDEST PUSH1 0x5 SLOAD PUSH1 0xA DUP2 LT DUP1 PUSH2 0x18DE JUMPI JUMPDEST POP POP PUSH2 0x18B8 JUMP JUMPDEST ISZERO PUSH2 0x1992 JUMPI DUP3 DUP3 MSTORE PUSH1 0x7 PUSH1 0x20 MSTORE PUSH1 0x40 DUP3 KECCAK256 SSTORE PUSH1 0x5 SLOAD PUSH9 0x10000000000000000 DUP2 LT ISZERO PUSH2 0x197E JUMPI SWAP1 PUSH2 0x1934 DUP4 PUSH2 0x191B DUP5 PUSH1 0x1 PUSH1 0x40 SWAP7 ADD PUSH1 0x5 SSTORE PUSH2 0x1A26 JUMP JUMPDEST SWAP1 SWAP2 SWAP1 DUP3 SLOAD SWAP1 PUSH1 0x3 SHL SWAP2 DUP3 SHL SWAP2 PUSH1 0x0 NOT SWAP1 SHL NOT AND OR SWAP1 SSTORE JUMP JUMPDEST DUP3 DUP2 MSTORE PUSH1 0x6 PUSH1 0x20 MSTORE KECCAK256 PUSH1 0x1 PUSH1 0xFF NOT DUP3 SLOAD AND OR SWAP1 SSTORE PUSH32 0x1BE18EB15FAE79B2EF01C40D9C2880744C4D536DF2F5AC14FDB74FEE71DC452C PUSH1 0x20 PUSH1 0x5 SLOAD PUSH1 0x40 MLOAD SWAP1 DUP2 MSTORE LOG2 CODESIZE DUP1 DUP1 DUP1 PUSH2 0x18D7 JUMP JUMPDEST PUSH4 0x4E487B71 PUSH1 0xE0 SHL DUP3 MSTORE PUSH1 0x41 PUSH1 0x4 MSTORE PUSH1 0x24 DUP3 REVERT JUMPDEST PUSH4 0xC6FB6E9 PUSH1 0xE3 SHL DUP3 MSTORE PUSH1 0xA PUSH1 0x4 MSTORE PUSH1 0x24 DUP3 REVERT JUMPDEST PUSH1 0x4 CALLDATALOAD SWAP1 PUSH1 0x1 PUSH1 0x1 PUSH1 0xA0 SHL SUB DUP3 AND DUP3 SUB PUSH2 0x380 JUMPI JUMP JUMPDEST PUSH1 0x24 CALLDATALOAD SWAP1 PUSH1 0x1 PUSH1 0x1 PUSH1 0xA0 SHL SUB DUP3 AND DUP3 SUB PUSH2 0x380 JUMPI JUMP JUMPDEST SWAP1 PUSH1 0x1F DUP1 NOT SWAP2 ADD AND DUP2 ADD SWAP1 DUP2 LT PUSH8 0xFFFFFFFFFFFFFFFF DUP3 GT OR PUSH2 0x19F4 JUMPI PUSH1 0x40 MSTORE JUMP JUMPDEST PUSH4 0x4E487B71 PUSH1 0xE0 SHL PUSH1 0x0 MSTORE PUSH1 0x41 PUSH1 0x4 MSTORE PUSH1 0x24 PUSH1 0x0 REVERT JUMPDEST PUSH8 0xFFFFFFFFFFFFFFFF DUP2 GT PUSH2 0x19F4 JUMPI PUSH1 0x1F ADD PUSH1 0x1F NOT AND PUSH1 0x20 ADD SWAP1 JUMP JUMPDEST PUSH1 0x5 SLOAD DUP2 LT ISZERO PUSH2 0x1A41 JUMPI PUSH1 0x5 PUSH1 0x0 MSTORE PUSH1 0x20 PUSH1 0x0 KECCAK256 ADD SWAP1 PUSH1 0x0 SWAP1 JUMP JUMPDEST PUSH4 0x4E487B71 PUSH1 0xE0 SHL PUSH1 0x0 MSTORE PUSH1 0x32 PUSH1 0x4 MSTORE PUSH1 0x24 PUSH1 0x0 REVERT JUMPDEST PUSH1 0x0 NOT DUP2 EQ PUSH2 0x1A66 JUMPI PUSH1 0x1 ADD SWAP1 JUMP JUMPDEST PUSH4 0x4E487B71 PUSH1 0xE0 SHL PUSH1 0x0 MSTORE PUSH1 0x11 PUSH1 0x4 MSTORE PUSH1 0x24 PUSH1 0x0 REVERT JUMPDEST PUSH1 0x0 SWAP2 SWAP1 PUSH1 0x1 PUSH1 0x1 PUSH1 0xA0 SHL SUB DUP2 AND DUP1 ISZERO PUSH2 0x1B85 JUMPI PUSH1 0x5 SLOAD DUP1 ISZERO PUSH2 0x1B80 JUMPI PUSH1 0x0 NOT DUP2 ADD SWAP1 DUP2 GT PUSH2 0x1B6C JUMPI PUSH2 0x1AAE SWAP1 PUSH2 0x1A26 JUMP JUMPDEST SWAP1 SLOAD SWAP1 PUSH1 0x3 SHL SHR SWAP2 PUSH2 0x1ABF DUP4 PUSH2 0x1CCD JUMP JUMPDEST PUSH1 0x2 SLOAD PUSH1 0x1 PUSH1 0x1 PUSH1 0xA0 SHL SUB AND SWAP1 DUP2 EXTCODESIZE ISZERO PUSH2 0x9B7 JUMPI PUSH1 0x40 MLOAD PUSH4 0x21421707 PUSH1 0xE1 SHL DUP2 MSTORE ADDRESS PUSH1 0x4 DUP3 ADD MSTORE PUSH1 0x1 PUSH1 0x1 PUSH1 0xA0 SHL SUB SWAP2 SWAP1 SWAP2 AND PUSH1 0x24 DUP3 ADD MSTORE PUSH1 0x44 DUP2 ADD DUP5 SWAP1 MSTORE SWAP5 SWAP1 DUP2 SWAP1 DUP7 SWAP1 PUSH1 0x64 SWAP1 DUP3 SWAP1 DUP5 SWAP1 GAS CALL SWAP5 DUP6 ISZERO PUSH2 0x10FA JUMPI DUP4 SWAP5 SWAP6 PUSH2 0x1B5C JUMPI JUMPDEST POP POP PUSH2 0x1B29 PUSH1 0x9 SLOAD PUSH2 0x1A57 JUMP JUMPDEST PUSH1 0x9 SSTORE PUSH32 0x55144F84A06ABA3B3A5C49B5D2D0D2A1FED9E25F465A2CC0F4A23B883C478215 PUSH1 0x20 PUSH1 0x5 SLOAD PUSH1 0x40 MLOAD SWAP1 DUP2 MSTORE LOG3 SWAP1 JUMP JUMPDEST DUP2 PUSH2 0x1B66 SWAP2 PUSH2 0x19D2 JUMP JUMPDEST CODESIZE PUSH2 0x1B1C JUMP JUMPDEST PUSH4 0x4E487B71 PUSH1 0xE0 SHL DUP6 MSTORE PUSH1 0x11 PUSH1 0x4 MSTORE PUSH1 0x24 DUP6 REVERT JUMPDEST POP POP POP JUMP JUMPDEST PUSH4 0xD92E233D PUSH1 0xE0 SHL DUP5 MSTORE PUSH1 0x4 DUP5 REVERT JUMPDEST SWAP1 DUP2 PUSH1 0xA0 SWAP2 SUB SLT PUSH2 0x380 JUMPI DUP1 MLOAD SWAP2 PUSH1 0x20 DUP3 ADD MLOAD SWAP2 PUSH1 0x40 DUP2 ADD MLOAD SWAP2 PUSH1 0x80 PUSH1 0x60 DUP4 ADD MLOAD SWAP3 ADD MLOAD SWAP1 JUMP JUMPDEST PUSH1 0x1 PUSH1 0x1 PUSH1 0xA0 SHL SUB AND DUP1 ISZERO PUSH2 0x1C1B JUMPI PUSH1 0x0 DUP1 MLOAD PUSH1 0x20 PUSH2 0x2221 DUP4 CODECOPY DUP2 MLOAD SWAP2 MSTORE DUP1 SLOAD PUSH1 0x1 PUSH1 0x1 PUSH1 0xA0 SHL SUB NOT DUP2 AND DUP4 OR SWAP1 SWAP2 SSTORE PUSH1 0x1 PUSH1 0x1 PUSH1 0xA0 SHL SUB AND PUSH32 0x8BE0079C531659141344CD1FD0A4F28419497F9722A3DAAFE3B4186F6B6457E0 PUSH1 0x0 DUP1 LOG3 JUMP JUMPDEST PUSH4 0x1E4FBDF7 PUSH1 0xE0 SHL PUSH1 0x0 MSTORE PUSH1 0x0 PUSH1 0x4 MSTORE PUSH1 0x24 PUSH1 0x0 REVERT JUMPDEST PUSH1 0x0 DUP1 MLOAD PUSH1 0x20 PUSH2 0x2221 DUP4 CODECOPY DUP2 MLOAD SWAP2 MSTORE SLOAD PUSH1 0x1 PUSH1 0x1 PUSH1 0xA0 SHL SUB AND CALLER SUB PUSH2 0x1C52 JUMPI JUMP JUMPDEST PUSH4 0x118CDAA7 PUSH1 0xE0 SHL PUSH1 0x0 MSTORE CALLER PUSH1 0x4 MSTORE PUSH1 0x24 PUSH1 0x0 REVERT JUMPDEST PUSH1 0x2 PUSH1 0x0 DUP1 MLOAD PUSH1 0x20 PUSH2 0x2281 DUP4 CODECOPY DUP2 MLOAD SWAP2 MSTORE SLOAD EQ PUSH2 0x1C92 JUMPI PUSH1 0x2 PUSH1 0x0 DUP1 MLOAD PUSH1 0x20 PUSH2 0x2281 DUP4 CODECOPY DUP2 MLOAD SWAP2 MSTORE SSTORE JUMP JUMPDEST PUSH4 0x3EE5AEB5 PUSH1 0xE0 SHL PUSH1 0x0 MSTORE PUSH1 0x4 PUSH1 0x0 REVERT JUMPDEST PUSH1 0xFF PUSH1 0x0 DUP1 MLOAD PUSH1 0x20 PUSH2 0x2261 DUP4 CODECOPY DUP2 MLOAD SWAP2 MSTORE SLOAD AND PUSH2 0x1CBC JUMPI JUMP JUMPDEST PUSH4 0xD93C0665 PUSH1 0xE0 SHL PUSH1 0x0 MSTORE PUSH1 0x4 PUSH1 0x0 REVERT JUMPDEST DUP1 PUSH1 0x0 MSTORE PUSH1 0x6 PUSH1 0x20 MSTORE PUSH1 0xFF PUSH1 0x40 PUSH1 0x0 KECCAK256 SLOAD AND ISZERO PUSH2 0x1DA3 JUMPI DUP1 PUSH1 0x0 MSTORE PUSH1 0x7 PUSH1 0x20 MSTORE PUSH1 0x40 PUSH1 0x0 KECCAK256 SLOAD PUSH1 0x5 SLOAD PUSH1 0x0 NOT DUP2 ADD SWAP1 DUP2 GT PUSH2 0x1A66 JUMPI DUP1 DUP3 SUB PUSH2 0x1D71 JUMPI JUMPDEST POP POP PUSH1 0x5 SLOAD DUP1 ISZERO PUSH2 0x1D5B JUMPI PUSH1 0x0 NOT ADD PUSH2 0x1D22 DUP2 PUSH2 0x1A26 JUMP JUMPDEST DUP2 SLOAD SWAP1 PUSH1 0x0 NOT SWAP1 PUSH1 0x3 SHL SHL NOT AND SWAP1 SSTORE PUSH1 0x5 SSTORE DUP1 PUSH1 0x0 MSTORE PUSH1 0x6 PUSH1 0x20 MSTORE PUSH1 0x40 PUSH1 0x0 KECCAK256 PUSH1 0xFF NOT DUP2 SLOAD AND SWAP1 SSTORE PUSH1 0x0 MSTORE PUSH1 0x7 PUSH1 0x20 MSTORE PUSH1 0x0 PUSH1 0x40 DUP2 KECCAK256 SSTORE JUMP JUMPDEST PUSH4 0x4E487B71 PUSH1 0xE0 SHL PUSH1 0x0 MSTORE PUSH1 0x31 PUSH1 0x4 MSTORE PUSH1 0x24 PUSH1 0x0 REVERT JUMPDEST PUSH2 0x1D7A SWAP1 PUSH2 0x1A26 JUMP JUMPDEST SWAP1 SLOAD SWAP1 PUSH1 0x3 SHL SHR PUSH2 0x1D8E DUP2 PUSH2 0x191B DUP5 PUSH2 0x1A26 JUMP JUMPDEST PUSH1 0x0 MSTORE PUSH1 0x7 PUSH1 0x20 MSTORE PUSH1 0x40 PUSH1 0x0 KECCAK256 SSTORE CODESIZE DUP1 PUSH2 0x1D0A JUMP JUMPDEST PUSH4 0x29762DBF PUSH1 0xE2 SHL PUSH1 0x0 MSTORE PUSH1 0x4 MSTORE PUSH1 0x24 PUSH1 0x0 REVERT JUMPDEST SWAP2 SWAP1 DUP3 ADD DUP1 SWAP3 GT PUSH2 0x1A66 JUMPI JUMP JUMPDEST PUSH1 0x0 SLOAD PUSH1 0x1 SLOAD PUSH1 0x40 MLOAD PUSH4 0x6EB1769F PUSH1 0xE1 SHL DUP2 MSTORE ADDRESS PUSH1 0x4 DUP3 ADD MSTORE PUSH1 0x1 PUSH1 0x1 PUSH1 0xA0 SHL SUB SWAP2 DUP3 AND PUSH1 0x24 DUP3 ADD DUP2 SWAP1 MSTORE SWAP3 SWAP2 SWAP1 SWAP2 AND SWAP1 PUSH1 0x20 DUP2 PUSH1 0x44 DUP2 DUP6 GAS STATICCALL DUP1 ISZERO PUSH2 0x1F85 JUMPI DUP5 SWAP1 PUSH1 0x0 SWAP1 PUSH2 0x1FEE JUMPI JUMPDEST PUSH2 0x1E18 SWAP3 POP PUSH2 0x1DB7 JUMP JUMPDEST PUSH1 0x40 MLOAD PUSH4 0x95EA7B3 PUSH1 0xE0 SHL PUSH1 0x20 DUP1 DUP4 ADD SWAP2 DUP3 MSTORE PUSH1 0x1 PUSH1 0x1 PUSH1 0xA0 SHL SUB DUP7 AND PUSH1 0x24 DUP5 ADD MSTORE PUSH1 0x44 DUP1 DUP5 ADD SWAP5 SWAP1 SWAP5 MSTORE SWAP3 DUP3 MSTORE SWAP1 SWAP3 SWAP2 SWAP1 PUSH1 0x0 SWAP1 PUSH2 0x1E58 PUSH1 0x64 DUP7 PUSH2 0x19D2 JUMP JUMPDEST DUP5 MLOAD SWAP1 DUP3 DUP6 GAS CALL PUSH1 0x0 MLOAD RETURNDATASIZE DUP3 PUSH2 0x1FD2 JUMPI JUMPDEST POP POP ISZERO PUSH2 0x1F91 JUMPI JUMPDEST POP POP POP PUSH1 0x0 PUSH1 0x20 PUSH1 0x1 DUP1 PUSH1 0xA0 SHL SUB PUSH1 0x1 SLOAD AND PUSH1 0x44 PUSH1 0x40 MLOAD DUP1 SWAP5 DUP2 SWAP4 PUSH4 0x4BDA0D09 PUSH1 0xE1 SHL DUP4 MSTORE PUSH1 0x1 PUSH1 0x4 DUP5 ADD MSTORE ADDRESS PUSH1 0x24 DUP5 ADD MSTORE GAS CALL SWAP1 DUP2 ISZERO PUSH2 0x1F85 JUMPI PUSH1 0x0 SWAP2 PUSH2 0x1F33 JUMPI JUMPDEST POP PUSH32 0x6929B90E2C20A95D4538DF3110E196E018B4D66120E0020E665A4AF86F1B5271 PUSH1 0x40 DUP3 SWAP4 DUP4 PUSH1 0x0 MSTORE PUSH1 0xB PUSH1 0x20 MSTORE DUP2 PUSH1 0x0 KECCAK256 ADDRESS PUSH1 0x1 PUSH1 0x1 PUSH1 0x60 SHL SUB PUSH1 0xA0 SHL DUP3 SLOAD AND OR SWAP1 SSTORE PUSH2 0x1F04 PUSH1 0xC SLOAD PUSH2 0x1A57 JUMP JUMPDEST PUSH1 0xC SSTORE PUSH2 0x1F12 PUSH1 0x8 SLOAD PUSH2 0x1A57 JUMP JUMPDEST PUSH1 0x8 SSTORE PUSH2 0x1F21 DUP2 PUSH1 0xA SLOAD PUSH2 0x1DB7 JUMP JUMPDEST PUSH1 0xA SSTORE DUP2 MLOAD SWAP1 DUP2 MSTORE ADDRESS PUSH1 0x20 DUP3 ADD MSTORE LOG2 SWAP1 JUMP JUMPDEST SWAP1 PUSH1 0x20 DUP3 RETURNDATASIZE PUSH1 0x20 GT PUSH2 0x1F7D JUMPI JUMPDEST DUP2 PUSH2 0x1F4D PUSH1 0x20 SWAP4 DUP4 PUSH2 0x19D2 JUMP JUMPDEST DUP2 ADD SUB SLT PUSH2 0x219 JUMPI POP MLOAD PUSH32 0x6929B90E2C20A95D4538DF3110E196E018B4D66120E0020E665A4AF86F1B5271 PUSH2 0x1EB4 JUMP JUMPDEST RETURNDATASIZE SWAP2 POP PUSH2 0x1F40 JUMP JUMPDEST PUSH1 0x40 MLOAD RETURNDATASIZE PUSH1 0x0 DUP3 RETURNDATACOPY RETURNDATASIZE SWAP1 REVERT JUMPDEST PUSH2 0x616 PUSH2 0x1FCA SWAP4 PUSH1 0x40 MLOAD SWAP1 PUSH4 0x95EA7B3 PUSH1 0xE0 SHL PUSH1 0x20 DUP4 ADD MSTORE PUSH1 0x24 DUP3 ADD MSTORE PUSH1 0x0 PUSH1 0x44 DUP3 ADD MSTORE PUSH1 0x44 DUP2 MSTORE PUSH2 0x1FC4 PUSH1 0x64 DUP3 PUSH2 0x19D2 JUMP JUMPDEST DUP3 PUSH2 0x2136 JUMP JUMPDEST CODESIZE DUP1 DUP1 PUSH2 0x1E71 JUMP JUMPDEST SWAP1 SWAP2 POP PUSH2 0x1FE6 JUMPI POP DUP1 EXTCODESIZE ISZERO ISZERO JUMPDEST CODESIZE DUP1 PUSH2 0x1E69 JUMP JUMPDEST PUSH1 0x1 EQ PUSH2 0x1FDF JUMP JUMPDEST POP POP PUSH1 0x20 DUP2 RETURNDATASIZE PUSH1 0x20 GT PUSH2 0x201C JUMPI JUMPDEST DUP2 PUSH2 0x2009 PUSH1 0x20 SWAP4 DUP4 PUSH2 0x19D2 JUMP JUMPDEST DUP2 ADD SUB SLT PUSH2 0x380 JUMPI DUP4 PUSH2 0x1E18 SWAP2 MLOAD PUSH2 0x1E0E JUMP JUMPDEST RETURNDATASIZE SWAP2 POP PUSH2 0x1FFC JUMP JUMPDEST PUSH1 0xA PUSH1 0x5 SLOAD LT ISZERO PUSH2 0x212E JUMPI PUSH1 0x1 SLOAD PUSH1 0x40 MLOAD PUSH4 0x2DABC24F PUSH1 0xE0 SHL DUP2 MSTORE SWAP1 PUSH1 0xA0 SWAP1 DUP3 SWAP1 PUSH1 0x4 SWAP1 DUP3 SWAP1 PUSH1 0x1 PUSH1 0x1 PUSH1 0xA0 SHL SUB AND GAS STATICCALL SWAP1 DUP2 ISZERO PUSH2 0x1F85 JUMPI PUSH1 0x0 SWAP2 PUSH2 0x210A JUMPI JUMPDEST POP PUSH1 0x0 SLOAD PUSH1 0x40 MLOAD PUSH4 0x70A08231 PUSH1 0xE0 SHL DUP2 MSTORE ADDRESS PUSH1 0x4 DUP3 ADD MSTORE SWAP1 PUSH1 0x20 SWAP1 DUP3 SWAP1 PUSH1 0x24 SWAP1 DUP3 SWAP1 PUSH1 0x1 PUSH1 0x1 PUSH1 0xA0 SHL SUB AND GAS STATICCALL SWAP1 DUP2 ISZERO PUSH2 0x1F85 JUMPI PUSH1 0x0 SWAP2 PUSH2 0x20D8 JUMPI JUMPDEST POP DUP2 PUSH4 0x30A32C0 DUP3 LT SWAP2 DUP3 ISZERO PUSH2 0x20CE JUMPI JUMPDEST POP POP PUSH2 0x20C5 JUMPI PUSH2 0x20C0 SWAP1 PUSH2 0x1DC4 JUMP JUMPDEST PUSH1 0x1 SWAP2 JUMP JUMPDEST POP PUSH1 0x0 SWAP1 PUSH1 0x0 SWAP1 JUMP JUMPDEST LT SWAP1 POP DUP2 CODESIZE PUSH2 0x20B1 JUMP JUMPDEST SWAP1 PUSH1 0x20 DUP3 RETURNDATASIZE PUSH1 0x20 GT PUSH2 0x2102 JUMPI JUMPDEST DUP2 PUSH2 0x20F2 PUSH1 0x20 SWAP4 DUP4 PUSH2 0x19D2 JUMP JUMPDEST DUP2 ADD SUB SLT PUSH2 0x219 JUMPI POP MLOAD CODESIZE PUSH2 0x20A0 JUMP JUMPDEST RETURNDATASIZE SWAP2 POP PUSH2 0x20E5 JUMP JUMPDEST PUSH2 0x2123 SWAP2 POP PUSH1 0xA0 RETURNDATASIZE PUSH1 0xA0 GT PUSH2 0x344 JUMPI PUSH2 0x331 DUP2 DUP4 PUSH2 0x19D2 JUMP JUMPDEST SWAP4 POP POP POP POP CODESIZE PUSH2 0x2064 JUMP JUMPDEST PUSH1 0x0 SWAP1 PUSH1 0x0 SWAP1 JUMP JUMPDEST SWAP1 PUSH1 0x0 PUSH1 0x20 SWAP2 DUP3 DUP2 MLOAD SWAP2 ADD DUP3 DUP6 GAS CALL ISZERO PUSH2 0x1F85 JUMPI PUSH1 0x0 MLOAD RETURNDATASIZE PUSH2 0x2188 JUMPI POP PUSH1 0x1 PUSH1 0x1 PUSH1 0xA0 SHL SUB DUP2 AND EXTCODESIZE ISZERO JUMPDEST PUSH2 0x2167 JUMPI POP JUMP JUMPDEST PUSH4 0x5274AFE7 PUSH1 0xE0 SHL PUSH1 0x0 SWAP1 DUP2 MSTORE PUSH1 0x1 PUSH1 0x1 PUSH1 0xA0 SHL SUB SWAP2 SWAP1 SWAP2 AND PUSH1 0x4 MSTORE PUSH1 0x24 SWAP1 REVERT JUMPDEST PUSH1 0x1 EQ ISZERO PUSH2 0x2160 JUMP JUMPDEST PUSH1 0xFF PUSH1 0x0 DUP1 MLOAD PUSH1 0x20 PUSH2 0x22A1 DUP4 CODECOPY DUP2 MLOAD SWAP2 MSTORE SLOAD PUSH1 0x40 SHR AND ISZERO PUSH2 0x21AE JUMPI JUMP JUMPDEST PUSH4 0x1AFCD79F PUSH1 0xE3 SHL PUSH1 0x0 MSTORE PUSH1 0x4 PUSH1 0x0 REVERT JUMPDEST SWAP1 PUSH2 0x21E5 JUMPI POP DUP1 MLOAD ISZERO PUSH2 0x21D4 JUMPI PUSH1 0x20 DUP2 MLOAD SWAP2 ADD REVERT JUMPDEST PUSH4 0xD6BDA275 PUSH1 0xE0 SHL PUSH1 0x0 MSTORE PUSH1 0x4 PUSH1 0x0 REVERT JUMPDEST DUP2 MLOAD ISZERO DUP1 PUSH2 0x2217 JUMPI JUMPDEST PUSH2 0x21F6 JUMPI POP SWAP1 JUMP JUMPDEST PUSH4 0x9996B315 PUSH1 0xE0 SHL PUSH1 0x0 SWAP1 DUP2 MSTORE PUSH1 0x1 PUSH1 0x1 PUSH1 0xA0 SHL SUB SWAP2 SWAP1 SWAP2 AND PUSH1 0x4 MSTORE PUSH1 0x24 SWAP1 REVERT JUMPDEST POP DUP1 EXTCODESIZE ISZERO PUSH2 0x21EE JUMP INVALID SWAP1 AND 0xD0 SWAP14 PUSH19 0xD40FDAE2FD8CEAC6B6234C7706214FD39C1CD1 0xE6 MULMOD LOG0 MSTORE DUP13 NOT SWAP4 STOP CALLDATASIZE ADDMOD SWAP5 LOG1 EXTCODESIZE LOG1 LOG3 0x21 MOD PUSH8 0xC828492DB98DCA3E KECCAK256 PUSH23 0xCC3735A920A3CA505D382BBCCD5ED15C6E187E77E9AEE8 DUP2 DUP5 0xC2 0x1F 0x4F 0x21 DUP3 0xAB PC 0x27 0xCB EXTCODESIZE PUSH31 0x7FBEDCD63F033009B779B17422D0DF92223018B32B4D1FA46E071723D6817 0xE2 BASEFEE PUSH14 0x3BECC55F00F0C57E16840DF040 CALL POP DUP9 0xDC 0x2F DUP2 INVALID CODECOPY SHR CODECOPY 0x23 0xBE 0xC7 RETURNDATACOPY 0x23 0xA9 PUSH7 0x2EFC9C229C6A00 LOG2 PUSH5 0x6970667358 0x22 SLT KECCAK256 PUSH10 0x3510945C0BE8E050B80 0xE5 0xDC EXTCODESIZE 0x1F 0xC4 0xCD SMOD 0xED 0xB6 PUSH9 0xE455064ED145F8F83B EXP 0x1F PUSH5 0x736F6C6343 STOP ADDMOD BYTE STOP CALLER "},"methodIdentifiers":{"AUTO_PURCHASE_THRESHOLD()":"d3e04145","MAX_INVENTORY_SIZE()":"e18bbf5b","UPGRADE_INTERFACE_VERSION()":"ad3cb1cc","USDC_DECIMALS()":"c1419def","awardNFTToWinner(address)":"78b5aa8f","awardSpecificNFT(address,uint256)":"b309a857","canAutoPurchase()":"ef337948","checkAndPurchaseNFT()":"d82872fe","depositRevenue(uint256)":"bc1ca3e9","emergencyWithdraw()":"db2e21bc","forcePurchaseNFT()":"82909597","getInventory()":"5d7f850c","getInventoryCount()":"af3df160","getStats()":"c59d4847","getUSDCBalance()":"3cfd1ccc","hasInventorySpace()":"753089f7","initialize(address,address,address,address,address,address)":"cc2a9a5b","isInInventory(uint256)":"fbd7ec9e","isTokenInInventory(uint256)":"569ffd42","nftInventory(uint256)":"82b65bef","onERC721Received(address,address,uint256,bytes)":"150b7a02","owner()":"8da5cb5b","pause()":"8456cb59","paused()":"5c975abb","pendingPullRequests(uint256)":"7d8dbe57","pendingRequestCount()":"e0abba57","pokeballGame()":"77d983c9","proxiableUUID()":"52d1902d","renounceOwnership()":"715018a6","setPokeballGame(address)":"b6efd540","setTreasuryWallet(address)":"a8602fea","slabMachine()":"5bf7117a","slabNFT()":"25c61fcd","tokenIdToIndex(uint256)":"26ec0fbe","totalNFTsAwarded()":"7c597f4e","totalNFTsPurchased()":"e155d79e","totalUSDCSpent()":"31e2c022","transferOwnership(address)":"f2fde38b","treasuryWallet()":"4626402b","unpause()":"3f4ba83a","upgradeToAndCall(address,bytes)":"4f1ef286","usdce()":"d33953ba"}},"storageLayout":{"storage":[{"astId":2570,"contract":"contracts/SlabNFTManager.sol:SlabNFTManager","label":"usdce","offset":0,"slot":"0","type":"t_contract(IERC20)1482"},{"astId":2574,"contract":"contracts/SlabNFTManager.sol:SlabNFTManager","label":"slabMachine","offset":0,"slot":"1","type":"t_contract(ISlabMachine)2536"},{"astId":2578,"contract":"contracts/SlabNFTManager.sol:SlabNFTManager","label":"slabNFT","offset":0,"slot":"2","type":"t_contract(IERC721)2063"},{"astId":2581,"contract":"contracts/SlabNFTManager.sol:SlabNFTManager","label":"pokeballGame","offset":0,"slot":"3","type":"t_address"},{"astId":2584,"contract":"contracts/SlabNFTManager.sol:SlabNFTManager","label":"treasuryWallet","offset":0,"slot":"4","type":"t_address"},{"astId":2588,"contract":"contracts/SlabNFTManager.sol:SlabNFTManager","label":"nftInventory","offset":0,"slot":"5","type":"t_array(t_uint256)dyn_storage"},{"astId":2593,"contract":"contracts/SlabNFTManager.sol:SlabNFTManager","label":"isInInventory","offset":0,"slot":"6","type":"t_mapping(t_uint256,t_bool)"},{"astId":2598,"contract":"contracts/SlabNFTManager.sol:SlabNFTManager","label":"tokenIdToIndex","offset":0,"slot":"7","type":"t_mapping(t_uint256,t_uint256)"},{"astId":2601,"contract":"contracts/SlabNFTManager.sol:SlabNFTManager","label":"totalNFTsPurchased","offset":0,"slot":"8","type":"t_uint256"},{"astId":2604,"contract":"contracts/SlabNFTManager.sol:SlabNFTManager","label":"totalNFTsAwarded","offset":0,"slot":"9","type":"t_uint256"},{"astId":2607,"contract":"contracts/SlabNFTManager.sol:SlabNFTManager","label":"totalUSDCSpent","offset":0,"slot":"10","type":"t_uint256"},{"astId":2612,"contract":"contracts/SlabNFTManager.sol:SlabNFTManager","label":"pendingPullRequests","offset":0,"slot":"11","type":"t_mapping(t_uint256,t_address)"},{"astId":2615,"contract":"contracts/SlabNFTManager.sol:SlabNFTManager","label":"pendingRequestCount","offset":0,"slot":"12","type":"t_uint256"},{"astId":3720,"contract":"contracts/SlabNFTManager.sol:SlabNFTManager","label":"__gap","offset":0,"slot":"13","type":"t_array(t_uint256)50_storage"}],"types":{"t_address":{"encoding":"inplace","label":"address","numberOfBytes":"20"},"t_array(t_uint256)50_storage":{"base":"t_uint256","encoding":"inplace","label":"uint256[50]","numberOfBytes":"1600"},"t_array(t_uint256)dyn_storage":{"base":"t_uint256","encoding":"dynamic_array","label":"uint256[]","numberOfBytes":"32"},"t_bool":{"encoding":"inplace","label":"bool","numberOfBytes":"1"},"t_contract(IERC20)1482":{"encoding":"inplace","label":"contract IERC20","numberOfBytes":"20"},"t_contract(IERC721)2063":{"encoding":"inplace","label":"contract IERC721","numberOfBytes":"20"},"t_contract(ISlabMachine)2536":{"encoding":"inplace","label":"contract ISlabMachine","numberOfBytes":"20"},"t_mapping(t_uint256,t_address)":{"encoding":"mapping","key":"t_uint256","label":"mapping(uint256 => address)","numberOfBytes":"32","value":"t_address"},"t_mapping(t_uint256,t_bool)":{"encoding":"mapping","key":"t_uint256","label":"mapping(uint256 => bool)","numberOfBytes":"32","value":"t_bool"},"t_mapping(t_uint256,t_uint256)":{"encoding":"mapping","key":"t_uint256","label":"mapping(uint256 => uint256)","numberOfBytes":"32","value":"t_uint256"},"t_uint256":{"encoding":"inplace","label":"uint256","numberOfBytes":"32"}}}}}}