{
  "_format": "hh-sol-artifact-1",
  "contractName": "PokeballGame",
  "sourceName": "contracts/PokeballGameV2.sol",
  "abi": [
    {
      "inputs": [],
      "stateMutability": "nonpayable",
      "type": "constructor"
    },
    {
      "inputs": [
        {
          "internalType": "address",
          "name": "target",
          "type": "address"
        }
      ],
      "name": "AddressEmptyCode",
      "type": "error"
    },
    {
      "inputs": [
        {
          "internalType": "address",
          "name": "implementation",
          "type": "address"
        }
      ],
      "name": "ERC1967InvalidImplementation",
      "type": "error"
    },
    {
      "inputs": [],
      "name": "ERC1967NonPayable",
      "type": "error"
    },
    {
      "inputs": [],
      "name": "EnforcedPause",
      "type": "error"
    },
    {
      "inputs": [],
      "name": "ExpectedPause",
      "type": "error"
    },
    {
      "inputs": [],
      "name": "FailedCall",
      "type": "error"
    },
    {
      "inputs": [
        {
          "internalType": "address",
          "name": "token",
          "type": "address"
        },
        {
          "internalType": "uint256",
          "name": "required",
          "type": "uint256"
        },
        {
          "internalType": "uint256",
          "name": "available",
          "type": "uint256"
        }
      ],
      "name": "InsufficientAllowance",
      "type": "error"
    },
    {
      "inputs": [
        {
          "internalType": "address",
          "name": "token",
          "type": "address"
        },
        {
          "internalType": "uint256",
          "name": "required",
          "type": "uint256"
        },
        {
          "internalType": "uint256",
          "name": "available",
          "type": "uint256"
        }
      ],
      "name": "InsufficientBalance",
      "type": "error"
    },
    {
      "inputs": [
        {
          "internalType": "enum PokeballGame.BallType",
          "name": "ballType",
          "type": "uint8"
        },
        {
          "internalType": "uint256",
          "name": "required",
          "type": "uint256"
        },
        {
          "internalType": "uint256",
          "name": "available",
          "type": "uint256"
        }
      ],
      "name": "InsufficientBalls",
      "type": "error"
    },
    {
      "inputs": [
        {
          "internalType": "uint8",
          "name": "provided",
          "type": "uint8"
        }
      ],
      "name": "InvalidBallType",
      "type": "error"
    },
    {
      "inputs": [],
      "name": "InvalidInitialization",
      "type": "error"
    },
    {
      "inputs": [
        {
          "internalType": "uint8",
          "name": "slot",
          "type": "uint8"
        }
      ],
      "name": "InvalidPokemonSlot",
      "type": "error"
    },
    {
      "inputs": [],
      "name": "InvalidPrice",
      "type": "error"
    },
    {
      "inputs": [],
      "name": "NoFeesToWithdraw",
      "type": "error"
    },
    {
      "inputs": [],
      "name": "NotInitializing",
      "type": "error"
    },
    {
      "inputs": [
        {
          "internalType": "address",
          "name": "owner",
          "type": "address"
        }
      ],
      "name": "OwnableInvalidOwner",
      "type": "error"
    },
    {
      "inputs": [
        {
          "internalType": "address",
          "name": "account",
          "type": "address"
        }
      ],
      "name": "OwnableUnauthorizedAccount",
      "type": "error"
    },
    {
      "inputs": [
        {
          "internalType": "uint256",
          "name": "pokemonId",
          "type": "uint256"
        }
      ],
      "name": "PokemonNotActive",
      "type": "error"
    },
    {
      "inputs": [],
      "name": "ReentrancyGuardReentrantCall",
      "type": "error"
    },
    {
      "inputs": [
        {
          "internalType": "address",
          "name": "token",
          "type": "address"
        }
      ],
      "name": "SafeERC20FailedOperation",
      "type": "error"
    },
    {
      "inputs": [],
      "name": "SlabNFTManagerNotSet",
      "type": "error"
    },
    {
      "inputs": [
        {
          "internalType": "uint8",
          "name": "slot",
          "type": "uint8"
        }
      ],
      "name": "SlotOccupied",
      "type": "error"
    },
    {
      "inputs": [
        {
          "internalType": "uint256",
          "name": "requestId",
          "type": "uint256"
        }
      ],
      "name": "ThrowAlreadyResolved",
      "type": "error"
    },
    {
      "inputs": [
        {
          "internalType": "uint256",
          "name": "requestId",
          "type": "uint256"
        }
      ],
      "name": "ThrowNotFound",
      "type": "error"
    },
    {
      "inputs": [],
      "name": "TransferFailed",
      "type": "error"
    },
    {
      "inputs": [],
      "name": "UUPSUnauthorizedCallContext",
      "type": "error"
    },
    {
      "inputs": [
        {
          "internalType": "bytes32",
          "name": "slot",
          "type": "bytes32"
        }
      ],
      "name": "UUPSUnsupportedProxiableUUID",
      "type": "error"
    },
    {
      "inputs": [
        {
          "internalType": "address",
          "name": "caller",
          "type": "address"
        }
      ],
      "name": "UnauthorizedCallback",
      "type": "error"
    },
    {
      "inputs": [],
      "name": "ZeroAddress",
      "type": "error"
    },
    {
      "inputs": [],
      "name": "ZeroQuantity",
      "type": "error"
    },
    {
      "anonymous": false,
      "inputs": [
        {
          "indexed": false,
          "internalType": "uint256",
          "name": "oldPrice",
          "type": "uint256"
        },
        {
          "indexed": false,
          "internalType": "uint256",
          "name": "newPrice",
          "type": "uint256"
        }
      ],
      "name": "APEPriceUpdated",
      "type": "event"
    },
    {
      "anonymous": false,
      "inputs": [
        {
          "indexed": true,
          "internalType": "address",
          "name": "buyer",
          "type": "address"
        },
        {
          "indexed": false,
          "internalType": "uint8",
          "name": "ballType",
          "type": "uint8"
        },
        {
          "indexed": false,
          "internalType": "uint256",
          "name": "quantity",
          "type": "uint256"
        },
        {
          "indexed": false,
          "internalType": "bool",
          "name": "usedAPE",
          "type": "bool"
        }
      ],
      "name": "BallPurchased",
      "type": "event"
    },
    {
      "anonymous": false,
      "inputs": [
        {
          "indexed": true,
          "internalType": "address",
          "name": "catcher",
          "type": "address"
        },
        {
          "indexed": false,
          "internalType": "uint256",
          "name": "pokemonId",
          "type": "uint256"
        },
        {
          "indexed": false,
          "internalType": "uint256",
          "name": "nftTokenId",
          "type": "uint256"
        }
      ],
      "name": "CaughtPokemon",
      "type": "event"
    },
    {
      "anonymous": false,
      "inputs": [
        {
          "indexed": true,
          "internalType": "address",
          "name": "thrower",
          "type": "address"
        },
        {
          "indexed": false,
          "internalType": "uint256",
          "name": "pokemonId",
          "type": "uint256"
        },
        {
          "indexed": false,
          "internalType": "uint8",
          "name": "attemptsRemaining",
          "type": "uint8"
        }
      ],
      "name": "FailedCatch",
      "type": "event"
    },
    {
      "anonymous": false,
      "inputs": [
        {
          "indexed": false,
          "internalType": "address",
          "name": "recipient",
          "type": "address"
        },
        {
          "indexed": false,
          "internalType": "uint256",
          "name": "amount",
          "type": "uint256"
        }
      ],
      "name": "FeesWithdrawn",
      "type": "event"
    },
    {
      "anonymous": false,
      "inputs": [
        {
          "indexed": false,
          "internalType": "uint64",
          "name": "version",
          "type": "uint64"
        }
      ],
      "name": "Initialized",
      "type": "event"
    },
    {
      "anonymous": false,
      "inputs": [
        {
          "indexed": true,
          "internalType": "address",
          "name": "previousOwner",
          "type": "address"
        },
        {
          "indexed": true,
          "internalType": "address",
          "name": "newOwner",
          "type": "address"
        }
      ],
      "name": "OwnershipTransferred",
      "type": "event"
    },
    {
      "anonymous": false,
      "inputs": [
        {
          "indexed": false,
          "internalType": "address",
          "name": "account",
          "type": "address"
        }
      ],
      "name": "Paused",
      "type": "event"
    },
    {
      "anonymous": false,
      "inputs": [
        {
          "indexed": false,
          "internalType": "uint256",
          "name": "pokemonId",
          "type": "uint256"
        },
        {
          "indexed": false,
          "internalType": "uint256",
          "name": "newX",
          "type": "uint256"
        },
        {
          "indexed": false,
          "internalType": "uint256",
          "name": "newY",
          "type": "uint256"
        }
      ],
      "name": "PokemonRelocated",
      "type": "event"
    },
    {
      "anonymous": false,
      "inputs": [
        {
          "indexed": false,
          "internalType": "uint256",
          "name": "pokemonId",
          "type": "uint256"
        },
        {
          "indexed": false,
          "internalType": "uint256",
          "name": "positionX",
          "type": "uint256"
        },
        {
          "indexed": false,
          "internalType": "uint256",
          "name": "positionY",
          "type": "uint256"
        },
        {
          "indexed": false,
          "internalType": "uint8",
          "name": "slotIndex",
          "type": "uint8"
        }
      ],
      "name": "PokemonSpawned",
      "type": "event"
    },
    {
      "anonymous": false,
      "inputs": [
        {
          "indexed": false,
          "internalType": "uint256",
          "name": "amount",
          "type": "uint256"
        }
      ],
      "name": "RevenueSentToManager",
      "type": "event"
    },
    {
      "anonymous": false,
      "inputs": [
        {
          "indexed": true,
          "internalType": "address",
          "name": "thrower",
          "type": "address"
        },
        {
          "indexed": false,
          "internalType": "uint256",
          "name": "pokemonId",
          "type": "uint256"
        },
        {
          "indexed": false,
          "internalType": "uint8",
          "name": "ballTier",
          "type": "uint8"
        },
        {
          "indexed": false,
          "internalType": "uint256",
          "name": "requestId",
          "type": "uint256"
        }
      ],
      "name": "ThrowAttempted",
      "type": "event"
    },
    {
      "anonymous": false,
      "inputs": [
        {
          "indexed": false,
          "internalType": "address",
          "name": "account",
          "type": "address"
        }
      ],
      "name": "Unpaused",
      "type": "event"
    },
    {
      "anonymous": false,
      "inputs": [
        {
          "indexed": true,
          "internalType": "address",
          "name": "implementation",
          "type": "address"
        }
      ],
      "name": "Upgraded",
      "type": "event"
    },
    {
      "anonymous": false,
      "inputs": [
        {
          "indexed": false,
          "internalType": "string",
          "name": "walletType",
          "type": "string"
        },
        {
          "indexed": false,
          "internalType": "address",
          "name": "oldAddress",
          "type": "address"
        },
        {
          "indexed": false,
          "internalType": "address",
          "name": "newAddress",
          "type": "address"
        }
      ],
      "name": "WalletUpdated",
      "type": "event"
    },
    {
      "inputs": [],
      "name": "APE_DECIMALS",
      "outputs": [
        {
          "internalType": "uint8",
          "name": "",
          "type": "uint8"
        }
      ],
      "stateMutability": "view",
      "type": "function"
    },
    {
      "inputs": [],
      "name": "BPS_DENOMINATOR",
      "outputs": [
        {
          "internalType": "uint256",
          "name": "",
          "type": "uint256"
        }
      ],
      "stateMutability": "view",
      "type": "function"
    },
    {
      "inputs": [],
      "name": "GREATBALL_CATCH_RATE",
      "outputs": [
        {
          "internalType": "uint8",
          "name": "",
          "type": "uint8"
        }
      ],
      "stateMutability": "view",
      "type": "function"
    },
    {
      "inputs": [],
      "name": "GREATBALL_PRICE",
      "outputs": [
        {
          "internalType": "uint256",
          "name": "",
          "type": "uint256"
        }
      ],
      "stateMutability": "view",
      "type": "function"
    },
    {
      "inputs": [],
      "name": "MASTERBALL_CATCH_RATE",
      "outputs": [
        {
          "internalType": "uint8",
          "name": "",
          "type": "uint8"
        }
      ],
      "stateMutability": "view",
      "type": "function"
    },
    {
      "inputs": [],
      "name": "MASTERBALL_PRICE",
      "outputs": [
        {
          "internalType": "uint256",
          "name": "",
          "type": "uint256"
        }
      ],
      "stateMutability": "view",
      "type": "function"
    },
    {
      "inputs": [],
      "name": "MAX_ACTIVE_POKEMON",
      "outputs": [
        {
          "internalType": "uint8",
          "name": "",
          "type": "uint8"
        }
      ],
      "stateMutability": "view",
      "type": "function"
    },
    {
      "inputs": [],
      "name": "MAX_COORDINATE",
      "outputs": [
        {
          "internalType": "uint256",
          "name": "",
          "type": "uint256"
        }
      ],
      "stateMutability": "view",
      "type": "function"
    },
    {
      "inputs": [],
      "name": "MAX_THROW_ATTEMPTS",
      "outputs": [
        {
          "internalType": "uint8",
          "name": "",
          "type": "uint8"
        }
      ],
      "stateMutability": "view",
      "type": "function"
    },
    {
      "inputs": [],
      "name": "PLATFORM_FEE_BPS",
      "outputs": [
        {
          "internalType": "uint256",
          "name": "",
          "type": "uint256"
        }
      ],
      "stateMutability": "view",
      "type": "function"
    },
    {
      "inputs": [],
      "name": "POKEBALL_CATCH_RATE",
      "outputs": [
        {
          "internalType": "uint8",
          "name": "",
          "type": "uint8"
        }
      ],
      "stateMutability": "view",
      "type": "function"
    },
    {
      "inputs": [],
      "name": "POKEBALL_PRICE",
      "outputs": [
        {
          "internalType": "uint256",
          "name": "",
          "type": "uint256"
        }
      ],
      "stateMutability": "view",
      "type": "function"
    },
    {
      "inputs": [],
      "name": "REVENUE_POOL_BPS",
      "outputs": [
        {
          "internalType": "uint256",
          "name": "",
          "type": "uint256"
        }
      ],
      "stateMutability": "view",
      "type": "function"
    },
    {
      "inputs": [],
      "name": "ULTRABALL_CATCH_RATE",
      "outputs": [
        {
          "internalType": "uint8",
          "name": "",
          "type": "uint8"
        }
      ],
      "stateMutability": "view",
      "type": "function"
    },
    {
      "inputs": [],
      "name": "ULTRABALL_PRICE",
      "outputs": [
        {
          "internalType": "uint256",
          "name": "",
          "type": "uint256"
        }
      ],
      "stateMutability": "view",
      "type": "function"
    },
    {
      "inputs": [],
      "name": "UPGRADE_INTERFACE_VERSION",
      "outputs": [
        {
          "internalType": "string",
          "name": "",
          "type": "string"
        }
      ],
      "stateMutability": "view",
      "type": "function"
    },
    {
      "inputs": [],
      "name": "USDC_DECIMALS",
      "outputs": [
        {
          "internalType": "uint8",
          "name": "",
          "type": "uint8"
        }
      ],
      "stateMutability": "view",
      "type": "function"
    },
    {
      "inputs": [
        {
          "internalType": "uint256",
          "name": "",
          "type": "uint256"
        }
      ],
      "name": "activePokemons",
      "outputs": [
        {
          "internalType": "uint256",
          "name": "id",
          "type": "uint256"
        },
        {
          "internalType": "uint256",
          "name": "positionX",
          "type": "uint256"
        },
        {
          "internalType": "uint256",
          "name": "positionY",
          "type": "uint256"
        },
        {
          "internalType": "uint8",
          "name": "throwAttempts",
          "type": "uint8"
        },
        {
          "internalType": "bool",
          "name": "isActive",
          "type": "bool"
        },
        {
          "internalType": "uint256",
          "name": "spawnTime",
          "type": "uint256"
        }
      ],
      "stateMutability": "view",
      "type": "function"
    },
    {
      "inputs": [],
      "name": "ape",
      "outputs": [
        {
          "internalType": "contract IERC20",
          "name": "",
          "type": "address"
        }
      ],
      "stateMutability": "view",
      "type": "function"
    },
    {
      "inputs": [],
      "name": "apePriceUSD",
      "outputs": [
        {
          "internalType": "uint256",
          "name": "",
          "type": "uint256"
        }
      ],
      "stateMutability": "view",
      "type": "function"
    },
    {
      "inputs": [
        {
          "internalType": "uint256",
          "name": "usdcAmount",
          "type": "uint256"
        }
      ],
      "name": "calculateAPEAmount",
      "outputs": [
        {
          "internalType": "uint256",
          "name": "apeAmount",
          "type": "uint256"
        }
      ],
      "stateMutability": "view",
      "type": "function"
    },
    {
      "inputs": [
        {
          "internalType": "uint8",
          "name": "slot",
          "type": "uint8"
        }
      ],
      "name": "despawnPokemon",
      "outputs": [],
      "stateMutability": "nonpayable",
      "type": "function"
    },
    {
      "inputs": [
        {
          "internalType": "uint8",
          "name": "slot",
          "type": "uint8"
        },
        {
          "internalType": "uint256",
          "name": "posX",
          "type": "uint256"
        },
        {
          "internalType": "uint256",
          "name": "posY",
          "type": "uint256"
        }
      ],
      "name": "forceSpawnPokemon",
      "outputs": [],
      "stateMutability": "nonpayable",
      "type": "function"
    },
    {
      "inputs": [],
      "name": "getActivePokemonCount",
      "outputs": [
        {
          "internalType": "uint8",
          "name": "count",
          "type": "uint8"
        }
      ],
      "stateMutability": "view",
      "type": "function"
    },
    {
      "inputs": [],
      "name": "getActivePokemonSlots",
      "outputs": [
        {
          "internalType": "uint8[]",
          "name": "slots",
          "type": "uint8[]"
        }
      ],
      "stateMutability": "view",
      "type": "function"
    },
    {
      "inputs": [],
      "name": "getAllActivePokemons",
      "outputs": [
        {
          "components": [
            {
              "internalType": "uint256",
              "name": "id",
              "type": "uint256"
            },
            {
              "internalType": "uint256",
              "name": "positionX",
              "type": "uint256"
            },
            {
              "internalType": "uint256",
              "name": "positionY",
              "type": "uint256"
            },
            {
              "internalType": "uint8",
              "name": "throwAttempts",
              "type": "uint8"
            },
            {
              "internalType": "bool",
              "name": "isActive",
              "type": "bool"
            },
            {
              "internalType": "uint256",
              "name": "spawnTime",
              "type": "uint256"
            }
          ],
          "internalType": "struct PokeballGame.Pokemon[20]",
          "name": "pokemons",
          "type": "tuple[20]"
        }
      ],
      "stateMutability": "view",
      "type": "function"
    },
    {
      "inputs": [
        {
          "internalType": "address",
          "name": "player",
          "type": "address"
        }
      ],
      "name": "getAllPlayerBalls",
      "outputs": [
        {
          "internalType": "uint256",
          "name": "pokeBalls",
          "type": "uint256"
        },
        {
          "internalType": "uint256",
          "name": "greatBalls",
          "type": "uint256"
        },
        {
          "internalType": "uint256",
          "name": "ultraBalls",
          "type": "uint256"
        },
        {
          "internalType": "uint256",
          "name": "masterBalls",
          "type": "uint256"
        }
      ],
      "stateMutability": "view",
      "type": "function"
    },
    {
      "inputs": [
        {
          "internalType": "enum PokeballGame.BallType",
          "name": "ballType",
          "type": "uint8"
        }
      ],
      "name": "getBallPrice",
      "outputs": [
        {
          "internalType": "uint256",
          "name": "price",
          "type": "uint256"
        }
      ],
      "stateMutability": "pure",
      "type": "function"
    },
    {
      "inputs": [
        {
          "internalType": "enum PokeballGame.BallType",
          "name": "ballType",
          "type": "uint8"
        }
      ],
      "name": "getCatchRate",
      "outputs": [
        {
          "internalType": "uint8",
          "name": "rate",
          "type": "uint8"
        }
      ],
      "stateMutability": "pure",
      "type": "function"
    },
    {
      "inputs": [],
      "name": "getNFTInventoryCount",
      "outputs": [
        {
          "internalType": "uint256",
          "name": "count",
          "type": "uint256"
        }
      ],
      "stateMutability": "view",
      "type": "function"
    },
    {
      "inputs": [
        {
          "internalType": "uint256",
          "name": "requestId",
          "type": "uint256"
        }
      ],
      "name": "getPendingThrow",
      "outputs": [
        {
          "components": [
            {
              "internalType": "address",
              "name": "thrower",
              "type": "address"
            },
            {
              "internalType": "uint256",
              "name": "pokemonId",
              "type": "uint256"
            },
            {
              "internalType": "enum PokeballGame.BallType",
              "name": "ballType",
              "type": "uint8"
            },
            {
              "internalType": "uint256",
              "name": "timestamp",
              "type": "uint256"
            },
            {
              "internalType": "bool",
              "name": "resolved",
              "type": "bool"
            }
          ],
          "internalType": "struct PokeballGame.PendingThrow",
          "name": "",
          "type": "tuple"
        }
      ],
      "stateMutability": "view",
      "type": "function"
    },
    {
      "inputs": [
        {
          "internalType": "address",
          "name": "player",
          "type": "address"
        },
        {
          "internalType": "uint8",
          "name": "ballType",
          "type": "uint8"
        }
      ],
      "name": "getPlayerBallBalance",
      "outputs": [
        {
          "internalType": "uint256",
          "name": "quantity",
          "type": "uint256"
        }
      ],
      "stateMutability": "view",
      "type": "function"
    },
    {
      "inputs": [
        {
          "internalType": "uint8",
          "name": "slot",
          "type": "uint8"
        }
      ],
      "name": "getPokemon",
      "outputs": [
        {
          "components": [
            {
              "internalType": "uint256",
              "name": "id",
              "type": "uint256"
            },
            {
              "internalType": "uint256",
              "name": "positionX",
              "type": "uint256"
            },
            {
              "internalType": "uint256",
              "name": "positionY",
              "type": "uint256"
            },
            {
              "internalType": "uint8",
              "name": "throwAttempts",
              "type": "uint8"
            },
            {
              "internalType": "bool",
              "name": "isActive",
              "type": "bool"
            },
            {
              "internalType": "uint256",
              "name": "spawnTime",
              "type": "uint256"
            }
          ],
          "internalType": "struct PokeballGame.Pokemon",
          "name": "pokemon",
          "type": "tuple"
        }
      ],
      "stateMutability": "view",
      "type": "function"
    },
    {
      "inputs": [
        {
          "internalType": "address",
          "name": "_owner",
          "type": "address"
        },
        {
          "internalType": "address",
          "name": "_treasury",
          "type": "address"
        },
        {
          "internalType": "address",
          "name": "_nftRevenue",
          "type": "address"
        },
        {
          "internalType": "address",
          "name": "_usdce",
          "type": "address"
        },
        {
          "internalType": "address",
          "name": "_ape",
          "type": "address"
        },
        {
          "internalType": "address",
          "name": "_vrng",
          "type": "address"
        },
        {
          "internalType": "address",
          "name": "_slabNFT",
          "type": "address"
        },
        {
          "internalType": "uint256",
          "name": "_initialAPEPrice",
          "type": "uint256"
        }
      ],
      "name": "initialize",
      "outputs": [],
      "stateMutability": "nonpayable",
      "type": "function"
    },
    {
      "inputs": [],
      "name": "nextPokemonId",
      "outputs": [
        {
          "internalType": "uint256",
          "name": "",
          "type": "uint256"
        }
      ],
      "stateMutability": "view",
      "type": "function"
    },
    {
      "inputs": [],
      "name": "nftRevenueWallet",
      "outputs": [
        {
          "internalType": "address",
          "name": "",
          "type": "address"
        }
      ],
      "stateMutability": "view",
      "type": "function"
    },
    {
      "inputs": [],
      "name": "owner",
      "outputs": [
        {
          "internalType": "address",
          "name": "",
          "type": "address"
        }
      ],
      "stateMutability": "view",
      "type": "function"
    },
    {
      "inputs": [],
      "name": "pause",
      "outputs": [],
      "stateMutability": "nonpayable",
      "type": "function"
    },
    {
      "inputs": [],
      "name": "paused",
      "outputs": [
        {
          "internalType": "bool",
          "name": "",
          "type": "bool"
        }
      ],
      "stateMutability": "view",
      "type": "function"
    },
    {
      "inputs": [
        {
          "internalType": "uint256",
          "name": "",
          "type": "uint256"
        }
      ],
      "name": "pendingThrows",
      "outputs": [
        {
          "internalType": "address",
          "name": "thrower",
          "type": "address"
        },
        {
          "internalType": "uint256",
          "name": "pokemonId",
          "type": "uint256"
        },
        {
          "internalType": "enum PokeballGame.BallType",
          "name": "ballType",
          "type": "uint8"
        },
        {
          "internalType": "uint256",
          "name": "timestamp",
          "type": "uint256"
        },
        {
          "internalType": "bool",
          "name": "resolved",
          "type": "bool"
        }
      ],
      "stateMutability": "view",
      "type": "function"
    },
    {
      "inputs": [
        {
          "internalType": "address",
          "name": "",
          "type": "address"
        },
        {
          "internalType": "enum PokeballGame.BallType",
          "name": "",
          "type": "uint8"
        }
      ],
      "name": "playerBalls",
      "outputs": [
        {
          "internalType": "uint256",
          "name": "",
          "type": "uint256"
        }
      ],
      "stateMutability": "view",
      "type": "function"
    },
    {
      "inputs": [],
      "name": "proxiableUUID",
      "outputs": [
        {
          "internalType": "bytes32",
          "name": "",
          "type": "bytes32"
        }
      ],
      "stateMutability": "view",
      "type": "function"
    },
    {
      "inputs": [
        {
          "internalType": "uint8",
          "name": "ballType",
          "type": "uint8"
        },
        {
          "internalType": "uint256",
          "name": "quantity",
          "type": "uint256"
        },
        {
          "internalType": "bool",
          "name": "useAPE",
          "type": "bool"
        }
      ],
      "name": "purchaseBalls",
      "outputs": [],
      "stateMutability": "nonpayable",
      "type": "function"
    },
    {
      "inputs": [
        {
          "internalType": "uint256",
          "name": "requestId",
          "type": "uint256"
        },
        {
          "internalType": "uint256",
          "name": "randomNumber",
          "type": "uint256"
        }
      ],
      "name": "randomNumberCallback",
      "outputs": [],
      "stateMutability": "nonpayable",
      "type": "function"
    },
    {
      "inputs": [],
      "name": "renounceOwnership",
      "outputs": [],
      "stateMutability": "nonpayable",
      "type": "function"
    },
    {
      "inputs": [
        {
          "internalType": "uint256",
          "name": "",
          "type": "uint256"
        }
      ],
      "name": "requestIdToTraceId",
      "outputs": [
        {
          "internalType": "uint256",
          "name": "",
          "type": "uint256"
        }
      ],
      "stateMutability": "view",
      "type": "function"
    },
    {
      "inputs": [
        {
          "internalType": "uint256",
          "name": "newPrice",
          "type": "uint256"
        }
      ],
      "name": "setAPEPrice",
      "outputs": [],
      "stateMutability": "nonpayable",
      "type": "function"
    },
    {
      "inputs": [
        {
          "internalType": "address",
          "name": "newNFTRevenue",
          "type": "address"
        }
      ],
      "name": "setNFTRevenueWallet",
      "outputs": [],
      "stateMutability": "nonpayable",
      "type": "function"
    },
    {
      "inputs": [
        {
          "internalType": "address",
          "name": "_slabNFTManager",
          "type": "address"
        }
      ],
      "name": "setSlabNFTManager",
      "outputs": [],
      "stateMutability": "nonpayable",
      "type": "function"
    },
    {
      "inputs": [
        {
          "internalType": "address",
          "name": "newTreasury",
          "type": "address"
        }
      ],
      "name": "setTreasuryWallet",
      "outputs": [],
      "stateMutability": "nonpayable",
      "type": "function"
    },
    {
      "inputs": [],
      "name": "slabNFT",
      "outputs": [
        {
          "internalType": "contract IERC721",
          "name": "",
          "type": "address"
        }
      ],
      "stateMutability": "view",
      "type": "function"
    },
    {
      "inputs": [],
      "name": "slabNFTManager",
      "outputs": [
        {
          "internalType": "contract ISlabNFTManager",
          "name": "",
          "type": "address"
        }
      ],
      "stateMutability": "view",
      "type": "function"
    },
    {
      "inputs": [
        {
          "internalType": "uint8",
          "name": "slot",
          "type": "uint8"
        }
      ],
      "name": "spawnPokemon",
      "outputs": [],
      "stateMutability": "nonpayable",
      "type": "function"
    },
    {
      "inputs": [
        {
          "internalType": "uint8",
          "name": "pokemonSlot",
          "type": "uint8"
        },
        {
          "internalType": "uint8",
          "name": "ballType",
          "type": "uint8"
        }
      ],
      "name": "throwBall",
      "outputs": [
        {
          "internalType": "uint256",
          "name": "requestId",
          "type": "uint256"
        }
      ],
      "stateMutability": "nonpayable",
      "type": "function"
    },
    {
      "inputs": [],
      "name": "totalNFTsPurchased",
      "outputs": [
        {
          "internalType": "uint256",
          "name": "",
          "type": "uint256"
        }
      ],
      "stateMutability": "view",
      "type": "function"
    },
    {
      "inputs": [],
      "name": "totalPlatformFees",
      "outputs": [
        {
          "internalType": "uint256",
          "name": "",
          "type": "uint256"
        }
      ],
      "stateMutability": "view",
      "type": "function"
    },
    {
      "inputs": [],
      "name": "totalRevenuePool",
      "outputs": [
        {
          "internalType": "uint256",
          "name": "",
          "type": "uint256"
        }
      ],
      "stateMutability": "view",
      "type": "function"
    },
    {
      "inputs": [
        {
          "internalType": "address",
          "name": "newOwner",
          "type": "address"
        }
      ],
      "name": "transferOwnership",
      "outputs": [],
      "stateMutability": "nonpayable",
      "type": "function"
    },
    {
      "inputs": [],
      "name": "treasuryWallet",
      "outputs": [
        {
          "internalType": "address",
          "name": "",
          "type": "address"
        }
      ],
      "stateMutability": "view",
      "type": "function"
    },
    {
      "inputs": [],
      "name": "unpause",
      "outputs": [],
      "stateMutability": "nonpayable",
      "type": "function"
    },
    {
      "inputs": [
        {
          "internalType": "address",
          "name": "newImplementation",
          "type": "address"
        },
        {
          "internalType": "bytes",
          "name": "data",
          "type": "bytes"
        }
      ],
      "name": "upgradeToAndCall",
      "outputs": [],
      "stateMutability": "payable",
      "type": "function"
    },
    {
      "inputs": [],
      "name": "usdce",
      "outputs": [
        {
          "internalType": "contract IERC20",
          "name": "",
          "type": "address"
        }
      ],
      "stateMutability": "view",
      "type": "function"
    },
    {
      "inputs": [],
      "name": "vrng",
      "outputs": [
        {
          "internalType": "contract IPOPVRNG",
          "name": "",
          "type": "address"
        }
      ],
      "stateMutability": "view",
      "type": "function"
    },
    {
      "inputs": [],
      "name": "withdrawFees",
      "outputs": [],
      "stateMutability": "nonpayable",
      "type": "function"
    }
  ],
  "bytecode": "0x60a080604052346100ea57306080527ff0c57e16840df040f15088dc2f81fe391c3923bec73e23a9662efc9c229c6a005460ff8160401c166100d9576002600160401b03196001600160401b03821601610073575b60405161330d90816100f08239608051818181611c370152611d080152f35b6001600160401b0319166001600160401b039081177ff0c57e16840df040f15088dc2f81fe391c3923bec73e23a9662efc9c229c6a005581527fc7f505b2f371ae2175ee4913f4499e1f2633a7b5936321eed1cdaeb6115181d290602090a13880610054565b63f92ee8a960e01b60005260046000fd5b600080fdfe6080604052600436101561001257600080fd5b6000803560e01c8063064c973c1461264f5780630771197f146125cf57806311648422146122d357806323b5cb5d1461220157806325c61fcd146121d85780632795a90e1461216a5780632e9ed2e41461214b57806338efa8311461212f5780633bd81715146121125780633f4ba83a146120905780634129849f146120755780634626402b1461204c578063476343ee14611f7a5780634c4e2a4614611ed95780634f1ef28614611c8c57806352d1902d14611c24578063539aa77f14611c075780635c975abb14611bd7578063607c45d114611b6c5780636213841414611b4357806364c618cc14611b1a5780636fea438d14611af1578063715018a614611a875780637881a07014611a6b57806379babd2c14611a425780637a0b07cf1461191f5780637ed2f783146117015780637edc648c146116d75780638456cb591461166257806388301911146113835780638da5cb5b1461134d5780638f561acc1461130857806394ea04d114610c76578063970cff9314610c215780639b7d1a2a14610b685780639f48ed2314610b4c5780639fb769dd14610b2e578063a2afc37314610a93578063a4cedc3914610a75578063a8602fea146109d6578063ad3cb1cc1461095c578063b036d59114610940578063bf370a611461090e578063c1419def146108f2578063c5f525111461083e578063cc7a69de14610820578063d257418314610803578063d33953ba146107dc578063d3631fa5146107be578063d9deb60b146107a0578063df33c1fd14610474578063e155d79e14610782578063e1a4521814610765578063e53b74c614610603578063eb76c37e146105e7578063efdf9949146105b2578063f2fde38b14610585578063f4f0009214610517578063f8ce2c7d146104f8578063fa86b90b14610479578063fc774c5c14610474578063fcc536ba1461036e578063fd626a18146103505763fe5c7ba8146102dd57600080fd5b3461034d57602036600319011261034d576102f6612694565b6102fe612ba5565b60ff8116601481101561033b5750601481101561032757600502600d01805461ff001916905580f35b634e487b7160e01b82526032600452602482fd5b63cba5131560e01b8352600452602482fd5b80fd5b503461034d578060031936011261034d576020604051620f42408152f35b503461034d578060031936011261034d5761028060405161038f8282612715565b825b82811061045f57505060405190810181811067ffffffffffffffff82111761044b57604052600a82825b6014821061042d576040518486825b601482106103d857610f0084f35b602060c082610421600194875160a0809180518452602081015160208501526040810151604085015260ff60608201511660608501526080810151151560808501520151910152565b019301910190916103ca565b6005602060019261043d8661298a565b8152019301910190916103bb565b634e487b7160e01b83526041600452602483fd5b60209061046a612959565b8184015201610391565b61276b565b503461034d578060031936011261034d5780815b601460ff8216106104a65760208260ff60405191168152f35b60148110156104e45760ff600d60058302015460081c166104cd575b60010160ff1661048d565b9060016104db60ff92612a40565b929150506104c2565b634e487b7160e01b83526032600452602483fd5b503461034d578060031936011261034d57602060405163017d78408152f35b503461034d57602036600319011261034d57604060a0916004358152606f60205220600180831b038154169060018101549061057760ff60028301541660ff600460038501549401541693604051958652602086015260408501906126a4565b606083015215156080820152f35b503461034d57602036600319011261034d576105af6105a261266e565b6105aa612ba5565b612ac9565b80f35b503461034d57602036600319011261034d5760043590600482101561034d5760206105dc83612a69565b60ff60405191168152f35b503461034d578060031936011261034d57602060405160038152f35b503461034d578060031936011261034d5780815b601460ff821610610727575060ff1661064861063282612a51565b916106406040519384612715565b808352612a51565b602082019190601f190136833782835b60ff811660148110156106df5760148210156106cb5760ff600d60058402015460081c1661068d575b5060010160ff16610658565b61069683612a40565b92845160ff821610156106b75760051b611fe0168401602001526001610681565b634e487b7160e01b87526032600452602487fd5b634e487b7160e01b86526032600452602486fd5b50505090604051928392602084019060208552518091526040840192915b81811061070b575050500390f35b825160ff168452859450602093840193909201916001016106fd565b60148110156104e45760ff600d60058302015460081c1661074e575b60010160ff16610617565b90600161075c60ff92612a40565b92915050610743565b503461034d578060031936011261034d5760206040516127108152f35b503461034d578060031936011261034d576020600854604051908152f35b503461034d578060031936011261034d576020606e54604051908152f35b503461034d578060031936011261034d576020600754604051908152f35b503461034d578060031936011261034d57546040516001600160a01b039091168152602090f35b503461034d578060031936011261034d5760206040516103e78152f35b503461034d578060031936011261034d576020607254604051908152f35b503461034d57602036600319011261034d5761085861266e565b610860612ba5565b6001600160a01b031680156108e35760a07fd8e98bff5ae8522235ef48daecff7488b367200bea03a4e8cb4bc98108c6a4929160735490806001600160601b03841b8316176073556040519160608352600e60608401526d39b630b127232a26b0b730b3b2b960911b6080840152600180851b031660208301526040820152a180f35b63d92e233d60e01b8252600482fd5b503461034d578060031936011261034d57602060405160068152f35b503461034d57602036600319011261034d5760043590600482101561034d576020610938836129d6565b604051908152f35b503461034d578060031936011261034d57602060405160638152f35b503461034d578060031936011261034d57604080519161097c8284612715565b60058352640352e302e360dc1b6020840152815192839160208352815191826020850152815b8381106109bf575050828201840152601f01601f19168101030190f35b6020828201810151888301880152879550016109a2565b503461034d57602036600319011261034d576109f061266e565b6109f8612ba5565b6001600160a01b031680156108e35760a07fd8e98bff5ae8522235ef48daecff7488b367200bea03a4e8cb4bc98108c6a4929160045490806001600160601b03841b83161760045560405191606083526008606084015267747265617375727960c01b6080840152600180851b031660208301526040820152a180f35b503461034d578060031936011261034d576020604051629896808152f35b503461034d57602036600319011261034d576080906001600160a01b03610ab861266e565b1690818152600960205260408120818052602052604081205491808252600960205260408220600183526020526040808320549282815260096020528181206002825260205281812054928152600960205281812060038252602052205491604051938452602084015260408301526060820152f35b503461034d578060031936011261034d576020600654604051908152f35b503461034d578060031936011261034d57602060405160328152f35b503461034d57602036600319011261034d57610b82612694565b90610b8b612959565b5060ff82166014811015610c0e57506014821015610bfa5760c0610bb460058402600a0161298a565b610bf8604051809260a0809180518452602081015160208501526040810151604085015260ff60608201511660608501526080810151151560808501520151910152565bf35b634e487b7160e01b81526032600452602490fd5b63cba5131560e01b825260045260249150fd5b503461034d57604036600319011261034d57610c3b61266e565b602435906004821015610c72576001600160a01b03168252600960209081526040909220610c699190612753565b54604051908152f35b8280fd5b503461034d57606036600319011261034d57610c90612694565b60243590604435918215159182840361112957610cab612b3f565b610cb3612b7b565b81156112f95760ff1692600384116112e55760048410156112d157610cd7846129d6565b90828202918083048414901517156112165715610ed257610cf781612787565b600154604051636eb1769f60e11b81523360048201523060248201526001600160a01b0390911690602081604481855afa908115610e7b578891610ea0575b50828110610e8657506040516370a0823160e01b8152336004820152602081602481855afa908115610e7b578891610e44575b50828110610e2a575090610d809130903390613192565b61012c81029080820461012c1490151715610e1657612710610da5910460075461287c565b6007555b3384526009602052610dbe8360408620612753565b610dc982825461287c565b9055604051928352602083015260408201527f279d78d3bc9e8f1f0c6275b03db1ea13aed8715f3f9ad832f728113b3568cc4160603392a260016000805160206132988339815191525580f35b634e487b7160e01b85526011600452602485fd5b606492889263db42144d60e01b8452600452602452604452fd5b90506020813d602011610e73575b81610e5f60209383612715565b81010312610e6e575138610d69565b600080fd5b3d9150610e52565b6040513d8a823e3d90fd5b6064928892630c95cf2760e11b8452600452602452604452fd5b90506020813d602011610eca575b81610ebb60209383612715565b81010312610e6e575138610d36565b3d9150610eae565b8454604051636eb1769f60e11b81523360048201523060248201526001600160a01b0390911690602081604481855afa90811561127a57879161129f575b5082811061128557506040516370a0823160e01b8152336004820152602081602481855afa90811561127a578791611244575b5082811061122a575081610f5a9130903390613192565b61012c810281810461012c14821517156112165761271090048082039180831161120257610f8a8260075461287c565b6007556073546001600160a01b03169182151591826111f7575b5050610fb2575b5050610da9565b8554604051636eb1769f60e11b81523060048201526001600160a01b03838116602483015290911690602081604481855afa8015610e7b57849089906111bd575b610ffd925061287c565b60405163095ea7b360e01b60208083019182526001600160a01b038616602484015260448084019490945292825290929190899061103c606486612715565b84519082855af188513d826111a1575b50501561115c575b50506073548691506001600160a01b0316803b1561115857819060246040518094819363bc1ca3e960e01b83528760048401525af1801561113957611144575b5060735460408051636c14397f60e11b815291829060049082908a906001600160a01b03165af18015611139576110f9575b5060207f6a35e7a759100d73c502119478cb5ae1ca768bbe0205d011ed3b0f76c59207a891604051908152a13880610fab565b6040813d604011611131575b8161111260409383612715565b8101031261112d57518015150361112957386110c6565b8480fd5b8580fd5b3d9150611105565b6040513d88823e3d90fd5b8561115191969296612715565b9338611094565b5080fd5b611194611199936040519063095ea7b360e01b602083015260248201528960448201526044815261118e606482612715565b826130ad565b6130ad565b388080611054565b9091506111b55750803b15155b388061104c565b6001146111ae565b50506020813d6020116111ef575b816111d860209383612715565b810103126111eb5783610ffd9151610ff3565b8780fd5b3d91506111cb565b141590503880610fa4565b634e487b7160e01b87526011600452602487fd5b634e487b7160e01b86526011600452602486fd5b606492879263db42144d60e01b8452600452602452604452fd5b90506020813d602011611272575b8161125f60209383612715565b8101031261126e575138610f43565b8680fd5b3d9150611252565b6040513d89823e3d90fd5b6064928792630c95cf2760e11b8452600452602452604452fd5b90506020813d6020116112c9575b816112ba60209383612715565b8101031261126e575138610f10565b3d91506112ad565b634e487b7160e01b85526021600452602485fd5b63fab9b83760e01b85526004849052602485fd5b63f4f5b73360e01b8552600485fd5b503461034d57604036600319011261034d576002546001600160a01b0316330361133a576105af6024356004356128dc565b635a1c6a5960e01b815233600452602490fd5b503461034d578060031936011261034d57600080516020613238833981519152546040516001600160a01b039091168152602090f35b503461034d5761010036600319011261034d5761139e61266e565b6024356001600160a01b03811690819003610c72576044356001600160a01b0381169081900361165e576064356001600160a01b0381169290839003611129576084356001600160a01b0381169081900361112d5760a4356001600160a01b0381169081900361126e5760c4356001600160a01b03811692908390036111eb5760e435956000805160206132b8833981519152549760ff8960401c16159867ffffffffffffffff811680159081611656575b600114908161164c575b159081611643575b506116345767ffffffffffffffff1981166001176000805160206132b88339815191525589611607575b506001600160a01b038116156115f85785156115f85786156115f85781156115f85782156115f85783156115f85784156115f85787156115ea576114da906114d2613108565b6105aa613108565b6114e2613108565b6114ea613108565b6114f2613108565b60016000805160206132988339815191525561150c613108565b6001600160601b0360a01b8954161788556001600160601b0360a01b60015416176001556001600160601b0360a01b60025416176002556001600160601b0360a01b60035416176003556001600160601b0360a01b60045416176004556001600160601b0360a01b60055416176005556072556001606e5560016071556115905780f35b68ff0000000000000000196000805160206132b883398151915254166000805160206132b8833981519152557fc7f505b2f371ae2175ee4913f4499e1f2633a7b5936321eed1cdaeb6115181d2602060405160018152a180f35b62bfc92160e01b8a5260048afd5b63d92e233d60e01b8a5260048afd5b68ffffffffffffffffff191668010000000000000001176000805160206132b8833981519152553861148c565b63f92ee8a960e01b8b5260048bfd5b90501538611462565b303b15915061145a565b8b9150611450565b8380fd5b503461034d578060031936011261034d5761167b612ba5565b611683612b7b565b600160ff19600080516020613278833981519152541617600080516020613278833981519152557f62e78cea01bee320cd4e420270b5ea74000d11b0c9f74754ebdbfc544b05a2586020604051338152a180f35b503461034d57602036600319011261034d5760406020916004358152607083522054604051908152f35b503461034d57602036600319011261034d5761171b612694565b611723612ba5565b60ff811690601482101561190b5760148110156104e457600502600d015460081c60ff166118f95781606e54916117598361286d565b606e556071546117688161286d565b60715560405160208101916001600160601b03193060601b16835285603483015260ff60f81b60548301524260558301526075820152607581526117ad609582612715565b51902092602060018060a01b03600254166024604051809681936371c8a23960e11b83528960048401525af19283156118ee5785936118ba575b5060048210156112d157604051916117fe836126c7565b308352602083019182526118166040840191826127e4565b426060840190815260808401878152858852606f60205260408820945185546001600160a01b0319166001600160a01b0391909116178555925160018501559051600284019060048110156118a6579161189794939160049360ff8019835416911617905551600384015551151591019060ff801983541691151516179055565b82526070602052604082205580f35b634e487b7160e01b88526021600452602488fd5b9092506020813d6020116118e6575b816118d660209383612715565b81010312611129575191386117e7565b3d91506118c9565b6040513d87823e3d90fd5b632f8ecec960e21b8252600452602490fd5b63cba5131560e01b83526004829052602483fd5b503461034d57606036600319011261034d57611939612694565b90611942612ba5565b60ff8216916014831015611a2f57601481101561032757600581029060ff600d83015460081c16611a1b57907f156f6fef57e34329718d6efbd41f31a81afd51d967d24f97b94eb576dca20cfe91611a15606e54916119a08361286d565b606e556103e860243506936119ed6103e86044350691604051906119c3826126f9565b868252876020830152836040830152896060830152600160808301524260a0830152600a01612889565b60405194859485929360ff919594606093608086019786526020860152604085015216910152565b0390a180f35b632f8ecec960e21b83526004849052602483fd5b5060249163cba5131560e01b8252600452fd5b503461034d578060031936011261034d576001546040516001600160a01b039091168152602090f35b503461034d578060031936011261034d57602060405160028152f35b503461034d578060031936011261034d57611aa0612ba5565b60008051602061323883398151915280546001600160a01b0319811690915581906001600160a01b03167f8be0079c531659141344cd1fd0a4f28419497f9722a3daafe3b4186f6b6457e08280a380f35b503461034d578060031936011261034d576073546040516001600160a01b039091168152602090f35b503461034d578060031936011261034d576005546040516001600160a01b039091168152602090f35b503461034d578060031936011261034d576002546040516001600160a01b039091168152602090f35b503461034d57602036600319011261034d57600435611b89612ba5565b8015611bc95760407fc401b47db6ec4c8671a2f54cf3a5f3f7069c3b71b6c6ad9ed90f2c8cc9920b6a91607254908060725582519182526020820152a180f35b62bfc92160e01b8252600482fd5b503461034d578060031936011261034d57602060ff60008051602061327883398151915254166040519015158152f35b503461034d578060031936011261034d57602060405161012c8152f35b503461034d578060031936011261034d577f00000000000000000000000000000000000000000000000000000000000000006001600160a01b03163003611c7d5760206040516000805160206132588339815191528152f35b63703e46dd60e11b8152600490fd5b50604036600319011261034d57611ca161266e565b6024359067ffffffffffffffff8211610c725736602383011215610c725781600401359083611ccf83612737565b93611cdd6040519586612715565b83855260208501933660248284010111610c7257806024602093018637850101526001600160a01b037f000000000000000000000000000000000000000000000000000000000000000016308114908115611eb6575b50611ea757611d40612ba5565b6040516352d1902d60e01b81526001600160a01b0382169390602081600481885afa869181611e73575b50611d8357634c9c8ce360e01b86526004859052602486fd5b9384600080516020613258833981519152879603611e615750823b15611e4f5760008051602061325883398151915280546001600160a01b031916821790558491907fbc7cd75a20ee27fd9adebab32041f755214dbc6bffa90cc0225b39da2e5c2d3b8380a2805115611e3457611e289382915190845af43d15611e2c573d91611e0c83612737565b92611e1a6040519485612715565b83523d85602085013e6131d6565b5080f35b6060916131d6565b5050505034611e405780f35b63b398979f60e01b8152600490fd5b634c9c8ce360e01b8552600452602484fd5b632a87526960e21b8652600452602485fd5b9091506020813d602011611e9f575b81611e8f60209383612715565b8101031261126e57519038611d6a565b3d9150611e82565b63703e46dd60e11b8452600484fd5b600080516020613258833981519152546001600160a01b03161415905038611d33565b503461034d57602036600319011261034d57611ef361266e565b611efb612ba5565b6001600160a01b031680156108e35760a07fd8e98bff5ae8522235ef48daecff7488b367200bea03a4e8cb4bc98108c6a4929160055490806001600160601b03841b8316176005556040519160608352600a6060840152696e6674526576656e756560b01b6080840152600180851b031660208301526040820152a180f35b503461034d578060031936011261034d57611f93612ba5565b611f9b612b3f565b600754801561203d576007829055815460045460405163a9059cbb60e01b60208201526001600160a01b039182166024820152604480820185905281527fc0819c13be868895eb93e40eaceb96de976442fa1d404e5c55f14bb65a8c489a939261200b9216611194606483612715565b600454604080516001600160a01b0390921682526020820192909252a160016000805160206132988339815191525580f35b630d00db4d60e31b8252600482fd5b503461034d578060031936011261034d576004546040516001600160a01b039091168152602090f35b503461034d578060031936011261034d5760206109386127f0565b503461034d578060031936011261034d576120a9612ba5565b6000805160206132788339815191525460ff8116156121035760ff1916600080516020613278833981519152557f5db9ee0a495bf2e6ff9c91a7834c1ba4fdd244a5e8aa4e537bd38aeae4b073aa6020604051338152a180f35b638dfc202b60e01b8252600482fd5b503461034d578060031936011261034d5760206040516125e48152f35b503461034d578060031936011261034d57602060405160128152f35b503461034d578060031936011261034d5760206040516302f969e08152f35b503461034d57602036600319011261034d5760043560148110156111585760059060c092500280600a01549060ff600b82015491600c810154600e600d8301549201549360405195865260208601526040850152818116606085015260081c161515608083015260a0820152f35b503461034d578060031936011261034d576003546040516001600160a01b039091168152602090f35b503461034d57602036600319011261034d5760408160a09260808351612226816126c7565b828152826020820152828582015282606082015201526004358152606f6020522060405190612254826126c7565b600180841b038154168252600181015490602083019182526122c360ff6002830154166122856040860191826127e4565b60ff6004600385015494606088019586520154169360808601941515855260405195600180891b0390511686525160208601525160408501906126a4565b5160608301525115156080820152f35b503461034d57604036600319011261034d576122ed612694565b906122f6612684565b916122ff612b3f565b612307612b7b565b60ff8116601481101561033b575060ff831690600382116125bb5760148110156104e45760050260ff600d82600a0192015460081c16156125a85760048210156125945733835260096020526123608260408520612753565b541561257857338352600960205261237b8260408520612753565b9384546000198101908111610e165784955581549060715461239c8161286d565b6071556040519160208301936001600160601b03193360601b168552603484015260ff60f81b9060f81b1660548301524260558301526075820152607581526123e6609582612715565b5190206002546040516371c8a23960e11b8152600481018390529460209186916024918391906001600160a01b03165af19384156118ee578594612544575b50815460405190612435826126c7565b338252602082019081526040820161244d86826127e4565b426060840190815260808401898152888a52606f60205260408a20945185546001600160a01b0319166001600160a01b0391909116178555925160018501559051600284019060048110156125305789936124d5936040969360049360209d5060ff8019835416911617905551600384015551151591019060ff801983541691151516179055565b8581526070875220555490604051918252838201528160408201527f5e0c015d137a94a9e864e17092fb126241c929614b46c3bc32163b46de9bf05b60603392a2600160008051602061329883398151915255604051908152f35b634e487b7160e01b8a52602160045260248afd5b9093506020813d602011612570575b8161256060209383612715565b8101031261112957519238612425565b3d9150612553565b60648383639f27773f60e01b8252600452600160245280604452fd5b634e487b7160e01b83526021600452602483fd5b546332c3e47160e21b8352600452602482fd5b63fab9b83760e01b83526004829052602483fd5b503461034d57604036600319011261034d576125e961266e565b9060ff6125f4612684565b16916003831161263c576001600160a01b03168152600960205260408120906004831015612628576020610c698484612753565b634e487b7160e01b81526021600452602490fd5b5060249163fab9b83760e01b8252600452fd5b503461034d57602036600319011261034d576020610938600435612787565b600435906001600160a01b0382168203610e6e57565b6024359060ff82168203610e6e57565b6004359060ff82168203610e6e57565b9060048210156126b15752565b634e487b7160e01b600052602160045260246000fd5b60a0810190811067ffffffffffffffff8211176126e357604052565b634e487b7160e01b600052604160045260246000fd5b60c0810190811067ffffffffffffffff8211176126e357604052565b90601f8019910116810190811067ffffffffffffffff8211176126e357604052565b67ffffffffffffffff81116126e357601f01601f191660200190565b9060048110156126b157600052602052604060002090565b34610e6e576000366003190112610e6e57602060405160148152f35b68056bc75e2d6310000081029080820468056bc75e2d6310000014901517156127ce576072549081156127b8570490565b634e487b7160e01b600052601260045260246000fd5b634e487b7160e01b600052601160045260246000fd5b60048210156126b15752565b6073546001600160a01b0316801561286757602060049160405192838092630579ef8b60e51b82525afa90811561285b5760009161282c575090565b90506020813d602011612853575b8161284760209383612715565b81010312610e6e575190565b3d915061283a565b6040513d6000823e3d90fd5b50600090565b60001981146127ce5760010190565b919082018092116127ce57565b8151815560208201516001820155604082015160028201556060820151600382018054608085015161ff0090151560081b1660ff90931661ffff199091161791909117905560a090910151600490910155565b9081600052606f60205260406000209160018060a01b0383541690811561294557600484019081549060ff8216612931575060ff1916600117905530146129285761292691612cbd565b565b61292691612bdb565b633f8cbced60e21b60005260045260246000fd5b63098354e960e41b60005260045260246000fd5b60405190612966826126f9565b600060a0838281528260208201528260408201528260608201528260808201520152565b90604051612997816126f9565b60a06004829480548452600181015460208501526002810154604085015260ff6003820154818116606087015260081c16151560808501520154910152565b60048110156126b1578015612a3857600060018214612a2f575060028114612a2657600060038214612a1c5760ff92505063fab9b83760e01b6000521660045260246000fd5b50506302f969e090565b5063017d784090565b50506298968090565b50620f424090565b60ff1660ff81146127ce5760010190565b67ffffffffffffffff81116126e35760051b60200190565b60048110156126b1578015612ac357600060018214612abc575060028114612ab657600060038214612aaf5760ff92505063fab9b83760e01b6000521660045260246000fd5b5050606390565b50603290565b5050601490565b50600290565b6001600160a01b03168015612b295760008051602061323883398151915280546001600160a01b0319811683179091556001600160a01b03167f8be0079c531659141344cd1fd0a4f28419497f9722a3daafe3b4186f6b6457e0600080a3565b631e4fbdf760e01b600052600060045260246000fd5b60026000805160206132988339815191525414612b6a57600260008051602061329883398151915255565b633ee5aeb560e01b60005260046000fd5b60ff6000805160206132788339815191525416612b9457565b63d93c066560e01b60005260046000fd5b600080516020613238833981519152546001600160a01b03163303612bc657565b63118cdaa760e01b6000523360045260246000fd5b9060ff6002830154169160048310156126b1576014831015612cb8576000600584029360ff600d86015460081c16612cb1577f156f6fef57e34329718d6efbd41f31a81afd51d967d24f97b94eb576dca20cfe94612c8283612cac945060016103e88089069860801c0696019283549160405192612c58846126f9565b8352886020840152876040840152806060840152600160808401524260a084015250600a01612889565b549260405194859485929360ff919594606093608086019786526020860152604085015216910152565b0390a1565b5050505050565b505050565b612cca6001820154613136565b929015801561308f575b612cb857601483101561307957600583029182600a019160ff612cfc81600285015416612a69565b16606482061015612f935750549054600d92909201805461ff00191690556073546001600160a01b03918216916000911680612efb575b5060407fe1ef7825c332c25296359d37af815442cbd1fd6d620d8271b4180bd68f834bb0918151908582526020820152a26103e881018091116127ce57600090607154612d7f8161286d565b60715560405160208101916001600160601b03193060601b168352836034830152607f60f91b6054830152426055830152607582015260758152612dc4609582612715565b51902092602060018060a01b03600254166024604051809681936371c8a23960e11b83528960048401525af192831561285b57600093612ec6575b5060ff169060048210156126b15760405190612e1a826126c7565b30825260208201908152612e326040830193846127e4565b4260608301908152600060808401818152868252606f6020526040909120935184546001600160a01b0319166001600160a01b0391909116178455915160018401559251600283019390919060048310156126b157612eb69460049360ff8019835416911617905551600384015551151591019060ff801983541691151516179055565b6000526070602052604060002055565b90926020823d602011612ef3575b81612ee160209383612715565b8101031261034d5750519160ff612dff565b3d9150612ed4565b602082916024604051809481936378b5aa8f60e01b83528860048401525af1918215612f87578092612f31575b50506040612d33565b9091506020823d602011612f7f575b81612f4d60209383612715565b8101031261034d57505160407fe1ef7825c332c25296359d37af815442cbd1fd6d620d8271b4180bd68f834bb0612f28565b3d9150612f40565b604051903d90823e3d90fd5b91935060018060a01b0390541691600d81019260ff612fb481865416612a40565b1660ff1985541617845560ff845416806003039160ff83116127ce577fde2c7625951ef209e3b14dc5de7c713aaf12a680817df0ba922f064834ed47e4604060039460ff8a54918351928352166020820152a21015613014575b50505050565b7f991f141b1f67192a98969cd4005f41d17ef23a517c6975606af1c6f48a0ae37d93606093600c926103e8808660081c069560101c06938186600b87940155015560ff198154169055549160405192835260208301526040820152a13880808061300e565b634e487b7160e01b600052603260045260246000fd5b5060148310156130795760ff600d60058502015460081c1615612cd4565b906000602091828151910182855af11561285b576000513d6130ff57506001600160a01b0381163b155b6130de5750565b635274afe760e01b60009081526001600160a01b0391909116600452602490fd5b600114156130d7565b60ff6000805160206132b88339815191525460401c161561312557565b631afcd79f60e31b60005260046000fd5b9060005b601460ff82161061314e5750600091508190565b601481101561307957600581028381600a0154149081613180575b506131795760010160ff1661313a565b6001925090565b60ff9150600d015460081c1638613169565b6040516323b872dd60e01b60208201526001600160a01b03928316602482015292909116604483015260648083019390935291815261292691611194608483612715565b906131fc57508051156131eb57602081519101fd5b63d6bda27560e01b60005260046000fd5b8151158061322e575b61320d575090565b639996b31560e01b60009081526001600160a01b0391909116600452602490fd5b50803b1561320556fe9016d09d72d40fdae2fd8ceac6b6234c7706214fd39c1cd1e609a0528c199300360894a13ba1a3210667c828492db98dca3e2076cc3735a920a3ca505d382bbccd5ed15c6e187e77e9aee88184c21f4f2182ab5827cb3b7e07fbedcd63f033009b779b17422d0df92223018b32b4d1fa46e071723d6817e2486d003becc55f00f0c57e16840df040f15088dc2f81fe391c3923bec73e23a9662efc9c229c6a00a26469706673582212204e37d0242daa1dadd407e91e68eeb5a36edca7ac33d72e12a7ff29200e4bc2f364736f6c634300081a0033",
  "linkReferences": {},
  "deployedLinkReferences": {}
}