{
  "_format": "hh-sol-artifact-1",
  "contractName": "PokeballGame",
  "sourceName": "contracts/PokeballGameV4.sol",
  "abi": [
    {
      "inputs": [],
      "stateMutability": "nonpayable",
      "type": "constructor"
    },
    {
      "inputs": [],
      "name": "APETransferFailed",
      "type": "error"
    },
    {
      "inputs": [
        {
          "internalType": "address",
          "name": "target",
          "type": "address"
        }
      ],
      "name": "AddressEmptyCode",
      "type": "error"
    },
    {
      "inputs": [
        {
          "internalType": "address",
          "name": "implementation",
          "type": "address"
        }
      ],
      "name": "ERC1967InvalidImplementation",
      "type": "error"
    },
    {
      "inputs": [],
      "name": "ERC1967NonPayable",
      "type": "error"
    },
    {
      "inputs": [],
      "name": "EnforcedPause",
      "type": "error"
    },
    {
      "inputs": [],
      "name": "ExpectedPause",
      "type": "error"
    },
    {
      "inputs": [],
      "name": "FailedCall",
      "type": "error"
    },
    {
      "inputs": [
        {
          "internalType": "uint256",
          "name": "required",
          "type": "uint256"
        },
        {
          "internalType": "uint256",
          "name": "sent",
          "type": "uint256"
        }
      ],
      "name": "InsufficientAPESent",
      "type": "error"
    },
    {
      "inputs": [
        {
          "internalType": "address",
          "name": "token",
          "type": "address"
        },
        {
          "internalType": "uint256",
          "name": "required",
          "type": "uint256"
        },
        {
          "internalType": "uint256",
          "name": "available",
          "type": "uint256"
        }
      ],
      "name": "InsufficientAllowance",
      "type": "error"
    },
    {
      "inputs": [
        {
          "internalType": "address",
          "name": "token",
          "type": "address"
        },
        {
          "internalType": "uint256",
          "name": "required",
          "type": "uint256"
        },
        {
          "internalType": "uint256",
          "name": "available",
          "type": "uint256"
        }
      ],
      "name": "InsufficientBalance",
      "type": "error"
    },
    {
      "inputs": [
        {
          "internalType": "enum PokeballGame.BallType",
          "name": "ballType",
          "type": "uint8"
        },
        {
          "internalType": "uint256",
          "name": "required",
          "type": "uint256"
        },
        {
          "internalType": "uint256",
          "name": "available",
          "type": "uint256"
        }
      ],
      "name": "InsufficientBalls",
      "type": "error"
    },
    {
      "inputs": [
        {
          "internalType": "uint8",
          "name": "provided",
          "type": "uint8"
        }
      ],
      "name": "InvalidBallType",
      "type": "error"
    },
    {
      "inputs": [
        {
          "internalType": "uint8",
          "name": "rate",
          "type": "uint8"
        }
      ],
      "name": "InvalidCatchRate",
      "type": "error"
    },
    {
      "inputs": [],
      "name": "InvalidInitialization",
      "type": "error"
    },
    {
      "inputs": [
        {
          "internalType": "uint8",
          "name": "slot",
          "type": "uint8"
        }
      ],
      "name": "InvalidPokemonSlot",
      "type": "error"
    },
    {
      "inputs": [],
      "name": "InvalidPrice",
      "type": "error"
    },
    {
      "inputs": [],
      "name": "NoFeesToWithdraw",
      "type": "error"
    },
    {
      "inputs": [],
      "name": "NoNFTAvailable",
      "type": "error"
    },
    {
      "inputs": [],
      "name": "NotInitializing",
      "type": "error"
    },
    {
      "inputs": [
        {
          "internalType": "address",
          "name": "owner",
          "type": "address"
        }
      ],
      "name": "OwnableInvalidOwner",
      "type": "error"
    },
    {
      "inputs": [
        {
          "internalType": "address",
          "name": "account",
          "type": "address"
        }
      ],
      "name": "OwnableUnauthorizedAccount",
      "type": "error"
    },
    {
      "inputs": [
        {
          "internalType": "uint256",
          "name": "pokemonId",
          "type": "uint256"
        }
      ],
      "name": "PokemonNotActive",
      "type": "error"
    },
    {
      "inputs": [
        {
          "internalType": "uint256",
          "name": "requested",
          "type": "uint256"
        },
        {
          "internalType": "uint256",
          "name": "maximum",
          "type": "uint256"
        }
      ],
      "name": "PurchaseExceedsMaximum",
      "type": "error"
    },
    {
      "inputs": [],
      "name": "ReentrancyGuardReentrantCall",
      "type": "error"
    },
    {
      "inputs": [
        {
          "internalType": "address",
          "name": "token",
          "type": "address"
        }
      ],
      "name": "SafeERC20FailedOperation",
      "type": "error"
    },
    {
      "inputs": [],
      "name": "SlabNFTManagerNotSet",
      "type": "error"
    },
    {
      "inputs": [
        {
          "internalType": "uint8",
          "name": "slot",
          "type": "uint8"
        }
      ],
      "name": "SlotOccupied",
      "type": "error"
    },
    {
      "inputs": [
        {
          "internalType": "uint256",
          "name": "requestId",
          "type": "uint256"
        }
      ],
      "name": "ThrowAlreadyResolved",
      "type": "error"
    },
    {
      "inputs": [
        {
          "internalType": "uint256",
          "name": "requestId",
          "type": "uint256"
        }
      ],
      "name": "ThrowNotFound",
      "type": "error"
    },
    {
      "inputs": [],
      "name": "TransferFailed",
      "type": "error"
    },
    {
      "inputs": [],
      "name": "UUPSUnauthorizedCallContext",
      "type": "error"
    },
    {
      "inputs": [
        {
          "internalType": "bytes32",
          "name": "slot",
          "type": "bytes32"
        }
      ],
      "name": "UUPSUnsupportedProxiableUUID",
      "type": "error"
    },
    {
      "inputs": [
        {
          "internalType": "address",
          "name": "caller",
          "type": "address"
        }
      ],
      "name": "UnauthorizedCallback",
      "type": "error"
    },
    {
      "inputs": [],
      "name": "ZeroAddress",
      "type": "error"
    },
    {
      "inputs": [],
      "name": "ZeroQuantity",
      "type": "error"
    },
    {
      "anonymous": false,
      "inputs": [
        {
          "indexed": false,
          "internalType": "address",
          "name": "recipient",
          "type": "address"
        },
        {
          "indexed": false,
          "internalType": "uint256",
          "name": "amount",
          "type": "uint256"
        }
      ],
      "name": "APEFeesWithdrawn",
      "type": "event"
    },
    {
      "anonymous": false,
      "inputs": [
        {
          "indexed": false,
          "internalType": "uint256",
          "name": "oldPrice",
          "type": "uint256"
        },
        {
          "indexed": false,
          "internalType": "uint256",
          "name": "newPrice",
          "type": "uint256"
        }
      ],
      "name": "APEPriceUpdated",
      "type": "event"
    },
    {
      "anonymous": false,
      "inputs": [
        {
          "indexed": true,
          "internalType": "uint8",
          "name": "ballType",
          "type": "uint8"
        },
        {
          "indexed": false,
          "internalType": "uint256",
          "name": "oldPrice",
          "type": "uint256"
        },
        {
          "indexed": false,
          "internalType": "uint256",
          "name": "newPrice",
          "type": "uint256"
        }
      ],
      "name": "BallPriceUpdated",
      "type": "event"
    },
    {
      "anonymous": false,
      "inputs": [
        {
          "indexed": true,
          "internalType": "address",
          "name": "buyer",
          "type": "address"
        },
        {
          "indexed": false,
          "internalType": "uint8",
          "name": "ballType",
          "type": "uint8"
        },
        {
          "indexed": false,
          "internalType": "uint256",
          "name": "quantity",
          "type": "uint256"
        },
        {
          "indexed": false,
          "internalType": "bool",
          "name": "usedAPE",
          "type": "bool"
        },
        {
          "indexed": false,
          "internalType": "uint256",
          "name": "totalAmount",
          "type": "uint256"
        }
      ],
      "name": "BallPurchased",
      "type": "event"
    },
    {
      "anonymous": false,
      "inputs": [
        {
          "indexed": true,
          "internalType": "uint8",
          "name": "ballType",
          "type": "uint8"
        },
        {
          "indexed": false,
          "internalType": "uint8",
          "name": "oldRate",
          "type": "uint8"
        },
        {
          "indexed": false,
          "internalType": "uint8",
          "name": "newRate",
          "type": "uint8"
        }
      ],
      "name": "CatchRateUpdated",
      "type": "event"
    },
    {
      "anonymous": false,
      "inputs": [
        {
          "indexed": true,
          "internalType": "address",
          "name": "catcher",
          "type": "address"
        },
        {
          "indexed": false,
          "internalType": "uint256",
          "name": "pokemonId",
          "type": "uint256"
        },
        {
          "indexed": false,
          "internalType": "uint256",
          "name": "nftTokenId",
          "type": "uint256"
        }
      ],
      "name": "CaughtPokemon",
      "type": "event"
    },
    {
      "anonymous": false,
      "inputs": [
        {
          "indexed": true,
          "internalType": "address",
          "name": "thrower",
          "type": "address"
        },
        {
          "indexed": false,
          "internalType": "uint256",
          "name": "pokemonId",
          "type": "uint256"
        },
        {
          "indexed": false,
          "internalType": "uint8",
          "name": "attemptsRemaining",
          "type": "uint8"
        }
      ],
      "name": "FailedCatch",
      "type": "event"
    },
    {
      "anonymous": false,
      "inputs": [
        {
          "indexed": false,
          "internalType": "address",
          "name": "recipient",
          "type": "address"
        },
        {
          "indexed": false,
          "internalType": "uint256",
          "name": "amount",
          "type": "uint256"
        }
      ],
      "name": "FeesWithdrawn",
      "type": "event"
    },
    {
      "anonymous": false,
      "inputs": [
        {
          "indexed": false,
          "internalType": "uint64",
          "name": "version",
          "type": "uint64"
        }
      ],
      "name": "Initialized",
      "type": "event"
    },
    {
      "anonymous": false,
      "inputs": [
        {
          "indexed": true,
          "internalType": "address",
          "name": "previousOwner",
          "type": "address"
        },
        {
          "indexed": true,
          "internalType": "address",
          "name": "newOwner",
          "type": "address"
        }
      ],
      "name": "OwnershipTransferred",
      "type": "event"
    },
    {
      "anonymous": false,
      "inputs": [
        {
          "indexed": false,
          "internalType": "address",
          "name": "account",
          "type": "address"
        }
      ],
      "name": "Paused",
      "type": "event"
    },
    {
      "anonymous": false,
      "inputs": [
        {
          "indexed": false,
          "internalType": "uint256",
          "name": "pokemonId",
          "type": "uint256"
        },
        {
          "indexed": false,
          "internalType": "uint256",
          "name": "newX",
          "type": "uint256"
        },
        {
          "indexed": false,
          "internalType": "uint256",
          "name": "newY",
          "type": "uint256"
        }
      ],
      "name": "PokemonRelocated",
      "type": "event"
    },
    {
      "anonymous": false,
      "inputs": [
        {
          "indexed": false,
          "internalType": "uint256",
          "name": "pokemonId",
          "type": "uint256"
        },
        {
          "indexed": false,
          "internalType": "uint256",
          "name": "positionX",
          "type": "uint256"
        },
        {
          "indexed": false,
          "internalType": "uint256",
          "name": "positionY",
          "type": "uint256"
        },
        {
          "indexed": false,
          "internalType": "uint8",
          "name": "slotIndex",
          "type": "uint8"
        }
      ],
      "name": "PokemonSpawned",
      "type": "event"
    },
    {
      "anonymous": false,
      "inputs": [
        {
          "indexed": true,
          "internalType": "uint256",
          "name": "requestId",
          "type": "uint256"
        },
        {
          "indexed": false,
          "internalType": "uint256",
          "name": "randomNumber",
          "type": "uint256"
        },
        {
          "indexed": false,
          "internalType": "bool",
          "name": "isSpawnRequest",
          "type": "bool"
        }
      ],
      "name": "RandomnessReceived",
      "type": "event"
    },
    {
      "anonymous": false,
      "inputs": [
        {
          "indexed": false,
          "internalType": "uint256",
          "name": "amount",
          "type": "uint256"
        }
      ],
      "name": "RevenueSentToManager",
      "type": "event"
    },
    {
      "anonymous": false,
      "inputs": [
        {
          "indexed": true,
          "internalType": "address",
          "name": "thrower",
          "type": "address"
        },
        {
          "indexed": false,
          "internalType": "uint256",
          "name": "pokemonId",
          "type": "uint256"
        },
        {
          "indexed": false,
          "internalType": "uint8",
          "name": "ballTier",
          "type": "uint8"
        },
        {
          "indexed": false,
          "internalType": "uint256",
          "name": "requestId",
          "type": "uint256"
        }
      ],
      "name": "ThrowAttempted",
      "type": "event"
    },
    {
      "anonymous": false,
      "inputs": [
        {
          "indexed": false,
          "internalType": "address",
          "name": "account",
          "type": "address"
        }
      ],
      "name": "Unpaused",
      "type": "event"
    },
    {
      "anonymous": false,
      "inputs": [
        {
          "indexed": true,
          "internalType": "address",
          "name": "implementation",
          "type": "address"
        }
      ],
      "name": "Upgraded",
      "type": "event"
    },
    {
      "anonymous": false,
      "inputs": [
        {
          "indexed": false,
          "internalType": "string",
          "name": "walletType",
          "type": "string"
        },
        {
          "indexed": false,
          "internalType": "address",
          "name": "oldAddress",
          "type": "address"
        },
        {
          "indexed": false,
          "internalType": "address",
          "name": "newAddress",
          "type": "address"
        }
      ],
      "name": "WalletUpdated",
      "type": "event"
    },
    {
      "inputs": [],
      "name": "APE_DECIMALS",
      "outputs": [
        {
          "internalType": "uint8",
          "name": "",
          "type": "uint8"
        }
      ],
      "stateMutability": "view",
      "type": "function"
    },
    {
      "inputs": [],
      "name": "BPS_DENOMINATOR",
      "outputs": [
        {
          "internalType": "uint256",
          "name": "",
          "type": "uint256"
        }
      ],
      "stateMutability": "view",
      "type": "function"
    },
    {
      "inputs": [],
      "name": "MAX_ACTIVE_POKEMON",
      "outputs": [
        {
          "internalType": "uint8",
          "name": "",
          "type": "uint8"
        }
      ],
      "stateMutability": "view",
      "type": "function"
    },
    {
      "inputs": [],
      "name": "MAX_COORDINATE",
      "outputs": [
        {
          "internalType": "uint256",
          "name": "",
          "type": "uint256"
        }
      ],
      "stateMutability": "view",
      "type": "function"
    },
    {
      "inputs": [],
      "name": "MAX_PURCHASE_USD",
      "outputs": [
        {
          "internalType": "uint256",
          "name": "",
          "type": "uint256"
        }
      ],
      "stateMutability": "view",
      "type": "function"
    },
    {
      "inputs": [],
      "name": "MAX_THROW_ATTEMPTS",
      "outputs": [
        {
          "internalType": "uint8",
          "name": "",
          "type": "uint8"
        }
      ],
      "stateMutability": "view",
      "type": "function"
    },
    {
      "inputs": [],
      "name": "PLATFORM_FEE_BPS",
      "outputs": [
        {
          "internalType": "uint256",
          "name": "",
          "type": "uint256"
        }
      ],
      "stateMutability": "view",
      "type": "function"
    },
    {
      "inputs": [],
      "name": "REVENUE_POOL_BPS",
      "outputs": [
        {
          "internalType": "uint256",
          "name": "",
          "type": "uint256"
        }
      ],
      "stateMutability": "view",
      "type": "function"
    },
    {
      "inputs": [],
      "name": "UPGRADE_INTERFACE_VERSION",
      "outputs": [
        {
          "internalType": "string",
          "name": "",
          "type": "string"
        }
      ],
      "stateMutability": "view",
      "type": "function"
    },
    {
      "inputs": [],
      "name": "USDC_DECIMALS",
      "outputs": [
        {
          "internalType": "uint8",
          "name": "",
          "type": "uint8"
        }
      ],
      "stateMutability": "view",
      "type": "function"
    },
    {
      "inputs": [],
      "name": "accumulatedAPEFees",
      "outputs": [
        {
          "internalType": "uint256",
          "name": "",
          "type": "uint256"
        }
      ],
      "stateMutability": "view",
      "type": "function"
    },
    {
      "inputs": [
        {
          "internalType": "uint256",
          "name": "",
          "type": "uint256"
        }
      ],
      "name": "activePokemons",
      "outputs": [
        {
          "internalType": "uint256",
          "name": "id",
          "type": "uint256"
        },
        {
          "internalType": "uint256",
          "name": "positionX",
          "type": "uint256"
        },
        {
          "internalType": "uint256",
          "name": "positionY",
          "type": "uint256"
        },
        {
          "internalType": "uint8",
          "name": "throwAttempts",
          "type": "uint8"
        },
        {
          "internalType": "bool",
          "name": "isActive",
          "type": "bool"
        },
        {
          "internalType": "uint256",
          "name": "spawnTime",
          "type": "uint256"
        }
      ],
      "stateMutability": "view",
      "type": "function"
    },
    {
      "inputs": [],
      "name": "ape",
      "outputs": [
        {
          "internalType": "contract IERC20",
          "name": "",
          "type": "address"
        }
      ],
      "stateMutability": "view",
      "type": "function"
    },
    {
      "inputs": [],
      "name": "apePriceUSD",
      "outputs": [
        {
          "internalType": "uint256",
          "name": "",
          "type": "uint256"
        }
      ],
      "stateMutability": "view",
      "type": "function"
    },
    {
      "inputs": [
        {
          "internalType": "enum PokeballGame.BallType",
          "name": "",
          "type": "uint8"
        }
      ],
      "name": "ballCatchRates",
      "outputs": [
        {
          "internalType": "uint8",
          "name": "",
          "type": "uint8"
        }
      ],
      "stateMutability": "view",
      "type": "function"
    },
    {
      "inputs": [
        {
          "internalType": "enum PokeballGame.BallType",
          "name": "",
          "type": "uint8"
        }
      ],
      "name": "ballPrices",
      "outputs": [
        {
          "internalType": "uint256",
          "name": "",
          "type": "uint256"
        }
      ],
      "stateMutability": "view",
      "type": "function"
    },
    {
      "inputs": [
        {
          "internalType": "uint256",
          "name": "usdcAmount",
          "type": "uint256"
        }
      ],
      "name": "calculateAPEAmount",
      "outputs": [
        {
          "internalType": "uint256",
          "name": "apeAmount",
          "type": "uint256"
        }
      ],
      "stateMutability": "view",
      "type": "function"
    },
    {
      "inputs": [
        {
          "internalType": "uint8",
          "name": "slot",
          "type": "uint8"
        }
      ],
      "name": "despawnPokemon",
      "outputs": [],
      "stateMutability": "nonpayable",
      "type": "function"
    },
    {
      "inputs": [
        {
          "internalType": "uint8",
          "name": "slot",
          "type": "uint8"
        },
        {
          "internalType": "uint256",
          "name": "posX",
          "type": "uint256"
        },
        {
          "internalType": "uint256",
          "name": "posY",
          "type": "uint256"
        }
      ],
      "name": "forceSpawnPokemon",
      "outputs": [],
      "stateMutability": "nonpayable",
      "type": "function"
    },
    {
      "inputs": [],
      "name": "getActivePokemonCount",
      "outputs": [
        {
          "internalType": "uint8",
          "name": "count",
          "type": "uint8"
        }
      ],
      "stateMutability": "view",
      "type": "function"
    },
    {
      "inputs": [],
      "name": "getActivePokemonSlots",
      "outputs": [
        {
          "internalType": "uint8[]",
          "name": "slots",
          "type": "uint8[]"
        }
      ],
      "stateMutability": "view",
      "type": "function"
    },
    {
      "inputs": [],
      "name": "getAllActivePokemons",
      "outputs": [
        {
          "components": [
            {
              "internalType": "uint256",
              "name": "id",
              "type": "uint256"
            },
            {
              "internalType": "uint256",
              "name": "positionX",
              "type": "uint256"
            },
            {
              "internalType": "uint256",
              "name": "positionY",
              "type": "uint256"
            },
            {
              "internalType": "uint8",
              "name": "throwAttempts",
              "type": "uint8"
            },
            {
              "internalType": "bool",
              "name": "isActive",
              "type": "bool"
            },
            {
              "internalType": "uint256",
              "name": "spawnTime",
              "type": "uint256"
            }
          ],
          "internalType": "struct PokeballGame.Pokemon[20]",
          "name": "pokemons",
          "type": "tuple[20]"
        }
      ],
      "stateMutability": "view",
      "type": "function"
    },
    {
      "inputs": [],
      "name": "getAllBallPrices",
      "outputs": [
        {
          "internalType": "uint256",
          "name": "pokeBallPrice",
          "type": "uint256"
        },
        {
          "internalType": "uint256",
          "name": "greatBallPrice",
          "type": "uint256"
        },
        {
          "internalType": "uint256",
          "name": "ultraBallPrice",
          "type": "uint256"
        },
        {
          "internalType": "uint256",
          "name": "masterBallPrice",
          "type": "uint256"
        }
      ],
      "stateMutability": "view",
      "type": "function"
    },
    {
      "inputs": [],
      "name": "getAllCatchRates",
      "outputs": [
        {
          "internalType": "uint8",
          "name": "pokeBallRate",
          "type": "uint8"
        },
        {
          "internalType": "uint8",
          "name": "greatBallRate",
          "type": "uint8"
        },
        {
          "internalType": "uint8",
          "name": "ultraBallRate",
          "type": "uint8"
        },
        {
          "internalType": "uint8",
          "name": "masterBallRate",
          "type": "uint8"
        }
      ],
      "stateMutability": "view",
      "type": "function"
    },
    {
      "inputs": [
        {
          "internalType": "address",
          "name": "player",
          "type": "address"
        }
      ],
      "name": "getAllPlayerBalls",
      "outputs": [
        {
          "internalType": "uint256",
          "name": "pokeBalls",
          "type": "uint256"
        },
        {
          "internalType": "uint256",
          "name": "greatBalls",
          "type": "uint256"
        },
        {
          "internalType": "uint256",
          "name": "ultraBalls",
          "type": "uint256"
        },
        {
          "internalType": "uint256",
          "name": "masterBalls",
          "type": "uint256"
        }
      ],
      "stateMutability": "view",
      "type": "function"
    },
    {
      "inputs": [
        {
          "internalType": "enum PokeballGame.BallType",
          "name": "ballType",
          "type": "uint8"
        }
      ],
      "name": "getBallPrice",
      "outputs": [
        {
          "internalType": "uint256",
          "name": "price",
          "type": "uint256"
        }
      ],
      "stateMutability": "view",
      "type": "function"
    },
    {
      "inputs": [
        {
          "internalType": "enum PokeballGame.BallType",
          "name": "ballType",
          "type": "uint8"
        }
      ],
      "name": "getCatchRate",
      "outputs": [
        {
          "internalType": "uint8",
          "name": "rate",
          "type": "uint8"
        }
      ],
      "stateMutability": "view",
      "type": "function"
    },
    {
      "inputs": [],
      "name": "getNFTInventoryCount",
      "outputs": [
        {
          "internalType": "uint256",
          "name": "count",
          "type": "uint256"
        }
      ],
      "stateMutability": "view",
      "type": "function"
    },
    {
      "inputs": [
        {
          "internalType": "uint256",
          "name": "requestId",
          "type": "uint256"
        }
      ],
      "name": "getPendingThrow",
      "outputs": [
        {
          "components": [
            {
              "internalType": "address",
              "name": "thrower",
              "type": "address"
            },
            {
              "internalType": "uint256",
              "name": "pokemonId",
              "type": "uint256"
            },
            {
              "internalType": "enum PokeballGame.BallType",
              "name": "ballType",
              "type": "uint8"
            },
            {
              "internalType": "uint256",
              "name": "timestamp",
              "type": "uint256"
            },
            {
              "internalType": "bool",
              "name": "resolved",
              "type": "bool"
            }
          ],
          "internalType": "struct PokeballGame.PendingThrow",
          "name": "",
          "type": "tuple"
        }
      ],
      "stateMutability": "view",
      "type": "function"
    },
    {
      "inputs": [
        {
          "internalType": "address",
          "name": "player",
          "type": "address"
        },
        {
          "internalType": "uint8",
          "name": "ballType",
          "type": "uint8"
        }
      ],
      "name": "getPlayerBallBalance",
      "outputs": [
        {
          "internalType": "uint256",
          "name": "quantity",
          "type": "uint256"
        }
      ],
      "stateMutability": "view",
      "type": "function"
    },
    {
      "inputs": [
        {
          "internalType": "uint8",
          "name": "slot",
          "type": "uint8"
        }
      ],
      "name": "getPokemon",
      "outputs": [
        {
          "components": [
            {
              "internalType": "uint256",
              "name": "id",
              "type": "uint256"
            },
            {
              "internalType": "uint256",
              "name": "positionX",
              "type": "uint256"
            },
            {
              "internalType": "uint256",
              "name": "positionY",
              "type": "uint256"
            },
            {
              "internalType": "uint8",
              "name": "throwAttempts",
              "type": "uint8"
            },
            {
              "internalType": "bool",
              "name": "isActive",
              "type": "bool"
            },
            {
              "internalType": "uint256",
              "name": "spawnTime",
              "type": "uint256"
            }
          ],
          "internalType": "struct PokeballGame.Pokemon",
          "name": "pokemon",
          "type": "tuple"
        }
      ],
      "stateMutability": "view",
      "type": "function"
    },
    {
      "inputs": [
        {
          "internalType": "address",
          "name": "_owner",
          "type": "address"
        },
        {
          "internalType": "address",
          "name": "_treasury",
          "type": "address"
        },
        {
          "internalType": "address",
          "name": "_nftRevenue",
          "type": "address"
        },
        {
          "internalType": "address",
          "name": "_usdce",
          "type": "address"
        },
        {
          "internalType": "address",
          "name": "_ape",
          "type": "address"
        },
        {
          "internalType": "address",
          "name": "_vrng",
          "type": "address"
        },
        {
          "internalType": "address",
          "name": "_slabNFT",
          "type": "address"
        },
        {
          "internalType": "uint256",
          "name": "_initialAPEPrice",
          "type": "uint256"
        }
      ],
      "name": "initialize",
      "outputs": [],
      "stateMutability": "nonpayable",
      "type": "function"
    },
    {
      "inputs": [],
      "name": "initializeV130",
      "outputs": [],
      "stateMutability": "nonpayable",
      "type": "function"
    },
    {
      "inputs": [],
      "name": "nextPokemonId",
      "outputs": [
        {
          "internalType": "uint256",
          "name": "",
          "type": "uint256"
        }
      ],
      "stateMutability": "view",
      "type": "function"
    },
    {
      "inputs": [],
      "name": "nftRevenueWallet",
      "outputs": [
        {
          "internalType": "address",
          "name": "",
          "type": "address"
        }
      ],
      "stateMutability": "view",
      "type": "function"
    },
    {
      "inputs": [],
      "name": "owner",
      "outputs": [
        {
          "internalType": "address",
          "name": "",
          "type": "address"
        }
      ],
      "stateMutability": "view",
      "type": "function"
    },
    {
      "inputs": [],
      "name": "pause",
      "outputs": [],
      "stateMutability": "nonpayable",
      "type": "function"
    },
    {
      "inputs": [],
      "name": "paused",
      "outputs": [
        {
          "internalType": "bool",
          "name": "",
          "type": "bool"
        }
      ],
      "stateMutability": "view",
      "type": "function"
    },
    {
      "inputs": [
        {
          "internalType": "uint256",
          "name": "",
          "type": "uint256"
        }
      ],
      "name": "pendingThrows",
      "outputs": [
        {
          "internalType": "address",
          "name": "thrower",
          "type": "address"
        },
        {
          "internalType": "uint256",
          "name": "pokemonId",
          "type": "uint256"
        },
        {
          "internalType": "enum PokeballGame.BallType",
          "name": "ballType",
          "type": "uint8"
        },
        {
          "internalType": "uint256",
          "name": "timestamp",
          "type": "uint256"
        },
        {
          "internalType": "bool",
          "name": "resolved",
          "type": "bool"
        }
      ],
      "stateMutability": "view",
      "type": "function"
    },
    {
      "inputs": [
        {
          "internalType": "address",
          "name": "",
          "type": "address"
        },
        {
          "internalType": "enum PokeballGame.BallType",
          "name": "",
          "type": "uint8"
        }
      ],
      "name": "playerBalls",
      "outputs": [
        {
          "internalType": "uint256",
          "name": "",
          "type": "uint256"
        }
      ],
      "stateMutability": "view",
      "type": "function"
    },
    {
      "inputs": [],
      "name": "proxiableUUID",
      "outputs": [
        {
          "internalType": "bytes32",
          "name": "",
          "type": "bytes32"
        }
      ],
      "stateMutability": "view",
      "type": "function"
    },
    {
      "inputs": [
        {
          "internalType": "uint8",
          "name": "ballType",
          "type": "uint8"
        },
        {
          "internalType": "uint256",
          "name": "quantity",
          "type": "uint256"
        },
        {
          "internalType": "bool",
          "name": "useAPE",
          "type": "bool"
        }
      ],
      "name": "purchaseBalls",
      "outputs": [],
      "stateMutability": "payable",
      "type": "function"
    },
    {
      "inputs": [
        {
          "internalType": "uint8",
          "name": "ballType",
          "type": "uint8"
        },
        {
          "internalType": "uint256",
          "name": "quantity",
          "type": "uint256"
        }
      ],
      "name": "purchaseBallsWithAPE",
      "outputs": [],
      "stateMutability": "payable",
      "type": "function"
    },
    {
      "inputs": [
        {
          "internalType": "uint8",
          "name": "ballType",
          "type": "uint8"
        },
        {
          "internalType": "uint256",
          "name": "quantity",
          "type": "uint256"
        }
      ],
      "name": "purchaseBallsWithUSDC",
      "outputs": [],
      "stateMutability": "nonpayable",
      "type": "function"
    },
    {
      "inputs": [
        {
          "internalType": "uint256",
          "name": "requestId",
          "type": "uint256"
        },
        {
          "internalType": "uint256",
          "name": "randomNumber",
          "type": "uint256"
        }
      ],
      "name": "randomNumberCallback",
      "outputs": [],
      "stateMutability": "nonpayable",
      "type": "function"
    },
    {
      "inputs": [],
      "name": "renounceOwnership",
      "outputs": [],
      "stateMutability": "nonpayable",
      "type": "function"
    },
    {
      "inputs": [
        {
          "internalType": "uint256",
          "name": "",
          "type": "uint256"
        }
      ],
      "name": "requestIdToTraceId",
      "outputs": [
        {
          "internalType": "uint256",
          "name": "",
          "type": "uint256"
        }
      ],
      "stateMutability": "view",
      "type": "function"
    },
    {
      "inputs": [],
      "name": "revertOnNoNFT",
      "outputs": [
        {
          "internalType": "bool",
          "name": "",
          "type": "bool"
        }
      ],
      "stateMutability": "view",
      "type": "function"
    },
    {
      "inputs": [
        {
          "internalType": "uint256",
          "name": "newPrice",
          "type": "uint256"
        }
      ],
      "name": "setAPEPrice",
      "outputs": [],
      "stateMutability": "nonpayable",
      "type": "function"
    },
    {
      "inputs": [
        {
          "internalType": "uint8",
          "name": "ballType",
          "type": "uint8"
        },
        {
          "internalType": "uint256",
          "name": "newPrice",
          "type": "uint256"
        }
      ],
      "name": "setBallPrice",
      "outputs": [],
      "stateMutability": "nonpayable",
      "type": "function"
    },
    {
      "inputs": [
        {
          "internalType": "uint8",
          "name": "ballType",
          "type": "uint8"
        },
        {
          "internalType": "uint8",
          "name": "newRate",
          "type": "uint8"
        }
      ],
      "name": "setCatchRate",
      "outputs": [],
      "stateMutability": "nonpayable",
      "type": "function"
    },
    {
      "inputs": [
        {
          "internalType": "address",
          "name": "newNFTRevenue",
          "type": "address"
        }
      ],
      "name": "setNFTRevenueWallet",
      "outputs": [],
      "stateMutability": "nonpayable",
      "type": "function"
    },
    {
      "inputs": [
        {
          "internalType": "address",
          "name": "newOwner",
          "type": "address"
        }
      ],
      "name": "setOwnerWallet",
      "outputs": [],
      "stateMutability": "nonpayable",
      "type": "function"
    },
    {
      "inputs": [
        {
          "internalType": "uint256",
          "name": "pokeBallPrice",
          "type": "uint256"
        },
        {
          "internalType": "uint256",
          "name": "greatBallPrice",
          "type": "uint256"
        },
        {
          "internalType": "uint256",
          "name": "ultraBallPrice",
          "type": "uint256"
        },
        {
          "internalType": "uint256",
          "name": "masterBallPrice",
          "type": "uint256"
        }
      ],
      "name": "setPricingConfig",
      "outputs": [],
      "stateMutability": "nonpayable",
      "type": "function"
    },
    {
      "inputs": [
        {
          "internalType": "bool",
          "name": "_revertOnNoNFT",
          "type": "bool"
        }
      ],
      "name": "setRevertOnNoNFT",
      "outputs": [],
      "stateMutability": "nonpayable",
      "type": "function"
    },
    {
      "inputs": [
        {
          "internalType": "address",
          "name": "_slabNFTManager",
          "type": "address"
        }
      ],
      "name": "setSlabNFTManager",
      "outputs": [],
      "stateMutability": "nonpayable",
      "type": "function"
    },
    {
      "inputs": [
        {
          "internalType": "address",
          "name": "newTreasury",
          "type": "address"
        }
      ],
      "name": "setTreasuryWallet",
      "outputs": [],
      "stateMutability": "nonpayable",
      "type": "function"
    },
    {
      "inputs": [],
      "name": "slabNFT",
      "outputs": [
        {
          "internalType": "contract IERC721",
          "name": "",
          "type": "address"
        }
      ],
      "stateMutability": "view",
      "type": "function"
    },
    {
      "inputs": [],
      "name": "slabNFTManager",
      "outputs": [
        {
          "internalType": "contract ISlabNFTManager",
          "name": "",
          "type": "address"
        }
      ],
      "stateMutability": "view",
      "type": "function"
    },
    {
      "inputs": [
        {
          "internalType": "uint8",
          "name": "slot",
          "type": "uint8"
        }
      ],
      "name": "spawnPokemon",
      "outputs": [],
      "stateMutability": "nonpayable",
      "type": "function"
    },
    {
      "inputs": [
        {
          "internalType": "uint8",
          "name": "pokemonSlot",
          "type": "uint8"
        },
        {
          "internalType": "uint8",
          "name": "ballType",
          "type": "uint8"
        }
      ],
      "name": "throwBall",
      "outputs": [
        {
          "internalType": "uint256",
          "name": "requestId",
          "type": "uint256"
        }
      ],
      "stateMutability": "nonpayable",
      "type": "function"
    },
    {
      "inputs": [],
      "name": "totalNFTsPurchased",
      "outputs": [
        {
          "internalType": "uint256",
          "name": "",
          "type": "uint256"
        }
      ],
      "stateMutability": "view",
      "type": "function"
    },
    {
      "inputs": [],
      "name": "totalPlatformFees",
      "outputs": [
        {
          "internalType": "uint256",
          "name": "",
          "type": "uint256"
        }
      ],
      "stateMutability": "view",
      "type": "function"
    },
    {
      "inputs": [],
      "name": "totalRevenuePool",
      "outputs": [
        {
          "internalType": "uint256",
          "name": "",
          "type": "uint256"
        }
      ],
      "stateMutability": "view",
      "type": "function"
    },
    {
      "inputs": [
        {
          "internalType": "address",
          "name": "newOwner",
          "type": "address"
        }
      ],
      "name": "transferOwnership",
      "outputs": [],
      "stateMutability": "nonpayable",
      "type": "function"
    },
    {
      "inputs": [],
      "name": "treasuryWallet",
      "outputs": [
        {
          "internalType": "address",
          "name": "",
          "type": "address"
        }
      ],
      "stateMutability": "view",
      "type": "function"
    },
    {
      "inputs": [],
      "name": "unpause",
      "outputs": [],
      "stateMutability": "nonpayable",
      "type": "function"
    },
    {
      "inputs": [
        {
          "internalType": "address",
          "name": "newImplementation",
          "type": "address"
        },
        {
          "internalType": "bytes",
          "name": "data",
          "type": "bytes"
        }
      ],
      "name": "upgradeToAndCall",
      "outputs": [],
      "stateMutability": "payable",
      "type": "function"
    },
    {
      "inputs": [],
      "name": "usdce",
      "outputs": [
        {
          "internalType": "contract IERC20",
          "name": "",
          "type": "address"
        }
      ],
      "stateMutability": "view",
      "type": "function"
    },
    {
      "inputs": [],
      "name": "vrng",
      "outputs": [
        {
          "internalType": "contract IPOPVRNG",
          "name": "",
          "type": "address"
        }
      ],
      "stateMutability": "view",
      "type": "function"
    },
    {
      "inputs": [],
      "name": "withdrawAPEFees",
      "outputs": [],
      "stateMutability": "nonpayable",
      "type": "function"
    },
    {
      "inputs": [],
      "name": "withdrawAllAPE",
      "outputs": [],
      "stateMutability": "nonpayable",
      "type": "function"
    },
    {
      "inputs": [],
      "name": "withdrawFees",
      "outputs": [],
      "stateMutability": "nonpayable",
      "type": "function"
    },
    {
      "stateMutability": "payable",
      "type": "receive"
    }
  ],
  "bytecode": "0x60a080604052346100ea57306080527ff0c57e16840df040f15088dc2f81fe391c3923bec73e23a9662efc9c229c6a005460ff8160401c166100d9576002600160401b03196001600160401b03821601610073575b604051613c2090816100f08239608051818181611c850152611d590152f35b6001600160401b0319166001600160401b039081177ff0c57e16840df040f15088dc2f81fe391c3923bec73e23a9662efc9c229c6a005581527fc7f505b2f371ae2175ee4913f4499e1f2633a7b5936321eed1cdaeb6115181d290602090a13880610054565b63f92ee8a960e01b60005260046000fd5b600080fdfe6080604052600436101561001b575b361561001957600080fd5b005b60003560e01c8063064c973c146129b95780630771197f146129605780630935c55714612916578063111bca7a146128dd578063116484221461261457806323b5cb5d1461253e578063248684901461247757806325c61fcd1461244e5780632795a90e146123e35780632de8f450146123c457806338efa831146123a85780633bd817151461238b5780633f4ba83a146123085780633f968f4a146121075780634129849f146120ec5780634626402b146120c3578063476343ee1461200657806349c729e614611f825780634c4e2a4614611ef55780634f1ef28614611cdc57806352d1902d14611c72578063539aa77f14611c555780635c975abb14611c25578063607c45d114611bca5780636213841414611ba157806364c618cc14611b78578063676db11d14611b445780636fea438d14611b1b578063715018a614611ab157806379babd2c14611a885780637a0b07cf1461198d5780637ed2f783146117785780637edc648c1461174c5780638456cb59146116d85780638761c142146116b557806388301911146113f45780638da5cb5b146113be5780638e101b18146113a05780638f561acc1461135a57806394ea04d114611249578063970cff93146112035780639b7d1a2a146111735780639fb769dd14611155578063a2afc373146110e6578063a8602fea1461105b578063a957b53914610fab578063ad3cb1cc14610f2f578063bb542ef014610ea1578063bf370a6114610e71578063c10c3f8314610db8578063c1419def14610d9c578063c5f5251114610cfa578063cc7a69de14610cdc578063cd6df42e14610c0c578063d257418314610bef578063d33953ba14610bc6578063d3631fa514610ba8578063d463afef14610ab8578063d9deb60b14610a9a578063e155d79e14610a7c578063e1a4521814610a5f578063e53b74c614610919578063e97cb6fd1461073b578063eb76c37e1461071f578063ee8b779e14610648578063efdf994914610615578063f2fde38b146105ec578063f37d84eb146105bb578063f4f000921461054c578063fa86b90b146104e0578063fc774c5c146104c4578063fcc536ba146103bb5763fe5c7ba80361000e57346103b65760203660031901126103b65761035c6129fd565b610364612eb2565b60ff811660148110156103a25750601481101561038c57600502600d01805461ff0019169055005b634e487b7160e01b600052603260045260246000fd5b63cba5131560e01b60005260045260246000fd5b600080fd5b346103b65760003660031901126103b6576102806040516103dc8282612a52565b60005b8281106104af5760405180840167ffffffffffffffff81118282101761049957604052600a6000825b6014821061047b57604051846000825b6014821061042657610f0084f35b602060c08261046f600194875160a0809180518452602081015160208501526040810151604085015260ff60608201511660608501526080810151151560808501520151910152565b01930191019091610418565b6005602060019261048b86612d50565b815201930191019091610408565b634e487b7160e01b600052604160045260246000fd5b6020906104ba612d1f565b81840152016103df565b346103b65760003660031901126103b657602060405160148152f35b346103b65760003660031901126103b6576000805b601460ff82161061050e5760208260ff60405191168152f35b601481101561038c5760ff600d60058302015460081c16610535575b60010160ff166104f5565b90600161054360ff92612dff565b9291505061052a565b346103b65760203660031901126103b657600435600052606f60205260a06040600020600180831b03815416906001810154906105ad60ff60028301541660ff60046003850154940154169360405195865260208601526040850190612a0d565b606083015215156080820152f35b346103b65760203660031901126103b65760043560048110156103b6576105e3602091612aa9565b54604051908152f35b346103b65760203660031901126103b6576100196106086129d7565b610610612eb2565b612e84565b346103b65760203660031901126103b65760043560048110156103b65761063d602091612e28565b60ff60405191168152f35b346103b65760403660031901126103b6576106616129fd565b60ff6024359161066f612eb2565b16906003821161070a5780156106fa576302f969e081116106de5760048210156106c8576040600080516020613b6b833981519152916106ae84612aa9565b5490806106ba86612aa9565b5582519182526020820152a2005b634e487b7160e01b600052602160045260246000fd5b63572dac3f60e01b6000526004526302f969e060245260446000fd5b62bfc92160e01b60005260046000fd5b5063fab9b83760e01b60005260045260246000fd5b346103b65760003660031901126103b657602060405160038152f35b60403660031901126103b65761074f6129fd565b60243561075a612ee8565b610762612f24565b80156109085760ff8216906003821161070a5760048210156106c8576107908161078b84612d9c565b612ada565b906302f969e082116108eb576107a582612aed565b918234106108d25761012c81029080820461012c14901517156108bc5761012c83029083820461012c14841517156108bc576107f8916107ec612710809304600754612c10565b60075504607754612c10565b6077556108058234612b77565b8061088e575b506108447fa89bfe414137486dafff331717fbfdd7b10ad23757ea0f39f7666e906afe235d933360005260096020526040600020612ac2565b61084f828254612c10565b90556040805160ff909516855260208501919091526001908401526060830152339180608081015b0390a26001600080516020613bab83398151915255005b600080808093335af161089f612b47565b50156108ab578461080b565b6374987b8d60e01b60005260046000fd5b634e487b7160e01b600052601160045260246000fd5b82630f05566560e01b6000526004523460245260446000fd5b5063572dac3f60e01b6000526004526302f969e060245260446000fd5b63f4f5b73360e01b60005260046000fd5b346103b65760003660031901126103b6576000805b601460ff821610610a215760ff821661095f61094982612e10565b916109576040519384612a52565b808352612e10565b602082019190601f190136833760009060005b60ff811660148110156109d957601482101561038c5760ff600d60058402015460081c166109a7575b5060010160ff16610972565b90926109b281612dff565b93835160ff8316101561038c5760ff926020611fe060019460051b1686010152915061099b565b84836040519182916020830190602084525180915260408301919060005b818110610a05575050500390f35b825160ff168452859450602093840193909201916001016109f7565b601481101561038c5760ff600d60058302015460081c16610a48575b60010160ff1661092e565b906001610a5660ff92612dff565b92915050610a3d565b346103b65760003660031901126103b65760206040516127108152f35b346103b65760003660031901126103b6576020600854604051908152f35b346103b65760003660031901126103b6576020606e54604051908152f35b346103b65760403660031901126103b657610ad16129fd565b60243590610add612ee8565b610ae5612f24565b81156109085760ff81169160038311610b935760048310156106c857610b0e8161078b85612d9c565b906302f969e082116108eb57610b5c7fa89bfe414137486dafff331717fbfdd7b10ad23757ea0f39f7666e906afe235d9394610b49846135c3565b3360005260096020526040600020612ac2565b610b67828254612c10565b90556040805160ff90951685526020850191909152600090840152606083015233918060808101610877565b8263fab9b83760e01b60005260045260246000fd5b346103b65760003660031901126103b6576020600754604051908152f35b346103b65760003660031901126103b6576000546040516001600160a01b039091168152602090f35b346103b65760003660031901126103b65760206040516103e78152f35b346103b65760003660031901126103b657607560209081527ff9e3fbf150b7a0077118526f473c53cb4734f166167e2c6213e3567dd390b4ad547feb79622860583465ba0fa298cf2c34dc562a8c4a7eddc9cb6176342e350cc839547fdc08680627f0b0cb5718e90926933771ea0631efb027fa6786b4fde70f48bba75460036000527f54c599a54559426aa0f952ea1a1b5b5cb37d0b2411a1de77e2a8c2af92705eaa546040805160ff9586168152938516958401959095529083169382019390935291166060820152608090f35b346103b65760003660031901126103b6576020607254604051908152f35b346103b65760203660031901126103b657610d136129d7565b610d1b612eb2565b6001600160a01b03168015610d8b5760a0600080516020613b4b8339815191529160735490806001600160601b03841b8316176073556040519160608352600e60608401526d39b630b127232a26b0b730b3b2b960911b6080840152600180851b031660208301526040820152a1005b63d92e233d60e01b60005260046000fd5b346103b65760003660031901126103b657602060405160068152f35b346103b65760003660031901126103b657610dd1612eb2565b610dd9612ee8565b478015610e6057600060775560008080808460018060a01b03600454165af1610e00612b47565b50156108ab57600454604080516001600160a01b03909216825260208201929092527f7697688f5b60091c6b13ffe82ec02eea4d5aa1ca7e8ba5a9042c116c57e2fb2291819081015b0390a16001600080516020613bab83398151915255005b630d00db4d60e31b60005260046000fd5b346103b65760203660031901126103b65760043560048110156103b657610e99602091612d9c565b604051908152f35b346103b65760203660031901126103b657610eba6129d7565b610ec2612eb2565b6001600160a01b0381168015610d8b57600080516020613b4b8339815191529160a091610f05600180851b03600080516020613b0b8339815191525416926130aa565b6040519160608352600560608401526437bbb732b960d91b608084015260208301526040820152a1005b346103b65760003660031901126103b6576040805190610f4f8183612a52565b60058252640352e302e360dc1b6020830152805180926020825280519081602084015260005b828110610f945750506000828201840152601f01601f19168101030190f35b602082820181015187830187015286945001610f75565b346103b65760403660031901126103b657610fc46129fd565b60ff610fce6129ed565b91610fd7612eb2565b16906003821161070a5760ff16606481116110475760048210156106c85760407fbb6d93b2129fb3ef8cd6bec4b4f7ded1e50f1c845cf9a9620c759ccbdc5d17679160ff61102485612a90565b54169061103085612a90565b805460ff19168217905582519182526020820152a2005b63026291af60e31b60005260045260246000fd5b346103b65760203660031901126103b6576110746129d7565b61107c612eb2565b6001600160a01b03168015610d8b5760a0600080516020613b4b8339815191529160045490806001600160601b03841b83161760045560405191606083526008606084015267747265617375727960c01b6080840152600180851b031660208301526040820152a1005b346103b65760203660031901126103b6576001600160a01b036111076129d7565b16600090815260096020908152604080832083805282528083205460018452818420546002855282852054600386529483902054835192835293820152908101929092526060820152608090f35b346103b65760003660031901126103b6576020600654604051908152f35b346103b65760203660031901126103b65761118c6129fd565b611194612d1f565b5060ff811660148110156103a25750601481101561038c576111bd600560c09202600a01612d50565b611201604051809260a0809180518452602081015160208501526040810151604085015260ff60608201511660608501526080810151151560808501520151910152565bf35b346103b65760403660031901126103b65761121c6129d7565b6024359060048210156103b6576020916105e39160018060a01b0316600052600983526040600020612ac2565b60603660031901126103b65761125d6129fd565b60243560443580151581036103b657611274612ee8565b61127c612f24565b156112be5780156109085760ff8216906003821161070a5760048210156106c8576107908161078b84612d9c565b6001600080516020613bab83398151915255005b9081156109085760ff81169160038311610b935760048310156106c8576112e88161078b85612d9c565b906302f969e082116108eb576113237fa89bfe414137486dafff331717fbfdd7b10ad23757ea0f39f7666e906afe235d9394610b49846135c3565b61132e828254612c10565b90556040805160ff959095168552602085019190915260009084015260608301523391608090a26112aa565b346103b65760403660031901126103b6576002546001600160a01b0316330361138b57610019602435600435612c70565b635a1c6a5960e01b6000523360045260246000fd5b346103b65760003660031901126103b6576020607754604051908152f35b346103b65760003660031901126103b657600080516020613b0b833981519152546040516001600160a01b039091168152602090f35b346103b6576101003660031901126103b65761140e6129d7565b6024356001600160a01b038116908190036103b6576044356001600160a01b038116908190036103b6576064356001600160a01b03811692908390036103b6576084356001600160a01b038116908190036103b65760a4356001600160a01b038116908190036103b65760c4356001600160a01b03811692908390036103b65760e43595600080516020613bcb833981519152549760ff8960401c16159867ffffffffffffffff8116801590816116ad575b60011490816116a3575b15908161169a575b506116895767ffffffffffffffff198116600117600080516020613bcb833981519152558961165c575b506001600160a01b03811615610d8b578515610d8b578615610d8b578115610d8b578315610d8b578415610d8b5787156106fa576115449061153c613a1f565b610610613a1f565b61154c613a1f565b611554613a1f565b61155c613a1f565b6001600080516020613bab83398151915255611576613a1f565b6001600160601b0360a01b60005416176000556001600160601b0360a01b60015416176001556001600160601b0360a01b60025416176002556001600160601b0360a01b60035416176003556001600160601b0360a01b60045416176004556001600160601b0360a01b60055416176005556072556001606e5560016071556115fd612f4e565b61160357005b68ff000000000000000019600080516020613bcb8339815191525416600080516020613bcb833981519152557fc7f505b2f371ae2175ee4913f4499e1f2633a7b5936321eed1cdaeb6115181d2602060405160018152a1005b68ffffffffffffffffff19166801000000000000000117600080516020613bcb83398151915255896114fc565b63f92ee8a960e01b60005260046000fd5b9050158b6114d2565b303b1591506114ca565b8b91506114c0565b346103b65760003660031901126103b657602060ff607654166040519015158152f35b346103b65760003660031901126103b6576116f1612eb2565b6116f9612f24565b600160ff19600080516020613b8b833981519152541617600080516020613b8b833981519152557f62e78cea01bee320cd4e420270b5ea74000d11b0c9f74754ebdbfc544b05a2586020604051338152a1005b346103b65760203660031901126103b65760043560005260706020526020604060002054604051908152f35b346103b65760203660031901126103b6576117916129fd565b611799612eb2565b60ff811690601482101561197857601481101561038c57600502600d015460081c60ff1661196457606e54906117ce82612c01565b606e5560006071546117df81612c01565b60715560405160208101916001600160601b03193060601b16835285603483015260ff60f81b6054830152426055830152607582015260758152611824609582612a52565b51902091602060018060a01b03600254166024604051809581936371c8a23960e11b83528860048401525af191821561195857600092611921575b5060048110156106c85760405161187581612a1a565b3081526020810194855261188d604082019283612b84565b4260608201908152600060808301818152858252606f6020526040909120925183546001600160a01b0319166001600160a01b039190911617835595516001830155915194600282019060048710156106c8576119129360049260009860ff8019835416911617905551600384015551151591019060ff801983541691151516179055565b82526070602052604082205580f35b90916020823d602011611950575b8161193c60209383612a52565b8101031261194d575051908461185f565b80fd5b3d915061192f565b6040513d6000823e3d90fd5b632f8ecec960e21b60005260045260246000fd5b5063cba5131560e01b60005260045260246000fd5b346103b65760603660031901126103b6576119a66129fd565b6119ae612eb2565b60ff811690601482101561197857601481101561038c57600581029160ff600d84015460081c1661196457507f156f6fef57e34329718d6efbd41f31a81afd51d967d24f97b94eb576dca20cfe90606e54611a0881612c01565b606e55611a826103e860243506926103e860443506611a5a604051611a2c81612a36565b85815286602082015282604082015260006060820152600160808201524260a0820152600098600a01612c1d565b60405194859485929360ff919594606093608086019786526020860152604085015216910152565b0390a180f35b346103b65760003660031901126103b6576001546040516001600160a01b039091168152602090f35b346103b65760003660031901126103b657611aca612eb2565b600080516020613b0b83398151915280546001600160a01b031981169091556000906001600160a01b03167f8be0079c531659141344cd1fd0a4f28419497f9722a3daafe3b4186f6b6457e08280a3005b346103b65760003660031901126103b6576073546040516001600160a01b039091168152602090f35b346103b65760203660031901126103b65760043560048110156103b65760ff611b6e602092612a90565b5416604051908152f35b346103b65760003660031901126103b6576005546040516001600160a01b039091168152602090f35b346103b65760003660031901126103b6576002546040516001600160a01b039091168152602090f35b346103b65760203660031901126103b657600435611be6612eb2565b80156106fa5760407fc401b47db6ec4c8671a2f54cf3a5f3f7069c3b71b6c6ad9ed90f2c8cc9920b6a91607254908060725582519182526020820152a1005b346103b65760003660031901126103b657602060ff600080516020613b8b83398151915254166040519015158152f35b346103b65760003660031901126103b657602060405161012c8152f35b346103b65760003660031901126103b6577f00000000000000000000000000000000000000000000000000000000000000006001600160a01b03163003611ccb576020604051600080516020613b2b8339815191528152f35b63703e46dd60e11b60005260046000fd5b60403660031901126103b657611cf06129d7565b6024359067ffffffffffffffff82116103b657366023830112156103b657816004013590611d1d82612a74565b91611d2b6040519384612a52565b808352602083019336602483830101116103b657816000926024602093018737840101526001600160a01b037f000000000000000000000000000000000000000000000000000000000000000016308114908115611ed2575b50611ccb57611d91612eb2565b6040516352d1902d60e01b81526001600160a01b0382169390602081600481885afa60009181611e9e575b50611dd65784634c9c8ce360e01b60005260045260246000fd5b80600080516020613b2b833981519152869203611e8a5750823b15611e7657600080516020613b2b83398151915280546001600160a01b031916821790557fbc7cd75a20ee27fd9adebab32041f755214dbc6bffa90cc0225b39da2e5c2d3b600080a2825115611e5b5760008091610019945190845af4611e55612b47565b91613aa9565b50505034611e6557005b63b398979f60e01b60005260046000fd5b634c9c8ce360e01b60005260045260246000fd5b632a87526960e21b60005260045260246000fd5b9091506020813d602011611eca575b81611eba60209383612a52565b810103126103b657519086611dbc565b3d9150611ead565b600080516020613b2b833981519152546001600160a01b03161415905084611d84565b346103b65760203660031901126103b657611f0e6129d7565b611f16612eb2565b6001600160a01b03168015610d8b5760a0600080516020613b4b8339815191529160055490806001600160601b03841b8316176005556040519160608352600a6060840152696e6674526576656e756560b01b6080840152600180851b031660208301526040820152a1005b346103b65760003660031901126103b657611f9b612eb2565b60ff60765460081c16611fc157611fb0612f4e565b6076805461ff001916610100179055005b60405162461bcd60e51b815260206004820152601a60248201527f56312e332e3020616c726561647920696e697469616c697a65640000000000006044820152606490fd5b346103b65760003660031901126103b65761201f612eb2565b612027612ee8565b6007548015610e6057600060078190555460045460405163a9059cbb60e01b60208201526001600160a01b039182166024820152604480820185905281527fc0819c13be868895eb93e40eaceb96de976442fa1d404e5c55f14bb65a8c489a939261209d9216612098606483612a52565b6139c4565b600454604080516001600160a01b03909216825260208201929092529081908101610e49565b346103b65760003660031901126103b6576004546040516001600160a01b039091168152602090f35b346103b65760003660031901126103b6576020610e99612b90565b346103b65760803660031901126103b65760643560443560243560043561212c612eb2565b80158015612300575b80156122f8575b80156122f0575b6106fa576302f969e081116106de576302f969e082116108eb576302f969e083116122d3576302f969e084116122b6576000600080516020613b6b83398151915260408083808052607460205220548151908152846020820152a26001600080516020613b6b8339815191526040806000848152607460205220548151908152856020820152a26002600080516020613b6b8339815191526040806000848152607460205220548151908152866020820152a26003600080516020613b6b8339815191526040806000848152607460205220548151908152876020820152a260746020527fccdf39d850e26d5964b24c5391eecfa7a13a375488d6de2101d279419f39a537557ff83d01c2b52626dc3c2e1555c273eea8900424c2c33f28b73359c960ee7130c1557f6682ec7d01f27599ce789688f09278cfefbe231146e0a71df5d9a69d5a0414f95560036000527f2727f07e5197d97fe18fb9ccc0d66458914dc7168b5c9ef06b237a6115a2dc1d55005b8363572dac3f60e01b6000526004526302f969e060245260446000fd5b8263572dac3f60e01b6000526004526302f969e060245260446000fd5b508315612143565b50821561213c565b508115612135565b346103b65760003660031901126103b657612321612eb2565b600080516020613b8b8339815191525460ff81161561237a5760ff1916600080516020613b8b833981519152557f5db9ee0a495bf2e6ff9c91a7834c1ba4fdd244a5e8aa4e537bd38aeae4b073aa6020604051338152a1005b638dfc202b60e01b60005260046000fd5b346103b65760003660031901126103b65760206040516125e48152f35b346103b65760003660031901126103b657602060405160128152f35b346103b65760003660031901126103b65760206040516302f969e08152f35b346103b65760203660031901126103b65760043560148110156103b657600560c0910280600a01549060ff600b82015491600c810154600e600d8301549201549360405195865260208601526040850152818116606085015260081c161515608083015260a0820152f35b346103b65760003660031901126103b6576003546040516001600160a01b039091168152602090f35b346103b65760003660031901126103b657607460209081527fccdf39d850e26d5964b24c5391eecfa7a13a375488d6de2101d279419f39a537547ff83d01c2b52626dc3c2e1555c273eea8900424c2c33f28b73359c960ee7130c1547f6682ec7d01f27599ce789688f09278cfefbe231146e0a71df5d9a69d5a0414f95460036000527f2727f07e5197d97fe18fb9ccc0d66458914dc7168b5c9ef06b237a6115a2dc1d546040805194855294840192909252928201929092526060810191909152608090f35b346103b65760203660031901126103b6576000608060405161255f81612a1a565b8281528260208201528260408201528260608201520152600435600052606f60205260a060406000206040519061259582612a1a565b600180841b0381541682526001810154906020830191825261260460ff6002830154166125c6604086019182612b84565b60ff6004600385015494606088019586520154169360808601941515855260405195600180891b039051168652516020860152516040850190612a0d565b5160608301525115156080820152f35b346103b65760403660031901126103b65761262d6129fd565b6126356129ed565b61263d612ee8565b612645612f24565b60ff821660148110156103a2575060ff81169160038311610b9357601481101561038c576005029160ff600d84600a0194015460081c16156128c75760048110156106c8573360005260096020526126a1816040600020612ac2565b54156128a9573360005260096020526126be816040600020612ac2565b91825460001981019081116108bc57600093558354906071546126e081612c01565b6071556040519160208301936001600160601b03193360601b168552603484015260ff60f81b9060f81b16605483015242605583015260758201526075815261272a609582612a52565b51902092602060018060a01b03600254166024604051809681936371c8a23960e11b83528960048401525af192831561195857600093612875575b5080549360405161277581612a1a565b33815260208101958652604081019061278e8583612b84565b4260608201908152600060808301818152888252606f6020526040909120925183546001600160a01b0319166001600160a01b0391909116178355975160018301559151919660028201929060048210156106c8576020986128159460049360ff8019835416911617905551600384015551151591019060ff801983541691151516179055565b83600052607085526040600020555490604051918252838201528160408201527f5e0c015d137a94a9e864e17092fb126241c929614b46c3bc32163b46de9bf05b60603392a26001600080516020613bab83398151915255604051908152f35b90926020823d6020116128a1575b8161289060209383612a52565b8101031261194d5750519184612765565b3d9150612883565b639f27773f60e01b6000526004526001602452600060445260646000fd5b82546332c3e47160e21b60005260045260246000fd5b346103b65760203660031901126103b6576004358015158091036103b657612903612eb2565b60ff801960765416911617607655600080f35b346103b65760003660031901126103b65761292f612eb2565b612937612ee8565b6077548015610e6057600060775560008080808460018060a01b03600454165af1610e00612b47565b346103b65760403660031901126103b6576129796129d7565b60ff6129836129ed565b16906003821161070a576001600160a01b0316600090815260096020526040902060048210156106c8576020916105e391612ac2565b346103b65760203660031901126103b6576020610e99600435612aed565b600435906001600160a01b03821682036103b657565b6024359060ff821682036103b657565b6004359060ff821682036103b657565b9060048210156106c85752565b60a0810190811067ffffffffffffffff82111761049957604052565b60c0810190811067ffffffffffffffff82111761049957604052565b90601f8019910116810190811067ffffffffffffffff82111761049957604052565b67ffffffffffffffff811161049957601f01601f191660200190565b60048110156106c8576000526075602052604060002090565b60048110156106c8576000526074602052604060002090565b9060048110156106c857600052602052604060002090565b818102929181159184041417156108bc57565b6072548015612b3b57905b68056bc75e2d6310000081029080820468056bc75e2d6310000014901517156108bc578115612b25570490565b634e487b7160e01b600052601260045260246000fd5b506303d0900090612af8565b3d15612b72573d90612b5882612a74565b91612b666040519384612a52565b82523d6000602084013e565b606090565b919082039182116108bc57565b60048210156106c85752565b6073546001600160a01b03168015612bfb57602060049160405192838092630579ef8b60e51b82525afa90811561195857600091612bcc575090565b90506020813d602011612bf3575b81612be760209383612a52565b810103126103b6575190565b3d9150612bda565b50600090565b60001981146108bc5760010190565b919082018092116108bc57565b8151815560208201516001820155604082015160028201556060820151600382018054608085015161ff0090151560081b1660ff90931661ffff199091161791909117905560a090910151600490910155565b6000818152606f602052604090208054909291906001600160a01b03168015612d0a5760048401805460ff8116612cf55760019060ff19161790553014907f1a938f65e4c6937f53440d5c5092d2cc6a2605276a3f59c370afd6f8c872610660408051858152846020820152a2612cec57612cea916131e2565b565b612cea91613100565b83633f8cbced60e21b60005260045260246000fd5b5063098354e960e41b60005260045260246000fd5b60405190612d2c82612a36565b600060a0838281528260208201528260408201528260608201528260808201520152565b90604051612d5d81612a36565b60a06004829480548452600181015460208501526002810154604085015260ff6003820154818116606087015260081c16151560808501520154910152565b612da581612aa9565b54908115612db1575090565b60048110156106c8578015612df65760018114612ded5760028114612de357600314612dda5790565b506302f969e090565b505063017d784090565b50506298968090565b5050620f424090565b60ff1660ff81146108bc5760010190565b67ffffffffffffffff81116104995760051b60200190565b60ff612e3382612a90565b5416908115612e40575090565b60048110156106c8578015612e7d5760018114612e765760028114612e6f57600314612e695790565b50606390565b5050603290565b5050601490565b5050600290565b6001600160a01b03811615612e9c57612cea906130aa565b631e4fbdf760e01b600052600060045260246000fd5b600080516020613b0b833981519152546001600160a01b03163303612ed357565b63118cdaa760e01b6000523360045260246000fd5b6002600080516020613bab8339815191525414612f13576002600080516020613bab83398151915255565b633ee5aeb560e01b60005260046000fd5b60ff600080516020613b8b8339815191525416612f3d57565b63d93c066560e01b60005260046000fd5b620f42407fccdf39d850e26d5964b24c5391eecfa7a13a375488d6de2101d279419f39a53755629896807ff83d01c2b52626dc3c2e1555c273eea8900424c2c33f28b73359c960ee7130c15563017d78407f6682ec7d01f27599ce789688f09278cfefbe231146e0a71df5d9a69d5a0414f9556302f969e07f2727f07e5197d97fe18fb9ccc0d66458914dc7168b5c9ef06b237a6115a2dc1d5560756020527ff9e3fbf150b7a0077118526f473c53cb4734f166167e2c6213e3567dd390b4ad805460ff199081166002179091557feb79622860583465ba0fa298cf2c34dc562a8c4a7eddc9cb6176342e350cc8398054821660141790557fdc08680627f0b0cb5718e90926933771ea0631efb027fa6786b4fde70f48bba780548216603217905560036000527f54c599a54559426aa0f952ea1a1b5b5cb37d0b2411a1de77e2a8c2af92705eaa805482166063179055607680549091169055565b600080516020613b0b83398151915280546001600160a01b039283166001600160a01b0319821681179092559091167f8be0079c531659141344cd1fd0a4f28419497f9722a3daafe3b4186f6b6457e0600080a3565b9060ff6002830154169160048310156106c85760148310156131dd576000600584029360ff600d86015460081c166131d6577f156f6fef57e34329718d6efbd41f31a81afd51d967d24f97b94eb576dca20cfe946131a7836131d1945060016103e88089069860801c069601928354916040519261317d84612a36565b8352886020840152876040840152806060840152600160808401524260a084015250600a01612c1d565b549260405194859485929360ff919594606093608086019786526020860152604085015216910152565b0390a1565b5050505050565b505050565b6131ef6001820154613a4d565b92901580156135a5575b6131dd57601483101561038c57600583029182600a019160ff61322181600285015416612e28565b166064820610156134bf5750549054600d92909201805461ff00191690556073546001600160a01b03918216916000911680613420575b5060407fe1ef7825c332c25296359d37af815442cbd1fd6d620d8271b4180bd68f834bb0918151908582526020820152a26103e881018091116108bc576000906071546132a481612c01565b60715560405160208101916001600160601b03193060601b168352836034830152607f60f91b60548301524260558301526075820152607581526132e9609582612a52565b51902092602060018060a01b03600254166024604051809681936371c8a23960e11b83528960048401525af1928315611958576000936133eb575b5060ff169060048210156106c8576040519061333f82612a1a565b30825260208201908152613357604083019384612b84565b4260608301908152600060808401818152868252606f6020526040909120935184546001600160a01b0319166001600160a01b0391909116178455915160018401559251600283019390919060048310156106c8576133db9460049360ff8019835416911617905551600384015551151591019060ff801983541691151516179055565b6000526070602052604060002055565b90926020823d602011613418575b8161340660209383612a52565b8101031261194d5750519160ff613324565b3d91506133f9565b602082916024604051809481936378b5aa8f60e01b83528860048401525af19182156134b357809261347e575b5050801580613472575b6134615738613258565b633684ae4560e01b60005260046000fd5b5060ff60765416613457565b9091506020823d6020116134ab575b8161349a60209383612a52565b8101031261194d575051388061344d565b3d915061348d565b604051903d90823e3d90fd5b91935060018060a01b0390541691600d81019260ff6134e081865416612dff565b1660ff1985541617845560ff845416806003039160ff83116108bc577fde2c7625951ef209e3b14dc5de7c713aaf12a680817df0ba922f064834ed47e4604060039460ff8a54918351928352166020820152a21015613540575b50505050565b7f991f141b1f67192a98969cd4005f41d17ef23a517c6975606af1c6f48a0ae37d93606093600c926103e8808660081c069560101c06938186600b87940155015560ff198154169055549160405192835260208301526040820152a13880808061353a565b50601483101561038c5760ff600d60058502015460081c16156131f9565b60008054604051636eb1769f60e11b81523360048201523060248201526001600160a01b0390911690602081604481855afa90811561396d578391613992575b5083811061397857506040516370a0823160e01b8152336004820152602081602481855afa90811561396d578391613937575b5083811061391d57506040516323b872dd60e01b60208201523360248201523060448201526064808201859052815261367491612098608483612a52565b61012c820282810461012c14831517156139095761369a6127106136a392048094612b77565b92600754612c10565b6007556073546001600160a01b031680151580613900575b6136c457505050565b8154604051636eb1769f60e11b81523060048201526001600160a01b03838116602483015290911690602081604481855afa80156138f557859085906138bb575b61370f9250612c10565b60405163095ea7b360e01b60208083019182526001600160a01b038616602484015260448084019490945292825290929190859061374e606486612a52565b84519082855af184513d8261389f575b50501561385f575b50506073546001600160a01b03169050803b156138385781809160246040518094819363bc1ca3e960e01b83528860048401525af1801561384457829061384f575b60735460408051636c14397f60e11b8152935091839160049183916001600160a01b03165af1801561384457613808575b505060207f6a35e7a759100d73c502119478cb5ae1ca768bbe0205d011ed3b0f76c59207a891604051908152a1565b6040813d60401161383c575b8161382160409383612a52565b8101031261383857518015150361194d57806137d9565b5080fd5b3d9150613814565b6040513d84823e3d90fd5b61385891612a52565b38816137a8565b612098613897936040519063095ea7b360e01b6020830152602482015285604482015260448152613891606482612a52565b826139c4565b388080613766565b9091506138b35750803b15155b388061375e565b6001146138ac565b50506020813d6020116138ed575b816138d660209383612a52565b810103126138e9578461370f9151613705565b8380fd5b3d91506138c9565b6040513d86823e3d90fd5b508215156136bb565b634e487b7160e01b82526011600452602482fd5b909260649363db42144d60e01b8452600452602452604452fd5b90506020813d602011613965575b8161395260209383612a52565b81010312613961575138613636565b8280fd5b3d9150613945565b6040513d85823e3d90fd5b9092606493630c95cf2760e11b8452600452602452604452fd5b90506020813d6020116139bc575b816139ad60209383612a52565b81010312613961575138613603565b3d91506139a0565b906000602091828151910182855af115611958576000513d613a1657506001600160a01b0381163b155b6139f55750565b635274afe760e01b60009081526001600160a01b0391909116600452602490fd5b600114156139ee565b60ff600080516020613bcb8339815191525460401c1615613a3c57565b631afcd79f60e31b60005260046000fd5b9060005b601460ff821610613a655750600091508190565b601481101561038c57600581028381600a0154149081613a97575b50613a905760010160ff16613a51565b6001925090565b60ff9150600d015460081c1638613a80565b90613acf5750805115613abe57602081519101fd5b63d6bda27560e01b60005260046000fd5b81511580613b01575b613ae0575090565b639996b31560e01b60009081526001600160a01b0391909116600452602490fd5b50803b15613ad856fe9016d09d72d40fdae2fd8ceac6b6234c7706214fd39c1cd1e609a0528c199300360894a13ba1a3210667c828492db98dca3e2076cc3735a920a3ca505d382bbcd8e98bff5ae8522235ef48daecff7488b367200bea03a4e8cb4bc98108c6a492cc28ce5a83a186d74d6f88a98c2227cd05c9e358651dd06bdb774be5b9d59f6ecd5ed15c6e187e77e9aee88184c21f4f2182ab5827cb3b7e07fbedcd63f033009b779b17422d0df92223018b32b4d1fa46e071723d6817e2486d003becc55f00f0c57e16840df040f15088dc2f81fe391c3923bec73e23a9662efc9c229c6a00a2646970667358221220aebb5509a7ba8f7dbb683509b8acd21a3f8264bd21487f9ee6092f8d3ac128e264736f6c634300081a0033",
  "linkReferences": {},
  "deployedLinkReferences": {}
}