{
  "_format": "hh-sol-artifact-1",
  "contractName": "PokeballGame",
  "sourceName": "contracts/PokeballGameV5.sol",
  "abi": [
    {
      "inputs": [],
      "stateMutability": "nonpayable",
      "type": "constructor"
    },
    {
      "inputs": [],
      "name": "APETransferFailed",
      "type": "error"
    },
    {
      "inputs": [
        {
          "internalType": "address",
          "name": "target",
          "type": "address"
        }
      ],
      "name": "AddressEmptyCode",
      "type": "error"
    },
    {
      "inputs": [],
      "name": "CamelotRouterNotSet",
      "type": "error"
    },
    {
      "inputs": [
        {
          "internalType": "address",
          "name": "implementation",
          "type": "address"
        }
      ],
      "name": "ERC1967InvalidImplementation",
      "type": "error"
    },
    {
      "inputs": [],
      "name": "ERC1967NonPayable",
      "type": "error"
    },
    {
      "inputs": [],
      "name": "EnforcedPause",
      "type": "error"
    },
    {
      "inputs": [],
      "name": "ExpectedPause",
      "type": "error"
    },
    {
      "inputs": [],
      "name": "FailedCall",
      "type": "error"
    },
    {
      "inputs": [
        {
          "internalType": "uint256",
          "name": "required",
          "type": "uint256"
        },
        {
          "internalType": "uint256",
          "name": "sent",
          "type": "uint256"
        }
      ],
      "name": "InsufficientAPESent",
      "type": "error"
    },
    {
      "inputs": [
        {
          "internalType": "address",
          "name": "token",
          "type": "address"
        },
        {
          "internalType": "uint256",
          "name": "required",
          "type": "uint256"
        },
        {
          "internalType": "uint256",
          "name": "available",
          "type": "uint256"
        }
      ],
      "name": "InsufficientAllowance",
      "type": "error"
    },
    {
      "inputs": [
        {
          "internalType": "address",
          "name": "token",
          "type": "address"
        },
        {
          "internalType": "uint256",
          "name": "required",
          "type": "uint256"
        },
        {
          "internalType": "uint256",
          "name": "available",
          "type": "uint256"
        }
      ],
      "name": "InsufficientBalance",
      "type": "error"
    },
    {
      "inputs": [
        {
          "internalType": "enum PokeballGame.BallType",
          "name": "ballType",
          "type": "uint8"
        },
        {
          "internalType": "uint256",
          "name": "required",
          "type": "uint256"
        },
        {
          "internalType": "uint256",
          "name": "available",
          "type": "uint256"
        }
      ],
      "name": "InsufficientBalls",
      "type": "error"
    },
    {
      "inputs": [
        {
          "internalType": "uint8",
          "name": "provided",
          "type": "uint8"
        }
      ],
      "name": "InvalidBallType",
      "type": "error"
    },
    {
      "inputs": [
        {
          "internalType": "uint8",
          "name": "rate",
          "type": "uint8"
        }
      ],
      "name": "InvalidCatchRate",
      "type": "error"
    },
    {
      "inputs": [],
      "name": "InvalidInitialization",
      "type": "error"
    },
    {
      "inputs": [
        {
          "internalType": "uint8",
          "name": "slot",
          "type": "uint8"
        }
      ],
      "name": "InvalidPokemonSlot",
      "type": "error"
    },
    {
      "inputs": [],
      "name": "InvalidPrice",
      "type": "error"
    },
    {
      "inputs": [],
      "name": "InvalidSlippage",
      "type": "error"
    },
    {
      "inputs": [],
      "name": "NoFeesToWithdraw",
      "type": "error"
    },
    {
      "inputs": [],
      "name": "NoNFTAvailable",
      "type": "error"
    },
    {
      "inputs": [],
      "name": "NotInitializing",
      "type": "error"
    },
    {
      "inputs": [
        {
          "internalType": "address",
          "name": "owner",
          "type": "address"
        }
      ],
      "name": "OwnableInvalidOwner",
      "type": "error"
    },
    {
      "inputs": [
        {
          "internalType": "address",
          "name": "account",
          "type": "address"
        }
      ],
      "name": "OwnableUnauthorizedAccount",
      "type": "error"
    },
    {
      "inputs": [
        {
          "internalType": "uint256",
          "name": "pokemonId",
          "type": "uint256"
        }
      ],
      "name": "PokemonNotActive",
      "type": "error"
    },
    {
      "inputs": [
        {
          "internalType": "uint256",
          "name": "requested",
          "type": "uint256"
        },
        {
          "internalType": "uint256",
          "name": "maximum",
          "type": "uint256"
        }
      ],
      "name": "PurchaseExceedsMaximum",
      "type": "error"
    },
    {
      "inputs": [],
      "name": "ReentrancyGuardReentrantCall",
      "type": "error"
    },
    {
      "inputs": [
        {
          "internalType": "address",
          "name": "token",
          "type": "address"
        }
      ],
      "name": "SafeERC20FailedOperation",
      "type": "error"
    },
    {
      "inputs": [],
      "name": "SlabNFTManagerNotSet",
      "type": "error"
    },
    {
      "inputs": [
        {
          "internalType": "uint256",
          "name": "expected",
          "type": "uint256"
        },
        {
          "internalType": "uint256",
          "name": "received",
          "type": "uint256"
        }
      ],
      "name": "SlippageExceeded",
      "type": "error"
    },
    {
      "inputs": [
        {
          "internalType": "uint8",
          "name": "slot",
          "type": "uint8"
        }
      ],
      "name": "SlotOccupied",
      "type": "error"
    },
    {
      "inputs": [],
      "name": "SwapFailed",
      "type": "error"
    },
    {
      "inputs": [
        {
          "internalType": "uint256",
          "name": "requestId",
          "type": "uint256"
        }
      ],
      "name": "ThrowAlreadyResolved",
      "type": "error"
    },
    {
      "inputs": [
        {
          "internalType": "uint256",
          "name": "requestId",
          "type": "uint256"
        }
      ],
      "name": "ThrowNotFound",
      "type": "error"
    },
    {
      "inputs": [],
      "name": "TransferFailed",
      "type": "error"
    },
    {
      "inputs": [],
      "name": "UUPSUnauthorizedCallContext",
      "type": "error"
    },
    {
      "inputs": [
        {
          "internalType": "bytes32",
          "name": "slot",
          "type": "bytes32"
        }
      ],
      "name": "UUPSUnsupportedProxiableUUID",
      "type": "error"
    },
    {
      "inputs": [
        {
          "internalType": "address",
          "name": "caller",
          "type": "address"
        }
      ],
      "name": "UnauthorizedCallback",
      "type": "error"
    },
    {
      "inputs": [],
      "name": "ZeroAddress",
      "type": "error"
    },
    {
      "inputs": [],
      "name": "ZeroQuantity",
      "type": "error"
    },
    {
      "anonymous": false,
      "inputs": [
        {
          "indexed": false,
          "internalType": "address",
          "name": "recipient",
          "type": "address"
        },
        {
          "indexed": false,
          "internalType": "uint256",
          "name": "amount",
          "type": "uint256"
        }
      ],
      "name": "APEFeesWithdrawn",
      "type": "event"
    },
    {
      "anonymous": false,
      "inputs": [
        {
          "indexed": false,
          "internalType": "uint256",
          "name": "oldPrice",
          "type": "uint256"
        },
        {
          "indexed": false,
          "internalType": "uint256",
          "name": "newPrice",
          "type": "uint256"
        }
      ],
      "name": "APEPriceUpdated",
      "type": "event"
    },
    {
      "anonymous": false,
      "inputs": [
        {
          "indexed": false,
          "internalType": "uint256",
          "name": "apeAmount",
          "type": "uint256"
        },
        {
          "indexed": false,
          "internalType": "uint256",
          "name": "usdcAmount",
          "type": "uint256"
        }
      ],
      "name": "APESwappedToUSDC",
      "type": "event"
    },
    {
      "anonymous": false,
      "inputs": [
        {
          "indexed": true,
          "internalType": "uint8",
          "name": "ballType",
          "type": "uint8"
        },
        {
          "indexed": false,
          "internalType": "uint256",
          "name": "oldPrice",
          "type": "uint256"
        },
        {
          "indexed": false,
          "internalType": "uint256",
          "name": "newPrice",
          "type": "uint256"
        }
      ],
      "name": "BallPriceUpdated",
      "type": "event"
    },
    {
      "anonymous": false,
      "inputs": [
        {
          "indexed": true,
          "internalType": "address",
          "name": "buyer",
          "type": "address"
        },
        {
          "indexed": false,
          "internalType": "uint8",
          "name": "ballType",
          "type": "uint8"
        },
        {
          "indexed": false,
          "internalType": "uint256",
          "name": "quantity",
          "type": "uint256"
        },
        {
          "indexed": false,
          "internalType": "bool",
          "name": "usedAPE",
          "type": "bool"
        },
        {
          "indexed": false,
          "internalType": "uint256",
          "name": "totalAmount",
          "type": "uint256"
        }
      ],
      "name": "BallPurchased",
      "type": "event"
    },
    {
      "anonymous": false,
      "inputs": [
        {
          "indexed": false,
          "internalType": "address",
          "name": "oldRouter",
          "type": "address"
        },
        {
          "indexed": false,
          "internalType": "address",
          "name": "newRouter",
          "type": "address"
        }
      ],
      "name": "CamelotRouterUpdated",
      "type": "event"
    },
    {
      "anonymous": false,
      "inputs": [
        {
          "indexed": true,
          "internalType": "uint8",
          "name": "ballType",
          "type": "uint8"
        },
        {
          "indexed": false,
          "internalType": "uint8",
          "name": "oldRate",
          "type": "uint8"
        },
        {
          "indexed": false,
          "internalType": "uint8",
          "name": "newRate",
          "type": "uint8"
        }
      ],
      "name": "CatchRateUpdated",
      "type": "event"
    },
    {
      "anonymous": false,
      "inputs": [
        {
          "indexed": true,
          "internalType": "address",
          "name": "catcher",
          "type": "address"
        },
        {
          "indexed": false,
          "internalType": "uint256",
          "name": "pokemonId",
          "type": "uint256"
        },
        {
          "indexed": false,
          "internalType": "uint256",
          "name": "nftTokenId",
          "type": "uint256"
        }
      ],
      "name": "CaughtPokemon",
      "type": "event"
    },
    {
      "anonymous": false,
      "inputs": [
        {
          "indexed": true,
          "internalType": "address",
          "name": "thrower",
          "type": "address"
        },
        {
          "indexed": false,
          "internalType": "uint256",
          "name": "pokemonId",
          "type": "uint256"
        },
        {
          "indexed": false,
          "internalType": "uint8",
          "name": "attemptsRemaining",
          "type": "uint8"
        }
      ],
      "name": "FailedCatch",
      "type": "event"
    },
    {
      "anonymous": false,
      "inputs": [
        {
          "indexed": false,
          "internalType": "address",
          "name": "recipient",
          "type": "address"
        },
        {
          "indexed": false,
          "internalType": "uint256",
          "name": "amount",
          "type": "uint256"
        }
      ],
      "name": "FeesWithdrawn",
      "type": "event"
    },
    {
      "anonymous": false,
      "inputs": [
        {
          "indexed": false,
          "internalType": "uint64",
          "name": "version",
          "type": "uint64"
        }
      ],
      "name": "Initialized",
      "type": "event"
    },
    {
      "anonymous": false,
      "inputs": [
        {
          "indexed": true,
          "internalType": "address",
          "name": "previousOwner",
          "type": "address"
        },
        {
          "indexed": true,
          "internalType": "address",
          "name": "newOwner",
          "type": "address"
        }
      ],
      "name": "OwnershipTransferred",
      "type": "event"
    },
    {
      "anonymous": false,
      "inputs": [
        {
          "indexed": false,
          "internalType": "address",
          "name": "account",
          "type": "address"
        }
      ],
      "name": "Paused",
      "type": "event"
    },
    {
      "anonymous": false,
      "inputs": [
        {
          "indexed": false,
          "internalType": "uint256",
          "name": "pokemonId",
          "type": "uint256"
        },
        {
          "indexed": false,
          "internalType": "uint256",
          "name": "newX",
          "type": "uint256"
        },
        {
          "indexed": false,
          "internalType": "uint256",
          "name": "newY",
          "type": "uint256"
        }
      ],
      "name": "PokemonRelocated",
      "type": "event"
    },
    {
      "anonymous": false,
      "inputs": [
        {
          "indexed": false,
          "internalType": "uint256",
          "name": "pokemonId",
          "type": "uint256"
        },
        {
          "indexed": false,
          "internalType": "uint256",
          "name": "positionX",
          "type": "uint256"
        },
        {
          "indexed": false,
          "internalType": "uint256",
          "name": "positionY",
          "type": "uint256"
        },
        {
          "indexed": false,
          "internalType": "uint8",
          "name": "slotIndex",
          "type": "uint8"
        }
      ],
      "name": "PokemonSpawned",
      "type": "event"
    },
    {
      "anonymous": false,
      "inputs": [
        {
          "indexed": true,
          "internalType": "uint256",
          "name": "requestId",
          "type": "uint256"
        },
        {
          "indexed": false,
          "internalType": "uint256",
          "name": "randomNumber",
          "type": "uint256"
        },
        {
          "indexed": false,
          "internalType": "bool",
          "name": "isSpawnRequest",
          "type": "bool"
        }
      ],
      "name": "RandomnessReceived",
      "type": "event"
    },
    {
      "anonymous": false,
      "inputs": [
        {
          "indexed": false,
          "internalType": "uint256",
          "name": "amount",
          "type": "uint256"
        }
      ],
      "name": "RevenueSentToManager",
      "type": "event"
    },
    {
      "anonymous": false,
      "inputs": [
        {
          "indexed": false,
          "internalType": "uint256",
          "name": "oldSlippage",
          "type": "uint256"
        },
        {
          "indexed": false,
          "internalType": "uint256",
          "name": "newSlippage",
          "type": "uint256"
        }
      ],
      "name": "SwapSlippageUpdated",
      "type": "event"
    },
    {
      "anonymous": false,
      "inputs": [
        {
          "indexed": true,
          "internalType": "address",
          "name": "thrower",
          "type": "address"
        },
        {
          "indexed": false,
          "internalType": "uint256",
          "name": "pokemonId",
          "type": "uint256"
        },
        {
          "indexed": false,
          "internalType": "uint8",
          "name": "ballTier",
          "type": "uint8"
        },
        {
          "indexed": false,
          "internalType": "uint256",
          "name": "requestId",
          "type": "uint256"
        }
      ],
      "name": "ThrowAttempted",
      "type": "event"
    },
    {
      "anonymous": false,
      "inputs": [
        {
          "indexed": false,
          "internalType": "address",
          "name": "recipient",
          "type": "address"
        },
        {
          "indexed": false,
          "internalType": "uint256",
          "name": "amount",
          "type": "uint256"
        }
      ],
      "name": "USDCFeesWithdrawn",
      "type": "event"
    },
    {
      "anonymous": false,
      "inputs": [
        {
          "indexed": false,
          "internalType": "address",
          "name": "account",
          "type": "address"
        }
      ],
      "name": "Unpaused",
      "type": "event"
    },
    {
      "anonymous": false,
      "inputs": [
        {
          "indexed": true,
          "internalType": "address",
          "name": "implementation",
          "type": "address"
        }
      ],
      "name": "Upgraded",
      "type": "event"
    },
    {
      "anonymous": false,
      "inputs": [
        {
          "indexed": false,
          "internalType": "string",
          "name": "walletType",
          "type": "string"
        },
        {
          "indexed": false,
          "internalType": "address",
          "name": "oldAddress",
          "type": "address"
        },
        {
          "indexed": false,
          "internalType": "address",
          "name": "newAddress",
          "type": "address"
        }
      ],
      "name": "WalletUpdated",
      "type": "event"
    },
    {
      "inputs": [],
      "name": "APE_DECIMALS",
      "outputs": [
        {
          "internalType": "uint8",
          "name": "",
          "type": "uint8"
        }
      ],
      "stateMutability": "view",
      "type": "function"
    },
    {
      "inputs": [],
      "name": "BPS_DENOMINATOR",
      "outputs": [
        {
          "internalType": "uint256",
          "name": "",
          "type": "uint256"
        }
      ],
      "stateMutability": "view",
      "type": "function"
    },
    {
      "inputs": [],
      "name": "MAX_ACTIVE_POKEMON",
      "outputs": [
        {
          "internalType": "uint8",
          "name": "",
          "type": "uint8"
        }
      ],
      "stateMutability": "view",
      "type": "function"
    },
    {
      "inputs": [],
      "name": "MAX_COORDINATE",
      "outputs": [
        {
          "internalType": "uint256",
          "name": "",
          "type": "uint256"
        }
      ],
      "stateMutability": "view",
      "type": "function"
    },
    {
      "inputs": [],
      "name": "MAX_PURCHASE_USD",
      "outputs": [
        {
          "internalType": "uint256",
          "name": "",
          "type": "uint256"
        }
      ],
      "stateMutability": "view",
      "type": "function"
    },
    {
      "inputs": [],
      "name": "MAX_THROW_ATTEMPTS",
      "outputs": [
        {
          "internalType": "uint8",
          "name": "",
          "type": "uint8"
        }
      ],
      "stateMutability": "view",
      "type": "function"
    },
    {
      "inputs": [],
      "name": "PLATFORM_FEE_BPS",
      "outputs": [
        {
          "internalType": "uint256",
          "name": "",
          "type": "uint256"
        }
      ],
      "stateMutability": "view",
      "type": "function"
    },
    {
      "inputs": [],
      "name": "REVENUE_POOL_BPS",
      "outputs": [
        {
          "internalType": "uint256",
          "name": "",
          "type": "uint256"
        }
      ],
      "stateMutability": "view",
      "type": "function"
    },
    {
      "inputs": [],
      "name": "UPGRADE_INTERFACE_VERSION",
      "outputs": [
        {
          "internalType": "string",
          "name": "",
          "type": "string"
        }
      ],
      "stateMutability": "view",
      "type": "function"
    },
    {
      "inputs": [],
      "name": "USDC_DECIMALS",
      "outputs": [
        {
          "internalType": "uint8",
          "name": "",
          "type": "uint8"
        }
      ],
      "stateMutability": "view",
      "type": "function"
    },
    {
      "inputs": [],
      "name": "accumulatedAPEFees",
      "outputs": [
        {
          "internalType": "uint256",
          "name": "",
          "type": "uint256"
        }
      ],
      "stateMutability": "view",
      "type": "function"
    },
    {
      "inputs": [],
      "name": "accumulatedUSDCFees",
      "outputs": [
        {
          "internalType": "uint256",
          "name": "",
          "type": "uint256"
        }
      ],
      "stateMutability": "view",
      "type": "function"
    },
    {
      "inputs": [
        {
          "internalType": "uint256",
          "name": "",
          "type": "uint256"
        }
      ],
      "name": "activePokemons",
      "outputs": [
        {
          "internalType": "uint256",
          "name": "id",
          "type": "uint256"
        },
        {
          "internalType": "uint256",
          "name": "positionX",
          "type": "uint256"
        },
        {
          "internalType": "uint256",
          "name": "positionY",
          "type": "uint256"
        },
        {
          "internalType": "uint8",
          "name": "throwAttempts",
          "type": "uint8"
        },
        {
          "internalType": "bool",
          "name": "isActive",
          "type": "bool"
        },
        {
          "internalType": "uint256",
          "name": "spawnTime",
          "type": "uint256"
        }
      ],
      "stateMutability": "view",
      "type": "function"
    },
    {
      "inputs": [],
      "name": "ape",
      "outputs": [
        {
          "internalType": "contract IERC20",
          "name": "",
          "type": "address"
        }
      ],
      "stateMutability": "view",
      "type": "function"
    },
    {
      "inputs": [],
      "name": "apePriceUSD",
      "outputs": [
        {
          "internalType": "uint256",
          "name": "",
          "type": "uint256"
        }
      ],
      "stateMutability": "view",
      "type": "function"
    },
    {
      "inputs": [
        {
          "internalType": "enum PokeballGame.BallType",
          "name": "",
          "type": "uint8"
        }
      ],
      "name": "ballCatchRates",
      "outputs": [
        {
          "internalType": "uint8",
          "name": "",
          "type": "uint8"
        }
      ],
      "stateMutability": "view",
      "type": "function"
    },
    {
      "inputs": [
        {
          "internalType": "enum PokeballGame.BallType",
          "name": "",
          "type": "uint8"
        }
      ],
      "name": "ballPrices",
      "outputs": [
        {
          "internalType": "uint256",
          "name": "",
          "type": "uint256"
        }
      ],
      "stateMutability": "view",
      "type": "function"
    },
    {
      "inputs": [
        {
          "internalType": "uint256",
          "name": "usdcAmount",
          "type": "uint256"
        }
      ],
      "name": "calculateAPEAmount",
      "outputs": [
        {
          "internalType": "uint256",
          "name": "apeAmount",
          "type": "uint256"
        }
      ],
      "stateMutability": "view",
      "type": "function"
    },
    {
      "inputs": [],
      "name": "camelotRouter",
      "outputs": [
        {
          "internalType": "contract ICamelotRouter",
          "name": "",
          "type": "address"
        }
      ],
      "stateMutability": "view",
      "type": "function"
    },
    {
      "inputs": [
        {
          "internalType": "uint8",
          "name": "slot",
          "type": "uint8"
        },
        {
          "internalType": "uint256",
          "name": "posX",
          "type": "uint256"
        },
        {
          "internalType": "uint256",
          "name": "posY",
          "type": "uint256"
        }
      ],
      "name": "forceSpawnPokemon",
      "outputs": [],
      "stateMutability": "nonpayable",
      "type": "function"
    },
    {
      "inputs": [],
      "name": "getActivePokemonCount",
      "outputs": [
        {
          "internalType": "uint8",
          "name": "count",
          "type": "uint8"
        }
      ],
      "stateMutability": "view",
      "type": "function"
    },
    {
      "inputs": [],
      "name": "getActivePokemonSlots",
      "outputs": [
        {
          "internalType": "uint8[]",
          "name": "slots",
          "type": "uint8[]"
        }
      ],
      "stateMutability": "view",
      "type": "function"
    },
    {
      "inputs": [],
      "name": "getAllActivePokemons",
      "outputs": [
        {
          "components": [
            {
              "internalType": "uint256",
              "name": "id",
              "type": "uint256"
            },
            {
              "internalType": "uint256",
              "name": "positionX",
              "type": "uint256"
            },
            {
              "internalType": "uint256",
              "name": "positionY",
              "type": "uint256"
            },
            {
              "internalType": "uint8",
              "name": "throwAttempts",
              "type": "uint8"
            },
            {
              "internalType": "bool",
              "name": "isActive",
              "type": "bool"
            },
            {
              "internalType": "uint256",
              "name": "spawnTime",
              "type": "uint256"
            }
          ],
          "internalType": "struct PokeballGame.Pokemon[20]",
          "name": "",
          "type": "tuple[20]"
        }
      ],
      "stateMutability": "view",
      "type": "function"
    },
    {
      "inputs": [],
      "name": "getAllBallPrices",
      "outputs": [
        {
          "internalType": "uint256",
          "name": "pokeBallPrice",
          "type": "uint256"
        },
        {
          "internalType": "uint256",
          "name": "greatBallPrice",
          "type": "uint256"
        },
        {
          "internalType": "uint256",
          "name": "ultraBallPrice",
          "type": "uint256"
        },
        {
          "internalType": "uint256",
          "name": "masterBallPrice",
          "type": "uint256"
        }
      ],
      "stateMutability": "view",
      "type": "function"
    },
    {
      "inputs": [],
      "name": "getAllCatchRates",
      "outputs": [
        {
          "internalType": "uint8",
          "name": "pokeBallRate",
          "type": "uint8"
        },
        {
          "internalType": "uint8",
          "name": "greatBallRate",
          "type": "uint8"
        },
        {
          "internalType": "uint8",
          "name": "ultraBallRate",
          "type": "uint8"
        },
        {
          "internalType": "uint8",
          "name": "masterBallRate",
          "type": "uint8"
        }
      ],
      "stateMutability": "view",
      "type": "function"
    },
    {
      "inputs": [
        {
          "internalType": "address",
          "name": "player",
          "type": "address"
        }
      ],
      "name": "getAllPlayerBalls",
      "outputs": [
        {
          "internalType": "uint256",
          "name": "pokeBalls",
          "type": "uint256"
        },
        {
          "internalType": "uint256",
          "name": "greatBalls",
          "type": "uint256"
        },
        {
          "internalType": "uint256",
          "name": "ultraBalls",
          "type": "uint256"
        },
        {
          "internalType": "uint256",
          "name": "masterBalls",
          "type": "uint256"
        }
      ],
      "stateMutability": "view",
      "type": "function"
    },
    {
      "inputs": [
        {
          "internalType": "enum PokeballGame.BallType",
          "name": "ball",
          "type": "uint8"
        }
      ],
      "name": "getBallPrice",
      "outputs": [
        {
          "internalType": "uint256",
          "name": "",
          "type": "uint256"
        }
      ],
      "stateMutability": "view",
      "type": "function"
    },
    {
      "inputs": [
        {
          "internalType": "enum PokeballGame.BallType",
          "name": "ball",
          "type": "uint8"
        }
      ],
      "name": "getCatchRate",
      "outputs": [
        {
          "internalType": "uint8",
          "name": "",
          "type": "uint8"
        }
      ],
      "stateMutability": "view",
      "type": "function"
    },
    {
      "inputs": [],
      "name": "getNFTInventoryCount",
      "outputs": [
        {
          "internalType": "uint256",
          "name": "",
          "type": "uint256"
        }
      ],
      "stateMutability": "view",
      "type": "function"
    },
    {
      "inputs": [
        {
          "internalType": "address",
          "name": "_usdce",
          "type": "address"
        },
        {
          "internalType": "address",
          "name": "_vrng",
          "type": "address"
        },
        {
          "internalType": "address",
          "name": "_slabNFT",
          "type": "address"
        },
        {
          "internalType": "address",
          "name": "_treasury",
          "type": "address"
        },
        {
          "internalType": "address",
          "name": "_nftRevenue",
          "type": "address"
        }
      ],
      "name": "initialize",
      "outputs": [],
      "stateMutability": "nonpayable",
      "type": "function"
    },
    {
      "inputs": [
        {
          "internalType": "address",
          "name": "_camelotRouter",
          "type": "address"
        },
        {
          "internalType": "address",
          "name": "_wape",
          "type": "address"
        },
        {
          "internalType": "uint256",
          "name": "_slippageBps",
          "type": "uint256"
        }
      ],
      "name": "initializeV150",
      "outputs": [],
      "stateMutability": "nonpayable",
      "type": "function"
    },
    {
      "inputs": [],
      "name": "nextPokemonId",
      "outputs": [
        {
          "internalType": "uint256",
          "name": "",
          "type": "uint256"
        }
      ],
      "stateMutability": "view",
      "type": "function"
    },
    {
      "inputs": [],
      "name": "nftRevenueWallet",
      "outputs": [
        {
          "internalType": "address",
          "name": "",
          "type": "address"
        }
      ],
      "stateMutability": "view",
      "type": "function"
    },
    {
      "inputs": [],
      "name": "owner",
      "outputs": [
        {
          "internalType": "address",
          "name": "",
          "type": "address"
        }
      ],
      "stateMutability": "view",
      "type": "function"
    },
    {
      "inputs": [],
      "name": "pause",
      "outputs": [],
      "stateMutability": "nonpayable",
      "type": "function"
    },
    {
      "inputs": [],
      "name": "paused",
      "outputs": [
        {
          "internalType": "bool",
          "name": "",
          "type": "bool"
        }
      ],
      "stateMutability": "view",
      "type": "function"
    },
    {
      "inputs": [
        {
          "internalType": "uint256",
          "name": "",
          "type": "uint256"
        }
      ],
      "name": "pendingThrows",
      "outputs": [
        {
          "internalType": "address",
          "name": "thrower",
          "type": "address"
        },
        {
          "internalType": "uint256",
          "name": "pokemonId",
          "type": "uint256"
        },
        {
          "internalType": "enum PokeballGame.BallType",
          "name": "ballType",
          "type": "uint8"
        },
        {
          "internalType": "uint256",
          "name": "timestamp",
          "type": "uint256"
        },
        {
          "internalType": "bool",
          "name": "resolved",
          "type": "bool"
        }
      ],
      "stateMutability": "view",
      "type": "function"
    },
    {
      "inputs": [
        {
          "internalType": "address",
          "name": "",
          "type": "address"
        },
        {
          "internalType": "enum PokeballGame.BallType",
          "name": "",
          "type": "uint8"
        }
      ],
      "name": "playerBalls",
      "outputs": [
        {
          "internalType": "uint256",
          "name": "",
          "type": "uint256"
        }
      ],
      "stateMutability": "view",
      "type": "function"
    },
    {
      "inputs": [],
      "name": "proxiableUUID",
      "outputs": [
        {
          "internalType": "bytes32",
          "name": "",
          "type": "bytes32"
        }
      ],
      "stateMutability": "view",
      "type": "function"
    },
    {
      "inputs": [
        {
          "internalType": "uint8",
          "name": "ballType",
          "type": "uint8"
        },
        {
          "internalType": "uint256",
          "name": "quantity",
          "type": "uint256"
        },
        {
          "internalType": "bool",
          "name": "useAPE",
          "type": "bool"
        }
      ],
      "name": "purchaseBalls",
      "outputs": [],
      "stateMutability": "payable",
      "type": "function"
    },
    {
      "inputs": [
        {
          "internalType": "uint8",
          "name": "ballType",
          "type": "uint8"
        },
        {
          "internalType": "uint256",
          "name": "quantity",
          "type": "uint256"
        }
      ],
      "name": "purchaseBallsWithAPE",
      "outputs": [],
      "stateMutability": "payable",
      "type": "function"
    },
    {
      "inputs": [
        {
          "internalType": "uint8",
          "name": "ballType",
          "type": "uint8"
        },
        {
          "internalType": "uint256",
          "name": "quantity",
          "type": "uint256"
        }
      ],
      "name": "purchaseBallsWithUSDC",
      "outputs": [],
      "stateMutability": "nonpayable",
      "type": "function"
    },
    {
      "inputs": [
        {
          "internalType": "uint256",
          "name": "requestId",
          "type": "uint256"
        },
        {
          "internalType": "uint256",
          "name": "randomNumber",
          "type": "uint256"
        }
      ],
      "name": "randomNumberCallback",
      "outputs": [],
      "stateMutability": "nonpayable",
      "type": "function"
    },
    {
      "inputs": [],
      "name": "renounceOwnership",
      "outputs": [],
      "stateMutability": "nonpayable",
      "type": "function"
    },
    {
      "inputs": [
        {
          "internalType": "uint256",
          "name": "",
          "type": "uint256"
        }
      ],
      "name": "requestIdToTraceId",
      "outputs": [
        {
          "internalType": "uint256",
          "name": "",
          "type": "uint256"
        }
      ],
      "stateMutability": "view",
      "type": "function"
    },
    {
      "inputs": [],
      "name": "revertOnNoNFT",
      "outputs": [
        {
          "internalType": "bool",
          "name": "",
          "type": "bool"
        }
      ],
      "stateMutability": "view",
      "type": "function"
    },
    {
      "inputs": [
        {
          "internalType": "uint256",
          "name": "_priceUSD",
          "type": "uint256"
        }
      ],
      "name": "setAPEPrice",
      "outputs": [],
      "stateMutability": "nonpayable",
      "type": "function"
    },
    {
      "inputs": [
        {
          "internalType": "uint8",
          "name": "ballType",
          "type": "uint8"
        },
        {
          "internalType": "uint256",
          "name": "newPrice",
          "type": "uint256"
        }
      ],
      "name": "setBallPrice",
      "outputs": [],
      "stateMutability": "nonpayable",
      "type": "function"
    },
    {
      "inputs": [
        {
          "internalType": "address",
          "name": "_router",
          "type": "address"
        }
      ],
      "name": "setCamelotRouter",
      "outputs": [],
      "stateMutability": "nonpayable",
      "type": "function"
    },
    {
      "inputs": [
        {
          "internalType": "uint8",
          "name": "ballType",
          "type": "uint8"
        },
        {
          "internalType": "uint8",
          "name": "newRate",
          "type": "uint8"
        }
      ],
      "name": "setCatchRate",
      "outputs": [],
      "stateMutability": "nonpayable",
      "type": "function"
    },
    {
      "inputs": [
        {
          "internalType": "address",
          "name": "_manager",
          "type": "address"
        }
      ],
      "name": "setSlabNFTManager",
      "outputs": [],
      "stateMutability": "nonpayable",
      "type": "function"
    },
    {
      "inputs": [
        {
          "internalType": "uint256",
          "name": "_slippageBps",
          "type": "uint256"
        }
      ],
      "name": "setSwapSlippage",
      "outputs": [],
      "stateMutability": "nonpayable",
      "type": "function"
    },
    {
      "inputs": [
        {
          "internalType": "address",
          "name": "_treasury",
          "type": "address"
        }
      ],
      "name": "setTreasuryWallet",
      "outputs": [],
      "stateMutability": "nonpayable",
      "type": "function"
    },
    {
      "inputs": [],
      "name": "slabNFT",
      "outputs": [
        {
          "internalType": "contract IERC721",
          "name": "",
          "type": "address"
        }
      ],
      "stateMutability": "view",
      "type": "function"
    },
    {
      "inputs": [],
      "name": "slabNFTManager",
      "outputs": [
        {
          "internalType": "contract ISlabNFTManager",
          "name": "",
          "type": "address"
        }
      ],
      "stateMutability": "view",
      "type": "function"
    },
    {
      "inputs": [
        {
          "internalType": "uint8",
          "name": "slot",
          "type": "uint8"
        }
      ],
      "name": "spawnPokemon",
      "outputs": [],
      "stateMutability": "nonpayable",
      "type": "function"
    },
    {
      "inputs": [],
      "name": "swapSlippageBps",
      "outputs": [
        {
          "internalType": "uint256",
          "name": "",
          "type": "uint256"
        }
      ],
      "stateMutability": "view",
      "type": "function"
    },
    {
      "inputs": [
        {
          "internalType": "uint8",
          "name": "pokemonSlot",
          "type": "uint8"
        },
        {
          "internalType": "uint8",
          "name": "ballType",
          "type": "uint8"
        }
      ],
      "name": "throwBall",
      "outputs": [
        {
          "internalType": "uint256",
          "name": "requestId",
          "type": "uint256"
        }
      ],
      "stateMutability": "nonpayable",
      "type": "function"
    },
    {
      "inputs": [],
      "name": "totalNFTsPurchased",
      "outputs": [
        {
          "internalType": "uint256",
          "name": "",
          "type": "uint256"
        }
      ],
      "stateMutability": "view",
      "type": "function"
    },
    {
      "inputs": [],
      "name": "totalPlatformFees",
      "outputs": [
        {
          "internalType": "uint256",
          "name": "",
          "type": "uint256"
        }
      ],
      "stateMutability": "view",
      "type": "function"
    },
    {
      "inputs": [],
      "name": "totalRevenuePool",
      "outputs": [
        {
          "internalType": "uint256",
          "name": "",
          "type": "uint256"
        }
      ],
      "stateMutability": "view",
      "type": "function"
    },
    {
      "inputs": [
        {
          "internalType": "address",
          "name": "newOwner",
          "type": "address"
        }
      ],
      "name": "transferOwnership",
      "outputs": [],
      "stateMutability": "nonpayable",
      "type": "function"
    },
    {
      "inputs": [],
      "name": "treasuryWallet",
      "outputs": [
        {
          "internalType": "address",
          "name": "",
          "type": "address"
        }
      ],
      "stateMutability": "view",
      "type": "function"
    },
    {
      "inputs": [],
      "name": "unpause",
      "outputs": [],
      "stateMutability": "nonpayable",
      "type": "function"
    },
    {
      "inputs": [
        {
          "internalType": "address",
          "name": "newImplementation",
          "type": "address"
        },
        {
          "internalType": "bytes",
          "name": "data",
          "type": "bytes"
        }
      ],
      "name": "upgradeToAndCall",
      "outputs": [],
      "stateMutability": "payable",
      "type": "function"
    },
    {
      "inputs": [],
      "name": "usdce",
      "outputs": [
        {
          "internalType": "contract IERC20",
          "name": "",
          "type": "address"
        }
      ],
      "stateMutability": "view",
      "type": "function"
    },
    {
      "inputs": [],
      "name": "vrng",
      "outputs": [
        {
          "internalType": "contract IPOPVRNG",
          "name": "",
          "type": "address"
        }
      ],
      "stateMutability": "view",
      "type": "function"
    },
    {
      "inputs": [],
      "name": "wape",
      "outputs": [
        {
          "internalType": "contract IWAPE",
          "name": "",
          "type": "address"
        }
      ],
      "stateMutability": "view",
      "type": "function"
    },
    {
      "inputs": [],
      "name": "withdrawAPEFees",
      "outputs": [],
      "stateMutability": "nonpayable",
      "type": "function"
    },
    {
      "inputs": [],
      "name": "withdrawAllAPE",
      "outputs": [],
      "stateMutability": "nonpayable",
      "type": "function"
    },
    {
      "inputs": [],
      "name": "withdrawUSDCFees",
      "outputs": [],
      "stateMutability": "nonpayable",
      "type": "function"
    },
    {
      "stateMutability": "payable",
      "type": "receive"
    }
  ],
  "bytecode": "0x60a080604052346100ea57306080527ff0c57e16840df040f15088dc2f81fe391c3923bec73e23a9662efc9c229c6a005460ff8160401c166100d9576002600160401b03196001600160401b03821601610073575b604051613ad090816100f08239608051818181611ed30152611fa70152f35b6001600160401b0319166001600160401b039081177ff0c57e16840df040f15088dc2f81fe391c3923bec73e23a9662efc9c229c6a005581527fc7f505b2f371ae2175ee4913f4499e1f2633a7b5936321eed1cdaeb6115181d290602090a13880610054565b63f92ee8a960e01b60005260046000fd5b600080fdfe6080604052600436101561001b575b361561001957600080fd5b005b60003560e01c8063064c973c146129095780630935c557146128bf578063116484221461262b5780631459457a14612396578063248684901461233d57806325c61fcd146123145780632795a90e146122a95780632ae1c8ef1461228b5780632de8f4501461226c57806338efa831146122505780633bd81715146122335780633cfffcb61461220a5780633f4ba83a146121875780634129849f1461216c5780634626402b146121435780634f1ef28614611f2a57806352d1902d14611ec0578063539aa77f14611ea35780635c975abb14611e73578063607c45d114611e185780636213841414611def57806364c618cc14611dc6578063676db11d14611d925780636fea438d14611d69578063715018a614611cff57806378f0811514611bd157806379babd2c14611ba85780637a0b07cf14611a885780637ed2f783146118a75780637edc648c1461187b5780638456cb59146118075780638761c142146117e45780638cb87413146117275780638da5cb5b146116f15780638e101b18146116d35780638f561acc146115e657806394ea04d1146113dd578063970cff93146113975780639fb769dd14611379578063a2afc37314611306578063a8602fea14611269578063a957b539146111b9578063ad3cb1cc1461113d578063bd91f18c14610fec578063bf370a6114610fbc578063c10c3f8314610ef2578063c1419def14610ed6578063c5f5251114610e0f578063cc7a69de14610df1578063cd425ac814610dd3578063cd6df42e14610d7f578063d257418314610d62578063d33953ba14610d39578063d3631fa514610d1b578063d463afef14610b00578063d9deb60b14610ae2578063e155d79e14610ac4578063e1a4521814610aa7578063e53b74c614610961578063e5700fd414610938578063e97cb6fd146107aa578063eb76c37e1461078e578063ee8b779e146106bb578063efdf994914610688578063f2fde38b1461065f578063f37d84eb1461062e578063f4f00092146105a7578063fa86b90b14610525578063fa88dd15146104b6578063fc774c5c1461049a5763fcc536ba0361000e57346104955760003660031901126104955761028060405161034e82826129ab565b60005b8281106104565760405180840167ffffffffffffffff81118282101761044057604052600a6000825b601482106103e557604051846000825b6014821061039857610f0084f35b602060c060019260a086518051835284810151858401526040810151604084015260ff6060820151166060840152608081015115156080840152015160a08201520193019101909161038a565b600560206001926040516103f88161298f565b8654815284870154838201526002870154604082015260ff6003880154818116606084015260081c1615156080820152600487015460a082015281520193019101909161037a565b634e487b7160e01b600052604160045260246000fd5b6020906040516104658161298f565b60008152600083820152600060408201526000606082015260006080820152600060a08201528184015201610351565b600080fd5b3461049557600036600319011261049557602060405160148152f35b34610495576020366003190112610495576004356104d2612e34565b6103e881116105145760407f751b184a645c27fa7a1d5a85ac7178aeab299e62b634848bb49f3c44faaf299591607b549080607b5582519182526020820152a1005b63334ee9a160e01b60005260046000fd5b34610495576000366003190112610495576000805b601460ff8216106105535760208260ff60405191168152f35b60148110156105915760ff600d60058302015460081c1661057a575b60010160ff1661053a565b90600161058860ff92612cb3565b9291505061056f565b634e487b7160e01b600052603260045260246000fd5b3461049557602036600319011261049557600435600052606f602052604060002060018060a01b03815416600182015460ff6002840154169260ff600460038301549201541691604051938452602084015260048410156106185760a0936040840152606083015215156080820152f35b634e487b7160e01b600052602160045260246000fd5b3461049557602036600319011261049557600435600481101561049557610656602091612a02565b54604051908152f35b346104955760203660031901126104955761001961067b612947565b610683612e34565b612dbe565b34610495576020366003190112610495576004356004811015610495576106b0602091612d62565b60ff60405191168152f35b34610495576040366003190112610495576106d4612927565b60ff602435916106e2612e34565b169060038211610779578015610769576302f969e0811161074d5760048210156106185760407fcc28ce5a83a186d74d6f88a98c2227cd05c9e358651dd06bdb774be5b9d59f6e9161073384612a02565b54908061073f86612a02565b5582519182526020820152a2005b63572dac3f60e01b6000526004526302f969e060245260446000fd5b62bfc92160e01b60005260046000fd5b5063fab9b83760e01b60005260045260246000fd5b3461049557600036600319011261049557602060405160038152f35b6040366003190112610495576107be612927565b602435906107ca612e6a565b6107d2612ea6565b81156109275760ff811660038111610913576079546001600160a01b031615610902576004811015610618576108108361080b83612c50565b612a33565b6302f969e0811161074d5761082481612a46565b8034106108ea5750610835346135fc565b9081156108d15750916108826108ba9261086f7fa89bfe414137486dafff331717fbfdd7b10ad23757ea0f39f7666e906afe235d9561331d565b3360005260096020526040600020612a1b565b61088d858254612bbf565b9055604051918291339534918460609194939260ff60808301961682526020820152600160408201520152565b0390a26001600080516020613a5b83398151915255005b6371c4efed60e01b600052600452600060245260446000fd5b630f05566560e01b6000526004523460245260446000fd5b634e214f0560e01b60005260046000fd5b63fab9b83760e01b60005260045260246000fd5b63f4f5b73360e01b60005260046000fd5b34610495576000366003190112610495576079546040516001600160a01b039091168152602090f35b34610495576000366003190112610495576000805b601460ff821610610a695760ff82166109a761099182612cc4565b9161099f60405193846129ab565b808352612cc4565b602082019190601f190136833760009060005b60ff81166014811015610a215760148210156105915760ff600d60058402015460081c166109ef575b5060010160ff166109ba565b90926109fa81612cb3565b93835160ff831610156105915760ff926020611fe060019460051b168601015291506109e3565b84836040519182916020830190602084525180915260408301919060005b818110610a4d575050500390f35b825160ff16845285945060209384019390920191600101610a3f565b60148110156105915760ff600d60058302015460081c16610a90575b60010160ff16610976565b906001610a9e60ff92612cb3565b92915050610a85565b346104955760003660031901126104955760206040516127108152f35b34610495576000366003190112610495576020600854604051908152f35b34610495576000366003190112610495576020606e54604051908152f35b3461049557604036600319011261049557610b19612927565b602435610b24612e6a565b610b2c612ea6565b80156109275760ff8216906003821161077957600482101561061857610b558161080b84612c50565b916302f969e08311610cfe57600054604051636eb1769f60e11b81523360048201523060248201526001600160a01b0390911690602081604481855afa908115610ca457600091610ccc575b50848110610cb057506040516370a0823160e01b8152336004820152602081602481855afa908115610ca457600091610c6f575b50848110610c535750839291610c137fa89bfe414137486dafff331717fbfdd7b10ad23757ea0f39f7666e906afe235d95610c1c93309033906132d7565b61086f8461331d565b610c27828254612bbf565b90556040805160ff909516855260208501919091526000908401526060830152339180608081016108ba565b848263db42144d60e01b60005260045260245260445260646000fd5b906020823d602011610c9c575b81610c89602093836129ab565b81010312610c9957505186610bd5565b80fd5b3d9150610c7c565b6040513d6000823e3d90fd5b8482630c95cf2760e11b60005260045260245260445260646000fd5b906020823d602011610cf6575b81610ce6602093836129ab565b81010312610c9957505186610ba1565b3d9150610cd9565b8263572dac3f60e01b6000526004526302f969e060245260446000fd5b34610495576000366003190112610495576020600754604051908152f35b34610495576000366003190112610495576000546040516001600160a01b039091168152602090f35b346104955760003660031901126104955760206040516103e78152f35b34610495576000366003190112610495576080610d9a612cdc565b60ff610da4612cf9565b81610dad612d1c565b81610db6612d3f565b938160405197168752166020860152166040840152166060820152f35b34610495576000366003190112610495576020607854604051908152f35b34610495576000366003190112610495576020607254604051908152f35b3461049557602036600319011261049557610e28612947565b610e30612e34565b6001600160a01b03168015610ec557607380546001600160a01b031916821790556000805460405163095ea7b360e01b815260048101939093526000196024840152602091839160449183916001600160a01b03165af18015610ca457610e9357005b6020813d602011610ebd575b81610eac602093836129ab565b810103126104955761001990612b5c565b3d9150610e9f565b63d92e233d60e01b60005260046000fd5b3461049557600036600319011261049557602060405160068152f35b3461049557600036600319011261049557610f0b612e34565b610f13612e6a565b478015610fab57600060775560008080808460018060a01b03600454165af1610f3a612aa0565b5015610f9a57600454604080516001600160a01b03909216825260208201929092527f7697688f5b60091c6b13ffe82ec02eea4d5aa1ca7e8ba5a9042c116c57e2fb2291819081015b0390a16001600080516020613a5b83398151915255005b6374987b8d60e01b60005260046000fd5b630d00db4d60e31b60005260046000fd5b3461049557602036600319011261049557600435600481101561049557610fe4602091612c50565b604051908152f35b3461049557606036600319011261049557611005612947565b61100d61295d565b906044359061101a612e34565b60ff607c5416611102576001600160a01b031690811580156110f1575b610ec5576103e88111610514576044826000946020946001600160601b0360a01b607954161760795560018060a01b031692836001600160601b0360a01b607a541617607a55607b55604051948593849263095ea7b360e01b84526004840152811960248401525af18015610ca4576110ba575b607c805460ff19166001179055005b6020813d6020116110e9575b816110d3602093836129ab565b81010312610495576110e490612b5c565b6110ab565b3d91506110c6565b506001600160a01b03831615611037565b60405162461bcd60e51b8152602060048201526013602482015272105b1c9958591e481a5b9a5d1a585b1a5e9959606a1b6044820152606490fd5b3461049557600036600319011261049557604080519061115d81836129ab565b60058252640352e302e360dc1b6020830152805180926020825280519081602084015260005b8281106111a25750506000828201840152601f01601f19168101030190f35b602082820181015187830187015286945001611183565b34610495576040366003190112610495576111d2612927565b60ff6111dc612937565b916111e5612e34565b1690600382116107795760ff16606481116112555760048210156106185760407fbb6d93b2129fb3ef8cd6bec4b4f7ded1e50f1c845cf9a9620c759ccbdc5d17679160ff611232856129e9565b54169061123e856129e9565b805460ff19168217905582519182526020820152a2005b63026291af60e31b60005260045260246000fd5b3461049557602036600319011261049557611282612947565b61128a612e34565b6001600160a01b03168015610ec55760a07fd8e98bff5ae8522235ef48daecff7488b367200bea03a4e8cb4bc98108c6a4929160045490806001600160601b03841b83161760045560405191606083526008606084015267747265617375727960c01b6080840152600180851b031660208301526040820152a1005b34610495576020366003190112610495576001600160a01b03611327612947565b16600090815260096020908152604080832083805282528083205460018452818420546002855282852054600386529483902054835192835293820152908101929092526060820152608090f35b0390f35b34610495576000366003190112610495576020600654604051908152f35b34610495576040366003190112610495576113b0612947565b602435906004821015610495576020916106569160018060a01b0316600052600983526040600020612a1b565b6060366003190112610495576113f1612927565b60243590604435801515810361049557611409612e6a565b611411612ea6565b156114635781156109275760ff811660038111610913576079546001600160a01b031615610902576004811015610618576108108361080b83612c50565b6001600080516020613a5b83398151915255005b9080156109275760ff821690600382116107795760048210156106185761148d8161080b84612c50565b916302f969e08311610cfe57600054604051636eb1769f60e11b81523360048201523060248201526001600160a01b0390911690602081604481855afa908115610ca4576000916115b4575b50848110610cb057506040516370a0823160e01b8152336004820152602081602481855afa908115610ca457600091611582575b50848110610c535750839291610c137fa89bfe414137486dafff331717fbfdd7b10ad23757ea0f39f7666e906afe235d9561154b93309033906132d7565b611556828254612bbf565b90556040805160ff959095168552602085019190915260009084015260608301523391608090a261144f565b906020823d6020116115ac575b8161159c602093836129ab565b81010312610c995750518661150d565b3d915061158f565b906020823d6020116115de575b816115ce602093836129ab565b81010312610c99575051866114d9565b3d91506115c1565b346104955760403660031901126104955760025460043590602435906001600160a01b031633036116be576000828152606f6020526040902080549092906001600160a01b031680156116a95760048401805460ff81166116945760019060ff19161790553014907f1a938f65e4c6937f53440d5c5092d2cc6a2605276a3f59c370afd6f8c872610660408051858152846020820152a21561168b57610019916131fa565b61001991612ed0565b83633f8cbced60e21b60005260045260246000fd5b5063098354e960e41b60005260045260246000fd5b635a1c6a5960e01b6000523360045260246000fd5b34610495576000366003190112610495576020607754604051908152f35b34610495576000366003190112610495576000805160206139fb833981519152546040516001600160a01b039091168152602090f35b3461049557600036600319011261049557611740612e34565b611748612e6a565b6078548015610fab57600060788190555460045460405163a9059cbb60e01b60208201526001600160a01b039182166024820152604480820185905281527f882b59e624d24758290b53bf137b31994eac225496043b04354fc476a190806293926117be92166117b96064836129ab565b6138e2565b600454604080516001600160a01b03909216825260208201929092529081908101610f83565b3461049557600036600319011261049557602060ff607654166040519015158152f35b3461049557600036600319011261049557611820612e34565b611828612ea6565b600160ff19600080516020613a3b833981519152541617600080516020613a3b833981519152557f62e78cea01bee320cd4e420270b5ea74000d11b0c9f74754ebdbfc544b05a2586020604051338152a1005b346104955760203660031901126104955760043560005260706020526020604060002054604051908152f35b34610495576020366003190112610495576118c0612927565b6118c8612e34565b6118d0612e6a565b60ff8116906014821015611a7357601481101561059157600502600d015460081c60ff16611a5f57606e549061190582612ad0565b606e5560006071549161191783612ad0565b6071556002546040516371c8a23960e11b8152600481018590529260209184916024918391906001600160a01b03165af1918215610ca457600092611a2b575b5060048110156106185760405161196d81612973565b30815260208101948552611985604082019283612adf565b4260608201908152600060808301818152858252606f6020526040909120925183546001600160a01b0319166001600160a01b0391909116178355955160018301559151946002820190600487101561061857611a0a9360049260009860ff8019835416911617905551600384015551151591019060ff801983541691151516179055565b8252607060205260408220556001600080516020613a5b8339815191525580f35b90916020823d602011611a57575b81611a46602093836129ab565b81010312610c995750519084611957565b3d9150611a39565b632f8ecec960e21b60005260045260246000fd5b5063cba5131560e01b60005260045260246000fd5b3461049557606036600319011261049557611aa1612927565b602435604435611aaf612e34565b60ff8316906014821015611a7357601484101561059157600584029160ff600d84015460081c16611a5f576103e784118015611b9d575b611b8957507f156f6fef57e34329718d6efbd41f31a81afd51d967d24f97b94eb576dca20cfe93611b8491611b5c606e5494611b2186612ad0565b606e5560405190611b318261298f565b86825287602083015283604083015260006060830152600160808301524260a0830152600a01612b69565b60405194859485929360ff919594606093608086019786526020860152604085015216910152565b0390a1005b63cba5131560e01b60005260045260246000fd5b506103e78211611ae6565b34610495576000366003190112610495576001546040516001600160a01b039091168152602090f35b3461049557602036600319011261049557611bea612947565b611bf2612e34565b6001600160a01b038116908115610ec557607980546001600160a01b031981168417909155607a546001600160a01b03169283611c6d575b604080516001600160a01b038085168252851660208201527f0eddabe71b406678bf34d0b2d3e74836bc72759b47676dbf34ce08ef0a218b0d9181908101611b84565b6000936044602092604051968793849263095ea7b360e01b84526004840152811960248401525af18015610ca457611ca6575b82611c2a565b6020833d602011611cf7575b81611cbf602093836129ab565b8101031261049557611cf17f0eddabe71b406678bf34d0b2d3e74836bc72759b47676dbf34ce08ef0a218b0d93612b5c565b50611ca0565b3d9150611cb2565b3461049557600036600319011261049557611d18612e34565b6000805160206139fb83398151915280546001600160a01b031981169091556000906001600160a01b03167f8be0079c531659141344cd1fd0a4f28419497f9722a3daafe3b4186f6b6457e08280a3005b34610495576000366003190112610495576073546040516001600160a01b039091168152602090f35b346104955760203660031901126104955760043560048110156104955760ff611dbc6020926129e9565b5416604051908152f35b34610495576000366003190112610495576005546040516001600160a01b039091168152602090f35b34610495576000366003190112610495576002546040516001600160a01b039091168152602090f35b3461049557602036600319011261049557600435611e34612e34565b80156107695760407fc401b47db6ec4c8671a2f54cf3a5f3f7069c3b71b6c6ad9ed90f2c8cc9920b6a91607254908060725582519182526020820152a1005b3461049557600036600319011261049557602060ff600080516020613a3b83398151915254166040519015158152f35b3461049557600036600319011261049557602060405161012c8152f35b34610495576000366003190112610495577f00000000000000000000000000000000000000000000000000000000000000006001600160a01b03163003611f19576020604051600080516020613a1b8339815191528152f35b63703e46dd60e11b60005260046000fd5b604036600319011261049557611f3e612947565b6024359067ffffffffffffffff8211610495573660238301121561049557816004013590611f6b826129cd565b91611f7960405193846129ab565b8083526020830193366024838301011161049557816000926024602093018737840101526001600160a01b037f000000000000000000000000000000000000000000000000000000000000000016308114908115612120575b50611f1957611fdf612e34565b6040516352d1902d60e01b81526001600160a01b0382169390602081600481885afa600091816120ec575b506120245784634c9c8ce360e01b60005260045260246000fd5b80600080516020613a1b8339815191528692036120d85750823b156120c457600080516020613a1b83398151915280546001600160a01b031916821790557fbc7cd75a20ee27fd9adebab32041f755214dbc6bffa90cc0225b39da2e5c2d3b600080a28251156120a95760008091610019945190845af46120a3612aa0565b91613999565b505050346120b357005b63b398979f60e01b60005260046000fd5b634c9c8ce360e01b60005260045260246000fd5b632a87526960e21b60005260045260246000fd5b9091506020813d602011612118575b81612108602093836129ab565b810103126104955751908661200a565b3d91506120fb565b600080516020613a1b833981519152546001600160a01b03161415905084611fd2565b34610495576000366003190112610495576004546040516001600160a01b039091168152602090f35b34610495576000366003190112610495576020610fe4612aeb565b34610495576000366003190112610495576121a0612e34565b600080516020613a3b8339815191525460ff8116156121f95760ff1916600080516020613a3b833981519152557f5db9ee0a495bf2e6ff9c91a7834c1ba4fdd244a5e8aa4e537bd38aeae4b073aa6020604051338152a1005b638dfc202b60e01b60005260046000fd5b3461049557600036600319011261049557607a546040516001600160a01b039091168152602090f35b346104955760003660031901126104955760206040516125e48152f35b3461049557600036600319011261049557602060405160128152f35b346104955760003660031901126104955760206040516302f969e08152f35b34610495576000366003190112610495576020607b54604051908152f35b3461049557602036600319011261049557600435601481101561049557600560c0910280600a01549060ff600b82015491600c810154600e600d8301549201549360405195865260208601526040850152818116606085015260081c161515608083015260a0820152f35b34610495576000366003190112610495576003546040516001600160a01b039091168152602090f35b3461049557600036600319011261049557612356612bcc565b61235e612be8565b9061137561236a612c0a565b612372612c2d565b90604051948594859094939260609260808301968352602083015260408201520152565b346104955760a0366003190112610495576123af612947565b6123b761295d565b6044356001600160a01b03811690819003610495576064356001600160a01b0381169190829003610495576084356001600160a01b038116939084900361049557600080516020613a7b833981519152549460ff8660401c16159567ffffffffffffffff811680159081612623575b6001149081612619575b159081612610575b506125ff5767ffffffffffffffff198116600117600080516020613a7b83398151915255866125d2575b5061246b6138b4565b6124736138b4565b61247c33612dbe565b6124846138b4565b61248c6138b4565b6124946138b4565b6001600080516020613a5b833981519152556124ae6138b4565b6001600160a01b0316801580156125c1575b80156125b9575b80156125b1575b80156125a9575b610ec5576001600160601b0360a01b600054161760005560018060a01b03166001600160601b0360a01b60025416176002556001600160601b0360a01b60035416176003556001600160601b0360a01b60045416176004556001600160601b0360a01b60055416176005556001606e55600160715561255057005b68ff000000000000000019600080516020613a7b8339815191525416600080516020613a7b833981519152557fc7f505b2f371ae2175ee4913f4499e1f2633a7b5936321eed1cdaeb6115181d2602060405160018152a1005b5084156124d5565b5083156124ce565b5082156124c7565b506001600160a01b038216156124c0565b68ffffffffffffffffff19166801000000000000000117600080516020613a7b8339815191525586612462565b63f92ee8a960e01b60005260046000fd5b90501588612438565b303b159150612430565b889150612426565b3461049557604036600319011261049557612644612927565b61264c612937565b612654612e6a565b61265c612ea6565b60ff82166014811015611b89575060ff169060038211610779576014811015610591576005029060ff600d83600a0193015460081c16156128a9576004811015610618573360005260096020526126b7816040600020612a1b565b5490811561288b5760001982019182116128755760009133835260096020526126e38260408520612a1b565b55607154926126f184612ad0565b6071556002546040516371c8a23960e11b8152600481018690529360209185916024918391906001600160a01b03165af1928315610ca457600093612841575b5080549360405161274181612973565b33815260208101958652604081019061275a8583612adf565b4260608201908152600060808301818152888252606f6020526040909120925183546001600160a01b0319166001600160a01b039190911617835597516001830155915191966002820192906004821015610618576020986127e19460049360ff8019835416911617905551600384015551151591019060ff801983541691151516179055565b83600052607085526040600020555490604051918252838201528160408201527f5e0c015d137a94a9e864e17092fb126241c929614b46c3bc32163b46de9bf05b60603392a26001600080516020613a5b83398151915255604051908152f35b90926020823d60201161286d575b8161285c602093836129ab565b81010312610c995750519184612731565b3d915061284f565b634e487b7160e01b600052601160045260246000fd5b639f27773f60e01b6000526004526001602452600060445260646000fd5b50546332c3e47160e21b60005260045260246000fd5b34610495576000366003190112610495576128d8612e34565b6128e0612e6a565b6077548015610fab57600060775560008080808460018060a01b03600454165af1610f3a612aa0565b34610495576020366003190112610495576020610fe4600435612a46565b6004359060ff8216820361049557565b6024359060ff8216820361049557565b600435906001600160a01b038216820361049557565b602435906001600160a01b038216820361049557565b60a0810190811067ffffffffffffffff82111761044057604052565b60c0810190811067ffffffffffffffff82111761044057604052565b90601f8019910116810190811067ffffffffffffffff82111761044057604052565b67ffffffffffffffff811161044057601f01601f191660200190565b6004811015610618576000526075602052604060002090565b6004811015610618576000526074602052604060002090565b90600481101561061857600052602052604060002090565b8181029291811591840414171561287557565b6072548015612a9457905b68056bc75e2d6310000081029080820468056bc75e2d631000001490151715612875578115612a7e570490565b634e487b7160e01b600052601260045260246000fd5b506303d0900090612a51565b3d15612acb573d90612ab1826129cd565b91612abf60405193846129ab565b82523d6000602084013e565b606090565b60001981146128755760010190565b60048210156106185752565b6073546001600160a01b03168015612b5657602060049160405192838092630579ef8b60e51b82525afa908115610ca457600091612b27575090565b90506020813d602011612b4e575b81612b42602093836129ab565b81010312610495575190565b3d9150612b35565b50600090565b5190811515820361049557565b9060a06004918051845560208101516001850155604081015160028501556003840160ff806060840151161660ff198254161781556080820151151561ff0082549160081b169061ff0019161790550151910155565b9190820180921161287557565b612bd66000612a02565b548015612be05790565b50620f424090565b6000612bf46001612a02565b54908115612c00575090565b9050506298968090565b6000612c166002612a02565b54908115612c22575090565b90505063017d784090565b6000612c396003612a02565b54908115612c45575090565b9050506302f969e090565b612c5981612a02565b54908115612c65575090565b6004811015610618578015612caa5760018114612ca15760028114612c9757600314612c8e5790565b506302f969e090565b505063017d784090565b50506298968090565b5050620f424090565b60ff1660ff81146128755760010190565b67ffffffffffffffff81116104405760051b60200190565b60ff612ce860006129e9565b54168015612cf35790565b50600290565b600060ff612d0760016129e9565b5416908115612d14575090565b905050601490565b600060ff612d2a60026129e9565b5416908115612d37575090565b905050603290565b600060ff612d4d60036129e9565b5416908115612d5a575090565b905050606390565b60ff612d6d826129e9565b5416908115612d7a575090565b6004811015610618578015612db75760018114612db05760028114612da957600314612da35790565b50606390565b5050603290565b5050601490565b5050600290565b6001600160a01b03168015612e1e576000805160206139fb83398151915280546001600160a01b0319811683179091556001600160a01b03167f8be0079c531659141344cd1fd0a4f28419497f9722a3daafe3b4186f6b6457e0600080a3565b631e4fbdf760e01b600052600060045260246000fd5b6000805160206139fb833981519152546001600160a01b03163303612e5557565b63118cdaa760e01b6000523360045260246000fd5b6002600080516020613a5b8339815191525414612e95576002600080516020613a5b83398151915255565b633ee5aeb560e01b60005260046000fd5b60ff600080516020613a3b8339815191525416612ebf57565b63d93c066560e01b60005260046000fd5b90612ede600183015461393d565b901580156131dc575b6131d7576014811015610591576005029182600a019160ff612f0e81600285015416612d62565b166064820610156130f757505481546073546001600160a01b039283169491936000939092911680612f8b575b50917fe1ef7825c332c25296359d37af815442cbd1fd6d620d8271b4180bd68f834bb09391600e604094600080935582600b82015582600c82015582600d820155015582519182526020820152a2565b604051630579ef8b60e51b8152919391602081600481855afa9081156130ec5783916130b6575b501561306d57602082916024604051809481936378b5aa8f60e01b83528b60048401525af191821561306157809261302b575b5050917fe1ef7825c332c25296359d37af815442cbd1fd6d620d8271b4180bd68f834bb09391600e6040949261301c600854612ad0565b6008555b929450509193612f3b565b9091506020823d602011613059575b81613047602093836129ab565b81010312610c9957505181600e612fe5565b3d915061303a565b604051903d90823e3d90fd5b509160ff607654166130a757917fe1ef7825c332c25296359d37af815442cbd1fd6d620d8271b4180bd68f834bb09391600e604094613020565b633684ae4560e01b8352600483fd5b90506020813d6020116130e4575b816130d1602093836129ab565b810103126130e0575138612fb2565b8280fd5b3d91506130c4565b6040513d85823e3d90fd5b929160ff9160018060a01b0390541693600d8401938361311981875416612cb3565b1684198654161785556003848654161015613175575b50505491541660030360ff8111612875577fde2c7625951ef209e3b14dc5de7c713aaf12a680817df0ba922f064834ed47e49160ff6040928351928352166020820152a2565b7f991f141b1f67192a98969cd4005f41d17ef23a517c6975606af1c6f48a0ae37d91600c6060926103e8808460401c069360c01c06918184600b8594015501558519875416875584549160405192835260208301526040820152a1388061312f565b505050565b5060148110156105915760ff600d60058302015460081c1615612ee7565b9060ff6002830154169160048310156106185760148310156131d7576000600584029360ff600d86015460081c166132d0577f156f6fef57e34329718d6efbd41f31a81afd51d967d24f97b94eb576dca20cfe946132a1836132cb945060016103e88089069860801c06960192835491604051926132778461298f565b8352886020840152876040840152806060840152600160808401524260a084015250600a01612b69565b549260405194859485929360ff919594606093608086019786526020860152604085015216910152565b0390a1565b5050505050565b6040516323b872dd60e01b60208201526001600160a01b03928316602482015292909116604483015260648083019390935291815261331b916117b96084836129ab565b565b600061012c820282810461012c14831517156135e8576127109004808303928084116135d45761334f82607854612bbf565b60785561335e82600754612bbf565b6007556073546001600160a01b03169182151591826135c9575b505061338357505050565b8154604051636eb1769f60e11b81523060048201526001600160a01b03838116602483015290911690602081604481855afa9081156135be57849392918691859161357f575b501061350d575b50506073546001600160a01b03169050803b156135095781809160246040518094819363bc1ca3e960e01b83528860048401525af180156134fe5782906134ee575b60735460408051636c14397f60e11b81529492935091849160049183916001600160a01b03165af180156134e157613483575b50506020816134777f6a35e7a759100d73c502119478cb5ae1ca768bbe0205d011ed3b0f76c59207a893600654612bbf565b600655604051908152a1565b6040823d6040116134d9575b8161349c604093836129ab565b81010312610c9957507f6a35e7a759100d73c502119478cb5ae1ca768bbe0205d011ed3b0f76c59207a8916134d2602092612b5c565b5091613445565b3d915061348f565b50604051903d90823e3d90fd5b6134f7916129ab565b3881613412565b6040513d84823e3d90fd5b5080fd5b6044602092604051948593849263095ea7b360e01b8452600484015260001960248401525af180156134fe57613546575b8082916133d0565b6020813d602011613577575b8161355f602093836129ab565b810103126135095761357090612b5c565b503861353e565b3d9150613552565b9293945050506020813d6020116135b6575b8161359e602093836129ab565b810103126135b257908484939251386133c9565b8380fd5b3d9150613591565b6040513d86823e3d90fd5b141590503880613378565b634e487b7160e01b83526011600452602483fd5b634e487b7160e01b82526011600452602482fd5b607a5460009291906001600160a01b031683813b15610c99578291600460405180948193630d0e30db60e41b83525af180156135be576138a0575b50607a54607954604051636eb1769f60e11b81523060048201526001600160a01b0391821660248201819052869390921690602081604481855afa80156135be5785918591613869575b50106137f7575b5050607a5484544261012c810193506001600160a01b03918216929091169083106137e3576040519060e0820182811067ffffffffffffffff8211176137cf576040908152908252602080830193845230828401908152606084019586526080840187815260a085018a815260c086018b8152607954955163178ca23160e31b815296516001600160a01b03908116600489015297518816602488015292518716604487015296516064860152516084850152945160a48401529351831660c4830152909291839160e49183918991165af1938415613061579361379a575b5060407f163281e200d52c12c5ef9ed91205a1cbc94dadeebbc731ccb9a1dd4c09a10d5d918482519182526020820152a1565b9092506020813d6020116137c7575b816137b6602093836129ab565b810103126104955751916040613767565b3d91506137a9565b634e487b7160e01b88526041600452602488fd5b634e487b7160e01b86526011600452602486fd5b6044602092604051948593849263095ea7b360e01b8452600484015260001960248401525af180156135be57613830575b808491613688565b6020813d602011613861575b81613849602093836129ab565b810103126135b25761385a90612b5c565b5038613828565b3d915061383c565b945050506020833d602011613898575b81613886602093836129ab565b81010312610495578386935138613681565b3d9150613879565b836138ad919492946129ab565b9138613637565b60ff600080516020613a7b8339815191525460401c16156138d157565b631afcd79f60e31b60005260046000fd5b906000602091828151910182855af115610ca4576000513d61393457506001600160a01b0381163b155b6139135750565b635274afe760e01b60009081526001600160a01b0391909116600452602490fd5b6001141561390c565b9060005b601460ff8216106139555750600091508190565b601481101561059157600581028381600a0154149081613987575b506139805760010160ff16613941565b6001925090565b60ff9150600d015460081c1638613970565b906139bf57508051156139ae57602081519101fd5b63d6bda27560e01b60005260046000fd5b815115806139f1575b6139d0575090565b639996b31560e01b60009081526001600160a01b0391909116600452602490fd5b50803b156139c856fe9016d09d72d40fdae2fd8ceac6b6234c7706214fd39c1cd1e609a0528c199300360894a13ba1a3210667c828492db98dca3e2076cc3735a920a3ca505d382bbccd5ed15c6e187e77e9aee88184c21f4f2182ab5827cb3b7e07fbedcd63f033009b779b17422d0df92223018b32b4d1fa46e071723d6817e2486d003becc55f00f0c57e16840df040f15088dc2f81fe391c3923bec73e23a9662efc9c229c6a00a264697066735822122006652b4915ee02593f735a738126a7efd5d26cea139262328453d60f83b8306e64736f6c634300081a0033",
  "linkReferences": {},
  "deployedLinkReferences": {}
}