{
  "_format": "hh-sol-artifact-1",
  "contractName": "SlabNFTManager",
  "sourceName": "contracts/SlabNFTManager.sol",
  "abi": [
    {
      "inputs": [],
      "stateMutability": "nonpayable",
      "type": "constructor"
    },
    {
      "inputs": [
        {
          "internalType": "address",
          "name": "target",
          "type": "address"
        }
      ],
      "name": "AddressEmptyCode",
      "type": "error"
    },
    {
      "inputs": [
        {
          "internalType": "uint256",
          "name": "balance",
          "type": "uint256"
        },
        {
          "internalType": "uint256",
          "name": "threshold",
          "type": "uint256"
        }
      ],
      "name": "BelowPurchaseThreshold",
      "type": "error"
    },
    {
      "inputs": [
        {
          "internalType": "address",
          "name": "implementation",
          "type": "address"
        }
      ],
      "name": "ERC1967InvalidImplementation",
      "type": "error"
    },
    {
      "inputs": [],
      "name": "ERC1967NonPayable",
      "type": "error"
    },
    {
      "inputs": [],
      "name": "EnforcedPause",
      "type": "error"
    },
    {
      "inputs": [],
      "name": "ExpectedPause",
      "type": "error"
    },
    {
      "inputs": [],
      "name": "FailedCall",
      "type": "error"
    },
    {
      "inputs": [
        {
          "internalType": "uint256",
          "name": "required",
          "type": "uint256"
        },
        {
          "internalType": "uint256",
          "name": "available",
          "type": "uint256"
        }
      ],
      "name": "InsufficientBalance",
      "type": "error"
    },
    {
      "inputs": [],
      "name": "InvalidAmount",
      "type": "error"
    },
    {
      "inputs": [],
      "name": "InvalidInitialization",
      "type": "error"
    },
    {
      "inputs": [],
      "name": "InvalidTokenId",
      "type": "error"
    },
    {
      "inputs": [],
      "name": "InventoryEmpty",
      "type": "error"
    },
    {
      "inputs": [
        {
          "internalType": "uint8",
          "name": "maxSize",
          "type": "uint8"
        }
      ],
      "name": "InventoryFull",
      "type": "error"
    },
    {
      "inputs": [
        {
          "internalType": "address",
          "name": "caller",
          "type": "address"
        }
      ],
      "name": "NotAuthorized",
      "type": "error"
    },
    {
      "inputs": [],
      "name": "NotInitializing",
      "type": "error"
    },
    {
      "inputs": [
        {
          "internalType": "address",
          "name": "owner",
          "type": "address"
        }
      ],
      "name": "OwnableInvalidOwner",
      "type": "error"
    },
    {
      "inputs": [
        {
          "internalType": "address",
          "name": "account",
          "type": "address"
        }
      ],
      "name": "OwnableUnauthorizedAccount",
      "type": "error"
    },
    {
      "inputs": [],
      "name": "PurchaseAlreadyPending",
      "type": "error"
    },
    {
      "inputs": [],
      "name": "ReentrancyGuardReentrantCall",
      "type": "error"
    },
    {
      "inputs": [
        {
          "internalType": "address",
          "name": "token",
          "type": "address"
        }
      ],
      "name": "SafeERC20FailedOperation",
      "type": "error"
    },
    {
      "inputs": [
        {
          "internalType": "uint256",
          "name": "tokenId",
          "type": "uint256"
        }
      ],
      "name": "TokenNotInInventory",
      "type": "error"
    },
    {
      "inputs": [],
      "name": "TransferFailed",
      "type": "error"
    },
    {
      "inputs": [],
      "name": "UUPSUnauthorizedCallContext",
      "type": "error"
    },
    {
      "inputs": [
        {
          "internalType": "bytes32",
          "name": "slot",
          "type": "bytes32"
        }
      ],
      "name": "UUPSUnsupportedProxiableUUID",
      "type": "error"
    },
    {
      "inputs": [],
      "name": "ZeroAddress",
      "type": "error"
    },
    {
      "anonymous": false,
      "inputs": [
        {
          "indexed": true,
          "internalType": "address",
          "name": "recipient",
          "type": "address"
        },
        {
          "indexed": false,
          "internalType": "uint256",
          "name": "usdcAmount",
          "type": "uint256"
        },
        {
          "indexed": false,
          "internalType": "uint256",
          "name": "nftCount",
          "type": "uint256"
        }
      ],
      "name": "EmergencyWithdrawal",
      "type": "event"
    },
    {
      "anonymous": false,
      "inputs": [
        {
          "indexed": false,
          "internalType": "uint64",
          "name": "version",
          "type": "uint64"
        }
      ],
      "name": "Initialized",
      "type": "event"
    },
    {
      "anonymous": false,
      "inputs": [
        {
          "indexed": true,
          "internalType": "address",
          "name": "winner",
          "type": "address"
        },
        {
          "indexed": true,
          "internalType": "uint256",
          "name": "tokenId",
          "type": "uint256"
        },
        {
          "indexed": false,
          "internalType": "uint256",
          "name": "remainingInventory",
          "type": "uint256"
        }
      ],
      "name": "NFTAwarded",
      "type": "event"
    },
    {
      "anonymous": false,
      "inputs": [
        {
          "indexed": true,
          "internalType": "uint256",
          "name": "requestId",
          "type": "uint256"
        },
        {
          "indexed": false,
          "internalType": "uint256",
          "name": "amount",
          "type": "uint256"
        },
        {
          "indexed": false,
          "internalType": "address",
          "name": "recipient",
          "type": "address"
        }
      ],
      "name": "NFTPurchaseInitiated",
      "type": "event"
    },
    {
      "anonymous": false,
      "inputs": [
        {
          "indexed": true,
          "internalType": "uint256",
          "name": "tokenId",
          "type": "uint256"
        },
        {
          "indexed": false,
          "internalType": "uint256",
          "name": "inventorySize",
          "type": "uint256"
        }
      ],
      "name": "NFTReceived",
      "type": "event"
    },
    {
      "anonymous": false,
      "inputs": [
        {
          "indexed": true,
          "internalType": "address",
          "name": "previousOwner",
          "type": "address"
        },
        {
          "indexed": true,
          "internalType": "address",
          "name": "newOwner",
          "type": "address"
        }
      ],
      "name": "OwnershipTransferred",
      "type": "event"
    },
    {
      "anonymous": false,
      "inputs": [
        {
          "indexed": false,
          "internalType": "address",
          "name": "account",
          "type": "address"
        }
      ],
      "name": "Paused",
      "type": "event"
    },
    {
      "anonymous": false,
      "inputs": [
        {
          "indexed": false,
          "internalType": "address",
          "name": "oldAddress",
          "type": "address"
        },
        {
          "indexed": false,
          "internalType": "address",
          "name": "newAddress",
          "type": "address"
        }
      ],
      "name": "PokeballGameUpdated",
      "type": "event"
    },
    {
      "anonymous": false,
      "inputs": [
        {
          "indexed": true,
          "internalType": "address",
          "name": "depositor",
          "type": "address"
        },
        {
          "indexed": false,
          "internalType": "uint256",
          "name": "amount",
          "type": "uint256"
        },
        {
          "indexed": false,
          "internalType": "uint256",
          "name": "newBalance",
          "type": "uint256"
        }
      ],
      "name": "RevenueDeposited",
      "type": "event"
    },
    {
      "anonymous": false,
      "inputs": [
        {
          "indexed": false,
          "internalType": "address",
          "name": "oldAddress",
          "type": "address"
        },
        {
          "indexed": false,
          "internalType": "address",
          "name": "newAddress",
          "type": "address"
        }
      ],
      "name": "TreasuryWalletUpdated",
      "type": "event"
    },
    {
      "anonymous": false,
      "inputs": [
        {
          "indexed": false,
          "internalType": "address",
          "name": "account",
          "type": "address"
        }
      ],
      "name": "Unpaused",
      "type": "event"
    },
    {
      "anonymous": false,
      "inputs": [
        {
          "indexed": true,
          "internalType": "address",
          "name": "implementation",
          "type": "address"
        }
      ],
      "name": "Upgraded",
      "type": "event"
    },
    {
      "inputs": [],
      "name": "AUTO_PURCHASE_THRESHOLD",
      "outputs": [
        {
          "internalType": "uint256",
          "name": "",
          "type": "uint256"
        }
      ],
      "stateMutability": "view",
      "type": "function"
    },
    {
      "inputs": [],
      "name": "MAX_INVENTORY_SIZE",
      "outputs": [
        {
          "internalType": "uint8",
          "name": "",
          "type": "uint8"
        }
      ],
      "stateMutability": "view",
      "type": "function"
    },
    {
      "inputs": [],
      "name": "UPGRADE_INTERFACE_VERSION",
      "outputs": [
        {
          "internalType": "string",
          "name": "",
          "type": "string"
        }
      ],
      "stateMutability": "view",
      "type": "function"
    },
    {
      "inputs": [],
      "name": "USDC_DECIMALS",
      "outputs": [
        {
          "internalType": "uint8",
          "name": "",
          "type": "uint8"
        }
      ],
      "stateMutability": "view",
      "type": "function"
    },
    {
      "inputs": [
        {
          "internalType": "address",
          "name": "winner",
          "type": "address"
        }
      ],
      "name": "awardNFTToWinner",
      "outputs": [
        {
          "internalType": "uint256",
          "name": "tokenId",
          "type": "uint256"
        }
      ],
      "stateMutability": "nonpayable",
      "type": "function"
    },
    {
      "inputs": [
        {
          "internalType": "address",
          "name": "winner",
          "type": "address"
        },
        {
          "internalType": "uint256",
          "name": "tokenId",
          "type": "uint256"
        }
      ],
      "name": "awardSpecificNFT",
      "outputs": [
        {
          "internalType": "bool",
          "name": "success",
          "type": "bool"
        }
      ],
      "stateMutability": "nonpayable",
      "type": "function"
    },
    {
      "inputs": [],
      "name": "canAutoPurchase",
      "outputs": [
        {
          "internalType": "bool",
          "name": "canPurchase",
          "type": "bool"
        },
        {
          "internalType": "uint256",
          "name": "currentBalance",
          "type": "uint256"
        },
        {
          "internalType": "uint256",
          "name": "threshold",
          "type": "uint256"
        },
        {
          "internalType": "uint256",
          "name": "pullPrice",
          "type": "uint256"
        }
      ],
      "stateMutability": "view",
      "type": "function"
    },
    {
      "inputs": [],
      "name": "checkAndPurchaseNFT",
      "outputs": [
        {
          "internalType": "bool",
          "name": "purchased",
          "type": "bool"
        },
        {
          "internalType": "uint256",
          "name": "requestId",
          "type": "uint256"
        }
      ],
      "stateMutability": "nonpayable",
      "type": "function"
    },
    {
      "inputs": [
        {
          "internalType": "uint256",
          "name": "amount",
          "type": "uint256"
        }
      ],
      "name": "depositRevenue",
      "outputs": [],
      "stateMutability": "nonpayable",
      "type": "function"
    },
    {
      "inputs": [],
      "name": "emergencyWithdraw",
      "outputs": [],
      "stateMutability": "nonpayable",
      "type": "function"
    },
    {
      "inputs": [],
      "name": "forcePurchaseNFT",
      "outputs": [
        {
          "internalType": "uint256",
          "name": "requestId",
          "type": "uint256"
        }
      ],
      "stateMutability": "nonpayable",
      "type": "function"
    },
    {
      "inputs": [],
      "name": "getInventory",
      "outputs": [
        {
          "internalType": "uint256[]",
          "name": "tokenIds",
          "type": "uint256[]"
        }
      ],
      "stateMutability": "view",
      "type": "function"
    },
    {
      "inputs": [],
      "name": "getInventoryCount",
      "outputs": [
        {
          "internalType": "uint256",
          "name": "count",
          "type": "uint256"
        }
      ],
      "stateMutability": "view",
      "type": "function"
    },
    {
      "inputs": [],
      "name": "getStats",
      "outputs": [
        {
          "internalType": "uint256",
          "name": "nftsPurchased",
          "type": "uint256"
        },
        {
          "internalType": "uint256",
          "name": "nftsAwarded",
          "type": "uint256"
        },
        {
          "internalType": "uint256",
          "name": "usdcSpent",
          "type": "uint256"
        },
        {
          "internalType": "uint256",
          "name": "currentInventory",
          "type": "uint256"
        },
        {
          "internalType": "uint256",
          "name": "currentBalance",
          "type": "uint256"
        }
      ],
      "stateMutability": "view",
      "type": "function"
    },
    {
      "inputs": [],
      "name": "getUSDCBalance",
      "outputs": [
        {
          "internalType": "uint256",
          "name": "balance",
          "type": "uint256"
        }
      ],
      "stateMutability": "view",
      "type": "function"
    },
    {
      "inputs": [],
      "name": "hasInventorySpace",
      "outputs": [
        {
          "internalType": "bool",
          "name": "hasSpace",
          "type": "bool"
        },
        {
          "internalType": "uint8",
          "name": "availableSlots",
          "type": "uint8"
        }
      ],
      "stateMutability": "view",
      "type": "function"
    },
    {
      "inputs": [
        {
          "internalType": "address",
          "name": "_owner",
          "type": "address"
        },
        {
          "internalType": "address",
          "name": "_treasury",
          "type": "address"
        },
        {
          "internalType": "address",
          "name": "_usdce",
          "type": "address"
        },
        {
          "internalType": "address",
          "name": "_slabMachine",
          "type": "address"
        },
        {
          "internalType": "address",
          "name": "_slabNFT",
          "type": "address"
        },
        {
          "internalType": "address",
          "name": "_pokeballGame",
          "type": "address"
        }
      ],
      "name": "initialize",
      "outputs": [],
      "stateMutability": "nonpayable",
      "type": "function"
    },
    {
      "inputs": [
        {
          "internalType": "uint256",
          "name": "",
          "type": "uint256"
        }
      ],
      "name": "isInInventory",
      "outputs": [
        {
          "internalType": "bool",
          "name": "",
          "type": "bool"
        }
      ],
      "stateMutability": "view",
      "type": "function"
    },
    {
      "inputs": [
        {
          "internalType": "uint256",
          "name": "tokenId",
          "type": "uint256"
        }
      ],
      "name": "isTokenInInventory",
      "outputs": [
        {
          "internalType": "bool",
          "name": "inInventory",
          "type": "bool"
        }
      ],
      "stateMutability": "view",
      "type": "function"
    },
    {
      "inputs": [
        {
          "internalType": "uint256",
          "name": "",
          "type": "uint256"
        }
      ],
      "name": "nftInventory",
      "outputs": [
        {
          "internalType": "uint256",
          "name": "",
          "type": "uint256"
        }
      ],
      "stateMutability": "view",
      "type": "function"
    },
    {
      "inputs": [
        {
          "internalType": "address",
          "name": "",
          "type": "address"
        },
        {
          "internalType": "address",
          "name": "",
          "type": "address"
        },
        {
          "internalType": "uint256",
          "name": "tokenId",
          "type": "uint256"
        },
        {
          "internalType": "bytes",
          "name": "",
          "type": "bytes"
        }
      ],
      "name": "onERC721Received",
      "outputs": [
        {
          "internalType": "bytes4",
          "name": "",
          "type": "bytes4"
        }
      ],
      "stateMutability": "nonpayable",
      "type": "function"
    },
    {
      "inputs": [],
      "name": "owner",
      "outputs": [
        {
          "internalType": "address",
          "name": "",
          "type": "address"
        }
      ],
      "stateMutability": "view",
      "type": "function"
    },
    {
      "inputs": [],
      "name": "pause",
      "outputs": [],
      "stateMutability": "nonpayable",
      "type": "function"
    },
    {
      "inputs": [],
      "name": "paused",
      "outputs": [
        {
          "internalType": "bool",
          "name": "",
          "type": "bool"
        }
      ],
      "stateMutability": "view",
      "type": "function"
    },
    {
      "inputs": [
        {
          "internalType": "uint256",
          "name": "",
          "type": "uint256"
        }
      ],
      "name": "pendingPullRequests",
      "outputs": [
        {
          "internalType": "address",
          "name": "",
          "type": "address"
        }
      ],
      "stateMutability": "view",
      "type": "function"
    },
    {
      "inputs": [],
      "name": "pendingRequestCount",
      "outputs": [
        {
          "internalType": "uint256",
          "name": "",
          "type": "uint256"
        }
      ],
      "stateMutability": "view",
      "type": "function"
    },
    {
      "inputs": [],
      "name": "pokeballGame",
      "outputs": [
        {
          "internalType": "address",
          "name": "",
          "type": "address"
        }
      ],
      "stateMutability": "view",
      "type": "function"
    },
    {
      "inputs": [],
      "name": "proxiableUUID",
      "outputs": [
        {
          "internalType": "bytes32",
          "name": "",
          "type": "bytes32"
        }
      ],
      "stateMutability": "view",
      "type": "function"
    },
    {
      "inputs": [],
      "name": "renounceOwnership",
      "outputs": [],
      "stateMutability": "nonpayable",
      "type": "function"
    },
    {
      "inputs": [
        {
          "internalType": "address",
          "name": "_pokeballGame",
          "type": "address"
        }
      ],
      "name": "setPokeballGame",
      "outputs": [],
      "stateMutability": "nonpayable",
      "type": "function"
    },
    {
      "inputs": [
        {
          "internalType": "address",
          "name": "_treasury",
          "type": "address"
        }
      ],
      "name": "setTreasuryWallet",
      "outputs": [],
      "stateMutability": "nonpayable",
      "type": "function"
    },
    {
      "inputs": [],
      "name": "slabMachine",
      "outputs": [
        {
          "internalType": "contract ISlabMachine",
          "name": "",
          "type": "address"
        }
      ],
      "stateMutability": "view",
      "type": "function"
    },
    {
      "inputs": [],
      "name": "slabNFT",
      "outputs": [
        {
          "internalType": "contract IERC721",
          "name": "",
          "type": "address"
        }
      ],
      "stateMutability": "view",
      "type": "function"
    },
    {
      "inputs": [
        {
          "internalType": "uint256",
          "name": "",
          "type": "uint256"
        }
      ],
      "name": "tokenIdToIndex",
      "outputs": [
        {
          "internalType": "uint256",
          "name": "",
          "type": "uint256"
        }
      ],
      "stateMutability": "view",
      "type": "function"
    },
    {
      "inputs": [],
      "name": "totalNFTsAwarded",
      "outputs": [
        {
          "internalType": "uint256",
          "name": "",
          "type": "uint256"
        }
      ],
      "stateMutability": "view",
      "type": "function"
    },
    {
      "inputs": [],
      "name": "totalNFTsPurchased",
      "outputs": [
        {
          "internalType": "uint256",
          "name": "",
          "type": "uint256"
        }
      ],
      "stateMutability": "view",
      "type": "function"
    },
    {
      "inputs": [],
      "name": "totalUSDCSpent",
      "outputs": [
        {
          "internalType": "uint256",
          "name": "",
          "type": "uint256"
        }
      ],
      "stateMutability": "view",
      "type": "function"
    },
    {
      "inputs": [
        {
          "internalType": "address",
          "name": "newOwner",
          "type": "address"
        }
      ],
      "name": "transferOwnership",
      "outputs": [],
      "stateMutability": "nonpayable",
      "type": "function"
    },
    {
      "inputs": [],
      "name": "treasuryWallet",
      "outputs": [
        {
          "internalType": "address",
          "name": "",
          "type": "address"
        }
      ],
      "stateMutability": "view",
      "type": "function"
    },
    {
      "inputs": [],
      "name": "unpause",
      "outputs": [],
      "stateMutability": "nonpayable",
      "type": "function"
    },
    {
      "inputs": [
        {
          "internalType": "address",
          "name": "newImplementation",
          "type": "address"
        },
        {
          "internalType": "bytes",
          "name": "data",
          "type": "bytes"
        }
      ],
      "name": "upgradeToAndCall",
      "outputs": [],
      "stateMutability": "payable",
      "type": "function"
    },
    {
      "inputs": [],
      "name": "usdce",
      "outputs": [
        {
          "internalType": "contract IERC20",
          "name": "",
          "type": "address"
        }
      ],
      "stateMutability": "view",
      "type": "function"
    }
  ],
  "bytecode": "0x60a080604052346100ea57306080527ff0c57e16840df040f15088dc2f81fe391c3923bec73e23a9662efc9c229c6a005460ff8160401c166100d9576002600160401b03196001600160401b03821601610073575b6040516122f690816100f082396080518181816113f801526114c90152f35b6001600160401b0319166001600160401b039081177ff0c57e16840df040f15088dc2f81fe391c3923bec73e23a9662efc9c229c6a005581527fc7f505b2f371ae2175ee4913f4499e1f2633a7b5936321eed1cdaeb6115181d290602090a13880610054565b63f92ee8a960e01b60005260046000fd5b600080fdfe6080604052600436101561001257600080fd5b6000803560e01c8063150b7a021461184157806325c61fcd1461181857806326ec0fbe146117ee57806331e2c022146117d05780633cfd1ccc146117455780633f4ba83a146116c35780634626402b1461169a5780634f1ef2861461144d57806352d1902d146113e5578063569ffd42146113b65780635bf7117a1461138d5780635c975abb1461135d5780635d7f850c146112a7578063715018a61461123d578063753089f7146111dd57806377d983c9146111b457806378b5aa8f1461116c5780637c597f4e1461114e5780637d8dbe571461111b5780638290959714610fb957806382b65bef14610f7f5780638456cb5914610f0a5780638da5cb5b14610ed4578063a8602fea14610e49578063ad3cb1cc14610dcf578063af3df16014610db1578063b309a85714610c5d578063b6efd54014610bc1578063bc1ca3e914610a96578063c1419def14610a7a578063c59d4847146109bf578063cc2a9a5b14610733578063d33953ba1461070c578063d3e04145146106ed578063d82872fe14610654578063db2e21bc146103f0578063e0abba57146103d2578063e155d79e146103b4578063e18bbf5b14610398578063ef33794814610249578063f2fde38b1461021c5763fbd7ec9e146101eb57600080fd5b346102195760203660031901126102195760ff60406020926004358152600684522054166040519015158152f35b80fd5b5034610219576020366003190112610219576102466102396119a6565b610241611c31565b611bbb565b80f35b503461021957806003193601126102195780546040516370a0823160e01b815230600482015290602090829060249082906001600160a01b03165afa90811561038d578291610356575b50600154604051632dabc24f60e01b81529060a090829060049082906001600160a01b03165afa90811561034b5760809391610317575b5063030a32c0821015918261030c575b826102fe575b6040519215158352602083015263030a32c060408301526060820152f35b9150600a60055410916102e0565b8181101592506102da565b610339915060a03d60a011610344575b61033181836119d2565b810190611b94565b9350505050386102ca565b503d610327565b6040513d85823e3d90fd5b90506020813d602011610385575b81610371602093836119d2565b81010312610380575138610293565b600080fd5b3d9150610364565b6040513d84823e3d90fd5b50346102195780600319360112610219576020604051600a8152f35b50346102195780600319360112610219576020600854604051908152f35b50346102195780600319360112610219576020600c54604051908152f35b5034610219578060031936011261021957610409611c31565b610411611c67565b80546040516370a0823160e01b81523060048201526001600160a01b0390911690602081602481855afa90811561034b578391610622575b506005549181806105d0575b5050825b828110610523575060055483600555806104c3575b506004546040805192835260208301939093526001600160a01b0316917f56da9a5ae0bcf6e7c3fdd78a10550e7d0458de1c39bfb7f6e96a3e92dd344a6891a260016000805160206122818339815191525580f35b600584527f036b6384b5eca791c62761152d0c79bb0604c104a5fb6f4eb0703f3154bb3db0017f036b6384b5eca791c62761152d0c79bb0604c104a5fb6f4eb0703f3154bb3db05b818110610518575061046e565b84815560010161050b565b61052c81611a26565b90549060031b1c908460018060a01b036002541660018060a01b036004541690803b156105cc57604051632142170760e11b81523060048201526001600160a01b039290921660248301526044820185905282908290606490829084905af1801561038d576105b3575b50916001925260066020526040852060ff19815416905501610459565b816105bd916119d2565b6105c8578438610596565b8480fd5b8280fd5b60045460405163a9059cbb60e01b60208201526001600160a01b039091166024820152604481019190915261061b9161061682606481015b03601f1981018452836119d2565b612136565b3881610455565b90506020813d60201161064c575b8161063d602093836119d2565b81010312610380575138610449565b3d9150610630565b503461021957806003193601126102195761066d611c67565b610675611ca3565b6003546001600160a01b0316331415806106cb575b6106b8576040610698612024565b600160008051602061228183398151915255825191151582526020820152f35b634a0bfec160e01b815233600452602490fd5b50600080516020612221833981519152546001600160a01b031633141561068a565b5034610219578060031936011261021957602060405163030a32c08152f35b5034610219578060031936011261021957546040516001600160a01b039091168152602090f35b50346102195760c03660031901126102195761074d6119a6565b6107556119bc565b906044356001600160a01b03811691908290036109bb576064356001600160a01b038116908190036105c8576084356001600160a01b03811691908290036109b75760a4356001600160a01b03811694908590036109b3576000805160206122a1833981519152549560ff8760401c16159667ffffffffffffffff8116801590816109ab575b60011490816109a1575b159081610998575b506109895767ffffffffffffffff1981166001176000805160206122a1833981519152558761095c575b506001600160a01b0385161561094d576001600160a01b031693841561094d57811561094d57821561094d57831561094d5761085d90610855612191565b610241612191565b610865612191565b61086d612191565b610875612191565b60016000805160206122818339815191525561088f612191565b6001600160601b0360a01b8754161786556001600160601b0360a01b60015416176001556001600160601b0360a01b60025416176002556001600160601b0360a01b60045416176004556001600160601b0360a01b60035416176003556108f35780f35b68ff0000000000000000196000805160206122a183398151915254166000805160206122a1833981519152557fc7f505b2f371ae2175ee4913f4499e1f2633a7b5936321eed1cdaeb6115181d2602060405160018152a180f35b63d92e233d60e01b8852600488fd5b68ffffffffffffffffff191668010000000000000001176000805160206122a18339815191525538610817565b63f92ee8a960e01b8952600489fd5b905015386107ed565b303b1591506107e5565b8991506107db565b8680fd5b8580fd5b8380fd5b5034610219578060031936011261021957600854600954600a5460055484546040516370a0823160e01b8152306004820152959391929190602090879060249082906001600160a01b03165afa938415610a6e5793610a39575b60a095506040519485526020850152604084015260608301526080820152f35b92506020853d602011610a66575b81610a54602093836119d2565b810103126103805760a0945192610a19565b3d9150610a47565b604051903d90823e3d90fd5b5034610219578060031936011261021957602060405160068152f35b503461021957602036600319011261021957600435610ab3611c67565b610abb611ca3565b8015610bb25781546040516323b872dd60e01b602082015233602482015230604482015260648101839052610b00916001600160a01b03166106168260848101610608565b81546040516370a0823160e01b815230600482015290602090829060249082906001600160a01b03165afa90811561034b578391610b80575b5060405191825260208201527f2f22b7f6e7f7df7d0eb3d1a543a2b6eb906e76a03540c2d66d2725270a5f6d3160403392a260016000805160206122818339815191525580f35b90506020813d602011610baa575b81610b9b602093836119d2565b81010312610380575138610b39565b3d9150610b8e565b63162908e360e11b8252600482fd5b503461021957602036600319011261021957610bdb6119a6565b610be3611c31565b6001600160a01b0381168015610c4e57600380546001600160a01b031981169092179055604080516001600160a01b0392831681529190921660208201527ff66399fe71a8aeef123694608632ea96ea22bb57f3831b48be1edd314bd320cb91819081015b0390a180f35b63d92e233d60e01b8352600483fd5b503461021957604036600319011261021957610c776119a6565b60243591610c83611c67565b610c8b611ca3565b6003546001600160a01b031633036106b8576001600160a01b038216918215610da257838252600660205260ff60408320541615610d8e57610ccc84611ccd565b6002546001600160a01b031690813b156105cc57604051632142170760e11b81523060048201526001600160a01b03919091166024820152604481018590529082908290606490829084905af1801561038d57610d7e575b5050610d31600954611a57565b6009557f55144f84a06aba3b3a5c49b5d2d0d2a1fed9e25f465a2cc0f4a23b883c4782156020600554604051908152a3600160008051602061228183398151915255602060405160018152f35b81610d88916119d2565b38610d24565b6329762dbf60e21b82526004849052602482fd5b63d92e233d60e01b8252600482fd5b50346102195780600319360112610219576020600554604051908152f35b50346102195780600319360112610219576040805191610def82846119d2565b60058352640352e302e360dc1b6020840152815192839160208352815191826020850152815b838110610e32575050828201840152601f01601f19168101030190f35b602082820181015188830188015287955001610e15565b503461021957602036600319011261021957610e636119a6565b610e6b611c31565b6001600160a01b0381168015610c4e57600480546001600160a01b031981169092179055604080516001600160a01b0392831681529190921660208201527fa982575859d7ad2f390dc12b23f7dab8bbda047f9d0140ac68344b27bf34bfb49181908101610c48565b5034610219578060031936011261021957600080516020612221833981519152546040516001600160a01b039091168152602090f35b5034610219578060031936011261021957610f23611c31565b610f2b611ca3565b600160ff19600080516020612261833981519152541617600080516020612261833981519152557f62e78cea01bee320cd4e420270b5ea74000d11b0c9f74754ebdbfc544b05a2586020604051338152a180f35b50346102195760203660031901126102195760043590600554821015610219576020610faa83611a26565b90549060031b1c604051908152f35b5034610219578060031936011261021957610fd2611c67565b610fda611ca3565b610fe2611c31565b600a600554101561110757600154604051632dabc24f60e01b8152919060a090839060049082906001600160a01b03165afa9182156110fa5781926110d4575b5080546040516370a0823160e01b815230600482015290602090829060249082906001600160a01b03165afa90811561038d57829161109e575b5082811061108957602061106f84611dc4565b600160008051602061228183398151915255604051908152f35b60449263cf47918160e01b8352600452602452fd5b90506020813d6020116110cc575b816110b9602093836119d2565b810103126110c857513861105c565b5080fd5b3d91506110ac565b6110ee91925060a03d60a0116103445761033181836119d2565b93505050509038611022565b50604051903d90823e3d90fd5b630c6fb6e960e31b8152600a600452602490fd5b5034610219576020366003190112610219576020906004358152600b8252604060018060a01b0391205416604051908152f35b50346102195780600319360112610219576020600954604051908152f35b5034610219576020366003190112610219576111866119a6565b9061118f611c67565b611197611ca3565b6003546001600160a01b031633036106b857602061106f83611a7c565b50346102195780600319360112610219576003546040516001600160a01b039091168152602090f35b5034610219578060031936011261021957600554600a811090811561123257600a0391600a831161121e575060ff80604093165b8351928352166020820152f35b634e487b7160e01b81526011600452602490fd5b5060ff604092611211565b5034610219578060031936011261021957611256611c31565b60008051602061222183398151915280546001600160a01b0319811690915581906001600160a01b03167f8be0079c531659141344cd1fd0a4f28419497f9722a3daafe3b4186f6b6457e08280a380f35b503461021957806003193601126102195760405180602060055491828152018091600585527f036b6384b5eca791c62761152d0c79bb0604c104a5fb6f4eb0703f3154bb3db090855b81811061134757505050826113069103836119d2565b604051928392602084019060208552518091526040840192915b81811061132e575050500390f35b8251845285945060209384019390920191600101611320565b82548452602090930192600192830192016112f0565b5034610219578060031936011261021957602060ff60008051602061226183398151915254166040519015158152f35b50346102195780600319360112610219576001546040516001600160a01b039091168152602090f35b50346102195760203660031901126102195760ff60406020926004358152600684522054166040519015158152f35b50346102195780600319360112610219577f00000000000000000000000000000000000000000000000000000000000000006001600160a01b0316300361143e5760206040516000805160206122418339815191528152f35b63703e46dd60e11b8152600490fd5b506040366003190112610219576114626119a6565b6024359067ffffffffffffffff82116105cc57366023830112156105cc578160040135908361149083611a0a565b9361149e60405195866119d2565b838552602085019336602482840101116105cc57806024602093018637850101526001600160a01b037f000000000000000000000000000000000000000000000000000000000000000016308114908115611677575b5061166857611501611c31565b6040516352d1902d60e01b81526001600160a01b0382169390602081600481885afa869181611634575b5061154457634c9c8ce360e01b86526004859052602486fd5b93846000805160206122418339815191528796036116225750823b156116105760008051602061224183398151915280546001600160a01b031916821790558491907fbc7cd75a20ee27fd9adebab32041f755214dbc6bffa90cc0225b39da2e5c2d3b8380a28051156115f5576115e99382915190845af43d156115ed573d916115cd83611a0a565b926115db60405194856119d2565b83523d85602085013e6121bf565b5080f35b6060916121bf565b50505050346116015780f35b63b398979f60e01b8152600490fd5b634c9c8ce360e01b8552600452602484fd5b632a87526960e21b8652600452602485fd5b9091506020813d602011611660575b81611650602093836119d2565b810103126109b35751903861152b565b3d9150611643565b63703e46dd60e11b8452600484fd5b600080516020612241833981519152546001600160a01b031614159050386114f4565b50346102195780600319360112610219576004546040516001600160a01b039091168152602090f35b50346102195780600319360112610219576116dc611c31565b6000805160206122618339815191525460ff8116156117365760ff1916600080516020612261833981519152557f5db9ee0a495bf2e6ff9c91a7834c1ba4fdd244a5e8aa4e537bd38aeae4b073aa6020604051338152a180f35b638dfc202b60e01b8252600482fd5b503461021957806003193601126102195780546040516370a0823160e01b815230600482015290602090829060249082906001600160a01b03165afa90811561038d57829161179a575b602082604051908152f35b90506020813d6020116117c8575b816117b5602093836119d2565b810103126110c85760209150513861178f565b3d91506117a8565b50346102195780600319360112610219576020600a54604051908152f35b50346102195760203660031901126102195760406020916004358152600783522054604051908152f35b50346102195780600319360112610219576002546040516001600160a01b039091168152602090f35b50346102195760803660031901126102195761185b6119a6565b506118646119bc565b506044359060643567ffffffffffffffff81116110c857366023820112156110c857806004013567ffffffffffffffff81116105cc5736910160240111610219576002546001600160a01b031633146118ca575b604051630a85bd0160e11b8152602090f35b600554600a8110806118de575b50506118b8565b1561199257828252600760205260408220556005546801000000000000000081101561197e57906119348361191b84600160409601600555611a26565b90919082549060031b91821b91600019901b1916179055565b828152600660205220600160ff198254161790557f1be18eb15fae79b2ef01c40d9c2880744c4d536df2f5ac14fdb74fee71dc452c6020600554604051908152a2388080806118d7565b634e487b7160e01b82526041600452602482fd5b630c6fb6e960e31b8252600a600452602482fd5b600435906001600160a01b038216820361038057565b602435906001600160a01b038216820361038057565b90601f8019910116810190811067ffffffffffffffff8211176119f457604052565b634e487b7160e01b600052604160045260246000fd5b67ffffffffffffffff81116119f457601f01601f191660200190565b600554811015611a4157600560005260206000200190600090565b634e487b7160e01b600052603260045260246000fd5b6000198114611a665760010190565b634e487b7160e01b600052601160045260246000fd5b600091906001600160a01b0381168015611b85576005548015611b80576000198101908111611b6c57611aae90611a26565b90549060031b1c91611abf83611ccd565b6002546001600160a01b031690813b156109b757604051632142170760e11b81523060048201526001600160a01b0391909116602482015260448101849052949081908690606490829084905af19485156110fa57839495611b5c575b5050611b29600954611a57565b6009557f55144f84a06aba3b3a5c49b5d2d0d2a1fed9e25f465a2cc0f4a23b883c4782156020600554604051908152a390565b81611b66916119d2565b38611b1c565b634e487b7160e01b85526011600452602485fd5b505050565b63d92e233d60e01b8452600484fd5b908160a0910312610380578051916020820151916040810151916080606083015192015190565b6001600160a01b03168015611c1b5760008051602061222183398151915280546001600160a01b0319811683179091556001600160a01b03167f8be0079c531659141344cd1fd0a4f28419497f9722a3daafe3b4186f6b6457e0600080a3565b631e4fbdf760e01b600052600060045260246000fd5b600080516020612221833981519152546001600160a01b03163303611c5257565b63118cdaa760e01b6000523360045260246000fd5b60026000805160206122818339815191525414611c9257600260008051602061228183398151915255565b633ee5aeb560e01b60005260046000fd5b60ff6000805160206122618339815191525416611cbc57565b63d93c066560e01b60005260046000fd5b80600052600660205260ff6040600020541615611da3578060005260076020526040600020546005546000198101908111611a6657808203611d71575b50506005548015611d5b5760001901611d2281611a26565b8154906000199060031b1b19169055600555806000526006602052604060002060ff198154169055600052600760205260006040812055565b634e487b7160e01b600052603160045260246000fd5b611d7a90611a26565b90549060031b1c611d8e8161191b84611a26565b60005260076020526040600020553880611d0a565b6329762dbf60e21b60005260045260246000fd5b91908201809211611a6657565b600054600154604051636eb1769f60e11b81523060048201526001600160a01b0391821660248201819052929190911690602081604481855afa8015611f85578490600090611fee575b611e189250611db7565b60405163095ea7b360e01b60208083019182526001600160a01b038616602484015260448084019490945292825290929190600090611e586064866119d2565b84519082855af16000513d82611fd2575b505015611f91575b5050506000602060018060a01b0360015416604460405180948193634bda0d0960e11b8352600160048401523060248401525af1908115611f8557600091611f33575b507f6929b90e2c20a95d4538df3110e196e018b4d66120e0020e665a4af86f1b52716040829383600052600b60205281600020306001600160601b0360a01b825416179055611f04600c54611a57565b600c55611f12600854611a57565b600855611f2181600a54611db7565b600a558151908152306020820152a290565b906020823d602011611f7d575b81611f4d602093836119d2565b810103126102195750517f6929b90e2c20a95d4538df3110e196e018b4d66120e0020e665a4af86f1b5271611eb4565b3d9150611f40565b6040513d6000823e3d90fd5b610616611fca936040519063095ea7b360e01b602083015260248201526000604482015260448152611fc46064826119d2565b82612136565b388080611e71565b909150611fe65750803b15155b3880611e69565b600114611fdf565b50506020813d60201161201c575b81612009602093836119d2565b810103126103805783611e189151611e0e565b3d9150611ffc565b600a600554101561212e57600154604051632dabc24f60e01b81529060a090829060049082906001600160a01b03165afa908115611f855760009161210a575b506000546040516370a0823160e01b815230600482015290602090829060249082906001600160a01b03165afa908115611f85576000916120d8575b508163030a32c082109182156120ce575b50506120c5576120c090611dc4565b600191565b50600090600090565b10905081386120b1565b906020823d602011612102575b816120f2602093836119d2565b81010312610219575051386120a0565b3d91506120e5565b612123915060a03d60a0116103445761033181836119d2565b935050505038612064565b600090600090565b906000602091828151910182855af115611f85576000513d61218857506001600160a01b0381163b155b6121675750565b635274afe760e01b60009081526001600160a01b0391909116600452602490fd5b60011415612160565b60ff6000805160206122a18339815191525460401c16156121ae57565b631afcd79f60e31b60005260046000fd5b906121e557508051156121d457602081519101fd5b63d6bda27560e01b60005260046000fd5b81511580612217575b6121f6575090565b639996b31560e01b60009081526001600160a01b0391909116600452602490fd5b50803b156121ee56fe9016d09d72d40fdae2fd8ceac6b6234c7706214fd39c1cd1e609a0528c199300360894a13ba1a3210667c828492db98dca3e2076cc3735a920a3ca505d382bbccd5ed15c6e187e77e9aee88184c21f4f2182ab5827cb3b7e07fbedcd63f033009b779b17422d0df92223018b32b4d1fa46e071723d6817e2486d003becc55f00f0c57e16840df040f15088dc2f81fe391c3923bec73e23a9662efc9c229c6a00a26469706673582212206903510945c0be8e050b80e5dc3b1fc4cd07edb668e455064ed145f8f83b0a1f64736f6c634300081a0033",
  "linkReferences": {},
  "deployedLinkReferences": {}
}