{
  "_format": "hh-sol-artifact-1",
  "contractName": "PokeballGame",
  "sourceName": "contracts/PokeballGameV3.sol",
  "abi": [
    {
      "inputs": [],
      "stateMutability": "nonpayable",
      "type": "constructor"
    },
    {
      "inputs": [
        {
          "internalType": "address",
          "name": "target",
          "type": "address"
        }
      ],
      "name": "AddressEmptyCode",
      "type": "error"
    },
    {
      "inputs": [
        {
          "internalType": "address",
          "name": "implementation",
          "type": "address"
        }
      ],
      "name": "ERC1967InvalidImplementation",
      "type": "error"
    },
    {
      "inputs": [],
      "name": "ERC1967NonPayable",
      "type": "error"
    },
    {
      "inputs": [],
      "name": "EnforcedPause",
      "type": "error"
    },
    {
      "inputs": [],
      "name": "ExpectedPause",
      "type": "error"
    },
    {
      "inputs": [],
      "name": "FailedCall",
      "type": "error"
    },
    {
      "inputs": [
        {
          "internalType": "address",
          "name": "token",
          "type": "address"
        },
        {
          "internalType": "uint256",
          "name": "required",
          "type": "uint256"
        },
        {
          "internalType": "uint256",
          "name": "available",
          "type": "uint256"
        }
      ],
      "name": "InsufficientAllowance",
      "type": "error"
    },
    {
      "inputs": [
        {
          "internalType": "address",
          "name": "token",
          "type": "address"
        },
        {
          "internalType": "uint256",
          "name": "required",
          "type": "uint256"
        },
        {
          "internalType": "uint256",
          "name": "available",
          "type": "uint256"
        }
      ],
      "name": "InsufficientBalance",
      "type": "error"
    },
    {
      "inputs": [
        {
          "internalType": "enum PokeballGame.BallType",
          "name": "ballType",
          "type": "uint8"
        },
        {
          "internalType": "uint256",
          "name": "required",
          "type": "uint256"
        },
        {
          "internalType": "uint256",
          "name": "available",
          "type": "uint256"
        }
      ],
      "name": "InsufficientBalls",
      "type": "error"
    },
    {
      "inputs": [
        {
          "internalType": "uint8",
          "name": "provided",
          "type": "uint8"
        }
      ],
      "name": "InvalidBallType",
      "type": "error"
    },
    {
      "inputs": [
        {
          "internalType": "uint8",
          "name": "rate",
          "type": "uint8"
        }
      ],
      "name": "InvalidCatchRate",
      "type": "error"
    },
    {
      "inputs": [],
      "name": "InvalidInitialization",
      "type": "error"
    },
    {
      "inputs": [
        {
          "internalType": "uint8",
          "name": "slot",
          "type": "uint8"
        }
      ],
      "name": "InvalidPokemonSlot",
      "type": "error"
    },
    {
      "inputs": [],
      "name": "InvalidPrice",
      "type": "error"
    },
    {
      "inputs": [],
      "name": "NoFeesToWithdraw",
      "type": "error"
    },
    {
      "inputs": [],
      "name": "NoNFTAvailable",
      "type": "error"
    },
    {
      "inputs": [],
      "name": "NotInitializing",
      "type": "error"
    },
    {
      "inputs": [
        {
          "internalType": "address",
          "name": "owner",
          "type": "address"
        }
      ],
      "name": "OwnableInvalidOwner",
      "type": "error"
    },
    {
      "inputs": [
        {
          "internalType": "address",
          "name": "account",
          "type": "address"
        }
      ],
      "name": "OwnableUnauthorizedAccount",
      "type": "error"
    },
    {
      "inputs": [
        {
          "internalType": "uint256",
          "name": "pokemonId",
          "type": "uint256"
        }
      ],
      "name": "PokemonNotActive",
      "type": "error"
    },
    {
      "inputs": [
        {
          "internalType": "uint256",
          "name": "requested",
          "type": "uint256"
        },
        {
          "internalType": "uint256",
          "name": "maximum",
          "type": "uint256"
        }
      ],
      "name": "PurchaseExceedsMaximum",
      "type": "error"
    },
    {
      "inputs": [],
      "name": "ReentrancyGuardReentrantCall",
      "type": "error"
    },
    {
      "inputs": [
        {
          "internalType": "address",
          "name": "token",
          "type": "address"
        }
      ],
      "name": "SafeERC20FailedOperation",
      "type": "error"
    },
    {
      "inputs": [],
      "name": "SlabNFTManagerNotSet",
      "type": "error"
    },
    {
      "inputs": [
        {
          "internalType": "uint8",
          "name": "slot",
          "type": "uint8"
        }
      ],
      "name": "SlotOccupied",
      "type": "error"
    },
    {
      "inputs": [
        {
          "internalType": "uint256",
          "name": "requestId",
          "type": "uint256"
        }
      ],
      "name": "ThrowAlreadyResolved",
      "type": "error"
    },
    {
      "inputs": [
        {
          "internalType": "uint256",
          "name": "requestId",
          "type": "uint256"
        }
      ],
      "name": "ThrowNotFound",
      "type": "error"
    },
    {
      "inputs": [],
      "name": "TransferFailed",
      "type": "error"
    },
    {
      "inputs": [],
      "name": "UUPSUnauthorizedCallContext",
      "type": "error"
    },
    {
      "inputs": [
        {
          "internalType": "bytes32",
          "name": "slot",
          "type": "bytes32"
        }
      ],
      "name": "UUPSUnsupportedProxiableUUID",
      "type": "error"
    },
    {
      "inputs": [
        {
          "internalType": "address",
          "name": "caller",
          "type": "address"
        }
      ],
      "name": "UnauthorizedCallback",
      "type": "error"
    },
    {
      "inputs": [],
      "name": "ZeroAddress",
      "type": "error"
    },
    {
      "inputs": [],
      "name": "ZeroQuantity",
      "type": "error"
    },
    {
      "anonymous": false,
      "inputs": [
        {
          "indexed": false,
          "internalType": "uint256",
          "name": "oldPrice",
          "type": "uint256"
        },
        {
          "indexed": false,
          "internalType": "uint256",
          "name": "newPrice",
          "type": "uint256"
        }
      ],
      "name": "APEPriceUpdated",
      "type": "event"
    },
    {
      "anonymous": false,
      "inputs": [
        {
          "indexed": true,
          "internalType": "uint8",
          "name": "ballType",
          "type": "uint8"
        },
        {
          "indexed": false,
          "internalType": "uint256",
          "name": "oldPrice",
          "type": "uint256"
        },
        {
          "indexed": false,
          "internalType": "uint256",
          "name": "newPrice",
          "type": "uint256"
        }
      ],
      "name": "BallPriceUpdated",
      "type": "event"
    },
    {
      "anonymous": false,
      "inputs": [
        {
          "indexed": true,
          "internalType": "address",
          "name": "buyer",
          "type": "address"
        },
        {
          "indexed": false,
          "internalType": "uint8",
          "name": "ballType",
          "type": "uint8"
        },
        {
          "indexed": false,
          "internalType": "uint256",
          "name": "quantity",
          "type": "uint256"
        },
        {
          "indexed": false,
          "internalType": "bool",
          "name": "usedAPE",
          "type": "bool"
        },
        {
          "indexed": false,
          "internalType": "uint256",
          "name": "totalAmount",
          "type": "uint256"
        }
      ],
      "name": "BallPurchased",
      "type": "event"
    },
    {
      "anonymous": false,
      "inputs": [
        {
          "indexed": true,
          "internalType": "uint8",
          "name": "ballType",
          "type": "uint8"
        },
        {
          "indexed": false,
          "internalType": "uint8",
          "name": "oldRate",
          "type": "uint8"
        },
        {
          "indexed": false,
          "internalType": "uint8",
          "name": "newRate",
          "type": "uint8"
        }
      ],
      "name": "CatchRateUpdated",
      "type": "event"
    },
    {
      "anonymous": false,
      "inputs": [
        {
          "indexed": true,
          "internalType": "address",
          "name": "catcher",
          "type": "address"
        },
        {
          "indexed": false,
          "internalType": "uint256",
          "name": "pokemonId",
          "type": "uint256"
        },
        {
          "indexed": false,
          "internalType": "uint256",
          "name": "nftTokenId",
          "type": "uint256"
        }
      ],
      "name": "CaughtPokemon",
      "type": "event"
    },
    {
      "anonymous": false,
      "inputs": [
        {
          "indexed": true,
          "internalType": "address",
          "name": "thrower",
          "type": "address"
        },
        {
          "indexed": false,
          "internalType": "uint256",
          "name": "pokemonId",
          "type": "uint256"
        },
        {
          "indexed": false,
          "internalType": "uint8",
          "name": "attemptsRemaining",
          "type": "uint8"
        }
      ],
      "name": "FailedCatch",
      "type": "event"
    },
    {
      "anonymous": false,
      "inputs": [
        {
          "indexed": false,
          "internalType": "address",
          "name": "recipient",
          "type": "address"
        },
        {
          "indexed": false,
          "internalType": "uint256",
          "name": "amount",
          "type": "uint256"
        }
      ],
      "name": "FeesWithdrawn",
      "type": "event"
    },
    {
      "anonymous": false,
      "inputs": [
        {
          "indexed": false,
          "internalType": "uint64",
          "name": "version",
          "type": "uint64"
        }
      ],
      "name": "Initialized",
      "type": "event"
    },
    {
      "anonymous": false,
      "inputs": [
        {
          "indexed": true,
          "internalType": "address",
          "name": "previousOwner",
          "type": "address"
        },
        {
          "indexed": true,
          "internalType": "address",
          "name": "newOwner",
          "type": "address"
        }
      ],
      "name": "OwnershipTransferred",
      "type": "event"
    },
    {
      "anonymous": false,
      "inputs": [
        {
          "indexed": false,
          "internalType": "address",
          "name": "account",
          "type": "address"
        }
      ],
      "name": "Paused",
      "type": "event"
    },
    {
      "anonymous": false,
      "inputs": [
        {
          "indexed": false,
          "internalType": "uint256",
          "name": "pokemonId",
          "type": "uint256"
        },
        {
          "indexed": false,
          "internalType": "uint256",
          "name": "newX",
          "type": "uint256"
        },
        {
          "indexed": false,
          "internalType": "uint256",
          "name": "newY",
          "type": "uint256"
        }
      ],
      "name": "PokemonRelocated",
      "type": "event"
    },
    {
      "anonymous": false,
      "inputs": [
        {
          "indexed": false,
          "internalType": "uint256",
          "name": "pokemonId",
          "type": "uint256"
        },
        {
          "indexed": false,
          "internalType": "uint256",
          "name": "positionX",
          "type": "uint256"
        },
        {
          "indexed": false,
          "internalType": "uint256",
          "name": "positionY",
          "type": "uint256"
        },
        {
          "indexed": false,
          "internalType": "uint8",
          "name": "slotIndex",
          "type": "uint8"
        }
      ],
      "name": "PokemonSpawned",
      "type": "event"
    },
    {
      "anonymous": false,
      "inputs": [
        {
          "indexed": true,
          "internalType": "uint256",
          "name": "requestId",
          "type": "uint256"
        },
        {
          "indexed": false,
          "internalType": "uint256",
          "name": "randomNumber",
          "type": "uint256"
        },
        {
          "indexed": false,
          "internalType": "bool",
          "name": "isSpawnRequest",
          "type": "bool"
        }
      ],
      "name": "RandomnessReceived",
      "type": "event"
    },
    {
      "anonymous": false,
      "inputs": [
        {
          "indexed": false,
          "internalType": "uint256",
          "name": "amount",
          "type": "uint256"
        }
      ],
      "name": "RevenueSentToManager",
      "type": "event"
    },
    {
      "anonymous": false,
      "inputs": [
        {
          "indexed": true,
          "internalType": "address",
          "name": "thrower",
          "type": "address"
        },
        {
          "indexed": false,
          "internalType": "uint256",
          "name": "pokemonId",
          "type": "uint256"
        },
        {
          "indexed": false,
          "internalType": "uint8",
          "name": "ballTier",
          "type": "uint8"
        },
        {
          "indexed": false,
          "internalType": "uint256",
          "name": "requestId",
          "type": "uint256"
        }
      ],
      "name": "ThrowAttempted",
      "type": "event"
    },
    {
      "anonymous": false,
      "inputs": [
        {
          "indexed": false,
          "internalType": "address",
          "name": "account",
          "type": "address"
        }
      ],
      "name": "Unpaused",
      "type": "event"
    },
    {
      "anonymous": false,
      "inputs": [
        {
          "indexed": true,
          "internalType": "address",
          "name": "implementation",
          "type": "address"
        }
      ],
      "name": "Upgraded",
      "type": "event"
    },
    {
      "anonymous": false,
      "inputs": [
        {
          "indexed": false,
          "internalType": "string",
          "name": "walletType",
          "type": "string"
        },
        {
          "indexed": false,
          "internalType": "address",
          "name": "oldAddress",
          "type": "address"
        },
        {
          "indexed": false,
          "internalType": "address",
          "name": "newAddress",
          "type": "address"
        }
      ],
      "name": "WalletUpdated",
      "type": "event"
    },
    {
      "inputs": [],
      "name": "APE_DECIMALS",
      "outputs": [
        {
          "internalType": "uint8",
          "name": "",
          "type": "uint8"
        }
      ],
      "stateMutability": "view",
      "type": "function"
    },
    {
      "inputs": [],
      "name": "BPS_DENOMINATOR",
      "outputs": [
        {
          "internalType": "uint256",
          "name": "",
          "type": "uint256"
        }
      ],
      "stateMutability": "view",
      "type": "function"
    },
    {
      "inputs": [],
      "name": "MAX_ACTIVE_POKEMON",
      "outputs": [
        {
          "internalType": "uint8",
          "name": "",
          "type": "uint8"
        }
      ],
      "stateMutability": "view",
      "type": "function"
    },
    {
      "inputs": [],
      "name": "MAX_COORDINATE",
      "outputs": [
        {
          "internalType": "uint256",
          "name": "",
          "type": "uint256"
        }
      ],
      "stateMutability": "view",
      "type": "function"
    },
    {
      "inputs": [],
      "name": "MAX_PURCHASE_USD",
      "outputs": [
        {
          "internalType": "uint256",
          "name": "",
          "type": "uint256"
        }
      ],
      "stateMutability": "view",
      "type": "function"
    },
    {
      "inputs": [],
      "name": "MAX_THROW_ATTEMPTS",
      "outputs": [
        {
          "internalType": "uint8",
          "name": "",
          "type": "uint8"
        }
      ],
      "stateMutability": "view",
      "type": "function"
    },
    {
      "inputs": [],
      "name": "PLATFORM_FEE_BPS",
      "outputs": [
        {
          "internalType": "uint256",
          "name": "",
          "type": "uint256"
        }
      ],
      "stateMutability": "view",
      "type": "function"
    },
    {
      "inputs": [],
      "name": "REVENUE_POOL_BPS",
      "outputs": [
        {
          "internalType": "uint256",
          "name": "",
          "type": "uint256"
        }
      ],
      "stateMutability": "view",
      "type": "function"
    },
    {
      "inputs": [],
      "name": "UPGRADE_INTERFACE_VERSION",
      "outputs": [
        {
          "internalType": "string",
          "name": "",
          "type": "string"
        }
      ],
      "stateMutability": "view",
      "type": "function"
    },
    {
      "inputs": [],
      "name": "USDC_DECIMALS",
      "outputs": [
        {
          "internalType": "uint8",
          "name": "",
          "type": "uint8"
        }
      ],
      "stateMutability": "view",
      "type": "function"
    },
    {
      "inputs": [
        {
          "internalType": "uint256",
          "name": "",
          "type": "uint256"
        }
      ],
      "name": "activePokemons",
      "outputs": [
        {
          "internalType": "uint256",
          "name": "id",
          "type": "uint256"
        },
        {
          "internalType": "uint256",
          "name": "positionX",
          "type": "uint256"
        },
        {
          "internalType": "uint256",
          "name": "positionY",
          "type": "uint256"
        },
        {
          "internalType": "uint8",
          "name": "throwAttempts",
          "type": "uint8"
        },
        {
          "internalType": "bool",
          "name": "isActive",
          "type": "bool"
        },
        {
          "internalType": "uint256",
          "name": "spawnTime",
          "type": "uint256"
        }
      ],
      "stateMutability": "view",
      "type": "function"
    },
    {
      "inputs": [],
      "name": "ape",
      "outputs": [
        {
          "internalType": "contract IERC20",
          "name": "",
          "type": "address"
        }
      ],
      "stateMutability": "view",
      "type": "function"
    },
    {
      "inputs": [],
      "name": "apePriceUSD",
      "outputs": [
        {
          "internalType": "uint256",
          "name": "",
          "type": "uint256"
        }
      ],
      "stateMutability": "view",
      "type": "function"
    },
    {
      "inputs": [
        {
          "internalType": "enum PokeballGame.BallType",
          "name": "",
          "type": "uint8"
        }
      ],
      "name": "ballCatchRates",
      "outputs": [
        {
          "internalType": "uint8",
          "name": "",
          "type": "uint8"
        }
      ],
      "stateMutability": "view",
      "type": "function"
    },
    {
      "inputs": [
        {
          "internalType": "enum PokeballGame.BallType",
          "name": "",
          "type": "uint8"
        }
      ],
      "name": "ballPrices",
      "outputs": [
        {
          "internalType": "uint256",
          "name": "",
          "type": "uint256"
        }
      ],
      "stateMutability": "view",
      "type": "function"
    },
    {
      "inputs": [
        {
          "internalType": "uint256",
          "name": "usdcAmount",
          "type": "uint256"
        }
      ],
      "name": "calculateAPEAmount",
      "outputs": [
        {
          "internalType": "uint256",
          "name": "apeAmount",
          "type": "uint256"
        }
      ],
      "stateMutability": "view",
      "type": "function"
    },
    {
      "inputs": [
        {
          "internalType": "uint8",
          "name": "slot",
          "type": "uint8"
        }
      ],
      "name": "despawnPokemon",
      "outputs": [],
      "stateMutability": "nonpayable",
      "type": "function"
    },
    {
      "inputs": [
        {
          "internalType": "uint8",
          "name": "slot",
          "type": "uint8"
        },
        {
          "internalType": "uint256",
          "name": "posX",
          "type": "uint256"
        },
        {
          "internalType": "uint256",
          "name": "posY",
          "type": "uint256"
        }
      ],
      "name": "forceSpawnPokemon",
      "outputs": [],
      "stateMutability": "nonpayable",
      "type": "function"
    },
    {
      "inputs": [],
      "name": "getActivePokemonCount",
      "outputs": [
        {
          "internalType": "uint8",
          "name": "count",
          "type": "uint8"
        }
      ],
      "stateMutability": "view",
      "type": "function"
    },
    {
      "inputs": [],
      "name": "getActivePokemonSlots",
      "outputs": [
        {
          "internalType": "uint8[]",
          "name": "slots",
          "type": "uint8[]"
        }
      ],
      "stateMutability": "view",
      "type": "function"
    },
    {
      "inputs": [],
      "name": "getAllActivePokemons",
      "outputs": [
        {
          "components": [
            {
              "internalType": "uint256",
              "name": "id",
              "type": "uint256"
            },
            {
              "internalType": "uint256",
              "name": "positionX",
              "type": "uint256"
            },
            {
              "internalType": "uint256",
              "name": "positionY",
              "type": "uint256"
            },
            {
              "internalType": "uint8",
              "name": "throwAttempts",
              "type": "uint8"
            },
            {
              "internalType": "bool",
              "name": "isActive",
              "type": "bool"
            },
            {
              "internalType": "uint256",
              "name": "spawnTime",
              "type": "uint256"
            }
          ],
          "internalType": "struct PokeballGame.Pokemon[20]",
          "name": "pokemons",
          "type": "tuple[20]"
        }
      ],
      "stateMutability": "view",
      "type": "function"
    },
    {
      "inputs": [],
      "name": "getAllBallPrices",
      "outputs": [
        {
          "internalType": "uint256",
          "name": "pokeBallPrice",
          "type": "uint256"
        },
        {
          "internalType": "uint256",
          "name": "greatBallPrice",
          "type": "uint256"
        },
        {
          "internalType": "uint256",
          "name": "ultraBallPrice",
          "type": "uint256"
        },
        {
          "internalType": "uint256",
          "name": "masterBallPrice",
          "type": "uint256"
        }
      ],
      "stateMutability": "view",
      "type": "function"
    },
    {
      "inputs": [],
      "name": "getAllCatchRates",
      "outputs": [
        {
          "internalType": "uint8",
          "name": "pokeBallRate",
          "type": "uint8"
        },
        {
          "internalType": "uint8",
          "name": "greatBallRate",
          "type": "uint8"
        },
        {
          "internalType": "uint8",
          "name": "ultraBallRate",
          "type": "uint8"
        },
        {
          "internalType": "uint8",
          "name": "masterBallRate",
          "type": "uint8"
        }
      ],
      "stateMutability": "view",
      "type": "function"
    },
    {
      "inputs": [
        {
          "internalType": "address",
          "name": "player",
          "type": "address"
        }
      ],
      "name": "getAllPlayerBalls",
      "outputs": [
        {
          "internalType": "uint256",
          "name": "pokeBalls",
          "type": "uint256"
        },
        {
          "internalType": "uint256",
          "name": "greatBalls",
          "type": "uint256"
        },
        {
          "internalType": "uint256",
          "name": "ultraBalls",
          "type": "uint256"
        },
        {
          "internalType": "uint256",
          "name": "masterBalls",
          "type": "uint256"
        }
      ],
      "stateMutability": "view",
      "type": "function"
    },
    {
      "inputs": [
        {
          "internalType": "enum PokeballGame.BallType",
          "name": "ballType",
          "type": "uint8"
        }
      ],
      "name": "getBallPrice",
      "outputs": [
        {
          "internalType": "uint256",
          "name": "price",
          "type": "uint256"
        }
      ],
      "stateMutability": "view",
      "type": "function"
    },
    {
      "inputs": [
        {
          "internalType": "enum PokeballGame.BallType",
          "name": "ballType",
          "type": "uint8"
        }
      ],
      "name": "getCatchRate",
      "outputs": [
        {
          "internalType": "uint8",
          "name": "rate",
          "type": "uint8"
        }
      ],
      "stateMutability": "view",
      "type": "function"
    },
    {
      "inputs": [],
      "name": "getNFTInventoryCount",
      "outputs": [
        {
          "internalType": "uint256",
          "name": "count",
          "type": "uint256"
        }
      ],
      "stateMutability": "view",
      "type": "function"
    },
    {
      "inputs": [
        {
          "internalType": "uint256",
          "name": "requestId",
          "type": "uint256"
        }
      ],
      "name": "getPendingThrow",
      "outputs": [
        {
          "components": [
            {
              "internalType": "address",
              "name": "thrower",
              "type": "address"
            },
            {
              "internalType": "uint256",
              "name": "pokemonId",
              "type": "uint256"
            },
            {
              "internalType": "enum PokeballGame.BallType",
              "name": "ballType",
              "type": "uint8"
            },
            {
              "internalType": "uint256",
              "name": "timestamp",
              "type": "uint256"
            },
            {
              "internalType": "bool",
              "name": "resolved",
              "type": "bool"
            }
          ],
          "internalType": "struct PokeballGame.PendingThrow",
          "name": "",
          "type": "tuple"
        }
      ],
      "stateMutability": "view",
      "type": "function"
    },
    {
      "inputs": [
        {
          "internalType": "address",
          "name": "player",
          "type": "address"
        },
        {
          "internalType": "uint8",
          "name": "ballType",
          "type": "uint8"
        }
      ],
      "name": "getPlayerBallBalance",
      "outputs": [
        {
          "internalType": "uint256",
          "name": "quantity",
          "type": "uint256"
        }
      ],
      "stateMutability": "view",
      "type": "function"
    },
    {
      "inputs": [
        {
          "internalType": "uint8",
          "name": "slot",
          "type": "uint8"
        }
      ],
      "name": "getPokemon",
      "outputs": [
        {
          "components": [
            {
              "internalType": "uint256",
              "name": "id",
              "type": "uint256"
            },
            {
              "internalType": "uint256",
              "name": "positionX",
              "type": "uint256"
            },
            {
              "internalType": "uint256",
              "name": "positionY",
              "type": "uint256"
            },
            {
              "internalType": "uint8",
              "name": "throwAttempts",
              "type": "uint8"
            },
            {
              "internalType": "bool",
              "name": "isActive",
              "type": "bool"
            },
            {
              "internalType": "uint256",
              "name": "spawnTime",
              "type": "uint256"
            }
          ],
          "internalType": "struct PokeballGame.Pokemon",
          "name": "pokemon",
          "type": "tuple"
        }
      ],
      "stateMutability": "view",
      "type": "function"
    },
    {
      "inputs": [
        {
          "internalType": "address",
          "name": "_owner",
          "type": "address"
        },
        {
          "internalType": "address",
          "name": "_treasury",
          "type": "address"
        },
        {
          "internalType": "address",
          "name": "_nftRevenue",
          "type": "address"
        },
        {
          "internalType": "address",
          "name": "_usdce",
          "type": "address"
        },
        {
          "internalType": "address",
          "name": "_ape",
          "type": "address"
        },
        {
          "internalType": "address",
          "name": "_vrng",
          "type": "address"
        },
        {
          "internalType": "address",
          "name": "_slabNFT",
          "type": "address"
        },
        {
          "internalType": "uint256",
          "name": "_initialAPEPrice",
          "type": "uint256"
        }
      ],
      "name": "initialize",
      "outputs": [],
      "stateMutability": "nonpayable",
      "type": "function"
    },
    {
      "inputs": [],
      "name": "initializeV130",
      "outputs": [],
      "stateMutability": "nonpayable",
      "type": "function"
    },
    {
      "inputs": [],
      "name": "nextPokemonId",
      "outputs": [
        {
          "internalType": "uint256",
          "name": "",
          "type": "uint256"
        }
      ],
      "stateMutability": "view",
      "type": "function"
    },
    {
      "inputs": [],
      "name": "nftRevenueWallet",
      "outputs": [
        {
          "internalType": "address",
          "name": "",
          "type": "address"
        }
      ],
      "stateMutability": "view",
      "type": "function"
    },
    {
      "inputs": [],
      "name": "owner",
      "outputs": [
        {
          "internalType": "address",
          "name": "",
          "type": "address"
        }
      ],
      "stateMutability": "view",
      "type": "function"
    },
    {
      "inputs": [],
      "name": "pause",
      "outputs": [],
      "stateMutability": "nonpayable",
      "type": "function"
    },
    {
      "inputs": [],
      "name": "paused",
      "outputs": [
        {
          "internalType": "bool",
          "name": "",
          "type": "bool"
        }
      ],
      "stateMutability": "view",
      "type": "function"
    },
    {
      "inputs": [
        {
          "internalType": "uint256",
          "name": "",
          "type": "uint256"
        }
      ],
      "name": "pendingThrows",
      "outputs": [
        {
          "internalType": "address",
          "name": "thrower",
          "type": "address"
        },
        {
          "internalType": "uint256",
          "name": "pokemonId",
          "type": "uint256"
        },
        {
          "internalType": "enum PokeballGame.BallType",
          "name": "ballType",
          "type": "uint8"
        },
        {
          "internalType": "uint256",
          "name": "timestamp",
          "type": "uint256"
        },
        {
          "internalType": "bool",
          "name": "resolved",
          "type": "bool"
        }
      ],
      "stateMutability": "view",
      "type": "function"
    },
    {
      "inputs": [
        {
          "internalType": "address",
          "name": "",
          "type": "address"
        },
        {
          "internalType": "enum PokeballGame.BallType",
          "name": "",
          "type": "uint8"
        }
      ],
      "name": "playerBalls",
      "outputs": [
        {
          "internalType": "uint256",
          "name": "",
          "type": "uint256"
        }
      ],
      "stateMutability": "view",
      "type": "function"
    },
    {
      "inputs": [],
      "name": "proxiableUUID",
      "outputs": [
        {
          "internalType": "bytes32",
          "name": "",
          "type": "bytes32"
        }
      ],
      "stateMutability": "view",
      "type": "function"
    },
    {
      "inputs": [
        {
          "internalType": "uint8",
          "name": "ballType",
          "type": "uint8"
        },
        {
          "internalType": "uint256",
          "name": "quantity",
          "type": "uint256"
        },
        {
          "internalType": "bool",
          "name": "useAPE",
          "type": "bool"
        }
      ],
      "name": "purchaseBalls",
      "outputs": [],
      "stateMutability": "nonpayable",
      "type": "function"
    },
    {
      "inputs": [
        {
          "internalType": "uint256",
          "name": "requestId",
          "type": "uint256"
        },
        {
          "internalType": "uint256",
          "name": "randomNumber",
          "type": "uint256"
        }
      ],
      "name": "randomNumberCallback",
      "outputs": [],
      "stateMutability": "nonpayable",
      "type": "function"
    },
    {
      "inputs": [],
      "name": "renounceOwnership",
      "outputs": [],
      "stateMutability": "nonpayable",
      "type": "function"
    },
    {
      "inputs": [
        {
          "internalType": "uint256",
          "name": "",
          "type": "uint256"
        }
      ],
      "name": "requestIdToTraceId",
      "outputs": [
        {
          "internalType": "uint256",
          "name": "",
          "type": "uint256"
        }
      ],
      "stateMutability": "view",
      "type": "function"
    },
    {
      "inputs": [],
      "name": "revertOnNoNFT",
      "outputs": [
        {
          "internalType": "bool",
          "name": "",
          "type": "bool"
        }
      ],
      "stateMutability": "view",
      "type": "function"
    },
    {
      "inputs": [
        {
          "internalType": "uint256",
          "name": "newPrice",
          "type": "uint256"
        }
      ],
      "name": "setAPEPrice",
      "outputs": [],
      "stateMutability": "nonpayable",
      "type": "function"
    },
    {
      "inputs": [
        {
          "internalType": "address",
          "name": "newApeToken",
          "type": "address"
        }
      ],
      "name": "setApeToken",
      "outputs": [],
      "stateMutability": "nonpayable",
      "type": "function"
    },
    {
      "inputs": [
        {
          "internalType": "uint8",
          "name": "ballType",
          "type": "uint8"
        },
        {
          "internalType": "uint256",
          "name": "newPrice",
          "type": "uint256"
        }
      ],
      "name": "setBallPrice",
      "outputs": [],
      "stateMutability": "nonpayable",
      "type": "function"
    },
    {
      "inputs": [
        {
          "internalType": "uint8",
          "name": "ballType",
          "type": "uint8"
        },
        {
          "internalType": "uint8",
          "name": "newRate",
          "type": "uint8"
        }
      ],
      "name": "setCatchRate",
      "outputs": [],
      "stateMutability": "nonpayable",
      "type": "function"
    },
    {
      "inputs": [
        {
          "internalType": "address",
          "name": "newNFTRevenue",
          "type": "address"
        }
      ],
      "name": "setNFTRevenueWallet",
      "outputs": [],
      "stateMutability": "nonpayable",
      "type": "function"
    },
    {
      "inputs": [
        {
          "internalType": "address",
          "name": "newOwner",
          "type": "address"
        }
      ],
      "name": "setOwnerWallet",
      "outputs": [],
      "stateMutability": "nonpayable",
      "type": "function"
    },
    {
      "inputs": [
        {
          "internalType": "uint256",
          "name": "pokeBallPrice",
          "type": "uint256"
        },
        {
          "internalType": "uint256",
          "name": "greatBallPrice",
          "type": "uint256"
        },
        {
          "internalType": "uint256",
          "name": "ultraBallPrice",
          "type": "uint256"
        },
        {
          "internalType": "uint256",
          "name": "masterBallPrice",
          "type": "uint256"
        }
      ],
      "name": "setPricingConfig",
      "outputs": [],
      "stateMutability": "nonpayable",
      "type": "function"
    },
    {
      "inputs": [
        {
          "internalType": "bool",
          "name": "_revertOnNoNFT",
          "type": "bool"
        }
      ],
      "name": "setRevertOnNoNFT",
      "outputs": [],
      "stateMutability": "nonpayable",
      "type": "function"
    },
    {
      "inputs": [
        {
          "internalType": "address",
          "name": "_slabNFTManager",
          "type": "address"
        }
      ],
      "name": "setSlabNFTManager",
      "outputs": [],
      "stateMutability": "nonpayable",
      "type": "function"
    },
    {
      "inputs": [
        {
          "internalType": "address",
          "name": "newTreasury",
          "type": "address"
        }
      ],
      "name": "setTreasuryWallet",
      "outputs": [],
      "stateMutability": "nonpayable",
      "type": "function"
    },
    {
      "inputs": [],
      "name": "slabNFT",
      "outputs": [
        {
          "internalType": "contract IERC721",
          "name": "",
          "type": "address"
        }
      ],
      "stateMutability": "view",
      "type": "function"
    },
    {
      "inputs": [],
      "name": "slabNFTManager",
      "outputs": [
        {
          "internalType": "contract ISlabNFTManager",
          "name": "",
          "type": "address"
        }
      ],
      "stateMutability": "view",
      "type": "function"
    },
    {
      "inputs": [
        {
          "internalType": "uint8",
          "name": "slot",
          "type": "uint8"
        }
      ],
      "name": "spawnPokemon",
      "outputs": [],
      "stateMutability": "nonpayable",
      "type": "function"
    },
    {
      "inputs": [
        {
          "internalType": "uint8",
          "name": "pokemonSlot",
          "type": "uint8"
        },
        {
          "internalType": "uint8",
          "name": "ballType",
          "type": "uint8"
        }
      ],
      "name": "throwBall",
      "outputs": [
        {
          "internalType": "uint256",
          "name": "requestId",
          "type": "uint256"
        }
      ],
      "stateMutability": "nonpayable",
      "type": "function"
    },
    {
      "inputs": [],
      "name": "totalNFTsPurchased",
      "outputs": [
        {
          "internalType": "uint256",
          "name": "",
          "type": "uint256"
        }
      ],
      "stateMutability": "view",
      "type": "function"
    },
    {
      "inputs": [],
      "name": "totalPlatformFees",
      "outputs": [
        {
          "internalType": "uint256",
          "name": "",
          "type": "uint256"
        }
      ],
      "stateMutability": "view",
      "type": "function"
    },
    {
      "inputs": [],
      "name": "totalRevenuePool",
      "outputs": [
        {
          "internalType": "uint256",
          "name": "",
          "type": "uint256"
        }
      ],
      "stateMutability": "view",
      "type": "function"
    },
    {
      "inputs": [
        {
          "internalType": "address",
          "name": "newOwner",
          "type": "address"
        }
      ],
      "name": "transferOwnership",
      "outputs": [],
      "stateMutability": "nonpayable",
      "type": "function"
    },
    {
      "inputs": [],
      "name": "treasuryWallet",
      "outputs": [
        {
          "internalType": "address",
          "name": "",
          "type": "address"
        }
      ],
      "stateMutability": "view",
      "type": "function"
    },
    {
      "inputs": [],
      "name": "unpause",
      "outputs": [],
      "stateMutability": "nonpayable",
      "type": "function"
    },
    {
      "inputs": [
        {
          "internalType": "address",
          "name": "newImplementation",
          "type": "address"
        },
        {
          "internalType": "bytes",
          "name": "data",
          "type": "bytes"
        }
      ],
      "name": "upgradeToAndCall",
      "outputs": [],
      "stateMutability": "payable",
      "type": "function"
    },
    {
      "inputs": [],
      "name": "usdce",
      "outputs": [
        {
          "internalType": "contract IERC20",
          "name": "",
          "type": "address"
        }
      ],
      "stateMutability": "view",
      "type": "function"
    },
    {
      "inputs": [],
      "name": "vrng",
      "outputs": [
        {
          "internalType": "contract IPOPVRNG",
          "name": "",
          "type": "address"
        }
      ],
      "stateMutability": "view",
      "type": "function"
    },
    {
      "inputs": [],
      "name": "withdrawFees",
      "outputs": [],
      "stateMutability": "nonpayable",
      "type": "function"
    }
  ],
  "bytecode": "0x60a080604052346100ea57306080527ff0c57e16840df040f15088dc2f81fe391c3923bec73e23a9662efc9c229c6a005460ff8160401c166100d9576002600160401b03196001600160401b03821601610073575b604051613bb590816100f0823960805181818161200201526120d30152f35b6001600160401b0319166001600160401b039081177ff0c57e16840df040f15088dc2f81fe391c3923bec73e23a9662efc9c229c6a005581527fc7f505b2f371ae2175ee4913f4499e1f2633a7b5936321eed1cdaeb6115181d290602090a13880610054565b63f92ee8a960e01b60005260046000fd5b600080fdfe6080604052600436101561001257600080fd5b6000803560e01c8063064c973c14612d095780630771197f14612c89578063111bca7a14612c51578063116484221461296957806323b5cb5d14612897578063248684901461282857806325c61fcd146127ff5780632795a90e146127915780632de8f4501461277257806338efa831146127565780633bd81715146127395780633f4ba83a146126b75780633f968f4a146124ce5780634129849f146124b35780634626402b1461248a578063476343ee146123b857806349c729e6146123335780634c4e2a46146122a45780634f1ef2861461205757806352d1902d14611fef578063539aa77f14611fd2578063575e2f8c14611f455780635c975abb14611f15578063607c45d114611eaa5780636213841414611e8157806364c618cc14611e58578063676db11d14611e225780636fea438d14611df9578063715018a614611d8f57806379babd2c14611d665780637a0b07cf14611c435780637ed2f78314611a255780637edc648c146119fb5780638456cb59146119865780638761c14214611963578063883019111461167c5780638da5cb5b146116465780638f561acc1461160157806394ea04d114610f37578063970cff9314610eeb5780639b7d1a2a14610e325780639fb769dd14610e14578063a2afc37314610d6a578063a8602fea14610cdd578063a957b53914610c2d578063ad3cb1cc14610bb3578063bb542ef014610b14578063bf370a6114610ae2578063c1419def14610ac6578063c5f5251114610a24578063cc7a69de14610a06578063cd6df42e14610936578063d257418314610919578063d33953ba146108f2578063d3631fa5146108d4578063d9deb60b146108b6578063e155d79e14610898578063e1a452181461087b578063e53b74c614610719578063eb76c37e146106fd578063ee8b779e1461062b578063efdf9949146105f6578063f2fde38b146105c9578063f37d84eb14610596578063f4f0009214610528578063fa86b90b146104a9578063fc774c5c1461048d578063fcc536ba146103875763fe5c7ba81461031457600080fd5b346103845760203660031901126103845761032d612d4e565b6103356131ee565b60ff811660148110156103725750601481101561035e57600502600d01805461ff001916905580f35b634e487b7160e01b82526032600452602482fd5b63cba5131560e01b8352600452602482fd5b80fd5b50346103845780600319360112610384576102806040516103a88282612dcf565b825b82811061047857505060405190810181811067ffffffffffffffff82111761046457604052600a82825b60148210610446576040518486825b601482106103f157610f0084f35b602060c08261043a600194875160a0809180518452602081015160208501526040810151604085015260ff60608201511660608501526080810151151560808501520151910152565b019301910190916103e3565b600560206001926104568661308c565b8152019301910190916103d4565b634e487b7160e01b83526041600452602483fd5b60209061048361305b565b81840152016103aa565b5034610384578060031936011261038457602060405160148152f35b503461038457806003193601126103845780815b601460ff8216106104d65760208260ff60405191168152f35b60148110156105145760ff600d60058302015460081c166104fd575b60010160ff166104bd565b90600161050b60ff9261313b565b929150506104f2565b634e487b7160e01b83526032600452602483fd5b503461038457602036600319011261038457604060a0916004358152606f60205220600180831b038154169060018101549061058860ff60028301541660ff60046003850154940154169360405195865260208601526040850190612d5e565b606083015215156080820152f35b5034610384576020366003190112610384576004359060048210156103845760206105c083612e26565b54604051908152f35b5034610384576020366003190112610384576105f36105e6612d28565b6105ee6131ee565b6131c0565b80f35b50346103845760203660031901126103845760043590600482101561038457602061062083613164565b60ff60405191168152f35b503461038457604036600319011261038457610645612d4e565b60ff602435916106536131ee565b1690600382116106e95780156106db576302f969e081116106c15760048210156106ad576040600080516020613b008339815191529161069284612e26565b54908061069e86612e26565b5582519182526020820152a280f35b634e487b7160e01b83526021600452602483fd5b63572dac3f60e01b83526004526302f969e0602452604482fd5b62bfc92160e01b8352600483fd5b63fab9b83760e01b83526004829052602483fd5b5034610384578060031936011261038457602060405160038152f35b503461038457806003193601126103845780815b601460ff82161061083d575060ff1661075e6107488261314c565b916107566040519384612dcf565b80835261314c565b602082019190601f190136833782835b60ff811660148110156107f55760148210156107e15760ff600d60058402015460081c166107a3575b5060010160ff1661076e565b6107ac8361313b565b92845160ff821610156107cd5760051b611fe0168401602001526001610797565b634e487b7160e01b87526032600452602487fd5b634e487b7160e01b86526032600452602486fd5b50505090604051928392602084019060208552518091526040840192915b818110610821575050500390f35b825160ff16845285945060209384019390920191600101610813565b60148110156105145760ff600d60058302015460081c16610864575b60010160ff1661072d565b90600161087260ff9261313b565b92915050610859565b503461038457806003193601126103845760206040516127108152f35b50346103845780600319360112610384576020600854604051908152f35b50346103845780600319360112610384576020606e54604051908152f35b50346103845780600319360112610384576020600754604051908152f35b5034610384578060031936011261038457546040516001600160a01b039091168152602090f35b503461038457806003193601126103845760206040516103e78152f35b5034610384578060031936011261038457607560209081527ff9e3fbf150b7a0077118526f473c53cb4734f166167e2c6213e3567dd390b4ad547feb79622860583465ba0fa298cf2c34dc562a8c4a7eddc9cb6176342e350cc839547fdc08680627f0b0cb5718e90926933771ea0631efb027fa6786b4fde70f48bba75460036000527f54c599a54559426aa0f952ea1a1b5b5cb37d0b2411a1de77e2a8c2af92705eaa546040805160ff9586168152938516958401959095529083169382019390935291166060820152608090f35b50346103845780600319360112610384576020607254604051908152f35b503461038457602036600319011261038457610a3e612d28565b610a466131ee565b6001600160a01b03168015610ab75760a0600080516020613ae08339815191529160735490806001600160601b03841b8316176073556040519160608352600e60608401526d39b630b127232a26b0b730b3b2b960911b6080840152600180851b031660208301526040820152a180f35b63d92e233d60e01b8252600482fd5b5034610384578060031936011261038457602060405160068152f35b503461038457602036600319011261038457600435906004821015610384576020610b0c836130d8565b604051908152f35b503461038457602036600319011261038457610b2e612d28565b610b366131ee565b6001600160a01b0381168015610ba457600080516020613ae08339815191529160a091610b79600180851b03600080516020613aa08339815191525416926133e6565b6040519160608352600560608401526437bbb732b960d91b608084015260208301526040820152a180f35b63d92e233d60e01b8352600483fd5b50346103845780600319360112610384576040805191610bd38284612dcf565b60058352640352e302e360dc1b6020840152815192839160208352815191826020850152815b838110610c16575050828201840152601f01601f19168101030190f35b602082820181015188830188015287955001610bf9565b503461038457604036600319011261038457610c47612d4e565b60ff610c51612d3e565b91610c5a6131ee565b1690600382116106e95760ff1660648111610ccb5760048210156106ad5760407fbb6d93b2129fb3ef8cd6bec4b4f7ded1e50f1c845cf9a9620c759ccbdc5d17679160ff610ca785612e0d565b541690610cb385612e0d565b805460ff19168217905582519182526020820152a280f35b63026291af60e31b8352600452602482fd5b503461038457602036600319011261038457610cf7612d28565b610cff6131ee565b6001600160a01b03168015610ab75760a0600080516020613ae08339815191529160045490806001600160601b03841b83161760045560405191606083526008606084015267747265617375727960c01b6080840152600180851b031660208301526040820152a180f35b5034610384576020366003190112610384576001600160a01b03610d8c612d28565b16808252600960205260408220828052602052610e10604083205491808452600960205260408420600185526020526040808520549482815260096020528181206002825260205281812054928152600960205281812060038252602052205490604051948594859094939260609260808301968352602083015260408201520152565b0390f35b50346103845780600319360112610384576020600654604051908152f35b503461038457602036600319011261038457610e4c612d4e565b90610e5561305b565b5060ff82166014811015610ed857506014821015610ec45760c0610e7e60058402600a0161308c565b610ec2604051809260a0809180518452602081015160208501526040810151604085015260ff60608201511660608501526080810151151560808501520151910152565bf35b634e487b7160e01b81526032600452602490fd5b63cba5131560e01b825260045260249150fd5b503461038457604036600319011261038457610f05612d28565b602435906004821015610f33576001600160a01b031682526009602090815260409092206105c09190612e3f565b8280fd5b503461038457606036600319011261038457610f51612d4e565b60243560443591821515908184036115fd57610f6b613224565b610f73613260565b82156115ee5760ff1692600384116115da5760048410156115c657610f97846130d8565b90838202918083048514901517156110ea576302f969e082116115aa57156111a857610fc281612e57565b600154604051636eb1769f60e11b81523360048201523060248201529192916001600160a01b0390911690602081604481855afa908115611150578891611176575b5083811061115b57506040516370a0823160e01b8152336004820152602081602481855afa908115611150578891611119575b508381106110fe57508261104e91309033906139fa565b61012c81029080820461012c14901517156110ea576127106110739104600754612f4c565b600755915b338552600960205261108d8460408720612e3f565b611098828254612f4c565b90556040519384526020840152604083015260608201527fa89bfe414137486dafff331717fbfdd7b10ad23757ea0f39f7666e906afe235d60803392a26001600080516020613b408339815191525580f35b634e487b7160e01b86526011600452602486fd5b87908460649363db42144d60e01b8452600452602452604452fd5b90506020813d602011611148575b8161113460209383612dcf565b81010312611143575138611037565b600080fd5b3d9150611127565b6040513d8a823e3d90fd5b879084606493630c95cf2760e11b8452600452602452604452fd5b90506020813d6020116111a0575b8161119160209383612dcf565b81010312611143575138611004565b3d9150611184565b8454604051636eb1769f60e11b815233600482015230602482015291939184916001600160a01b031690602081604481855afa908115611150578891611578575b5082811061155e57506040516370a0823160e01b8152336004820152602081602481855afa908115611150578891611528575b5082811061150e57508161123391309033906139fa565b61012c810281810461012c14821517156114fa576127109004808203918083116114e65761126382600754612f4c565b6007556073546001600160a01b03169182151591826114db575b505061128b575b5050611078565b8654604051636eb1769f60e11b81523060048201526001600160a01b03838116602483015290911690602081604481855afa80156114d05784908a90611496575b6112d69250612f4c565b60405163095ea7b360e01b60208083019182526001600160a01b0386166024840152604480840194909452928252909291908a90611315606486612dcf565b84519082855af189513d8261147a575b505015611435575b50506073548791506001600160a01b0316803b1561143157819060246040518094819363bc1ca3e960e01b83528760048401525af180156114125761141d575b5060735460408051636c14397f60e11b815291829060049082908b906001600160a01b03165af18015611412576113d2575b5060207f6a35e7a759100d73c502119478cb5ae1ca768bbe0205d011ed3b0f76c59207a891604051908152a13880611284565b6040813d60401161140a575b816113eb60409383612dcf565b81010312611406575180151503611402573861139f565b8580fd5b8680fd5b3d91506113de565b6040513d89823e3d90fd5b8661142a91979297612dcf565b943861136d565b5080fd5b61146d611472936040519063095ea7b360e01b602083015260248201528a604482015260448152611467606482612dcf565b82613915565b613915565b38808061132d565b90915061148e5750803b15155b3880611325565b600114611487565b50506020813d6020116114c8575b816114b160209383612dcf565b810103126114c457836112d691516112cc565b8880fd5b3d91506114a4565b6040513d8b823e3d90fd5b14159050388061127d565b634e487b7160e01b88526011600452602488fd5b634e487b7160e01b87526011600452602487fd5b606492889263db42144d60e01b8452600452602452604452fd5b90506020813d602011611556575b8161154360209383612dcf565b8101031261155257513861121c565b8780fd5b3d9150611536565b6064928892630c95cf2760e11b8452600452602452604452fd5b90506020813d6020116115a2575b8161159360209383612dcf565b810103126115525751386111e9565b3d9150611586565b63572dac3f60e01b865260048290526302f969e0602452604486fd5b634e487b7160e01b85526021600452602485fd5b63fab9b83760e01b85526004849052602485fd5b63f4f5b73360e01b8552600485fd5b8480fd5b5034610384576040366003190112610384576002546001600160a01b03163303611633576105f3602435600435612fac565b635a1c6a5960e01b815233600452602490fd5b5034610384578060031936011261038457600080516020613aa0833981519152546040516001600160a01b039091168152602090f35b50346103845761010036600319011261038457611697612d28565b6024356001600160a01b03811690819003610f33576044356001600160a01b0381169081900361195f576064356001600160a01b03811692908390036115fd576084356001600160a01b038116908190036114025760a4356001600160a01b038116908190036114065760c4356001600160a01b03811692908390036115525760e43595600080516020613b60833981519152549760ff8960401c16159867ffffffffffffffff811680159081611957575b600114908161194d575b159081611944575b506119355767ffffffffffffffff198116600117600080516020613b608339815191525589611908575b506001600160a01b038116156118f95785156118f95786156118f95781156118f95782156118f95783156118f95784156118f95787156118eb576117d3906117cb613970565b6105ee613970565b6117db613970565b6117e3613970565b6117eb613970565b6001600080516020613b4083398151915255611805613970565b6001600160601b0360a01b8954161788556001600160601b0360a01b60015416176001556001600160601b0360a01b60025416176002556001600160601b0360a01b60035416176003556001600160601b0360a01b60045416176004556001600160601b0360a01b60055416176005556072556001606e55600160715561188a61328a565b6118915780f35b68ff000000000000000019600080516020613b608339815191525416600080516020613b60833981519152557fc7f505b2f371ae2175ee4913f4499e1f2633a7b5936321eed1cdaeb6115181d2602060405160018152a180f35b62bfc92160e01b8a5260048afd5b63d92e233d60e01b8a5260048afd5b68ffffffffffffffffff19166801000000000000000117600080516020613b608339815191525538611785565b63f92ee8a960e01b8b5260048bfd5b9050153861175b565b303b159150611753565b8b9150611749565b8380fd5b5034610384578060031936011261038457602060ff607654166040519015158152f35b503461038457806003193601126103845761199f6131ee565b6119a7613260565b600160ff19600080516020613b20833981519152541617600080516020613b20833981519152557f62e78cea01bee320cd4e420270b5ea74000d11b0c9f74754ebdbfc544b05a2586020604051338152a180f35b50346103845760203660031901126103845760406020916004358152607083522054604051908152f35b503461038457602036600319011261038457611a3f612d4e565b611a476131ee565b60ff8116906014821015611c2f57601481101561051457600502600d015460081c60ff16611c1d5781606e5491611a7d83612f3d565b606e55607154611a8c81612f3d565b60715560405160208101916001600160601b03193060601b16835285603483015260ff60f81b6054830152426055830152607582015260758152611ad1609582612dcf565b51902092602060018060a01b03600254166024604051809681936371c8a23960e11b83528960048401525af1928315611c12578593611bde575b5060048210156115c65760405191611b2283612d81565b30835260208301918252611b3a604084019182612eb4565b426060840190815260808401878152858852606f60205260408820945185546001600160a01b0319166001600160a01b039190911617855592516001850155905160028401906004811015611bca5791611bbb94939160049360ff8019835416911617905551600384015551151591019060ff801983541691151516179055565b82526070602052604082205580f35b634e487b7160e01b88526021600452602488fd5b9092506020813d602011611c0a575b81611bfa60209383612dcf565b810103126115fd57519138611b0b565b3d9150611bed565b6040513d87823e3d90fd5b632f8ecec960e21b8252600452602490fd5b63cba5131560e01b83526004829052602483fd5b503461038457606036600319011261038457611c5d612d4e565b90611c666131ee565b60ff8216916014831015611d5357601481101561035e57600581029060ff600d83015460081c16611d3f57907f156f6fef57e34329718d6efbd41f31a81afd51d967d24f97b94eb576dca20cfe91611d39606e5491611cc483612f3d565b606e556103e86024350693611d116103e8604435069160405190611ce782612db3565b868252876020830152836040830152896060830152600160808301524260a0830152600a01612f59565b60405194859485929360ff919594606093608086019786526020860152604085015216910152565b0390a180f35b632f8ecec960e21b83526004849052602483fd5b5060249163cba5131560e01b8252600452fd5b50346103845780600319360112610384576001546040516001600160a01b039091168152602090f35b5034610384578060031936011261038457611da86131ee565b600080516020613aa083398151915280546001600160a01b0319811690915581906001600160a01b03167f8be0079c531659141344cd1fd0a4f28419497f9722a3daafe3b4186f6b6457e08280a380f35b50346103845780600319360112610384576073546040516001600160a01b039091168152602090f35b50346103845760203660031901126103845760043590600482101561038457602060ff611e4e84612e0d565b5416604051908152f35b50346103845780600319360112610384576005546040516001600160a01b039091168152602090f35b50346103845780600319360112610384576002546040516001600160a01b039091168152602090f35b503461038457602036600319011261038457600435611ec76131ee565b8015611f075760407fc401b47db6ec4c8671a2f54cf3a5f3f7069c3b71b6c6ad9ed90f2c8cc9920b6a91607254908060725582519182526020820152a180f35b62bfc92160e01b8252600482fd5b5034610384578060031936011261038457602060ff600080516020613b2083398151915254166040519015158152f35b503461038457602036600319011261038457611f5f612d28565b611f676131ee565b6001600160a01b03168015610ab75760a0600080516020613ae08339815191529160015490806001600160601b03841b8316176001556040519160608352600860608401526730b832aa37b5b2b760c11b6080840152600180851b031660208301526040820152a180f35b5034610384578060031936011261038457602060405161012c8152f35b50346103845780600319360112610384577f00000000000000000000000000000000000000000000000000000000000000006001600160a01b03163003612048576020604051600080516020613ac08339815191528152f35b63703e46dd60e11b8152600490fd5b5060403660031901126103845761206c612d28565b6024359067ffffffffffffffff8211610f335736602383011215610f33578160040135908361209a83612df1565b936120a86040519586612dcf565b83855260208501933660248284010111610f3357806024602093018637850101526001600160a01b037f000000000000000000000000000000000000000000000000000000000000000016308114908115612281575b506122725761210b6131ee565b6040516352d1902d60e01b81526001600160a01b0382169390602081600481885afa86918161223e575b5061214e57634c9c8ce360e01b86526004859052602486fd5b9384600080516020613ac083398151915287960361222c5750823b1561221a57600080516020613ac083398151915280546001600160a01b031916821790558491907fbc7cd75a20ee27fd9adebab32041f755214dbc6bffa90cc0225b39da2e5c2d3b8380a28051156121ff576121f39382915190845af43d156121f7573d916121d783612df1565b926121e56040519485612dcf565b83523d85602085013e613a3e565b5080f35b606091613a3e565b505050503461220b5780f35b63b398979f60e01b8152600490fd5b634c9c8ce360e01b8552600452602484fd5b632a87526960e21b8652600452602485fd5b9091506020813d60201161226a575b8161225a60209383612dcf565b8101031261140657519038612135565b3d915061224d565b63703e46dd60e11b8452600484fd5b600080516020613ac0833981519152546001600160a01b031614159050386120fe565b5034610384576020366003190112610384576122be612d28565b6122c66131ee565b6001600160a01b03168015610ab75760a0600080516020613ae08339815191529160055490806001600160601b03841b8316176005556040519160608352600a6060840152696e6674526576656e756560b01b6080840152600180851b031660208301526040820152a180f35b503461038457806003193601126103845761234c6131ee565b60ff60765460081c166123735761236161328a565b61010061ff0019607654161760765580f35b60405162461bcd60e51b815260206004820152601a60248201527f56312e332e3020616c726561647920696e697469616c697a65640000000000006044820152606490fd5b50346103845780600319360112610384576123d16131ee565b6123d9613224565b600754801561247b576007829055815460045460405163a9059cbb60e01b60208201526001600160a01b039182166024820152604480820185905281527fc0819c13be868895eb93e40eaceb96de976442fa1d404e5c55f14bb65a8c489a9392612449921661146d606483612dcf565b600454604080516001600160a01b0390921682526020820192909252a16001600080516020613b408339815191525580f35b630d00db4d60e31b8252600482fd5b50346103845780600319360112610384576004546040516001600160a01b039091168152602090f35b50346103845780600319360112610384576020610b0c612ec0565b5034610384576080366003190112610384576064356044356024356004356124f46131ee565b801580156126af575b80156126a7575b801561269f575b612691576302f969e08111612677576302f969e0821161265b576302f969e0831161263f576302f969e0841161262357848052607460205284600080516020613b008339815191526040808320548151908152846020820152a26001855260746020526001600080516020613b008339815191526040808820548151908152856020820152a26002855260746020526002600080516020613b008339815191526040808820548151908152866020820152a26003855260746020526003600080516020613b008339815191526040808820548151908152876020820152a28480526074602052604085205560018452607460205260408420556002835260746020526040832055600382526074602052604082205580f35b63572dac3f60e01b855260048490526302f969e0602452604485fd5b63572dac3f60e01b855260048390526302f969e0602452604485fd5b63572dac3f60e01b855260048290526302f969e0602452604485fd5b63572dac3f60e01b85526004526302f969e0602452604484fd5b62bfc92160e01b8552600485fd5b50831561250b565b508215612504565b5081156124fd565b50346103845780600319360112610384576126d06131ee565b600080516020613b208339815191525460ff81161561272a5760ff1916600080516020613b20833981519152557f5db9ee0a495bf2e6ff9c91a7834c1ba4fdd244a5e8aa4e537bd38aeae4b073aa6020604051338152a180f35b638dfc202b60e01b8252600482fd5b503461038457806003193601126103845760206040516125e48152f35b5034610384578060031936011261038457602060405160128152f35b503461038457806003193601126103845760206040516302f969e08152f35b50346103845760203660031901126103845760043560148110156114315760059060c092500280600a01549060ff600b82015491600c810154600e600d8301549201549360405195865260208601526040850152818116606085015260081c161515608083015260a0820152f35b50346103845780600319360112610384576003546040516001600160a01b039091168152602090f35b503461038457806003193601126103845780805260746020526040812054600182526074602052610e1060408320549260028152607460205260408082205491600381526074602052205490604051948594859094939260609260808301968352602083015260408201520152565b50346103845760203660031901126103845760408160a092608083516128bc81612d81565b828152826020820152828582015282606082015201526004358152606f60205220604051906128ea82612d81565b600180841b0381541682526001810154906020830191825261295960ff60028301541661291b604086019182612eb4565b60ff6004600385015494606088019586520154169360808601941515855260405195600180891b039051168652516020860152516040850190612d5e565b5160608301525115156080820152f35b503461038457604036600319011261038457612983612d4e565b9061298c612d3e565b91612995613224565b61299d613260565b60ff81166014811015610372575060ff831690600382116106e95760148110156105145760050260ff600d82600a0192015460081c1615612c3e5760048210156106ad5733835260096020526129f68260408520612e3f565b5415612c22573383526009602052612a118260408520612e3f565b9384546000198101908111612c0e57849555815490607154612a3281612f3d565b6071556040519160208301936001600160601b03193360601b168552603484015260ff60f81b9060f81b166054830152426055830152607582015260758152612a7c609582612dcf565b5190206002546040516371c8a23960e11b8152600481018390529460209186916024918391906001600160a01b03165af1938415611c12578594612bda575b50815460405190612acb82612d81565b3382526020820190815260408201612ae38682612eb4565b426060840190815260808401898152888a52606f60205260408a20945185546001600160a01b0319166001600160a01b039190911617855592516001850155905160028401906004811015612bc6578993612b6b936040969360049360209d5060ff8019835416911617905551600384015551151591019060ff801983541691151516179055565b8581526070875220555490604051918252838201528160408201527f5e0c015d137a94a9e864e17092fb126241c929614b46c3bc32163b46de9bf05b60603392a26001600080516020613b4083398151915255604051908152f35b634e487b7160e01b8a52602160045260248afd5b9093506020813d602011612c06575b81612bf660209383612dcf565b810103126115fd57519238612abb565b3d9150612be9565b634e487b7160e01b85526011600452602485fd5b60648383639f27773f60e01b8252600452600160245280604452fd5b546332c3e47160e21b8352600452602482fd5b50346103845760203660031901126103845760043580151580910361143157612c786131ee565b60ff80196076541691161760765580f35b503461038457604036600319011261038457612ca3612d28565b9060ff612cae612d3e565b169160038311612cf6576001600160a01b03168152600960205260408120906004831015612ce25760206105c08484612e3f565b634e487b7160e01b81526021600452602490fd5b5060249163fab9b83760e01b8252600452fd5b5034610384576020366003190112610384576020610b0c600435612e57565b600435906001600160a01b038216820361114357565b6024359060ff8216820361114357565b6004359060ff8216820361114357565b906004821015612d6b5752565b634e487b7160e01b600052602160045260246000fd5b60a0810190811067ffffffffffffffff821117612d9d57604052565b634e487b7160e01b600052604160045260246000fd5b60c0810190811067ffffffffffffffff821117612d9d57604052565b90601f8019910116810190811067ffffffffffffffff821117612d9d57604052565b67ffffffffffffffff8111612d9d57601f01601f191660200190565b6004811015612d6b576000526075602052604060002090565b6004811015612d6b576000526074602052604060002090565b906004811015612d6b57600052602052604060002090565b68056bc75e2d6310000081029080820468056bc75e2d631000001490151715612e9e57607254908115612e88570490565b634e487b7160e01b600052601260045260246000fd5b634e487b7160e01b600052601160045260246000fd5b6004821015612d6b5752565b6073546001600160a01b03168015612f3757602060049160405192838092630579ef8b60e51b82525afa908115612f2b57600091612efc575090565b90506020813d602011612f23575b81612f1760209383612dcf565b81010312611143575190565b3d9150612f0a565b6040513d6000823e3d90fd5b50600090565b6000198114612e9e5760010190565b91908201809211612e9e57565b8151815560208201516001820155604082015160028201556060820151600382018054608085015161ff0090151560081b1660ff90931661ffff199091161791909117905560a090910151600490910155565b6000818152606f602052604090208054909291906001600160a01b031680156130465760048401805460ff81166130315760019060ff19161790553014907f1a938f65e4c6937f53440d5c5092d2cc6a2605276a3f59c370afd6f8c872610660408051858152846020820152a2613028576130269161351e565b565b6130269161343c565b83633f8cbced60e21b60005260045260246000fd5b5063098354e960e41b60005260045260246000fd5b6040519061306882612db3565b600060a0838281528260208201528260408201528260608201528260808201520152565b9060405161309981612db3565b60a06004829480548452600181015460208501526002810154604085015260ff6003820154818116606087015260081c16151560808501520154910152565b6130e181612e26565b549081156130ed575090565b6004811015612d6b5780156131325760018114613129576002811461311f576003146131165790565b506302f969e090565b505063017d784090565b50506298968090565b5050620f424090565b60ff1660ff8114612e9e5760010190565b67ffffffffffffffff8111612d9d5760051b60200190565b60ff61316f82612e0d565b541690811561317c575090565b6004811015612d6b5780156131b957600181146131b257600281146131ab576003146131a55790565b50606390565b5050603290565b5050601490565b5050600290565b6001600160a01b038116156131d857613026906133e6565b631e4fbdf760e01b600052600060045260246000fd5b600080516020613aa0833981519152546001600160a01b0316330361320f57565b63118cdaa760e01b6000523360045260246000fd5b6002600080516020613b40833981519152541461324f576002600080516020613b4083398151915255565b633ee5aeb560e01b60005260046000fd5b60ff600080516020613b20833981519152541661327957565b63d93c066560e01b60005260046000fd5b620f42407fccdf39d850e26d5964b24c5391eecfa7a13a375488d6de2101d279419f39a53755629896807ff83d01c2b52626dc3c2e1555c273eea8900424c2c33f28b73359c960ee7130c15563017d78407f6682ec7d01f27599ce789688f09278cfefbe231146e0a71df5d9a69d5a0414f9556302f969e07f2727f07e5197d97fe18fb9ccc0d66458914dc7168b5c9ef06b237a6115a2dc1d5560756020527ff9e3fbf150b7a0077118526f473c53cb4734f166167e2c6213e3567dd390b4ad805460ff199081166002179091557feb79622860583465ba0fa298cf2c34dc562a8c4a7eddc9cb6176342e350cc8398054821660141790557fdc08680627f0b0cb5718e90926933771ea0631efb027fa6786b4fde70f48bba780548216603217905560036000527f54c599a54559426aa0f952ea1a1b5b5cb37d0b2411a1de77e2a8c2af92705eaa805482166063179055607680549091169055565b600080516020613aa083398151915280546001600160a01b039283166001600160a01b0319821681179092559091167f8be0079c531659141344cd1fd0a4f28419497f9722a3daafe3b4186f6b6457e0600080a3565b9060ff600283015416916004831015612d6b576014831015613519576000600584029360ff600d86015460081c16613512577f156f6fef57e34329718d6efbd41f31a81afd51d967d24f97b94eb576dca20cfe946134e38361350d945060016103e88089069860801c06960192835491604051926134b984612db3565b8352886020840152876040840152806060840152600160808401524260a084015250600a01612f59565b549260405194859485929360ff919594606093608086019786526020860152604085015216910152565b0390a1565b5050505050565b505050565b61352b600182015461399e565b92901580156138f7575b6135195760148310156138e157600583029182600a019160ff61355d81600285015416613164565b166064820610156137fb5750549054600d92909201805461ff00191690556073546001600160a01b0391821691600091168061375c575b5060407fe1ef7825c332c25296359d37af815442cbd1fd6d620d8271b4180bd68f834bb0918151908582526020820152a26103e88101809111612e9e576000906071546135e081612f3d565b60715560405160208101916001600160601b03193060601b168352836034830152607f60f91b6054830152426055830152607582015260758152613625609582612dcf565b51902092602060018060a01b03600254166024604051809681936371c8a23960e11b83528960048401525af1928315612f2b57600093613727575b5060ff16906004821015612d6b576040519061367b82612d81565b30825260208201908152613693604083019384612eb4565b4260608301908152600060808401818152868252606f6020526040909120935184546001600160a01b0319166001600160a01b039190911617845591516001840155925160028301939091906004831015612d6b576137179460049360ff8019835416911617905551600384015551151591019060ff801983541691151516179055565b6000526070602052604060002055565b90926020823d602011613754575b8161374260209383612dcf565b810103126103845750519160ff613660565b3d9150613735565b602082916024604051809481936378b5aa8f60e01b83528860048401525af19182156137ef5780926137ba575b50508015806137ae575b61379d5738613594565b633684ae4560e01b60005260046000fd5b5060ff60765416613793565b9091506020823d6020116137e7575b816137d660209383612dcf565b810103126103845750513880613789565b3d91506137c9565b604051903d90823e3d90fd5b91935060018060a01b0390541691600d81019260ff61381c8186541661313b565b1660ff1985541617845560ff845416806003039160ff8311612e9e577fde2c7625951ef209e3b14dc5de7c713aaf12a680817df0ba922f064834ed47e4604060039460ff8a54918351928352166020820152a2101561387c575b50505050565b7f991f141b1f67192a98969cd4005f41d17ef23a517c6975606af1c6f48a0ae37d93606093600c926103e8808660081c069560101c06938186600b87940155015560ff198154169055549160405192835260208301526040820152a138808080613876565b634e487b7160e01b600052603260045260246000fd5b5060148310156138e15760ff600d60058502015460081c1615613535565b906000602091828151910182855af115612f2b576000513d61396757506001600160a01b0381163b155b6139465750565b635274afe760e01b60009081526001600160a01b0391909116600452602490fd5b6001141561393f565b60ff600080516020613b608339815191525460401c161561398d57565b631afcd79f60e31b60005260046000fd5b9060005b601460ff8216106139b65750600091508190565b60148110156138e157600581028381600a01541490816139e8575b506139e15760010160ff166139a2565b6001925090565b60ff9150600d015460081c16386139d1565b6040516323b872dd60e01b60208201526001600160a01b0392831660248201529290911660448301526064808301939093529181526130269161146d608483612dcf565b90613a645750805115613a5357602081519101fd5b63d6bda27560e01b60005260046000fd5b81511580613a96575b613a75575090565b639996b31560e01b60009081526001600160a01b0391909116600452602490fd5b50803b15613a6d56fe9016d09d72d40fdae2fd8ceac6b6234c7706214fd39c1cd1e609a0528c199300360894a13ba1a3210667c828492db98dca3e2076cc3735a920a3ca505d382bbcd8e98bff5ae8522235ef48daecff7488b367200bea03a4e8cb4bc98108c6a492cc28ce5a83a186d74d6f88a98c2227cd05c9e358651dd06bdb774be5b9d59f6ecd5ed15c6e187e77e9aee88184c21f4f2182ab5827cb3b7e07fbedcd63f033009b779b17422d0df92223018b32b4d1fa46e071723d6817e2486d003becc55f00f0c57e16840df040f15088dc2f81fe391c3923bec73e23a9662efc9c229c6a00a264697066735822122013c115f58f79c371e575204734126919abbb9d7560231e0475f8a4d31a67e46e64736f6c634300081a0033",
  "linkReferences": {},
  "deployedLinkReferences": {}
}