{
  "_format": "hh-sol-artifact-1",
  "contractName": "PokeballGame",
  "sourceName": "contracts/PokeballGameV3.sol",
  "abi": [
    {
      "inputs": [],
      "stateMutability": "nonpayable",
      "type": "constructor"
    },
    {
      "inputs": [
        {
          "internalType": "address",
          "name": "target",
          "type": "address"
        }
      ],
      "name": "AddressEmptyCode",
      "type": "error"
    },
    {
      "inputs": [
        {
          "internalType": "address",
          "name": "implementation",
          "type": "address"
        }
      ],
      "name": "ERC1967InvalidImplementation",
      "type": "error"
    },
    {
      "inputs": [],
      "name": "ERC1967NonPayable",
      "type": "error"
    },
    {
      "inputs": [],
      "name": "EnforcedPause",
      "type": "error"
    },
    {
      "inputs": [],
      "name": "ExpectedPause",
      "type": "error"
    },
    {
      "inputs": [],
      "name": "FailedCall",
      "type": "error"
    },
    {
      "inputs": [
        {
          "internalType": "address",
          "name": "token",
          "type": "address"
        },
        {
          "internalType": "uint256",
          "name": "required",
          "type": "uint256"
        },
        {
          "internalType": "uint256",
          "name": "available",
          "type": "uint256"
        }
      ],
      "name": "InsufficientAllowance",
      "type": "error"
    },
    {
      "inputs": [
        {
          "internalType": "address",
          "name": "token",
          "type": "address"
        },
        {
          "internalType": "uint256",
          "name": "required",
          "type": "uint256"
        },
        {
          "internalType": "uint256",
          "name": "available",
          "type": "uint256"
        }
      ],
      "name": "InsufficientBalance",
      "type": "error"
    },
    {
      "inputs": [
        {
          "internalType": "enum PokeballGame.BallType",
          "name": "ballType",
          "type": "uint8"
        },
        {
          "internalType": "uint256",
          "name": "required",
          "type": "uint256"
        },
        {
          "internalType": "uint256",
          "name": "available",
          "type": "uint256"
        }
      ],
      "name": "InsufficientBalls",
      "type": "error"
    },
    {
      "inputs": [
        {
          "internalType": "uint8",
          "name": "provided",
          "type": "uint8"
        }
      ],
      "name": "InvalidBallType",
      "type": "error"
    },
    {
      "inputs": [
        {
          "internalType": "uint8",
          "name": "rate",
          "type": "uint8"
        }
      ],
      "name": "InvalidCatchRate",
      "type": "error"
    },
    {
      "inputs": [],
      "name": "InvalidInitialization",
      "type": "error"
    },
    {
      "inputs": [
        {
          "internalType": "uint8",
          "name": "slot",
          "type": "uint8"
        }
      ],
      "name": "InvalidPokemonSlot",
      "type": "error"
    },
    {
      "inputs": [],
      "name": "InvalidPrice",
      "type": "error"
    },
    {
      "inputs": [],
      "name": "NoFeesToWithdraw",
      "type": "error"
    },
    {
      "inputs": [],
      "name": "NoNFTAvailable",
      "type": "error"
    },
    {
      "inputs": [],
      "name": "NotInitializing",
      "type": "error"
    },
    {
      "inputs": [
        {
          "internalType": "address",
          "name": "owner",
          "type": "address"
        }
      ],
      "name": "OwnableInvalidOwner",
      "type": "error"
    },
    {
      "inputs": [
        {
          "internalType": "address",
          "name": "account",
          "type": "address"
        }
      ],
      "name": "OwnableUnauthorizedAccount",
      "type": "error"
    },
    {
      "inputs": [
        {
          "internalType": "uint256",
          "name": "pokemonId",
          "type": "uint256"
        }
      ],
      "name": "PokemonNotActive",
      "type": "error"
    },
    {
      "inputs": [
        {
          "internalType": "uint256",
          "name": "requested",
          "type": "uint256"
        },
        {
          "internalType": "uint256",
          "name": "maximum",
          "type": "uint256"
        }
      ],
      "name": "PurchaseExceedsMaximum",
      "type": "error"
    },
    {
      "inputs": [],
      "name": "ReentrancyGuardReentrantCall",
      "type": "error"
    },
    {
      "inputs": [
        {
          "internalType": "address",
          "name": "token",
          "type": "address"
        }
      ],
      "name": "SafeERC20FailedOperation",
      "type": "error"
    },
    {
      "inputs": [],
      "name": "SlabNFTManagerNotSet",
      "type": "error"
    },
    {
      "inputs": [
        {
          "internalType": "uint8",
          "name": "slot",
          "type": "uint8"
        }
      ],
      "name": "SlotOccupied",
      "type": "error"
    },
    {
      "inputs": [
        {
          "internalType": "uint256",
          "name": "requestId",
          "type": "uint256"
        }
      ],
      "name": "ThrowAlreadyResolved",
      "type": "error"
    },
    {
      "inputs": [
        {
          "internalType": "uint256",
          "name": "requestId",
          "type": "uint256"
        }
      ],
      "name": "ThrowNotFound",
      "type": "error"
    },
    {
      "inputs": [],
      "name": "TransferFailed",
      "type": "error"
    },
    {
      "inputs": [],
      "name": "UUPSUnauthorizedCallContext",
      "type": "error"
    },
    {
      "inputs": [
        {
          "internalType": "bytes32",
          "name": "slot",
          "type": "bytes32"
        }
      ],
      "name": "UUPSUnsupportedProxiableUUID",
      "type": "error"
    },
    {
      "inputs": [
        {
          "internalType": "address",
          "name": "caller",
          "type": "address"
        }
      ],
      "name": "UnauthorizedCallback",
      "type": "error"
    },
    {
      "inputs": [],
      "name": "ZeroAddress",
      "type": "error"
    },
    {
      "inputs": [],
      "name": "ZeroQuantity",
      "type": "error"
    },
    {
      "anonymous": false,
      "inputs": [
        {
          "indexed": false,
          "internalType": "uint256",
          "name": "oldPrice",
          "type": "uint256"
        },
        {
          "indexed": false,
          "internalType": "uint256",
          "name": "newPrice",
          "type": "uint256"
        }
      ],
      "name": "APEPriceUpdated",
      "type": "event"
    },
    {
      "anonymous": false,
      "inputs": [
        {
          "indexed": true,
          "internalType": "uint8",
          "name": "ballType",
          "type": "uint8"
        },
        {
          "indexed": false,
          "internalType": "uint256",
          "name": "oldPrice",
          "type": "uint256"
        },
        {
          "indexed": false,
          "internalType": "uint256",
          "name": "newPrice",
          "type": "uint256"
        }
      ],
      "name": "BallPriceUpdated",
      "type": "event"
    },
    {
      "anonymous": false,
      "inputs": [
        {
          "indexed": true,
          "internalType": "address",
          "name": "buyer",
          "type": "address"
        },
        {
          "indexed": false,
          "internalType": "uint8",
          "name": "ballType",
          "type": "uint8"
        },
        {
          "indexed": false,
          "internalType": "uint256",
          "name": "quantity",
          "type": "uint256"
        },
        {
          "indexed": false,
          "internalType": "bool",
          "name": "usedAPE",
          "type": "bool"
        },
        {
          "indexed": false,
          "internalType": "uint256",
          "name": "totalAmount",
          "type": "uint256"
        }
      ],
      "name": "BallPurchased",
      "type": "event"
    },
    {
      "anonymous": false,
      "inputs": [
        {
          "indexed": true,
          "internalType": "uint8",
          "name": "ballType",
          "type": "uint8"
        },
        {
          "indexed": false,
          "internalType": "uint8",
          "name": "oldRate",
          "type": "uint8"
        },
        {
          "indexed": false,
          "internalType": "uint8",
          "name": "newRate",
          "type": "uint8"
        }
      ],
      "name": "CatchRateUpdated",
      "type": "event"
    },
    {
      "anonymous": false,
      "inputs": [
        {
          "indexed": true,
          "internalType": "address",
          "name": "catcher",
          "type": "address"
        },
        {
          "indexed": false,
          "internalType": "uint256",
          "name": "pokemonId",
          "type": "uint256"
        },
        {
          "indexed": false,
          "internalType": "uint256",
          "name": "nftTokenId",
          "type": "uint256"
        }
      ],
      "name": "CaughtPokemon",
      "type": "event"
    },
    {
      "anonymous": false,
      "inputs": [
        {
          "indexed": true,
          "internalType": "address",
          "name": "thrower",
          "type": "address"
        },
        {
          "indexed": false,
          "internalType": "uint256",
          "name": "pokemonId",
          "type": "uint256"
        },
        {
          "indexed": false,
          "internalType": "uint8",
          "name": "attemptsRemaining",
          "type": "uint8"
        }
      ],
      "name": "FailedCatch",
      "type": "event"
    },
    {
      "anonymous": false,
      "inputs": [
        {
          "indexed": false,
          "internalType": "address",
          "name": "recipient",
          "type": "address"
        },
        {
          "indexed": false,
          "internalType": "uint256",
          "name": "amount",
          "type": "uint256"
        }
      ],
      "name": "FeesWithdrawn",
      "type": "event"
    },
    {
      "anonymous": false,
      "inputs": [
        {
          "indexed": false,
          "internalType": "uint64",
          "name": "version",
          "type": "uint64"
        }
      ],
      "name": "Initialized",
      "type": "event"
    },
    {
      "anonymous": false,
      "inputs": [
        {
          "indexed": true,
          "internalType": "address",
          "name": "previousOwner",
          "type": "address"
        },
        {
          "indexed": true,
          "internalType": "address",
          "name": "newOwner",
          "type": "address"
        }
      ],
      "name": "OwnershipTransferred",
      "type": "event"
    },
    {
      "anonymous": false,
      "inputs": [
        {
          "indexed": false,
          "internalType": "address",
          "name": "account",
          "type": "address"
        }
      ],
      "name": "Paused",
      "type": "event"
    },
    {
      "anonymous": false,
      "inputs": [
        {
          "indexed": false,
          "internalType": "uint256",
          "name": "pokemonId",
          "type": "uint256"
        },
        {
          "indexed": false,
          "internalType": "uint256",
          "name": "newX",
          "type": "uint256"
        },
        {
          "indexed": false,
          "internalType": "uint256",
          "name": "newY",
          "type": "uint256"
        }
      ],
      "name": "PokemonRelocated",
      "type": "event"
    },
    {
      "anonymous": false,
      "inputs": [
        {
          "indexed": false,
          "internalType": "uint256",
          "name": "pokemonId",
          "type": "uint256"
        },
        {
          "indexed": false,
          "internalType": "uint256",
          "name": "positionX",
          "type": "uint256"
        },
        {
          "indexed": false,
          "internalType": "uint256",
          "name": "positionY",
          "type": "uint256"
        },
        {
          "indexed": false,
          "internalType": "uint8",
          "name": "slotIndex",
          "type": "uint8"
        }
      ],
      "name": "PokemonSpawned",
      "type": "event"
    },
    {
      "anonymous": false,
      "inputs": [
        {
          "indexed": true,
          "internalType": "uint256",
          "name": "requestId",
          "type": "uint256"
        },
        {
          "indexed": false,
          "internalType": "uint256",
          "name": "randomNumber",
          "type": "uint256"
        },
        {
          "indexed": false,
          "internalType": "bool",
          "name": "isSpawnRequest",
          "type": "bool"
        }
      ],
      "name": "RandomnessReceived",
      "type": "event"
    },
    {
      "anonymous": false,
      "inputs": [
        {
          "indexed": false,
          "internalType": "uint256",
          "name": "amount",
          "type": "uint256"
        }
      ],
      "name": "RevenueSentToManager",
      "type": "event"
    },
    {
      "anonymous": false,
      "inputs": [
        {
          "indexed": true,
          "internalType": "address",
          "name": "thrower",
          "type": "address"
        },
        {
          "indexed": false,
          "internalType": "uint256",
          "name": "pokemonId",
          "type": "uint256"
        },
        {
          "indexed": false,
          "internalType": "uint8",
          "name": "ballTier",
          "type": "uint8"
        },
        {
          "indexed": false,
          "internalType": "uint256",
          "name": "requestId",
          "type": "uint256"
        }
      ],
      "name": "ThrowAttempted",
      "type": "event"
    },
    {
      "anonymous": false,
      "inputs": [
        {
          "indexed": false,
          "internalType": "address",
          "name": "account",
          "type": "address"
        }
      ],
      "name": "Unpaused",
      "type": "event"
    },
    {
      "anonymous": false,
      "inputs": [
        {
          "indexed": true,
          "internalType": "address",
          "name": "implementation",
          "type": "address"
        }
      ],
      "name": "Upgraded",
      "type": "event"
    },
    {
      "anonymous": false,
      "inputs": [
        {
          "indexed": false,
          "internalType": "string",
          "name": "walletType",
          "type": "string"
        },
        {
          "indexed": false,
          "internalType": "address",
          "name": "oldAddress",
          "type": "address"
        },
        {
          "indexed": false,
          "internalType": "address",
          "name": "newAddress",
          "type": "address"
        }
      ],
      "name": "WalletUpdated",
      "type": "event"
    },
    {
      "inputs": [],
      "name": "APE_DECIMALS",
      "outputs": [
        {
          "internalType": "uint8",
          "name": "",
          "type": "uint8"
        }
      ],
      "stateMutability": "view",
      "type": "function"
    },
    {
      "inputs": [],
      "name": "BPS_DENOMINATOR",
      "outputs": [
        {
          "internalType": "uint256",
          "name": "",
          "type": "uint256"
        }
      ],
      "stateMutability": "view",
      "type": "function"
    },
    {
      "inputs": [],
      "name": "MAX_ACTIVE_POKEMON",
      "outputs": [
        {
          "internalType": "uint8",
          "name": "",
          "type": "uint8"
        }
      ],
      "stateMutability": "view",
      "type": "function"
    },
    {
      "inputs": [],
      "name": "MAX_COORDINATE",
      "outputs": [
        {
          "internalType": "uint256",
          "name": "",
          "type": "uint256"
        }
      ],
      "stateMutability": "view",
      "type": "function"
    },
    {
      "inputs": [],
      "name": "MAX_PURCHASE_USD",
      "outputs": [
        {
          "internalType": "uint256",
          "name": "",
          "type": "uint256"
        }
      ],
      "stateMutability": "view",
      "type": "function"
    },
    {
      "inputs": [],
      "name": "MAX_THROW_ATTEMPTS",
      "outputs": [
        {
          "internalType": "uint8",
          "name": "",
          "type": "uint8"
        }
      ],
      "stateMutability": "view",
      "type": "function"
    },
    {
      "inputs": [],
      "name": "PLATFORM_FEE_BPS",
      "outputs": [
        {
          "internalType": "uint256",
          "name": "",
          "type": "uint256"
        }
      ],
      "stateMutability": "view",
      "type": "function"
    },
    {
      "inputs": [],
      "name": "REVENUE_POOL_BPS",
      "outputs": [
        {
          "internalType": "uint256",
          "name": "",
          "type": "uint256"
        }
      ],
      "stateMutability": "view",
      "type": "function"
    },
    {
      "inputs": [],
      "name": "UPGRADE_INTERFACE_VERSION",
      "outputs": [
        {
          "internalType": "string",
          "name": "",
          "type": "string"
        }
      ],
      "stateMutability": "view",
      "type": "function"
    },
    {
      "inputs": [],
      "name": "USDC_DECIMALS",
      "outputs": [
        {
          "internalType": "uint8",
          "name": "",
          "type": "uint8"
        }
      ],
      "stateMutability": "view",
      "type": "function"
    },
    {
      "inputs": [
        {
          "internalType": "uint256",
          "name": "",
          "type": "uint256"
        }
      ],
      "name": "activePokemons",
      "outputs": [
        {
          "internalType": "uint256",
          "name": "id",
          "type": "uint256"
        },
        {
          "internalType": "uint256",
          "name": "positionX",
          "type": "uint256"
        },
        {
          "internalType": "uint256",
          "name": "positionY",
          "type": "uint256"
        },
        {
          "internalType": "uint8",
          "name": "throwAttempts",
          "type": "uint8"
        },
        {
          "internalType": "bool",
          "name": "isActive",
          "type": "bool"
        },
        {
          "internalType": "uint256",
          "name": "spawnTime",
          "type": "uint256"
        }
      ],
      "stateMutability": "view",
      "type": "function"
    },
    {
      "inputs": [],
      "name": "ape",
      "outputs": [
        {
          "internalType": "contract IERC20",
          "name": "",
          "type": "address"
        }
      ],
      "stateMutability": "view",
      "type": "function"
    },
    {
      "inputs": [],
      "name": "apePriceUSD",
      "outputs": [
        {
          "internalType": "uint256",
          "name": "",
          "type": "uint256"
        }
      ],
      "stateMutability": "view",
      "type": "function"
    },
    {
      "inputs": [
        {
          "internalType": "enum PokeballGame.BallType",
          "name": "",
          "type": "uint8"
        }
      ],
      "name": "ballCatchRates",
      "outputs": [
        {
          "internalType": "uint8",
          "name": "",
          "type": "uint8"
        }
      ],
      "stateMutability": "view",
      "type": "function"
    },
    {
      "inputs": [
        {
          "internalType": "enum PokeballGame.BallType",
          "name": "",
          "type": "uint8"
        }
      ],
      "name": "ballPrices",
      "outputs": [
        {
          "internalType": "uint256",
          "name": "",
          "type": "uint256"
        }
      ],
      "stateMutability": "view",
      "type": "function"
    },
    {
      "inputs": [
        {
          "internalType": "uint256",
          "name": "usdcAmount",
          "type": "uint256"
        }
      ],
      "name": "calculateAPEAmount",
      "outputs": [
        {
          "internalType": "uint256",
          "name": "apeAmount",
          "type": "uint256"
        }
      ],
      "stateMutability": "view",
      "type": "function"
    },
    {
      "inputs": [
        {
          "internalType": "uint8",
          "name": "slot",
          "type": "uint8"
        }
      ],
      "name": "despawnPokemon",
      "outputs": [],
      "stateMutability": "nonpayable",
      "type": "function"
    },
    {
      "inputs": [
        {
          "internalType": "uint8",
          "name": "slot",
          "type": "uint8"
        },
        {
          "internalType": "uint256",
          "name": "posX",
          "type": "uint256"
        },
        {
          "internalType": "uint256",
          "name": "posY",
          "type": "uint256"
        }
      ],
      "name": "forceSpawnPokemon",
      "outputs": [],
      "stateMutability": "nonpayable",
      "type": "function"
    },
    {
      "inputs": [],
      "name": "getActivePokemonCount",
      "outputs": [
        {
          "internalType": "uint8",
          "name": "count",
          "type": "uint8"
        }
      ],
      "stateMutability": "view",
      "type": "function"
    },
    {
      "inputs": [],
      "name": "getActivePokemonSlots",
      "outputs": [
        {
          "internalType": "uint8[]",
          "name": "slots",
          "type": "uint8[]"
        }
      ],
      "stateMutability": "view",
      "type": "function"
    },
    {
      "inputs": [],
      "name": "getAllActivePokemons",
      "outputs": [
        {
          "components": [
            {
              "internalType": "uint256",
              "name": "id",
              "type": "uint256"
            },
            {
              "internalType": "uint256",
              "name": "positionX",
              "type": "uint256"
            },
            {
              "internalType": "uint256",
              "name": "positionY",
              "type": "uint256"
            },
            {
              "internalType": "uint8",
              "name": "throwAttempts",
              "type": "uint8"
            },
            {
              "internalType": "bool",
              "name": "isActive",
              "type": "bool"
            },
            {
              "internalType": "uint256",
              "name": "spawnTime",
              "type": "uint256"
            }
          ],
          "internalType": "struct PokeballGame.Pokemon[20]",
          "name": "pokemons",
          "type": "tuple[20]"
        }
      ],
      "stateMutability": "view",
      "type": "function"
    },
    {
      "inputs": [],
      "name": "getAllBallPrices",
      "outputs": [
        {
          "internalType": "uint256",
          "name": "pokeBallPrice",
          "type": "uint256"
        },
        {
          "internalType": "uint256",
          "name": "greatBallPrice",
          "type": "uint256"
        },
        {
          "internalType": "uint256",
          "name": "ultraBallPrice",
          "type": "uint256"
        },
        {
          "internalType": "uint256",
          "name": "masterBallPrice",
          "type": "uint256"
        }
      ],
      "stateMutability": "view",
      "type": "function"
    },
    {
      "inputs": [],
      "name": "getAllCatchRates",
      "outputs": [
        {
          "internalType": "uint8",
          "name": "pokeBallRate",
          "type": "uint8"
        },
        {
          "internalType": "uint8",
          "name": "greatBallRate",
          "type": "uint8"
        },
        {
          "internalType": "uint8",
          "name": "ultraBallRate",
          "type": "uint8"
        },
        {
          "internalType": "uint8",
          "name": "masterBallRate",
          "type": "uint8"
        }
      ],
      "stateMutability": "view",
      "type": "function"
    },
    {
      "inputs": [
        {
          "internalType": "address",
          "name": "player",
          "type": "address"
        }
      ],
      "name": "getAllPlayerBalls",
      "outputs": [
        {
          "internalType": "uint256",
          "name": "pokeBalls",
          "type": "uint256"
        },
        {
          "internalType": "uint256",
          "name": "greatBalls",
          "type": "uint256"
        },
        {
          "internalType": "uint256",
          "name": "ultraBalls",
          "type": "uint256"
        },
        {
          "internalType": "uint256",
          "name": "masterBalls",
          "type": "uint256"
        }
      ],
      "stateMutability": "view",
      "type": "function"
    },
    {
      "inputs": [
        {
          "internalType": "enum PokeballGame.BallType",
          "name": "ballType",
          "type": "uint8"
        }
      ],
      "name": "getBallPrice",
      "outputs": [
        {
          "internalType": "uint256",
          "name": "price",
          "type": "uint256"
        }
      ],
      "stateMutability": "view",
      "type": "function"
    },
    {
      "inputs": [
        {
          "internalType": "enum PokeballGame.BallType",
          "name": "ballType",
          "type": "uint8"
        }
      ],
      "name": "getCatchRate",
      "outputs": [
        {
          "internalType": "uint8",
          "name": "rate",
          "type": "uint8"
        }
      ],
      "stateMutability": "view",
      "type": "function"
    },
    {
      "inputs": [],
      "name": "getNFTInventoryCount",
      "outputs": [
        {
          "internalType": "uint256",
          "name": "count",
          "type": "uint256"
        }
      ],
      "stateMutability": "view",
      "type": "function"
    },
    {
      "inputs": [
        {
          "internalType": "uint256",
          "name": "requestId",
          "type": "uint256"
        }
      ],
      "name": "getPendingThrow",
      "outputs": [
        {
          "components": [
            {
              "internalType": "address",
              "name": "thrower",
              "type": "address"
            },
            {
              "internalType": "uint256",
              "name": "pokemonId",
              "type": "uint256"
            },
            {
              "internalType": "enum PokeballGame.BallType",
              "name": "ballType",
              "type": "uint8"
            },
            {
              "internalType": "uint256",
              "name": "timestamp",
              "type": "uint256"
            },
            {
              "internalType": "bool",
              "name": "resolved",
              "type": "bool"
            }
          ],
          "internalType": "struct PokeballGame.PendingThrow",
          "name": "",
          "type": "tuple"
        }
      ],
      "stateMutability": "view",
      "type": "function"
    },
    {
      "inputs": [
        {
          "internalType": "address",
          "name": "player",
          "type": "address"
        },
        {
          "internalType": "uint8",
          "name": "ballType",
          "type": "uint8"
        }
      ],
      "name": "getPlayerBallBalance",
      "outputs": [
        {
          "internalType": "uint256",
          "name": "quantity",
          "type": "uint256"
        }
      ],
      "stateMutability": "view",
      "type": "function"
    },
    {
      "inputs": [
        {
          "internalType": "uint8",
          "name": "slot",
          "type": "uint8"
        }
      ],
      "name": "getPokemon",
      "outputs": [
        {
          "components": [
            {
              "internalType": "uint256",
              "name": "id",
              "type": "uint256"
            },
            {
              "internalType": "uint256",
              "name": "positionX",
              "type": "uint256"
            },
            {
              "internalType": "uint256",
              "name": "positionY",
              "type": "uint256"
            },
            {
              "internalType": "uint8",
              "name": "throwAttempts",
              "type": "uint8"
            },
            {
              "internalType": "bool",
              "name": "isActive",
              "type": "bool"
            },
            {
              "internalType": "uint256",
              "name": "spawnTime",
              "type": "uint256"
            }
          ],
          "internalType": "struct PokeballGame.Pokemon",
          "name": "pokemon",
          "type": "tuple"
        }
      ],
      "stateMutability": "view",
      "type": "function"
    },
    {
      "inputs": [
        {
          "internalType": "address",
          "name": "_owner",
          "type": "address"
        },
        {
          "internalType": "address",
          "name": "_treasury",
          "type": "address"
        },
        {
          "internalType": "address",
          "name": "_nftRevenue",
          "type": "address"
        },
        {
          "internalType": "address",
          "name": "_usdce",
          "type": "address"
        },
        {
          "internalType": "address",
          "name": "_ape",
          "type": "address"
        },
        {
          "internalType": "address",
          "name": "_vrng",
          "type": "address"
        },
        {
          "internalType": "address",
          "name": "_slabNFT",
          "type": "address"
        },
        {
          "internalType": "uint256",
          "name": "_initialAPEPrice",
          "type": "uint256"
        }
      ],
      "name": "initialize",
      "outputs": [],
      "stateMutability": "nonpayable",
      "type": "function"
    },
    {
      "inputs": [],
      "name": "initializeV130",
      "outputs": [],
      "stateMutability": "nonpayable",
      "type": "function"
    },
    {
      "inputs": [],
      "name": "nextPokemonId",
      "outputs": [
        {
          "internalType": "uint256",
          "name": "",
          "type": "uint256"
        }
      ],
      "stateMutability": "view",
      "type": "function"
    },
    {
      "inputs": [],
      "name": "nftRevenueWallet",
      "outputs": [
        {
          "internalType": "address",
          "name": "",
          "type": "address"
        }
      ],
      "stateMutability": "view",
      "type": "function"
    },
    {
      "inputs": [],
      "name": "owner",
      "outputs": [
        {
          "internalType": "address",
          "name": "",
          "type": "address"
        }
      ],
      "stateMutability": "view",
      "type": "function"
    },
    {
      "inputs": [],
      "name": "pause",
      "outputs": [],
      "stateMutability": "nonpayable",
      "type": "function"
    },
    {
      "inputs": [],
      "name": "paused",
      "outputs": [
        {
          "internalType": "bool",
          "name": "",
          "type": "bool"
        }
      ],
      "stateMutability": "view",
      "type": "function"
    },
    {
      "inputs": [
        {
          "internalType": "uint256",
          "name": "",
          "type": "uint256"
        }
      ],
      "name": "pendingThrows",
      "outputs": [
        {
          "internalType": "address",
          "name": "thrower",
          "type": "address"
        },
        {
          "internalType": "uint256",
          "name": "pokemonId",
          "type": "uint256"
        },
        {
          "internalType": "enum PokeballGame.BallType",
          "name": "ballType",
          "type": "uint8"
        },
        {
          "internalType": "uint256",
          "name": "timestamp",
          "type": "uint256"
        },
        {
          "internalType": "bool",
          "name": "resolved",
          "type": "bool"
        }
      ],
      "stateMutability": "view",
      "type": "function"
    },
    {
      "inputs": [
        {
          "internalType": "address",
          "name": "",
          "type": "address"
        },
        {
          "internalType": "enum PokeballGame.BallType",
          "name": "",
          "type": "uint8"
        }
      ],
      "name": "playerBalls",
      "outputs": [
        {
          "internalType": "uint256",
          "name": "",
          "type": "uint256"
        }
      ],
      "stateMutability": "view",
      "type": "function"
    },
    {
      "inputs": [],
      "name": "proxiableUUID",
      "outputs": [
        {
          "internalType": "bytes32",
          "name": "",
          "type": "bytes32"
        }
      ],
      "stateMutability": "view",
      "type": "function"
    },
    {
      "inputs": [
        {
          "internalType": "uint8",
          "name": "ballType",
          "type": "uint8"
        },
        {
          "internalType": "uint256",
          "name": "quantity",
          "type": "uint256"
        },
        {
          "internalType": "bool",
          "name": "useAPE",
          "type": "bool"
        }
      ],
      "name": "purchaseBalls",
      "outputs": [],
      "stateMutability": "nonpayable",
      "type": "function"
    },
    {
      "inputs": [
        {
          "internalType": "uint256",
          "name": "requestId",
          "type": "uint256"
        },
        {
          "internalType": "uint256",
          "name": "randomNumber",
          "type": "uint256"
        }
      ],
      "name": "randomNumberCallback",
      "outputs": [],
      "stateMutability": "nonpayable",
      "type": "function"
    },
    {
      "inputs": [],
      "name": "renounceOwnership",
      "outputs": [],
      "stateMutability": "nonpayable",
      "type": "function"
    },
    {
      "inputs": [
        {
          "internalType": "uint256",
          "name": "",
          "type": "uint256"
        }
      ],
      "name": "requestIdToTraceId",
      "outputs": [
        {
          "internalType": "uint256",
          "name": "",
          "type": "uint256"
        }
      ],
      "stateMutability": "view",
      "type": "function"
    },
    {
      "inputs": [],
      "name": "revertOnNoNFT",
      "outputs": [
        {
          "internalType": "bool",
          "name": "",
          "type": "bool"
        }
      ],
      "stateMutability": "view",
      "type": "function"
    },
    {
      "inputs": [
        {
          "internalType": "uint256",
          "name": "newPrice",
          "type": "uint256"
        }
      ],
      "name": "setAPEPrice",
      "outputs": [],
      "stateMutability": "nonpayable",
      "type": "function"
    },
    {
      "inputs": [
        {
          "internalType": "uint8",
          "name": "ballType",
          "type": "uint8"
        },
        {
          "internalType": "uint256",
          "name": "newPrice",
          "type": "uint256"
        }
      ],
      "name": "setBallPrice",
      "outputs": [],
      "stateMutability": "nonpayable",
      "type": "function"
    },
    {
      "inputs": [
        {
          "internalType": "uint8",
          "name": "ballType",
          "type": "uint8"
        },
        {
          "internalType": "uint8",
          "name": "newRate",
          "type": "uint8"
        }
      ],
      "name": "setCatchRate",
      "outputs": [],
      "stateMutability": "nonpayable",
      "type": "function"
    },
    {
      "inputs": [
        {
          "internalType": "address",
          "name": "newNFTRevenue",
          "type": "address"
        }
      ],
      "name": "setNFTRevenueWallet",
      "outputs": [],
      "stateMutability": "nonpayable",
      "type": "function"
    },
    {
      "inputs": [
        {
          "internalType": "address",
          "name": "newOwner",
          "type": "address"
        }
      ],
      "name": "setOwnerWallet",
      "outputs": [],
      "stateMutability": "nonpayable",
      "type": "function"
    },
    {
      "inputs": [
        {
          "internalType": "uint256",
          "name": "pokeBallPrice",
          "type": "uint256"
        },
        {
          "internalType": "uint256",
          "name": "greatBallPrice",
          "type": "uint256"
        },
        {
          "internalType": "uint256",
          "name": "ultraBallPrice",
          "type": "uint256"
        },
        {
          "internalType": "uint256",
          "name": "masterBallPrice",
          "type": "uint256"
        }
      ],
      "name": "setPricingConfig",
      "outputs": [],
      "stateMutability": "nonpayable",
      "type": "function"
    },
    {
      "inputs": [
        {
          "internalType": "bool",
          "name": "_revertOnNoNFT",
          "type": "bool"
        }
      ],
      "name": "setRevertOnNoNFT",
      "outputs": [],
      "stateMutability": "nonpayable",
      "type": "function"
    },
    {
      "inputs": [
        {
          "internalType": "address",
          "name": "_slabNFTManager",
          "type": "address"
        }
      ],
      "name": "setSlabNFTManager",
      "outputs": [],
      "stateMutability": "nonpayable",
      "type": "function"
    },
    {
      "inputs": [
        {
          "internalType": "address",
          "name": "newTreasury",
          "type": "address"
        }
      ],
      "name": "setTreasuryWallet",
      "outputs": [],
      "stateMutability": "nonpayable",
      "type": "function"
    },
    {
      "inputs": [],
      "name": "slabNFT",
      "outputs": [
        {
          "internalType": "contract IERC721",
          "name": "",
          "type": "address"
        }
      ],
      "stateMutability": "view",
      "type": "function"
    },
    {
      "inputs": [],
      "name": "slabNFTManager",
      "outputs": [
        {
          "internalType": "contract ISlabNFTManager",
          "name": "",
          "type": "address"
        }
      ],
      "stateMutability": "view",
      "type": "function"
    },
    {
      "inputs": [
        {
          "internalType": "uint8",
          "name": "slot",
          "type": "uint8"
        }
      ],
      "name": "spawnPokemon",
      "outputs": [],
      "stateMutability": "nonpayable",
      "type": "function"
    },
    {
      "inputs": [
        {
          "internalType": "uint8",
          "name": "pokemonSlot",
          "type": "uint8"
        },
        {
          "internalType": "uint8",
          "name": "ballType",
          "type": "uint8"
        }
      ],
      "name": "throwBall",
      "outputs": [
        {
          "internalType": "uint256",
          "name": "requestId",
          "type": "uint256"
        }
      ],
      "stateMutability": "nonpayable",
      "type": "function"
    },
    {
      "inputs": [],
      "name": "totalNFTsPurchased",
      "outputs": [
        {
          "internalType": "uint256",
          "name": "",
          "type": "uint256"
        }
      ],
      "stateMutability": "view",
      "type": "function"
    },
    {
      "inputs": [],
      "name": "totalPlatformFees",
      "outputs": [
        {
          "internalType": "uint256",
          "name": "",
          "type": "uint256"
        }
      ],
      "stateMutability": "view",
      "type": "function"
    },
    {
      "inputs": [],
      "name": "totalRevenuePool",
      "outputs": [
        {
          "internalType": "uint256",
          "name": "",
          "type": "uint256"
        }
      ],
      "stateMutability": "view",
      "type": "function"
    },
    {
      "inputs": [
        {
          "internalType": "address",
          "name": "newOwner",
          "type": "address"
        }
      ],
      "name": "transferOwnership",
      "outputs": [],
      "stateMutability": "nonpayable",
      "type": "function"
    },
    {
      "inputs": [],
      "name": "treasuryWallet",
      "outputs": [
        {
          "internalType": "address",
          "name": "",
          "type": "address"
        }
      ],
      "stateMutability": "view",
      "type": "function"
    },
    {
      "inputs": [],
      "name": "unpause",
      "outputs": [],
      "stateMutability": "nonpayable",
      "type": "function"
    },
    {
      "inputs": [
        {
          "internalType": "address",
          "name": "newImplementation",
          "type": "address"
        },
        {
          "internalType": "bytes",
          "name": "data",
          "type": "bytes"
        }
      ],
      "name": "upgradeToAndCall",
      "outputs": [],
      "stateMutability": "payable",
      "type": "function"
    },
    {
      "inputs": [],
      "name": "usdce",
      "outputs": [
        {
          "internalType": "contract IERC20",
          "name": "",
          "type": "address"
        }
      ],
      "stateMutability": "view",
      "type": "function"
    },
    {
      "inputs": [],
      "name": "vrng",
      "outputs": [
        {
          "internalType": "contract IPOPVRNG",
          "name": "",
          "type": "address"
        }
      ],
      "stateMutability": "view",
      "type": "function"
    },
    {
      "inputs": [],
      "name": "withdrawFees",
      "outputs": [],
      "stateMutability": "nonpayable",
      "type": "function"
    }
  ],
  "bytecode": "0x60a080604052346100ea57306080527ff0c57e16840df040f15088dc2f81fe391c3923bec73e23a9662efc9c229c6a005460ff8160401c166100d9576002600160401b03196001600160401b03821601610073575b604051613b1d90816100f08239608051818181611f6a015261203b0152f35b6001600160401b0319166001600160401b039081177ff0c57e16840df040f15088dc2f81fe391c3923bec73e23a9662efc9c229c6a005581527fc7f505b2f371ae2175ee4913f4499e1f2633a7b5936321eed1cdaeb6115181d290602090a13880610054565b63f92ee8a960e01b60005260046000fd5b600080fdfe6080604052600436101561001257600080fd5b6000803560e01c8063064c973c14612c715780630771197f14612bf1578063111bca7a14612bb957806311648422146128d157806323b5cb5d146127ff578063248684901461279057806325c61fcd146127675780632795a90e146126f95780632de8f450146126da57806338efa831146126be5780633bd81715146126a15780633f4ba83a1461261f5780633f968f4a146124365780634129849f1461241b5780634626402b146123f2578063476343ee1461232057806349c729e61461229b5780634c4e2a461461220c5780634f1ef28614611fbf57806352d1902d14611f57578063539aa77f14611f3a5780635c975abb14611f0a578063607c45d114611e9f5780636213841414611e7657806364c618cc14611e4d578063676db11d14611e175780636fea438d14611dee578063715018a614611d8457806379babd2c14611d5b5780637a0b07cf14611c385780637ed2f78314611a1a5780637edc648c146119f05780638456cb591461197b5780638761c1421461195857806388301911146116715780638da5cb5b1461163b5780638f561acc146115f657806394ea04d114610f2c578063970cff9314610ee05780639b7d1a2a14610e275780639fb769dd14610e09578063a2afc37314610d5f578063a8602fea14610cd2578063a957b53914610c22578063ad3cb1cc14610ba8578063bb542ef014610b09578063bf370a6114610ad7578063c1419def14610abb578063c5f5251114610a19578063cc7a69de146109fb578063cd6df42e1461092b578063d25741831461090e578063d33953ba146108e7578063d3631fa5146108c9578063d9deb60b146108ab578063e155d79e1461088d578063e1a4521814610870578063e53b74c61461070e578063eb76c37e146106f2578063ee8b779e14610620578063efdf9949146105eb578063f2fde38b146105be578063f37d84eb1461058b578063f4f000921461051d578063fa86b90b1461049e578063fc774c5c14610482578063fcc536ba1461037c5763fe5c7ba81461030957600080fd5b3461037957602036600319011261037957610322612cb6565b61032a613156565b60ff811660148110156103675750601481101561035357600502600d01805461ff001916905580f35b634e487b7160e01b82526032600452602482fd5b63cba5131560e01b8352600452602482fd5b80fd5b503461037957806003193601126103795761028060405161039d8282612d37565b825b82811061046d57505060405190810181811067ffffffffffffffff82111761045957604052600a82825b6014821061043b576040518486825b601482106103e657610f0084f35b602060c08261042f600194875160a0809180518452602081015160208501526040810151604085015260ff60608201511660608501526080810151151560808501520151910152565b019301910190916103d8565b6005602060019261044b86612ff4565b8152019301910190916103c9565b634e487b7160e01b83526041600452602483fd5b602090610478612fc3565b818401520161039f565b5034610379578060031936011261037957602060405160148152f35b503461037957806003193601126103795780815b601460ff8216106104cb5760208260ff60405191168152f35b60148110156105095760ff600d60058302015460081c166104f2575b60010160ff166104b2565b90600161050060ff926130a3565b929150506104e7565b634e487b7160e01b83526032600452602483fd5b503461037957602036600319011261037957604060a0916004358152606f60205220600180831b038154169060018101549061057d60ff60028301541660ff60046003850154940154169360405195865260208601526040850190612cc6565b606083015215156080820152f35b5034610379576020366003190112610379576004359060048210156103795760206105b583612d8e565b54604051908152f35b5034610379576020366003190112610379576105e86105db612c90565b6105e3613156565b613128565b80f35b503461037957602036600319011261037957600435906004821015610379576020610615836130cc565b60ff60405191168152f35b50346103795760403660031901126103795761063a612cb6565b60ff60243591610648613156565b1690600382116106de5780156106d0576302f969e081116106b65760048210156106a2576040600080516020613a688339815191529161068784612d8e565b54908061069386612d8e565b5582519182526020820152a280f35b634e487b7160e01b83526021600452602483fd5b63572dac3f60e01b83526004526302f969e0602452604482fd5b62bfc92160e01b8352600483fd5b63fab9b83760e01b83526004829052602483fd5b5034610379578060031936011261037957602060405160038152f35b503461037957806003193601126103795780815b601460ff821610610832575060ff1661075361073d826130b4565b9161074b6040519384612d37565b8083526130b4565b602082019190601f190136833782835b60ff811660148110156107ea5760148210156107d65760ff600d60058402015460081c16610798575b5060010160ff16610763565b6107a1836130a3565b92845160ff821610156107c25760051b611fe016840160200152600161078c565b634e487b7160e01b87526032600452602487fd5b634e487b7160e01b86526032600452602486fd5b50505090604051928392602084019060208552518091526040840192915b818110610816575050500390f35b825160ff16845285945060209384019390920191600101610808565b60148110156105095760ff600d60058302015460081c16610859575b60010160ff16610722565b90600161086760ff926130a3565b9291505061084e565b503461037957806003193601126103795760206040516127108152f35b50346103795780600319360112610379576020600854604051908152f35b50346103795780600319360112610379576020606e54604051908152f35b50346103795780600319360112610379576020600754604051908152f35b5034610379578060031936011261037957546040516001600160a01b039091168152602090f35b503461037957806003193601126103795760206040516103e78152f35b5034610379578060031936011261037957607560209081527ff9e3fbf150b7a0077118526f473c53cb4734f166167e2c6213e3567dd390b4ad547feb79622860583465ba0fa298cf2c34dc562a8c4a7eddc9cb6176342e350cc839547fdc08680627f0b0cb5718e90926933771ea0631efb027fa6786b4fde70f48bba75460036000527f54c599a54559426aa0f952ea1a1b5b5cb37d0b2411a1de77e2a8c2af92705eaa546040805160ff9586168152938516958401959095529083169382019390935291166060820152608090f35b50346103795780600319360112610379576020607254604051908152f35b503461037957602036600319011261037957610a33612c90565b610a3b613156565b6001600160a01b03168015610aac5760a0600080516020613a488339815191529160735490806001600160601b03841b8316176073556040519160608352600e60608401526d39b630b127232a26b0b730b3b2b960911b6080840152600180851b031660208301526040820152a180f35b63d92e233d60e01b8252600482fd5b5034610379578060031936011261037957602060405160068152f35b503461037957602036600319011261037957600435906004821015610379576020610b0183613040565b604051908152f35b503461037957602036600319011261037957610b23612c90565b610b2b613156565b6001600160a01b0381168015610b9957600080516020613a488339815191529160a091610b6e600180851b03600080516020613a0883398151915254169261334e565b6040519160608352600560608401526437bbb732b960d91b608084015260208301526040820152a180f35b63d92e233d60e01b8352600483fd5b50346103795780600319360112610379576040805191610bc88284612d37565b60058352640352e302e360dc1b6020840152815192839160208352815191826020850152815b838110610c0b575050828201840152601f01601f19168101030190f35b602082820181015188830188015287955001610bee565b503461037957604036600319011261037957610c3c612cb6565b60ff610c46612ca6565b91610c4f613156565b1690600382116106de5760ff1660648111610cc05760048210156106a25760407fbb6d93b2129fb3ef8cd6bec4b4f7ded1e50f1c845cf9a9620c759ccbdc5d17679160ff610c9c85612d75565b541690610ca885612d75565b805460ff19168217905582519182526020820152a280f35b63026291af60e31b8352600452602482fd5b503461037957602036600319011261037957610cec612c90565b610cf4613156565b6001600160a01b03168015610aac5760a0600080516020613a488339815191529160045490806001600160601b03841b83161760045560405191606083526008606084015267747265617375727960c01b6080840152600180851b031660208301526040820152a180f35b5034610379576020366003190112610379576001600160a01b03610d81612c90565b16808252600960205260408220828052602052610e05604083205491808452600960205260408420600185526020526040808520549482815260096020528181206002825260205281812054928152600960205281812060038252602052205490604051948594859094939260609260808301968352602083015260408201520152565b0390f35b50346103795780600319360112610379576020600654604051908152f35b503461037957602036600319011261037957610e41612cb6565b90610e4a612fc3565b5060ff82166014811015610ecd57506014821015610eb95760c0610e7360058402600a01612ff4565b610eb7604051809260a0809180518452602081015160208501526040810151604085015260ff60608201511660608501526080810151151560808501520151910152565bf35b634e487b7160e01b81526032600452602490fd5b63cba5131560e01b825260045260249150fd5b503461037957604036600319011261037957610efa612c90565b602435906004821015610f28576001600160a01b031682526009602090815260409092206105b59190612da7565b8280fd5b503461037957606036600319011261037957610f46612cb6565b60243560443591821515908184036115f257610f6061318c565b610f686131c8565b82156115e35760ff1692600384116115cf5760048410156115bb57610f8c84613040565b90838202918083048514901517156110df576302f969e0821161159f571561119d57610fb781612dbf565b600154604051636eb1769f60e11b81523360048201523060248201529192916001600160a01b0390911690602081604481855afa90811561114557889161116b575b5083811061115057506040516370a0823160e01b8152336004820152602081602481855afa90811561114557889161110e575b508381106110f35750826110439130903390613962565b61012c81029080820461012c14901517156110df576127106110689104600754612eb4565b600755915b33855260096020526110828460408720612da7565b61108d828254612eb4565b90556040519384526020840152604083015260608201527fa89bfe414137486dafff331717fbfdd7b10ad23757ea0f39f7666e906afe235d60803392a26001600080516020613aa88339815191525580f35b634e487b7160e01b86526011600452602486fd5b87908460649363db42144d60e01b8452600452602452604452fd5b90506020813d60201161113d575b8161112960209383612d37565b8101031261113857513861102c565b600080fd5b3d915061111c565b6040513d8a823e3d90fd5b879084606493630c95cf2760e11b8452600452602452604452fd5b90506020813d602011611195575b8161118660209383612d37565b81010312611138575138610ff9565b3d9150611179565b8454604051636eb1769f60e11b815233600482015230602482015291939184916001600160a01b031690602081604481855afa90811561114557889161156d575b5082811061155357506040516370a0823160e01b8152336004820152602081602481855afa90811561114557889161151d575b508281106115035750816112289130903390613962565b61012c810281810461012c14821517156114ef576127109004808203918083116114db5761125882600754612eb4565b6007556073546001600160a01b03169182151591826114d0575b5050611280575b505061106d565b8654604051636eb1769f60e11b81523060048201526001600160a01b03838116602483015290911690602081604481855afa80156114c55784908a9061148b575b6112cb9250612eb4565b60405163095ea7b360e01b60208083019182526001600160a01b0386166024840152604480840194909452928252909291908a9061130a606486612d37565b84519082855af189513d8261146f575b50501561142a575b50506073548791506001600160a01b0316803b1561142657819060246040518094819363bc1ca3e960e01b83528760048401525af1801561140757611412575b5060735460408051636c14397f60e11b815291829060049082908b906001600160a01b03165af18015611407576113c7575b5060207f6a35e7a759100d73c502119478cb5ae1ca768bbe0205d011ed3b0f76c59207a891604051908152a13880611279565b6040813d6040116113ff575b816113e060409383612d37565b810103126113fb5751801515036113f75738611394565b8580fd5b8680fd5b3d91506113d3565b6040513d89823e3d90fd5b8661141f91979297612d37565b9438611362565b5080fd5b611462611467936040519063095ea7b360e01b602083015260248201528a60448201526044815261145c606482612d37565b8261387d565b61387d565b388080611322565b9091506114835750803b15155b388061131a565b60011461147c565b50506020813d6020116114bd575b816114a660209383612d37565b810103126114b957836112cb91516112c1565b8880fd5b3d9150611499565b6040513d8b823e3d90fd5b141590503880611272565b634e487b7160e01b88526011600452602488fd5b634e487b7160e01b87526011600452602487fd5b606492889263db42144d60e01b8452600452602452604452fd5b90506020813d60201161154b575b8161153860209383612d37565b81010312611547575138611211565b8780fd5b3d915061152b565b6064928892630c95cf2760e11b8452600452602452604452fd5b90506020813d602011611597575b8161158860209383612d37565b810103126115475751386111de565b3d915061157b565b63572dac3f60e01b865260048290526302f969e0602452604486fd5b634e487b7160e01b85526021600452602485fd5b63fab9b83760e01b85526004849052602485fd5b63f4f5b73360e01b8552600485fd5b8480fd5b5034610379576040366003190112610379576002546001600160a01b03163303611628576105e8602435600435612f14565b635a1c6a5960e01b815233600452602490fd5b5034610379578060031936011261037957600080516020613a08833981519152546040516001600160a01b039091168152602090f35b5034610379576101003660031901126103795761168c612c90565b6024356001600160a01b03811690819003610f28576044356001600160a01b03811690819003611954576064356001600160a01b03811692908390036115f2576084356001600160a01b038116908190036113f75760a4356001600160a01b038116908190036113fb5760c4356001600160a01b03811692908390036115475760e43595600080516020613ac8833981519152549760ff8960401c16159867ffffffffffffffff81168015908161194c575b6001149081611942575b159081611939575b5061192a5767ffffffffffffffff198116600117600080516020613ac883398151915255896118fd575b506001600160a01b038116156118ee5785156118ee5786156118ee5781156118ee5782156118ee5783156118ee5784156118ee5787156118e0576117c8906117c06138d8565b6105e36138d8565b6117d06138d8565b6117d86138d8565b6117e06138d8565b6001600080516020613aa8833981519152556117fa6138d8565b6001600160601b0360a01b8954161788556001600160601b0360a01b60015416176001556001600160601b0360a01b60025416176002556001600160601b0360a01b60035416176003556001600160601b0360a01b60045416176004556001600160601b0360a01b60055416176005556072556001606e55600160715561187f6131f2565b6118865780f35b68ff000000000000000019600080516020613ac88339815191525416600080516020613ac8833981519152557fc7f505b2f371ae2175ee4913f4499e1f2633a7b5936321eed1cdaeb6115181d2602060405160018152a180f35b62bfc92160e01b8a5260048afd5b63d92e233d60e01b8a5260048afd5b68ffffffffffffffffff19166801000000000000000117600080516020613ac8833981519152553861177a565b63f92ee8a960e01b8b5260048bfd5b90501538611750565b303b159150611748565b8b915061173e565b8380fd5b5034610379578060031936011261037957602060ff607654166040519015158152f35b5034610379578060031936011261037957611994613156565b61199c6131c8565b600160ff19600080516020613a88833981519152541617600080516020613a88833981519152557f62e78cea01bee320cd4e420270b5ea74000d11b0c9f74754ebdbfc544b05a2586020604051338152a180f35b50346103795760203660031901126103795760406020916004358152607083522054604051908152f35b503461037957602036600319011261037957611a34612cb6565b611a3c613156565b60ff8116906014821015611c2457601481101561050957600502600d015460081c60ff16611c125781606e5491611a7283612ea5565b606e55607154611a8181612ea5565b60715560405160208101916001600160601b03193060601b16835285603483015260ff60f81b6054830152426055830152607582015260758152611ac6609582612d37565b51902092602060018060a01b03600254166024604051809681936371c8a23960e11b83528960048401525af1928315611c07578593611bd3575b5060048210156115bb5760405191611b1783612ce9565b30835260208301918252611b2f604084019182612e1c565b426060840190815260808401878152858852606f60205260408820945185546001600160a01b0319166001600160a01b039190911617855592516001850155905160028401906004811015611bbf5791611bb094939160049360ff8019835416911617905551600384015551151591019060ff801983541691151516179055565b82526070602052604082205580f35b634e487b7160e01b88526021600452602488fd5b9092506020813d602011611bff575b81611bef60209383612d37565b810103126115f257519138611b00565b3d9150611be2565b6040513d87823e3d90fd5b632f8ecec960e21b8252600452602490fd5b63cba5131560e01b83526004829052602483fd5b503461037957606036600319011261037957611c52612cb6565b90611c5b613156565b60ff8216916014831015611d4857601481101561035357600581029060ff600d83015460081c16611d3457907f156f6fef57e34329718d6efbd41f31a81afd51d967d24f97b94eb576dca20cfe91611d2e606e5491611cb983612ea5565b606e556103e86024350693611d066103e8604435069160405190611cdc82612d1b565b868252876020830152836040830152896060830152600160808301524260a0830152600a01612ec1565b60405194859485929360ff919594606093608086019786526020860152604085015216910152565b0390a180f35b632f8ecec960e21b83526004849052602483fd5b5060249163cba5131560e01b8252600452fd5b50346103795780600319360112610379576001546040516001600160a01b039091168152602090f35b5034610379578060031936011261037957611d9d613156565b600080516020613a0883398151915280546001600160a01b0319811690915581906001600160a01b03167f8be0079c531659141344cd1fd0a4f28419497f9722a3daafe3b4186f6b6457e08280a380f35b50346103795780600319360112610379576073546040516001600160a01b039091168152602090f35b50346103795760203660031901126103795760043590600482101561037957602060ff611e4384612d75565b5416604051908152f35b50346103795780600319360112610379576005546040516001600160a01b039091168152602090f35b50346103795780600319360112610379576002546040516001600160a01b039091168152602090f35b503461037957602036600319011261037957600435611ebc613156565b8015611efc5760407fc401b47db6ec4c8671a2f54cf3a5f3f7069c3b71b6c6ad9ed90f2c8cc9920b6a91607254908060725582519182526020820152a180f35b62bfc92160e01b8252600482fd5b5034610379578060031936011261037957602060ff600080516020613a8883398151915254166040519015158152f35b5034610379578060031936011261037957602060405161012c8152f35b50346103795780600319360112610379577f00000000000000000000000000000000000000000000000000000000000000006001600160a01b03163003611fb0576020604051600080516020613a288339815191528152f35b63703e46dd60e11b8152600490fd5b50604036600319011261037957611fd4612c90565b6024359067ffffffffffffffff8211610f285736602383011215610f28578160040135908361200283612d59565b936120106040519586612d37565b83855260208501933660248284010111610f2857806024602093018637850101526001600160a01b037f0000000000000000000000000000000000000000000000000000000000000000163081149081156121e9575b506121da57612073613156565b6040516352d1902d60e01b81526001600160a01b0382169390602081600481885afa8691816121a6575b506120b657634c9c8ce360e01b86526004859052602486fd5b9384600080516020613a288339815191528796036121945750823b1561218257600080516020613a2883398151915280546001600160a01b031916821790558491907fbc7cd75a20ee27fd9adebab32041f755214dbc6bffa90cc0225b39da2e5c2d3b8380a28051156121675761215b9382915190845af43d1561215f573d9161213f83612d59565b9261214d6040519485612d37565b83523d85602085013e6139a6565b5080f35b6060916139a6565b50505050346121735780f35b63b398979f60e01b8152600490fd5b634c9c8ce360e01b8552600452602484fd5b632a87526960e21b8652600452602485fd5b9091506020813d6020116121d2575b816121c260209383612d37565b810103126113fb5751903861209d565b3d91506121b5565b63703e46dd60e11b8452600484fd5b600080516020613a28833981519152546001600160a01b03161415905038612066565b503461037957602036600319011261037957612226612c90565b61222e613156565b6001600160a01b03168015610aac5760a0600080516020613a488339815191529160055490806001600160601b03841b8316176005556040519160608352600a6060840152696e6674526576656e756560b01b6080840152600180851b031660208301526040820152a180f35b50346103795780600319360112610379576122b4613156565b60ff60765460081c166122db576122c96131f2565b61010061ff0019607654161760765580f35b60405162461bcd60e51b815260206004820152601a60248201527f56312e332e3020616c726561647920696e697469616c697a65640000000000006044820152606490fd5b5034610379578060031936011261037957612339613156565b61234161318c565b60075480156123e3576007829055815460045460405163a9059cbb60e01b60208201526001600160a01b039182166024820152604480820185905281527fc0819c13be868895eb93e40eaceb96de976442fa1d404e5c55f14bb65a8c489a93926123b19216611462606483612d37565b600454604080516001600160a01b0390921682526020820192909252a16001600080516020613aa88339815191525580f35b630d00db4d60e31b8252600482fd5b50346103795780600319360112610379576004546040516001600160a01b039091168152602090f35b50346103795780600319360112610379576020610b01612e28565b50346103795760803660031901126103795760643560443560243560043561245c613156565b80158015612617575b801561260f575b8015612607575b6125f9576302f969e081116125df576302f969e082116125c3576302f969e083116125a7576302f969e0841161258b57848052607460205284600080516020613a688339815191526040808320548151908152846020820152a26001855260746020526001600080516020613a688339815191526040808820548151908152856020820152a26002855260746020526002600080516020613a688339815191526040808820548151908152866020820152a26003855260746020526003600080516020613a688339815191526040808820548151908152876020820152a28480526074602052604085205560018452607460205260408420556002835260746020526040832055600382526074602052604082205580f35b63572dac3f60e01b855260048490526302f969e0602452604485fd5b63572dac3f60e01b855260048390526302f969e0602452604485fd5b63572dac3f60e01b855260048290526302f969e0602452604485fd5b63572dac3f60e01b85526004526302f969e0602452604484fd5b62bfc92160e01b8552600485fd5b508315612473565b50821561246c565b508115612465565b5034610379578060031936011261037957612638613156565b600080516020613a888339815191525460ff8116156126925760ff1916600080516020613a88833981519152557f5db9ee0a495bf2e6ff9c91a7834c1ba4fdd244a5e8aa4e537bd38aeae4b073aa6020604051338152a180f35b638dfc202b60e01b8252600482fd5b503461037957806003193601126103795760206040516125e48152f35b5034610379578060031936011261037957602060405160128152f35b503461037957806003193601126103795760206040516302f969e08152f35b50346103795760203660031901126103795760043560148110156114265760059060c092500280600a01549060ff600b82015491600c810154600e600d8301549201549360405195865260208601526040850152818116606085015260081c161515608083015260a0820152f35b50346103795780600319360112610379576003546040516001600160a01b039091168152602090f35b503461037957806003193601126103795780805260746020526040812054600182526074602052610e0560408320549260028152607460205260408082205491600381526074602052205490604051948594859094939260609260808301968352602083015260408201520152565b50346103795760203660031901126103795760408160a0926080835161282481612ce9565b828152826020820152828582015282606082015201526004358152606f602052206040519061285282612ce9565b600180841b038154168252600181015490602083019182526128c160ff600283015416612883604086019182612e1c565b60ff6004600385015494606088019586520154169360808601941515855260405195600180891b039051168652516020860152516040850190612cc6565b5160608301525115156080820152f35b5034610379576040366003190112610379576128eb612cb6565b906128f4612ca6565b916128fd61318c565b6129056131c8565b60ff81166014811015610367575060ff831690600382116106de5760148110156105095760050260ff600d82600a0192015460081c1615612ba65760048210156106a257338352600960205261295e8260408520612da7565b5415612b8a5733835260096020526129798260408520612da7565b9384546000198101908111612b765784955581549060715461299a81612ea5565b6071556040519160208301936001600160601b03193360601b168552603484015260ff60f81b9060f81b1660548301524260558301526075820152607581526129e4609582612d37565b5190206002546040516371c8a23960e11b8152600481018390529460209186916024918391906001600160a01b03165af1938415611c07578594612b42575b50815460405190612a3382612ce9565b3382526020820190815260408201612a4b8682612e1c565b426060840190815260808401898152888a52606f60205260408a20945185546001600160a01b0319166001600160a01b039190911617855592516001850155905160028401906004811015612b2e578993612ad3936040969360049360209d5060ff8019835416911617905551600384015551151591019060ff801983541691151516179055565b8581526070875220555490604051918252838201528160408201527f5e0c015d137a94a9e864e17092fb126241c929614b46c3bc32163b46de9bf05b60603392a26001600080516020613aa883398151915255604051908152f35b634e487b7160e01b8a52602160045260248afd5b9093506020813d602011612b6e575b81612b5e60209383612d37565b810103126115f257519238612a23565b3d9150612b51565b634e487b7160e01b85526011600452602485fd5b60648383639f27773f60e01b8252600452600160245280604452fd5b546332c3e47160e21b8352600452602482fd5b50346103795760203660031901126103795760043580151580910361142657612be0613156565b60ff80196076541691161760765580f35b503461037957604036600319011261037957612c0b612c90565b9060ff612c16612ca6565b169160038311612c5e576001600160a01b03168152600960205260408120906004831015612c4a5760206105b58484612da7565b634e487b7160e01b81526021600452602490fd5b5060249163fab9b83760e01b8252600452fd5b5034610379576020366003190112610379576020610b01600435612dbf565b600435906001600160a01b038216820361113857565b6024359060ff8216820361113857565b6004359060ff8216820361113857565b906004821015612cd35752565b634e487b7160e01b600052602160045260246000fd5b60a0810190811067ffffffffffffffff821117612d0557604052565b634e487b7160e01b600052604160045260246000fd5b60c0810190811067ffffffffffffffff821117612d0557604052565b90601f8019910116810190811067ffffffffffffffff821117612d0557604052565b67ffffffffffffffff8111612d0557601f01601f191660200190565b6004811015612cd3576000526075602052604060002090565b6004811015612cd3576000526074602052604060002090565b906004811015612cd357600052602052604060002090565b68056bc75e2d6310000081029080820468056bc75e2d631000001490151715612e0657607254908115612df0570490565b634e487b7160e01b600052601260045260246000fd5b634e487b7160e01b600052601160045260246000fd5b6004821015612cd35752565b6073546001600160a01b03168015612e9f57602060049160405192838092630579ef8b60e51b82525afa908115612e9357600091612e64575090565b90506020813d602011612e8b575b81612e7f60209383612d37565b81010312611138575190565b3d9150612e72565b6040513d6000823e3d90fd5b50600090565b6000198114612e065760010190565b91908201809211612e0657565b8151815560208201516001820155604082015160028201556060820151600382018054608085015161ff0090151560081b1660ff90931661ffff199091161791909117905560a090910151600490910155565b6000818152606f602052604090208054909291906001600160a01b03168015612fae5760048401805460ff8116612f995760019060ff19161790553014907f1a938f65e4c6937f53440d5c5092d2cc6a2605276a3f59c370afd6f8c872610660408051858152846020820152a2612f9057612f8e91613486565b565b612f8e916133a4565b83633f8cbced60e21b60005260045260246000fd5b5063098354e960e41b60005260045260246000fd5b60405190612fd082612d1b565b600060a0838281528260208201528260408201528260608201528260808201520152565b9060405161300181612d1b565b60a06004829480548452600181015460208501526002810154604085015260ff6003820154818116606087015260081c16151560808501520154910152565b61304981612d8e565b54908115613055575090565b6004811015612cd357801561309a576001811461309157600281146130875760031461307e5790565b506302f969e090565b505063017d784090565b50506298968090565b5050620f424090565b60ff1660ff8114612e065760010190565b67ffffffffffffffff8111612d055760051b60200190565b60ff6130d782612d75565b54169081156130e4575090565b6004811015612cd3578015613121576001811461311a57600281146131135760031461310d5790565b50606390565b5050603290565b5050601490565b5050600290565b6001600160a01b0381161561314057612f8e9061334e565b631e4fbdf760e01b600052600060045260246000fd5b600080516020613a08833981519152546001600160a01b0316330361317757565b63118cdaa760e01b6000523360045260246000fd5b6002600080516020613aa883398151915254146131b7576002600080516020613aa883398151915255565b633ee5aeb560e01b60005260046000fd5b60ff600080516020613a8883398151915254166131e157565b63d93c066560e01b60005260046000fd5b620f42407fccdf39d850e26d5964b24c5391eecfa7a13a375488d6de2101d279419f39a53755629896807ff83d01c2b52626dc3c2e1555c273eea8900424c2c33f28b73359c960ee7130c15563017d78407f6682ec7d01f27599ce789688f09278cfefbe231146e0a71df5d9a69d5a0414f9556302f969e07f2727f07e5197d97fe18fb9ccc0d66458914dc7168b5c9ef06b237a6115a2dc1d5560756020527ff9e3fbf150b7a0077118526f473c53cb4734f166167e2c6213e3567dd390b4ad805460ff199081166002179091557feb79622860583465ba0fa298cf2c34dc562a8c4a7eddc9cb6176342e350cc8398054821660141790557fdc08680627f0b0cb5718e90926933771ea0631efb027fa6786b4fde70f48bba780548216603217905560036000527f54c599a54559426aa0f952ea1a1b5b5cb37d0b2411a1de77e2a8c2af92705eaa805482166063179055607680549091169055565b600080516020613a0883398151915280546001600160a01b039283166001600160a01b0319821681179092559091167f8be0079c531659141344cd1fd0a4f28419497f9722a3daafe3b4186f6b6457e0600080a3565b9060ff600283015416916004831015612cd3576014831015613481576000600584029360ff600d86015460081c1661347a577f156f6fef57e34329718d6efbd41f31a81afd51d967d24f97b94eb576dca20cfe9461344b83613475945060016103e88089069860801c069601928354916040519261342184612d1b565b8352886020840152876040840152806060840152600160808401524260a084015250600a01612ec1565b549260405194859485929360ff919594606093608086019786526020860152604085015216910152565b0390a1565b5050505050565b505050565b6134936001820154613906565b929015801561385f575b61348157601483101561384957600583029182600a019160ff6134c5816002850154166130cc565b166064820610156137635750549054600d92909201805461ff00191690556073546001600160a01b039182169160009116806136c4575b5060407fe1ef7825c332c25296359d37af815442cbd1fd6d620d8271b4180bd68f834bb0918151908582526020820152a26103e88101809111612e065760009060715461354881612ea5565b60715560405160208101916001600160601b03193060601b168352836034830152607f60f91b605483015242605583015260758201526075815261358d609582612d37565b51902092602060018060a01b03600254166024604051809681936371c8a23960e11b83528960048401525af1928315612e935760009361368f575b5060ff16906004821015612cd357604051906135e382612ce9565b308252602082019081526135fb604083019384612e1c565b4260608301908152600060808401818152868252606f6020526040909120935184546001600160a01b0319166001600160a01b039190911617845591516001840155925160028301939091906004831015612cd35761367f9460049360ff8019835416911617905551600384015551151591019060ff801983541691151516179055565b6000526070602052604060002055565b90926020823d6020116136bc575b816136aa60209383612d37565b810103126103795750519160ff6135c8565b3d915061369d565b602082916024604051809481936378b5aa8f60e01b83528860048401525af1918215613757578092613722575b5050801580613716575b61370557386134fc565b633684ae4560e01b60005260046000fd5b5060ff607654166136fb565b9091506020823d60201161374f575b8161373e60209383612d37565b8101031261037957505138806136f1565b3d9150613731565b604051903d90823e3d90fd5b91935060018060a01b0390541691600d81019260ff613784818654166130a3565b1660ff1985541617845560ff845416806003039160ff8311612e06577fde2c7625951ef209e3b14dc5de7c713aaf12a680817df0ba922f064834ed47e4604060039460ff8a54918351928352166020820152a210156137e4575b50505050565b7f991f141b1f67192a98969cd4005f41d17ef23a517c6975606af1c6f48a0ae37d93606093600c926103e8808660081c069560101c06938186600b87940155015560ff198154169055549160405192835260208301526040820152a1388080806137de565b634e487b7160e01b600052603260045260246000fd5b5060148310156138495760ff600d60058502015460081c161561349d565b906000602091828151910182855af115612e93576000513d6138cf57506001600160a01b0381163b155b6138ae5750565b635274afe760e01b60009081526001600160a01b0391909116600452602490fd5b600114156138a7565b60ff600080516020613ac88339815191525460401c16156138f557565b631afcd79f60e31b60005260046000fd5b9060005b601460ff82161061391e5750600091508190565b601481101561384957600581028381600a0154149081613950575b506139495760010160ff1661390a565b6001925090565b60ff9150600d015460081c1638613939565b6040516323b872dd60e01b60208201526001600160a01b039283166024820152929091166044830152606480830193909352918152612f8e91611462608483612d37565b906139cc57508051156139bb57602081519101fd5b63d6bda27560e01b60005260046000fd5b815115806139fe575b6139dd575090565b639996b31560e01b60009081526001600160a01b0391909116600452602490fd5b50803b156139d556fe9016d09d72d40fdae2fd8ceac6b6234c7706214fd39c1cd1e609a0528c199300360894a13ba1a3210667c828492db98dca3e2076cc3735a920a3ca505d382bbcd8e98bff5ae8522235ef48daecff7488b367200bea03a4e8cb4bc98108c6a492cc28ce5a83a186d74d6f88a98c2227cd05c9e358651dd06bdb774be5b9d59f6ecd5ed15c6e187e77e9aee88184c21f4f2182ab5827cb3b7e07fbedcd63f033009b779b17422d0df92223018b32b4d1fa46e071723d6817e2486d003becc55f00f0c57e16840df040f15088dc2f81fe391c3923bec73e23a9662efc9c229c6a00a2646970667358221220ab2ebb92c82b9e5232a199659ee0f066376f04ccc796e10b59619a7871cf894164736f6c634300081a0033",
  "linkReferences": {},
  "deployedLinkReferences": {}
}