{
  "_format": "hh-sol-artifact-1",
  "contractName": "SlabNFTManager",
  "sourceName": "contracts/SlabNFTManagerV2.sol",
  "abi": [
    {
      "inputs": [],
      "stateMutability": "nonpayable",
      "type": "constructor"
    },
    {
      "inputs": [
        {
          "internalType": "address",
          "name": "target",
          "type": "address"
        }
      ],
      "name": "AddressEmptyCode",
      "type": "error"
    },
    {
      "inputs": [
        {
          "internalType": "uint256",
          "name": "balance",
          "type": "uint256"
        },
        {
          "internalType": "uint256",
          "name": "threshold",
          "type": "uint256"
        }
      ],
      "name": "BelowPurchaseThreshold",
      "type": "error"
    },
    {
      "inputs": [
        {
          "internalType": "address",
          "name": "implementation",
          "type": "address"
        }
      ],
      "name": "ERC1967InvalidImplementation",
      "type": "error"
    },
    {
      "inputs": [],
      "name": "ERC1967NonPayable",
      "type": "error"
    },
    {
      "inputs": [],
      "name": "EnforcedPause",
      "type": "error"
    },
    {
      "inputs": [],
      "name": "ExpectedPause",
      "type": "error"
    },
    {
      "inputs": [],
      "name": "FailedCall",
      "type": "error"
    },
    {
      "inputs": [
        {
          "internalType": "uint256",
          "name": "required",
          "type": "uint256"
        },
        {
          "internalType": "uint256",
          "name": "available",
          "type": "uint256"
        }
      ],
      "name": "InsufficientBalance",
      "type": "error"
    },
    {
      "inputs": [],
      "name": "InvalidAmount",
      "type": "error"
    },
    {
      "inputs": [],
      "name": "InvalidInitialization",
      "type": "error"
    },
    {
      "inputs": [],
      "name": "InvalidTokenId",
      "type": "error"
    },
    {
      "inputs": [],
      "name": "InventoryEmpty",
      "type": "error"
    },
    {
      "inputs": [
        {
          "internalType": "uint8",
          "name": "maxSize",
          "type": "uint8"
        }
      ],
      "name": "InventoryFull",
      "type": "error"
    },
    {
      "inputs": [
        {
          "internalType": "address",
          "name": "caller",
          "type": "address"
        }
      ],
      "name": "NotAuthorized",
      "type": "error"
    },
    {
      "inputs": [],
      "name": "NotInitializing",
      "type": "error"
    },
    {
      "inputs": [
        {
          "internalType": "address",
          "name": "owner",
          "type": "address"
        }
      ],
      "name": "OwnableInvalidOwner",
      "type": "error"
    },
    {
      "inputs": [
        {
          "internalType": "address",
          "name": "account",
          "type": "address"
        }
      ],
      "name": "OwnableUnauthorizedAccount",
      "type": "error"
    },
    {
      "inputs": [],
      "name": "PurchaseAlreadyPending",
      "type": "error"
    },
    {
      "inputs": [],
      "name": "ReentrancyGuardReentrantCall",
      "type": "error"
    },
    {
      "inputs": [
        {
          "internalType": "address",
          "name": "token",
          "type": "address"
        }
      ],
      "name": "SafeERC20FailedOperation",
      "type": "error"
    },
    {
      "inputs": [
        {
          "internalType": "uint256",
          "name": "tokenId",
          "type": "uint256"
        }
      ],
      "name": "TokenNotInInventory",
      "type": "error"
    },
    {
      "inputs": [],
      "name": "TransferFailed",
      "type": "error"
    },
    {
      "inputs": [],
      "name": "UUPSUnauthorizedCallContext",
      "type": "error"
    },
    {
      "inputs": [
        {
          "internalType": "bytes32",
          "name": "slot",
          "type": "bytes32"
        }
      ],
      "name": "UUPSUnsupportedProxiableUUID",
      "type": "error"
    },
    {
      "inputs": [],
      "name": "ZeroAddress",
      "type": "error"
    },
    {
      "anonymous": false,
      "inputs": [
        {
          "indexed": false,
          "internalType": "uint256",
          "name": "balance",
          "type": "uint256"
        },
        {
          "indexed": false,
          "internalType": "uint256",
          "name": "inventorySize",
          "type": "uint256"
        },
        {
          "indexed": false,
          "internalType": "uint256",
          "name": "maxSize",
          "type": "uint256"
        }
      ],
      "name": "AutoPurchaseSkippedInventoryFull",
      "type": "event"
    },
    {
      "anonymous": false,
      "inputs": [
        {
          "indexed": true,
          "internalType": "address",
          "name": "recipient",
          "type": "address"
        },
        {
          "indexed": false,
          "internalType": "uint256",
          "name": "usdcAmount",
          "type": "uint256"
        },
        {
          "indexed": false,
          "internalType": "uint256",
          "name": "nftCount",
          "type": "uint256"
        }
      ],
      "name": "EmergencyWithdrawal",
      "type": "event"
    },
    {
      "anonymous": false,
      "inputs": [
        {
          "indexed": false,
          "internalType": "uint64",
          "name": "version",
          "type": "uint64"
        }
      ],
      "name": "Initialized",
      "type": "event"
    },
    {
      "anonymous": false,
      "inputs": [
        {
          "indexed": false,
          "internalType": "uint256",
          "name": "currentSize",
          "type": "uint256"
        },
        {
          "indexed": false,
          "internalType": "uint256",
          "name": "maxSize",
          "type": "uint256"
        }
      ],
      "name": "InventoryCapacityReached",
      "type": "event"
    },
    {
      "anonymous": false,
      "inputs": [
        {
          "indexed": true,
          "internalType": "address",
          "name": "winner",
          "type": "address"
        },
        {
          "indexed": true,
          "internalType": "uint256",
          "name": "tokenId",
          "type": "uint256"
        },
        {
          "indexed": false,
          "internalType": "uint256",
          "name": "remainingInventory",
          "type": "uint256"
        }
      ],
      "name": "NFTAwarded",
      "type": "event"
    },
    {
      "anonymous": false,
      "inputs": [
        {
          "indexed": true,
          "internalType": "uint256",
          "name": "requestId",
          "type": "uint256"
        },
        {
          "indexed": false,
          "internalType": "uint256",
          "name": "amount",
          "type": "uint256"
        },
        {
          "indexed": false,
          "internalType": "address",
          "name": "recipient",
          "type": "address"
        }
      ],
      "name": "NFTPurchaseInitiated",
      "type": "event"
    },
    {
      "anonymous": false,
      "inputs": [
        {
          "indexed": true,
          "internalType": "uint256",
          "name": "tokenId",
          "type": "uint256"
        },
        {
          "indexed": false,
          "internalType": "uint256",
          "name": "inventorySize",
          "type": "uint256"
        }
      ],
      "name": "NFTReceived",
      "type": "event"
    },
    {
      "anonymous": false,
      "inputs": [
        {
          "indexed": false,
          "internalType": "address",
          "name": "oldOwner",
          "type": "address"
        },
        {
          "indexed": false,
          "internalType": "address",
          "name": "newOwner",
          "type": "address"
        }
      ],
      "name": "OwnerWalletUpdated",
      "type": "event"
    },
    {
      "anonymous": false,
      "inputs": [
        {
          "indexed": true,
          "internalType": "address",
          "name": "previousOwner",
          "type": "address"
        },
        {
          "indexed": true,
          "internalType": "address",
          "name": "newOwner",
          "type": "address"
        }
      ],
      "name": "OwnershipTransferred",
      "type": "event"
    },
    {
      "anonymous": false,
      "inputs": [
        {
          "indexed": false,
          "internalType": "address",
          "name": "account",
          "type": "address"
        }
      ],
      "name": "Paused",
      "type": "event"
    },
    {
      "anonymous": false,
      "inputs": [
        {
          "indexed": false,
          "internalType": "address",
          "name": "oldAddress",
          "type": "address"
        },
        {
          "indexed": false,
          "internalType": "address",
          "name": "newAddress",
          "type": "address"
        }
      ],
      "name": "PokeballGameUpdated",
      "type": "event"
    },
    {
      "anonymous": false,
      "inputs": [
        {
          "indexed": true,
          "internalType": "address",
          "name": "depositor",
          "type": "address"
        },
        {
          "indexed": false,
          "internalType": "uint256",
          "name": "amount",
          "type": "uint256"
        },
        {
          "indexed": false,
          "internalType": "uint256",
          "name": "newBalance",
          "type": "uint256"
        }
      ],
      "name": "RevenueDeposited",
      "type": "event"
    },
    {
      "anonymous": false,
      "inputs": [
        {
          "indexed": false,
          "internalType": "address",
          "name": "oldAddress",
          "type": "address"
        },
        {
          "indexed": false,
          "internalType": "address",
          "name": "newAddress",
          "type": "address"
        }
      ],
      "name": "TreasuryWalletUpdated",
      "type": "event"
    },
    {
      "anonymous": false,
      "inputs": [
        {
          "indexed": false,
          "internalType": "address",
          "name": "account",
          "type": "address"
        }
      ],
      "name": "Unpaused",
      "type": "event"
    },
    {
      "anonymous": false,
      "inputs": [
        {
          "indexed": true,
          "internalType": "address",
          "name": "implementation",
          "type": "address"
        }
      ],
      "name": "Upgraded",
      "type": "event"
    },
    {
      "inputs": [],
      "name": "AUTO_PURCHASE_THRESHOLD",
      "outputs": [
        {
          "internalType": "uint256",
          "name": "",
          "type": "uint256"
        }
      ],
      "stateMutability": "view",
      "type": "function"
    },
    {
      "inputs": [],
      "name": "MAX_INVENTORY_SIZE",
      "outputs": [
        {
          "internalType": "uint8",
          "name": "",
          "type": "uint8"
        }
      ],
      "stateMutability": "view",
      "type": "function"
    },
    {
      "inputs": [],
      "name": "UPGRADE_INTERFACE_VERSION",
      "outputs": [
        {
          "internalType": "string",
          "name": "",
          "type": "string"
        }
      ],
      "stateMutability": "view",
      "type": "function"
    },
    {
      "inputs": [],
      "name": "USDC_DECIMALS",
      "outputs": [
        {
          "internalType": "uint8",
          "name": "",
          "type": "uint8"
        }
      ],
      "stateMutability": "view",
      "type": "function"
    },
    {
      "inputs": [
        {
          "internalType": "address",
          "name": "winner",
          "type": "address"
        }
      ],
      "name": "awardNFTToWinner",
      "outputs": [
        {
          "internalType": "uint256",
          "name": "tokenId",
          "type": "uint256"
        }
      ],
      "stateMutability": "nonpayable",
      "type": "function"
    },
    {
      "inputs": [
        {
          "internalType": "address",
          "name": "winner",
          "type": "address"
        },
        {
          "internalType": "uint256",
          "name": "tokenId",
          "type": "uint256"
        }
      ],
      "name": "awardSpecificNFT",
      "outputs": [
        {
          "internalType": "bool",
          "name": "success",
          "type": "bool"
        }
      ],
      "stateMutability": "nonpayable",
      "type": "function"
    },
    {
      "inputs": [],
      "name": "canAutoPurchase",
      "outputs": [
        {
          "internalType": "bool",
          "name": "canPurchase",
          "type": "bool"
        },
        {
          "internalType": "uint256",
          "name": "currentBalance",
          "type": "uint256"
        },
        {
          "internalType": "uint256",
          "name": "threshold",
          "type": "uint256"
        },
        {
          "internalType": "uint256",
          "name": "pullPrice",
          "type": "uint256"
        }
      ],
      "stateMutability": "view",
      "type": "function"
    },
    {
      "inputs": [],
      "name": "checkAndPurchaseNFT",
      "outputs": [
        {
          "internalType": "bool",
          "name": "purchased",
          "type": "bool"
        },
        {
          "internalType": "uint256",
          "name": "requestId",
          "type": "uint256"
        }
      ],
      "stateMutability": "nonpayable",
      "type": "function"
    },
    {
      "inputs": [
        {
          "internalType": "uint256",
          "name": "amount",
          "type": "uint256"
        }
      ],
      "name": "depositRevenue",
      "outputs": [],
      "stateMutability": "nonpayable",
      "type": "function"
    },
    {
      "inputs": [],
      "name": "emergencyWithdraw",
      "outputs": [],
      "stateMutability": "nonpayable",
      "type": "function"
    },
    {
      "inputs": [],
      "name": "forcePurchaseNFT",
      "outputs": [
        {
          "internalType": "uint256",
          "name": "requestId",
          "type": "uint256"
        }
      ],
      "stateMutability": "nonpayable",
      "type": "function"
    },
    {
      "inputs": [],
      "name": "getInventory",
      "outputs": [
        {
          "internalType": "uint256[]",
          "name": "tokenIds",
          "type": "uint256[]"
        }
      ],
      "stateMutability": "view",
      "type": "function"
    },
    {
      "inputs": [],
      "name": "getInventoryCount",
      "outputs": [
        {
          "internalType": "uint256",
          "name": "count",
          "type": "uint256"
        }
      ],
      "stateMutability": "view",
      "type": "function"
    },
    {
      "inputs": [],
      "name": "getMaxInventorySize",
      "outputs": [
        {
          "internalType": "uint8",
          "name": "maxSize",
          "type": "uint8"
        }
      ],
      "stateMutability": "pure",
      "type": "function"
    },
    {
      "inputs": [],
      "name": "getStats",
      "outputs": [
        {
          "internalType": "uint256",
          "name": "nftsPurchased",
          "type": "uint256"
        },
        {
          "internalType": "uint256",
          "name": "nftsAwarded",
          "type": "uint256"
        },
        {
          "internalType": "uint256",
          "name": "usdcSpent",
          "type": "uint256"
        },
        {
          "internalType": "uint256",
          "name": "currentInventory",
          "type": "uint256"
        },
        {
          "internalType": "uint256",
          "name": "currentBalance",
          "type": "uint256"
        }
      ],
      "stateMutability": "view",
      "type": "function"
    },
    {
      "inputs": [],
      "name": "getUSDCBalance",
      "outputs": [
        {
          "internalType": "uint256",
          "name": "balance",
          "type": "uint256"
        }
      ],
      "stateMutability": "view",
      "type": "function"
    },
    {
      "inputs": [],
      "name": "hasInventorySpace",
      "outputs": [
        {
          "internalType": "bool",
          "name": "hasSpace",
          "type": "bool"
        },
        {
          "internalType": "uint8",
          "name": "availableSlots",
          "type": "uint8"
        }
      ],
      "stateMutability": "view",
      "type": "function"
    },
    {
      "inputs": [
        {
          "internalType": "address",
          "name": "_owner",
          "type": "address"
        },
        {
          "internalType": "address",
          "name": "_treasury",
          "type": "address"
        },
        {
          "internalType": "address",
          "name": "_usdce",
          "type": "address"
        },
        {
          "internalType": "address",
          "name": "_slabMachine",
          "type": "address"
        },
        {
          "internalType": "address",
          "name": "_slabNFT",
          "type": "address"
        },
        {
          "internalType": "address",
          "name": "_pokeballGame",
          "type": "address"
        }
      ],
      "name": "initialize",
      "outputs": [],
      "stateMutability": "nonpayable",
      "type": "function"
    },
    {
      "inputs": [
        {
          "internalType": "uint256",
          "name": "",
          "type": "uint256"
        }
      ],
      "name": "isInInventory",
      "outputs": [
        {
          "internalType": "bool",
          "name": "",
          "type": "bool"
        }
      ],
      "stateMutability": "view",
      "type": "function"
    },
    {
      "inputs": [
        {
          "internalType": "uint256",
          "name": "tokenId",
          "type": "uint256"
        }
      ],
      "name": "isTokenInInventory",
      "outputs": [
        {
          "internalType": "bool",
          "name": "inInventory",
          "type": "bool"
        }
      ],
      "stateMutability": "view",
      "type": "function"
    },
    {
      "inputs": [
        {
          "internalType": "uint256",
          "name": "",
          "type": "uint256"
        }
      ],
      "name": "nftInventory",
      "outputs": [
        {
          "internalType": "uint256",
          "name": "",
          "type": "uint256"
        }
      ],
      "stateMutability": "view",
      "type": "function"
    },
    {
      "inputs": [
        {
          "internalType": "address",
          "name": "",
          "type": "address"
        },
        {
          "internalType": "address",
          "name": "",
          "type": "address"
        },
        {
          "internalType": "uint256",
          "name": "tokenId",
          "type": "uint256"
        },
        {
          "internalType": "bytes",
          "name": "",
          "type": "bytes"
        }
      ],
      "name": "onERC721Received",
      "outputs": [
        {
          "internalType": "bytes4",
          "name": "",
          "type": "bytes4"
        }
      ],
      "stateMutability": "nonpayable",
      "type": "function"
    },
    {
      "inputs": [],
      "name": "owner",
      "outputs": [
        {
          "internalType": "address",
          "name": "",
          "type": "address"
        }
      ],
      "stateMutability": "view",
      "type": "function"
    },
    {
      "inputs": [],
      "name": "pause",
      "outputs": [],
      "stateMutability": "nonpayable",
      "type": "function"
    },
    {
      "inputs": [],
      "name": "paused",
      "outputs": [
        {
          "internalType": "bool",
          "name": "",
          "type": "bool"
        }
      ],
      "stateMutability": "view",
      "type": "function"
    },
    {
      "inputs": [
        {
          "internalType": "uint256",
          "name": "",
          "type": "uint256"
        }
      ],
      "name": "pendingPullRequests",
      "outputs": [
        {
          "internalType": "address",
          "name": "",
          "type": "address"
        }
      ],
      "stateMutability": "view",
      "type": "function"
    },
    {
      "inputs": [],
      "name": "pendingRequestCount",
      "outputs": [
        {
          "internalType": "uint256",
          "name": "",
          "type": "uint256"
        }
      ],
      "stateMutability": "view",
      "type": "function"
    },
    {
      "inputs": [],
      "name": "pokeballGame",
      "outputs": [
        {
          "internalType": "address",
          "name": "",
          "type": "address"
        }
      ],
      "stateMutability": "view",
      "type": "function"
    },
    {
      "inputs": [],
      "name": "proxiableUUID",
      "outputs": [
        {
          "internalType": "bytes32",
          "name": "",
          "type": "bytes32"
        }
      ],
      "stateMutability": "view",
      "type": "function"
    },
    {
      "inputs": [],
      "name": "renounceOwnership",
      "outputs": [],
      "stateMutability": "nonpayable",
      "type": "function"
    },
    {
      "inputs": [
        {
          "internalType": "address",
          "name": "newOwner",
          "type": "address"
        }
      ],
      "name": "setOwnerWallet",
      "outputs": [],
      "stateMutability": "nonpayable",
      "type": "function"
    },
    {
      "inputs": [
        {
          "internalType": "address",
          "name": "_pokeballGame",
          "type": "address"
        }
      ],
      "name": "setPokeballGame",
      "outputs": [],
      "stateMutability": "nonpayable",
      "type": "function"
    },
    {
      "inputs": [
        {
          "internalType": "address",
          "name": "_treasury",
          "type": "address"
        }
      ],
      "name": "setTreasuryWallet",
      "outputs": [],
      "stateMutability": "nonpayable",
      "type": "function"
    },
    {
      "inputs": [],
      "name": "slabMachine",
      "outputs": [
        {
          "internalType": "contract ISlabMachine",
          "name": "",
          "type": "address"
        }
      ],
      "stateMutability": "view",
      "type": "function"
    },
    {
      "inputs": [],
      "name": "slabNFT",
      "outputs": [
        {
          "internalType": "contract IERC721",
          "name": "",
          "type": "address"
        }
      ],
      "stateMutability": "view",
      "type": "function"
    },
    {
      "inputs": [
        {
          "internalType": "uint256",
          "name": "",
          "type": "uint256"
        }
      ],
      "name": "tokenIdToIndex",
      "outputs": [
        {
          "internalType": "uint256",
          "name": "",
          "type": "uint256"
        }
      ],
      "stateMutability": "view",
      "type": "function"
    },
    {
      "inputs": [],
      "name": "totalNFTsAwarded",
      "outputs": [
        {
          "internalType": "uint256",
          "name": "",
          "type": "uint256"
        }
      ],
      "stateMutability": "view",
      "type": "function"
    },
    {
      "inputs": [],
      "name": "totalNFTsPurchased",
      "outputs": [
        {
          "internalType": "uint256",
          "name": "",
          "type": "uint256"
        }
      ],
      "stateMutability": "view",
      "type": "function"
    },
    {
      "inputs": [],
      "name": "totalUSDCSpent",
      "outputs": [
        {
          "internalType": "uint256",
          "name": "",
          "type": "uint256"
        }
      ],
      "stateMutability": "view",
      "type": "function"
    },
    {
      "inputs": [
        {
          "internalType": "address",
          "name": "newOwner",
          "type": "address"
        }
      ],
      "name": "transferOwnership",
      "outputs": [],
      "stateMutability": "nonpayable",
      "type": "function"
    },
    {
      "inputs": [],
      "name": "treasuryWallet",
      "outputs": [
        {
          "internalType": "address",
          "name": "",
          "type": "address"
        }
      ],
      "stateMutability": "view",
      "type": "function"
    },
    {
      "inputs": [],
      "name": "unpause",
      "outputs": [],
      "stateMutability": "nonpayable",
      "type": "function"
    },
    {
      "inputs": [
        {
          "internalType": "address",
          "name": "newImplementation",
          "type": "address"
        },
        {
          "internalType": "bytes",
          "name": "data",
          "type": "bytes"
        }
      ],
      "name": "upgradeToAndCall",
      "outputs": [],
      "stateMutability": "payable",
      "type": "function"
    },
    {
      "inputs": [],
      "name": "usdce",
      "outputs": [
        {
          "internalType": "contract IERC20",
          "name": "",
          "type": "address"
        }
      ],
      "stateMutability": "view",
      "type": "function"
    }
  ],
  "bytecode": "0x60a080604052346100ea57306080527ff0c57e16840df040f15088dc2f81fe391c3923bec73e23a9662efc9c229c6a005460ff8160401c166100d9576002600160401b03196001600160401b03821601610073575b6040516124e890816100f082396080518181816114ab015261157c0152f35b6001600160401b0319166001600160401b039081177ff0c57e16840df040f15088dc2f81fe391c3923bec73e23a9662efc9c229c6a005581527fc7f505b2f371ae2175ee4913f4499e1f2633a7b5936321eed1cdaeb6115181d290602090a13880610054565b63f92ee8a960e01b60005260046000fd5b600080fdfe608080604052600436101561001357600080fd5b600090813560e01c908163150b7a02146118f45750806325c61fcd146118cb57806326ec0fbe146118a157806331e2c022146118835780633cfd1ccc146117f85780633f4ba83a146117765780634626402b1461174d5780634f1ef2861461150057806352d1902d14611498578063569ffd42146114695780635bf7117a146114405780635c975abb146114105780635d7f850c1461135a578063715018a6146112f0578063753089f71461129057806377d983c91461126757806378b5aa8f1461121f5780637c597f4e146112015780637d8dbe57146111ce578063829095971461106c57806382b65bef146110325780638456cb5914610fbd5780638da5cb5b14610f87578063a8602fea14610efc578063ad3cb1cc14610e82578063af3df16014610e64578063b309a85714610d1f578063b6efd54014610c85578063bb542ef014610bdb578063bc1ca3e914610ab0578063c1419def14610a94578063c59d4847146109d9578063cc2a9a5b1461074d578063d33953ba14610726578063d3e0414514610707578063d82872fe1461066e578063d8b84c62146103b2578063db2e21bc1461040a578063e0abba57146103ec578063e155d79e146103ce578063e18bbf5b146103b2578063ef33794814610263578063f2fde38b146102365763fbd7ec9e1461020557600080fd5b346102335760203660031901126102335760ff60406020926004358152600684522054166040519015158152f35b80fd5b503461023357602036600319011261023357610260610253611ac0565b61025b611d05565b611cd5565b80f35b503461023357806003193601126102335780546040516370a0823160e01b815230600482015290602090829060249082906001600160a01b03165afa9081156103a7578291610370575b50600154604051632dabc24f60e01b81529060a090829060049082906001600160a01b03165afa9081156103655760809391610331575b5063030a32c08210159182610326575b82610318575b6040519215158352602083015263030a32c060408301526060820152f35b9150601460055410916102fa565b8181101592506102f4565b610353915060a03d60a01161035e575b61034b8183611aec565b810190611cae565b9350505050386102e4565b503d610341565b6040513d85823e3d90fd5b90506020813d60201161039f575b8161038b60209383611aec565b8101031261039a5751386102ad565b600080fd5b3d915061037e565b6040513d84823e3d90fd5b5034610233578060031936011261023357602060405160148152f35b50346102335780600319360112610233576020600854604051908152f35b50346102335780600319360112610233576020600c54604051908152f35b5034610233578060031936011261023357610423611d05565b61042b611d91565b80546040516370a0823160e01b81523060048201526001600160a01b0390911690602081602481855afa90811561036557839161063c575b506005549181806105ea575b5050825b82811061053d575060055483600555806104dd575b506004546040805192835260208301939093526001600160a01b0316917f56da9a5ae0bcf6e7c3fdd78a10550e7d0458de1c39bfb7f6e96a3e92dd344a6891a260016000805160206124738339815191525580f35b600584527f036b6384b5eca791c62761152d0c79bb0604c104a5fb6f4eb0703f3154bb3db0017f036b6384b5eca791c62761152d0c79bb0604c104a5fb6f4eb0703f3154bb3db05b8181106105325750610488565b848155600101610525565b61054681611b40565b90549060031b1c908460018060a01b036002541660018060a01b036004541690803b156105e657604051632142170760e11b81523060048201526001600160a01b039290921660248301526044820185905282908290606490829084905af180156103a7576105cd575b50916001925260066020526040852060ff19815416905501610473565b816105d791611aec565b6105e25784386105b0565b8480fd5b8280fd5b60045460405163a9059cbb60e01b60208201526001600160a01b03909116602482015260448101919091526106359161063082606481015b03601f198101845283611aec565b612328565b388161046f565b90506020813d602011610666575b8161065760209383611aec565b8101031261039a575138610463565b3d915061064a565b5034610233578060031936011261023357610687611d91565b61068f611dcd565b6003546001600160a01b0316331415806106e5575b6106d25760406106b261214e565b600160008051602061247383398151915255825191151582526020820152f35b634a0bfec160e01b815233600452602490fd5b50600080516020612413833981519152546001600160a01b03163314156106a4565b5034610233578060031936011261023357602060405163030a32c08152f35b5034610233578060031936011261023357546040516001600160a01b039091168152602090f35b50346102335760c036600319011261023357610767611ac0565b61076f611ad6565b906044356001600160a01b03811691908290036109d5576064356001600160a01b038116908190036105e2576084356001600160a01b03811691908290036109d15760a4356001600160a01b03811694908590036109cd57600080516020612493833981519152549560ff8760401c16159667ffffffffffffffff8116801590816109c5575b60011490816109bb575b1590816109b2575b506109a35767ffffffffffffffff1981166001176000805160206124938339815191525587610976575b506001600160a01b03851615610967576001600160a01b0316938415610967578115610967578215610967578315610967576108779061086f612383565b61025b612383565b61087f612383565b610887612383565b61088f612383565b6001600080516020612473833981519152556108a9612383565b6001600160601b0360a01b8754161786556001600160601b0360a01b60015416176001556001600160601b0360a01b60025416176002556001600160601b0360a01b60045416176004556001600160601b0360a01b600354161760035561090d5780f35b68ff0000000000000000196000805160206124938339815191525416600080516020612493833981519152557fc7f505b2f371ae2175ee4913f4499e1f2633a7b5936321eed1cdaeb6115181d2602060405160018152a180f35b63d92e233d60e01b8852600488fd5b68ffffffffffffffffff191668010000000000000001176000805160206124938339815191525538610831565b63f92ee8a960e01b8952600489fd5b90501538610807565b303b1591506107ff565b8991506107f5565b8680fd5b8580fd5b8380fd5b5034610233578060031936011261023357600854600954600a5460055484546040516370a0823160e01b8152306004820152959391929190602090879060249082906001600160a01b03165afa938415610a885793610a53575b60a095506040519485526020850152604084015260608301526080820152f35b92506020853d602011610a80575b81610a6e60209383611aec565b8101031261039a5760a0945192610a33565b3d9150610a61565b604051903d90823e3d90fd5b5034610233578060031936011261023357602060405160068152f35b503461023357602036600319011261023357600435610acd611d91565b610ad5611dcd565b8015610bcc5781546040516323b872dd60e01b602082015233602482015230604482015260648101839052610b1a916001600160a01b03166106308260848101610622565b81546040516370a0823160e01b815230600482015290602090829060249082906001600160a01b03165afa908115610365578391610b9a575b5060405191825260208201527f2f22b7f6e7f7df7d0eb3d1a543a2b6eb906e76a03540c2d66d2725270a5f6d3160403392a260016000805160206124738339815191525580f35b90506020813d602011610bc4575b81610bb560209383611aec565b8101031261039a575138610b53565b3d9150610ba8565b63162908e360e11b8252600482fd5b503461023357602036600319011261023357610bf5611ac0565b610bfd611d05565b6001600160a01b03811615610c7657600080516020612413833981519152547f1ae677bcbca66f3bcf12daf4568dd58ceac4a4016c2c6da39a6ec63fa9b6434591906001600160a01b0316610c5182611d3b565b604080516001600160a01b039283168152929091166020830152819081015b0390a180f35b63d92e233d60e01b8252600482fd5b503461023357602036600319011261023357610c9f611ac0565b610ca7611d05565b6001600160a01b0381168015610d1057600380546001600160a01b031981169092179055604080516001600160a01b0392831681529190921660208201527ff66399fe71a8aeef123694608632ea96ea22bb57f3831b48be1edd314bd320cb9181908101610c70565b63d92e233d60e01b8352600483fd5b503461023357604036600319011261023357610d39611ac0565b60243591610d45611d91565b610d4d611dcd565b6003546001600160a01b031633036106d2576001600160a01b038216918215610c7657838252600660205260ff60408320541615610e5057610d8e84611df7565b6002546001600160a01b031690813b156105e657604051632142170760e11b81523060048201526001600160a01b03919091166024820152604481018590529082908290606490829084905af180156103a757610e40575b5050610df3600954611b71565b6009557f55144f84a06aba3b3a5c49b5d2d0d2a1fed9e25f465a2cc0f4a23b883c4782156020600554604051908152a3600160008051602061247383398151915255602060405160018152f35b81610e4a91611aec565b38610de6565b6329762dbf60e21b82526004849052602482fd5b50346102335780600319360112610233576020600554604051908152f35b50346102335780600319360112610233576040805191610ea28284611aec565b60058352640352e302e360dc1b6020840152815192839160208352815191826020850152815b838110610ee5575050828201840152601f01601f19168101030190f35b602082820181015188830188015287955001610ec8565b503461023357602036600319011261023357610f16611ac0565b610f1e611d05565b6001600160a01b0381168015610d1057600480546001600160a01b031981169092179055604080516001600160a01b0392831681529190921660208201527fa982575859d7ad2f390dc12b23f7dab8bbda047f9d0140ac68344b27bf34bfb49181908101610c70565b5034610233578060031936011261023357600080516020612413833981519152546040516001600160a01b039091168152602090f35b5034610233578060031936011261023357610fd6611d05565b610fde611dcd565b600160ff19600080516020612453833981519152541617600080516020612453833981519152557f62e78cea01bee320cd4e420270b5ea74000d11b0c9f74754ebdbfc544b05a2586020604051338152a180f35b5034610233576020366003190112610233576004359060055482101561023357602061105d83611b40565b90549060031b1c604051908152f35b5034610233578060031936011261023357611085611d91565b61108d611dcd565b611095611d05565b601460055410156111ba57600154604051632dabc24f60e01b8152919060a090839060049082906001600160a01b03165afa9182156111ad578192611187575b5080546040516370a0823160e01b815230600482015290602090829060249082906001600160a01b03165afa9081156103a7578291611151575b5082811061113c57602061112284611eee565b600160008051602061247383398151915255604051908152f35b60449263cf47918160e01b8352600452602452fd5b90506020813d60201161117f575b8161116c60209383611aec565b8101031261117b57513861110f565b5080fd5b3d915061115f565b6111a191925060a03d60a01161035e5761034b8183611aec565b935050505090386110d5565b50604051903d90823e3d90fd5b630c6fb6e960e31b81526014600452602490fd5b5034610233576020366003190112610233576020906004358152600b8252604060018060a01b0391205416604051908152f35b50346102335780600319360112610233576020600954604051908152f35b503461023357602036600319011261023357611239611ac0565b90611242611d91565b61124a611dcd565b6003546001600160a01b031633036106d257602061112283611b96565b50346102335780600319360112610233576003546040516001600160a01b039091168152602090f35b5034610233578060031936011261023357600554601481109081156112e55760140391601483116112d1575060ff80604093165b8351928352166020820152f35b634e487b7160e01b81526011600452602490fd5b5060ff6040926112c4565b5034610233578060031936011261023357611309611d05565b60008051602061241383398151915280546001600160a01b0319811690915581906001600160a01b03167f8be0079c531659141344cd1fd0a4f28419497f9722a3daafe3b4186f6b6457e08280a380f35b503461023357806003193601126102335760405180602060055491828152018091600585527f036b6384b5eca791c62761152d0c79bb0604c104a5fb6f4eb0703f3154bb3db090855b8181106113fa57505050826113b9910383611aec565b604051928392602084019060208552518091526040840192915b8181106113e1575050500390f35b82518452859450602093840193909201916001016113d3565b82548452602090930192600192830192016113a3565b5034610233578060031936011261023357602060ff60008051602061245383398151915254166040519015158152f35b50346102335780600319360112610233576001546040516001600160a01b039091168152602090f35b50346102335760203660031901126102335760ff60406020926004358152600684522054166040519015158152f35b50346102335780600319360112610233577f00000000000000000000000000000000000000000000000000000000000000006001600160a01b031630036114f15760206040516000805160206124338339815191528152f35b63703e46dd60e11b8152600490fd5b50604036600319011261023357611515611ac0565b6024359067ffffffffffffffff82116105e657366023830112156105e6578160040135908361154383611b24565b936115516040519586611aec565b838552602085019336602482840101116105e657806024602093018637850101526001600160a01b037f00000000000000000000000000000000000000000000000000000000000000001630811490811561172a575b5061171b576115b4611d05565b6040516352d1902d60e01b81526001600160a01b0382169390602081600481885afa8691816116e7575b506115f757634c9c8ce360e01b86526004859052602486fd5b93846000805160206124338339815191528796036116d55750823b156116c35760008051602061243383398151915280546001600160a01b031916821790558491907fbc7cd75a20ee27fd9adebab32041f755214dbc6bffa90cc0225b39da2e5c2d3b8380a28051156116a85761169c9382915190845af43d156116a0573d9161168083611b24565b9261168e6040519485611aec565b83523d85602085013e6123b1565b5080f35b6060916123b1565b50505050346116b45780f35b63b398979f60e01b8152600490fd5b634c9c8ce360e01b8552600452602484fd5b632a87526960e21b8652600452602485fd5b9091506020813d602011611713575b8161170360209383611aec565b810103126109cd575190386115de565b3d91506116f6565b63703e46dd60e11b8452600484fd5b600080516020612433833981519152546001600160a01b031614159050386115a7565b50346102335780600319360112610233576004546040516001600160a01b039091168152602090f35b503461023357806003193601126102335761178f611d05565b6000805160206124538339815191525460ff8116156117e95760ff1916600080516020612453833981519152557f5db9ee0a495bf2e6ff9c91a7834c1ba4fdd244a5e8aa4e537bd38aeae4b073aa6020604051338152a180f35b638dfc202b60e01b8252600482fd5b503461023357806003193601126102335780546040516370a0823160e01b815230600482015290602090829060249082906001600160a01b03165afa9081156103a757829161184d575b602082604051908152f35b90506020813d60201161187b575b8161186860209383611aec565b8101031261117b57602091505138611842565b3d915061185b565b50346102335780600319360112610233576020600a54604051908152f35b50346102335760203660031901126102335760406020916004358152600783522054604051908152f35b50346102335780600319360112610233576002546040516001600160a01b039091168152602090f35b82346102335760803660031901126102335761190e611ac0565b50611917611ad6565b506044359160643567ffffffffffffffff81116105e657366023820112156105e657806004013567ffffffffffffffff81116109d5573691016024011161117b576002546001600160a01b0316331461197d575b604051630a85bd0160e11b8152602090f35b6005549060148210908115611a88575015611a41578282526007602052604082205560055468010000000000000000811015611a2d57906119e3836119ca84600160409601600555611b40565b90919082549060031b91821b91600019901b1916179055565b828152600660205220600160ff198254161790557f1be18eb15fae79b2ef01c40d9c2880744c4d536df2f5ac14fdb74fee71dc452c6020600554604051908152a25b80808061196b565b634e487b7160e01b82526041600452602482fd5b6040805191825260146020830152602492917ff412b82e309222a345c6e9320ef106691e62ad44355f516d03ce23fdcda49cdc9190a1630c6fb6e960e31b81526014600452fd5b91825250601460208201527ff412b82e309222a345c6e9320ef106691e62ad44355f516d03ce23fdcda49cdc925060409150a1611a25565b600435906001600160a01b038216820361039a57565b602435906001600160a01b038216820361039a57565b90601f8019910116810190811067ffffffffffffffff821117611b0e57604052565b634e487b7160e01b600052604160045260246000fd5b67ffffffffffffffff8111611b0e57601f01601f191660200190565b600554811015611b5b57600560005260206000200190600090565b634e487b7160e01b600052603260045260246000fd5b6000198114611b805760010190565b634e487b7160e01b600052601160045260246000fd5b600091906001600160a01b0381168015611c9f576005548015611c9a576000198101908111611c8657611bc890611b40565b90549060031b1c91611bd983611df7565b6002546001600160a01b031690813b156109d157604051632142170760e11b81523060048201526001600160a01b0391909116602482015260448101849052949081908690606490829084905af19485156111ad57839495611c76575b5050611c43600954611b71565b6009557f55144f84a06aba3b3a5c49b5d2d0d2a1fed9e25f465a2cc0f4a23b883c4782156020600554604051908152a390565b81611c8091611aec565b38611c36565b634e487b7160e01b85526011600452602485fd5b505050565b63d92e233d60e01b8452600484fd5b908160a091031261039a578051916020820151916040810151916080606083015192015190565b6001600160a01b03811615611cef57611ced90611d3b565b565b631e4fbdf760e01b600052600060045260246000fd5b600080516020612413833981519152546001600160a01b03163303611d2657565b63118cdaa760e01b6000523360045260246000fd5b60008051602061241383398151915280546001600160a01b039283166001600160a01b0319821681179092559091167f8be0079c531659141344cd1fd0a4f28419497f9722a3daafe3b4186f6b6457e0600080a3565b60026000805160206124738339815191525414611dbc57600260008051602061247383398151915255565b633ee5aeb560e01b60005260046000fd5b60ff6000805160206124538339815191525416611de657565b63d93c066560e01b60005260046000fd5b80600052600660205260ff6040600020541615611ecd578060005260076020526040600020546005546000198101908111611b8057808203611e9b575b50506005548015611e855760001901611e4c81611b40565b8154906000199060031b1b19169055600555806000526006602052604060002060ff198154169055600052600760205260006040812055565b634e487b7160e01b600052603160045260246000fd5b611ea490611b40565b90549060031b1c611eb8816119ca84611b40565b60005260076020526040600020553880611e34565b6329762dbf60e21b60005260045260246000fd5b91908201809211611b8057565b600054600154604051636eb1769f60e11b81523060048201526001600160a01b0391821660248201819052929190911690602081604481855afa80156120af578490600090612118575b611f429250611ee1565b60405163095ea7b360e01b60208083019182526001600160a01b038616602484015260448084019490945292825290929190600090611f82606486611aec565b84519082855af16000513d826120fc575b5050156120bb575b5050506000602060018060a01b0360015416604460405180948193634bda0d0960e11b8352600160048401523060248401525af19081156120af5760009161205d575b507f6929b90e2c20a95d4538df3110e196e018b4d66120e0020e665a4af86f1b52716040829383600052600b60205281600020306001600160601b0360a01b82541617905561202e600c54611b71565b600c5561203c600854611b71565b60085561204b81600a54611ee1565b600a558151908152306020820152a290565b906020823d6020116120a7575b8161207760209383611aec565b810103126102335750517f6929b90e2c20a95d4538df3110e196e018b4d66120e0020e665a4af86f1b5271611fde565b3d915061206a565b6040513d6000823e3d90fd5b6106306120f4936040519063095ea7b360e01b6020830152602482015260006044820152604481526120ee606482611aec565b82612328565b388080611f9b565b9091506121105750803b15155b3880611f93565b600114612109565b50506020813d602011612146575b8161213360209383611aec565b8101031261039a5783611f429151611f38565b3d9150612126565b600554601481101561225a5750600154604051632dabc24f60e01b81529060a090829060049082906001600160a01b03165afa9081156120af57600091612236575b506000546040516370a0823160e01b815230600482015290602090829060249082906001600160a01b03165afa9081156120af57600091612204575b508163030a32c082109182156121fa575b50506121f1576121ec90611eee565b600191565b50600090600090565b10905081386121dd565b906020823d60201161222e575b8161221e60209383611aec565b81010312610233575051386121cc565b3d9150612211565b61224f915060a03d60a01161035e5761034b8183611aec565b935050505038612190565b6000546040516370a0823160e01b815230600482015290602090829060249082906001600160a01b03165afa9081156120af576000916122d6575b506060907fcc4ee2e034de83c93ba6c21ff29c1368284a557946b6cb0f5950fc6fd15e5b0692604051918252602082015260146040820152a1600090600090565b90506020813d602011612320575b816122f160209383611aec565b8101031261039a57517fcc4ee2e034de83c93ba6c21ff29c1368284a557946b6cb0f5950fc6fd15e5b06612295565b3d91506122e4565b906000602091828151910182855af1156120af576000513d61237a57506001600160a01b0381163b155b6123595750565b635274afe760e01b60009081526001600160a01b0391909116600452602490fd5b60011415612352565b60ff6000805160206124938339815191525460401c16156123a057565b631afcd79f60e31b60005260046000fd5b906123d757508051156123c657602081519101fd5b63d6bda27560e01b60005260046000fd5b81511580612409575b6123e8575090565b639996b31560e01b60009081526001600160a01b0391909116600452602490fd5b50803b156123e056fe9016d09d72d40fdae2fd8ceac6b6234c7706214fd39c1cd1e609a0528c199300360894a13ba1a3210667c828492db98dca3e2076cc3735a920a3ca505d382bbccd5ed15c6e187e77e9aee88184c21f4f2182ab5827cb3b7e07fbedcd63f033009b779b17422d0df92223018b32b4d1fa46e071723d6817e2486d003becc55f00f0c57e16840df040f15088dc2f81fe391c3923bec73e23a9662efc9c229c6a00a26469706673582212202323c64feafd1a953401e6f833a59b49ce3b950a77d2ec7b2f655d557a0d125b64736f6c634300081a0033",
  "linkReferences": {},
  "deployedLinkReferences": {}
}