{
  "_format": "hh-sol-artifact-1",
  "contractName": "SlabNFTManager",
  "sourceName": "contracts/SlabNFTManagerV2.sol",
  "abi": [
    {
      "inputs": [],
      "stateMutability": "nonpayable",
      "type": "constructor"
    },
    {
      "inputs": [
        {
          "internalType": "address",
          "name": "target",
          "type": "address"
        }
      ],
      "name": "AddressEmptyCode",
      "type": "error"
    },
    {
      "inputs": [
        {
          "internalType": "uint256",
          "name": "balance",
          "type": "uint256"
        },
        {
          "internalType": "uint256",
          "name": "threshold",
          "type": "uint256"
        }
      ],
      "name": "BelowPurchaseThreshold",
      "type": "error"
    },
    {
      "inputs": [
        {
          "internalType": "address",
          "name": "implementation",
          "type": "address"
        }
      ],
      "name": "ERC1967InvalidImplementation",
      "type": "error"
    },
    {
      "inputs": [],
      "name": "ERC1967NonPayable",
      "type": "error"
    },
    {
      "inputs": [],
      "name": "EnforcedPause",
      "type": "error"
    },
    {
      "inputs": [],
      "name": "ExpectedPause",
      "type": "error"
    },
    {
      "inputs": [],
      "name": "FailedCall",
      "type": "error"
    },
    {
      "inputs": [
        {
          "internalType": "uint256",
          "name": "required",
          "type": "uint256"
        },
        {
          "internalType": "uint256",
          "name": "available",
          "type": "uint256"
        }
      ],
      "name": "InsufficientBalance",
      "type": "error"
    },
    {
      "inputs": [],
      "name": "InvalidAmount",
      "type": "error"
    },
    {
      "inputs": [],
      "name": "InvalidInitialization",
      "type": "error"
    },
    {
      "inputs": [],
      "name": "InvalidTokenId",
      "type": "error"
    },
    {
      "inputs": [],
      "name": "InventoryEmpty",
      "type": "error"
    },
    {
      "inputs": [
        {
          "internalType": "uint8",
          "name": "maxSize",
          "type": "uint8"
        }
      ],
      "name": "InventoryFull",
      "type": "error"
    },
    {
      "inputs": [
        {
          "internalType": "address",
          "name": "caller",
          "type": "address"
        }
      ],
      "name": "NotAuthorized",
      "type": "error"
    },
    {
      "inputs": [],
      "name": "NotInitializing",
      "type": "error"
    },
    {
      "inputs": [
        {
          "internalType": "address",
          "name": "owner",
          "type": "address"
        }
      ],
      "name": "OwnableInvalidOwner",
      "type": "error"
    },
    {
      "inputs": [
        {
          "internalType": "address",
          "name": "account",
          "type": "address"
        }
      ],
      "name": "OwnableUnauthorizedAccount",
      "type": "error"
    },
    {
      "inputs": [],
      "name": "PurchaseAlreadyPending",
      "type": "error"
    },
    {
      "inputs": [],
      "name": "ReentrancyGuardReentrantCall",
      "type": "error"
    },
    {
      "inputs": [
        {
          "internalType": "address",
          "name": "token",
          "type": "address"
        }
      ],
      "name": "SafeERC20FailedOperation",
      "type": "error"
    },
    {
      "inputs": [
        {
          "internalType": "uint256",
          "name": "tokenId",
          "type": "uint256"
        }
      ],
      "name": "TokenNotInInventory",
      "type": "error"
    },
    {
      "inputs": [],
      "name": "TransferFailed",
      "type": "error"
    },
    {
      "inputs": [],
      "name": "UUPSUnauthorizedCallContext",
      "type": "error"
    },
    {
      "inputs": [
        {
          "internalType": "bytes32",
          "name": "slot",
          "type": "bytes32"
        }
      ],
      "name": "UUPSUnsupportedProxiableUUID",
      "type": "error"
    },
    {
      "inputs": [],
      "name": "ZeroAddress",
      "type": "error"
    },
    {
      "anonymous": false,
      "inputs": [
        {
          "indexed": false,
          "internalType": "uint256",
          "name": "balance",
          "type": "uint256"
        },
        {
          "indexed": false,
          "internalType": "uint256",
          "name": "inventorySize",
          "type": "uint256"
        },
        {
          "indexed": false,
          "internalType": "uint256",
          "name": "maxSize",
          "type": "uint256"
        }
      ],
      "name": "AutoPurchaseSkippedInventoryFull",
      "type": "event"
    },
    {
      "anonymous": false,
      "inputs": [
        {
          "indexed": true,
          "internalType": "address",
          "name": "recipient",
          "type": "address"
        },
        {
          "indexed": false,
          "internalType": "uint256",
          "name": "usdcAmount",
          "type": "uint256"
        },
        {
          "indexed": false,
          "internalType": "uint256",
          "name": "nftCount",
          "type": "uint256"
        }
      ],
      "name": "EmergencyWithdrawal",
      "type": "event"
    },
    {
      "anonymous": false,
      "inputs": [
        {
          "indexed": false,
          "internalType": "uint64",
          "name": "version",
          "type": "uint64"
        }
      ],
      "name": "Initialized",
      "type": "event"
    },
    {
      "anonymous": false,
      "inputs": [
        {
          "indexed": false,
          "internalType": "uint256",
          "name": "currentSize",
          "type": "uint256"
        },
        {
          "indexed": false,
          "internalType": "uint256",
          "name": "maxSize",
          "type": "uint256"
        }
      ],
      "name": "InventoryCapacityReached",
      "type": "event"
    },
    {
      "anonymous": false,
      "inputs": [
        {
          "indexed": true,
          "internalType": "address",
          "name": "winner",
          "type": "address"
        },
        {
          "indexed": true,
          "internalType": "uint256",
          "name": "tokenId",
          "type": "uint256"
        },
        {
          "indexed": false,
          "internalType": "uint256",
          "name": "remainingInventory",
          "type": "uint256"
        }
      ],
      "name": "NFTAwarded",
      "type": "event"
    },
    {
      "anonymous": false,
      "inputs": [
        {
          "indexed": true,
          "internalType": "uint256",
          "name": "requestId",
          "type": "uint256"
        },
        {
          "indexed": false,
          "internalType": "uint256",
          "name": "amount",
          "type": "uint256"
        },
        {
          "indexed": false,
          "internalType": "address",
          "name": "recipient",
          "type": "address"
        }
      ],
      "name": "NFTPurchaseInitiated",
      "type": "event"
    },
    {
      "anonymous": false,
      "inputs": [
        {
          "indexed": true,
          "internalType": "uint256",
          "name": "tokenId",
          "type": "uint256"
        },
        {
          "indexed": false,
          "internalType": "uint256",
          "name": "inventorySize",
          "type": "uint256"
        }
      ],
      "name": "NFTReceived",
      "type": "event"
    },
    {
      "anonymous": false,
      "inputs": [
        {
          "indexed": false,
          "internalType": "address",
          "name": "oldOwner",
          "type": "address"
        },
        {
          "indexed": false,
          "internalType": "address",
          "name": "newOwner",
          "type": "address"
        }
      ],
      "name": "OwnerWalletUpdated",
      "type": "event"
    },
    {
      "anonymous": false,
      "inputs": [
        {
          "indexed": true,
          "internalType": "address",
          "name": "previousOwner",
          "type": "address"
        },
        {
          "indexed": true,
          "internalType": "address",
          "name": "newOwner",
          "type": "address"
        }
      ],
      "name": "OwnershipTransferred",
      "type": "event"
    },
    {
      "anonymous": false,
      "inputs": [
        {
          "indexed": false,
          "internalType": "address",
          "name": "account",
          "type": "address"
        }
      ],
      "name": "Paused",
      "type": "event"
    },
    {
      "anonymous": false,
      "inputs": [
        {
          "indexed": false,
          "internalType": "address",
          "name": "oldAddress",
          "type": "address"
        },
        {
          "indexed": false,
          "internalType": "address",
          "name": "newAddress",
          "type": "address"
        }
      ],
      "name": "PokeballGameUpdated",
      "type": "event"
    },
    {
      "anonymous": false,
      "inputs": [
        {
          "indexed": true,
          "internalType": "address",
          "name": "depositor",
          "type": "address"
        },
        {
          "indexed": false,
          "internalType": "uint256",
          "name": "amount",
          "type": "uint256"
        },
        {
          "indexed": false,
          "internalType": "uint256",
          "name": "newBalance",
          "type": "uint256"
        }
      ],
      "name": "RevenueDeposited",
      "type": "event"
    },
    {
      "anonymous": false,
      "inputs": [
        {
          "indexed": true,
          "internalType": "address",
          "name": "recipient",
          "type": "address"
        },
        {
          "indexed": false,
          "internalType": "uint256",
          "name": "amount",
          "type": "uint256"
        },
        {
          "indexed": false,
          "internalType": "uint256",
          "name": "remainingBalance",
          "type": "uint256"
        }
      ],
      "name": "RevenueWithdrawn",
      "type": "event"
    },
    {
      "anonymous": false,
      "inputs": [
        {
          "indexed": false,
          "internalType": "address",
          "name": "oldAddress",
          "type": "address"
        },
        {
          "indexed": false,
          "internalType": "address",
          "name": "newAddress",
          "type": "address"
        }
      ],
      "name": "TreasuryWalletUpdated",
      "type": "event"
    },
    {
      "anonymous": false,
      "inputs": [
        {
          "indexed": false,
          "internalType": "address",
          "name": "account",
          "type": "address"
        }
      ],
      "name": "Unpaused",
      "type": "event"
    },
    {
      "anonymous": false,
      "inputs": [
        {
          "indexed": true,
          "internalType": "address",
          "name": "implementation",
          "type": "address"
        }
      ],
      "name": "Upgraded",
      "type": "event"
    },
    {
      "inputs": [],
      "name": "AUTO_PURCHASE_THRESHOLD",
      "outputs": [
        {
          "internalType": "uint256",
          "name": "",
          "type": "uint256"
        }
      ],
      "stateMutability": "view",
      "type": "function"
    },
    {
      "inputs": [],
      "name": "MAX_INVENTORY_SIZE",
      "outputs": [
        {
          "internalType": "uint8",
          "name": "",
          "type": "uint8"
        }
      ],
      "stateMutability": "view",
      "type": "function"
    },
    {
      "inputs": [],
      "name": "UPGRADE_INTERFACE_VERSION",
      "outputs": [
        {
          "internalType": "string",
          "name": "",
          "type": "string"
        }
      ],
      "stateMutability": "view",
      "type": "function"
    },
    {
      "inputs": [],
      "name": "USDC_DECIMALS",
      "outputs": [
        {
          "internalType": "uint8",
          "name": "",
          "type": "uint8"
        }
      ],
      "stateMutability": "view",
      "type": "function"
    },
    {
      "inputs": [
        {
          "internalType": "address",
          "name": "winner",
          "type": "address"
        }
      ],
      "name": "awardNFTToWinner",
      "outputs": [
        {
          "internalType": "uint256",
          "name": "tokenId",
          "type": "uint256"
        }
      ],
      "stateMutability": "nonpayable",
      "type": "function"
    },
    {
      "inputs": [
        {
          "internalType": "address",
          "name": "winner",
          "type": "address"
        },
        {
          "internalType": "uint256",
          "name": "tokenId",
          "type": "uint256"
        }
      ],
      "name": "awardSpecificNFT",
      "outputs": [
        {
          "internalType": "bool",
          "name": "success",
          "type": "bool"
        }
      ],
      "stateMutability": "nonpayable",
      "type": "function"
    },
    {
      "inputs": [],
      "name": "canAutoPurchase",
      "outputs": [
        {
          "internalType": "bool",
          "name": "canPurchase",
          "type": "bool"
        },
        {
          "internalType": "uint256",
          "name": "currentBalance",
          "type": "uint256"
        },
        {
          "internalType": "uint256",
          "name": "threshold",
          "type": "uint256"
        },
        {
          "internalType": "uint256",
          "name": "pullPrice",
          "type": "uint256"
        }
      ],
      "stateMutability": "view",
      "type": "function"
    },
    {
      "inputs": [],
      "name": "checkAndPurchaseNFT",
      "outputs": [
        {
          "internalType": "bool",
          "name": "purchased",
          "type": "bool"
        },
        {
          "internalType": "uint256",
          "name": "requestId",
          "type": "uint256"
        }
      ],
      "stateMutability": "nonpayable",
      "type": "function"
    },
    {
      "inputs": [
        {
          "internalType": "uint256",
          "name": "amount",
          "type": "uint256"
        }
      ],
      "name": "depositRevenue",
      "outputs": [],
      "stateMutability": "nonpayable",
      "type": "function"
    },
    {
      "inputs": [],
      "name": "emergencyWithdraw",
      "outputs": [],
      "stateMutability": "nonpayable",
      "type": "function"
    },
    {
      "inputs": [],
      "name": "emergencyWithdrawAllRevenue",
      "outputs": [],
      "stateMutability": "nonpayable",
      "type": "function"
    },
    {
      "inputs": [
        {
          "internalType": "uint256",
          "name": "amount",
          "type": "uint256"
        }
      ],
      "name": "emergencyWithdrawRevenue",
      "outputs": [],
      "stateMutability": "nonpayable",
      "type": "function"
    },
    {
      "inputs": [],
      "name": "forcePurchaseNFT",
      "outputs": [
        {
          "internalType": "uint256",
          "name": "requestId",
          "type": "uint256"
        }
      ],
      "stateMutability": "nonpayable",
      "type": "function"
    },
    {
      "inputs": [],
      "name": "getInventory",
      "outputs": [
        {
          "internalType": "uint256[]",
          "name": "tokenIds",
          "type": "uint256[]"
        }
      ],
      "stateMutability": "view",
      "type": "function"
    },
    {
      "inputs": [],
      "name": "getInventoryCount",
      "outputs": [
        {
          "internalType": "uint256",
          "name": "count",
          "type": "uint256"
        }
      ],
      "stateMutability": "view",
      "type": "function"
    },
    {
      "inputs": [],
      "name": "getMaxInventorySize",
      "outputs": [
        {
          "internalType": "uint8",
          "name": "maxSize",
          "type": "uint8"
        }
      ],
      "stateMutability": "pure",
      "type": "function"
    },
    {
      "inputs": [],
      "name": "getStats",
      "outputs": [
        {
          "internalType": "uint256",
          "name": "nftsPurchased",
          "type": "uint256"
        },
        {
          "internalType": "uint256",
          "name": "nftsAwarded",
          "type": "uint256"
        },
        {
          "internalType": "uint256",
          "name": "usdcSpent",
          "type": "uint256"
        },
        {
          "internalType": "uint256",
          "name": "currentInventory",
          "type": "uint256"
        },
        {
          "internalType": "uint256",
          "name": "currentBalance",
          "type": "uint256"
        }
      ],
      "stateMutability": "view",
      "type": "function"
    },
    {
      "inputs": [],
      "name": "getUSDCBalance",
      "outputs": [
        {
          "internalType": "uint256",
          "name": "balance",
          "type": "uint256"
        }
      ],
      "stateMutability": "view",
      "type": "function"
    },
    {
      "inputs": [],
      "name": "hasInventorySpace",
      "outputs": [
        {
          "internalType": "bool",
          "name": "hasSpace",
          "type": "bool"
        },
        {
          "internalType": "uint8",
          "name": "availableSlots",
          "type": "uint8"
        }
      ],
      "stateMutability": "view",
      "type": "function"
    },
    {
      "inputs": [
        {
          "internalType": "address",
          "name": "_owner",
          "type": "address"
        },
        {
          "internalType": "address",
          "name": "_treasury",
          "type": "address"
        },
        {
          "internalType": "address",
          "name": "_usdce",
          "type": "address"
        },
        {
          "internalType": "address",
          "name": "_slabMachine",
          "type": "address"
        },
        {
          "internalType": "address",
          "name": "_slabNFT",
          "type": "address"
        },
        {
          "internalType": "address",
          "name": "_pokeballGame",
          "type": "address"
        }
      ],
      "name": "initialize",
      "outputs": [],
      "stateMutability": "nonpayable",
      "type": "function"
    },
    {
      "inputs": [
        {
          "internalType": "uint256",
          "name": "",
          "type": "uint256"
        }
      ],
      "name": "isInInventory",
      "outputs": [
        {
          "internalType": "bool",
          "name": "",
          "type": "bool"
        }
      ],
      "stateMutability": "view",
      "type": "function"
    },
    {
      "inputs": [
        {
          "internalType": "uint256",
          "name": "tokenId",
          "type": "uint256"
        }
      ],
      "name": "isTokenInInventory",
      "outputs": [
        {
          "internalType": "bool",
          "name": "inInventory",
          "type": "bool"
        }
      ],
      "stateMutability": "view",
      "type": "function"
    },
    {
      "inputs": [
        {
          "internalType": "uint256",
          "name": "",
          "type": "uint256"
        }
      ],
      "name": "nftInventory",
      "outputs": [
        {
          "internalType": "uint256",
          "name": "",
          "type": "uint256"
        }
      ],
      "stateMutability": "view",
      "type": "function"
    },
    {
      "inputs": [
        {
          "internalType": "address",
          "name": "",
          "type": "address"
        },
        {
          "internalType": "address",
          "name": "",
          "type": "address"
        },
        {
          "internalType": "uint256",
          "name": "tokenId",
          "type": "uint256"
        },
        {
          "internalType": "bytes",
          "name": "",
          "type": "bytes"
        }
      ],
      "name": "onERC721Received",
      "outputs": [
        {
          "internalType": "bytes4",
          "name": "",
          "type": "bytes4"
        }
      ],
      "stateMutability": "nonpayable",
      "type": "function"
    },
    {
      "inputs": [],
      "name": "owner",
      "outputs": [
        {
          "internalType": "address",
          "name": "",
          "type": "address"
        }
      ],
      "stateMutability": "view",
      "type": "function"
    },
    {
      "inputs": [],
      "name": "pause",
      "outputs": [],
      "stateMutability": "nonpayable",
      "type": "function"
    },
    {
      "inputs": [],
      "name": "paused",
      "outputs": [
        {
          "internalType": "bool",
          "name": "",
          "type": "bool"
        }
      ],
      "stateMutability": "view",
      "type": "function"
    },
    {
      "inputs": [
        {
          "internalType": "uint256",
          "name": "",
          "type": "uint256"
        }
      ],
      "name": "pendingPullRequests",
      "outputs": [
        {
          "internalType": "address",
          "name": "",
          "type": "address"
        }
      ],
      "stateMutability": "view",
      "type": "function"
    },
    {
      "inputs": [],
      "name": "pendingRequestCount",
      "outputs": [
        {
          "internalType": "uint256",
          "name": "",
          "type": "uint256"
        }
      ],
      "stateMutability": "view",
      "type": "function"
    },
    {
      "inputs": [],
      "name": "pokeballGame",
      "outputs": [
        {
          "internalType": "address",
          "name": "",
          "type": "address"
        }
      ],
      "stateMutability": "view",
      "type": "function"
    },
    {
      "inputs": [],
      "name": "proxiableUUID",
      "outputs": [
        {
          "internalType": "bytes32",
          "name": "",
          "type": "bytes32"
        }
      ],
      "stateMutability": "view",
      "type": "function"
    },
    {
      "inputs": [],
      "name": "renounceOwnership",
      "outputs": [],
      "stateMutability": "nonpayable",
      "type": "function"
    },
    {
      "inputs": [
        {
          "internalType": "address",
          "name": "newOwner",
          "type": "address"
        }
      ],
      "name": "setOwnerWallet",
      "outputs": [],
      "stateMutability": "nonpayable",
      "type": "function"
    },
    {
      "inputs": [
        {
          "internalType": "address",
          "name": "_pokeballGame",
          "type": "address"
        }
      ],
      "name": "setPokeballGame",
      "outputs": [],
      "stateMutability": "nonpayable",
      "type": "function"
    },
    {
      "inputs": [
        {
          "internalType": "address",
          "name": "_treasury",
          "type": "address"
        }
      ],
      "name": "setTreasuryWallet",
      "outputs": [],
      "stateMutability": "nonpayable",
      "type": "function"
    },
    {
      "inputs": [],
      "name": "slabMachine",
      "outputs": [
        {
          "internalType": "contract ISlabMachine",
          "name": "",
          "type": "address"
        }
      ],
      "stateMutability": "view",
      "type": "function"
    },
    {
      "inputs": [],
      "name": "slabNFT",
      "outputs": [
        {
          "internalType": "contract IERC721",
          "name": "",
          "type": "address"
        }
      ],
      "stateMutability": "view",
      "type": "function"
    },
    {
      "inputs": [
        {
          "internalType": "uint256",
          "name": "",
          "type": "uint256"
        }
      ],
      "name": "tokenIdToIndex",
      "outputs": [
        {
          "internalType": "uint256",
          "name": "",
          "type": "uint256"
        }
      ],
      "stateMutability": "view",
      "type": "function"
    },
    {
      "inputs": [],
      "name": "totalNFTsAwarded",
      "outputs": [
        {
          "internalType": "uint256",
          "name": "",
          "type": "uint256"
        }
      ],
      "stateMutability": "view",
      "type": "function"
    },
    {
      "inputs": [],
      "name": "totalNFTsPurchased",
      "outputs": [
        {
          "internalType": "uint256",
          "name": "",
          "type": "uint256"
        }
      ],
      "stateMutability": "view",
      "type": "function"
    },
    {
      "inputs": [],
      "name": "totalUSDCSpent",
      "outputs": [
        {
          "internalType": "uint256",
          "name": "",
          "type": "uint256"
        }
      ],
      "stateMutability": "view",
      "type": "function"
    },
    {
      "inputs": [
        {
          "internalType": "address",
          "name": "newOwner",
          "type": "address"
        }
      ],
      "name": "transferOwnership",
      "outputs": [],
      "stateMutability": "nonpayable",
      "type": "function"
    },
    {
      "inputs": [],
      "name": "treasuryWallet",
      "outputs": [
        {
          "internalType": "address",
          "name": "",
          "type": "address"
        }
      ],
      "stateMutability": "view",
      "type": "function"
    },
    {
      "inputs": [],
      "name": "unpause",
      "outputs": [],
      "stateMutability": "nonpayable",
      "type": "function"
    },
    {
      "inputs": [
        {
          "internalType": "address",
          "name": "newImplementation",
          "type": "address"
        },
        {
          "internalType": "bytes",
          "name": "data",
          "type": "bytes"
        }
      ],
      "name": "upgradeToAndCall",
      "outputs": [],
      "stateMutability": "payable",
      "type": "function"
    },
    {
      "inputs": [],
      "name": "usdce",
      "outputs": [
        {
          "internalType": "contract IERC20",
          "name": "",
          "type": "address"
        }
      ],
      "stateMutability": "view",
      "type": "function"
    }
  ],
  "bytecode": "0x60a080604052346100ea57306080527ff0c57e16840df040f15088dc2f81fe391c3923bec73e23a9662efc9c229c6a005460ff8160401c166100d9576002600160401b03196001600160401b03821601610073575b60405161276e90816100f082396080518181816116f801526117c90152f35b6001600160401b0319166001600160401b039081177ff0c57e16840df040f15088dc2f81fe391c3923bec73e23a9662efc9c229c6a005581527fc7f505b2f371ae2175ee4913f4499e1f2633a7b5936321eed1cdaeb6115181d290602090a13880610054565b63f92ee8a960e01b60005260046000fd5b600080fdfe608080604052600436101561001357600080fd5b600090813560e01c908163150b7a0214611b415750806325c61fcd14611b1857806326ec0fbe14611aee57806331e2c02214611ad05780633cfd1ccc14611a455780633f4ba83a146119c35780634626402b1461199a5780634f1ef2861461174d57806352d1902d146116e5578063569ffd42146116b65780635bf7117a1461168d5780635c975abb1461165d5780635d7f850c146115a757806370d9b4ca1461145f578063715018a6146113f5578063753089f71461139557806377d983c91461136c57806378b5aa8f146113245780637c597f4e146113065780637d8dbe57146112d3578063829095971461117157806382b65bef146111375780638456cb59146110c25780638da5cb5b1461108c578063a8602fea14611001578063ad3cb1cc14610f87578063af3df16014610f69578063b309a85714610e24578063b6efd54014610d8a578063bb542ef014610ce0578063bc1ca3e914610ba6578063c1419def14610b8a578063c59d484714610acf578063cc2a9a5b14610843578063d33953ba1461081c578063d3e04145146107fd578063d82872fe14610764578063d8b84c62146103c8578063db2e21bc14610533578063dbb1a9ba14610420578063e0abba5714610402578063e155d79e146103e4578063e18bbf5b146103c8578063ef33794814610279578063f2fde38b1461024c5763fbd7ec9e1461021b57600080fd5b346102495760203660031901126102495760ff60406020926004358152600684522054166040519015158152f35b80fd5b503461024957602036600319011261024957610276610269611d0d565b610271611f52565b611f22565b80f35b503461024957806003193601126102495780546040516370a0823160e01b815230600482015290602090829060249082906001600160a01b03165afa9081156103bd578291610386575b50600154604051632dabc24f60e01b81529060a090829060049082906001600160a01b03165afa90811561037b5760809391610347575b5063030a32c0821015918261033c575b8261032e575b6040519215158352602083015263030a32c060408301526060820152f35b915060146005541091610310565b81811015925061030a565b610369915060a03d60a011610374575b6103618183611d39565b810190611efb565b9350505050386102fa565b503d610357565b6040513d85823e3d90fd5b90506020813d6020116103b5575b816103a160209383611d39565b810103126103b05751386102c3565b600080fd5b3d9150610394565b6040513d84823e3d90fd5b5034610249578060031936011261024957602060405160148152f35b50346102495780600319360112610249576020600854604051908152f35b50346102495780600319360112610249576020600c54604051908152f35b5034610249578060031936011261024957610439611f52565b610441611f88565b80546040516370a0823160e01b8152306004820152906001600160a01b0316602082602481845afa91821561037b5783926104ff575b5081156104e6576004546104969183916001600160a01b031690611fc4565b7fdba3075704a6834eaaf9d3215b423ea08bcf5b4e065493b54cdfba8c9203192d604060018060a01b0360045416928151908152846020820152a260016000805160206126f98339815191525580f35b63cf47918160e01b835260016004526024839052604483fd5b9091506020813d60201161052b575b8161051b60209383611d39565b810103126103b057519038610477565b3d915061050e565b503461024957806003193601126102495761054c611f52565b610554611f88565b80546040516370a0823160e01b81523060048201526001600160a01b0390911690602081602481855afa90811561037b578391610732575b50600554918180610713575b5050825b82811061066657506005548360055580610606575b506004546040805192835260208301939093526001600160a01b0316917f56da9a5ae0bcf6e7c3fdd78a10550e7d0458de1c39bfb7f6e96a3e92dd344a6891a260016000805160206126f98339815191525580f35b600584527f036b6384b5eca791c62761152d0c79bb0604c104a5fb6f4eb0703f3154bb3db0017f036b6384b5eca791c62761152d0c79bb0604c104a5fb6f4eb0703f3154bb3db05b81811061065b57506105b1565b84815560010161064e565b61066f81611d8d565b90549060031b1c908460018060a01b036002541660018060a01b036004541690803b1561070f57604051632142170760e11b81523060048201526001600160a01b039290921660248301526044820185905282908290606490829084905af180156103bd576106f6575b50916001925260066020526040852060ff1981541690550161059c565b8161070091611d39565b61070b5784386106d9565b8480fd5b8280fd5b60045461072b926001600160a01b0390911690611fc4565b3881610598565b90506020813d60201161075c575b8161074d60209383611d39565b810103126103b057513861058c565b3d9150610740565b503461024957806003193601126102495761077d611f88565b610785612053565b6003546001600160a01b0316331415806107db575b6107c85760406107a86123d4565b60016000805160206126f983398151915255825191151582526020820152f35b634a0bfec160e01b815233600452602490fd5b50600080516020612699833981519152546001600160a01b031633141561079a565b5034610249578060031936011261024957602060405163030a32c08152f35b5034610249578060031936011261024957546040516001600160a01b039091168152602090f35b50346102495760c03660031901126102495761085d611d0d565b610865611d23565b906044356001600160a01b0381169190829003610acb576064356001600160a01b0381169081900361070b576084356001600160a01b0381169190829003610ac75760a4356001600160a01b0381169490859003610ac357600080516020612719833981519152549560ff8760401c16159667ffffffffffffffff811680159081610abb575b6001149081610ab1575b159081610aa8575b50610a995767ffffffffffffffff1981166001176000805160206127198339815191525587610a6c575b506001600160a01b03851615610a5d576001600160a01b0316938415610a5d578115610a5d578215610a5d578315610a5d5761096d90610965612609565b610271612609565b610975612609565b61097d612609565b610985612609565b60016000805160206126f98339815191525561099f612609565b6001600160601b0360a01b8754161786556001600160601b0360a01b60015416176001556001600160601b0360a01b60025416176002556001600160601b0360a01b60045416176004556001600160601b0360a01b6003541617600355610a035780f35b68ff0000000000000000196000805160206127198339815191525416600080516020612719833981519152557fc7f505b2f371ae2175ee4913f4499e1f2633a7b5936321eed1cdaeb6115181d2602060405160018152a180f35b63d92e233d60e01b8852600488fd5b68ffffffffffffffffff191668010000000000000001176000805160206127198339815191525538610927565b63f92ee8a960e01b8952600489fd5b905015386108fd565b303b1591506108f5565b8991506108eb565b8680fd5b8580fd5b8380fd5b5034610249578060031936011261024957600854600954600a5460055484546040516370a0823160e01b8152306004820152959391929190602090879060249082906001600160a01b03165afa938415610b7e5793610b49575b60a095506040519485526020850152604084015260608301526080820152f35b92506020853d602011610b76575b81610b6460209383611d39565b810103126103b05760a0945192610b29565b3d9150610b57565b604051903d90823e3d90fd5b5034610249578060031936011261024957602060405160068152f35b503461024957602036600319011261024957600435610bc3611f88565b610bcb612053565b8015610cd15781546040516323b872dd60e01b602082015233602482015230604482015260648101839052610c1f916001600160a01b0316610c1a82608481015b03601f198101845283611d39565b6125ae565b81546040516370a0823160e01b815230600482015290602090829060249082906001600160a01b03165afa90811561037b578391610c9f575b5060405191825260208201527f2f22b7f6e7f7df7d0eb3d1a543a2b6eb906e76a03540c2d66d2725270a5f6d3160403392a260016000805160206126f98339815191525580f35b90506020813d602011610cc9575b81610cba60209383611d39565b810103126103b0575138610c58565b3d9150610cad565b63162908e360e11b8252600482fd5b503461024957602036600319011261024957610cfa611d0d565b610d02611f52565b6001600160a01b03811615610d7b57600080516020612699833981519152547f1ae677bcbca66f3bcf12daf4568dd58ceac4a4016c2c6da39a6ec63fa9b6434591906001600160a01b0316610d5682611ffd565b604080516001600160a01b039283168152929091166020830152819081015b0390a180f35b63d92e233d60e01b8252600482fd5b503461024957602036600319011261024957610da4611d0d565b610dac611f52565b6001600160a01b0381168015610e1557600380546001600160a01b031981169092179055604080516001600160a01b0392831681529190921660208201527ff66399fe71a8aeef123694608632ea96ea22bb57f3831b48be1edd314bd320cb9181908101610d75565b63d92e233d60e01b8352600483fd5b503461024957604036600319011261024957610e3e611d0d565b60243591610e4a611f88565b610e52612053565b6003546001600160a01b031633036107c8576001600160a01b038216918215610d7b57838252600660205260ff60408320541615610f5557610e938461207d565b6002546001600160a01b031690813b1561070f57604051632142170760e11b81523060048201526001600160a01b03919091166024820152604481018590529082908290606490829084905af180156103bd57610f45575b5050610ef8600954611dbe565b6009557f55144f84a06aba3b3a5c49b5d2d0d2a1fed9e25f465a2cc0f4a23b883c4782156020600554604051908152a360016000805160206126f983398151915255602060405160018152f35b81610f4f91611d39565b38610eeb565b6329762dbf60e21b82526004849052602482fd5b50346102495780600319360112610249576020600554604051908152f35b50346102495780600319360112610249576040805191610fa78284611d39565b60058352640352e302e360dc1b6020840152815192839160208352815191826020850152815b838110610fea575050828201840152601f01601f19168101030190f35b602082820181015188830188015287955001610fcd565b50346102495760203660031901126102495761101b611d0d565b611023611f52565b6001600160a01b0381168015610e1557600480546001600160a01b031981169092179055604080516001600160a01b0392831681529190921660208201527fa982575859d7ad2f390dc12b23f7dab8bbda047f9d0140ac68344b27bf34bfb49181908101610d75565b5034610249578060031936011261024957600080516020612699833981519152546040516001600160a01b039091168152602090f35b50346102495780600319360112610249576110db611f52565b6110e3612053565b600160ff196000805160206126d98339815191525416176000805160206126d9833981519152557f62e78cea01bee320cd4e420270b5ea74000d11b0c9f74754ebdbfc544b05a2586020604051338152a180f35b5034610249576020366003190112610249576004359060055482101561024957602061116283611d8d565b90549060031b1c604051908152f35b503461024957806003193601126102495761118a611f88565b611192612053565b61119a611f52565b601460055410156112bf57600154604051632dabc24f60e01b8152919060a090839060049082906001600160a01b03165afa9182156112b257819261128c575b5080546040516370a0823160e01b815230600482015290602090829060249082906001600160a01b03165afa9081156103bd578291611256575b5082811061124157602061122784612174565b60016000805160206126f983398151915255604051908152f35b60449263cf47918160e01b8352600452602452fd5b90506020813d602011611284575b8161127160209383611d39565b81010312611280575138611214565b5080fd5b3d9150611264565b6112a691925060a03d60a011610374576103618183611d39565b935050505090386111da565b50604051903d90823e3d90fd5b630c6fb6e960e31b81526014600452602490fd5b5034610249576020366003190112610249576020906004358152600b8252604060018060a01b0391205416604051908152f35b50346102495780600319360112610249576020600954604051908152f35b50346102495760203660031901126102495761133e611d0d565b90611347611f88565b61134f612053565b6003546001600160a01b031633036107c857602061122783611de3565b50346102495780600319360112610249576003546040516001600160a01b039091168152602090f35b5034610249578060031936011261024957600554601481109081156113ea5760140391601483116113d6575060ff80604093165b8351928352166020820152f35b634e487b7160e01b81526011600452602490fd5b5060ff6040926113c9565b503461024957806003193601126102495761140e611f52565b60008051602061269983398151915280546001600160a01b0319811690915581906001600160a01b03167f8be0079c531659141344cd1fd0a4f28419497f9722a3daafe3b4186f6b6457e08280a380f35b50346102495760203660031901126102495760043561147c611f52565b611484611f88565b8015610cd15781546040516370a0823160e01b815230600482015291906001600160a01b0316602083602481845afa92831561159c578493611568575b50828211611551576004546114e19183916001600160a01b031690611fc4565b6004546001600160a01b03169181810390811161153d577fdba3075704a6834eaaf9d3215b423ea08bcf5b4e065493b54cdfba8c9203192d9160409182519182526020820152a260016000805160206126f98339815191525580f35b634e487b7160e01b84526011600452602484fd5b604484848463cf47918160e01b8352600452602452fd5b9092506020813d602011611594575b8161158460209383611d39565b81010312610acb575191386114c1565b3d9150611577565b6040513d86823e3d90fd5b503461024957806003193601126102495760405180602060055491828152018091600585527f036b6384b5eca791c62761152d0c79bb0604c104a5fb6f4eb0703f3154bb3db090855b8181106116475750505082611606910383611d39565b604051928392602084019060208552518091526040840192915b81811061162e575050500390f35b8251845285945060209384019390920191600101611620565b82548452602090930192600192830192016115f0565b5034610249578060031936011261024957602060ff6000805160206126d983398151915254166040519015158152f35b50346102495780600319360112610249576001546040516001600160a01b039091168152602090f35b50346102495760203660031901126102495760ff60406020926004358152600684522054166040519015158152f35b50346102495780600319360112610249577f00000000000000000000000000000000000000000000000000000000000000006001600160a01b0316300361173e5760206040516000805160206126b98339815191528152f35b63703e46dd60e11b8152600490fd5b50604036600319011261024957611762611d0d565b6024359067ffffffffffffffff821161070f573660238301121561070f578160040135908361179083611d71565b9361179e6040519586611d39565b8385526020850193366024828401011161070f57806024602093018637850101526001600160a01b037f000000000000000000000000000000000000000000000000000000000000000016308114908115611977575b5061196857611801611f52565b6040516352d1902d60e01b81526001600160a01b0382169390602081600481885afa869181611934575b5061184457634c9c8ce360e01b86526004859052602486fd5b93846000805160206126b98339815191528796036119225750823b15611910576000805160206126b983398151915280546001600160a01b031916821790558491907fbc7cd75a20ee27fd9adebab32041f755214dbc6bffa90cc0225b39da2e5c2d3b8380a28051156118f5576118e99382915190845af43d156118ed573d916118cd83611d71565b926118db6040519485611d39565b83523d85602085013e612637565b5080f35b606091612637565b50505050346119015780f35b63b398979f60e01b8152600490fd5b634c9c8ce360e01b8552600452602484fd5b632a87526960e21b8652600452602485fd5b9091506020813d602011611960575b8161195060209383611d39565b81010312610ac35751903861182b565b3d9150611943565b63703e46dd60e11b8452600484fd5b6000805160206126b9833981519152546001600160a01b031614159050386117f4565b50346102495780600319360112610249576004546040516001600160a01b039091168152602090f35b50346102495780600319360112610249576119dc611f52565b6000805160206126d98339815191525460ff811615611a365760ff19166000805160206126d9833981519152557f5db9ee0a495bf2e6ff9c91a7834c1ba4fdd244a5e8aa4e537bd38aeae4b073aa6020604051338152a180f35b638dfc202b60e01b8252600482fd5b503461024957806003193601126102495780546040516370a0823160e01b815230600482015290602090829060249082906001600160a01b03165afa9081156103bd578291611a9a575b602082604051908152f35b90506020813d602011611ac8575b81611ab560209383611d39565b8101031261128057602091505138611a8f565b3d9150611aa8565b50346102495780600319360112610249576020600a54604051908152f35b50346102495760203660031901126102495760406020916004358152600783522054604051908152f35b50346102495780600319360112610249576002546040516001600160a01b039091168152602090f35b823461024957608036600319011261024957611b5b611d0d565b50611b64611d23565b506044359160643567ffffffffffffffff811161070f573660238201121561070f57806004013567ffffffffffffffff8111610acb5736910160240111611280576002546001600160a01b03163314611bca575b604051630a85bd0160e11b8152602090f35b6005549060148210908115611cd5575015611c8e578282526007602052604082205560055468010000000000000000811015611c7a5790611c3083611c1784600160409601600555611d8d565b90919082549060031b91821b91600019901b1916179055565b828152600660205220600160ff198254161790557f1be18eb15fae79b2ef01c40d9c2880744c4d536df2f5ac14fdb74fee71dc452c6020600554604051908152a25b808080611bb8565b634e487b7160e01b82526041600452602482fd5b6040805191825260146020830152602492917ff412b82e309222a345c6e9320ef106691e62ad44355f516d03ce23fdcda49cdc9190a1630c6fb6e960e31b81526014600452fd5b91825250601460208201527ff412b82e309222a345c6e9320ef106691e62ad44355f516d03ce23fdcda49cdc925060409150a1611c72565b600435906001600160a01b03821682036103b057565b602435906001600160a01b03821682036103b057565b90601f8019910116810190811067ffffffffffffffff821117611d5b57604052565b634e487b7160e01b600052604160045260246000fd5b67ffffffffffffffff8111611d5b57601f01601f191660200190565b600554811015611da857600560005260206000200190600090565b634e487b7160e01b600052603260045260246000fd5b6000198114611dcd5760010190565b634e487b7160e01b600052601160045260246000fd5b600091906001600160a01b0381168015611eec576005548015611ee7576000198101908111611ed357611e1590611d8d565b90549060031b1c91611e268361207d565b6002546001600160a01b031690813b15610ac757604051632142170760e11b81523060048201526001600160a01b0391909116602482015260448101849052949081908690606490829084905af19485156112b257839495611ec3575b5050611e90600954611dbe565b6009557f55144f84a06aba3b3a5c49b5d2d0d2a1fed9e25f465a2cc0f4a23b883c4782156020600554604051908152a390565b81611ecd91611d39565b38611e83565b634e487b7160e01b85526011600452602485fd5b505050565b63d92e233d60e01b8452600484fd5b908160a09103126103b0578051916020820151916040810151916080606083015192015190565b6001600160a01b03811615611f3c57611f3a90611ffd565b565b631e4fbdf760e01b600052600060045260246000fd5b600080516020612699833981519152546001600160a01b03163303611f7357565b63118cdaa760e01b6000523360045260246000fd5b60026000805160206126f98339815191525414611fb35760026000805160206126f983398151915255565b633ee5aeb560e01b60005260046000fd5b60405163a9059cbb60e01b60208201526001600160a01b0390921660248301526044820192909252611f3a91610c1a8260648101610c0c565b60008051602061269983398151915280546001600160a01b039283166001600160a01b0319821681179092559091167f8be0079c531659141344cd1fd0a4f28419497f9722a3daafe3b4186f6b6457e0600080a3565b60ff6000805160206126d9833981519152541661206c57565b63d93c066560e01b60005260046000fd5b80600052600660205260ff6040600020541615612153578060005260076020526040600020546005546000198101908111611dcd57808203612121575b5050600554801561210b57600019016120d281611d8d565b8154906000199060031b1b19169055600555806000526006602052604060002060ff198154169055600052600760205260006040812055565b634e487b7160e01b600052603160045260246000fd5b61212a90611d8d565b90549060031b1c61213e81611c1784611d8d565b600052600760205260406000205538806120ba565b6329762dbf60e21b60005260045260246000fd5b91908201809211611dcd57565b600054600154604051636eb1769f60e11b81523060048201526001600160a01b0391821660248201819052929190911690602081604481855afa801561233557849060009061239e575b6121c89250612167565b60405163095ea7b360e01b60208083019182526001600160a01b038616602484015260448084019490945292825290929190600090612208606486611d39565b84519082855af16000513d82612382575b505015612341575b5050506000602060018060a01b0360015416604460405180948193634bda0d0960e11b8352600160048401523060248401525af1908115612335576000916122e3575b507f6929b90e2c20a95d4538df3110e196e018b4d66120e0020e665a4af86f1b52716040829383600052600b60205281600020306001600160601b0360a01b8254161790556122b4600c54611dbe565b600c556122c2600854611dbe565b6008556122d181600a54612167565b600a558151908152306020820152a290565b906020823d60201161232d575b816122fd60209383611d39565b810103126102495750517f6929b90e2c20a95d4538df3110e196e018b4d66120e0020e665a4af86f1b5271612264565b3d91506122f0565b6040513d6000823e3d90fd5b610c1a61237a936040519063095ea7b360e01b602083015260248201526000604482015260448152612374606482611d39565b826125ae565b388080612221565b9091506123965750803b15155b3880612219565b60011461238f565b50506020813d6020116123cc575b816123b960209383611d39565b810103126103b057836121c891516121be565b3d91506123ac565b60055460148110156124e05750600154604051632dabc24f60e01b81529060a090829060049082906001600160a01b03165afa908115612335576000916124bc575b506000546040516370a0823160e01b815230600482015290602090829060249082906001600160a01b03165afa9081156123355760009161248a575b508163030a32c08210918215612480575b50506124775761247290612174565b600191565b50600090600090565b1090508138612463565b906020823d6020116124b4575b816124a460209383611d39565b8101031261024957505138612452565b3d9150612497565b6124d5915060a03d60a011610374576103618183611d39565b935050505038612416565b6000546040516370a0823160e01b815230600482015290602090829060249082906001600160a01b03165afa9081156123355760009161255c575b506060907fcc4ee2e034de83c93ba6c21ff29c1368284a557946b6cb0f5950fc6fd15e5b0692604051918252602082015260146040820152a1600090600090565b90506020813d6020116125a6575b8161257760209383611d39565b810103126103b057517fcc4ee2e034de83c93ba6c21ff29c1368284a557946b6cb0f5950fc6fd15e5b0661251b565b3d915061256a565b906000602091828151910182855af115612335576000513d61260057506001600160a01b0381163b155b6125df5750565b635274afe760e01b60009081526001600160a01b0391909116600452602490fd5b600114156125d8565b60ff6000805160206127198339815191525460401c161561262657565b631afcd79f60e31b60005260046000fd5b9061265d575080511561264c57602081519101fd5b63d6bda27560e01b60005260046000fd5b8151158061268f575b61266e575090565b639996b31560e01b60009081526001600160a01b0391909116600452602490fd5b50803b1561266656fe9016d09d72d40fdae2fd8ceac6b6234c7706214fd39c1cd1e609a0528c199300360894a13ba1a3210667c828492db98dca3e2076cc3735a920a3ca505d382bbccd5ed15c6e187e77e9aee88184c21f4f2182ab5827cb3b7e07fbedcd63f033009b779b17422d0df92223018b32b4d1fa46e071723d6817e2486d003becc55f00f0c57e16840df040f15088dc2f81fe391c3923bec73e23a9662efc9c229c6a00a26469706673582212204246b6aa2134448fcdb9fc63348211b230b22542ffc1faf3abc14f1a7b22fea764736f6c634300081a0033",
  "linkReferences": {},
  "deployedLinkReferences": {}
}