{
  "_format": "hh-sol-artifact-1",
  "contractName": "PokeballGame",
  "sourceName": "contracts/PokeballGame.sol",
  "abi": [
    {
      "inputs": [],
      "stateMutability": "nonpayable",
      "type": "constructor"
    },
    {
      "inputs": [
        {
          "internalType": "address",
          "name": "target",
          "type": "address"
        }
      ],
      "name": "AddressEmptyCode",
      "type": "error"
    },
    {
      "inputs": [
        {
          "internalType": "address",
          "name": "implementation",
          "type": "address"
        }
      ],
      "name": "ERC1967InvalidImplementation",
      "type": "error"
    },
    {
      "inputs": [],
      "name": "ERC1967NonPayable",
      "type": "error"
    },
    {
      "inputs": [],
      "name": "EnforcedPause",
      "type": "error"
    },
    {
      "inputs": [],
      "name": "ExpectedPause",
      "type": "error"
    },
    {
      "inputs": [],
      "name": "FailedCall",
      "type": "error"
    },
    {
      "inputs": [
        {
          "internalType": "address",
          "name": "token",
          "type": "address"
        },
        {
          "internalType": "uint256",
          "name": "required",
          "type": "uint256"
        },
        {
          "internalType": "uint256",
          "name": "available",
          "type": "uint256"
        }
      ],
      "name": "InsufficientAllowance",
      "type": "error"
    },
    {
      "inputs": [
        {
          "internalType": "address",
          "name": "token",
          "type": "address"
        },
        {
          "internalType": "uint256",
          "name": "required",
          "type": "uint256"
        },
        {
          "internalType": "uint256",
          "name": "available",
          "type": "uint256"
        }
      ],
      "name": "InsufficientBalance",
      "type": "error"
    },
    {
      "inputs": [
        {
          "internalType": "enum PokeballGame.BallType",
          "name": "ballType",
          "type": "uint8"
        },
        {
          "internalType": "uint256",
          "name": "required",
          "type": "uint256"
        },
        {
          "internalType": "uint256",
          "name": "available",
          "type": "uint256"
        }
      ],
      "name": "InsufficientBalls",
      "type": "error"
    },
    {
      "inputs": [
        {
          "internalType": "uint8",
          "name": "provided",
          "type": "uint8"
        }
      ],
      "name": "InvalidBallType",
      "type": "error"
    },
    {
      "inputs": [],
      "name": "InvalidInitialization",
      "type": "error"
    },
    {
      "inputs": [
        {
          "internalType": "uint8",
          "name": "slot",
          "type": "uint8"
        }
      ],
      "name": "InvalidPokemonSlot",
      "type": "error"
    },
    {
      "inputs": [],
      "name": "InvalidPrice",
      "type": "error"
    },
    {
      "inputs": [],
      "name": "NoFeesToWithdraw",
      "type": "error"
    },
    {
      "inputs": [],
      "name": "NotInitializing",
      "type": "error"
    },
    {
      "inputs": [
        {
          "internalType": "address",
          "name": "owner",
          "type": "address"
        }
      ],
      "name": "OwnableInvalidOwner",
      "type": "error"
    },
    {
      "inputs": [
        {
          "internalType": "address",
          "name": "account",
          "type": "address"
        }
      ],
      "name": "OwnableUnauthorizedAccount",
      "type": "error"
    },
    {
      "inputs": [
        {
          "internalType": "uint256",
          "name": "pokemonId",
          "type": "uint256"
        }
      ],
      "name": "PokemonNotActive",
      "type": "error"
    },
    {
      "inputs": [],
      "name": "ReentrancyGuardReentrantCall",
      "type": "error"
    },
    {
      "inputs": [
        {
          "internalType": "address",
          "name": "token",
          "type": "address"
        }
      ],
      "name": "SafeERC20FailedOperation",
      "type": "error"
    },
    {
      "inputs": [
        {
          "internalType": "uint8",
          "name": "slot",
          "type": "uint8"
        }
      ],
      "name": "SlotOccupied",
      "type": "error"
    },
    {
      "inputs": [
        {
          "internalType": "uint256",
          "name": "requestId",
          "type": "uint256"
        }
      ],
      "name": "ThrowAlreadyResolved",
      "type": "error"
    },
    {
      "inputs": [
        {
          "internalType": "uint256",
          "name": "requestId",
          "type": "uint256"
        }
      ],
      "name": "ThrowNotFound",
      "type": "error"
    },
    {
      "inputs": [],
      "name": "TransferFailed",
      "type": "error"
    },
    {
      "inputs": [],
      "name": "UUPSUnauthorizedCallContext",
      "type": "error"
    },
    {
      "inputs": [
        {
          "internalType": "bytes32",
          "name": "slot",
          "type": "bytes32"
        }
      ],
      "name": "UUPSUnsupportedProxiableUUID",
      "type": "error"
    },
    {
      "inputs": [
        {
          "internalType": "address",
          "name": "caller",
          "type": "address"
        }
      ],
      "name": "UnauthorizedCallback",
      "type": "error"
    },
    {
      "inputs": [],
      "name": "ZeroAddress",
      "type": "error"
    },
    {
      "inputs": [],
      "name": "ZeroQuantity",
      "type": "error"
    },
    {
      "anonymous": false,
      "inputs": [
        {
          "indexed": false,
          "internalType": "uint256",
          "name": "oldPrice",
          "type": "uint256"
        },
        {
          "indexed": false,
          "internalType": "uint256",
          "name": "newPrice",
          "type": "uint256"
        }
      ],
      "name": "APEPriceUpdated",
      "type": "event"
    },
    {
      "anonymous": false,
      "inputs": [
        {
          "indexed": true,
          "internalType": "address",
          "name": "buyer",
          "type": "address"
        },
        {
          "indexed": false,
          "internalType": "uint8",
          "name": "ballType",
          "type": "uint8"
        },
        {
          "indexed": false,
          "internalType": "uint256",
          "name": "quantity",
          "type": "uint256"
        },
        {
          "indexed": false,
          "internalType": "bool",
          "name": "usedAPE",
          "type": "bool"
        }
      ],
      "name": "BallPurchased",
      "type": "event"
    },
    {
      "anonymous": false,
      "inputs": [
        {
          "indexed": true,
          "internalType": "address",
          "name": "catcher",
          "type": "address"
        },
        {
          "indexed": false,
          "internalType": "uint256",
          "name": "pokemonId",
          "type": "uint256"
        },
        {
          "indexed": false,
          "internalType": "uint256",
          "name": "nftTokenId",
          "type": "uint256"
        }
      ],
      "name": "CaughtPokemon",
      "type": "event"
    },
    {
      "anonymous": false,
      "inputs": [
        {
          "indexed": true,
          "internalType": "address",
          "name": "thrower",
          "type": "address"
        },
        {
          "indexed": false,
          "internalType": "uint256",
          "name": "pokemonId",
          "type": "uint256"
        },
        {
          "indexed": false,
          "internalType": "uint8",
          "name": "attemptsRemaining",
          "type": "uint8"
        }
      ],
      "name": "FailedCatch",
      "type": "event"
    },
    {
      "anonymous": false,
      "inputs": [
        {
          "indexed": false,
          "internalType": "address",
          "name": "recipient",
          "type": "address"
        },
        {
          "indexed": false,
          "internalType": "uint256",
          "name": "amount",
          "type": "uint256"
        }
      ],
      "name": "FeesWithdrawn",
      "type": "event"
    },
    {
      "anonymous": false,
      "inputs": [
        {
          "indexed": false,
          "internalType": "uint64",
          "name": "version",
          "type": "uint64"
        }
      ],
      "name": "Initialized",
      "type": "event"
    },
    {
      "anonymous": false,
      "inputs": [
        {
          "indexed": false,
          "internalType": "uint256",
          "name": "requestId",
          "type": "uint256"
        },
        {
          "indexed": false,
          "internalType": "address",
          "name": "recipient",
          "type": "address"
        },
        {
          "indexed": false,
          "internalType": "uint256",
          "name": "amount",
          "type": "uint256"
        }
      ],
      "name": "NFTPurchaseTriggered",
      "type": "event"
    },
    {
      "anonymous": false,
      "inputs": [
        {
          "indexed": true,
          "internalType": "address",
          "name": "previousOwner",
          "type": "address"
        },
        {
          "indexed": true,
          "internalType": "address",
          "name": "newOwner",
          "type": "address"
        }
      ],
      "name": "OwnershipTransferred",
      "type": "event"
    },
    {
      "anonymous": false,
      "inputs": [
        {
          "indexed": false,
          "internalType": "address",
          "name": "account",
          "type": "address"
        }
      ],
      "name": "Paused",
      "type": "event"
    },
    {
      "anonymous": false,
      "inputs": [
        {
          "indexed": false,
          "internalType": "uint256",
          "name": "pokemonId",
          "type": "uint256"
        },
        {
          "indexed": false,
          "internalType": "uint256",
          "name": "newX",
          "type": "uint256"
        },
        {
          "indexed": false,
          "internalType": "uint256",
          "name": "newY",
          "type": "uint256"
        }
      ],
      "name": "PokemonRelocated",
      "type": "event"
    },
    {
      "anonymous": false,
      "inputs": [
        {
          "indexed": false,
          "internalType": "uint256",
          "name": "pokemonId",
          "type": "uint256"
        },
        {
          "indexed": false,
          "internalType": "uint256",
          "name": "positionX",
          "type": "uint256"
        },
        {
          "indexed": false,
          "internalType": "uint256",
          "name": "positionY",
          "type": "uint256"
        },
        {
          "indexed": false,
          "internalType": "uint8",
          "name": "slotIndex",
          "type": "uint8"
        }
      ],
      "name": "PokemonSpawned",
      "type": "event"
    },
    {
      "anonymous": false,
      "inputs": [
        {
          "indexed": false,
          "internalType": "uint256",
          "name": "amount",
          "type": "uint256"
        },
        {
          "indexed": false,
          "internalType": "uint256",
          "name": "newTotal",
          "type": "uint256"
        }
      ],
      "name": "RevenueAdded",
      "type": "event"
    },
    {
      "anonymous": false,
      "inputs": [
        {
          "indexed": true,
          "internalType": "address",
          "name": "thrower",
          "type": "address"
        },
        {
          "indexed": false,
          "internalType": "uint256",
          "name": "pokemonId",
          "type": "uint256"
        },
        {
          "indexed": false,
          "internalType": "uint8",
          "name": "ballTier",
          "type": "uint8"
        },
        {
          "indexed": false,
          "internalType": "uint256",
          "name": "requestId",
          "type": "uint256"
        }
      ],
      "name": "ThrowAttempted",
      "type": "event"
    },
    {
      "anonymous": false,
      "inputs": [
        {
          "indexed": false,
          "internalType": "address",
          "name": "account",
          "type": "address"
        }
      ],
      "name": "Unpaused",
      "type": "event"
    },
    {
      "anonymous": false,
      "inputs": [
        {
          "indexed": true,
          "internalType": "address",
          "name": "implementation",
          "type": "address"
        }
      ],
      "name": "Upgraded",
      "type": "event"
    },
    {
      "anonymous": false,
      "inputs": [
        {
          "indexed": false,
          "internalType": "string",
          "name": "walletType",
          "type": "string"
        },
        {
          "indexed": false,
          "internalType": "address",
          "name": "oldAddress",
          "type": "address"
        },
        {
          "indexed": false,
          "internalType": "address",
          "name": "newAddress",
          "type": "address"
        }
      ],
      "name": "WalletUpdated",
      "type": "event"
    },
    {
      "inputs": [],
      "name": "APE_DECIMALS",
      "outputs": [
        {
          "internalType": "uint8",
          "name": "",
          "type": "uint8"
        }
      ],
      "stateMutability": "view",
      "type": "function"
    },
    {
      "inputs": [],
      "name": "BPS_DENOMINATOR",
      "outputs": [
        {
          "internalType": "uint256",
          "name": "",
          "type": "uint256"
        }
      ],
      "stateMutability": "view",
      "type": "function"
    },
    {
      "inputs": [],
      "name": "GREATBALL_CATCH_RATE",
      "outputs": [
        {
          "internalType": "uint8",
          "name": "",
          "type": "uint8"
        }
      ],
      "stateMutability": "view",
      "type": "function"
    },
    {
      "inputs": [],
      "name": "GREATBALL_PRICE",
      "outputs": [
        {
          "internalType": "uint256",
          "name": "",
          "type": "uint256"
        }
      ],
      "stateMutability": "view",
      "type": "function"
    },
    {
      "inputs": [],
      "name": "MASTERBALL_CATCH_RATE",
      "outputs": [
        {
          "internalType": "uint8",
          "name": "",
          "type": "uint8"
        }
      ],
      "stateMutability": "view",
      "type": "function"
    },
    {
      "inputs": [],
      "name": "MASTERBALL_PRICE",
      "outputs": [
        {
          "internalType": "uint256",
          "name": "",
          "type": "uint256"
        }
      ],
      "stateMutability": "view",
      "type": "function"
    },
    {
      "inputs": [],
      "name": "MAX_ACTIVE_POKEMON",
      "outputs": [
        {
          "internalType": "uint8",
          "name": "",
          "type": "uint8"
        }
      ],
      "stateMutability": "view",
      "type": "function"
    },
    {
      "inputs": [],
      "name": "MAX_COORDINATE",
      "outputs": [
        {
          "internalType": "uint256",
          "name": "",
          "type": "uint256"
        }
      ],
      "stateMutability": "view",
      "type": "function"
    },
    {
      "inputs": [],
      "name": "MAX_THROW_ATTEMPTS",
      "outputs": [
        {
          "internalType": "uint8",
          "name": "",
          "type": "uint8"
        }
      ],
      "stateMutability": "view",
      "type": "function"
    },
    {
      "inputs": [],
      "name": "NFT_PURCHASE_THRESHOLD",
      "outputs": [
        {
          "internalType": "uint256",
          "name": "",
          "type": "uint256"
        }
      ],
      "stateMutability": "view",
      "type": "function"
    },
    {
      "inputs": [],
      "name": "PLATFORM_FEE_BPS",
      "outputs": [
        {
          "internalType": "uint256",
          "name": "",
          "type": "uint256"
        }
      ],
      "stateMutability": "view",
      "type": "function"
    },
    {
      "inputs": [],
      "name": "POKEBALL_CATCH_RATE",
      "outputs": [
        {
          "internalType": "uint8",
          "name": "",
          "type": "uint8"
        }
      ],
      "stateMutability": "view",
      "type": "function"
    },
    {
      "inputs": [],
      "name": "POKEBALL_PRICE",
      "outputs": [
        {
          "internalType": "uint256",
          "name": "",
          "type": "uint256"
        }
      ],
      "stateMutability": "view",
      "type": "function"
    },
    {
      "inputs": [],
      "name": "REVENUE_POOL_BPS",
      "outputs": [
        {
          "internalType": "uint256",
          "name": "",
          "type": "uint256"
        }
      ],
      "stateMutability": "view",
      "type": "function"
    },
    {
      "inputs": [],
      "name": "ULTRABALL_CATCH_RATE",
      "outputs": [
        {
          "internalType": "uint8",
          "name": "",
          "type": "uint8"
        }
      ],
      "stateMutability": "view",
      "type": "function"
    },
    {
      "inputs": [],
      "name": "ULTRABALL_PRICE",
      "outputs": [
        {
          "internalType": "uint256",
          "name": "",
          "type": "uint256"
        }
      ],
      "stateMutability": "view",
      "type": "function"
    },
    {
      "inputs": [],
      "name": "UPGRADE_INTERFACE_VERSION",
      "outputs": [
        {
          "internalType": "string",
          "name": "",
          "type": "string"
        }
      ],
      "stateMutability": "view",
      "type": "function"
    },
    {
      "inputs": [],
      "name": "USDC_DECIMALS",
      "outputs": [
        {
          "internalType": "uint8",
          "name": "",
          "type": "uint8"
        }
      ],
      "stateMutability": "view",
      "type": "function"
    },
    {
      "inputs": [
        {
          "internalType": "uint256",
          "name": "",
          "type": "uint256"
        }
      ],
      "name": "activePokemons",
      "outputs": [
        {
          "internalType": "uint256",
          "name": "id",
          "type": "uint256"
        },
        {
          "internalType": "uint256",
          "name": "positionX",
          "type": "uint256"
        },
        {
          "internalType": "uint256",
          "name": "positionY",
          "type": "uint256"
        },
        {
          "internalType": "uint8",
          "name": "throwAttempts",
          "type": "uint8"
        },
        {
          "internalType": "bool",
          "name": "isActive",
          "type": "bool"
        },
        {
          "internalType": "uint256",
          "name": "spawnTime",
          "type": "uint256"
        }
      ],
      "stateMutability": "view",
      "type": "function"
    },
    {
      "inputs": [],
      "name": "ape",
      "outputs": [
        {
          "internalType": "contract IERC20",
          "name": "",
          "type": "address"
        }
      ],
      "stateMutability": "view",
      "type": "function"
    },
    {
      "inputs": [],
      "name": "apePriceUSD",
      "outputs": [
        {
          "internalType": "uint256",
          "name": "",
          "type": "uint256"
        }
      ],
      "stateMutability": "view",
      "type": "function"
    },
    {
      "inputs": [
        {
          "internalType": "uint256",
          "name": "usdcAmount",
          "type": "uint256"
        }
      ],
      "name": "calculateAPEAmount",
      "outputs": [
        {
          "internalType": "uint256",
          "name": "apeAmount",
          "type": "uint256"
        }
      ],
      "stateMutability": "view",
      "type": "function"
    },
    {
      "inputs": [
        {
          "internalType": "uint8",
          "name": "slot",
          "type": "uint8"
        }
      ],
      "name": "despawnPokemon",
      "outputs": [],
      "stateMutability": "nonpayable",
      "type": "function"
    },
    {
      "inputs": [
        {
          "internalType": "uint8",
          "name": "slot",
          "type": "uint8"
        },
        {
          "internalType": "uint256",
          "name": "posX",
          "type": "uint256"
        },
        {
          "internalType": "uint256",
          "name": "posY",
          "type": "uint256"
        }
      ],
      "name": "forceSpawnPokemon",
      "outputs": [],
      "stateMutability": "nonpayable",
      "type": "function"
    },
    {
      "inputs": [],
      "name": "getAllActivePokemons",
      "outputs": [
        {
          "components": [
            {
              "internalType": "uint256",
              "name": "id",
              "type": "uint256"
            },
            {
              "internalType": "uint256",
              "name": "positionX",
              "type": "uint256"
            },
            {
              "internalType": "uint256",
              "name": "positionY",
              "type": "uint256"
            },
            {
              "internalType": "uint8",
              "name": "throwAttempts",
              "type": "uint8"
            },
            {
              "internalType": "bool",
              "name": "isActive",
              "type": "bool"
            },
            {
              "internalType": "uint256",
              "name": "spawnTime",
              "type": "uint256"
            }
          ],
          "internalType": "struct PokeballGame.Pokemon[3]",
          "name": "pokemons",
          "type": "tuple[3]"
        }
      ],
      "stateMutability": "view",
      "type": "function"
    },
    {
      "inputs": [
        {
          "internalType": "address",
          "name": "player",
          "type": "address"
        }
      ],
      "name": "getAllPlayerBalls",
      "outputs": [
        {
          "internalType": "uint256",
          "name": "pokeBalls",
          "type": "uint256"
        },
        {
          "internalType": "uint256",
          "name": "greatBalls",
          "type": "uint256"
        },
        {
          "internalType": "uint256",
          "name": "ultraBalls",
          "type": "uint256"
        },
        {
          "internalType": "uint256",
          "name": "masterBalls",
          "type": "uint256"
        }
      ],
      "stateMutability": "view",
      "type": "function"
    },
    {
      "inputs": [
        {
          "internalType": "enum PokeballGame.BallType",
          "name": "ballType",
          "type": "uint8"
        }
      ],
      "name": "getBallPrice",
      "outputs": [
        {
          "internalType": "uint256",
          "name": "price",
          "type": "uint256"
        }
      ],
      "stateMutability": "pure",
      "type": "function"
    },
    {
      "inputs": [
        {
          "internalType": "enum PokeballGame.BallType",
          "name": "ballType",
          "type": "uint8"
        }
      ],
      "name": "getCatchRate",
      "outputs": [
        {
          "internalType": "uint8",
          "name": "rate",
          "type": "uint8"
        }
      ],
      "stateMutability": "pure",
      "type": "function"
    },
    {
      "inputs": [],
      "name": "getNFTInventoryCount",
      "outputs": [
        {
          "internalType": "uint256",
          "name": "count",
          "type": "uint256"
        }
      ],
      "stateMutability": "view",
      "type": "function"
    },
    {
      "inputs": [
        {
          "internalType": "uint256",
          "name": "requestId",
          "type": "uint256"
        }
      ],
      "name": "getPendingThrow",
      "outputs": [
        {
          "components": [
            {
              "internalType": "address",
              "name": "thrower",
              "type": "address"
            },
            {
              "internalType": "uint256",
              "name": "pokemonId",
              "type": "uint256"
            },
            {
              "internalType": "enum PokeballGame.BallType",
              "name": "ballType",
              "type": "uint8"
            },
            {
              "internalType": "uint256",
              "name": "timestamp",
              "type": "uint256"
            },
            {
              "internalType": "bool",
              "name": "resolved",
              "type": "bool"
            }
          ],
          "internalType": "struct PokeballGame.PendingThrow",
          "name": "",
          "type": "tuple"
        }
      ],
      "stateMutability": "view",
      "type": "function"
    },
    {
      "inputs": [
        {
          "internalType": "address",
          "name": "player",
          "type": "address"
        },
        {
          "internalType": "uint8",
          "name": "ballType",
          "type": "uint8"
        }
      ],
      "name": "getPlayerBallBalance",
      "outputs": [
        {
          "internalType": "uint256",
          "name": "quantity",
          "type": "uint256"
        }
      ],
      "stateMutability": "view",
      "type": "function"
    },
    {
      "inputs": [
        {
          "internalType": "uint8",
          "name": "slot",
          "type": "uint8"
        }
      ],
      "name": "getPokemon",
      "outputs": [
        {
          "components": [
            {
              "internalType": "uint256",
              "name": "id",
              "type": "uint256"
            },
            {
              "internalType": "uint256",
              "name": "positionX",
              "type": "uint256"
            },
            {
              "internalType": "uint256",
              "name": "positionY",
              "type": "uint256"
            },
            {
              "internalType": "uint8",
              "name": "throwAttempts",
              "type": "uint8"
            },
            {
              "internalType": "bool",
              "name": "isActive",
              "type": "bool"
            },
            {
              "internalType": "uint256",
              "name": "spawnTime",
              "type": "uint256"
            }
          ],
          "internalType": "struct PokeballGame.Pokemon",
          "name": "pokemon",
          "type": "tuple"
        }
      ],
      "stateMutability": "view",
      "type": "function"
    },
    {
      "inputs": [],
      "name": "getRevenuePoolStatus",
      "outputs": [
        {
          "internalType": "uint256",
          "name": "poolBalance",
          "type": "uint256"
        },
        {
          "internalType": "uint256",
          "name": "threshold",
          "type": "uint256"
        },
        {
          "internalType": "bool",
          "name": "canPurchase",
          "type": "bool"
        }
      ],
      "stateMutability": "view",
      "type": "function"
    },
    {
      "inputs": [
        {
          "internalType": "address",
          "name": "_owner",
          "type": "address"
        },
        {
          "internalType": "address",
          "name": "_treasury",
          "type": "address"
        },
        {
          "internalType": "address",
          "name": "_nftRevenue",
          "type": "address"
        },
        {
          "internalType": "address",
          "name": "_usdce",
          "type": "address"
        },
        {
          "internalType": "address",
          "name": "_ape",
          "type": "address"
        },
        {
          "internalType": "address",
          "name": "_vrng",
          "type": "address"
        },
        {
          "internalType": "address",
          "name": "_slabMachine",
          "type": "address"
        },
        {
          "internalType": "address",
          "name": "_slabNFT",
          "type": "address"
        },
        {
          "internalType": "uint256",
          "name": "_initialAPEPrice",
          "type": "uint256"
        }
      ],
      "name": "initialize",
      "outputs": [],
      "stateMutability": "nonpayable",
      "type": "function"
    },
    {
      "inputs": [],
      "name": "nextPokemonId",
      "outputs": [
        {
          "internalType": "uint256",
          "name": "",
          "type": "uint256"
        }
      ],
      "stateMutability": "view",
      "type": "function"
    },
    {
      "inputs": [
        {
          "internalType": "uint256",
          "name": "",
          "type": "uint256"
        }
      ],
      "name": "nftInventory",
      "outputs": [
        {
          "internalType": "uint256",
          "name": "",
          "type": "uint256"
        }
      ],
      "stateMutability": "view",
      "type": "function"
    },
    {
      "inputs": [],
      "name": "nftRevenueWallet",
      "outputs": [
        {
          "internalType": "address",
          "name": "",
          "type": "address"
        }
      ],
      "stateMutability": "view",
      "type": "function"
    },
    {
      "inputs": [
        {
          "internalType": "address",
          "name": "",
          "type": "address"
        },
        {
          "internalType": "address",
          "name": "",
          "type": "address"
        },
        {
          "internalType": "uint256",
          "name": "tokenId",
          "type": "uint256"
        },
        {
          "internalType": "bytes",
          "name": "",
          "type": "bytes"
        }
      ],
      "name": "onERC721Received",
      "outputs": [
        {
          "internalType": "bytes4",
          "name": "",
          "type": "bytes4"
        }
      ],
      "stateMutability": "nonpayable",
      "type": "function"
    },
    {
      "inputs": [],
      "name": "owner",
      "outputs": [
        {
          "internalType": "address",
          "name": "",
          "type": "address"
        }
      ],
      "stateMutability": "view",
      "type": "function"
    },
    {
      "inputs": [],
      "name": "pause",
      "outputs": [],
      "stateMutability": "nonpayable",
      "type": "function"
    },
    {
      "inputs": [],
      "name": "paused",
      "outputs": [
        {
          "internalType": "bool",
          "name": "",
          "type": "bool"
        }
      ],
      "stateMutability": "view",
      "type": "function"
    },
    {
      "inputs": [
        {
          "internalType": "uint256",
          "name": "",
          "type": "uint256"
        }
      ],
      "name": "pendingNFTRecipients",
      "outputs": [
        {
          "internalType": "address",
          "name": "",
          "type": "address"
        }
      ],
      "stateMutability": "view",
      "type": "function"
    },
    {
      "inputs": [
        {
          "internalType": "uint256",
          "name": "",
          "type": "uint256"
        }
      ],
      "name": "pendingThrows",
      "outputs": [
        {
          "internalType": "address",
          "name": "thrower",
          "type": "address"
        },
        {
          "internalType": "uint256",
          "name": "pokemonId",
          "type": "uint256"
        },
        {
          "internalType": "enum PokeballGame.BallType",
          "name": "ballType",
          "type": "uint8"
        },
        {
          "internalType": "uint256",
          "name": "timestamp",
          "type": "uint256"
        },
        {
          "internalType": "bool",
          "name": "resolved",
          "type": "bool"
        }
      ],
      "stateMutability": "view",
      "type": "function"
    },
    {
      "inputs": [
        {
          "internalType": "address",
          "name": "",
          "type": "address"
        },
        {
          "internalType": "enum PokeballGame.BallType",
          "name": "",
          "type": "uint8"
        }
      ],
      "name": "playerBalls",
      "outputs": [
        {
          "internalType": "uint256",
          "name": "",
          "type": "uint256"
        }
      ],
      "stateMutability": "view",
      "type": "function"
    },
    {
      "inputs": [],
      "name": "proxiableUUID",
      "outputs": [
        {
          "internalType": "bytes32",
          "name": "",
          "type": "bytes32"
        }
      ],
      "stateMutability": "view",
      "type": "function"
    },
    {
      "inputs": [
        {
          "internalType": "uint8",
          "name": "ballType",
          "type": "uint8"
        },
        {
          "internalType": "uint256",
          "name": "quantity",
          "type": "uint256"
        },
        {
          "internalType": "bool",
          "name": "useAPE",
          "type": "bool"
        }
      ],
      "name": "purchaseBalls",
      "outputs": [],
      "stateMutability": "nonpayable",
      "type": "function"
    },
    {
      "inputs": [
        {
          "internalType": "uint256",
          "name": "requestId",
          "type": "uint256"
        },
        {
          "internalType": "uint256",
          "name": "randomNumber",
          "type": "uint256"
        }
      ],
      "name": "randomNumberCallback",
      "outputs": [],
      "stateMutability": "nonpayable",
      "type": "function"
    },
    {
      "inputs": [],
      "name": "renounceOwnership",
      "outputs": [],
      "stateMutability": "nonpayable",
      "type": "function"
    },
    {
      "inputs": [
        {
          "internalType": "uint256",
          "name": "",
          "type": "uint256"
        }
      ],
      "name": "requestIdToTraceId",
      "outputs": [
        {
          "internalType": "uint256",
          "name": "",
          "type": "uint256"
        }
      ],
      "stateMutability": "view",
      "type": "function"
    },
    {
      "inputs": [
        {
          "internalType": "uint256",
          "name": "newPrice",
          "type": "uint256"
        }
      ],
      "name": "setAPEPrice",
      "outputs": [],
      "stateMutability": "nonpayable",
      "type": "function"
    },
    {
      "inputs": [
        {
          "internalType": "address",
          "name": "newNFTRevenue",
          "type": "address"
        }
      ],
      "name": "setNFTRevenueWallet",
      "outputs": [],
      "stateMutability": "nonpayable",
      "type": "function"
    },
    {
      "inputs": [
        {
          "internalType": "address",
          "name": "newTreasury",
          "type": "address"
        }
      ],
      "name": "setTreasuryWallet",
      "outputs": [],
      "stateMutability": "nonpayable",
      "type": "function"
    },
    {
      "inputs": [],
      "name": "slabMachine",
      "outputs": [
        {
          "internalType": "contract ISlabMachine",
          "name": "",
          "type": "address"
        }
      ],
      "stateMutability": "view",
      "type": "function"
    },
    {
      "inputs": [],
      "name": "slabNFT",
      "outputs": [
        {
          "internalType": "contract IERC721",
          "name": "",
          "type": "address"
        }
      ],
      "stateMutability": "view",
      "type": "function"
    },
    {
      "inputs": [
        {
          "internalType": "uint8",
          "name": "slot",
          "type": "uint8"
        }
      ],
      "name": "spawnPokemon",
      "outputs": [],
      "stateMutability": "nonpayable",
      "type": "function"
    },
    {
      "inputs": [
        {
          "internalType": "uint8",
          "name": "pokemonSlot",
          "type": "uint8"
        },
        {
          "internalType": "uint8",
          "name": "ballType",
          "type": "uint8"
        }
      ],
      "name": "throwBall",
      "outputs": [
        {
          "internalType": "uint256",
          "name": "requestId",
          "type": "uint256"
        }
      ],
      "stateMutability": "nonpayable",
      "type": "function"
    },
    {
      "inputs": [],
      "name": "totalNFTsPurchased",
      "outputs": [
        {
          "internalType": "uint256",
          "name": "",
          "type": "uint256"
        }
      ],
      "stateMutability": "view",
      "type": "function"
    },
    {
      "inputs": [],
      "name": "totalPlatformFees",
      "outputs": [
        {
          "internalType": "uint256",
          "name": "",
          "type": "uint256"
        }
      ],
      "stateMutability": "view",
      "type": "function"
    },
    {
      "inputs": [],
      "name": "totalRevenuePool",
      "outputs": [
        {
          "internalType": "uint256",
          "name": "",
          "type": "uint256"
        }
      ],
      "stateMutability": "view",
      "type": "function"
    },
    {
      "inputs": [
        {
          "internalType": "address",
          "name": "newOwner",
          "type": "address"
        }
      ],
      "name": "transferOwnership",
      "outputs": [],
      "stateMutability": "nonpayable",
      "type": "function"
    },
    {
      "inputs": [],
      "name": "treasuryWallet",
      "outputs": [
        {
          "internalType": "address",
          "name": "",
          "type": "address"
        }
      ],
      "stateMutability": "view",
      "type": "function"
    },
    {
      "inputs": [],
      "name": "unpause",
      "outputs": [],
      "stateMutability": "nonpayable",
      "type": "function"
    },
    {
      "inputs": [
        {
          "internalType": "address",
          "name": "newImplementation",
          "type": "address"
        },
        {
          "internalType": "bytes",
          "name": "data",
          "type": "bytes"
        }
      ],
      "name": "upgradeToAndCall",
      "outputs": [],
      "stateMutability": "payable",
      "type": "function"
    },
    {
      "inputs": [],
      "name": "usdce",
      "outputs": [
        {
          "internalType": "contract IERC20",
          "name": "",
          "type": "address"
        }
      ],
      "stateMutability": "view",
      "type": "function"
    },
    {
      "inputs": [],
      "name": "vrng",
      "outputs": [
        {
          "internalType": "contract IPOPVRNG",
          "name": "",
          "type": "address"
        }
      ],
      "stateMutability": "view",
      "type": "function"
    },
    {
      "inputs": [],
      "name": "withdrawFees",
      "outputs": [],
      "stateMutability": "nonpayable",
      "type": "function"
    }
  ],
  "bytecode": "0x60a080604052346100ea57306080527ff0c57e16840df040f15088dc2f81fe391c3923bec73e23a9662efc9c229c6a005460ff8160401c166100d9576002600160401b03196001600160401b03821601610073575b6040516130f490816100f08239608051818181611778015261184c0152f35b6001600160401b0319166001600160401b039081177ff0c57e16840df040f15088dc2f81fe391c3923bec73e23a9662efc9c229c6a005581527fc7f505b2f371ae2175ee4913f4499e1f2633a7b5936321eed1cdaeb6115181d290602090a13880610054565b63f92ee8a960e01b60005260046000fd5b600080fdfe6080604052600436101561001257600080fd5b60003560e01c8063064c973c146125685780630771197f146124fa578063116484221461221c578063150b7a0214612158578063230c77ff1461213957806323b5cb5d1461206357806323eec5711461202f57806325c61fcd146120065780632795a90e14611f9b5780632e9ed2e414611f7c578063344dd6e414611c8f57806338efa83114611c735780633bd8171514611c565780633f4ba83a14611bd35780634129849f14611bb55780634626402b14611b8c578063476343ee14611aaf5780634c4e2a4614611a105780634f1ef286146117cf57806352d1902d14611765578063539aa77f146117485780635bf7117a1461171f5780635c975abb146116ef578063607c45d114611684578063621384141461165b57806364c618cc14611632578063715018a6146115c85780637881a070146115ac57806379babd2c146115835780637a0b07cf1461146c5780637ed2f783146112665780637edc648c1461123a57806382b65bef146112025780638456cb591461118e5780638da5cb5b146111585780638f561acc1461111257806394ea04d1146109df578063970cff93146109905780639b7d1a2a146109005780639f48ed23146108e45780639fb769dd146108c6578063a2afc37314610858578063a4cedc391461083a578063a8602fea1461078c578063ad3cb1cc14610710578063b036d591146106f4578063bf370a61146106c4578063c1419def146106a8578063c5b7dffd14610677578063cc7a69de1461065a578063d25741831461063d578063d33953ba14610614578063d3631fa5146105f6578063d9deb60b146105d8578063df33c1fd146105bc578063e155d79e1461059e578063e1a4521814610581578063eb76c37e14610490578063efdf99491461054e578063f2fde38b14610523578063f4f00092146104b4578063f8ce2c7d14610495578063fc774c5c14610490578063fcc536ba14610388578063fd626a181461036a5763fe5c7ba8146102f257600080fd5b346103655760203660031901126103655761030b6125c2565b610313612e5e565b60ff811660038110156103515750600381101561033b57600502600e01805461ff0019169055005b634e487b7160e01b600052603260045260246000fd5b63cba5131560e01b60005260045260246000fd5b600080fd5b34610365576000366003190112610365576020604051620f42408152f35b346103655760003660031901126103655760606040516103a88282612617565b60005b82811061047b5760405180840167ffffffffffffffff81118282101761046557604052600b6000825b6003821061044757604051846000825b600382106103f25761024084f35b602060c08261043b600194875160a0809180518452602081015160208501526040810151604085015260ff60608201511660608501526080810151151560808501520151910152565b019301910190916103e4565b6005602060019261045786612c6c565b8152019301910190916103d4565b634e487b7160e01b600052604160045260246000fd5b602090610486612c3b565b81840152016103ab565b612688565b3461036557600036600319011261036557602060405163017d78408152f35b3461036557602036600319011261036557600435600052601b60205260a06040600020600180831b038154169060018101549061051560ff60028301541660ff600460038501549401541693604051958652602086015260408501906125d2565b606083015215156080820152f35b346103655760203660031901126103655761054c61053f612586565b610547612e5e565b612d82565b005b3461036557602036600319011261036557600435600481101561036557610576602091612d22565b60ff60405191168152f35b346103655760003660031901126103655760206040516127108152f35b34610365576000366003190112610365576020600954604051908152f35b3461036557600036600319011261036557602060405160148152f35b34610365576000366003190112610365576020601a54604051908152f35b34610365576000366003190112610365576020600854604051908152f35b34610365576000366003190112610365576000546040516001600160a01b039091168152602090f35b346103655760003660031901126103655760206040516103e78152f35b346103655760003660031901126103655760208054604051908152f35b3461036557600036600319011261036557606060075463030a32c06040519180835281602084015210156040820152f35b3461036557600036600319011261036557602060405160068152f35b34610365576020366003190112610365576004356004811015610365576106ec602091612cb8565b604051908152f35b3461036557600036600319011261036557602060405160638152f35b346103655760003660031901126103655760408051906107308183612617565b60058252640352e302e360dc1b6020830152805180926020825280519081602084015260005b8281106107755750506000828201840152601f01601f19168101030190f35b602082820181015187830187015286945001610756565b34610365576020366003190112610365576107a5612586565b6107ad612e5e565b6001600160a01b031680156108295760a07fd8e98bff5ae8522235ef48daecff7488b367200bea03a4e8cb4bc98108c6a4929160055490806001600160601b03841b83161760055560405191606083526008606084015267747265617375727960c01b6080840152600180851b031660208301526040820152a1005b63d92e233d60e01b60005260046000fd5b34610365576000366003190112610365576020604051629896808152f35b346103655760203660031901126103655760806001600160a01b0361087b612586565b166000908152600a6020908152604080832083805282528083205460018452818420546002855282852054600386529483902054835192835293820152908101929092526060820152f35b34610365576000366003190112610365576020600754604051908152f35b3461036557600036600319011261036557602060405160328152f35b34610365576020366003190112610365576109196125c2565b610921612c3b565b5060ff811660038110156103515750600381101561033b5761094a600560c09202600b01612c6c565b61098e604051809260a0809180518452602081015160208501526040810151604085015260ff60608201511660608501526080810151151560808501520151910152565bf35b34610365576040366003190112610365576109a9612586565b602435906004821015610365576020916109d69160018060a01b0316600052600a83526040600020612670565b54604051908152f35b34610365576060366003190112610365576109f86125c2565b60243590604435918215159182840361036557610a13612df8565b610a1b612e34565b81156111015760ff1692600384116110ec5760048410156110d657610a3f84612cb8565b9082820291808304841490151715610ec85715610f7a57610a5f816126a4565b600154604051636eb1769f60e11b81523360048201523060248201526001600160a01b0390911690602081604481855afa908115610dcf57600091610f48575b50828110610f2c57506040516370a0823160e01b8152336004820152602081602481855afa908115610dcf57600091610efa575b50828110610ede575090610aea9130903390612f79565b61012c810281810461012c1482151715610ec8577f5d22f5d15d95ed39d12130528f910a501ad34deb0428d9227c9d316d9bcb99e991610b3d610b346127106040940480936126eb565b91600854612713565b600855610b4c81600754612713565b8060075582519182526020820152a15b33600052600a602052610b73836040600020612670565b610b7e828254612713565b9055604051928352602083015260408201527f279d78d3bc9e8f1f0c6275b03db1ea13aed8715f3f9ad832f728113b3568cc4160603392a260075463030a32c0811015610bda575b600160008051602061307f83398151915255005b600354604051632dabc24f60e01b8152916001600160a01b039091169060a083600481855afa8015610dcf576000938491610e7d575b5080610e73575b610c23575b5050610bc6565b82610c2d916126eb565b600755600054604051636eb1769f60e11b81523060048201526001600160a01b03838116602483015290911690602081604481855afa8015610dcf578490600090610e3d575b610c7d9250612713565b60405163095ea7b360e01b60208083019182526001600160a01b038616602484015260448084019490945292825290929190600090610cbd606486612617565b84519082855af16000513d82610e21575b505015610ddb575b5050600354600654604051634bda0d0960e11b8152600481018590526001600160a01b039182166024820152925060209183916044918391600091165af1908115610dcf57600091610d7d575b506060907fd2f4076f36ae69d66b6687398c519b4a2fd0910af9109a8edeba1a7c7d22146392610d54600954612704565b600955600654604080519384526001600160a01b039091166020840152820152a1808080610c1c565b90506020813d602011610dc7575b81610d9860209383612617565b8101031261036557517fd2f4076f36ae69d66b6687398c519b4a2fd0910af9109a8edeba1a7c7d221463610d23565b3d9150610d8b565b6040513d6000823e3d90fd5b610e14610e19936040519063095ea7b360e01b602083015260248201526000604482015260448152610e0e606482612617565b82612f1e565b612f1e565b818080610cd6565b909150610e355750803b15155b8580610cce565b600114610e2e565b50506020813d602011610e6b575b81610e5860209383612617565b810103126103655783610c7d9151610c73565b3d9150610e4b565b5082811015610c17565b905060a0813d60a011610ec0575b81610e9860a09383612617565b81010312610ebc5760808151910151938415158503610eb957509284610c10565b80fd5b8380fd5b3d9150610e8b565b634e487b7160e01b600052601160045260246000fd5b925063db42144d60e01b60005260045260245260445260646000fd5b906020823d602011610f24575b81610f1460209383612617565b81010312610eb957505187610ad3565b3d9150610f07565b9250630c95cf2760e11b60005260045260245260445260646000fd5b906020823d602011610f72575b81610f6260209383612617565b81010312610eb957505187610a9f565b3d9150610f55565b600054604051636eb1769f60e11b81523360048201523060248201526001600160a01b0390911690602081604481855afa908115610dcf576000916110a4575b50828110610f2c57506040516370a0823160e01b8152336004820152602081602481855afa908115610dcf57600091611072575b50828110610ede5750816110059130903390612f79565b61012c810281810461012c1482151715610ec8577f5d22f5d15d95ed39d12130528f910a501ad34deb0428d9227c9d316d9bcb99e99161104f610b346127106040940480936126eb565b60085561105e81600754612713565b8060075582519182526020820152a1610b5c565b906020823d60201161109c575b8161108c60209383612617565b81010312610eb957505186610fee565b3d915061107f565b906020823d6020116110ce575b816110be60209383612617565b81010312610eb957505186610fba565b3d91506110b1565b634e487b7160e01b600052602160045260246000fd5b8363fab9b83760e01b60005260045260246000fd5b63f4f5b73360e01b60005260046000fd5b34610365576040366003190112610365576002546001600160a01b031633036111435761054c602435600435612720565b635a1c6a5960e01b6000523360045260246000fd5b346103655760003660031901126103655760008051602061301f833981519152546040516001600160a01b039091168152602090f35b34610365576000366003190112610365576111a7612e5e565b6111af612e34565b600160ff1960008051602061305f83398151915254161760008051602061305f833981519152557f62e78cea01bee320cd4e420270b5ea74000d11b0c9f74754ebdbfc544b05a2586020604051338152a1005b3461036557602036600319011261036557600435601e548110156103655761122b602091612655565b90549060031b1c604051908152f35b3461036557602036600319011261036557600435600052601c6020526020604060002054604051908152f35b346103655760203660031901126103655761127f6125c2565b611287612e5e565b60ff811690600382101561145757600381101561033b57600502600e015460081c60ff1661144357601a54906112bc82612704565b601a556000601d546112cd81612704565b601d5560405160208101916001600160601b03193060601b16835285603483015260ff60f81b6054830152426055830152607582015260758152611312609582612617565b51902091602060018060a01b03600254166024604051809581936371c8a23960e11b83528860048401525af1918215610dcf5760009261140f575b5060048110156110d657604051611363816125df565b3081526020810194855261137b6040820192836126f8565b4260608201908152600060808301818152858252601b6020526040909120925183546001600160a01b0319166001600160a01b039190911617835595516001830155915194600282019060048710156110d6576114009360049260009860ff8019835416911617905551600384015551151591019060ff801983541691151516179055565b8252601c602052604082205580f35b90916020823d60201161143b575b8161142a60209383612617565b81010312610eb9575051908461134d565b3d915061141d565b632f8ecec960e21b60005260045260246000fd5b5063cba5131560e01b60005260045260246000fd5b34610365576060366003190112610365576114856125c2565b61148d612e5e565b60ff811690600382101561145757600381101561033b57600502600e81019160ff835460081c1661144357601a54916114c583612704565b601a556024356103e890066044356103e8900691604051956114e6876125fb565b8587526020808801849052604080890186905260006060808b0182905260016080808d01919091524260a0909c018c9052600b87018b9055600c8701889055600d8701899055855461ffff191661010017909555600f9095019990995580519788529087019390935291850192909252908301919091527f156f6fef57e34329718d6efbd41f31a81afd51d967d24f97b94eb576dca20cfe91a180f35b34610365576000366003190112610365576001546040516001600160a01b039091168152602090f35b3461036557600036600319011261036557602060405160028152f35b34610365576000366003190112610365576115e1612e5e565b60008051602061301f83398151915280546001600160a01b031981169091556000906001600160a01b03167f8be0079c531659141344cd1fd0a4f28419497f9722a3daafe3b4186f6b6457e08280a3005b34610365576000366003190112610365576006546040516001600160a01b039091168152602090f35b34610365576000366003190112610365576002546040516001600160a01b039091168152602090f35b34610365576020366003190112610365576004356116a0612e5e565b80156116df5760407fc401b47db6ec4c8671a2f54cf3a5f3f7069c3b71b6c6ad9ed90f2c8cc9920b6a91602054908060205582519182526020820152a1005b62bfc92160e01b60005260046000fd5b3461036557600036600319011261036557602060ff60008051602061305f83398151915254166040519015158152f35b34610365576000366003190112610365576003546040516001600160a01b039091168152602090f35b3461036557600036600319011261036557602060405161012c8152f35b34610365576000366003190112610365577f00000000000000000000000000000000000000000000000000000000000000006001600160a01b031630036117be57602060405160008051602061303f8339815191528152f35b63703e46dd60e11b60005260046000fd5b6040366003190112610365576117e3612586565b6024359067ffffffffffffffff821161036557366023830112156103655781600401359061181082612639565b9161181e6040519384612617565b8083526020830193366024838301011161036557816000926024602093018737840101526001600160a01b037f0000000000000000000000000000000000000000000000000000000000000000163081149081156119ed575b506117be57611884612e5e565b6040516352d1902d60e01b81526001600160a01b0382169390602081600481885afa600091816119b9575b506118c95784634c9c8ce360e01b60005260045260246000fd5b8060008051602061303f8339815191528692036119a55750823b156119915760008051602061303f83398151915280546001600160a01b031916821790557fbc7cd75a20ee27fd9adebab32041f755214dbc6bffa90cc0225b39da2e5c2d3b600080a2825115611976576000809161054c945190845af43d1561196e573d9161195183612639565b9261195f6040519485612617565b83523d6000602085013e612fbd565b606091612fbd565b5050503461198057005b63b398979f60e01b60005260046000fd5b634c9c8ce360e01b60005260045260246000fd5b632a87526960e21b60005260045260246000fd5b9091506020813d6020116119e5575b816119d560209383612617565b81010312610365575190866118af565b3d91506119c8565b60008051602061303f833981519152546001600160a01b03161415905084611877565b3461036557602036600319011261036557611a29612586565b611a31612e5e565b6001600160a01b031680156108295760a07fd8e98bff5ae8522235ef48daecff7488b367200bea03a4e8cb4bc98108c6a4929160065490806001600160601b03841b8316176006556040519160608352600a6060840152696e6674526576656e756560b01b6080840152600180851b031660208301526040820152a1005b3461036557600036600319011261036557611ac8612e5e565b611ad0612df8565b6008548015611b7b57600060088190555460055460405163a9059cbb60e01b60208201526001600160a01b039182166024820152604481018490527fc0819c13be868895eb93e40eaceb96de976442fa1d404e5c55f14bb65a8c489a9392611b4a9216610e1482606481015b03601f198101845283612617565b600554604080516001600160a01b0390921682526020820192909252a1600160008051602061307f83398151915255005b630d00db4d60e31b60005260046000fd5b34610365576000366003190112610365576005546040516001600160a01b039091168152602090f35b34610365576000366003190112610365576020601e54604051908152f35b3461036557600036600319011261036557611bec612e5e565b60008051602061305f8339815191525460ff811615611c455760ff191660008051602061305f833981519152557f5db9ee0a495bf2e6ff9c91a7834c1ba4fdd244a5e8aa4e537bd38aeae4b073aa6020604051338152a1005b638dfc202b60e01b60005260046000fd5b346103655760003660031901126103655760206040516125e48152f35b3461036557600036600319011261036557602060405160128152f35b346103655761012036600319011261036557611ca9612586565b611cb161259c565b906044356001600160a01b03811690819003610365576064356001600160a01b0381169290839003610365576084356001600160a01b038116908190036103655760a4356001600160a01b038116908190036103655760c4356001600160a01b03811691908290036103655760e4356001600160a01b038116939084900361036557610104359660008051602061309f833981519152549860ff8a60401c16159967ffffffffffffffff811680159081611f74575b6001149081611f6a575b159081611f61575b50611f505767ffffffffffffffff19811660011760008051602061309f833981519152558a611f23575b506001600160a01b03871615610829576001600160a01b03169586156108295787156108295781156108295782156108295783156108295784156108295785156108295788156116df57611e0090611df8612ef0565b610547612ef0565b611e08612ef0565b611e10612ef0565b611e18612ef0565b600160008051602061307f83398151915255611e32612ef0565b6001600160601b0360a01b60005416176000556001600160601b0360a01b60015416176001556001600160601b0360a01b60025416176002556001600160601b0360a01b60035416176003556001600160601b0360a01b60045416176004556001600160601b0360a01b60055416176005556001600160601b0360a01b60065416176006556020556001601a556001601d55611eca57005b68ff00000000000000001960008051602061309f833981519152541660008051602061309f833981519152557fc7f505b2f371ae2175ee4913f4499e1f2633a7b5936321eed1cdaeb6115181d2602060405160018152a1005b68ffffffffffffffffff1916680100000000000000011760008051602061309f833981519152558a611da2565b63f92ee8a960e01b60005260046000fd5b9050158c611d78565b303b159150611d70565b8c9150611d66565b346103655760003660031901126103655760206040516302f969e08152f35b3461036557602036600319011261036557600435600381101561036557600560c0910280600b01549060ff600c82015491600d810154600f600e8301549201549360405195865260208601526040850152818116606085015260081c161515608083015260a0820152f35b34610365576000366003190112610365576004546040516001600160a01b039091168152602090f35b3461036557602036600319011261036557600435600052601f602052602060018060a01b0360406000205416604051908152f35b346103655760203660031901126103655760006080604051612084816125df565b8281528260208201528260408201528260608201520152600435600052601b60205260a06040600020604051906120ba826125df565b600180841b0381541682526001810154906020830191825261212960ff6002830154166120eb6040860191826126f8565b60ff6004600385015494606088019586520154169360808601941515855260405195600180891b0390511686525160208601525160408501906125d2565b5160608301525115156080820152f35b3461036557600036600319011261036557602060405163030a32c08152f35b3461036557608036600319011261036557612171612586565b5061217a61259c565b5060643567ffffffffffffffff8111610365573660238201121561036557806004013567ffffffffffffffff81116103655736910160240111610365576004546001600160a01b031633146121dc575b604051630a85bd0160e11b8152602090f35b601e5468010000000000000000811015610465578060016122009201601e55612655565b81549060031b90604435821b91600019901b19161790556121ca565b34610365576040366003190112610365576122356125c2565b61223d6125b2565b612245612df8565b61224d612e34565b60ff82166003811015610351575060ff811691600383116124e557600381101561033b576005029160ff600e84600b0194015460081c16156124cf5760048110156110d65733600052600a6020526122a9816040600020612670565b54156124b15733600052600a6020526122c6816040600020612670565b9182546000198101908111610ec85760009355835490601d546122e881612704565b601d556040519160208301936001600160601b03193360601b168552603484015260ff60f81b9060f81b166054830152426055830152607582015260758152612332609582612617565b51902092602060018060a01b03600254166024604051809681936371c8a23960e11b83528960048401525af1928315610dcf5760009361247d575b5080549360405161237d816125df565b33815260208101958652604081019061239685836126f8565b4260608201908152600060808301818152888252601b6020526040909120925183546001600160a01b0319166001600160a01b0391909116178355975160018301559151919660028201929060048210156110d65760209861241d9460049360ff8019835416911617905551600384015551151591019060ff801983541691151516179055565b83600052601c85526040600020555490604051918252838201528160408201527f5e0c015d137a94a9e864e17092fb126241c929614b46c3bc32163b46de9bf05b60603392a2600160008051602061307f83398151915255604051908152f35b90926020823d6020116124a9575b8161249860209383612617565b81010312610eb9575051918461236d565b3d915061248b565b639f27773f60e01b6000526004526001602452600060445260646000fd5b82546332c3e47160e21b60005260045260246000fd5b8263fab9b83760e01b60005260045260246000fd5b3461036557604036600319011261036557612513612586565b60ff61251d6125b2565b169060038211612553576001600160a01b03166000908152600a6020526040902060048210156110d6576020916109d691612670565b5063fab9b83760e01b60005260045260246000fd5b346103655760203660031901126103655760206106ec6004356126a4565b600435906001600160a01b038216820361036557565b602435906001600160a01b038216820361036557565b6024359060ff8216820361036557565b6004359060ff8216820361036557565b9060048210156110d65752565b60a0810190811067ffffffffffffffff82111761046557604052565b60c0810190811067ffffffffffffffff82111761046557604052565b90601f8019910116810190811067ffffffffffffffff82111761046557604052565b67ffffffffffffffff811161046557601f01601f191660200190565b601e5481101561033b57601e60005260206000200190600090565b9060048110156110d657600052602052604060002090565b3461036557600036600319011261036557602060405160038152f35b68056bc75e2d6310000081029080820468056bc75e2d631000001490151715610ec8576020549081156126d5570490565b634e487b7160e01b600052601260045260246000fd5b91908203918211610ec857565b60048210156110d65752565b6000198114610ec85760010190565b91908201809211610ec857565b600090808252601b602052604082209260018060a01b03845416918215612c2957600485019081549060ff8216612c17575060019060ff19161790556127696001850154612e94565b9490158015612bf9575b612b63576003851015612be557600585029283600b019260ff61279b81600286015416612d22565b16606482061015612ae8575050600e9060018060a01b039054169154920161ff0019815416905582601e5480159081156129dc575b505060407fe1ef7825c332c25296359d37af815442cbd1fd6d620d8271b4180bd68f834bb0918151908582526020820152a26103e881018091116129c8578190601d5461281c81612704565b601d5560405160208101916001600160601b03193060601b168352836034830152607f60f91b6054830152426055830152607582015260758152612861609582612617565b51902093602060018060a01b03600254166024604051809681936371c8a23960e11b83528a60048401525af19283156129bd578493612988575b5060ff1690600482101561297457604051916128b6836125df565b308352602083019182526128ce6040840191826126f8565b426060840190815260808401868152858752601b60205260408720945185546001600160a01b0319166001600160a01b039190911617855592516001850155905160028401906004811015612960579286959492600492612955956040995060ff8019835416911617905551600384015551151591019060ff801983541691151516179055565b8152601c6020522055565b634e487b7160e01b87526021600452602487fd5b634e487b7160e01b84526021600452602484fd5b9092506020813d6020116129b5575b816129a460209383612617565b8101031261036557519160ff61289b565b3d9150612997565b6040513d86823e3d90fd5b634e487b7160e01b82526011600452602482fd5b9091506000198101908111612ad4576129f481612655565b90549060031b1c91612ac057612a0981612655565b815460001960039290921b9190911b19169055601e556004546001600160a01b0316803b15612abc57604051632142170760e11b81523060048201526001600160a01b0384166024820152604481018390529085908290606490829084905af18015612ab157612a7a575b806127d0565b84612aa97fe1ef7825c332c25296359d37af815442cbd1fd6d620d8271b4180bd68f834bb09396604093612617565b949150612a74565b6040513d87823e3d90fd5b8480fd5b634e487b7160e01b85526031600452602485fd5b634e487b7160e01b85526011600452602485fd5b9291509450600e839493019460ff86541660ff8114612ad457600160ff91011660ff1987541617865560ff865416908160030360ff8111612bd157907fde2c7625951ef209e3b14dc5de7c713aaf12a680817df0ba922f064834ed47e460406003949360ff8754918351928352166020820152a21015612b6a575b5050505050565b7f991f141b1f67192a98969cd4005f41d17ef23a517c6975606af1c6f48a0ae37d946060946103e8600d94818160081c06965060101c06938186600c87940155015560ff198154169055549160405192835260208301526040820152a13880808080612b63565b634e487b7160e01b86526011600452602486fd5b634e487b7160e01b84526032600452602484fd5b506003851015612be55760ff600e60058702015460081c1615612773565b633f8cbced60e21b8652600452602485fd5b63098354e960e41b8452600452602483fd5b60405190612c48826125fb565b600060a0838281528260208201528260408201528260608201528260808201520152565b90604051612c79816125fb565b60a06004829480548452600181015460208501526002810154604085015260ff6003820154818116606087015260081c16151560808501520154910152565b60048110156110d6578015612d1a57600060018214612d11575060028114612d0857600060038214612cfe5760ff92505063fab9b83760e01b6000521660045260246000fd5b50506302f969e090565b5063017d784090565b50506298968090565b50620f424090565b60048110156110d6578015612d7c57600060018214612d75575060028114612d6f57600060038214612d685760ff92505063fab9b83760e01b6000521660045260246000fd5b5050606390565b50603290565b5050601490565b50600290565b6001600160a01b03168015612de25760008051602061301f83398151915280546001600160a01b0319811683179091556001600160a01b03167f8be0079c531659141344cd1fd0a4f28419497f9722a3daafe3b4186f6b6457e0600080a3565b631e4fbdf760e01b600052600060045260246000fd5b600260008051602061307f8339815191525414612e2357600260008051602061307f83398151915255565b633ee5aeb560e01b60005260046000fd5b60ff60008051602061305f8339815191525416612e4d57565b63d93c066560e01b60005260046000fd5b60008051602061301f833981519152546001600160a01b03163303612e7f57565b63118cdaa760e01b6000523360045260246000fd5b9060005b600360ff821610612eac5750600091508190565b600381101561033b57600581028381600b0154149081612ede575b50612ed75760010160ff16612e98565b6001925090565b60ff9150600e015460081c1638612ec7565b60ff60008051602061309f8339815191525460401c1615612f0d57565b631afcd79f60e31b60005260046000fd5b906000602091828151910182855af115610dcf576000513d612f7057506001600160a01b0381163b155b612f4f5750565b635274afe760e01b60009081526001600160a01b0391909116600452602490fd5b60011415612f48565b6040516323b872dd60e01b60208201526001600160a01b0392831660248201529290911660448301526064820192909252612fbb91610e148260848101611b3c565b565b90612fe35750805115612fd257602081519101fd5b63d6bda27560e01b60005260046000fd5b81511580613015575b612ff4575090565b639996b31560e01b60009081526001600160a01b0391909116600452602490fd5b50803b15612fec56fe9016d09d72d40fdae2fd8ceac6b6234c7706214fd39c1cd1e609a0528c199300360894a13ba1a3210667c828492db98dca3e2076cc3735a920a3ca505d382bbccd5ed15c6e187e77e9aee88184c21f4f2182ab5827cb3b7e07fbedcd63f033009b779b17422d0df92223018b32b4d1fa46e071723d6817e2486d003becc55f00f0c57e16840df040f15088dc2f81fe391c3923bec73e23a9662efc9c229c6a00a2646970667358221220d2545dac920844126d52eedb206bd33e9df24fb6a5ec7e6076db1daf98e7f1d564736f6c634300081a0033",
  "linkReferences": {},
  "deployedLinkReferences": {}
}